{
  "transaction": {
    "txid": "7a76a97ab2f022b62e33b9cec91b3518300750381c2f4aa11f93c091a80d2fec",
    "hash": "7a76a97ab2f022b62e33b9cec91b3518300750381c2f4aa11f93c091a80d2fec",
    "version": 2,
    "size": 225,
    "locktime": 301,
    "vin": [
      {
        "txid": "9375c51e5deec0eb9fe1d179fdd101c616a86d8a999c36d4bdb889d5037bdb06",
        "vout": 0,
        "scriptSig": {
          "asm": "304402206b2ea4706c4fdba9b6b602f1f443bf5b424113c6c1a94c42050fc40a0679f3c3022000e191d1f70ea8e3f4f07d3e8ca1c85cfeedee8a824c13a956b4b3798b01b535[ALL|FORKID] 02ca4f10dd855ded7b93954ba3d27f7bfb419622d86590108d1c846de48d4afd23",
          "hex": "47304402206b2ea4706c4fdba9b6b602f1f443bf5b424113c6c1a94c42050fc40a0679f3c3022000e191d1f70ea8e3f4f07d3e8ca1c85cfeedee8a824c13a956b4b3798b01b535412102ca4f10dd855ded7b93954ba3d27f7bfb419622d86590108d1c846de48d4afd23"
        },
        "sequence": 4294967294
      }
    ],
    "vout": [
      {
        "value": 23.99999775,
        "n": 0,
        "scriptPubKey": {
          "asm": "OP_DUP OP_HASH160 14ac1c39d5cb61fdf882b68c937ec676ada4339e OP_EQUALVERIFY OP_CHECKSIG",
          "hex": "76a91414ac1c39d5cb61fdf882b68c937ec676ada4339e88ac",
          "reqSigs": 1,
          "type": "pubkeyhash",
          "addresses": [
            "mhQFzKZysqHP2s2WGGvoowycftYSebwQyg"
          ]
        }
      },
      {
        "value": 1,
        "n": 1,
        "scriptPubKey": {
          "asm": "OP_DUP OP_HASH160 d2eb140d8b7006e7b862827043f9cddd50da9811 OP_EQUALVERIFY OP_CHECKSIG",
          "hex": "76a914d2eb140d8b7006e7b862827043f9cddd50da981188ac",
          "reqSigs": 1,
          "type": "pubkeyhash",
          "addresses": [
            "mzkBosFeajZ5KxXp4rPNA8maqoKUFiR7nY"
          ]
        }
      }
    ],
    "hex": "020000000106db7b03d589b8bdd4369c998a6da816c601d1fd79d1e19febc0ee5d1ec57593000000006a47304402206b2ea4706c4fdba9b6b602f1f443bf5b424113c6c1a94c42050fc40a0679f3c3022000e191d1f70ea8e3f4f07d3e8ca1c85cfeedee8a824c13a956b4b3798b01b535412102ca4f10dd855ded7b93954ba3d27f7bfb419622d86590108d1c846de48d4afd23feffffff021f170d8f000000001976a91414ac1c39d5cb61fdf882b68c937ec676ada4339e88ac00e1f505000000001976a914d2eb140d8b7006e7b862827043f9cddd50da981188ac2d010000"
  },
  "inputs": [
    {
      "txid": "9375c51e5deec0eb9fe1d179fdd101c616a86d8a999c36d4bdb889d5037bdb06",
      "hash": "9375c51e5deec0eb9fe1d179fdd101c616a86d8a999c36d4bdb889d5037bdb06",
      "version": 2,
      "size": 100,
      "locktime": 0,
      "vin": [
        {
          "coinbase": "02a3000101082f454233322e302f00",
          "sequence": 4294967295
        }
      ],
      "vout": [
        {
          "value": 25,
          "n": 0,
          "scriptPubKey": {
            "asm": "OP_DUP OP_HASH160 54b6b42d2d522971635cc8e1713f843805fae2d3 OP_EQUALVERIFY OP_CHECKSIG",
            "hex": "76a91454b6b42d2d522971635cc8e1713f843805fae2d388ac",
            "reqSigs": 1,
            "type": "pubkeyhash",
            "addresses": [
              "moEsvejP9ZVEGKnvDsmmVqgyKJu53M4PuW"
            ]
          }
        }
      ],
      "hex": "02000000010000000000000000000000000000000000000000000000000000000000000000ffffffff0f02a3000101082f454233322e302f00ffffffff0100f90295000000001976a91454b6b42d2d522971635cc8e1713f843805fae2d388ac00000000",
      "blockhash": "757354f29aee433dccf61b625851b90baba1166eea03f77c4d71274945b71d2d",
      "confirmations": 139,
      "time": 1640270128,
      "blocktime": 1640270128
    }
  ]
}