{
  "transaction": {
    "txid": "dc13b3247dad31cfa83b8a79738196dc59f435a737d9197f71f349b6a6c9df01",
    "hash": "dc13b3247dad31cfa83b8a79738196dc59f435a737d9197f71f349b6a6c9df01",
    "version": 2,
    "size": 223,
    "locktime": 301,
    "vin": [
      {
        "txid": "2e162bcd2b2ffb6d5891b9f152ee2b1e3a0246fb1ebb71bcfb31cb8b17ef4574",
        "vout": 0,
        "scriptSig": {
          "asm": "3044022044d6dd0bb1e1ae71709320db794d56cf773538773891373ee3e56a54128fb98202203b06ab7da79fa8f6ffc6bcba3cc7cf658da761e0f96c050c71a87a26d2596a49[ALL|FORKID] 02ca4f10dd855ded7b93954ba3d27f7bfb419622d86590108d1c846de48d4afd23",
          "hex": "473044022044d6dd0bb1e1ae71709320db794d56cf773538773891373ee3e56a54128fb98202203b06ab7da79fa8f6ffc6bcba3cc7cf658da761e0f96c050c71a87a26d2596a49412102ca4f10dd855ded7b93954ba3d27f7bfb419622d86590108d1c846de48d4afd23"
        },
        "sequence": 4294967294
      }
    ],
    "vout": [
      {
        "value": 1,
        "n": 0,
        "scriptPubKey": {
          "asm": "OP_HASH160 fe5cc5d87e3348a5f3eaa316898a0f05d520876e OP_EQUAL",
          "hex": "a914fe5cc5d87e3348a5f3eaa316898a0f05d520876e87",
          "reqSigs": 1,
          "type": "scripthash",
          "addresses": [
            "2NGSAkyhiWMZPcrfiwmcRWf9HQgpsiRGKv4"
          ]
        }
      },
      {
        "value": 23.99999777,
        "n": 1,
        "scriptPubKey": {
          "asm": "OP_DUP OP_HASH160 1b4e6446b466ad95c89061554e6a1e8aa15e26e6 OP_EQUALVERIFY OP_CHECKSIG",
          "hex": "76a9141b4e6446b466ad95c89061554e6a1e8aa15e26e688ac",
          "reqSigs": 1,
          "type": "pubkeyhash",
          "addresses": [
            "mi1LSz4AN5jYzggqJPVEEjvTHAi7XmRBb5"
          ]
        }
      }
    ],
    "hex": "02000000017445ef178bcb31fbbc71bb1efb46023a1e2bee52f1b991586dfb2f2bcd2b162e000000006a473044022044d6dd0bb1e1ae71709320db794d56cf773538773891373ee3e56a54128fb98202203b06ab7da79fa8f6ffc6bcba3cc7cf658da761e0f96c050c71a87a26d2596a49412102ca4f10dd855ded7b93954ba3d27f7bfb419622d86590108d1c846de48d4afd23feffffff0200e1f5050000000017a914fe5cc5d87e3348a5f3eaa316898a0f05d520876e8721170d8f000000001976a9141b4e6446b466ad95c89061554e6a1e8aa15e26e688ac2d010000"
  },
  "inputs": [
    {
      "txid": "2e162bcd2b2ffb6d5891b9f152ee2b1e3a0246fb1ebb71bcfb31cb8b17ef4574",
      "hash": "2e162bcd2b2ffb6d5891b9f152ee2b1e3a0246fb1ebb71bcfb31cb8b17ef4574",
      "version": 2,
      "size": 100,
      "locktime": 0,
      "vin": [
        {
          "coinbase": "0296000101082f454233322e302f00",
          "sequence": 4294967295
        }
      ],
      "vout": [
        {
          "value": 25,
          "n": 0,
          "scriptPubKey": {
            "asm": "OP_DUP OP_HASH160 54b6b42d2d522971635cc8e1713f843805fae2d3 OP_EQUALVERIFY OP_CHECKSIG",
            "hex": "76a91454b6b42d2d522971635cc8e1713f843805fae2d388ac",
            "reqSigs": 1,
            "type": "pubkeyhash",
            "addresses": [
              "moEsvejP9ZVEGKnvDsmmVqgyKJu53M4PuW"
            ]
          }
        }
      ],
      "hex": "02000000010000000000000000000000000000000000000000000000000000000000000000ffffffff0f0296000101082f454233322e302f00ffffffff0100f90295000000001976a91454b6b42d2d522971635cc8e1713f843805fae2d388ac00000000",
      "blockhash": "4f6c0570452f4e17b4d118de4715b2dab3ac3c80e092905b2f39ba6e455b24df",
      "confirmations": 152,
      "time": 1640270126,
      "blocktime": 1640270126
    }
  ]
}