{
  "transaction": {
    "txid": "87a9512a6114e0cb16f37d3017b1ee37a47ae86eb862596a54f9d53d4e34e6bd",
    "hash": "87a9512a6114e0cb16f37d3017b1ee37a47ae86eb862596a54f9d53d4e34e6bd",
    "version": 2,
    "size": 634,
    "locktime": 0,
    "vin": [
      {
        "txid": "dc13b3247dad31cfa83b8a79738196dc59f435a737d9197f71f349b6a6c9df01",
        "vout": 0,
        "scriptSig": {
          "asm": "0 3045022100d2eb1409782fc4c4516f8676741c24e1a411be1e03e00265651c337c8769a1e102203515437dd786428e789401221eb8d60940af6f828c6a1b9bd0bbc32ad2492702[ALL|FORKID] 304402207a0a156ce9141d6baf16372f0ed97472e480aa3976e67f36603d38acdded3ecc02203988b512b80322c3a27007806e8930c9b3e92cfae7037c10c7a19f7d6fd746f6[ALL|FORKID] 5221028fedaf75b5b08cddf3bf4631c658b68ee6766a8e999467a641d7cb7aaaecec972103316bc27d95b96418349afc6298c259bb999c6e8f39a7217787ad53602be7c1472102e21c29b4a7eeace9c7a8cefb568ca00c86ff9bf5e79e07e5442c29d4a0950d0453ae",
          "hex": "00483045022100d2eb1409782fc4c4516f8676741c24e1a411be1e03e00265651c337c8769a1e102203515437dd786428e789401221eb8d60940af6f828c6a1b9bd0bbc32ad24927024147304402207a0a156ce9141d6baf16372f0ed97472e480aa3976e67f36603d38acdded3ecc02203988b512b80322c3a27007806e8930c9b3e92cfae7037c10c7a19f7d6fd746f6414c695221028fedaf75b5b08cddf3bf4631c658b68ee6766a8e999467a641d7cb7aaaecec972103316bc27d95b96418349afc6298c259bb999c6e8f39a7217787ad53602be7c1472102e21c29b4a7eeace9c7a8cefb568ca00c86ff9bf5e79e07e5442c29d4a0950d0453ae"
        },
        "sequence": 4294967295
      },
      {
        "txid": "99f1370885d64f50be5237ba0abd7b2a2bcfaf863e1647af4db3252731ed2261",
        "vout": 0,
        "scriptSig": {
          "asm": "0 304402203f08315a118a7eff7dfc7fb1d916aaefb9b0698aaf5ce51b978a810a141c4f6e0220189088ffe7eb736daacbfb50df7cdbbf32845e96fdaba908a6cc0cfac3234f6a[ALL|FORKID] 30450221008739e03991ed48bc7d9f343bf35b40fdadbd3360377c9c338e9372a6e79c12390220294350a54c228948270ed21f1eb0c0b70eddb6839d33260dc2e26a518fa21e1f[ALL|FORKID] 5221028fedaf75b5b08cddf3bf4631c658b68ee6766a8e999467a641d7cb7aaaecec972103316bc27d95b96418349afc6298c259bb999c6e8f39a7217787ad53602be7c1472102e21c29b4a7eeace9c7a8cefb568ca00c86ff9bf5e79e07e5442c29d4a0950d0453ae",
          "hex": "0047304402203f08315a118a7eff7dfc7fb1d916aaefb9b0698aaf5ce51b978a810a141c4f6e0220189088ffe7eb736daacbfb50df7cdbbf32845e96fdaba908a6cc0cfac3234f6a414830450221008739e03991ed48bc7d9f343bf35b40fdadbd3360377c9c338e9372a6e79c12390220294350a54c228948270ed21f1eb0c0b70eddb6839d33260dc2e26a518fa21e1f414c695221028fedaf75b5b08cddf3bf4631c658b68ee6766a8e999467a641d7cb7aaaecec972103316bc27d95b96418349afc6298c259bb999c6e8f39a7217787ad53602be7c1472102e21c29b4a7eeace9c7a8cefb568ca00c86ff9bf5e79e07e5442c29d4a0950d0453ae"
        },
        "sequence": 4294967295
      }
    ],
    "vout": [
      {
        "value": 1.99999,
        "n": 0,
        "scriptPubKey": {
          "asm": "OP_HASH160 fe5cc5d87e3348a5f3eaa316898a0f05d520876e OP_EQUAL",
          "hex": "a914fe5cc5d87e3348a5f3eaa316898a0f05d520876e87",
          "reqSigs": 1,
          "type": "scripthash",
          "addresses": [
            "2NGSAkyhiWMZPcrfiwmcRWf9HQgpsiRGKv4"
          ]
        }
      }
    ],
    "hex": "020000000201dfc9a6b649f3717f19d937a735f459dc968173798a3ba8cf31ad7d24b313dc00000000fdfd0000483045022100d2eb1409782fc4c4516f8676741c24e1a411be1e03e00265651c337c8769a1e102203515437dd786428e789401221eb8d60940af6f828c6a1b9bd0bbc32ad24927024147304402207a0a156ce9141d6baf16372f0ed97472e480aa3976e67f36603d38acdded3ecc02203988b512b80322c3a27007806e8930c9b3e92cfae7037c10c7a19f7d6fd746f6414c695221028fedaf75b5b08cddf3bf4631c658b68ee6766a8e999467a641d7cb7aaaecec972103316bc27d95b96418349afc6298c259bb999c6e8f39a7217787ad53602be7c1472102e21c29b4a7eeace9c7a8cefb568ca00c86ff9bf5e79e07e5442c29d4a0950d0453aeffffffff6122ed312725b34daf47163e86afcf2b2a7bbd0aba3752be504fd6850837f19900000000fdfd000047304402203f08315a118a7eff7dfc7fb1d916aaefb9b0698aaf5ce51b978a810a141c4f6e0220189088ffe7eb736daacbfb50df7cdbbf32845e96fdaba908a6cc0cfac3234f6a414830450221008739e03991ed48bc7d9f343bf35b40fdadbd3360377c9c338e9372a6e79c12390220294350a54c228948270ed21f1eb0c0b70eddb6839d33260dc2e26a518fa21e1f414c695221028fedaf75b5b08cddf3bf4631c658b68ee6766a8e999467a641d7cb7aaaecec972103316bc27d95b96418349afc6298c259bb999c6e8f39a7217787ad53602be7c1472102e21c29b4a7eeace9c7a8cefb568ca00c86ff9bf5e79e07e5442c29d4a0950d0453aeffffffff0118beeb0b0000000017a914fe5cc5d87e3348a5f3eaa316898a0f05d520876e8700000000"
  },
  "inputs": [
    {
      "txid": "dc13b3247dad31cfa83b8a79738196dc59f435a737d9197f71f349b6a6c9df01",
      "hash": "dc13b3247dad31cfa83b8a79738196dc59f435a737d9197f71f349b6a6c9df01",
      "version": 2,
      "size": 223,
      "locktime": 301,
      "vin": [
        {
          "txid": "2e162bcd2b2ffb6d5891b9f152ee2b1e3a0246fb1ebb71bcfb31cb8b17ef4574",
          "vout": 0,
          "scriptSig": {
            "asm": "3044022044d6dd0bb1e1ae71709320db794d56cf773538773891373ee3e56a54128fb98202203b06ab7da79fa8f6ffc6bcba3cc7cf658da761e0f96c050c71a87a26d2596a49[ALL|FORKID] 02ca4f10dd855ded7b93954ba3d27f7bfb419622d86590108d1c846de48d4afd23",
            "hex": "473044022044d6dd0bb1e1ae71709320db794d56cf773538773891373ee3e56a54128fb98202203b06ab7da79fa8f6ffc6bcba3cc7cf658da761e0f96c050c71a87a26d2596a49412102ca4f10dd855ded7b93954ba3d27f7bfb419622d86590108d1c846de48d4afd23"
          },
          "sequence": 4294967294
        }
      ],
      "vout": [
        {
          "value": 1,
          "n": 0,
          "scriptPubKey": {
            "asm": "OP_HASH160 fe5cc5d87e3348a5f3eaa316898a0f05d520876e OP_EQUAL",
            "hex": "a914fe5cc5d87e3348a5f3eaa316898a0f05d520876e87",
            "reqSigs": 1,
            "type": "scripthash",
            "addresses": [
              "2NGSAkyhiWMZPcrfiwmcRWf9HQgpsiRGKv4"
            ]
          }
        },
        {
          "value": 23.99999777,
          "n": 1,
          "scriptPubKey": {
            "asm": "OP_DUP OP_HASH160 1b4e6446b466ad95c89061554e6a1e8aa15e26e6 OP_EQUALVERIFY OP_CHECKSIG",
            "hex": "76a9141b4e6446b466ad95c89061554e6a1e8aa15e26e688ac",
            "reqSigs": 1,
            "type": "pubkeyhash",
            "addresses": [
              "mi1LSz4AN5jYzggqJPVEEjvTHAi7XmRBb5"
            ]
          }
        }
      ],
      "hex": "02000000017445ef178bcb31fbbc71bb1efb46023a1e2bee52f1b991586dfb2f2bcd2b162e000000006a473044022044d6dd0bb1e1ae71709320db794d56cf773538773891373ee3e56a54128fb98202203b06ab7da79fa8f6ffc6bcba3cc7cf658da761e0f96c050c71a87a26d2596a49412102ca4f10dd855ded7b93954ba3d27f7bfb419622d86590108d1c846de48d4afd23feffffff0200e1f5050000000017a914fe5cc5d87e3348a5f3eaa316898a0f05d520876e8721170d8f000000001976a9141b4e6446b466ad95c89061554e6a1e8aa15e26e688ac2d010000"
    },
    {
      "txid": "99f1370885d64f50be5237ba0abd7b2a2bcfaf863e1647af4db3252731ed2261",
      "hash": "99f1370885d64f50be5237ba0abd7b2a2bcfaf863e1647af4db3252731ed2261",
      "version": 2,
      "size": 223,
      "locktime": 301,
      "vin": [
        {
          "txid": "9def50f70d414903feeb189b6bf48f594ceef5a0f127c8404e3c6f0145a32833",
          "vout": 0,
          "scriptSig": {
            "asm": "304402200b3ba9fa0445774bddb583e9a6df90faffab95f3772d468dbb343409507f048d02200ba281c3d769e24588361ef726686a995af02c36d204b82182166e7c15c7de27[ALL|FORKID] 02ca4f10dd855ded7b93954ba3d27f7bfb419622d86590108d1c846de48d4afd23",
            "hex": "47304402200b3ba9fa0445774bddb583e9a6df90faffab95f3772d468dbb343409507f048d02200ba281c3d769e24588361ef726686a995af02c36d204b82182166e7c15c7de27412102ca4f10dd855ded7b93954ba3d27f7bfb419622d86590108d1c846de48d4afd23"
          },
          "sequence": 4294967294
        }
      ],
      "vout": [
        {
          "value": 1,
          "n": 0,
          "scriptPubKey": {
            "asm": "OP_HASH160 fe5cc5d87e3348a5f3eaa316898a0f05d520876e OP_EQUAL",
            "hex": "a914fe5cc5d87e3348a5f3eaa316898a0f05d520876e87",
            "reqSigs": 1,
            "type": "scripthash",
            "addresses": [
              "2NGSAkyhiWMZPcrfiwmcRWf9HQgpsiRGKv4"
            ]
          }
        },
        {
          "value": 23.99999777,
          "n": 1,
          "scriptPubKey": {
            "asm": "OP_DUP OP_HASH160 a2e44ea66be35d2f4c63c0b1f1bd1fa8d56b9948 OP_EQUALVERIFY OP_CHECKSIG",
            "hex": "76a914a2e44ea66be35d2f4c63c0b1f1bd1fa8d56b994888ac",
            "reqSigs": 1,
            "type": "pubkeyhash",
            "addresses": [
              "mvNFGCFTv8zdazQ7smYLgQjwmajLBHXzxv"
            ]
          }
        }
      ],
      "hex": "02000000013328a345016f3c4e40c827f1a0f5ee4c598ff46b9b18ebfe0349410df750ef9d000000006a47304402200b3ba9fa0445774bddb583e9a6df90faffab95f3772d468dbb343409507f048d02200ba281c3d769e24588361ef726686a995af02c36d204b82182166e7c15c7de27412102ca4f10dd855ded7b93954ba3d27f7bfb419622d86590108d1c846de48d4afd23feffffff0200e1f5050000000017a914fe5cc5d87e3348a5f3eaa316898a0f05d520876e8721170d8f000000001976a914a2e44ea66be35d2f4c63c0b1f1bd1fa8d56b994888ac2d010000"
    }
  ]
}