{
  "transaction": {
    "txid": "1d709b8d5a38ceea56b293f965ca65abe1dca4cf5e0e66d785cbe7022b22f0c4",
    "hash": "1d709b8d5a38ceea56b293f965ca65abe1dca4cf5e0e66d785cbe7022b22f0c4",
    "version": 2,
    "size": 225,
    "locktime": 301,
    "vin": [
      {
        "txid": "56bf1884a8dd37206f30e6788a64f1eab7445e78a14b7881848c59fb3c057d70",
        "vout": 0,
        "scriptSig": {
          "asm": "3044022021902d5fd0b0ba363c3997214bdf9062032526f5df45467cf91abb34b383b42c0220784ff29999b50388048d497b2e1fd8e26b453df140f505a89dfc35a5d375541e[ALL|FORKID] 03a40fe396f65e7285894cb1d735b5a292d79ce3b29a165bffa3a9bde8f6a61c68",
          "hex": "473044022021902d5fd0b0ba363c3997214bdf9062032526f5df45467cf91abb34b383b42c0220784ff29999b50388048d497b2e1fd8e26b453df140f505a89dfc35a5d375541e412103a40fe396f65e7285894cb1d735b5a292d79ce3b29a165bffa3a9bde8f6a61c68"
        },
        "sequence": 4294967294
      }
    ],
    "vout": [
      {
        "value": 23.99999774,
        "n": 0,
        "scriptPubKey": {
          "asm": "OP_DUP OP_HASH160 b1e5e772a5785c5742c47cbcea8dbad382b8afa3 OP_EQUALVERIFY OP_CHECKSIG",
          "hex": "76a914b1e5e772a5785c5742c47cbcea8dbad382b8afa388ac",
          "reqSigs": 1,
          "type": "pubkeyhash",
          "addresses": [
            "mwjbK2NTrUPHLdWVBqgpeZ7tr1JLzzEZS4"
          ]
        }
      },
      {
        "value": 1,
        "n": 1,
        "scriptPubKey": {
          "asm": "OP_DUP OP_HASH160 d2eb140d8b7006e7b862827043f9cddd50da9811 OP_EQUALVERIFY OP_CHECKSIG",
          "hex": "76a914d2eb140d8b7006e7b862827043f9cddd50da981188ac",
          "reqSigs": 1,
          "type": "pubkeyhash",
          "addresses": [
            "mzkBosFeajZ5KxXp4rPNA8maqoKUFiR7nY"
          ]
        }
      }
    ],
    "hex": "0200000001707d053cfb598c8481784ba1785e44b7eaf1648a78e6306f2037dda88418bf56000000006a473044022021902d5fd0b0ba363c3997214bdf9062032526f5df45467cf91abb34b383b42c0220784ff29999b50388048d497b2e1fd8e26b453df140f505a89dfc35a5d375541e412103a40fe396f65e7285894cb1d735b5a292d79ce3b29a165bffa3a9bde8f6a61c68feffffff021e170d8f000000001976a914b1e5e772a5785c5742c47cbcea8dbad382b8afa388ac00e1f505000000001976a914d2eb140d8b7006e7b862827043f9cddd50da981188ac2d010000"
  },
  "inputs": [
    {
      "txid": "56bf1884a8dd37206f30e6788a64f1eab7445e78a14b7881848c59fb3c057d70",
      "hash": "56bf1884a8dd37206f30e6788a64f1eab7445e78a14b7881848c59fb3c057d70",
      "version": 2,
      "size": 90,
      "locktime": 0,
      "vin": [
        {
          "coinbase": "02ad000101",
          "sequence": 4294967295
        }
      ],
      "vout": [
        {
          "value": 25,
          "n": 0,
          "scriptPubKey": {
            "asm": "OP_DUP OP_HASH160 26fc2b3b1b78c7d6edd3db284f9974cddb298225 OP_EQUALVERIFY OP_CHECKSIG",
            "hex": "76a91426fc2b3b1b78c7d6edd3db284f9974cddb29822588ac",
            "reqSigs": 1,
            "type": "pubkeyhash",
            "addresses": [
              "mj564Lu3b8xHnBk5Y24bUgFxdNEDXW8Nmw"
            ]
          }
        }
      ],
      "blockhash": "4173760a98646deeaf6bd01f021c69c9f10a768305a23583fe34bff602556084",
      "confirmations": 129,
      "time": 1640270140,
      "blocktime": 1640270140,
      "blockheight": 173,
      "hex": "02000000010000000000000000000000000000000000000000000000000000000000000000ffffffff0502ad000101ffffffff0100f90295000000001976a91426fc2b3b1b78c7d6edd3db284f9974cddb29822588ac00000000"
    }
  ]
}