{
  "transaction": {
    "txid": "2508ccce16d56b0b1f313a66067d2d2282184bdb2a31315e3558da1ec8ad9929",
    "hash": "2508ccce16d56b0b1f313a66067d2d2282184bdb2a31315e3558da1ec8ad9929",
    "version": 2,
    "size": 224,
    "locktime": 301,
    "vin": [
      {
        "txid": "429a412c69082609ba9e83851d67313f32776cdd07ea1f831a3b71f5a2d4f543",
        "vout": 0,
        "scriptSig": {
          "asm": "304502210090e0d466ab13d7d0ab59741306deb98751423a7af1bce58659599de1e7b7806902205b02819a76c5e5381d3b2c3f00926a2f1ad6b94bc1f6ee0a6c9d8069e06ccb4e[ALL|FORKID] 03a40fe396f65e7285894cb1d735b5a292d79ce3b29a165bffa3a9bde8f6a61c68",
          "hex": "48304502210090e0d466ab13d7d0ab59741306deb98751423a7af1bce58659599de1e7b7806902205b02819a76c5e5381d3b2c3f00926a2f1ad6b94bc1f6ee0a6c9d8069e06ccb4e412103a40fe396f65e7285894cb1d735b5a292d79ce3b29a165bffa3a9bde8f6a61c68"
        },
        "sequence": 4294967294
      }
    ],
    "vout": [
      {
        "value": 1,
        "n": 0,
        "scriptPubKey": {
          "asm": "OP_HASH160 fe5cc5d87e3348a5f3eaa316898a0f05d520876e OP_EQUAL",
          "hex": "a914fe5cc5d87e3348a5f3eaa316898a0f05d520876e87",
          "reqSigs": 1,
          "type": "scripthash",
          "addresses": [
            "2NGSAkyhiWMZPcrfiwmcRWf9HQgpsiRGKv4"
          ]
        }
      },
      {
        "value": 23.99999776,
        "n": 1,
        "scriptPubKey": {
          "asm": "OP_DUP OP_HASH160 135d967041a2345ceb31eab7cd76e2ea319cfcc3 OP_EQUALVERIFY OP_CHECKSIG",
          "hex": "76a914135d967041a2345ceb31eab7cd76e2ea319cfcc388ac",
          "reqSigs": 1,
          "type": "pubkeyhash",
          "addresses": [
            "mhHMFHMQtv9QDnsMyY6dbjUMCZWMimtVrR"
          ]
        }
      }
    ],
    "hex": "020000000143f5d4a2f5713b1a831fea07dd6c77323f31671d85839eba092608692c419a42000000006b48304502210090e0d466ab13d7d0ab59741306deb98751423a7af1bce58659599de1e7b7806902205b02819a76c5e5381d3b2c3f00926a2f1ad6b94bc1f6ee0a6c9d8069e06ccb4e412103a40fe396f65e7285894cb1d735b5a292d79ce3b29a165bffa3a9bde8f6a61c68feffffff0200e1f5050000000017a914fe5cc5d87e3348a5f3eaa316898a0f05d520876e8720170d8f000000001976a914135d967041a2345ceb31eab7cd76e2ea319cfcc388ac2d010000"
  },
  "inputs": [
    {
      "txid": "429a412c69082609ba9e83851d67313f32776cdd07ea1f831a3b71f5a2d4f543",
      "hash": "429a412c69082609ba9e83851d67313f32776cdd07ea1f831a3b71f5a2d4f543",
      "version": 2,
      "size": 90,
      "locktime": 0,
      "vin": [
        {
          "coinbase": "02ba000101",
          "sequence": 4294967295
        }
      ],
      "vout": [
        {
          "value": 25,
          "n": 0,
          "scriptPubKey": {
            "asm": "OP_DUP OP_HASH160 26fc2b3b1b78c7d6edd3db284f9974cddb298225 OP_EQUALVERIFY OP_CHECKSIG",
            "hex": "76a91426fc2b3b1b78c7d6edd3db284f9974cddb29822588ac",
            "reqSigs": 1,
            "type": "pubkeyhash",
            "addresses": [
              "mj564Lu3b8xHnBk5Y24bUgFxdNEDXW8Nmw"
            ]
          }
        }
      ],
      "blockhash": "416357ef58a9009f40a838058fb514370107bd0dd436cb92bde4c3bd5a096d95",
      "confirmations": 116,
      "time": 1640270142,
      "blocktime": 1640270142,
      "blockheight": 186,
      "hex": "02000000010000000000000000000000000000000000000000000000000000000000000000ffffffff0502ba000101ffffffff0100f90295000000001976a91426fc2b3b1b78c7d6edd3db284f9974cddb29822588ac00000000"
    }
  ]
}