{
  "transaction": {
    "txid": "85e689cb71da43a2509edc00a743af06c28659e133b53c2f0f307696c51f6e9f",
    "hash": "85e689cb71da43a2509edc00a743af06c28659e133b53c2f0f307696c51f6e9f",
    "version": 2,
    "size": 634,
    "locktime": 0,
    "vin": [
      {
        "txid": "2508ccce16d56b0b1f313a66067d2d2282184bdb2a31315e3558da1ec8ad9929",
        "vout": 0,
        "scriptSig": {
          "asm": "0 3044022079d54311c452264313583e477f36e4a6bb56a89eb6fb36e11df0a86241f76cf2022036e813349c8258fee8f3751d2b07bbf99a1764578ecad2ade21820f7d2bd224e[ALL|FORKID] 30450221009c2c1746067cbc8cd351c25df6135f6a3e616c5681d35bd4a7ad79b98a06d5c20220389b5e043dcb5e6096530a56aeef4ae50e82470c67136b447b830f601eb766a5[ALL|FORKID] 5221028fedaf75b5b08cddf3bf4631c658b68ee6766a8e999467a641d7cb7aaaecec972103316bc27d95b96418349afc6298c259bb999c6e8f39a7217787ad53602be7c1472102e21c29b4a7eeace9c7a8cefb568ca00c86ff9bf5e79e07e5442c29d4a0950d0453ae",
          "hex": "00473044022079d54311c452264313583e477f36e4a6bb56a89eb6fb36e11df0a86241f76cf2022036e813349c8258fee8f3751d2b07bbf99a1764578ecad2ade21820f7d2bd224e414830450221009c2c1746067cbc8cd351c25df6135f6a3e616c5681d35bd4a7ad79b98a06d5c20220389b5e043dcb5e6096530a56aeef4ae50e82470c67136b447b830f601eb766a5414c695221028fedaf75b5b08cddf3bf4631c658b68ee6766a8e999467a641d7cb7aaaecec972103316bc27d95b96418349afc6298c259bb999c6e8f39a7217787ad53602be7c1472102e21c29b4a7eeace9c7a8cefb568ca00c86ff9bf5e79e07e5442c29d4a0950d0453ae"
        },
        "sequence": 4294967295
      },
      {
        "txid": "da9eb43f859308cbc4737aa9dbe17d4f36cca94c198e277777f9d99b2b358414",
        "vout": 0,
        "scriptSig": {
          "asm": "0 3045022100b6817c5a90ee6c3d52e97490cdef02da7aecadd013ea66f477c63c0d30e478220220533c7ad85e9b459b8cb476d7cff6173037cf378b5d0f7bfc46d78e2abbf54f04[ALL|FORKID] 304402202ab92fe3c60bc79a2325d868f5d1147f18fb509922e0de27f13c7c079e02a98e02204d67654b3fb6cb891e23814de6165b013404a8a8830a7eadc4a24e8e0c7edd6c[ALL|FORKID] 5221028fedaf75b5b08cddf3bf4631c658b68ee6766a8e999467a641d7cb7aaaecec972103316bc27d95b96418349afc6298c259bb999c6e8f39a7217787ad53602be7c1472102e21c29b4a7eeace9c7a8cefb568ca00c86ff9bf5e79e07e5442c29d4a0950d0453ae",
          "hex": "00483045022100b6817c5a90ee6c3d52e97490cdef02da7aecadd013ea66f477c63c0d30e478220220533c7ad85e9b459b8cb476d7cff6173037cf378b5d0f7bfc46d78e2abbf54f044147304402202ab92fe3c60bc79a2325d868f5d1147f18fb509922e0de27f13c7c079e02a98e02204d67654b3fb6cb891e23814de6165b013404a8a8830a7eadc4a24e8e0c7edd6c414c695221028fedaf75b5b08cddf3bf4631c658b68ee6766a8e999467a641d7cb7aaaecec972103316bc27d95b96418349afc6298c259bb999c6e8f39a7217787ad53602be7c1472102e21c29b4a7eeace9c7a8cefb568ca00c86ff9bf5e79e07e5442c29d4a0950d0453ae"
        },
        "sequence": 4294967295
      }
    ],
    "vout": [
      {
        "value": 1.99999,
        "n": 0,
        "scriptPubKey": {
          "asm": "OP_HASH160 fe5cc5d87e3348a5f3eaa316898a0f05d520876e OP_EQUAL",
          "hex": "a914fe5cc5d87e3348a5f3eaa316898a0f05d520876e87",
          "reqSigs": 1,
          "type": "scripthash",
          "addresses": [
            "2NGSAkyhiWMZPcrfiwmcRWf9HQgpsiRGKv4"
          ]
        }
      }
    ],
    "hex": "02000000022999adc81eda58355e31312adb4b1882222d7d06663a311f0b6bd516cecc082500000000fdfd0000473044022079d54311c452264313583e477f36e4a6bb56a89eb6fb36e11df0a86241f76cf2022036e813349c8258fee8f3751d2b07bbf99a1764578ecad2ade21820f7d2bd224e414830450221009c2c1746067cbc8cd351c25df6135f6a3e616c5681d35bd4a7ad79b98a06d5c20220389b5e043dcb5e6096530a56aeef4ae50e82470c67136b447b830f601eb766a5414c695221028fedaf75b5b08cddf3bf4631c658b68ee6766a8e999467a641d7cb7aaaecec972103316bc27d95b96418349afc6298c259bb999c6e8f39a7217787ad53602be7c1472102e21c29b4a7eeace9c7a8cefb568ca00c86ff9bf5e79e07e5442c29d4a0950d0453aeffffffff1484352b9bd9f97777278e194ca9cc364f7de1dba97a73c4cb0893853fb49eda00000000fdfd0000483045022100b6817c5a90ee6c3d52e97490cdef02da7aecadd013ea66f477c63c0d30e478220220533c7ad85e9b459b8cb476d7cff6173037cf378b5d0f7bfc46d78e2abbf54f044147304402202ab92fe3c60bc79a2325d868f5d1147f18fb509922e0de27f13c7c079e02a98e02204d67654b3fb6cb891e23814de6165b013404a8a8830a7eadc4a24e8e0c7edd6c414c695221028fedaf75b5b08cddf3bf4631c658b68ee6766a8e999467a641d7cb7aaaecec972103316bc27d95b96418349afc6298c259bb999c6e8f39a7217787ad53602be7c1472102e21c29b4a7eeace9c7a8cefb568ca00c86ff9bf5e79e07e5442c29d4a0950d0453aeffffffff0118beeb0b0000000017a914fe5cc5d87e3348a5f3eaa316898a0f05d520876e8700000000"
  },
  "inputs": [
    {
      "txid": "2508ccce16d56b0b1f313a66067d2d2282184bdb2a31315e3558da1ec8ad9929",
      "hash": "2508ccce16d56b0b1f313a66067d2d2282184bdb2a31315e3558da1ec8ad9929",
      "version": 2,
      "size": 224,
      "locktime": 301,
      "vin": [
        {
          "txid": "429a412c69082609ba9e83851d67313f32776cdd07ea1f831a3b71f5a2d4f543",
          "vout": 0,
          "scriptSig": {
            "asm": "304502210090e0d466ab13d7d0ab59741306deb98751423a7af1bce58659599de1e7b7806902205b02819a76c5e5381d3b2c3f00926a2f1ad6b94bc1f6ee0a6c9d8069e06ccb4e[ALL|FORKID] 03a40fe396f65e7285894cb1d735b5a292d79ce3b29a165bffa3a9bde8f6a61c68",
            "hex": "48304502210090e0d466ab13d7d0ab59741306deb98751423a7af1bce58659599de1e7b7806902205b02819a76c5e5381d3b2c3f00926a2f1ad6b94bc1f6ee0a6c9d8069e06ccb4e412103a40fe396f65e7285894cb1d735b5a292d79ce3b29a165bffa3a9bde8f6a61c68"
          },
          "sequence": 4294967294
        }
      ],
      "vout": [
        {
          "value": 1,
          "n": 0,
          "scriptPubKey": {
            "asm": "OP_HASH160 fe5cc5d87e3348a5f3eaa316898a0f05d520876e OP_EQUAL",
            "hex": "a914fe5cc5d87e3348a5f3eaa316898a0f05d520876e87",
            "reqSigs": 1,
            "type": "scripthash",
            "addresses": [
              "2NGSAkyhiWMZPcrfiwmcRWf9HQgpsiRGKv4"
            ]
          }
        },
        {
          "value": 23.99999776,
          "n": 1,
          "scriptPubKey": {
            "asm": "OP_DUP OP_HASH160 135d967041a2345ceb31eab7cd76e2ea319cfcc3 OP_EQUALVERIFY OP_CHECKSIG",
            "hex": "76a914135d967041a2345ceb31eab7cd76e2ea319cfcc388ac",
            "reqSigs": 1,
            "type": "pubkeyhash",
            "addresses": [
              "mhHMFHMQtv9QDnsMyY6dbjUMCZWMimtVrR"
            ]
          }
        }
      ],
      "hex": "020000000143f5d4a2f5713b1a831fea07dd6c77323f31671d85839eba092608692c419a42000000006b48304502210090e0d466ab13d7d0ab59741306deb98751423a7af1bce58659599de1e7b7806902205b02819a76c5e5381d3b2c3f00926a2f1ad6b94bc1f6ee0a6c9d8069e06ccb4e412103a40fe396f65e7285894cb1d735b5a292d79ce3b29a165bffa3a9bde8f6a61c68feffffff0200e1f5050000000017a914fe5cc5d87e3348a5f3eaa316898a0f05d520876e8720170d8f000000001976a914135d967041a2345ceb31eab7cd76e2ea319cfcc388ac2d010000"
    },
    {
      "txid": "da9eb43f859308cbc4737aa9dbe17d4f36cca94c198e277777f9d99b2b358414",
      "hash": "da9eb43f859308cbc4737aa9dbe17d4f36cca94c198e277777f9d99b2b358414",
      "version": 2,
      "size": 223,
      "locktime": 301,
      "vin": [
        {
          "txid": "5aba409a8fd54e62c46fafb5faae64f7e34e0901676ac87d970cb98d0f672bc0",
          "vout": 0,
          "scriptSig": {
            "asm": "30440220507aeb835fa01a134430a3bb2e30d1b7153300b4d1872e34efd2f105b0dbbef8022004a64ff2b4782de4ee126d87e9ede999ebcbd0b4447be939d3e4b370a16bbb46[ALL|FORKID] 03a40fe396f65e7285894cb1d735b5a292d79ce3b29a165bffa3a9bde8f6a61c68",
            "hex": "4730440220507aeb835fa01a134430a3bb2e30d1b7153300b4d1872e34efd2f105b0dbbef8022004a64ff2b4782de4ee126d87e9ede999ebcbd0b4447be939d3e4b370a16bbb46412103a40fe396f65e7285894cb1d735b5a292d79ce3b29a165bffa3a9bde8f6a61c68"
          },
          "sequence": 4294967294
        }
      ],
      "vout": [
        {
          "value": 1,
          "n": 0,
          "scriptPubKey": {
            "asm": "OP_HASH160 fe5cc5d87e3348a5f3eaa316898a0f05d520876e OP_EQUAL",
            "hex": "a914fe5cc5d87e3348a5f3eaa316898a0f05d520876e87",
            "reqSigs": 1,
            "type": "scripthash",
            "addresses": [
              "2NGSAkyhiWMZPcrfiwmcRWf9HQgpsiRGKv4"
            ]
          }
        },
        {
          "value": 23.99999776,
          "n": 1,
          "scriptPubKey": {
            "asm": "OP_DUP OP_HASH160 0c4c84a2358c5a97dfd17ebf9a7f5b2273a7cee7 OP_EQUALVERIFY OP_CHECKSIG",
            "hex": "76a9140c4c84a2358c5a97dfd17ebf9a7f5b2273a7cee788ac",
            "reqSigs": 1,
            "type": "pubkeyhash",
            "addresses": [
              "mgdz4vhy69yoMpViioRjXDBvrxsLjjvFEB"
            ]
          }
        }
      ],
      "hex": "0200000001c02b670f8db90c977dc86a6701094ee3f764aefab5af6fc4624ed58f9a40ba5a000000006a4730440220507aeb835fa01a134430a3bb2e30d1b7153300b4d1872e34efd2f105b0dbbef8022004a64ff2b4782de4ee126d87e9ede999ebcbd0b4447be939d3e4b370a16bbb46412103a40fe396f65e7285894cb1d735b5a292d79ce3b29a165bffa3a9bde8f6a61c68feffffff0200e1f5050000000017a914fe5cc5d87e3348a5f3eaa316898a0f05d520876e8720170d8f000000001976a9140c4c84a2358c5a97dfd17ebf9a7f5b2273a7cee788ac2d010000"
    }
  ]
}