import { ETHTransactionType, KeyPair, LegacyTxData } from '@bitgo/abstract-eth';
import { Networks } from '@bitgo/statics';

export const ENCODED_TRANSACTION =
  '0xf91661010a822ee09419645032c7f1533395d44a629462e751084d3e4c8204d2b915fb60606040526000600160006101000a81548160ff021916908315150217905550341561002a57600080fd5b60405161155b38038061155b833981016040528080518201919050506003815114151561005657600080fd5b806000908051906020019061006c929190610073565b5050610140565b8280548282559060005260206000209081019282156100ec579160200282015b828111156100eb5782518260006101000a81548173ffffffffffffffffffffffffffffffffffffffff021916908373ffffffffffffffffffffffffffffffffffffffff16021790555091602001919060010190610093565b5b5090506100f991906100fd565b5090565b61013d91905b8082111561013957600081816101000a81549073ffffffffffffffffffffffffffffffffffffffff021916905550600101610103565b5090565b90565b61140c8061014f6000396000f300606060405260043610610099576000357c0100000000000000000000000000000000000000000000000000000000900463ffffffff1680630dcd7a6c146101335780632079fb9a146101e95780632da034091461024c57806339125215146102a45780637df73e271461037e578063a0b7967b146103cf578063a68a76cc146103f8578063abe3219c1461044d578063fc0f392d1461047a575b6000341115610131577f6e89d517057028190560dd200cf6bf792842861353d1173761dfa362e1c133f03334600036604051808573ffffffffffffffffffffffffffffffffffffffff1673ffffffffffffffffffffffffffffffffffffffff16815260200184815260200180602001828103825284848281815260200192508082843782019150509550505050505060405180910390a15b005b341561013e57600080fd5b6101e7600480803573ffffffffffffffffffffffffffffffffffffffff1690602001909190803590602001909190803573ffffffffffffffffffffffffffffffffffffffff1690602001909190803590602001909190803590602001909190803590602001908201803590602001908080601f0160208091040260200160405190810160405280939291908181526020018383808284378201915050505050509190505061048f565b005b34156101f457600080fd5b61020a6004808035906020019091905050610668565b604051808273ffffffffffffffffffffffffffffffffffffffff1673ffffffffffffffffffffffffffffffffffffffff16815260200191505060405180910390f35b341561025757600080fd5b6102a2600480803573ffffffffffffffffffffffffffffffffffffffff1690602001909190803573ffffffffffffffffffffffffffffffffffffffff169060200190919050506106a7565b005b34156102af57600080fd5b61037c600480803573ffffffffffffffffffffffffffffffffffffffff1690602001909190803590602001909190803590602001908201803590602001908080601f0160208091040260200160405190810160405280939291908181526020018383808284378201915050505050509190803590602001909190803590602001909190803590602001908201803590602001908080601f01602080910402602001604051908101604052809392919081815260200183838082843782019150505050505091905050610773565b005b341561038957600080fd5b6103b5600480803573ffffffffffffffffffffffffffffffffffffffff16906020019091905050610a72565b604051808215151515815260200191505060405180910390f35b34156103da57600080fd5b6103e2610b16565b6040518082815260200191505060405180910390f35b341561040357600080fd5b61040b610b70565b604051808273ffffffffffffffffffffffffffffffffffffffff1673ffffffffffffffffffffffffffffffffffffffff16815260200191505060405180910390f35b341561045857600080fd5b610460610b95565b604051808215151515815260200191505060405180910390f35b341561048557600080fd5b61048d610ba8565b005b60008061049b33610a72565b15156104a657600080fd5b878787878760405180807f45524332300000000000000000000000000000000000000000000000000000008152506005018673ffffffffffffffffffffffffffffffffffffffff1673ffffffffffffffffffffffffffffffffffffffff166c010000000000000000000000000281526014018581526020018473ffffffffffffffffffffffffffffffffffffffff1673ffffffffffffffffffffffffffffffffffffffff166c0100000000000000000000000002815260140183815260200182815260200195505050505050604051809103902091506105898883858888610c3b565b508590508073ffffffffffffffffffffffffffffffffffffffff1663a9059cbb89896000604051602001526040518363ffffffff167c0100000000000000000000000000000000000000000000000000000000028152600401808373ffffffffffffffffffffffffffffffffffffffff1673ffffffffffffffffffffffffffffffffffffffff16815260200182815260200192505050602060405180830381600087803b151561063857600080fd5b6102c65a03f1151561064957600080fd5b50505060405180519050151561065e57600080fd5b5050505050505050565b60008181548110151561067757fe5b90600052602060002090016000915054906101000a900473ffffffffffffffffffffffffffffffffffffffff1681565b60006106b233610a72565b15156106bd57600080fd5b8290508073ffffffffffffffffffffffffffffffffffffffff16633ef13367836040518263ffffffff167c0100000000000000000000000000000000000000000000000000000000028152600401808273ffffffffffffffffffffffffffffffffffffffff1673ffffffffffffffffffffffffffffffffffffffff168152602001915050600060405180830381600087803b151561075a57600080fd5b6102c65a03f1151561076b57600080fd5b505050505050565b60008061077f33610a72565b151561078a57600080fd5b878787878760405180807f45544845520000000000000000000000000000000000000000000000000000008152506005018673ffffffffffffffffffffffffffffffffffffffff1673ffffffffffffffffffffffffffffffffffffffff166c0100000000000000000000000002815260140185815260200184805190602001908083835b602083101515610833578051825260208201915060208101905060208303925061080e565b6001836020036101000a038019825116818451168082178552505050505050905001838152602001828152602001955050505050506040518091039020915061087f8883858888610c3b565b90508773ffffffffffffffffffffffffffffffffffffffff16878760405180828051906020019080838360005b838110156108c75780820151818401526020810190506108ac565b50505050905090810190601f1680156108f45780820380516001836020036101000a031916815260200191505b5091505060006040518083038185876187965a03f192505050151561091857600080fd5b7f59bed9ab5d78073465dd642a9e3e76dfdb7d53bcae9d09df7d0b8f5234d5a8063382848b8b8b604051808773ffffffffffffffffffffffffffffffffffffffff1673ffffffffffffffffffffffffffffffffffffffff1681526020018673ffffffffffffffffffffffffffffffffffffffff1673ffffffffffffffffffffffffffffffffffffffff16815260200185600019166000191681526020018473ffffffffffffffffffffffffffffffffffffffff1673ffffffffffffffffffffffffffffffffffffffff16815260200183815260200180602001828103825283818151815260200191508051906020019080838360005b83811015610a29578082015181840152602081019050610a0e565b50505050905090810190601f168015610a565780820380516001836020036101000a031916815260200191505b5097505050505050505060405180910390a15050505050505050565b600080600090505b600080549050811015610b0b578273ffffffffffffffffffffffffffffffffffffffff16600082815481101515610aad57fe5b906000526020600020900160009054906101000a900473ffffffffffffffffffffffffffffffffffffffff1673ffffffffffffffffffffffffffffffffffffffff161415610afe5760019150610b10565b8080600101915050610a7a565b600091505b50919050565b6000806000809150600090505b600a811015610b655781600282600a81101515610b3c57fe5b01541115610b5857600281600a81101515610b5357fe5b015491505b8080600101915050610b23565b600182019250505090565b6000610b7a610e90565b604051809103906000f0801515610b9057600080fd5b905090565b600160009054906101000a900460ff1681565b610bb133610a72565b1515610bbc57600080fd5b60018060006101000a81548160ff0219169083151502179055507f0909e8f76a4fd3e970f2eaef56c0ee6dfaf8b87c5b8d3f56ffce78e825a9115733604051808273ffffffffffffffffffffffffffffffffffffffff1673ffffffffffffffffffffffffffffffffffffffff16815260200191505060405180910390a1565b600080610c488686610ce6565b9050600160009054906101000a900460ff168015610c6c5750610c6a87610a72565b155b15610c7657600080fd5b42841015610c8357600080fd5b610c8c83610db9565b610c9581610a72565b1515610ca057600080fd5b3373ffffffffffffffffffffffffffffffffffffffff168173ffffffffffffffffffffffffffffffffffffffff161415610cd957600080fd5b8091505095945050505050565b60008060008060418551141515610cfc57600080fd5b602085015192506040850151915060ff6041860151169050601b8160ff161015610d2757601b810190505b600186828585604051600081526020016040526000604051602001526040518085600019166000191681526020018460ff1660ff16815260200183600019166000191681526020018260001916600019168152602001945050505050602060405160208103908084039060008661646e5a03f11515610da557600080fd5b505060206040510351935050505092915050565b600080610dc533610a72565b1515610dd057600080fd5b60009150600090505b600a811015610e385782600282600a81101515610df257fe5b01541415610dff57600080fd5b600282600a81101515610e0e57fe5b0154600282600a81101515610e1f57fe5b01541015610e2b578091505b8080600101915050610dd9565b600282600a81101515610e4757fe5b0154831015610e5557600080fd5b612710600283600a81101515610e6757fe5b015401831115610e7657600080fd5b82600283600a81101515610e8657fe5b0181905550505050565b60405161054080610ea18339019056006060604052341561000f57600080fd5b336000806101000a81548173ffffffffffffffffffffffffffffffffffffffff021916908373ffffffffffffffffffffffffffffffffffffffff1602179055506104e28061005e6000396000f300606060405260043610610056576000357c0100000000000000000000000000000000000000000000000000000000900463ffffffff168062821de3146101475780633ef133671461019c5780636b9f96ea146101d5575b6000809054906101000a900473ffffffffffffffffffffffffffffffffffffffff1673ffffffffffffffffffffffffffffffffffffffff166108fc349081150290604051600060405180830381858888f1935050505015156100b757600080fd5b7f69b31548dea9b3b707b4dff357d326e3e9348b24e7a6080a218a6edeeec48f9b3334600036604051808573ffffffffffffffffffffffffffffffffffffffff1673ffffffffffffffffffffffffffffffffffffffff16815260200184815260200180602001828103825284848281815260200192508082843782019150509550505050505060405180910390a1005b341561015257600080fd5b61015a6101ea565b604051808273ffffffffffffffffffffffffffffffffffffffff1673ffffffffffffffffffffffffffffffffffffffff16815260200191505060405180910390f35b34156101a757600080fd5b6101d3600480803573ffffffffffffffffffffffffffffffffffffffff1690602001909190505061020f565b005b34156101e057600080fd5b6101e861043c565b005b6000809054906101000a900473ffffffffffffffffffffffffffffffffffffffff1681565b60008060008060009054906101000a900473ffffffffffffffffffffffffffffffffffffffff1673ffffffffffffffffffffffffffffffffffffffff163373ffffffffffffffffffffffffffffffffffffffff1614151561026f57600080fd5b8392503091508273ffffffffffffffffffffffffffffffffffffffff166370a08231836000604051602001526040518263ffffffff167c0100000000000000000000000000000000000000000000000000000000028152600401808273ffffffffffffffffffffffffffffffffffffffff1673ffffffffffffffffffffffffffffffffffffffff168152602001915050602060405180830381600087803b151561031857600080fd5b6102c65a03f1151561032957600080fd5b505050604051805190509050600081141561034357610436565b8273ffffffffffffffffffffffffffffffffffffffff1663a9059cbb6000809054906101000a900473ffffffffffffffffffffffffffffffffffffffff16836000604051602001526040518363ffffffff167c0100000000000000000000000000000000000000000000000000000000028152600401808373ffffffffffffffffffffffffffffffffffffffff1673ffffffffffffffffffffffffffffffffffffffff16815260200182815260200192505050602060405180830381600087803b151561040f57600080fd5b6102c65a03f1151561042057600080fd5b50505060405180519050151561043557600080fd5b5b50505050565b6000809054906101000a900473ffffffffffffffffffffffffffffffffffffffff1673ffffffffffffffffffffffffffffffffffffffff166108fc3073ffffffffffffffffffffffffffffffffffffffff16319081150290604051600060405180830381858888f1935050505015156104b457600080fd5b5600a165627a7a72305820088cce905e424bfe474510efe41761893e9e34b54b885b8fee546d8be88aee3c0029a165627a7a72305820827adc3ef3a179757bc33003e41070fbbfcdfc5db31275af3cb0395155cd3bbb0029000000000000000000000000000000000000000000000000000000000000002000000000000000000000000000000000000000000000000000000000000000030000000000000000000000008775ed5a9f67f90a017afb46980bfdae423dd41c00000000000000000000000042ff8ce0f79b69993893cef89412a4c48b7d29af0000000000000000000000007ae2ccba98e20daa6f6271cdf97a79c0274856f7830271cca0fc8b292b95dcabc8397ab4da647c153dcaad575ca27e01b074d125c0ad7e4765a07d8f74d08c62a8885a1b48239fd89e4c072a44b8ceaeed7bc94799c5b8b20780';

export const TXDATA: LegacyTxData = {
  _type: ETHTransactionType.LEGACY,
  nonce: 1,
  data: '0x60606040526000600160006101000a81548160ff021916908315150217905550341561002a57600080fd5b60405161155b38038061155b833981016040528080518201919050506003815114151561005657600080fd5b806000908051906020019061006c929190610073565b5050610140565b8280548282559060005260206000209081019282156100ec579160200282015b828111156100eb5782518260006101000a81548173ffffffffffffffffffffffffffffffffffffffff021916908373ffffffffffffffffffffffffffffffffffffffff16021790555091602001919060010190610093565b5b5090506100f991906100fd565b5090565b61013d91905b8082111561013957600081816101000a81549073ffffffffffffffffffffffffffffffffffffffff021916905550600101610103565b5090565b90565b61140c8061014f6000396000f300606060405260043610610099576000357c0100000000000000000000000000000000000000000000000000000000900463ffffffff1680630dcd7a6c146101335780632079fb9a146101e95780632da034091461024c57806339125215146102a45780637df73e271461037e578063a0b7967b146103cf578063a68a76cc146103f8578063abe3219c1461044d578063fc0f392d1461047a575b6000341115610131577f6e89d517057028190560dd200cf6bf792842861353d1173761dfa362e1c133f03334600036604051808573ffffffffffffffffffffffffffffffffffffffff1673ffffffffffffffffffffffffffffffffffffffff16815260200184815260200180602001828103825284848281815260200192508082843782019150509550505050505060405180910390a15b005b341561013e57600080fd5b6101e7600480803573ffffffffffffffffffffffffffffffffffffffff1690602001909190803590602001909190803573ffffffffffffffffffffffffffffffffffffffff1690602001909190803590602001909190803590602001909190803590602001908201803590602001908080601f0160208091040260200160405190810160405280939291908181526020018383808284378201915050505050509190505061048f565b005b34156101f457600080fd5b61020a6004808035906020019091905050610668565b604051808273ffffffffffffffffffffffffffffffffffffffff1673ffffffffffffffffffffffffffffffffffffffff16815260200191505060405180910390f35b341561025757600080fd5b6102a2600480803573ffffffffffffffffffffffffffffffffffffffff1690602001909190803573ffffffffffffffffffffffffffffffffffffffff169060200190919050506106a7565b005b34156102af57600080fd5b61037c600480803573ffffffffffffffffffffffffffffffffffffffff1690602001909190803590602001909190803590602001908201803590602001908080601f0160208091040260200160405190810160405280939291908181526020018383808284378201915050505050509190803590602001909190803590602001909190803590602001908201803590602001908080601f01602080910402602001604051908101604052809392919081815260200183838082843782019150505050505091905050610773565b005b341561038957600080fd5b6103b5600480803573ffffffffffffffffffffffffffffffffffffffff16906020019091905050610a72565b604051808215151515815260200191505060405180910390f35b34156103da57600080fd5b6103e2610b16565b6040518082815260200191505060405180910390f35b341561040357600080fd5b61040b610b70565b604051808273ffffffffffffffffffffffffffffffffffffffff1673ffffffffffffffffffffffffffffffffffffffff16815260200191505060405180910390f35b341561045857600080fd5b610460610b95565b604051808215151515815260200191505060405180910390f35b341561048557600080fd5b61048d610ba8565b005b60008061049b33610a72565b15156104a657600080fd5b878787878760405180807f45524332300000000000000000000000000000000000000000000000000000008152506005018673ffffffffffffffffffffffffffffffffffffffff1673ffffffffffffffffffffffffffffffffffffffff166c010000000000000000000000000281526014018581526020018473ffffffffffffffffffffffffffffffffffffffff1673ffffffffffffffffffffffffffffffffffffffff166c0100000000000000000000000002815260140183815260200182815260200195505050505050604051809103902091506105898883858888610c3b565b508590508073ffffffffffffffffffffffffffffffffffffffff1663a9059cbb89896000604051602001526040518363ffffffff167c0100000000000000000000000000000000000000000000000000000000028152600401808373ffffffffffffffffffffffffffffffffffffffff1673ffffffffffffffffffffffffffffffffffffffff16815260200182815260200192505050602060405180830381600087803b151561063857600080fd5b6102c65a03f1151561064957600080fd5b50505060405180519050151561065e57600080fd5b5050505050505050565b60008181548110151561067757fe5b90600052602060002090016000915054906101000a900473ffffffffffffffffffffffffffffffffffffffff1681565b60006106b233610a72565b15156106bd57600080fd5b8290508073ffffffffffffffffffffffffffffffffffffffff16633ef13367836040518263ffffffff167c0100000000000000000000000000000000000000000000000000000000028152600401808273ffffffffffffffffffffffffffffffffffffffff1673ffffffffffffffffffffffffffffffffffffffff168152602001915050600060405180830381600087803b151561075a57600080fd5b6102c65a03f1151561076b57600080fd5b505050505050565b60008061077f33610a72565b151561078a57600080fd5b878787878760405180807f45544845520000000000000000000000000000000000000000000000000000008152506005018673ffffffffffffffffffffffffffffffffffffffff1673ffffffffffffffffffffffffffffffffffffffff166c0100000000000000000000000002815260140185815260200184805190602001908083835b602083101515610833578051825260208201915060208101905060208303925061080e565b6001836020036101000a038019825116818451168082178552505050505050905001838152602001828152602001955050505050506040518091039020915061087f8883858888610c3b565b90508773ffffffffffffffffffffffffffffffffffffffff16878760405180828051906020019080838360005b838110156108c75780820151818401526020810190506108ac565b50505050905090810190601f1680156108f45780820380516001836020036101000a031916815260200191505b5091505060006040518083038185876187965a03f192505050151561091857600080fd5b7f59bed9ab5d78073465dd642a9e3e76dfdb7d53bcae9d09df7d0b8f5234d5a8063382848b8b8b604051808773ffffffffffffffffffffffffffffffffffffffff1673ffffffffffffffffffffffffffffffffffffffff1681526020018673ffffffffffffffffffffffffffffffffffffffff1673ffffffffffffffffffffffffffffffffffffffff16815260200185600019166000191681526020018473ffffffffffffffffffffffffffffffffffffffff1673ffffffffffffffffffffffffffffffffffffffff16815260200183815260200180602001828103825283818151815260200191508051906020019080838360005b83811015610a29578082015181840152602081019050610a0e565b50505050905090810190601f168015610a565780820380516001836020036101000a031916815260200191505b5097505050505050505060405180910390a15050505050505050565b600080600090505b600080549050811015610b0b578273ffffffffffffffffffffffffffffffffffffffff16600082815481101515610aad57fe5b906000526020600020900160009054906101000a900473ffffffffffffffffffffffffffffffffffffffff1673ffffffffffffffffffffffffffffffffffffffff161415610afe5760019150610b10565b8080600101915050610a7a565b600091505b50919050565b6000806000809150600090505b600a811015610b655781600282600a81101515610b3c57fe5b01541115610b5857600281600a81101515610b5357fe5b015491505b8080600101915050610b23565b600182019250505090565b6000610b7a610e90565b604051809103906000f0801515610b9057600080fd5b905090565b600160009054906101000a900460ff1681565b610bb133610a72565b1515610bbc57600080fd5b60018060006101000a81548160ff0219169083151502179055507f0909e8f76a4fd3e970f2eaef56c0ee6dfaf8b87c5b8d3f56ffce78e825a9115733604051808273ffffffffffffffffffffffffffffffffffffffff1673ffffffffffffffffffffffffffffffffffffffff16815260200191505060405180910390a1565b600080610c488686610ce6565b9050600160009054906101000a900460ff168015610c6c5750610c6a87610a72565b155b15610c7657600080fd5b42841015610c8357600080fd5b610c8c83610db9565b610c9581610a72565b1515610ca057600080fd5b3373ffffffffffffffffffffffffffffffffffffffff168173ffffffffffffffffffffffffffffffffffffffff161415610cd957600080fd5b8091505095945050505050565b60008060008060418551141515610cfc57600080fd5b602085015192506040850151915060ff6041860151169050601b8160ff161015610d2757601b810190505b600186828585604051600081526020016040526000604051602001526040518085600019166000191681526020018460ff1660ff16815260200183600019166000191681526020018260001916600019168152602001945050505050602060405160208103908084039060008661646e5a03f11515610da557600080fd5b505060206040510351935050505092915050565b600080610dc533610a72565b1515610dd057600080fd5b60009150600090505b600a811015610e385782600282600a81101515610df257fe5b01541415610dff57600080fd5b600282600a81101515610e0e57fe5b0154600282600a81101515610e1f57fe5b01541015610e2b578091505b8080600101915050610dd9565b600282600a81101515610e4757fe5b0154831015610e5557600080fd5b612710600283600a81101515610e6757fe5b015401831115610e7657600080fd5b82600283600a81101515610e8657fe5b0181905550505050565b60405161054080610ea18339019056006060604052341561000f57600080fd5b336000806101000a81548173ffffffffffffffffffffffffffffffffffffffff021916908373ffffffffffffffffffffffffffffffffffffffff1602179055506104e28061005e6000396000f300606060405260043610610056576000357c0100000000000000000000000000000000000000000000000000000000900463ffffffff168062821de3146101475780633ef133671461019c5780636b9f96ea146101d5575b6000809054906101000a900473ffffffffffffffffffffffffffffffffffffffff1673ffffffffffffffffffffffffffffffffffffffff166108fc349081150290604051600060405180830381858888f1935050505015156100b757600080fd5b7f69b31548dea9b3b707b4dff357d326e3e9348b24e7a6080a218a6edeeec48f9b3334600036604051808573ffffffffffffffffffffffffffffffffffffffff1673ffffffffffffffffffffffffffffffffffffffff16815260200184815260200180602001828103825284848281815260200192508082843782019150509550505050505060405180910390a1005b341561015257600080fd5b61015a6101ea565b604051808273ffffffffffffffffffffffffffffffffffffffff1673ffffffffffffffffffffffffffffffffffffffff16815260200191505060405180910390f35b34156101a757600080fd5b6101d3600480803573ffffffffffffffffffffffffffffffffffffffff1690602001909190505061020f565b005b34156101e057600080fd5b6101e861043c565b005b6000809054906101000a900473ffffffffffffffffffffffffffffffffffffffff1681565b60008060008060009054906101000a900473ffffffffffffffffffffffffffffffffffffffff1673ffffffffffffffffffffffffffffffffffffffff163373ffffffffffffffffffffffffffffffffffffffff1614151561026f57600080fd5b8392503091508273ffffffffffffffffffffffffffffffffffffffff166370a08231836000604051602001526040518263ffffffff167c0100000000000000000000000000000000000000000000000000000000028152600401808273ffffffffffffffffffffffffffffffffffffffff1673ffffffffffffffffffffffffffffffffffffffff168152602001915050602060405180830381600087803b151561031857600080fd5b6102c65a03f1151561032957600080fd5b505050604051805190509050600081141561034357610436565b8273ffffffffffffffffffffffffffffffffffffffff1663a9059cbb6000809054906101000a900473ffffffffffffffffffffffffffffffffffffffff16836000604051602001526040518363ffffffff167c0100000000000000000000000000000000000000000000000000000000028152600401808373ffffffffffffffffffffffffffffffffffffffff1673ffffffffffffffffffffffffffffffffffffffff16815260200182815260200192505050602060405180830381600087803b151561040f57600080fd5b6102c65a03f1151561042057600080fd5b50505060405180519050151561043557600080fd5b5b50505050565b6000809054906101000a900473ffffffffffffffffffffffffffffffffffffffff1673ffffffffffffffffffffffffffffffffffffffff166108fc3073ffffffffffffffffffffffffffffffffffffffff16319081150290604051600060405180830381858888f1935050505015156104b457600080fd5b5600a165627a7a72305820088cce905e424bfe474510efe41761893e9e34b54b885b8fee546d8be88aee3c0029a165627a7a72305820827adc3ef3a179757bc33003e41070fbbfcdfc5db31275af3cb0395155cd3bbb0029000000000000000000000000000000000000000000000000000000000000002000000000000000000000000000000000000000000000000000000000000000030000000000000000000000008775ed5a9f67f90a017afb46980bfdae423dd41c00000000000000000000000042ff8ce0f79b69993893cef89412a4c48b7d29af0000000000000000000000007ae2ccba98e20daa6f6271cdf97a79c0274856f7',
  gasLimit: '12000',
  gasPrice: '10',
  chainId: '0x138d4',
  value: '1234',
  to: '0x19645032c7f1533395d44a629462e751084d3e4c',
  id: '0xf56bd60b509a4a9899e9d3a5c4d0be0631f2437b70901ab91b2aacc33bad2059',
};

export const UNSIGNED_TX =
  '0xf9161e010a822ee09419645032c7f1533395d44a629462e751084d3e4c8204d2b915fb60606040526000600160006101000a81548160ff021916908315150217905550341561002a57600080fd5b60405161155b38038061155b833981016040528080518201919050506003815114151561005657600080fd5b806000908051906020019061006c929190610073565b5050610140565b8280548282559060005260206000209081019282156100ec579160200282015b828111156100eb5782518260006101000a81548173ffffffffffffffffffffffffffffffffffffffff021916908373ffffffffffffffffffffffffffffffffffffffff16021790555091602001919060010190610093565b5b5090506100f991906100fd565b5090565b61013d91905b8082111561013957600081816101000a81549073ffffffffffffffffffffffffffffffffffffffff021916905550600101610103565b5090565b90565b61140c8061014f6000396000f300606060405260043610610099576000357c0100000000000000000000000000000000000000000000000000000000900463ffffffff1680630dcd7a6c146101335780632079fb9a146101e95780632da034091461024c57806339125215146102a45780637df73e271461037e578063a0b7967b146103cf578063a68a76cc146103f8578063abe3219c1461044d578063fc0f392d1461047a575b6000341115610131577f6e89d517057028190560dd200cf6bf792842861353d1173761dfa362e1c133f03334600036604051808573ffffffffffffffffffffffffffffffffffffffff1673ffffffffffffffffffffffffffffffffffffffff16815260200184815260200180602001828103825284848281815260200192508082843782019150509550505050505060405180910390a15b005b341561013e57600080fd5b6101e7600480803573ffffffffffffffffffffffffffffffffffffffff1690602001909190803590602001909190803573ffffffffffffffffffffffffffffffffffffffff1690602001909190803590602001909190803590602001909190803590602001908201803590602001908080601f0160208091040260200160405190810160405280939291908181526020018383808284378201915050505050509190505061048f565b005b34156101f457600080fd5b61020a6004808035906020019091905050610668565b604051808273ffffffffffffffffffffffffffffffffffffffff1673ffffffffffffffffffffffffffffffffffffffff16815260200191505060405180910390f35b341561025757600080fd5b6102a2600480803573ffffffffffffffffffffffffffffffffffffffff1690602001909190803573ffffffffffffffffffffffffffffffffffffffff169060200190919050506106a7565b005b34156102af57600080fd5b61037c600480803573ffffffffffffffffffffffffffffffffffffffff1690602001909190803590602001909190803590602001908201803590602001908080601f0160208091040260200160405190810160405280939291908181526020018383808284378201915050505050509190803590602001909190803590602001909190803590602001908201803590602001908080601f01602080910402602001604051908101604052809392919081815260200183838082843782019150505050505091905050610773565b005b341561038957600080fd5b6103b5600480803573ffffffffffffffffffffffffffffffffffffffff16906020019091905050610a72565b604051808215151515815260200191505060405180910390f35b34156103da57600080fd5b6103e2610b16565b6040518082815260200191505060405180910390f35b341561040357600080fd5b61040b610b70565b604051808273ffffffffffffffffffffffffffffffffffffffff1673ffffffffffffffffffffffffffffffffffffffff16815260200191505060405180910390f35b341561045857600080fd5b610460610b95565b604051808215151515815260200191505060405180910390f35b341561048557600080fd5b61048d610ba8565b005b60008061049b33610a72565b15156104a657600080fd5b878787878760405180807f45524332300000000000000000000000000000000000000000000000000000008152506005018673ffffffffffffffffffffffffffffffffffffffff1673ffffffffffffffffffffffffffffffffffffffff166c010000000000000000000000000281526014018581526020018473ffffffffffffffffffffffffffffffffffffffff1673ffffffffffffffffffffffffffffffffffffffff166c0100000000000000000000000002815260140183815260200182815260200195505050505050604051809103902091506105898883858888610c3b565b508590508073ffffffffffffffffffffffffffffffffffffffff1663a9059cbb89896000604051602001526040518363ffffffff167c0100000000000000000000000000000000000000000000000000000000028152600401808373ffffffffffffffffffffffffffffffffffffffff1673ffffffffffffffffffffffffffffffffffffffff16815260200182815260200192505050602060405180830381600087803b151561063857600080fd5b6102c65a03f1151561064957600080fd5b50505060405180519050151561065e57600080fd5b5050505050505050565b60008181548110151561067757fe5b90600052602060002090016000915054906101000a900473ffffffffffffffffffffffffffffffffffffffff1681565b60006106b233610a72565b15156106bd57600080fd5b8290508073ffffffffffffffffffffffffffffffffffffffff16633ef13367836040518263ffffffff167c0100000000000000000000000000000000000000000000000000000000028152600401808273ffffffffffffffffffffffffffffffffffffffff1673ffffffffffffffffffffffffffffffffffffffff168152602001915050600060405180830381600087803b151561075a57600080fd5b6102c65a03f1151561076b57600080fd5b505050505050565b60008061077f33610a72565b151561078a57600080fd5b878787878760405180807f45544845520000000000000000000000000000000000000000000000000000008152506005018673ffffffffffffffffffffffffffffffffffffffff1673ffffffffffffffffffffffffffffffffffffffff166c0100000000000000000000000002815260140185815260200184805190602001908083835b602083101515610833578051825260208201915060208101905060208303925061080e565b6001836020036101000a038019825116818451168082178552505050505050905001838152602001828152602001955050505050506040518091039020915061087f8883858888610c3b565b90508773ffffffffffffffffffffffffffffffffffffffff16878760405180828051906020019080838360005b838110156108c75780820151818401526020810190506108ac565b50505050905090810190601f1680156108f45780820380516001836020036101000a031916815260200191505b5091505060006040518083038185876187965a03f192505050151561091857600080fd5b7f59bed9ab5d78073465dd642a9e3e76dfdb7d53bcae9d09df7d0b8f5234d5a8063382848b8b8b604051808773ffffffffffffffffffffffffffffffffffffffff1673ffffffffffffffffffffffffffffffffffffffff1681526020018673ffffffffffffffffffffffffffffffffffffffff1673ffffffffffffffffffffffffffffffffffffffff16815260200185600019166000191681526020018473ffffffffffffffffffffffffffffffffffffffff1673ffffffffffffffffffffffffffffffffffffffff16815260200183815260200180602001828103825283818151815260200191508051906020019080838360005b83811015610a29578082015181840152602081019050610a0e565b50505050905090810190601f168015610a565780820380516001836020036101000a031916815260200191505b5097505050505050505060405180910390a15050505050505050565b600080600090505b600080549050811015610b0b578273ffffffffffffffffffffffffffffffffffffffff16600082815481101515610aad57fe5b906000526020600020900160009054906101000a900473ffffffffffffffffffffffffffffffffffffffff1673ffffffffffffffffffffffffffffffffffffffff161415610afe5760019150610b10565b8080600101915050610a7a565b600091505b50919050565b6000806000809150600090505b600a811015610b655781600282600a81101515610b3c57fe5b01541115610b5857600281600a81101515610b5357fe5b015491505b8080600101915050610b23565b600182019250505090565b6000610b7a610e90565b604051809103906000f0801515610b9057600080fd5b905090565b600160009054906101000a900460ff1681565b610bb133610a72565b1515610bbc57600080fd5b60018060006101000a81548160ff0219169083151502179055507f0909e8f76a4fd3e970f2eaef56c0ee6dfaf8b87c5b8d3f56ffce78e825a9115733604051808273ffffffffffffffffffffffffffffffffffffffff1673ffffffffffffffffffffffffffffffffffffffff16815260200191505060405180910390a1565b600080610c488686610ce6565b9050600160009054906101000a900460ff168015610c6c5750610c6a87610a72565b155b15610c7657600080fd5b42841015610c8357600080fd5b610c8c83610db9565b610c9581610a72565b1515610ca057600080fd5b3373ffffffffffffffffffffffffffffffffffffffff168173ffffffffffffffffffffffffffffffffffffffff161415610cd957600080fd5b8091505095945050505050565b60008060008060418551141515610cfc57600080fd5b602085015192506040850151915060ff6041860151169050601b8160ff161015610d2757601b810190505b600186828585604051600081526020016040526000604051602001526040518085600019166000191681526020018460ff1660ff16815260200183600019166000191681526020018260001916600019168152602001945050505050602060405160208103908084039060008661646e5a03f11515610da557600080fd5b505060206040510351935050505092915050565b600080610dc533610a72565b1515610dd057600080fd5b60009150600090505b600a811015610e385782600282600a81101515610df257fe5b01541415610dff57600080fd5b600282600a81101515610e0e57fe5b0154600282600a81101515610e1f57fe5b01541015610e2b578091505b8080600101915050610dd9565b600282600a81101515610e4757fe5b0154831015610e5557600080fd5b612710600283600a81101515610e6757fe5b015401831115610e7657600080fd5b82600283600a81101515610e8657fe5b0181905550505050565b60405161054080610ea18339019056006060604052341561000f57600080fd5b336000806101000a81548173ffffffffffffffffffffffffffffffffffffffff021916908373ffffffffffffffffffffffffffffffffffffffff1602179055506104e28061005e6000396000f300606060405260043610610056576000357c0100000000000000000000000000000000000000000000000000000000900463ffffffff168062821de3146101475780633ef133671461019c5780636b9f96ea146101d5575b6000809054906101000a900473ffffffffffffffffffffffffffffffffffffffff1673ffffffffffffffffffffffffffffffffffffffff166108fc349081150290604051600060405180830381858888f1935050505015156100b757600080fd5b7f69b31548dea9b3b707b4dff357d326e3e9348b24e7a6080a218a6edeeec48f9b3334600036604051808573ffffffffffffffffffffffffffffffffffffffff1673ffffffffffffffffffffffffffffffffffffffff16815260200184815260200180602001828103825284848281815260200192508082843782019150509550505050505060405180910390a1005b341561015257600080fd5b61015a6101ea565b604051808273ffffffffffffffffffffffffffffffffffffffff1673ffffffffffffffffffffffffffffffffffffffff16815260200191505060405180910390f35b34156101a757600080fd5b6101d3600480803573ffffffffffffffffffffffffffffffffffffffff1690602001909190505061020f565b005b34156101e057600080fd5b6101e861043c565b005b6000809054906101000a900473ffffffffffffffffffffffffffffffffffffffff1681565b60008060008060009054906101000a900473ffffffffffffffffffffffffffffffffffffffff1673ffffffffffffffffffffffffffffffffffffffff163373ffffffffffffffffffffffffffffffffffffffff1614151561026f57600080fd5b8392503091508273ffffffffffffffffffffffffffffffffffffffff166370a08231836000604051602001526040518263ffffffff167c0100000000000000000000000000000000000000000000000000000000028152600401808273ffffffffffffffffffffffffffffffffffffffff1673ffffffffffffffffffffffffffffffffffffffff168152602001915050602060405180830381600087803b151561031857600080fd5b6102c65a03f1151561032957600080fd5b505050604051805190509050600081141561034357610436565b8273ffffffffffffffffffffffffffffffffffffffff1663a9059cbb6000809054906101000a900473ffffffffffffffffffffffffffffffffffffffff16836000604051602001526040518363ffffffff167c0100000000000000000000000000000000000000000000000000000000028152600401808373ffffffffffffffffffffffffffffffffffffffff1673ffffffffffffffffffffffffffffffffffffffff16815260200182815260200192505050602060405180830381600087803b151561040f57600080fd5b6102c65a03f1151561042057600080fd5b50505060405180519050151561043557600080fd5b5b50505050565b6000809054906101000a900473ffffffffffffffffffffffffffffffffffffffff1673ffffffffffffffffffffffffffffffffffffffff166108fc3073ffffffffffffffffffffffffffffffffffffffff16319081150290604051600060405180830381858888f1935050505015156104b457600080fd5b5600a165627a7a72305820088cce905e424bfe474510efe41761893e9e34b54b885b8fee546d8be88aee3c0029a165627a7a72305820827adc3ef3a179757bc33003e41070fbbfcdfc5db31275af3cb0395155cd3bbb0029000000000000000000000000000000000000000000000000000000000000002000000000000000000000000000000000000000000000000000000000000000030000000000000000000000008775ed5a9f67f90a017afb46980bfdae423dd41c00000000000000000000000042ff8ce0f79b69993893cef89412a4c48b7d29af0000000000000000000000007ae2ccba98e20daa6f6271cdf97a79c0274856f7808080';

export const ACCOUNT_1 = '0xe6c43626f11312de29b0011fa9da71ea3bba0e9f';

export const PRIVATE_KEY_1 = '950d23766c0d0adad45a7dcf0db7a93b2c91fe411a5154c9a4ac23758c2ae4d5';

export const PUBLIC_KEY_1 = '0x4943Dd2A2494e3Ea5937954CB836692A047695B5';

export const KEYPAIR_PRV = new KeyPair({ prv: PRIVATE_KEY_1 });

export const ACCOUNT_2 = '0x78caeb4527170e52f54d936e4eef6f83250e01bb';

export const PRIVATE_KEY_2 = '0c9cae7f7dbc02eaa9c39b69f836813ce200bf5eb907faeebeea1ce453f1587a';

export const PUBLIC_KEY_2 = '0x3eEBbd006626807d2A5640dD12b35c9eeaa14209';

export const SEND_FUNDS_DATA =
  '0x391252150000000000000000000000007325a3f7d4f9e86ae62cf742426078c3755730d5000000000000000000000000000000000000000000000000016345785d8a000000000000000000000000000000000000000000000000000000000000000000c0000000000000000000000000000000000000000000000000000000005ec6ab34000000000000000000000000000000000000000000000000000000000000000200000000000000000000000000000000000000000000000000000000000000e000000000000000000000000000000000000000000000000000000000000000000000000000000000000000000000000000000000000000000000000000000041d8decc5aa3e56cba81cb5405cdd187a01885fd118ca3add06fc10c471d86b94459fe0c0b7a906e2147f64d948616236241288d8bf775873692b9963803ac608c1c00000000000000000000000000000000000000000000000000000000000000';

export const SEND_FUNDS_SEQUENCE_ZERO_DATA =
  '0x391252150000000000000000000000007325a3f7d4f9e86ae62cf742426078c3755730d5000000000000000000000000000000000000000000000000016345785d8a000000000000000000000000000000000000000000000000000000000000000000c0000000000000000000000000000000000000000000000000000000005ec6ab34000000000000000000000000000000000000000000000000000000000000000000000000000000000000000000000000000000000000000000000000000000e000000000000000000000000000000000000000000000000000000000000000000000000000000000000000000000000000000000000000000000000000000041cb8ce1d2f2e482a7c6e50ad9c7cc6df33f30a0ef6e6792100d20d08181b054d034eae3fc8a18e7d48344d193c14786fbc91483f395e6e89cbeb36e9ced6429291b00000000000000000000000000000000000000000000000000000000000000';

export const SEND_FUNDS_AMOUNT_ZERO_DATA =
  '0x391252150000000000000000000000007325a3f7d4f9e86ae62cf742426078c3755730d5000000000000000000000000000000000000000000000000000000000000000000000000000000000000000000000000000000000000000000000000000000c0000000000000000000000000000000000000000000000000000000005ec6ab34000000000000000000000000000000000000000000000000000000000000000200000000000000000000000000000000000000000000000000000000000000e000000000000000000000000000000000000000000000000000000000000000000000000000000000000000000000000000000000000000000000000000000041aac0763277264c9be1e79a7b4bf056f3011a545ca2ead9fe76aa6efaa80b35db1b9769bf44693896ca655eb845b8e796f71073096e00f4ab8eddf1c46b8d7e401c00000000000000000000000000000000000000000000000000000000000000';
export const SEND_FUNDS_NO_KEY_DATA =
  '0x391252150000000000000000000000007325a3f7d4f9e86ae62cf742426078c3755730d5000000000000000000000000000000000000000000000000016345785d8a000000000000000000000000000000000000000000000000000000000000000000c0000000000000000000000000000000000000000000000000000000005ec6ab34000000000000000000000000000000000000000000000000000000000000000200000000000000000000000000000000000000000000000000000000000000e000000000000000000000000000000000000000000000000000000000000000000000000000000000000000000000000000000000000000000000000000000000';

export const SEND_TX_BROADCAST_LEGACY =
  '0xf901cd02843b9aca0083b8a1a0948f977e912ef500548a0c3be6ddde9899f1199b8180b901643912521500000000000000000000000019645032c7f1533395d44a629462e751084d3e4c000000000000000000000000000000000000000000000000000000003b9aca0000000000000000000000000000000000000000000000000000000000000000c0000000000000000000000000000000000000000000000000000000005ec67e28000000000000000000000000000000000000000000000000000000000000000500000000000000000000000000000000000000000000000000000000000000e0000000000000000000000000000000000000000000000000000000000000000000000000000000000000000000000000000000000000000000000000000000410efeb973a42d4bef372ea5934215190036b905b5bd337228b3e0983487de4f3e31c55bcd997d4d9c8a9912bfed98b55851c6981bdb79c86d9e82d7ba8a0f80561b00000000000000000000000000000000000000000000000000000000000000830271cca09a68877b00f6ef1b307ebd9778a3fd45cb119cc7de35113f2b27be1a9f3bb553a024e31e563264c22c975c9eb0089fd1e1c03a1798d1703450eb647f3d1895df79';

export const SEND_TX_AMOUNT_ZERO_BROADCAST =
  '0xf901cd02843b9aca0083b8a1a0948f977e912ef500548a0c3be6ddde9899f1199b8180b901643912521500000000000000000000000019645032c7f1533395d44a629462e751084d3e4c000000000000000000000000000000000000000000000000000000000000000000000000000000000000000000000000000000000000000000000000000000c0000000000000000000000000000000000000000000000000000000005ec67e28000000000000000000000000000000000000000000000000000000000000000500000000000000000000000000000000000000000000000000000000000000e000000000000000000000000000000000000000000000000000000000000000000000000000000000000000000000000000000000000000000000000000000041e2baf4c320fc6b1820c030b62454475b8341fd7bbd22c40b7c35f5610b3d160d29c473c65463ef697dffaaf8a5aa93debad1f8aa10b5d2c9a97614f24c383e6a1c00000000000000000000000000000000000000000000000000000000000000830271cba0af03d32e172fbc5e9823f4cf195d6805765e44f6dd8bddd4610921cf998458e4a05a4694ea542228cc230b4bf71c9b299ac45652ae6396de9af9e07b72445c11d7';

export const WALLET_FACTORY_ADDRESS = Networks.test.bera.walletFactoryAddress;

export const FORWARDER_FACTORY_ADDRESS = Networks.test.bera.forwarderFactoryAddress;

export const FORWARDER_IMPLEMENTATION_ADDRESS = Networks.test.bera.forwarderImplementationAddress;

export const CREATE_FORWARDER_METHOD = '0x13b2f75c';

export const BASE_ADDRESS = '0xbc42187c73d2f41a5551be6d138298f4e9f2e2c6';

export const FEE_ADDRESS = '0x5fc4bc0f18c4243ee4ce757d712bb2164176cb51';

export const UNSIGNED_ADDRESS_INIT =
  '0xf9012d018502540be4008367c280946e4a83086c6dd9fbce203c1ebb69eda1aba872d780b8c47117f3fa000000000000000000000000000000000000000000000000000000000000004000000000000000000000000000000000000000000000000000000000000000000000000000000000000000000000000000000000000000000000000000000003000000000000000000000000e6c43626f11312de29b0011fa9da71ea3bba0e9f00000000000000000000000078caeb4527170e52f54d936e4eef6f83250e01bb000000000000000000000000b1938215967408fff7c59c77ae5e5283b55c8e26830271cba05f2198f0b5df3d01d184565b8445e99540be6f3730dec4cd282179a01b666819a02cc6f4e4f5042c1f67da15719ad1301f07bc1020008fb51498ad36593a0d9744';

export const SIGNED_ADDRESS_INIT =
  '0xf8c7010a8203e894ccadf4198de4957d07d80673684ed19310579fc480b86413b2f75c000000000000000000000000bc42187c73d2f41a5551be6d138298f4e9f2e2c60000000000000000000000005fc4bc0f18c4243ee4ce757d712bb2164176cb510000000000000000000000000000000000000000000000000000000000000001830271cba089da11309b45d5f0a428d4612e71d691f23b37b310125b2e4648a75a26cf422da040ae707cebd42e090cb06b0a679a48d8b9f400b5b3ccdea67497c4b64a57f592';

export const TX_BROADCAST =
  '0xf9012d018502540be4008367c280946e4a83086c6dd9fbce203c1ebb69eda1aba872d780b8c47117f3fa000000000000000000000000000000000000000000000000000000000000004000000000000000000000000000000000000000000000000000000000000000000000000000000000000000000000000000000000000000000000000000000003000000000000000000000000e6c43626f11312de29b0011fa9da71ea3bba0e9f00000000000000000000000078caeb4527170e52f54d936e4eef6f83250e01bb000000000000000000000000b1938215967408fff7c59c77ae5e5283b55c8e26830271cba05f2198f0b5df3d01d184565b8445e99540be6f3730dec4cd282179a01b666819a02cc6f4e4f5042c1f67da15719ad1301f07bc1020008fb51498ad36593a0d9744';
