{
  "transaction": {
    "txid": "113924bf33350f1778bbc19a72c8391bc57d2a0234c9acd5635fed74fe8b6d9d",
    "hash": "113924bf33350f1778bbc19a72c8391bc57d2a0234c9acd5635fed74fe8b6d9d",
    "version": 2,
    "size": 225,
    "locktime": 1537621,
    "vin": [
      {
        "txid": "f59a53ff24e81ac75bef0d7fc42ab4b1e71af7a36af433f471ace3721cfeb1c9",
        "vout": 1,
        "scriptSig": {
          "asm": "30440220376221d68add7a60a032f67e98da744acb794a1ae073ecb1b1031dc3347f9d3402201585262ad004fa7757fb787caaca841e2cc395c42cc404c46206b12d0741e931[ALL|FORKID] 02b2a6456c6becf6007e697e43a71374b8a5533893e059692cddfd01b53f13ce46",
          "hex": "4730440220376221d68add7a60a032f67e98da744acb794a1ae073ecb1b1031dc3347f9d3402201585262ad004fa7757fb787caaca841e2cc395c42cc404c46206b12d0741e931412102b2a6456c6becf6007e697e43a71374b8a5533893e059692cddfd01b53f13ce46"
        },
        "sequence": 4294967294
      }
    ],
    "vout": [
      {
        "value": 1,
        "n": 0,
        "scriptPubKey": {
          "asm": "OP_DUP OP_HASH160 d2eb140d8b7006e7b862827043f9cddd50da9811 OP_EQUALVERIFY OP_CHECKSIG",
          "hex": "76a914d2eb140d8b7006e7b862827043f9cddd50da981188ac",
          "reqSigs": 1,
          "type": "pubkeyhash",
          "addresses": [
            "bchtest:qrfwk9qd3dcqdeacv2p8qsleehw4pk5czyfe6je78q"
          ]
        }
      },
      {
        "value": 88.99997537,
        "n": 1,
        "scriptPubKey": {
          "asm": "OP_DUP OP_HASH160 c4b41ed2d5ad6088b349b5f52eb6c2ce762eed99 OP_EQUALVERIFY OP_CHECKSIG",
          "hex": "76a914c4b41ed2d5ad6088b349b5f52eb6c2ce762eed9988ac",
          "reqSigs": 1,
          "type": "pubkeyhash",
          "addresses": [
            "bchtest:qrztg8kj6kkkpz9nfx6l2t4kct88vthdnyxu2z6kce"
          ]
        }
      }
    ],
    "hex": "0200000001c9b1fe1c72e3ac71f433f46aa3f71ae7b1b42ac47f0def5bc71ae824ff539af5010000006a4730440220376221d68add7a60a032f67e98da744acb794a1ae073ecb1b1031dc3347f9d3402201585262ad004fa7757fb787caaca841e2cc395c42cc404c46206b12d0741e931412102b2a6456c6becf6007e697e43a71374b8a5533893e059692cddfd01b53f13ce46feffffff0200e1f505000000001976a914d2eb140d8b7006e7b862827043f9cddd50da981188ac612f7b12020000001976a914c4b41ed2d5ad6088b349b5f52eb6c2ce762eed9988ac55761700"
  },
  "inputs": [
    {
      "txid": "f59a53ff24e81ac75bef0d7fc42ab4b1e71af7a36af433f471ace3721cfeb1c9",
      "hash": "f59a53ff24e81ac75bef0d7fc42ab4b1e71af7a36af433f471ace3721cfeb1c9",
      "version": 2,
      "size": 223,
      "locktime": 1537546,
      "vin": [
        {
          "txid": "04a8890ad69666cd540d8b69bc0f6291e8fc8c922a0e7f48f727c58da62e660c",
          "vout": 1,
          "scriptSig": {
            "asm": "3044022011e85ee9ceee9b16c3588ccd41e92f96203a2e5e58f8ab8f14907071e75d054602204cda0f69c143072e337d6885a3c8fe74ae18bb80b2ca0896e57237f225fd6b72[ALL|FORKID] 0201cfa7c9bb4af28f0424982b0441054aa44fb9f05ab721fe3c20b30e050d9dfb",
            "hex": "473044022011e85ee9ceee9b16c3588ccd41e92f96203a2e5e58f8ab8f14907071e75d054602204cda0f69c143072e337d6885a3c8fe74ae18bb80b2ca0896e57237f225fd6b7241210201cfa7c9bb4af28f0424982b0441054aa44fb9f05ab721fe3c20b30e050d9dfb"
          },
          "sequence": 4294967294
        }
      ],
      "vout": [
        {
          "value": 1,
          "n": 0,
          "scriptPubKey": {
            "asm": "OP_HASH160 fe5cc5d87e3348a5f3eaa316898a0f05d520876e OP_EQUAL",
            "hex": "a914fe5cc5d87e3348a5f3eaa316898a0f05d520876e87",
            "reqSigs": 1,
            "type": "scripthash",
            "addresses": [
              "bchtest:prl9e3wc0ce53f0na233dzv2puza2gy8dcdwx8mu9w"
            ]
          }
        },
        {
          "value": 89.99997762,
          "n": 1,
          "scriptPubKey": {
            "asm": "OP_DUP OP_HASH160 55ff7541a59ec226e6a1b7628010a8daf06bb649 OP_EQUALVERIFY OP_CHECKSIG",
            "hex": "76a91455ff7541a59ec226e6a1b7628010a8daf06bb64988ac",
            "reqSigs": 1,
            "type": "pubkeyhash",
            "addresses": [
              "bchtest:qp2l7a2p5k0vyfhx5xmk9qqs4rd0q6akfy9quqd0cp"
            ]
          }
        }
      ],
      "hex": "02000000010c662ea68dc527f7487f0e2a928cfce891620fbc698b0d54cd6696d60a89a804010000006a473044022011e85ee9ceee9b16c3588ccd41e92f96203a2e5e58f8ab8f14907071e75d054602204cda0f69c143072e337d6885a3c8fe74ae18bb80b2ca0896e57237f225fd6b7241210201cfa7c9bb4af28f0424982b0441054aa44fb9f05ab721fe3c20b30e050d9dfbfeffffff0200e1f5050000000017a914fe5cc5d87e3348a5f3eaa316898a0f05d520876e8742117118020000001976a91455ff7541a59ec226e6a1b7628010a8daf06bb64988ac0a761700",
      "blockhash": "00000000000bb47b6b881509bcb44ecfee87c79d3caa046aa89b80820560eb54",
      "confirmations": 75,
      "time": 1673006118,
      "blocktime": 1673006118
    }
  ]
}