{
  "transaction": {
    "txid": "d9c5ac8c681a6b062612e764fd2099d1b438ddffcf47ebd3fa2876261cbc2e9f",
    "hash": "d9c5ac8c681a6b062612e764fd2099d1b438ddffcf47ebd3fa2876261cbc2e9f",
    "version": 2,
    "size": 225,
    "locktime": 1541182,
    "vin": [
      {
        "txid": "5744517f7b6a4defc0b39f8da49dc5756716cb51628390b166ef987e1bdf7d97",
        "vout": 1,
        "scriptSig": {
          "asm": "30440220189bd61acc16cda53420f50bb6d858063d2b508f751c2ec4cdf9663ff66349e502203051f1b9f5647161a5d02676618d285e403531e47f81c88a74e40ec9333f6e1b[ALL|FORKID] 02b35523db11e84ddfbccc1f55a145ed3d91446c813bf9061cbc256bdbef449d31",
          "hex": "4730440220189bd61acc16cda53420f50bb6d858063d2b508f751c2ec4cdf9663ff66349e502203051f1b9f5647161a5d02676618d285e403531e47f81c88a74e40ec9333f6e1b412102b35523db11e84ddfbccc1f55a145ed3d91446c813bf9061cbc256bdbef449d31"
        },
        "sequence": 4294967294
      }
    ],
    "vout": [
      {
        "value": 1,
        "n": 0,
        "scriptPubKey": {
          "asm": "OP_DUP OP_HASH160 d2eb140d8b7006e7b862827043f9cddd50da9811 OP_EQUALVERIFY OP_CHECKSIG",
          "hex": "76a914d2eb140d8b7006e7b862827043f9cddd50da981188ac",
          "reqSigs": 1,
          "type": "pubkeyhash",
          "addresses": [
            "mzkBosFeajZ5KxXp4rPNA8maqoKUFiR7nY"
          ]
        }
      },
      {
        "value": 73.99994182,
        "n": 1,
        "scriptPubKey": {
          "asm": "OP_DUP OP_HASH160 f25a08e83e2dce4a5ec936b756bf952ee6bb921d OP_EQUALVERIFY OP_CHECKSIG",
          "hex": "76a914f25a08e83e2dce4a5ec936b756bf952ee6bb921d88ac",
          "reqSigs": 1,
          "type": "pubkeyhash",
          "addresses": [
            "n3cPgCnvN2hRUbrtzXX76pfVPHgYVhikH9"
          ]
        }
      }
    ],
    "hex": "0200000001977ddf1b7e98ef66b190836251cb166775c59da48d9fb3c0ef4d6a7b7f514457010000006a4730440220189bd61acc16cda53420f50bb6d858063d2b508f751c2ec4cdf9663ff66349e502203051f1b9f5647161a5d02676618d285e403531e47f81c88a74e40ec9333f6e1b412102b35523db11e84ddfbccc1f55a145ed3d91446c813bf9061cbc256bdbef449d31feffffff0200e1f505000000001976a914d2eb140d8b7006e7b862827043f9cddd50da981188ac46f312b9010000001976a914f25a08e83e2dce4a5ec936b756bf952ee6bb921d88ac3e841700"
  },
  "inputs": [
    {
      "txid": "5744517f7b6a4defc0b39f8da49dc5756716cb51628390b166ef987e1bdf7d97",
      "hash": "5744517f7b6a4defc0b39f8da49dc5756716cb51628390b166ef987e1bdf7d97",
      "version": 2,
      "size": 223,
      "locktime": 1540618,
      "vin": [
        {
          "txid": "1d0cd55a52144f5a08be322ebb95bffffcd960c1acbe97d35e252fab3a387e9f",
          "vout": 1,
          "scriptSig": {
            "asm": "304402204d1d13dd9cb5168092bd152ea4515b182947809b26fcf1a3a72a6d739048b4fb02202397a4e2a7e67ccb83e73f7a315c66fe6c33473d8b4d4451c83d4df1ea660423[ALL|FORKID] 0268517d70faa0ce33da35760a1ec02546140ecac87326ec7b0fdc8f6213371c7c",
            "hex": "47304402204d1d13dd9cb5168092bd152ea4515b182947809b26fcf1a3a72a6d739048b4fb02202397a4e2a7e67ccb83e73f7a315c66fe6c33473d8b4d4451c83d4df1ea66042341210268517d70faa0ce33da35760a1ec02546140ecac87326ec7b0fdc8f6213371c7c"
          },
          "sequence": 4294967294
        }
      ],
      "vout": [
        {
          "value": 1,
          "n": 0,
          "scriptPubKey": {
            "asm": "OP_HASH160 fe5cc5d87e3348a5f3eaa316898a0f05d520876e OP_EQUAL",
            "hex": "a914fe5cc5d87e3348a5f3eaa316898a0f05d520876e87",
            "reqSigs": 1,
            "type": "scripthash",
            "addresses": [
              "2NGSAkyhiWMZPcrfiwmcRWf9HQgpsiRGKv4"
            ]
          }
        },
        {
          "value": 74.99994407,
          "n": 1,
          "scriptPubKey": {
            "asm": "OP_DUP OP_HASH160 2cc786ddc9dd3a89843b9576e3a30594110bb9cc OP_EQUALVERIFY OP_CHECKSIG",
            "hex": "76a9142cc786ddc9dd3a89843b9576e3a30594110bb9cc88ac",
            "reqSigs": 1,
            "type": "pubkeyhash",
            "addresses": [
              "mjbj3ruF3wntgajirJKJmxQ2R7TpwQAMD3"
            ]
          }
        }
      ],
      "hex": "02000000019f7e383aab2f255ed397beacc160d9fcffbf95bb2e32be085a4f14525ad50c1d010000006a47304402204d1d13dd9cb5168092bd152ea4515b182947809b26fcf1a3a72a6d739048b4fb02202397a4e2a7e67ccb83e73f7a315c66fe6c33473d8b4d4451c83d4df1ea66042341210268517d70faa0ce33da35760a1ec02546140ecac87326ec7b0fdc8f6213371c7cfeffffff0200e1f5050000000017a914fe5cc5d87e3348a5f3eaa316898a0f05d520876e8727d508bf010000001976a9142cc786ddc9dd3a89843b9576e3a30594110bb9cc88ac0a821700"
    }
  ]
}