{
  "transaction": {
    "txid": "07ad994f3cf776c8309a6f7d67bfb78c1ec55da3ee3b4015e676fc72b9e586c8",
    "hash": "07ad994f3cf776c8309a6f7d67bfb78c1ec55da3ee3b4015e676fc72b9e586c8",
    "version": 2,
    "size": 225,
    "locktime": 1537543,
    "vin": [
      {
        "txid": "fc6124aca1a60814c58913055bf8c3a90c8becd7fe119362f999e42c1e91af60",
        "vout": 1,
        "scriptSig": {
          "asm": "304402203d6d63af9a12cf100d17995bb6c92365ce1002a09f940d21f3cf68696b6bcb5a0220758832b812bba6e2d31d8892c8f95c81a9a5ce2b719b8bb2db2a27b5a2979839[ALL|FORKID] 02bddcec2db96d3d0dc3cae1acb75abeb2e525e5c8b87c9c8ef9ff5ec596bbb499",
          "hex": "47304402203d6d63af9a12cf100d17995bb6c92365ce1002a09f940d21f3cf68696b6bcb5a0220758832b812bba6e2d31d8892c8f95c81a9a5ce2b719b8bb2db2a27b5a2979839412102bddcec2db96d3d0dc3cae1acb75abeb2e525e5c8b87c9c8ef9ff5ec596bbb499"
        },
        "sequence": 4294967294
      }
    ],
    "vout": [
      {
        "value": 1,
        "n": 0,
        "scriptPubKey": {
          "asm": "OP_DUP OP_HASH160 d2eb140d8b7006e7b862827043f9cddd50da9811 OP_EQUALVERIFY OP_CHECKSIG",
          "hex": "76a914d2eb140d8b7006e7b862827043f9cddd50da981188ac",
          "reqSigs": 1,
          "type": "pubkeyhash",
          "addresses": [
            "bchtest:qrfwk9qd3dcqdeacv2p8qsleehw4pk5czyfe6je78q"
          ]
        }
      },
      {
        "value": 94.99998879,
        "n": 1,
        "scriptPubKey": {
          "asm": "OP_DUP OP_HASH160 7ee540dacc936075a099730cb979195715f46da5 OP_EQUALVERIFY OP_CHECKSIG",
          "hex": "76a9147ee540dacc936075a099730cb979195715f46da588ac",
          "reqSigs": 1,
          "type": "pubkeyhash",
          "addresses": [
            "bchtest:qplw2sx6ejfkqadqn9esewter9t3tard55d99jr9u3"
          ]
        }
      }
    ],
    "hex": "020000000160af911e2ce499f9629311fed7ec8b0ca9c3f85b051389c51408a6a1ac2461fc010000006a47304402203d6d63af9a12cf100d17995bb6c92365ce1002a09f940d21f3cf68696b6bcb5a0220758832b812bba6e2d31d8892c8f95c81a9a5ce2b719b8bb2db2a27b5a2979839412102bddcec2db96d3d0dc3cae1acb75abeb2e525e5c8b87c9c8ef9ff5ec596bbb499feffffff0200e1f505000000001976a914d2eb140d8b7006e7b862827043f9cddd50da981188ac9f7a3e36020000001976a9147ee540dacc936075a099730cb979195715f46da588ac07761700"
  },
  "inputs": [
    {
      "txid": "fc6124aca1a60814c58913055bf8c3a90c8becd7fe119362f999e42c1e91af60",
      "hash": "fc6124aca1a60814c58913055bf8c3a90c8becd7fe119362f999e42c1e91af60",
      "version": 2,
      "size": 223,
      "locktime": 1537543,
      "vin": [
        {
          "txid": "f12d63c7316b8aa1db48b6966ebc9aea0c979c4c34be923ffe09793eb62510ba",
          "vout": 1,
          "scriptSig": {
            "asm": "304402205e045d4c649431c322c355c5b644e42025174a67733414dc91701867bc44bd2a02204e52901167da6a3d8604966bc0552184dc706f8c8e841eba7550b2a80167f6b8[ALL|FORKID] 031c142449e83633d48aa9b058eea60b17ede133ca25eea50fc5e7bb79c31ea8ee",
            "hex": "47304402205e045d4c649431c322c355c5b644e42025174a67733414dc91701867bc44bd2a02204e52901167da6a3d8604966bc0552184dc706f8c8e841eba7550b2a80167f6b84121031c142449e83633d48aa9b058eea60b17ede133ca25eea50fc5e7bb79c31ea8ee"
          },
          "sequence": 4294967294
        }
      ],
      "vout": [
        {
          "value": 1,
          "n": 0,
          "scriptPubKey": {
            "asm": "OP_HASH160 fe5cc5d87e3348a5f3eaa316898a0f05d520876e OP_EQUAL",
            "hex": "a914fe5cc5d87e3348a5f3eaa316898a0f05d520876e87",
            "reqSigs": 1,
            "type": "scripthash",
            "addresses": [
              "bchtest:prl9e3wc0ce53f0na233dzv2puza2gy8dcdwx8mu9w"
            ]
          }
        },
        {
          "value": 95.99999104,
          "n": 1,
          "scriptPubKey": {
            "asm": "OP_DUP OP_HASH160 a2f1d64b8e00748c900260f4123efdce949123a9 OP_EQUALVERIFY OP_CHECKSIG",
            "hex": "76a914a2f1d64b8e00748c900260f4123efdce949123a988ac",
            "reqSigs": 1,
            "type": "pubkeyhash",
            "addresses": [
              "bchtest:qz30r4jt3cq8frysqfs0gy37lh8ffyfr4yt8vrte67"
            ]
          }
        }
      ],
      "hex": "0200000001ba1025b63e7909fe3f92be344c9c970cea9abc6e96b648dba18a6b31c7632df1010000006a47304402205e045d4c649431c322c355c5b644e42025174a67733414dc91701867bc44bd2a02204e52901167da6a3d8604966bc0552184dc706f8c8e841eba7550b2a80167f6b84121031c142449e83633d48aa9b058eea60b17ede133ca25eea50fc5e7bb79c31ea8eefeffffff0200e1f5050000000017a914fe5cc5d87e3348a5f3eaa316898a0f05d520876e87805c343c020000001976a914a2f1d64b8e00748c900260f4123efdce949123a988ac07761700"
    }
  ]
}