{
  "transaction": {
    "txid": "d8607933e5cf3711186693efe053df85f7ea74fff9850d8254c4b08d9b06d19a",
    "hash": "d8607933e5cf3711186693efe053df85f7ea74fff9850d8254c4b08d9b06d19a",
    "version": 2,
    "size": 223,
    "locktime": 1541112,
    "vin": [
      {
        "txid": "d9c5ac8c681a6b062612e764fd2099d1b438ddffcf47ebd3fa2876261cbc2e9f",
        "vout": 1,
        "scriptSig": {
          "asm": "3044022023478e4fe6589a60694daad3d80820d8ea2718b8e1bf244457518222fe92f84102201f5e10b99f2505c19acc1c5a9dc9fe7e4ecd0e34fccc95ac547dd2a9e6271bee[ALL|FORKID] 03620427114a5fb95402b469807292ac061475823c0994a865f61932e0d3cf1272",
          "hex": "473044022023478e4fe6589a60694daad3d80820d8ea2718b8e1bf244457518222fe92f84102201f5e10b99f2505c19acc1c5a9dc9fe7e4ecd0e34fccc95ac547dd2a9e6271bee412103620427114a5fb95402b469807292ac061475823c0994a865f61932e0d3cf1272"
        },
        "sequence": 4294967294
      }
    ],
    "vout": [
      {
        "value": 72.99993959,
        "n": 0,
        "scriptPubKey": {
          "asm": "OP_DUP OP_HASH160 8c60f124f1c117a9384e9dfc7cb23d75579b3d89 OP_EQUALVERIFY OP_CHECKSIG",
          "hex": "76a9148c60f124f1c117a9384e9dfc7cb23d75579b3d8988ac",
          "reqSigs": 1,
          "type": "pubkeyhash",
          "addresses": [
            "mtKD2ZE7JJKCH17RW3rjsVN84YpKnycSqS"
          ]
        }
      },
      {
        "value": 1,
        "n": 1,
        "scriptPubKey": {
          "asm": "OP_HASH160 fe5cc5d87e3348a5f3eaa316898a0f05d520876e OP_EQUAL",
          "hex": "a914fe5cc5d87e3348a5f3eaa316898a0f05d520876e87",
          "reqSigs": 1,
          "type": "scripthash",
          "addresses": [
            "2NGSAkyhiWMZPcrfiwmcRWf9HQgpsiRGKv4"
          ]
        }
      }
    ],
    "hex": "02000000019f2ebc1c267628fad3eb47cfffdd38b4d19920fd64e71226066b1a688cacc5d9010000006a473044022023478e4fe6589a60694daad3d80820d8ea2718b8e1bf244457518222fe92f84102201f5e10b99f2505c19acc1c5a9dc9fe7e4ecd0e34fccc95ac547dd2a9e6271bee412103620427114a5fb95402b469807292ac061475823c0994a865f61932e0d3cf1272feffffff0267111db3010000001976a9148c60f124f1c117a9384e9dfc7cb23d75579b3d8988ac00e1f5050000000017a914fe5cc5d87e3348a5f3eaa316898a0f05d520876e87f8831700"
  },
  "inputs": [
    {
      "txid": "d9c5ac8c681a6b062612e764fd2099d1b438ddffcf47ebd3fa2876261cbc2e9f",
      "hash": "d9c5ac8c681a6b062612e764fd2099d1b438ddffcf47ebd3fa2876261cbc2e9f",
      "version": 2,
      "size": 225,
      "locktime": 1541182,
      "vin": [
        {
          "txid": "5744517f7b6a4defc0b39f8da49dc5756716cb51628390b166ef987e1bdf7d97",
          "vout": 1,
          "scriptSig": {
            "asm": "30440220189bd61acc16cda53420f50bb6d858063d2b508f751c2ec4cdf9663ff66349e502203051f1b9f5647161a5d02676618d285e403531e47f81c88a74e40ec9333f6e1b[ALL|FORKID] 02b35523db11e84ddfbccc1f55a145ed3d91446c813bf9061cbc256bdbef449d31",
            "hex": "4730440220189bd61acc16cda53420f50bb6d858063d2b508f751c2ec4cdf9663ff66349e502203051f1b9f5647161a5d02676618d285e403531e47f81c88a74e40ec9333f6e1b412102b35523db11e84ddfbccc1f55a145ed3d91446c813bf9061cbc256bdbef449d31"
          },
          "sequence": 4294967294
        }
      ],
      "vout": [
        {
          "value": 1,
          "n": 0,
          "scriptPubKey": {
            "asm": "OP_DUP OP_HASH160 d2eb140d8b7006e7b862827043f9cddd50da9811 OP_EQUALVERIFY OP_CHECKSIG",
            "hex": "76a914d2eb140d8b7006e7b862827043f9cddd50da981188ac",
            "reqSigs": 1,
            "type": "pubkeyhash",
            "addresses": [
              "mzkBosFeajZ5KxXp4rPNA8maqoKUFiR7nY"
            ]
          }
        },
        {
          "value": 73.99994182,
          "n": 1,
          "scriptPubKey": {
            "asm": "OP_DUP OP_HASH160 f25a08e83e2dce4a5ec936b756bf952ee6bb921d OP_EQUALVERIFY OP_CHECKSIG",
            "hex": "76a914f25a08e83e2dce4a5ec936b756bf952ee6bb921d88ac",
            "reqSigs": 1,
            "type": "pubkeyhash",
            "addresses": [
              "n3cPgCnvN2hRUbrtzXX76pfVPHgYVhikH9"
            ]
          }
        }
      ],
      "hex": "0200000001977ddf1b7e98ef66b190836251cb166775c59da48d9fb3c0ef4d6a7b7f514457010000006a4730440220189bd61acc16cda53420f50bb6d858063d2b508f751c2ec4cdf9663ff66349e502203051f1b9f5647161a5d02676618d285e403531e47f81c88a74e40ec9333f6e1b412102b35523db11e84ddfbccc1f55a145ed3d91446c813bf9061cbc256bdbef449d31feffffff0200e1f505000000001976a914d2eb140d8b7006e7b862827043f9cddd50da981188ac46f312b9010000001976a914f25a08e83e2dce4a5ec936b756bf952ee6bb921d88ac3e841700"
    }
  ]
}