{
  "transaction": {
    "txid": "3dc955989710263b44a97f83d3ea72ac29d755d8a531f302ef63a515de773d77",
    "hash": "3dc955989710263b44a97f83d3ea72ac29d755d8a531f302ef63a515de773d77",
    "version": 2,
    "size": 223,
    "locktime": 1537621,
    "vin": [
      {
        "txid": "113924bf33350f1778bbc19a72c8391bc57d2a0234c9acd5635fed74fe8b6d9d",
        "vout": 1,
        "scriptSig": {
          "asm": "3044022034bb70a7230b178b8916e1349c3ed2a8a25ffbcba137034989f7faa5be7ba35e02201403e8bf9b73a433d3c0c43bc3bc078104755e012ed4c18a870028b12c1e421a[ALL|FORKID] 02b818530a0019c52d90db8f0d921ee302844e1f2aab649c331937a07ea667840c",
          "hex": "473044022034bb70a7230b178b8916e1349c3ed2a8a25ffbcba137034989f7faa5be7ba35e02201403e8bf9b73a433d3c0c43bc3bc078104755e012ed4c18a870028b12c1e421a412102b818530a0019c52d90db8f0d921ee302844e1f2aab649c331937a07ea667840c"
        },
        "sequence": 4294967294
      }
    ],
    "vout": [
      {
        "value": 87.99997314,
        "n": 0,
        "scriptPubKey": {
          "asm": "OP_DUP OP_HASH160 e9214b37b3a8ce0d2f025905e9f1d35fc02034e3 OP_EQUALVERIFY OP_CHECKSIG",
          "hex": "76a914e9214b37b3a8ce0d2f025905e9f1d35fc02034e388ac",
          "reqSigs": 1,
          "type": "pubkeyhash",
          "addresses": [
            "bchtest:qr5jzjehkw5vurf0qfvst6036d0uqgp5uv5ye53yqw"
          ]
        }
      },
      {
        "value": 1,
        "n": 1,
        "scriptPubKey": {
          "asm": "OP_HASH160 fe5cc5d87e3348a5f3eaa316898a0f05d520876e OP_EQUAL",
          "hex": "a914fe5cc5d87e3348a5f3eaa316898a0f05d520876e87",
          "reqSigs": 1,
          "type": "scripthash",
          "addresses": [
            "bchtest:prl9e3wc0ce53f0na233dzv2puza2gy8dcdwx8mu9w"
          ]
        }
      }
    ],
    "hex": "02000000019d6d8bfe74ed5f63d5acc934022a7dc51b39c8729ac1bb78170f3533bf243911010000006a473044022034bb70a7230b178b8916e1349c3ed2a8a25ffbcba137034989f7faa5be7ba35e02201403e8bf9b73a433d3c0c43bc3bc078104755e012ed4c18a870028b12c1e421a412102b818530a0019c52d90db8f0d921ee302844e1f2aab649c331937a07ea667840cfeffffff02824d850c020000001976a914e9214b37b3a8ce0d2f025905e9f1d35fc02034e388ac00e1f5050000000017a914fe5cc5d87e3348a5f3eaa316898a0f05d520876e8755761700"
  },
  "inputs": [
    {
      "txid": "113924bf33350f1778bbc19a72c8391bc57d2a0234c9acd5635fed74fe8b6d9d",
      "hash": "113924bf33350f1778bbc19a72c8391bc57d2a0234c9acd5635fed74fe8b6d9d",
      "version": 2,
      "size": 225,
      "locktime": 1537621,
      "vin": [
        {
          "txid": "f59a53ff24e81ac75bef0d7fc42ab4b1e71af7a36af433f471ace3721cfeb1c9",
          "vout": 1,
          "scriptSig": {
            "asm": "30440220376221d68add7a60a032f67e98da744acb794a1ae073ecb1b1031dc3347f9d3402201585262ad004fa7757fb787caaca841e2cc395c42cc404c46206b12d0741e931[ALL|FORKID] 02b2a6456c6becf6007e697e43a71374b8a5533893e059692cddfd01b53f13ce46",
            "hex": "4730440220376221d68add7a60a032f67e98da744acb794a1ae073ecb1b1031dc3347f9d3402201585262ad004fa7757fb787caaca841e2cc395c42cc404c46206b12d0741e931412102b2a6456c6becf6007e697e43a71374b8a5533893e059692cddfd01b53f13ce46"
          },
          "sequence": 4294967294
        }
      ],
      "vout": [
        {
          "value": 1,
          "n": 0,
          "scriptPubKey": {
            "asm": "OP_DUP OP_HASH160 d2eb140d8b7006e7b862827043f9cddd50da9811 OP_EQUALVERIFY OP_CHECKSIG",
            "hex": "76a914d2eb140d8b7006e7b862827043f9cddd50da981188ac",
            "reqSigs": 1,
            "type": "pubkeyhash",
            "addresses": [
              "bchtest:qrfwk9qd3dcqdeacv2p8qsleehw4pk5czyfe6je78q"
            ]
          }
        },
        {
          "value": 88.99997537,
          "n": 1,
          "scriptPubKey": {
            "asm": "OP_DUP OP_HASH160 c4b41ed2d5ad6088b349b5f52eb6c2ce762eed99 OP_EQUALVERIFY OP_CHECKSIG",
            "hex": "76a914c4b41ed2d5ad6088b349b5f52eb6c2ce762eed9988ac",
            "reqSigs": 1,
            "type": "pubkeyhash",
            "addresses": [
              "bchtest:qrztg8kj6kkkpz9nfx6l2t4kct88vthdnyxu2z6kce"
            ]
          }
        }
      ],
      "hex": "0200000001c9b1fe1c72e3ac71f433f46aa3f71ae7b1b42ac47f0def5bc71ae824ff539af5010000006a4730440220376221d68add7a60a032f67e98da744acb794a1ae073ecb1b1031dc3347f9d3402201585262ad004fa7757fb787caaca841e2cc395c42cc404c46206b12d0741e931412102b2a6456c6becf6007e697e43a71374b8a5533893e059692cddfd01b53f13ce46feffffff0200e1f505000000001976a914d2eb140d8b7006e7b862827043f9cddd50da981188ac612f7b12020000001976a914c4b41ed2d5ad6088b349b5f52eb6c2ce762eed9988ac55761700"
    }
  ]
}