{
  "transaction": {
    "txid": "75cef0bc5b77afb910210de4f9066d5d1141908cb6b36015cfabf2d3406f8268",
    "hash": "75cef0bc5b77afb910210de4f9066d5d1141908cb6b36015cfabf2d3406f8268",
    "version": 2,
    "size": 631,
    "locktime": 0,
    "vin": [
      {
        "txid": "30054320cec8e75ce46d9251649e8c20dbb73d7e328f30df9bfb7fc8baace9e6",
        "vout": 0,
        "scriptSig": {
          "asm": "0 304402206a8885c50ff460f8702f50b091f917fa4dfbf24a31936c61078f5bcfef77a3dc02205ec4ab5a73f9bbfb21b063a33454999c5c5465d0501529dda395ad583bae12b2[ALL|FORKID] 3044022000bf385225b483f8e5a4c28207a284a35f5ba4d52b09a4b31aa9163e2c4945680220040f67af1f2e00b155046379aeed5ba19b9a71d76ad92fd9c5dd884fde609096[ALL|FORKID] 5221028fedaf75b5b08cddf3bf4631c658b68ee6766a8e999467a641d7cb7aaaecec972103316bc27d95b96418349afc6298c259bb999c6e8f39a7217787ad53602be7c1472102e21c29b4a7eeace9c7a8cefb568ca00c86ff9bf5e79e07e5442c29d4a0950d0453ae",
          "hex": "0047304402206a8885c50ff460f8702f50b091f917fa4dfbf24a31936c61078f5bcfef77a3dc02205ec4ab5a73f9bbfb21b063a33454999c5c5465d0501529dda395ad583bae12b241473044022000bf385225b483f8e5a4c28207a284a35f5ba4d52b09a4b31aa9163e2c4945680220040f67af1f2e00b155046379aeed5ba19b9a71d76ad92fd9c5dd884fde609096414c695221028fedaf75b5b08cddf3bf4631c658b68ee6766a8e999467a641d7cb7aaaecec972103316bc27d95b96418349afc6298c259bb999c6e8f39a7217787ad53602be7c1472102e21c29b4a7eeace9c7a8cefb568ca00c86ff9bf5e79e07e5442c29d4a0950d0453ae"
        },
        "sequence": 4294967295
      },
      {
        "txid": "db7830c3bd69b766e5267b604d9d1a1f61dff2e7ed22439fc04b1a9e3abc9ef4",
        "vout": 0,
        "scriptSig": {
          "asm": "0 304402207cccf9f8e195d25b1cc79bbb2ef9774e22b1def0c5995e29ea0272f6a1e356bf0220760921314329791b2bfdb2aa45b77b263bdade488e5b90a10fdede41683e07f1[ALL|FORKID] 304502210087391c8838f9d2b104dcb81c2810cf8862a65d279281c16fcdaaa2ce1b93fb720220289f57f30e6d33d1b4100c74d1be0bb085d93ce77e79b8aa0b3d7f94498a3748[ALL|FORKID] 5221028fedaf75b5b08cddf3bf4631c658b68ee6766a8e999467a641d7cb7aaaecec972103316bc27d95b96418349afc6298c259bb999c6e8f39a7217787ad53602be7c1472102e21c29b4a7eeace9c7a8cefb568ca00c86ff9bf5e79e07e5442c29d4a0950d0453ae",
          "hex": "0047304402207cccf9f8e195d25b1cc79bbb2ef9774e22b1def0c5995e29ea0272f6a1e356bf0220760921314329791b2bfdb2aa45b77b263bdade488e5b90a10fdede41683e07f14148304502210087391c8838f9d2b104dcb81c2810cf8862a65d279281c16fcdaaa2ce1b93fb720220289f57f30e6d33d1b4100c74d1be0bb085d93ce77e79b8aa0b3d7f94498a3748414c695221028fedaf75b5b08cddf3bf4631c658b68ee6766a8e999467a641d7cb7aaaecec972103316bc27d95b96418349afc6298c259bb999c6e8f39a7217787ad53602be7c1472102e21c29b4a7eeace9c7a8cefb568ca00c86ff9bf5e79e07e5442c29d4a0950d0453ae"
        },
        "sequence": 4294967295
      }
    ],
    "vout": [
      {
        "value": 1.99999,
        "n": 0,
        "scriptPubKey": {
          "asm": "OP_HASH160 fe5cc5d87e3348a5f3eaa316898a0f05d520876e OP_EQUAL",
          "hex": "a914fe5cc5d87e3348a5f3eaa316898a0f05d520876e87",
          "reqSigs": 1,
          "type": "scripthash",
          "addresses": [
            "bchtest:prl9e3wc0ce53f0na233dzv2puza2gy8dcdwx8mu9w"
          ]
        }
      }
    ],
    "hex": "0200000002e6e9acbac87ffb9bdf308f327e3db7db208c9e6451926de45ce7c8ce2043053000000000fc0047304402206a8885c50ff460f8702f50b091f917fa4dfbf24a31936c61078f5bcfef77a3dc02205ec4ab5a73f9bbfb21b063a33454999c5c5465d0501529dda395ad583bae12b241473044022000bf385225b483f8e5a4c28207a284a35f5ba4d52b09a4b31aa9163e2c4945680220040f67af1f2e00b155046379aeed5ba19b9a71d76ad92fd9c5dd884fde609096414c695221028fedaf75b5b08cddf3bf4631c658b68ee6766a8e999467a641d7cb7aaaecec972103316bc27d95b96418349afc6298c259bb999c6e8f39a7217787ad53602be7c1472102e21c29b4a7eeace9c7a8cefb568ca00c86ff9bf5e79e07e5442c29d4a0950d0453aefffffffff49ebc3a9e1a4bc09f4322ede7f2df611f1a9d4d607b26e566b769bdc33078db00000000fdfd000047304402207cccf9f8e195d25b1cc79bbb2ef9774e22b1def0c5995e29ea0272f6a1e356bf0220760921314329791b2bfdb2aa45b77b263bdade488e5b90a10fdede41683e07f14148304502210087391c8838f9d2b104dcb81c2810cf8862a65d279281c16fcdaaa2ce1b93fb720220289f57f30e6d33d1b4100c74d1be0bb085d93ce77e79b8aa0b3d7f94498a3748414c695221028fedaf75b5b08cddf3bf4631c658b68ee6766a8e999467a641d7cb7aaaecec972103316bc27d95b96418349afc6298c259bb999c6e8f39a7217787ad53602be7c1472102e21c29b4a7eeace9c7a8cefb568ca00c86ff9bf5e79e07e5442c29d4a0950d0453aeffffffff0118beeb0b0000000017a914fe5cc5d87e3348a5f3eaa316898a0f05d520876e8700000000"
  },
  "inputs": [
    {
      "txid": "30054320cec8e75ce46d9251649e8c20dbb73d7e328f30df9bfb7fc8baace9e6",
      "hash": "30054320cec8e75ce46d9251649e8c20dbb73d7e328f30df9bfb7fc8baace9e6",
      "version": 2,
      "size": 223,
      "locktime": 1537543,
      "vin": [
        {
          "txid": "07ad994f3cf776c8309a6f7d67bfb78c1ec55da3ee3b4015e676fc72b9e586c8",
          "vout": 1,
          "scriptSig": {
            "asm": "304402202a20aca0f50a082b17a5d7c8baad69964c7d03d11f7360e828b11e89f078ad6f02205b5bf6ce0c61ded2d582aa94779e4302fe2c51d7cc7bb745cac498c41ac10791[ALL|FORKID] 020839b8476e5c75ed8597ebbe87d71b9fb1c74a34d74faaa77091913382ae17c1",
            "hex": "47304402202a20aca0f50a082b17a5d7c8baad69964c7d03d11f7360e828b11e89f078ad6f02205b5bf6ce0c61ded2d582aa94779e4302fe2c51d7cc7bb745cac498c41ac107914121020839b8476e5c75ed8597ebbe87d71b9fb1c74a34d74faaa77091913382ae17c1"
          },
          "sequence": 4294967294
        }
      ],
      "vout": [
        {
          "value": 1,
          "n": 0,
          "scriptPubKey": {
            "asm": "OP_HASH160 fe5cc5d87e3348a5f3eaa316898a0f05d520876e OP_EQUAL",
            "hex": "a914fe5cc5d87e3348a5f3eaa316898a0f05d520876e87",
            "reqSigs": 1,
            "type": "scripthash",
            "addresses": [
              "bchtest:prl9e3wc0ce53f0na233dzv2puza2gy8dcdwx8mu9w"
            ]
          }
        },
        {
          "value": 93.99998656,
          "n": 1,
          "scriptPubKey": {
            "asm": "OP_DUP OP_HASH160 97f997bc21bb9b66b1bbefe9a71b26fb30a41f24 OP_EQUALVERIFY OP_CHECKSIG",
            "hex": "76a91497f997bc21bb9b66b1bbefe9a71b26fb30a41f2488ac",
            "reqSigs": 1,
            "type": "pubkeyhash",
            "addresses": [
              "bchtest:qztln9auyxaeke43h0h7nfcmymanpfqlysm33qvvma"
            ]
          }
        }
      ],
      "hex": "0200000001c886e5b972fc76e615403beea35dc51e8cb7bf677d6f9a30c876f73c4f99ad07010000006a47304402202a20aca0f50a082b17a5d7c8baad69964c7d03d11f7360e828b11e89f078ad6f02205b5bf6ce0c61ded2d582aa94779e4302fe2c51d7cc7bb745cac498c41ac107914121020839b8476e5c75ed8597ebbe87d71b9fb1c74a34d74faaa77091913382ae17c1feffffff0200e1f5050000000017a914fe5cc5d87e3348a5f3eaa316898a0f05d520876e87c0984830020000001976a91497f997bc21bb9b66b1bbefe9a71b26fb30a41f2488ac07761700"
    },
    {
      "txid": "db7830c3bd69b766e5267b604d9d1a1f61dff2e7ed22439fc04b1a9e3abc9ef4",
      "hash": "db7830c3bd69b766e5267b604d9d1a1f61dff2e7ed22439fc04b1a9e3abc9ef4",
      "version": 2,
      "size": 223,
      "locktime": 1537543,
      "vin": [
        {
          "txid": "30054320cec8e75ce46d9251649e8c20dbb73d7e328f30df9bfb7fc8baace9e6",
          "vout": 1,
          "scriptSig": {
            "asm": "304402201ac5279530d47651c03768062fd8d45f15b2d2973cf37930cbbe537e333d7d4102206f0fe505e303b65d66937d7bc29a18b2cc4ef1ea4c61f4940d1c235a7f2afd6e[ALL|FORKID] 03c9172c84a0de615c997b31323a3e1a6d3b79ef839bad5da68249152d1325f7a1",
            "hex": "47304402201ac5279530d47651c03768062fd8d45f15b2d2973cf37930cbbe537e333d7d4102206f0fe505e303b65d66937d7bc29a18b2cc4ef1ea4c61f4940d1c235a7f2afd6e412103c9172c84a0de615c997b31323a3e1a6d3b79ef839bad5da68249152d1325f7a1"
          },
          "sequence": 4294967294
        }
      ],
      "vout": [
        {
          "value": 1,
          "n": 0,
          "scriptPubKey": {
            "asm": "OP_HASH160 fe5cc5d87e3348a5f3eaa316898a0f05d520876e OP_EQUAL",
            "hex": "a914fe5cc5d87e3348a5f3eaa316898a0f05d520876e87",
            "reqSigs": 1,
            "type": "scripthash",
            "addresses": [
              "bchtest:prl9e3wc0ce53f0na233dzv2puza2gy8dcdwx8mu9w"
            ]
          }
        },
        {
          "value": 92.99998433,
          "n": 1,
          "scriptPubKey": {
            "asm": "OP_DUP OP_HASH160 ac22211a3433aa671a15b5523c99529171589570 OP_EQUALVERIFY OP_CHECKSIG",
            "hex": "76a914ac22211a3433aa671a15b5523c9952917158957088ac",
            "reqSigs": 1,
            "type": "pubkeyhash",
            "addresses": [
              "bchtest:qzkzygg6xse65ec6zk64y0ye22ghzky4wquc4n6atp"
            ]
          }
        }
      ],
      "hex": "0200000001e6e9acbac87ffb9bdf308f327e3db7db208c9e6451926de45ce7c8ce20430530010000006a47304402201ac5279530d47651c03768062fd8d45f15b2d2973cf37930cbbe537e333d7d4102206f0fe505e303b65d66937d7bc29a18b2cc4ef1ea4c61f4940d1c235a7f2afd6e412103c9172c84a0de615c997b31323a3e1a6d3b79ef839bad5da68249152d1325f7a1feffffff0200e1f5050000000017a914fe5cc5d87e3348a5f3eaa316898a0f05d520876e87e1b6522a020000001976a914ac22211a3433aa671a15b5523c9952917158957088ac07761700"
    }
  ]
}