{
  "transaction": {
    "txid": "3cb082d92a0a6b9955308553734e3256545110fb16c6e3e7275ae41713a0695c",
    "hash": "3cb082d92a0a6b9955308553734e3256545110fb16c6e3e7275ae41713a0695c",
    "version": 2,
    "size": 632,
    "locktime": 0,
    "vin": [
      {
        "txid": "d8607933e5cf3711186693efe053df85f7ea74fff9850d8254c4b08d9b06d19a",
        "vout": 1,
        "scriptSig": {
          "asm": "0 30440220318e832095d712cc86e035379ca69329f73904eb9c5333d23511cc86f31df13c02204cca76a638b9c99c5d8365e6fdcb917cccfc0cf117058638733210709fb4baa9[ALL|FORKID] 304402205d0c43ff23127e215f200b88f22d38daa69ac6e68282e72614140f918ef27ace02200c20a740f577c2fdc4f7d631e42ba3b48255090e52b06ae7c67cd064cbfd9f6d[ALL|FORKID] 5221028fedaf75b5b08cddf3bf4631c658b68ee6766a8e999467a641d7cb7aaaecec972103316bc27d95b96418349afc6298c259bb999c6e8f39a7217787ad53602be7c1472102e21c29b4a7eeace9c7a8cefb568ca00c86ff9bf5e79e07e5442c29d4a0950d0453ae",
          "hex": "004730440220318e832095d712cc86e035379ca69329f73904eb9c5333d23511cc86f31df13c02204cca76a638b9c99c5d8365e6fdcb917cccfc0cf117058638733210709fb4baa94147304402205d0c43ff23127e215f200b88f22d38daa69ac6e68282e72614140f918ef27ace02200c20a740f577c2fdc4f7d631e42ba3b48255090e52b06ae7c67cd064cbfd9f6d414c695221028fedaf75b5b08cddf3bf4631c658b68ee6766a8e999467a641d7cb7aaaecec972103316bc27d95b96418349afc6298c259bb999c6e8f39a7217787ad53602be7c1472102e21c29b4a7eeace9c7a8cefb568ca00c86ff9bf5e79e07e5442c29d4a0950d0453ae"
        },
        "sequence": 4294967295
      },
      {
        "txid": "1222076bcbb9641cea27857d243597ac7e78950acd1aee9396e8ca612482d54a",
        "vout": 0,
        "scriptSig": {
          "asm": "0 3045022100baa69fda7e030ae51b3d9726c831704387eb81bafd581040e3cc3666e001f62e02203dc4cd76b656b0c4f5673393ef8cadb397609276d9a5b8f49d98ee260e25fee3[ALL|FORKID] 3045022100f1a8e0d50767a2a357c45e83f87d4afb00ae56d2cc7eea7f46611f18a57d425f02206fa776557241d41fba6582a8b4100d62168d25fda95597ac5329fe60d31d8aa0[ALL|FORKID] 5221028fedaf75b5b08cddf3bf4631c658b68ee6766a8e999467a641d7cb7aaaecec972103316bc27d95b96418349afc6298c259bb999c6e8f39a7217787ad53602be7c1472102e21c29b4a7eeace9c7a8cefb568ca00c86ff9bf5e79e07e5442c29d4a0950d0453ae",
          "hex": "00483045022100baa69fda7e030ae51b3d9726c831704387eb81bafd581040e3cc3666e001f62e02203dc4cd76b656b0c4f5673393ef8cadb397609276d9a5b8f49d98ee260e25fee341483045022100f1a8e0d50767a2a357c45e83f87d4afb00ae56d2cc7eea7f46611f18a57d425f02206fa776557241d41fba6582a8b4100d62168d25fda95597ac5329fe60d31d8aa0414c695221028fedaf75b5b08cddf3bf4631c658b68ee6766a8e999467a641d7cb7aaaecec972103316bc27d95b96418349afc6298c259bb999c6e8f39a7217787ad53602be7c1472102e21c29b4a7eeace9c7a8cefb568ca00c86ff9bf5e79e07e5442c29d4a0950d0453ae"
        },
        "sequence": 4294967295
      }
    ],
    "vout": [
      {
        "value": 1.99999,
        "n": 0,
        "scriptPubKey": {
          "asm": "OP_HASH160 fe5cc5d87e3348a5f3eaa316898a0f05d520876e OP_EQUAL",
          "hex": "a914fe5cc5d87e3348a5f3eaa316898a0f05d520876e87",
          "reqSigs": 1,
          "type": "scripthash",
          "addresses": [
            "2NGSAkyhiWMZPcrfiwmcRWf9HQgpsiRGKv4"
          ]
        }
      }
    ],
    "hex": "02000000029ad1069b8db0c454820d85f9ff74eaf785df53e0ef9366181137cfe5337960d801000000fc004730440220318e832095d712cc86e035379ca69329f73904eb9c5333d23511cc86f31df13c02204cca76a638b9c99c5d8365e6fdcb917cccfc0cf117058638733210709fb4baa94147304402205d0c43ff23127e215f200b88f22d38daa69ac6e68282e72614140f918ef27ace02200c20a740f577c2fdc4f7d631e42ba3b48255090e52b06ae7c67cd064cbfd9f6d414c695221028fedaf75b5b08cddf3bf4631c658b68ee6766a8e999467a641d7cb7aaaecec972103316bc27d95b96418349afc6298c259bb999c6e8f39a7217787ad53602be7c1472102e21c29b4a7eeace9c7a8cefb568ca00c86ff9bf5e79e07e5442c29d4a0950d0453aeffffffff4ad5822461cae89693ee1acd0a95787eac9735247d8527ea1c64b9cb6b07221200000000fdfe0000483045022100baa69fda7e030ae51b3d9726c831704387eb81bafd581040e3cc3666e001f62e02203dc4cd76b656b0c4f5673393ef8cadb397609276d9a5b8f49d98ee260e25fee341483045022100f1a8e0d50767a2a357c45e83f87d4afb00ae56d2cc7eea7f46611f18a57d425f02206fa776557241d41fba6582a8b4100d62168d25fda95597ac5329fe60d31d8aa0414c695221028fedaf75b5b08cddf3bf4631c658b68ee6766a8e999467a641d7cb7aaaecec972103316bc27d95b96418349afc6298c259bb999c6e8f39a7217787ad53602be7c1472102e21c29b4a7eeace9c7a8cefb568ca00c86ff9bf5e79e07e5442c29d4a0950d0453aeffffffff0118beeb0b0000000017a914fe5cc5d87e3348a5f3eaa316898a0f05d520876e8700000000"
  },
  "inputs": [
    {
      "txid": "d8607933e5cf3711186693efe053df85f7ea74fff9850d8254c4b08d9b06d19a",
      "hash": "d8607933e5cf3711186693efe053df85f7ea74fff9850d8254c4b08d9b06d19a",
      "version": 2,
      "size": 223,
      "locktime": 1541112,
      "vin": [
        {
          "txid": "d9c5ac8c681a6b062612e764fd2099d1b438ddffcf47ebd3fa2876261cbc2e9f",
          "vout": 1,
          "scriptSig": {
            "asm": "3044022023478e4fe6589a60694daad3d80820d8ea2718b8e1bf244457518222fe92f84102201f5e10b99f2505c19acc1c5a9dc9fe7e4ecd0e34fccc95ac547dd2a9e6271bee[ALL|FORKID] 03620427114a5fb95402b469807292ac061475823c0994a865f61932e0d3cf1272",
            "hex": "473044022023478e4fe6589a60694daad3d80820d8ea2718b8e1bf244457518222fe92f84102201f5e10b99f2505c19acc1c5a9dc9fe7e4ecd0e34fccc95ac547dd2a9e6271bee412103620427114a5fb95402b469807292ac061475823c0994a865f61932e0d3cf1272"
          },
          "sequence": 4294967294
        }
      ],
      "vout": [
        {
          "value": 72.99993959,
          "n": 0,
          "scriptPubKey": {
            "asm": "OP_DUP OP_HASH160 8c60f124f1c117a9384e9dfc7cb23d75579b3d89 OP_EQUALVERIFY OP_CHECKSIG",
            "hex": "76a9148c60f124f1c117a9384e9dfc7cb23d75579b3d8988ac",
            "reqSigs": 1,
            "type": "pubkeyhash",
            "addresses": [
              "mtKD2ZE7JJKCH17RW3rjsVN84YpKnycSqS"
            ]
          }
        },
        {
          "value": 1,
          "n": 1,
          "scriptPubKey": {
            "asm": "OP_HASH160 fe5cc5d87e3348a5f3eaa316898a0f05d520876e OP_EQUAL",
            "hex": "a914fe5cc5d87e3348a5f3eaa316898a0f05d520876e87",
            "reqSigs": 1,
            "type": "scripthash",
            "addresses": [
              "2NGSAkyhiWMZPcrfiwmcRWf9HQgpsiRGKv4"
            ]
          }
        }
      ],
      "hex": "02000000019f2ebc1c267628fad3eb47cfffdd38b4d19920fd64e71226066b1a688cacc5d9010000006a473044022023478e4fe6589a60694daad3d80820d8ea2718b8e1bf244457518222fe92f84102201f5e10b99f2505c19acc1c5a9dc9fe7e4ecd0e34fccc95ac547dd2a9e6271bee412103620427114a5fb95402b469807292ac061475823c0994a865f61932e0d3cf1272feffffff0267111db3010000001976a9148c60f124f1c117a9384e9dfc7cb23d75579b3d8988ac00e1f5050000000017a914fe5cc5d87e3348a5f3eaa316898a0f05d520876e87f8831700"
    },
    {
      "txid": "1222076bcbb9641cea27857d243597ac7e78950acd1aee9396e8ca612482d54a",
      "hash": "1222076bcbb9641cea27857d243597ac7e78950acd1aee9396e8ca612482d54a",
      "version": 2,
      "size": 223,
      "locktime": 1541182,
      "vin": [
        {
          "txid": "d8607933e5cf3711186693efe053df85f7ea74fff9850d8254c4b08d9b06d19a",
          "vout": 0,
          "scriptSig": {
            "asm": "304402206afc90984762a901dc4a740f4f2ae3896036d6857dc1c28763004e9020a8859f02203f711edfcda12860acf46ab2e9a999be93ef20b7293f9f5f5243d8a7b6e8ed8c[ALL|FORKID] 03f5131817223cf430a1d11c236fa9ef9b81ba2fbdb9efa0e147d977e8c0f9dab8",
            "hex": "47304402206afc90984762a901dc4a740f4f2ae3896036d6857dc1c28763004e9020a8859f02203f711edfcda12860acf46ab2e9a999be93ef20b7293f9f5f5243d8a7b6e8ed8c412103f5131817223cf430a1d11c236fa9ef9b81ba2fbdb9efa0e147d977e8c0f9dab8"
          },
          "sequence": 4294967294
        }
      ],
      "vout": [
        {
          "value": 1,
          "n": 0,
          "scriptPubKey": {
            "asm": "OP_HASH160 fe5cc5d87e3348a5f3eaa316898a0f05d520876e OP_EQUAL",
            "hex": "a914fe5cc5d87e3348a5f3eaa316898a0f05d520876e87",
            "reqSigs": 1,
            "type": "scripthash",
            "addresses": [
              "2NGSAkyhiWMZPcrfiwmcRWf9HQgpsiRGKv4"
            ]
          }
        },
        {
          "value": 71.99993736,
          "n": 1,
          "scriptPubKey": {
            "asm": "OP_DUP OP_HASH160 663ab054989fc494e16317cfa5e9a5b44c9dbd11 OP_EQUALVERIFY OP_CHECKSIG",
            "hex": "76a914663ab054989fc494e16317cfa5e9a5b44c9dbd1188ac",
            "reqSigs": 1,
            "type": "pubkeyhash",
            "addresses": [
              "mpqVXPYC7KXb1R9JbjxYiZkJ3KqupGr2eh"
            ]
          }
        }
      ],
      "hex": "02000000019ad1069b8db0c454820d85f9ff74eaf785df53e0ef9366181137cfe5337960d8000000006a47304402206afc90984762a901dc4a740f4f2ae3896036d6857dc1c28763004e9020a8859f02203f711edfcda12860acf46ab2e9a999be93ef20b7293f9f5f5243d8a7b6e8ed8c412103f5131817223cf430a1d11c236fa9ef9b81ba2fbdb9efa0e147d977e8c0f9dab8feffffff0200e1f5050000000017a914fe5cc5d87e3348a5f3eaa316898a0f05d520876e87882f27ad010000001976a914663ab054989fc494e16317cfa5e9a5b44c9dbd1188ac3e841700"
    }
  ]
}