{
  "transaction": {
    "txid": "63057765da816d4cd18f768100a31b4f1bb5e178dd8c3a26ea2d381069a45f8e",
    "hash": "63057765da816d4cd18f768100a31b4f1bb5e178dd8c3a26ea2d381069a45f8e",
    "version": 2,
    "size": 635,
    "locktime": 0,
    "vin": [
      {
        "txid": "3dc955989710263b44a97f83d3ea72ac29d755d8a531f302ef63a515de773d77",
        "vout": 1,
        "scriptSig": {
          "asm": "0 30450221008a8f0778394d55ec783b6bb82d40e0c184645f654e52209fb0993bdba85402e5022001dfdd74b98b2ea1b8d2a2a68b7651a6c99f2e03ba3c5271447f1e62de2decf2[ALL|FORKID] 3045022100aacbfe1ee2142a3def6d972c88c5139d53511e6b2314393e3c9923f3c98d6b23022033a4fce735a1c9b6b421da5dc85e69d83e15e7e9fb08a256f2e84364bc95e681[ALL|FORKID] 5221028fedaf75b5b08cddf3bf4631c658b68ee6766a8e999467a641d7cb7aaaecec972103316bc27d95b96418349afc6298c259bb999c6e8f39a7217787ad53602be7c1472102e21c29b4a7eeace9c7a8cefb568ca00c86ff9bf5e79e07e5442c29d4a0950d0453ae",
          "hex": "004830450221008a8f0778394d55ec783b6bb82d40e0c184645f654e52209fb0993bdba85402e5022001dfdd74b98b2ea1b8d2a2a68b7651a6c99f2e03ba3c5271447f1e62de2decf241483045022100aacbfe1ee2142a3def6d972c88c5139d53511e6b2314393e3c9923f3c98d6b23022033a4fce735a1c9b6b421da5dc85e69d83e15e7e9fb08a256f2e84364bc95e681414c695221028fedaf75b5b08cddf3bf4631c658b68ee6766a8e999467a641d7cb7aaaecec972103316bc27d95b96418349afc6298c259bb999c6e8f39a7217787ad53602be7c1472102e21c29b4a7eeace9c7a8cefb568ca00c86ff9bf5e79e07e5442c29d4a0950d0453ae"
        },
        "sequence": 4294967295
      },
      {
        "txid": "d6e1c9a8d069f48f3232eb17c9da3a249d087c14c69fcd341422bbacd5917e07",
        "vout": 0,
        "scriptSig": {
          "asm": "0 3045022100e6cd5c19d0ef3cfc752aa648b46fe2569d2830bdcb30f4a7729b413b8defeae002204e53b282cc266cbfddc961d3ddfacfe7b147a06fda8782fec90dcedfa2042e9e[ALL|FORKID] 304402202d78ec2bb894898c7e392e696abb26b7edb6f28047446f84538d41a2cf7af70b022034cdc0c5e654783c6b7484ccd939bca6820c947ca884ea2a16e9d945b1b4347f[ALL|FORKID] 5221028fedaf75b5b08cddf3bf4631c658b68ee6766a8e999467a641d7cb7aaaecec972103316bc27d95b96418349afc6298c259bb999c6e8f39a7217787ad53602be7c1472102e21c29b4a7eeace9c7a8cefb568ca00c86ff9bf5e79e07e5442c29d4a0950d0453ae",
          "hex": "00483045022100e6cd5c19d0ef3cfc752aa648b46fe2569d2830bdcb30f4a7729b413b8defeae002204e53b282cc266cbfddc961d3ddfacfe7b147a06fda8782fec90dcedfa2042e9e4147304402202d78ec2bb894898c7e392e696abb26b7edb6f28047446f84538d41a2cf7af70b022034cdc0c5e654783c6b7484ccd939bca6820c947ca884ea2a16e9d945b1b4347f414c695221028fedaf75b5b08cddf3bf4631c658b68ee6766a8e999467a641d7cb7aaaecec972103316bc27d95b96418349afc6298c259bb999c6e8f39a7217787ad53602be7c1472102e21c29b4a7eeace9c7a8cefb568ca00c86ff9bf5e79e07e5442c29d4a0950d0453ae"
        },
        "sequence": 4294967295
      }
    ],
    "vout": [
      {
        "value": 1.99999,
        "n": 0,
        "scriptPubKey": {
          "asm": "OP_HASH160 fe5cc5d87e3348a5f3eaa316898a0f05d520876e OP_EQUAL",
          "hex": "a914fe5cc5d87e3348a5f3eaa316898a0f05d520876e87",
          "reqSigs": 1,
          "type": "scripthash",
          "addresses": [
            "bchtest:prl9e3wc0ce53f0na233dzv2puza2gy8dcdwx8mu9w"
          ]
        }
      }
    ],
    "hex": "0200000002773d77de15a563ef02f331a5d855d729ac72ead3837fa9443b2610979855c93d01000000fdfe00004830450221008a8f0778394d55ec783b6bb82d40e0c184645f654e52209fb0993bdba85402e5022001dfdd74b98b2ea1b8d2a2a68b7651a6c99f2e03ba3c5271447f1e62de2decf241483045022100aacbfe1ee2142a3def6d972c88c5139d53511e6b2314393e3c9923f3c98d6b23022033a4fce735a1c9b6b421da5dc85e69d83e15e7e9fb08a256f2e84364bc95e681414c695221028fedaf75b5b08cddf3bf4631c658b68ee6766a8e999467a641d7cb7aaaecec972103316bc27d95b96418349afc6298c259bb999c6e8f39a7217787ad53602be7c1472102e21c29b4a7eeace9c7a8cefb568ca00c86ff9bf5e79e07e5442c29d4a0950d0453aeffffffff077e91d5acbb221434cd9fc6147c089d243adac917eb32328ff469d0a8c9e1d600000000fdfd0000483045022100e6cd5c19d0ef3cfc752aa648b46fe2569d2830bdcb30f4a7729b413b8defeae002204e53b282cc266cbfddc961d3ddfacfe7b147a06fda8782fec90dcedfa2042e9e4147304402202d78ec2bb894898c7e392e696abb26b7edb6f28047446f84538d41a2cf7af70b022034cdc0c5e654783c6b7484ccd939bca6820c947ca884ea2a16e9d945b1b4347f414c695221028fedaf75b5b08cddf3bf4631c658b68ee6766a8e999467a641d7cb7aaaecec972103316bc27d95b96418349afc6298c259bb999c6e8f39a7217787ad53602be7c1472102e21c29b4a7eeace9c7a8cefb568ca00c86ff9bf5e79e07e5442c29d4a0950d0453aeffffffff0118beeb0b0000000017a914fe5cc5d87e3348a5f3eaa316898a0f05d520876e8700000000"
  },
  "inputs": [
    {
      "txid": "3dc955989710263b44a97f83d3ea72ac29d755d8a531f302ef63a515de773d77",
      "hash": "3dc955989710263b44a97f83d3ea72ac29d755d8a531f302ef63a515de773d77",
      "version": 2,
      "size": 223,
      "locktime": 1537621,
      "vin": [
        {
          "txid": "113924bf33350f1778bbc19a72c8391bc57d2a0234c9acd5635fed74fe8b6d9d",
          "vout": 1,
          "scriptSig": {
            "asm": "3044022034bb70a7230b178b8916e1349c3ed2a8a25ffbcba137034989f7faa5be7ba35e02201403e8bf9b73a433d3c0c43bc3bc078104755e012ed4c18a870028b12c1e421a[ALL|FORKID] 02b818530a0019c52d90db8f0d921ee302844e1f2aab649c331937a07ea667840c",
            "hex": "473044022034bb70a7230b178b8916e1349c3ed2a8a25ffbcba137034989f7faa5be7ba35e02201403e8bf9b73a433d3c0c43bc3bc078104755e012ed4c18a870028b12c1e421a412102b818530a0019c52d90db8f0d921ee302844e1f2aab649c331937a07ea667840c"
          },
          "sequence": 4294967294
        }
      ],
      "vout": [
        {
          "value": 87.99997314,
          "n": 0,
          "scriptPubKey": {
            "asm": "OP_DUP OP_HASH160 e9214b37b3a8ce0d2f025905e9f1d35fc02034e3 OP_EQUALVERIFY OP_CHECKSIG",
            "hex": "76a914e9214b37b3a8ce0d2f025905e9f1d35fc02034e388ac",
            "reqSigs": 1,
            "type": "pubkeyhash",
            "addresses": [
              "bchtest:qr5jzjehkw5vurf0qfvst6036d0uqgp5uv5ye53yqw"
            ]
          }
        },
        {
          "value": 1,
          "n": 1,
          "scriptPubKey": {
            "asm": "OP_HASH160 fe5cc5d87e3348a5f3eaa316898a0f05d520876e OP_EQUAL",
            "hex": "a914fe5cc5d87e3348a5f3eaa316898a0f05d520876e87",
            "reqSigs": 1,
            "type": "scripthash",
            "addresses": [
              "bchtest:prl9e3wc0ce53f0na233dzv2puza2gy8dcdwx8mu9w"
            ]
          }
        }
      ],
      "hex": "02000000019d6d8bfe74ed5f63d5acc934022a7dc51b39c8729ac1bb78170f3533bf243911010000006a473044022034bb70a7230b178b8916e1349c3ed2a8a25ffbcba137034989f7faa5be7ba35e02201403e8bf9b73a433d3c0c43bc3bc078104755e012ed4c18a870028b12c1e421a412102b818530a0019c52d90db8f0d921ee302844e1f2aab649c331937a07ea667840cfeffffff02824d850c020000001976a914e9214b37b3a8ce0d2f025905e9f1d35fc02034e388ac00e1f5050000000017a914fe5cc5d87e3348a5f3eaa316898a0f05d520876e8755761700"
    },
    {
      "txid": "d6e1c9a8d069f48f3232eb17c9da3a249d087c14c69fcd341422bbacd5917e07",
      "hash": "d6e1c9a8d069f48f3232eb17c9da3a249d087c14c69fcd341422bbacd5917e07",
      "version": 2,
      "size": 223,
      "locktime": 1537621,
      "vin": [
        {
          "txid": "3dc955989710263b44a97f83d3ea72ac29d755d8a531f302ef63a515de773d77",
          "vout": 0,
          "scriptSig": {
            "asm": "304402204769358171a55034ebf807c63fd2dcab4b97f37442b94d30cd9bd9e3a97ea8100220303bd04c4afcafec5c73cac306b020028e986ca9214dedb34030cbfd97a62a2e[ALL|FORKID] 033429ac0317029ccde2316a77683f26fee023b2c96162b6a0d19e521a9f8adfc7",
            "hex": "47304402204769358171a55034ebf807c63fd2dcab4b97f37442b94d30cd9bd9e3a97ea8100220303bd04c4afcafec5c73cac306b020028e986ca9214dedb34030cbfd97a62a2e4121033429ac0317029ccde2316a77683f26fee023b2c96162b6a0d19e521a9f8adfc7"
          },
          "sequence": 4294967294
        }
      ],
      "vout": [
        {
          "value": 1,
          "n": 0,
          "scriptPubKey": {
            "asm": "OP_HASH160 fe5cc5d87e3348a5f3eaa316898a0f05d520876e OP_EQUAL",
            "hex": "a914fe5cc5d87e3348a5f3eaa316898a0f05d520876e87",
            "reqSigs": 1,
            "type": "scripthash",
            "addresses": [
              "bchtest:prl9e3wc0ce53f0na233dzv2puza2gy8dcdwx8mu9w"
            ]
          }
        },
        {
          "value": 86.99997091,
          "n": 1,
          "scriptPubKey": {
            "asm": "OP_DUP OP_HASH160 37516c061522c6531a7f10109958df42ba3d7584 OP_EQUALVERIFY OP_CHECKSIG",
            "hex": "76a91437516c061522c6531a7f10109958df42ba3d758488ac",
            "reqSigs": 1,
            "type": "pubkeyhash",
            "addresses": [
              "bchtest:qqm4zmqxz53vv5c60ugppx2cmapt50t4ss3vm75zsl"
            ]
          }
        }
      ],
      "hex": "0200000001773d77de15a563ef02f331a5d855d729ac72ead3837fa9443b2610979855c93d000000006a47304402204769358171a55034ebf807c63fd2dcab4b97f37442b94d30cd9bd9e3a97ea8100220303bd04c4afcafec5c73cac306b020028e986ca9214dedb34030cbfd97a62a2e4121033429ac0317029ccde2316a77683f26fee023b2c96162b6a0d19e521a9f8adfc7feffffff0200e1f5050000000017a914fe5cc5d87e3348a5f3eaa316898a0f05d520876e87a36b8f06020000001976a91437516c061522c6531a7f10109958df42ba3d758488ac55761700"
    }
  ]
}