{
  "inputs": [
    {
      "chainPath": "/0/0/0/2",
      "redeemScript": "522102f5ca5d074093abf996278d1e82b64497333254c786e9a69d34909a785aa9af32210239125d1a21ba8ae375cd37a92e48700cbb3bc1b1268d3c3f7e1d95f42155e1a821031ab00568ea1522a55f277699110649f3b8d08022494af2cc475c09e8a43b3a3a53ae",
      "value": 8125000
    }
  ],
  "transactionHex": "010000000174eda73749d65473a8197bac5c26660c66d60cc77a751298ef74931a478382e100000000fdfe00004730440220513ff3a0a4d72230a7ca9b1285d5fa19669d7cccef6a9c8408b06da666f4c51f022058e8cc58b9f9ca585c37a8353d87d0ab042ac081ebfcea86fda0da1b33bf474701483045022100e27c00394553513803e56e6623e06614cf053834a27ca925ed9727071d4411380220399ab1a0269e84beb4e8602fea3d617ffb0b649515892d470061a64217bad61301004c69522102f5ca5d074093abf996278d1e82b64497333254c786e9a69d34909a785aa9af32210239125d1a21ba8ae375cd37a92e48700cbb3bc1b1268d3c3f7e1d95f42155e1a821031ab00568ea1522a55f277699110649f3b8d08022494af2cc475c09e8a43b3a3a53aeffffffff012c717b000000000017a914c39dcc27823a8bd42cd3318a1dac8c25789b7ac78700000000",
  "tx": {
    "Version": "1",
    "LockTime": "0",
    "Vin": [
      {
        "TxId": "e18283471a9374ef9812757ac70cd6660c66265cac7b19a87354d64937a7ed74",
        "Vout": "0",
        "ScriptSig": {
          "Asm": "0 30440220513ff3a0a4d72230a7ca9b1285d5fa19669d7cccef6a9c8408b06da666f4c51f022058e8cc58b9f9ca585c37a8353d87d0ab042ac081ebfcea86fda0da1b33bf4747[ALL] 3045022100e27c00394553513803e56e6623e06614cf053834a27ca925ed9727071d4411380220399ab1a0269e84beb4e8602fea3d617ffb0b649515892d470061a64217bad613[ALL] 522102f5ca5d074093abf996278d1e82b64497333254c786e9a69d34909a785aa9af32210239125d1a21ba8ae375cd37a92e48700cbb3bc1b1268d3c3f7e1d95f42155e1a821031ab00568ea1522a55f277699110649f3b8d08022494af2cc475c09e8a43b3a3a53ae",
          "Hex": "004730440220513ff3a0a4d72230a7ca9b1285d5fa19669d7cccef6a9c8408b06da666f4c51f022058e8cc58b9f9ca585c37a8353d87d0ab042ac081ebfcea86fda0da1b33bf474701483045022100e27c00394553513803e56e6623e06614cf053834a27ca925ed9727071d4411380220399ab1a0269e84beb4e8602fea3d617ffb0b649515892d470061a64217bad613014c69522102f5ca5d074093abf996278d1e82b64497333254c786e9a69d34909a785aa9af32210239125d1a21ba8ae375cd37a92e48700cbb3bc1b1268d3c3f7e1d95f42155e1a821031ab00568ea1522a55f277699110649f3b8d08022494af2cc475c09e8a43b3a3a53ae"
        },
        "CoinBase": null,
        "TxInWitness": null,
        "Sequence": "4294967295"
      }
    ],
    "Vout": [
      {
        "Value": 0.080899,
        "N": 0,
        "ScriptPubKey": {
          "Asm": "OP_HASH160 c39dcc27823a8bd42cd3318a1dac8c25789b7ac7 OP_EQUAL",
          "Hex": "a914c39dcc27823a8bd42cd3318a1dac8c25789b7ac787",
          "ReqSigs": 1,
          "Type": "scripthash",
          "Addresses": [
            "2NB5Ynem6iNvA6GBLZwRxwid3Kui33729Nw"
          ]
        }
      }
    ],
    "TxId": "7cf7dc9e9abcb0bc4303332b128af4200b6b3730461a3bb579143b002739f51f"
  }
}