{
    "txid": "82abb40c3b5a073f8dbcd025250abba1c4918b07f10812e35b7fb8fb14f5d2af",
    "version": 3,
    "type": 1,
    "size": 628,
    "locktime": 0,
    "vin": [
        {
            "txid": "4709807cf00af832dc6f247ff5488b9f5f09cf131911590200c66dc39dd2f413",
            "vout": 0,
            "scriptSig": {
                "asm": "304402201fe162778eb6a50ac3677b7670f4f543da98556d1fe20d4c5dff10e67762664402202bdf2b85046663f89021fcbe59331b35f90e917d7a01af3ad31d89a7a80df5c2[ALL]",
                "hex": "47304402201fe162778eb6a50ac3677b7670f4f543da98556d1fe20d4c5dff10e67762664402202bdf2b85046663f89021fcbe59331b35f90e917d7a01af3ad31d89a7a80df5c201"
            },
            "sequence": 4294967295
        },
        {
            "txid": "e33408aa09c4e797f99c042e088df394db4f7aac6fac51f223634a697251a815",
            "vout": 0,
            "scriptSig": {
                "asm": "3044022021ee5d80d7426e37dfc92fe7201be3eb29ba58b81bdbffb4391cd5b9f49c9e1102206eda9a0a1e0d46c2660750d71bad5a48b0aa7f7b5aa0d14ab18d9eb68deab305[ALL]",
                "hex": "473044022021ee5d80d7426e37dfc92fe7201be3eb29ba58b81bdbffb4391cd5b9f49c9e1102206eda9a0a1e0d46c2660750d71bad5a48b0aa7f7b5aa0d14ab18d9eb68deab30501"
            },
            "sequence": 4294967295
        },
        {
            "txid": "5926ecbd670d2dc388872671131dc0c7a32af8d69e1eb63ac565abf16f6cf915",
            "vout": 0,
            "scriptSig": {
                "asm": "3045022100d8c2476550df227c3456062c63cd01a8583c8a9ebe456116138d49b0c901bce0022025a03b3fb000d6ecd69d12671b6ee0d60568735641e80efc9e787c82a0fbf981[ALL]",
                "hex": "483045022100d8c2476550df227c3456062c63cd01a8583c8a9ebe456116138d49b0c901bce0022025a03b3fb000d6ecd69d12671b6ee0d60568735641e80efc9e787c82a0fbf98101"
            },
            "sequence": 4294967295
        }
    ],
    "vout": [
        {
            "value": 1000.00000000,
            "valueSat": 100000000000,
            "n": 0,
            "scriptPubKey": {
                "asm": "OP_DUP OP_HASH160 e856481b03de910cc0cda00e834cbc875722ac79 OP_EQUALVERIFY OP_CHECKSIG",
                "hex": "76a914e856481b03de910cc0cda00e834cbc875722ac7988ac",
                "reqSigs": 1,
                "type": "pubkeyhash",
                "addresses": [
                    "yhVvyfPb2Kcr1pcGFLBCakS8vHMsrY5wBD"
                ]
            }
        },
        {
            "value": 326.53061227,
            "valueSat": 32653061227,
            "n": 1,
            "scriptPubKey": {
                "asm": "OP_DUP OP_HASH160 e856481b03de910cc0cda00e834cbc875722ac79 OP_EQUALVERIFY OP_CHECKSIG",
                "hex": "76a914e856481b03de910cc0cda00e834cbc875722ac7988ac",
                "reqSigs": 1,
                "type": "pubkeyhash",
                "addresses": [
                    "yhVvyfPb2Kcr1pcGFLBCakS8vHMsrY5wBD"
                ]
            }
        }
    ],
    "extraPayloadSize": 209,
    "extraPayload": "01000000000000000000000000000000000000000000000000000000000000000000000000000000000000000000000000000000ffff01010101000c8f648e729693634b53a863e0a1507ed65a6b013606eeeb22cb017eafb35224b2e5de38514f711ccbbcdbb1dd8fef7be1d070d1d0d2a544d15bdfbe4935964e1d5dcaee7b8f648e729693634b53a863e0a1507ed65a6b013600001976a914e856481b03de910cc0cda00e834cbc875722ac7988ac88a79552641f61f563233ff4a33c568b39ae551023051f8365fde69427ac57a000",
    "proRegTx": {
        "version": 1,
        "collateralHash": "0000000000000000000000000000000000000000000000000000000000000000",
        "collateralIndex": 0,
        "service": "1.1.1.1:12",
        "ownerAddress": "yZPdwRDy8fT4noe3ARsTNNmMyWkHndJz42",
        "votingAddress": "yZPdwRDy8fT4noe3ARsTNNmMyWkHndJz42",
        "payoutAddress": "yhVvyfPb2Kcr1pcGFLBCakS8vHMsrY5wBD",
        "pubKeyOperator": "06eeeb22cb017eafb35224b2e5de38514f711ccbbcdbb1dd8fef7be1d070d1d0d2a544d15bdfbe4935964e1d5dcaee7b",
        "operatorReward": 0,
        "inputsHash": "a057ac2794e6fd65831f05231055ae398b563ca3f43f2363f5611f645295a788"
    },
    "hex": "030001000313f4d29dc36dc6000259111913cf095f9f8b48f57f246fdc32f80af07c800947000000004847304402201fe162778eb6a50ac3677b7670f4f543da98556d1fe20d4c5dff10e67762664402202bdf2b85046663f89021fcbe59331b35f90e917d7a01af3ad31d89a7a80df5c201ffffffff15a85172694a6323f251ac6fac7a4fdb94f38d082e049cf997e7c409aa0834e30000000048473044022021ee5d80d7426e37dfc92fe7201be3eb29ba58b81bdbffb4391cd5b9f49c9e1102206eda9a0a1e0d46c2660750d71bad5a48b0aa7f7b5aa0d14ab18d9eb68deab30501ffffffff15f96c6ff1ab65c53ab61e9ed6f82aa3c7c01d1371268788c32d0d67bdec26590000000049483045022100d8c2476550df227c3456062c63cd01a8583c8a9ebe456116138d49b0c901bce0022025a03b3fb000d6ecd69d12671b6ee0d60568735641e80efc9e787c82a0fbf98101ffffffff0200e87648170000001976a914e856481b03de910cc0cda00e834cbc875722ac7988ac6b2c469a070000001976a914e856481b03de910cc0cda00e834cbc875722ac7988ac00000000d101000000000000000000000000000000000000000000000000000000000000000000000000000000000000000000000000000000ffff01010101000c8f648e729693634b53a863e0a1507ed65a6b013606eeeb22cb017eafb35224b2e5de38514f711ccbbcdbb1dd8fef7be1d070d1d0d2a544d15bdfbe4935964e1d5dcaee7b8f648e729693634b53a863e0a1507ed65a6b013600001976a914e856481b03de910cc0cda00e834cbc875722ac7988ac88a79552641f61f563233ff4a33c568b39ae551023051f8365fde69427ac57a000"
}
