{
    "txid": "455b22d0cf64dda79c3e624fb8afda324141d2a9a8e310a4b80f8741bbc5506b",
    "version": 3,
    "type": 1,
    "size": 628,
    "locktime": 0,
    "vin": [
        {
            "txid": "b874f6643597efeb8c26e640ab5b933be4e5260b4beae8afd1a51ac70af77b01",
            "vout": 0,
            "scriptSig": {
                "asm": "30450221009257b884320843f973f6bb51dfe40fad94147cdcb7bc18a7b1c06bae03b5bed4022029cf91925fb364f431ef409b9231d0340fa371bfddf0d162e6e85e1d5d3c1746[ALL]",
                "hex": "4830450221009257b884320843f973f6bb51dfe40fad94147cdcb7bc18a7b1c06bae03b5bed4022029cf91925fb364f431ef409b9231d0340fa371bfddf0d162e6e85e1d5d3c174601"
            },
            "sequence": 4294967295
        },
        {
            "txid": "32ff050f7734598414a8508ef31bd498d96678ff55144db0ab8a652bcc0be602",
            "vout": 0,
            "scriptSig": {
                "asm": "3044022024091b32e8c6d721fcbe35675585bf241769240d1fd5896b0ee1fe4011e6781e0220186fd542061077ec84e57cac1e0437982d3b8669ba94b7cee46feb129bd27dab[ALL]",
                "hex": "473044022024091b32e8c6d721fcbe35675585bf241769240d1fd5896b0ee1fe4011e6781e0220186fd542061077ec84e57cac1e0437982d3b8669ba94b7cee46feb129bd27dab01"
            },
            "sequence": 4294967295
        },
        {
            "txid": "9ed432230cfcc6fa09a277440e73ea95f0b4c11cd67d3426114ba14bf4c6f302",
            "vout": 0,
            "scriptSig": {
                "asm": "304402203fca865d14926a2ff9432fffa53f4560c071c54d22aa8320650555fd77522d3d022034bf1de836ca7e4f75b1dcc38acb08b8fb77da2c98640e6bb5b272e84b634b00[ALL]",
                "hex": "47304402203fca865d14926a2ff9432fffa53f4560c071c54d22aa8320650555fd77522d3d022034bf1de836ca7e4f75b1dcc38acb08b8fb77da2c98640e6bb5b272e84b634b0001"
            },
            "sequence": 4294967295
        }
    ],
    "vout": [
        {
            "value": 1000.00000000,
            "valueSat": 100000000000,
            "n": 0,
            "scriptPubKey": {
                "asm": "OP_DUP OP_HASH160 2abf922b8ded14666f02a7210a4b01f15de98949 OP_EQUALVERIFY OP_CHECKSIG",
                "hex": "76a9142abf922b8ded14666f02a7210a4b01f15de9894988ac",
                "reqSigs": 1,
                "type": "pubkeyhash",
                "addresses": [
                    "yQDUiqx4sV4z7scknPEYKxPwMtT5hcSHj2"
                ]
            }
        },
        {
            "value": 464.28571429,
            "valueSat": 46428571429,
            "n": 1,
            "scriptPubKey": {
                "asm": "OP_DUP OP_HASH160 2abf922b8ded14666f02a7210a4b01f15de98949 OP_EQUALVERIFY OP_CHECKSIG",
                "hex": "76a9142abf922b8ded14666f02a7210a4b01f15de9894988ac",
                "reqSigs": 1,
                "type": "pubkeyhash",
                "addresses": [
                    "yQDUiqx4sV4z7scknPEYKxPwMtT5hcSHj2"
                ]
            }
        }
    ],
    "extraPayloadSize": 209,
    "extraPayload": "01000000000000000000000000000000000000000000000000000000000000000000000000000000000000000000000000000000ffff010101010001f26c857c4b6385873437df7b26fee3485bba146d93c7cd1d4eb931e294ee284e90f0e945f732e2033a1d4658c40b73f4322f57553431903df4fe17f0beb4d5cd8cad1681f26c857c4b6385873437df7b26fee3485bba146d00001976a9142abf922b8ded14666f02a7210a4b01f15de9894988ac6e3ef40459cd0887da79948af4917ec2f915a17552306fdfd34ad760f1c3087900",
    "proRegTx": {
        "version": 1,
        "collateralHash": "0000000000000000000000000000000000000000000000000000000000000000",
        "collateralIndex": 0,
        "service": "1.1.1.1:1",
        "ownerAddress": "yiRGNpvKi2aC6hidJrhsxLSDv3jMBQrLX5",
        "votingAddress": "yiRGNpvKi2aC6hidJrhsxLSDv3jMBQrLX5",
        "payoutAddress": "yQDUiqx4sV4z7scknPEYKxPwMtT5hcSHj2",
        "pubKeyOperator": "93c7cd1d4eb931e294ee284e90f0e945f732e2033a1d4658c40b73f4322f57553431903df4fe17f0beb4d5cd8cad1681",
        "operatorReward": 0,
        "inputsHash": "7908c3f160d74ad3df6f305275a115f9c27e91f48a9479da8708cd5904f43e6e"
    },
    "hex": "0300010003017bf70ac71aa5d1afe8ea4b0b26e5e43b935bab40e6268cebef973564f674b800000000494830450221009257b884320843f973f6bb51dfe40fad94147cdcb7bc18a7b1c06bae03b5bed4022029cf91925fb364f431ef409b9231d0340fa371bfddf0d162e6e85e1d5d3c174601ffffffff02e60bcc2b658aabb04d1455ff7866d998d41bf38e50a814845934770f05ff320000000048473044022024091b32e8c6d721fcbe35675585bf241769240d1fd5896b0ee1fe4011e6781e0220186fd542061077ec84e57cac1e0437982d3b8669ba94b7cee46feb129bd27dab01ffffffff02f3c6f44ba14b1126347dd61cc1b4f095ea730e4477a209fac6fc0c2332d49e000000004847304402203fca865d14926a2ff9432fffa53f4560c071c54d22aa8320650555fd77522d3d022034bf1de836ca7e4f75b1dcc38acb08b8fb77da2c98640e6bb5b272e84b634b0001ffffffff0200e87648170000001976a9142abf922b8ded14666f02a7210a4b01f15de9894988ac25c75bcf0a0000001976a9142abf922b8ded14666f02a7210a4b01f15de9894988ac00000000d101000000000000000000000000000000000000000000000000000000000000000000000000000000000000000000000000000000ffff010101010001f26c857c4b6385873437df7b26fee3485bba146d93c7cd1d4eb931e294ee284e90f0e945f732e2033a1d4658c40b73f4322f57553431903df4fe17f0beb4d5cd8cad1681f26c857c4b6385873437df7b26fee3485bba146d00001976a9142abf922b8ded14666f02a7210a4b01f15de9894988ac6e3ef40459cd0887da79948af4917ec2f915a17552306fdfd34ad760f1c3087900"
}
