{
    "txid": "c87c7475611df0e9d5f08ae0f165ded61a51bbdf0a6621b10d7110954cda600e",
    "version": 3,
    "type": 1,
    "size": 628,
    "locktime": 0,
    "vin": [
        {
            "txid": "755032939eea841ed47e22e5c7ec914a1d6a9b785705235b6689369f8cc4811b",
            "vout": 0,
            "scriptSig": {
                "asm": "3044022057c6d690158b120781161f2ee3d13e3b28d3a7a773d1530f9e617b21cf614d770220358ef9c2a6a9b36100d8009ff38076db17c8f5ae833c383a753414e5c1939875[ALL]",
                "hex": "473044022057c6d690158b120781161f2ee3d13e3b28d3a7a773d1530f9e617b21cf614d770220358ef9c2a6a9b36100d8009ff38076db17c8f5ae833c383a753414e5c193987501"
            },
            "sequence": 4294967295
        },
        {
            "txid": "adc0cc310d69ddf8a43da8d95a5c8de646de0fef2e9cdb180ab01233de75c71b",
            "vout": 0,
            "scriptSig": {
                "asm": "3045022100c90d9e516e795dd75ff6c13dcda2be7f132d6e9b90c2602c79609a0c71e9fba00220625ebc5cb074bbbfc1ff24a79373476368282d9f664f87326e4052efe5da435f[ALL]",
                "hex": "483045022100c90d9e516e795dd75ff6c13dcda2be7f132d6e9b90c2602c79609a0c71e9fba00220625ebc5cb074bbbfc1ff24a79373476368282d9f664f87326e4052efe5da435f01"
            },
            "sequence": 4294967295
        },
        {
            "txid": "1009d0ee8a12429e1462dbbba652469acaa3a200392d299d118c8e8481bc6c1c",
            "vout": 0,
            "scriptSig": {
                "asm": "3044022011b1069bc59be86dc71a65fb74228ddcf5aa8481c8920a7bdfb1ef3e2ff78d8d02206ef3ae21ab6bb82af7145d9127504de3007fa998f717ac2cfa02b1c4800ee330[ALL]",
                "hex": "473044022011b1069bc59be86dc71a65fb74228ddcf5aa8481c8920a7bdfb1ef3e2ff78d8d02206ef3ae21ab6bb82af7145d9127504de3007fa998f717ac2cfa02b1c4800ee33001"
            },
            "sequence": 4294967295
        }
    ],
    "vout": [
        {
            "value": 1000.00000000,
            "valueSat": 100000000000,
            "n": 0,
            "scriptPubKey": {
                "asm": "OP_DUP OP_HASH160 1fd3273c9126d20cbbf1cc41dc4a849aa68c32ed OP_EQUALVERIFY OP_CHECKSIG",
                "hex": "76a9141fd3273c9126d20cbbf1cc41dc4a849aa68c32ed88ac",
                "reqSigs": 1,
                "type": "pubkeyhash",
                "addresses": [
                    "yPDikLSkfdp9pAxVKKH5crqWmPxyjzbh5a"
                ]
            }
        },
        {
            "value": 395.40816328,
            "valueSat": 39540816328,
            "n": 1,
            "scriptPubKey": {
                "asm": "OP_DUP OP_HASH160 1fd3273c9126d20cbbf1cc41dc4a849aa68c32ed OP_EQUALVERIFY OP_CHECKSIG",
                "hex": "76a9141fd3273c9126d20cbbf1cc41dc4a849aa68c32ed88ac",
                "reqSigs": 1,
                "type": "pubkeyhash",
                "addresses": [
                    "yPDikLSkfdp9pAxVKKH5crqWmPxyjzbh5a"
                ]
            }
        }
    ],
    "extraPayloadSize": 209,
    "extraPayload": "01000000000000000000000000000000000000000000000000000000000000000000000000000000000000000000000000000000ffff01010101000fdfebad69e95e5aef18a6043e0cabd88e81626e7912c11452e482ef7509dc117b694ae38cc46372b6393bd96745deba334c2e8095a8320b3d4f4cd314adaa231a8ff1431bdfebad69e95e5aef18a6043e0cabd88e81626e7900001976a9141fd3273c9126d20cbbf1cc41dc4a849aa68c32ed88acaf64e6fc87e6a6ca1ed5c2be536ec67f6489ca0c3b1c575ae98b9392af0ffc0100",
    "proRegTx": {
        "version": 1,
        "collateralHash": "0000000000000000000000000000000000000000000000000000000000000000",
        "collateralIndex": 0,
        "service": "1.1.1.1:15",
        "ownerAddress": "ygjRs8idiZfNZseFtvWRwrKvfhFKko7eLX",
        "votingAddress": "ygjRs8idiZfNZseFtvWRwrKvfhFKko7eLX",
        "payoutAddress": "yPDikLSkfdp9pAxVKKH5crqWmPxyjzbh5a",
        "pubKeyOperator": "12c11452e482ef7509dc117b694ae38cc46372b6393bd96745deba334c2e8095a8320b3d4f4cd314adaa231a8ff1431b",
        "operatorReward": 0,
        "inputsHash": "01fc0faf92938be95a571c3b0cca89647fc66e53bec2d51ecaa6e687fce664af"
    },
    "hex": "03000100031b81c48c9f3689665b230557789b6a1d4a91ecc7e5227ed41e84ea9e933250750000000048473044022057c6d690158b120781161f2ee3d13e3b28d3a7a773d1530f9e617b21cf614d770220358ef9c2a6a9b36100d8009ff38076db17c8f5ae833c383a753414e5c193987501ffffffff1bc775de3312b00a18db9c2eef0fde46e68d5c5ad9a83da4f8dd690d31ccc0ad0000000049483045022100c90d9e516e795dd75ff6c13dcda2be7f132d6e9b90c2602c79609a0c71e9fba00220625ebc5cb074bbbfc1ff24a79373476368282d9f664f87326e4052efe5da435f01ffffffff1c6cbc81848e8c119d292d3900a2a3ca9a4652a6bbdb62149e42128aeed009100000000048473044022011b1069bc59be86dc71a65fb74228ddcf5aa8481c8920a7bdfb1ef3e2ff78d8d02206ef3ae21ab6bb82af7145d9127504de3007fa998f717ac2cfa02b1c4800ee33001ffffffff0200e87648170000001976a9141fd3273c9126d20cbbf1cc41dc4a849aa68c32ed88acc8f9d034090000001976a9141fd3273c9126d20cbbf1cc41dc4a849aa68c32ed88ac00000000d101000000000000000000000000000000000000000000000000000000000000000000000000000000000000000000000000000000ffff01010101000fdfebad69e95e5aef18a6043e0cabd88e81626e7912c11452e482ef7509dc117b694ae38cc46372b6393bd96745deba334c2e8095a8320b3d4f4cd314adaa231a8ff1431bdfebad69e95e5aef18a6043e0cabd88e81626e7900001976a9141fd3273c9126d20cbbf1cc41dc4a849aa68c32ed88acaf64e6fc87e6a6ca1ed5c2be536ec67f6489ca0c3b1c575ae98b9392af0ffc0100"
}
