{
    "txid": "dea1ae26a6e63251453e3db8cd45789dbb56600517c04faf87570463cd1e903d",
    "version": 3,
    "type": 1,
    "size": 628,
    "locktime": 0,
    "vin": [
        {
            "txid": "72a6079c26ed34af54ac4c6c202dfa51b65a34a9de80d8259ae689224b6a4310",
            "vout": 0,
            "scriptSig": {
                "asm": "3045022100aa8f8c2f34bb3564334dfefb5d227ea0e65e96b0a2dcb375e9ae33c07131497b02200f0bfaff28131722f524dacf0ec36efe9a74e7faee9c728d6aaf1c4d6c460d39[ALL]",
                "hex": "483045022100aa8f8c2f34bb3564334dfefb5d227ea0e65e96b0a2dcb375e9ae33c07131497b02200f0bfaff28131722f524dacf0ec36efe9a74e7faee9c728d6aaf1c4d6c460d3901"
            },
            "sequence": 4294967295
        },
        {
            "txid": "86970af78c04f052490a2c9ee6f9aa59ce7435c5b128b0460966900fd2994710",
            "vout": 0,
            "scriptSig": {
                "asm": "3044022054650615f6a38c6e2308893db0dc24df94f213df331dcc61060211f7910b82d0022058c5ab05411f465106a40fc03b62ab74093de44df297827128c2436056ca94a0[ALL]",
                "hex": "473044022054650615f6a38c6e2308893db0dc24df94f213df331dcc61060211f7910b82d0022058c5ab05411f465106a40fc03b62ab74093de44df297827128c2436056ca94a001"
            },
            "sequence": 4294967295
        },
        {
            "txid": "5d74f7bc8def1b0299a2ca5ccaa18a1cdceabb085a2ad2c901e546d7a7788210",
            "vout": 0,
            "scriptSig": {
                "asm": "3044022040c6aed620a928b386bb591a3a324e0d2e8feb0af27a73025868a080d436ec4a02206582632f320ac0b0fbf11bd65784f4591063d3b4b4fae0afcb239b10847061ce[ALL]",
                "hex": "473044022040c6aed620a928b386bb591a3a324e0d2e8feb0af27a73025868a080d436ec4a02206582632f320ac0b0fbf11bd65784f4591063d3b4b4fae0afcb239b10847061ce01"
            },
            "sequence": 4294967295
        }
    ],
    "vout": [
        {
            "value": 1000.00000000,
            "valueSat": 100000000000,
            "n": 0,
            "scriptPubKey": {
                "asm": "OP_DUP OP_HASH160 5770f445ef055c0a611154e1cf7f72df3f1ffb67 OP_EQUALVERIFY OP_CHECKSIG",
                "hex": "76a9145770f445ef055c0a611154e1cf7f72df3f1ffb6788ac",
                "reqSigs": 1,
                "type": "pubkeyhash",
                "addresses": [
                    "yUHnx61TJHqCmfHiGaDegJEUycWoj3T5xh"
                ]
            }
        },
        {
            "value": 395.40816328,
            "valueSat": 39540816328,
            "n": 1,
            "scriptPubKey": {
                "asm": "OP_DUP OP_HASH160 5770f445ef055c0a611154e1cf7f72df3f1ffb67 OP_EQUALVERIFY OP_CHECKSIG",
                "hex": "76a9145770f445ef055c0a611154e1cf7f72df3f1ffb6788ac",
                "reqSigs": 1,
                "type": "pubkeyhash",
                "addresses": [
                    "yUHnx61TJHqCmfHiGaDegJEUycWoj3T5xh"
                ]
            }
        }
    ],
    "extraPayloadSize": 209,
    "extraPayload": "01000000000000000000000000000000000000000000000000000000000000000000000000000000000000000000000000000000ffff01010101000841ff4a2ec8f14289bb08c45f630ea43e99586f7f152dbbbe2d694c553db3328782ca01243b2d52654b6041840b358cb6d02f1b35670c0267147ec4f613662fbe07892e1f41ff4a2ec8f14289bb08c45f630ea43e99586f7f00001976a9145770f445ef055c0a611154e1cf7f72df3f1ffb6788ac2455c3cda36b2db02b8d1b24a0eb50d3641824a7d1131436bd4adf5da8acf7e600",
    "proRegTx": {
        "version": 1,
        "collateralHash": "0000000000000000000000000000000000000000000000000000000000000000",
        "collateralIndex": 0,
        "service": "1.1.1.1:8",
        "ownerAddress": "ySLQbWvJcLHycPk5FBqFPew6pKFCBJKiHn",
        "votingAddress": "ySLQbWvJcLHycPk5FBqFPew6pKFCBJKiHn",
        "payoutAddress": "yUHnx61TJHqCmfHiGaDegJEUycWoj3T5xh",
        "pubKeyOperator": "152dbbbe2d694c553db3328782ca01243b2d52654b6041840b358cb6d02f1b35670c0267147ec4f613662fbe07892e1f",
        "operatorReward": 0,
        "inputsHash": "e6f7aca85ddf4abd361413d1a7241864d350eba0241b8d2bb02d6ba3cdc35524"
    },
    "hex": "030001000310436a4b2289e69a25d880dea9345ab651fa2d206c4cac54af34ed269c07a6720000000049483045022100aa8f8c2f34bb3564334dfefb5d227ea0e65e96b0a2dcb375e9ae33c07131497b02200f0bfaff28131722f524dacf0ec36efe9a74e7faee9c728d6aaf1c4d6c460d3901ffffffff104799d20f90660946b028b1c53574ce59aaf9e69e2c0a4952f0048cf70a97860000000048473044022054650615f6a38c6e2308893db0dc24df94f213df331dcc61060211f7910b82d0022058c5ab05411f465106a40fc03b62ab74093de44df297827128c2436056ca94a001ffffffff108278a7d746e501c9d22a5a08bbeadc1c8aa1ca5ccaa299021bef8dbcf7745d0000000048473044022040c6aed620a928b386bb591a3a324e0d2e8feb0af27a73025868a080d436ec4a02206582632f320ac0b0fbf11bd65784f4591063d3b4b4fae0afcb239b10847061ce01ffffffff0200e87648170000001976a9145770f445ef055c0a611154e1cf7f72df3f1ffb6788acc8f9d034090000001976a9145770f445ef055c0a611154e1cf7f72df3f1ffb6788ac00000000d101000000000000000000000000000000000000000000000000000000000000000000000000000000000000000000000000000000ffff01010101000841ff4a2ec8f14289bb08c45f630ea43e99586f7f152dbbbe2d694c553db3328782ca01243b2d52654b6041840b358cb6d02f1b35670c0267147ec4f613662fbe07892e1f41ff4a2ec8f14289bb08c45f630ea43e99586f7f00001976a9145770f445ef055c0a611154e1cf7f72df3f1ffb6788ac2455c3cda36b2db02b8d1b24a0eb50d3641824a7d1131436bd4adf5da8acf7e600"
}
