{
    "txid": "d8d022ff08fce54689ba6a6236dc5e645d8ca9f6f9d8cc65ce4232cbfb061252",
    "version": 3,
    "type": 1,
    "size": 628,
    "locktime": 0,
    "vin": [
        {
            "txid": "700ab92582d6cd41e2e0fc00cfed79b318c4e31d3f11607393c9abfb7eebef01",
            "vout": 0,
            "scriptSig": {
                "asm": "3045022100cef4f2018bdb99cb7699f55d61c04871078f0ce7ed75a691c27f8f74d54cbeaa022060b0ceda2047bc130942e1532a9a7d3a612e9bd9894874285a13ba6e85df7c2f[ALL]",
                "hex": "483045022100cef4f2018bdb99cb7699f55d61c04871078f0ce7ed75a691c27f8f74d54cbeaa022060b0ceda2047bc130942e1532a9a7d3a612e9bd9894874285a13ba6e85df7c2f01"
            },
            "sequence": 4294967295
        },
        {
            "txid": "bfc24b9dd8e8aa8615513231ba67630f2bbaf29065debe2f1d0b4633aa453503",
            "vout": 0,
            "scriptSig": {
                "asm": "304402205f85f693ef5c4c804eab0e1b8edf7a2c7ce5b0b05279fcd662dd8ee6be22b22702202a17b86a24b390a35809d7e5bfaf834dbdf0fe8467832ce327e67755b8998922[ALL]",
                "hex": "47304402205f85f693ef5c4c804eab0e1b8edf7a2c7ce5b0b05279fcd662dd8ee6be22b22702202a17b86a24b390a35809d7e5bfaf834dbdf0fe8467832ce327e67755b899892201"
            },
            "sequence": 4294967295
        },
        {
            "txid": "10bb9e2316a6b5796ed83c23f55671c89870e956ca77ebdaa838c8f8790fb80f",
            "vout": 0,
            "scriptSig": {
                "asm": "304402207ae4e4f83a1c6fddf65c51aea03688decb2a8ec690358db1eac83c82743068e302203e59d1b4dfb84da0be7798735f7acf31cd44c2bfa95b8149e2e7493d0da07afb[ALL]",
                "hex": "47304402207ae4e4f83a1c6fddf65c51aea03688decb2a8ec690358db1eac83c82743068e302203e59d1b4dfb84da0be7798735f7acf31cd44c2bfa95b8149e2e7493d0da07afb01"
            },
            "sequence": 4294967295
        }
    ],
    "vout": [
        {
            "value": 1000.00000000,
            "valueSat": 100000000000,
            "n": 0,
            "scriptPubKey": {
                "asm": "OP_DUP OP_HASH160 e4bead14de7d81c6095ceb4f8019a089cfc8d942 OP_EQUALVERIFY OP_CHECKSIG",
                "hex": "76a914e4bead14de7d81c6095ceb4f8019a089cfc8d94288ac",
                "reqSigs": 1,
                "type": "pubkeyhash",
                "addresses": [
                    "yhAwLM984L26VYKJr6SFQ1AURvQkY4NhdY"
                ]
            }
        },
        {
            "value": 362.24489798,
            "valueSat": 36224489798,
            "n": 1,
            "scriptPubKey": {
                "asm": "OP_DUP OP_HASH160 e4bead14de7d81c6095ceb4f8019a089cfc8d942 OP_EQUALVERIFY OP_CHECKSIG",
                "hex": "76a914e4bead14de7d81c6095ceb4f8019a089cfc8d94288ac",
                "reqSigs": 1,
                "type": "pubkeyhash",
                "addresses": [
                    "yhAwLM984L26VYKJr6SFQ1AURvQkY4NhdY"
                ]
            }
        }
    ],
    "extraPayloadSize": 209,
    "extraPayload": "01000000000000000000000000000000000000000000000000000000000000000000000000000000000000000000000000000000ffff010101010007e673a3c86ccd64ecbb1acd418f9684b094ef2b3f84edf255c633e9fbd24d7208462cd38428edb7d0912a384702c344f88b4e880a71bb1f67285f3cac036e4a946f2810d3e673a3c86ccd64ecbb1acd418f9684b094ef2b3f00001976a914e4bead14de7d81c6095ceb4f8019a089cfc8d94288acc47afc77ab8c53397938e70484e186ec0d6ea6cb3ba66ac806be1ec52dc1778700",
    "proRegTx": {
        "version": 1,
        "collateralHash": "0000000000000000000000000000000000000000000000000000000000000000",
        "collateralIndex": 0,
        "service": "1.1.1.1:7",
        "ownerAddress": "yhKxo7iZBkFQND8iHQSvGv4MQRLHybPASe",
        "votingAddress": "yhKxo7iZBkFQND8iHQSvGv4MQRLHybPASe",
        "payoutAddress": "yhAwLM984L26VYKJr6SFQ1AURvQkY4NhdY",
        "pubKeyOperator": "84edf255c633e9fbd24d7208462cd38428edb7d0912a384702c344f88b4e880a71bb1f67285f3cac036e4a946f2810d3",
        "operatorReward": 0,
        "inputsHash": "8777c12dc51ebe06c86aa63bcba66e0dec86e18404e7387939538cab77fc7ac4"
    },
    "hex": "030001000301efeb7efbabc9937360113f1de3c418b379edcf00fce0e241cdd68225b90a700000000049483045022100cef4f2018bdb99cb7699f55d61c04871078f0ce7ed75a691c27f8f74d54cbeaa022060b0ceda2047bc130942e1532a9a7d3a612e9bd9894874285a13ba6e85df7c2f01ffffffff033545aa33460b1d2fbede6590f2ba2b0f6367ba3132511586aae8d89d4bc2bf000000004847304402205f85f693ef5c4c804eab0e1b8edf7a2c7ce5b0b05279fcd662dd8ee6be22b22702202a17b86a24b390a35809d7e5bfaf834dbdf0fe8467832ce327e67755b899892201ffffffff0fb80f79f8c838a8daeb77ca56e97098c87156f5233cd86e79b5a616239ebb10000000004847304402207ae4e4f83a1c6fddf65c51aea03688decb2a8ec690358db1eac83c82743068e302203e59d1b4dfb84da0be7798735f7acf31cd44c2bfa95b8149e2e7493d0da07afb01ffffffff0200e87648170000001976a914e4bead14de7d81c6095ceb4f8019a089cfc8d94288ac46d9256f080000001976a914e4bead14de7d81c6095ceb4f8019a089cfc8d94288ac00000000d101000000000000000000000000000000000000000000000000000000000000000000000000000000000000000000000000000000ffff010101010007e673a3c86ccd64ecbb1acd418f9684b094ef2b3f84edf255c633e9fbd24d7208462cd38428edb7d0912a384702c344f88b4e880a71bb1f67285f3cac036e4a946f2810d3e673a3c86ccd64ecbb1acd418f9684b094ef2b3f00001976a914e4bead14de7d81c6095ceb4f8019a089cfc8d94288acc47afc77ab8c53397938e70484e186ec0d6ea6cb3ba66ac806be1ec52dc1778700"
}
