{
    "txid": "8322d5a3ae68dbdddcfc72f224842642f5eab0af03029bc7fc342dedffae81aa",
    "version": 3,
    "type": 1,
    "size": 627,
    "locktime": 0,
    "vin": [
        {
            "txid": "aa0a753837fb67bc3fc18e21653a7058f856865c2fa44f8c808e5806beb81c18",
            "vout": 0,
            "scriptSig": {
                "asm": "304402202a0ea2b75af6bbb22d3f1b784a08aa1430d9fcb288cae7f583b9098ff265f5dc02206316f3be891180a3e22bab898968c0e119d158346f77e13f7336eb916ecb6368[ALL]",
                "hex": "47304402202a0ea2b75af6bbb22d3f1b784a08aa1430d9fcb288cae7f583b9098ff265f5dc02206316f3be891180a3e22bab898968c0e119d158346f77e13f7336eb916ecb636801"
            },
            "sequence": 4294967295
        },
        {
            "txid": "d245f5fc7ac5db1e0c595d8ad459a1a99ef45fb426602af3c5100d74dd02d819",
            "vout": 0,
            "scriptSig": {
                "asm": "304402203fc1a38fd27a3236c852aa7fe9abc049717769be5d0f3894b142d3fd97ec693102201d704b22d3dcd349890197729a44ff5a1dcfbcd8dafc247e7ac8cdd9a4c533a4[ALL]",
                "hex": "47304402203fc1a38fd27a3236c852aa7fe9abc049717769be5d0f3894b142d3fd97ec693102201d704b22d3dcd349890197729a44ff5a1dcfbcd8dafc247e7ac8cdd9a4c533a401"
            },
            "sequence": 4294967295
        },
        {
            "txid": "8812ce9bcd76c6a5d3243bc2084665a6a6862c1fc6b906203faff10f23c88d1a",
            "vout": 0,
            "scriptSig": {
                "asm": "304402201eedb3f890ba04cfed0c220ad60a667a720f85a555bb2fb06cda714f91492ee6022038964c9c074bfcb3e1d78aad05a168915f836bb8c98208e87d468a269463fb76[ALL]",
                "hex": "47304402201eedb3f890ba04cfed0c220ad60a667a720f85a555bb2fb06cda714f91492ee6022038964c9c074bfcb3e1d78aad05a168915f836bb8c98208e87d468a269463fb7601"
            },
            "sequence": 4294967295
        }
    ],
    "vout": [
        {
            "value": 1000.00000000,
            "valueSat": 100000000000,
            "n": 0,
            "scriptPubKey": {
                "asm": "OP_DUP OP_HASH160 4c75f539c0f4ec2e507633bcd2f313090f262cf0 OP_EQUALVERIFY OP_CHECKSIG",
                "hex": "76a9144c75f539c0f4ec2e507633bcd2f313090f262cf088ac",
                "reqSigs": 1,
                "type": "pubkeyhash",
                "addresses": [
                    "yTHjWeAds1kDaoCswP2rtKrt3R61pB6fmx"
                ]
            }
        },
        {
            "value": 428.57142858,
            "valueSat": 42857142858,
            "n": 1,
            "scriptPubKey": {
                "asm": "OP_DUP OP_HASH160 4c75f539c0f4ec2e507633bcd2f313090f262cf0 OP_EQUALVERIFY OP_CHECKSIG",
                "hex": "76a9144c75f539c0f4ec2e507633bcd2f313090f262cf088ac",
                "reqSigs": 1,
                "type": "pubkeyhash",
                "addresses": [
                    "yTHjWeAds1kDaoCswP2rtKrt3R61pB6fmx"
                ]
            }
        }
    ],
    "extraPayloadSize": 209,
    "extraPayload": "01000000000000000000000000000000000000000000000000000000000000000000000000000000000000000000000000000000ffff01010101000e12799b2c457292721d65178b21b6875516ef1cd40c23b98572841b6bed6b3d7936908cf721d5560df3e1e5c2d013eca3a9e05e9affab8c4e87cb77187023fce25fd843a912799b2c457292721d65178b21b6875516ef1cd400001976a9144c75f539c0f4ec2e507633bcd2f313090f262cf088ac1d89b54f7752172e0caabddf55fb1001350960e5450e908e69d802285ae4c9a000",
    "proRegTx": {
        "version": 1,
        "collateralHash": "0000000000000000000000000000000000000000000000000000000000000000",
        "collateralIndex": 0,
        "service": "1.1.1.1:14",
        "ownerAddress": "yN18gzu1R4sQCjE458mQTbVZUfymJFRFeQ",
        "votingAddress": "yN18gzu1R4sQCjE458mQTbVZUfymJFRFeQ",
        "payoutAddress": "yTHjWeAds1kDaoCswP2rtKrt3R61pB6fmx",
        "pubKeyOperator": "0c23b98572841b6bed6b3d7936908cf721d5560df3e1e5c2d013eca3a9e05e9affab8c4e87cb77187023fce25fd843a9",
        "operatorReward": 0,
        "inputsHash": "a0c9e45a2802d8698e900e45e56009350110fb55dfbdaa0c2e1752774fb5891d"
    },
    "hex": "0300010003181cb8be06588e808c4fa42f5c8656f858703a65218ec13fbc67fb3738750aaa000000004847304402202a0ea2b75af6bbb22d3f1b784a08aa1430d9fcb288cae7f583b9098ff265f5dc02206316f3be891180a3e22bab898968c0e119d158346f77e13f7336eb916ecb636801ffffffff19d802dd740d10c5f32a6026b45ff49ea9a159d48a5d590c1edbc57afcf545d2000000004847304402203fc1a38fd27a3236c852aa7fe9abc049717769be5d0f3894b142d3fd97ec693102201d704b22d3dcd349890197729a44ff5a1dcfbcd8dafc247e7ac8cdd9a4c533a401ffffffff1a8dc8230ff1af3f2006b9c61f2c86a6a6654608c23b24d3a5c676cd9bce1288000000004847304402201eedb3f890ba04cfed0c220ad60a667a720f85a555bb2fb06cda714f91492ee6022038964c9c074bfcb3e1d78aad05a168915f836bb8c98208e87d468a269463fb7601ffffffff0200e87648170000001976a9144c75f539c0f4ec2e507633bcd2f313090f262cf088ac4a1a7cfa090000001976a9144c75f539c0f4ec2e507633bcd2f313090f262cf088ac00000000d101000000000000000000000000000000000000000000000000000000000000000000000000000000000000000000000000000000ffff01010101000e12799b2c457292721d65178b21b6875516ef1cd40c23b98572841b6bed6b3d7936908cf721d5560df3e1e5c2d013eca3a9e05e9affab8c4e87cb77187023fce25fd843a912799b2c457292721d65178b21b6875516ef1cd400001976a9144c75f539c0f4ec2e507633bcd2f313090f262cf088ac1d89b54f7752172e0caabddf55fb1001350960e5450e908e69d802285ae4c9a000"
}
