{
    "txid": "acdbdf8c8b1071c96c8d525407a36ce740a67788176949462c81f6fb22da2766",
    "version": 3,
    "type": 1,
    "size": 481,
    "locktime": 0,
    "vin": [
        {
            "txid": "2877e0d7bb3b05a5c44b740d81350003d5cfcf63c5b5da49781b3702029fc60e",
            "vout": 0,
            "scriptSig": {
                "asm": "3045022100cc66e8153c319382b81266a1c495900b502769d797c1ad531d9ca867437223de02201b3ded29d00a513c1d84efc7d7853b9aa7fa01b6b45afd5da345fc248609bef9[ALL]",
                "hex": "483045022100cc66e8153c319382b81266a1c495900b502769d797c1ad531d9ca867437223de02201b3ded29d00a513c1d84efc7d7853b9aa7fa01b6b45afd5da345fc248609bef901"
            },
            "sequence": 4294967295
        },
        {
            "txid": "479ebace24389bfe6de9ae2afd62f2f44a9655fb632407097012f2327220370f",
            "vout": 0,
            "scriptSig": {
                "asm": "30440220623c768b663a6983c1d8b95025a3cbc63369a85d72b77bc69e5b32467d58bd320220089c74bf5c081b7d76cd4dfe1dee16a0bc964301d6fa78b7b30c89e3ee6902ec[ALL]",
                "hex": "4730440220623c768b663a6983c1d8b95025a3cbc63369a85d72b77bc69e5b32467d58bd320220089c74bf5c081b7d76cd4dfe1dee16a0bc964301d6fa78b7b30c89e3ee6902ec01"
            },
            "sequence": 4294967295
        }
    ],
    "vout": [
        {
            "value": 1000.00000000,
            "valueSat": 100000000000,
            "n": 0,
            "scriptPubKey": {
                "asm": "OP_DUP OP_HASH160 5db3c58618120719c37786b75c747956c411cd63 OP_EQUALVERIFY OP_CHECKSIG",
                "hex": "76a9145db3c58618120719c37786b75c747956c411cd6388ac",
                "reqSigs": 1,
                "type": "pubkeyhash",
                "addresses": [
                    "yUru3nridfqqeM9urYvpXa7SgigHHtHsyE"
                ]
            }
        }
    ],
    "extraPayloadSize": 209,
    "extraPayload": "01000000000000000000000000000000000000000000000000000000000000000000000000000000000000000000000000000000ffff0101010100066f11dc95c973f3fc7355436096596d043aa971bd09b53f7568eee38fe53955f19ac565c9156e0d7e0ce9093006f97509c806eaaa775da29b8faea25e8a857761e003974d6f11dc95c973f3fc7355436096596d043aa971bd00001976a9145db3c58618120719c37786b75c747956c411cd6388accfa40a23f0ae6b0cf54aa80cfd8499c61e99b8c8b1bf4e266677169e2df4e61300",
    "proRegTx": {
        "version": 1,
        "collateralHash": "0000000000000000000000000000000000000000000000000000000000000000",
        "collateralIndex": 0,
        "service": "1.1.1.1:6",
        "ownerAddress": "yWSjFYdZFVAvBZShmw5xZ7veHeCH5qmvPK",
        "votingAddress": "yWSjFYdZFVAvBZShmw5xZ7veHeCH5qmvPK",
        "payoutAddress": "yUru3nridfqqeM9urYvpXa7SgigHHtHsyE",
        "pubKeyOperator": "09b53f7568eee38fe53955f19ac565c9156e0d7e0ce9093006f97509c806eaaa775da29b8faea25e8a857761e003974d",
        "operatorReward": 0,
        "inputsHash": "13e6f42d9e167766264ebfb1c8b8991ec69984fd0ca84af50c6baef0230aa4cf"
    },
    "hex": "03000100020ec69f0202371b7849dab5c563cfcfd5030035810d744bc4a5053bbbd7e077280000000049483045022100cc66e8153c319382b81266a1c495900b502769d797c1ad531d9ca867437223de02201b3ded29d00a513c1d84efc7d7853b9aa7fa01b6b45afd5da345fc248609bef901ffffffff0f37207232f2127009072463fb55964af4f262fd2aaee96dfe9b3824ceba9e4700000000484730440220623c768b663a6983c1d8b95025a3cbc63369a85d72b77bc69e5b32467d58bd320220089c74bf5c081b7d76cd4dfe1dee16a0bc964301d6fa78b7b30c89e3ee6902ec01ffffffff0100e87648170000001976a9145db3c58618120719c37786b75c747956c411cd6388ac00000000d101000000000000000000000000000000000000000000000000000000000000000000000000000000000000000000000000000000ffff0101010100066f11dc95c973f3fc7355436096596d043aa971bd09b53f7568eee38fe53955f19ac565c9156e0d7e0ce9093006f97509c806eaaa775da29b8faea25e8a857761e003974d6f11dc95c973f3fc7355436096596d043aa971bd00001976a9145db3c58618120719c37786b75c747956c411cd6388accfa40a23f0ae6b0cf54aa80cfd8499c61e99b8c8b1bf4e266677169e2df4e61300"
}
