{
    "txid": "1da23fa0317268775ef78761c161f35bf1e1cd9c13dc82dff381a2f814adb0a7",
    "version": 2,
    "type": 0,
    "size": 418,
    "locktime": 0,
    "vin": [
        {
            "txid": "0f119efcf8cc5658f27f253c865145700e7c90f0f2ed66ea7bbeda2471088900",
            "vout": 0,
            "scriptSig": {
                "asm": "30440220165393689f07136db49815d61bdb952a03862952e65069ea0f1e56fc260f0f5c02205853badb460347af38748819079ff745afb591b067c698a6f7b2213a619d9d55[ALL]",
                "hex": "4730440220165393689f07136db49815d61bdb952a03862952e65069ea0f1e56fc260f0f5c02205853badb460347af38748819079ff745afb591b067c698a6f7b2213a619d9d5501"
            },
            "sequence": 4294967295
        },
        {
            "txid": "67d4a3a913fcf1c65f738a83535ad57c77507bbc445433b2d1c31298332b5001",
            "vout": 0,
            "scriptSig": {
                "asm": "304402205e87f2856227cc8ad76e969290e477ce7ceb88dd62fea88f32bcce712137c7e8022059bb277502ee3bdc3e08f537b590b51a0fe566168c8f615dcb19cfd276fc5fc3[ALL]",
                "hex": "47304402205e87f2856227cc8ad76e969290e477ce7ceb88dd62fea88f32bcce712137c7e8022059bb277502ee3bdc3e08f537b590b51a0fe566168c8f615dcb19cfd276fc5fc301"
            },
            "sequence": 4294967295
        },
        {
            "txid": "34c2483f52b521099ca46eec1123aa452861e66c6574282153e1159b90a1ac01",
            "vout": 0,
            "scriptSig": {
                "asm": "3045022100dff588d8eb5bbeedfc8abc8a2055b646a64c4777ef848091b7c0eb73db39319902201a3f25f58ba389e298f32a7d13a11f5267aef2cb882599997423f9cabb3c925f[ALL]",
                "hex": "483045022100dff588d8eb5bbeedfc8abc8a2055b646a64c4777ef848091b7c0eb73db39319902201a3f25f58ba389e298f32a7d13a11f5267aef2cb882599997423f9cabb3c925f01"
            },
            "sequence": 4294967295
        }
    ],
    "vout": [
        {
            "value": 1000.00000000,
            "valueSat": 100000000000,
            "n": 0,
            "scriptPubKey": {
                "asm": "OP_DUP OP_HASH160 79913a3a35f717043a56aedc029756ce30eaa6be OP_EQUALVERIFY OP_CHECKSIG",
                "hex": "76a91479913a3a35f717043a56aedc029756ce30eaa6be88ac",
                "reqSigs": 1,
                "type": "pubkeyhash",
                "addresses": [
                    "yXQEazeUBUvdv4bZgJyQkVPz5SmRak1ud6"
                ]
            }
        },
        {
            "value": 392.85714287,
            "valueSat": 39285714287,
            "n": 1,
            "scriptPubKey": {
                "asm": "OP_DUP OP_HASH160 79913a3a35f717043a56aedc029756ce30eaa6be OP_EQUALVERIFY OP_CHECKSIG",
                "hex": "76a91479913a3a35f717043a56aedc029756ce30eaa6be88ac",
                "reqSigs": 1,
                "type": "pubkeyhash",
                "addresses": [
                    "yXQEazeUBUvdv4bZgJyQkVPz5SmRak1ud6"
                ]
            }
        }
    ],
    "hex": "02000000030089087124dabe7bea66edf2f0907c0e704551863c257ff25856ccf8fc9e110f00000000484730440220165393689f07136db49815d61bdb952a03862952e65069ea0f1e56fc260f0f5c02205853badb460347af38748819079ff745afb591b067c698a6f7b2213a619d9d5501ffffffff01502b339812c3d1b2335444bc7b50777cd55a53838a735fc6f1fc13a9a3d467000000004847304402205e87f2856227cc8ad76e969290e477ce7ceb88dd62fea88f32bcce712137c7e8022059bb277502ee3bdc3e08f537b590b51a0fe566168c8f615dcb19cfd276fc5fc301ffffffff01aca1909b15e153212874656ce6612845aa2311ec6ea49c0921b5523f48c2340000000049483045022100dff588d8eb5bbeedfc8abc8a2055b646a64c4777ef848091b7c0eb73db39319902201a3f25f58ba389e298f32a7d13a11f5267aef2cb882599997423f9cabb3c925f01ffffffff0200e87648170000001976a91479913a3a35f717043a56aedc029756ce30eaa6be88ac6f6d9c25090000001976a91479913a3a35f717043a56aedc029756ce30eaa6be88ac00000000"
}
