{
    "txid": "0f9e5c0ce496b97a4372e9dd2ce11c9b9aa9cfa875a3fdfd27073ab6270b48c9",
    "version": 3,
    "type": 1,
    "size": 694,
    "locktime": 0,
    "vin": [
        {
            "txid": "27fb5ff5029975991715550e85767a5d91c9875324b9c07decced50cd9d2d904",
            "vout": 0,
            "scriptSig": {
                "asm": "304402207d114d21af26c422d56d9893171addc37cd3635689cb73496c3dc47b5751d5fc022000b63ba83eb7bdace785350e63a657693ef2cec3993f9cfe45bb8dc242d6fc60[ALL]",
                "hex": "47304402207d114d21af26c422d56d9893171addc37cd3635689cb73496c3dc47b5751d5fc022000b63ba83eb7bdace785350e63a657693ef2cec3993f9cfe45bb8dc242d6fc6001"
            },
            "sequence": 4294967295
        },
        {
            "txid": "8f023115c620124fb459df7925cee8b1decf2974228a1fea97a8fc56347b0505",
            "vout": 0,
            "scriptSig": {
                "asm": "30440220788bed6411dfec384a66c1ab97a8bbd6c1ef58d571288a018853052981038c37022054a0c4ec56a0168113c6885933743bc0c3ef93b3de3c712312ee2fece747c4c0[ALL]",
                "hex": "4730440220788bed6411dfec384a66c1ab97a8bbd6c1ef58d571288a018853052981038c37022054a0c4ec56a0168113c6885933743bc0c3ef93b3de3c712312ee2fece747c4c001"
            },
            "sequence": 4294967295
        },
        {
            "txid": "4cde4d7d09854bdbd09f8b1cfb32a1089314fa2d37fa4ad45ee4eb74291b1805",
            "vout": 0,
            "scriptSig": {
                "asm": "304402202a5418602df39e97ca2d4c2877f36473f7794d35198405a788d2eded2e5565c0022068e5ee6e8e3c35362a5d08da9e5e2fe18f48d49f44ecc66520cfc79aa7309c05[ALL]",
                "hex": "47304402202a5418602df39e97ca2d4c2877f36473f7794d35198405a788d2eded2e5565c0022068e5ee6e8e3c35362a5d08da9e5e2fe18f48d49f44ecc66520cfc79aa7309c0501"
            },
            "sequence": 4294967295
        }
    ],
    "vout": [
        {
            "value": 1000.00000000,
            "valueSat": 100000000000,
            "n": 0,
            "scriptPubKey": {
                "asm": "OP_DUP OP_HASH160 e4a6938049f45541a291ef0c63e16f9236912f7a OP_EQUALVERIFY OP_CHECKSIG",
                "hex": "76a914e4a6938049f45541a291ef0c63e16f9236912f7a88ac",
                "reqSigs": 1,
                "type": "pubkeyhash",
                "addresses": [
                    "yhASTrbvLCNC4FQacVjFKhBEN2zeQouSQZ"
                ]
            }
        },
        {
            "value": 464.28571429,
            "valueSat": 46428571429,
            "n": 1,
            "scriptPubKey": {
                "asm": "OP_DUP OP_HASH160 e4a6938049f45541a291ef0c63e16f9236912f7a OP_EQUALVERIFY OP_CHECKSIG",
                "hex": "76a914e4a6938049f45541a291ef0c63e16f9236912f7a88ac",
                "reqSigs": 1,
                "type": "pubkeyhash",
                "addresses": [
                    "yhASTrbvLCNC4FQacVjFKhBEN2zeQouSQZ"
                ]
            }
        }
    ],
    "extraPayloadSize": 274,
    "extraPayload": "010000000000f86ff540e6b17fab87c0f98b99d14ec5213e7a901ed5b2b10fee53ed398c32590000000000000000000000000000ffff010101010001c469069d536945a22c8bff8c7461d5d7ad249d200a58112a8036e1a0a793ac00742e80deff17b962a27b3f2a6f20116385de03daf034b4996a1b51b973768dae7c4caf12c469069d536945a22c8bff8c7461d5d7ad249d2000001976a914e4a6938049f45541a291ef0c63e16f9236912f7a88ac80d8f5a35018167c7a9c7bede49b537406afe247bd228dc26c122b7e195cd44641204b69c74818477b0955e3eb67c0c107b4e16e4b5a2c2273145dd9fc7e2ab8f3bf783ee9f87fd8d806d915115d503999c3ab280836b46292309fe40f4d5184f16e",
    "proRegTx": {
        "version": 1,
        "collateralHash": "59328c39ed53ee0fb1b2d51e907a3e21c54ed1998bf9c087ab7fb1e640f56ff8",
        "collateralIndex": 0,
        "service": "1.1.1.1:1",
        "ownerAddress": "yeDy78CgswvYaHyaoYFfvXv4zm2i3FCp77",
        "votingAddress": "yeDy78CgswvYaHyaoYFfvXv4zm2i3FCp77",
        "payoutAddress": "yhASTrbvLCNC4FQacVjFKhBEN2zeQouSQZ",
        "pubKeyOperator": "0a58112a8036e1a0a793ac00742e80deff17b962a27b3f2a6f20116385de03daf034b4996a1b51b973768dae7c4caf12",
        "operatorReward": 0,
        "inputsHash": "46d45c197e2b126cc28d22bd47e2af0674539be4ed7b9c7a7c161850a3f5d880"
    },
    "hex": "030001000304d9d2d90cd5ceec7dc0b9245387c9915d7a76850e55151799759902f55ffb27000000004847304402207d114d21af26c422d56d9893171addc37cd3635689cb73496c3dc47b5751d5fc022000b63ba83eb7bdace785350e63a657693ef2cec3993f9cfe45bb8dc242d6fc6001ffffffff05057b3456fca897ea1f8a227429cfdeb1e8ce2579df59b44f1220c61531028f00000000484730440220788bed6411dfec384a66c1ab97a8bbd6c1ef58d571288a018853052981038c37022054a0c4ec56a0168113c6885933743bc0c3ef93b3de3c712312ee2fece747c4c001ffffffff05181b2974ebe45ed44afa372dfa149308a132fb1c8b9fd0db4b85097d4dde4c000000004847304402202a5418602df39e97ca2d4c2877f36473f7794d35198405a788d2eded2e5565c0022068e5ee6e8e3c35362a5d08da9e5e2fe18f48d49f44ecc66520cfc79aa7309c0501ffffffff0200e87648170000001976a914e4a6938049f45541a291ef0c63e16f9236912f7a88ac25c75bcf0a0000001976a914e4a6938049f45541a291ef0c63e16f9236912f7a88ac00000000fd1201010000000000f86ff540e6b17fab87c0f98b99d14ec5213e7a901ed5b2b10fee53ed398c32590000000000000000000000000000ffff010101010001c469069d536945a22c8bff8c7461d5d7ad249d200a58112a8036e1a0a793ac00742e80deff17b962a27b3f2a6f20116385de03daf034b4996a1b51b973768dae7c4caf12c469069d536945a22c8bff8c7461d5d7ad249d2000001976a914e4a6938049f45541a291ef0c63e16f9236912f7a88ac80d8f5a35018167c7a9c7bede49b537406afe247bd228dc26c122b7e195cd44641204b69c74818477b0955e3eb67c0c107b4e16e4b5a2c2273145dd9fc7e2ab8f3bf783ee9f87fd8d806d915115d503999c3ab280836b46292309fe40f4d5184f16e"
}
