{
    "txid": "fba6a6be3ca7f09d3574846ede7c5dd4fe2a1aeb4086f0df1e7a28360f9aad96",
    "version": 2,
    "type": 0,
    "size": 362,
    "locktime": 0,
    "vin": [
        {
            "txid": "27fb5ff5029975991715550e85767a5d91c9875324b9c07decced50cd9d2d904",
            "vout": 0,
            "scriptSig": {
                "asm": "3045022100e368ebf35bd00961f24f4339361964e8511f6a36e3944028aff760dc996b880002207c12b32ce801a67d7ff03df7829daa59056d66cb7e5757cd219a842e640219f0[ALL]",
                "hex": "483045022100e368ebf35bd00961f24f4339361964e8511f6a36e3944028aff760dc996b880002207c12b32ce801a67d7ff03df7829daa59056d66cb7e5757cd219a842e640219f001"
            },
            "sequence": 4294967295
        },
        {
            "txid": "8f023115c620124fb459df7925cee8b1decf2974228a1fea97a8fc56347b0505",
            "vout": 0,
            "scriptSig": {
                "asm": "3045022100c5f0c203b287f5adeedcdef38585faebead9134b8254769ac962a0ef0cb1284202204d6feeb969ab0d04ccd986ccf264023e374df27e1e8a47e9782ac306424292a6[ALL]",
                "hex": "483045022100c5f0c203b287f5adeedcdef38585faebead9134b8254769ac962a0ef0cb1284202204d6feeb969ab0d04ccd986ccf264023e374df27e1e8a47e9782ac306424292a601"
            },
            "sequence": 4294967295
        },
        {
            "txid": "4cde4d7d09854bdbd09f8b1cfb32a1089314fa2d37fa4ad45ee4eb74291b1805",
            "vout": 0,
            "scriptSig": {
                "asm": "30450221009ea46db19f2719701b7b65f314577dc44249b818a95fdd9664d86ebb995cc2e1022000cec029027babf14a1f4145d88dccba6a0c8da7342324bdf1c2515a2157c033[ALL]",
                "hex": "4830450221009ea46db19f2719701b7b65f314577dc44249b818a95fdd9664d86ebb995cc2e1022000cec029027babf14a1f4145d88dccba6a0c8da7342324bdf1c2515a2157c03301"
            },
            "sequence": 4294967295
        }
    ],
    "vout": [
        {
            "value": 0.00000000,
            "valueSat": 0,
            "n": 0,
            "scriptPubKey": {
                "asm": "OP_RETURN",
                "hex": "6a",
                "type": "nulldata"
            }
        }
    ],
    "hex": "020000000304d9d2d90cd5ceec7dc0b9245387c9915d7a76850e55151799759902f55ffb270000000049483045022100e368ebf35bd00961f24f4339361964e8511f6a36e3944028aff760dc996b880002207c12b32ce801a67d7ff03df7829daa59056d66cb7e5757cd219a842e640219f001ffffffff05057b3456fca897ea1f8a227429cfdeb1e8ce2579df59b44f1220c61531028f0000000049483045022100c5f0c203b287f5adeedcdef38585faebead9134b8254769ac962a0ef0cb1284202204d6feeb969ab0d04ccd986ccf264023e374df27e1e8a47e9782ac306424292a601ffffffff05181b2974ebe45ed44afa372dfa149308a132fb1c8b9fd0db4b85097d4dde4c00000000494830450221009ea46db19f2719701b7b65f314577dc44249b818a95fdd9664d86ebb995cc2e1022000cec029027babf14a1f4145d88dccba6a0c8da7342324bdf1c2515a2157c03301ffffffff010000000000000000016a00000000"
}
