{
    "transaction": {
      "hex": "01000000019693de961654e0499fb1c4e1650657f6e6effcaa18f49c5e0263d0da9b4372dc000000006b4830450221008c835c83b00211b0dbb0aed2adea2965b5b7ebc931c7759e11f44d396992d41f0220368bfe8670fc858dd1dbe4e68e0b814cf5b505aa2e0f67c1ad1f36621d8f9363012102c3493991faf332e9da95642b90ca7a1193c3ccb6066299438aa3ce44d674a678feffffff02303c25bebc1600001976a914e59196bf2105414f8ac3e915759e013b7d2d39f188ac00e1f505000000001976a914d2eb140d8b7006e7b862827043f9cddd50da981188ac2c010000",
      "txid": "2ef6006cc154bd3837b7b9787c97900db9d948afd5a1908214a8bb39a3d6bb84",
      "size": 226,
      "version": 1,
      "locktime": 300,
      "vin": [
        {
          "txid": "dc72439bdad063025e9cf418aafcefe6f6570665e1c4b19f49e0541696de9396",
          "vout": 0,
          "scriptSig": {
            "asm": "30450221008c835c83b00211b0dbb0aed2adea2965b5b7ebc931c7759e11f44d396992d41f0220368bfe8670fc858dd1dbe4e68e0b814cf5b505aa2e0f67c1ad1f36621d8f9363[ALL] 02c3493991faf332e9da95642b90ca7a1193c3ccb6066299438aa3ce44d674a678",
            "hex": "4830450221008c835c83b00211b0dbb0aed2adea2965b5b7ebc931c7759e11f44d396992d41f0220368bfe8670fc858dd1dbe4e68e0b814cf5b505aa2e0f67c1ad1f36621d8f9363012102c3493991faf332e9da95642b90ca7a1193c3ccb6066299438aa3ce44d674a678"
          },
          "sequence": 4294967294
        }
      ],
      "vout": [
        {
          "value": 249998.99774,
          "n": 0,
          "scriptPubKey": {
            "asm": "OP_DUP OP_HASH160 e59196bf2105414f8ac3e915759e013b7d2d39f1 OP_EQUALVERIFY OP_CHECKSIG",
            "hex": "76a914e59196bf2105414f8ac3e915759e013b7d2d39f188ac",
            "reqSigs": 1,
            "type": "pubkeyhash",
            "addresses": [
              "nq81QteVGgTMwKHxQDAV9AjBgThDg2SFuG"
            ]
          }
        },
        {
          "value": 1,
          "n": 1,
          "scriptPubKey": {
            "asm": "OP_DUP OP_HASH160 d2eb140d8b7006e7b862827043f9cddd50da9811 OP_EQUALVERIFY OP_CHECKSIG",
            "hex": "76a914d2eb140d8b7006e7b862827043f9cddd50da981188ac",
            "reqSigs": 1,
            "type": "pubkeyhash",
            "addresses": [
              "noRPn5rE16Upxpoz7h418PKA6oqMmwBmP2"
            ]
          }
        }
      ]
    },
    "inputs": [
      {
        "hex": "01000000010000000000000000000000000000000000000000000000000000000000000000ffffffff0502d9000101ffffffff0200901ec4bc1600001976a914b6a1925a4f03b9c4186efb2d35c6ec3cc3a723f688ac0000000000000000266a24aa21a9ede2f61c3f71d1defd3fa999dfa36953755c690689799962b48bebd836974e8cf900000000",
        "txid": "dc72439bdad063025e9cf418aafcefe6f6570665e1c4b19f49e0541696de9396",
        "hash": "dc72439bdad063025e9cf418aafcefe6f6570665e1c4b19f49e0541696de9396",
        "size": 137,
        "vsize": 137,
        "version": 1,
        "locktime": 0,
        "vin": [
          {
            "coinbase": "02d9000101",
            "sequence": 4294967295
          }
        ],
        "vout": [
          {
            "value": 250000,
            "n": 0,
            "scriptPubKey": {
              "asm": "OP_DUP OP_HASH160 b6a1925a4f03b9c4186efb2d35c6ec3cc3a723f6 OP_EQUALVERIFY OP_CHECKSIG",
              "hex": "76a914b6a1925a4f03b9c4186efb2d35c6ec3cc3a723f688ac",
              "reqSigs": 1,
              "type": "pubkeyhash",
              "addresses": [
                "nkqpoP7xpox1GMv1uvxEWRjtVdRYLYfMzn"
              ]
            }
          },
          {
            "value": 0,
            "n": 1,
            "scriptPubKey": {
              "asm": "OP_RETURN aa21a9ede2f61c3f71d1defd3fa999dfa36953755c690689799962b48bebd836974e8cf9",
              "hex": "6a24aa21a9ede2f61c3f71d1defd3fa999dfa36953755c690689799962b48bebd836974e8cf9",
              "type": "nulldata"
            }
          }
        ],
        "blockhash": "2cdc1caf3a0b8273026eefeb85822d7a6ffe2c7d8fd7b5b1036e318318b87f62",
        "confirmations": 84,
        "time": 1656950552,
        "blocktime": 1656950552
      }
    ]
  }
