{
  "transaction": {
    "hex": "010000000161e839b9c51050a3e827a9347fc474e85f3ab17fb275595f36b6ef2ed5909f9d000000006a473044022054e6a1e834faa971fded448bfa5761d7f1ea454a684dcbf5d0e9dc909ba78b28022019aa0da0066eef131836465cb0c079f2f3d46f68e51ab2180a8e15272946af0f012102c931b29c9cbd492146e50802ffe629c0ec605b20f6bd041f18462fc133d04242feffffff0200e1f505000000001976a914d2eb140d8b7006e7b862827043f9cddd50da981188ac30bcabcee80000001976a9143a537b0cdebc4566690903bb69271aa6dde3919488ace8030000",
    "txid": "e8f134f0ef2777bf9a2f25cb534eb1697943132f164f7a81da0c73195c18d046",
    "hash": "e8f134f0ef2777bf9a2f25cb534eb1697943132f164f7a81da0c73195c18d046",
    "size": 225,
    "vsize": 225,
    "version": 1,
    "locktime": 1000,
    "vin": [
      {
        "txid": "9d9f90d52eefb6365f5975b27fb13a5fe874c47f34a927e8a35010c5b939e861",
        "vout": 0,
        "scriptSig": {
          "asm": "3044022054e6a1e834faa971fded448bfa5761d7f1ea454a684dcbf5d0e9dc909ba78b28022019aa0da0066eef131836465cb0c079f2f3d46f68e51ab2180a8e15272946af0f[ALL] 02c931b29c9cbd492146e50802ffe629c0ec605b20f6bd041f18462fc133d04242",
          "hex": "473044022054e6a1e834faa971fded448bfa5761d7f1ea454a684dcbf5d0e9dc909ba78b28022019aa0da0066eef131836465cb0c079f2f3d46f68e51ab2180a8e15272946af0f012102c931b29c9cbd492146e50802ffe629c0ec605b20f6bd041f18462fc133d04242"
        },
        "sequence": 4294967294
      }
    ],
    "vout": [
      {
        "value": 1,
        "n": 0,
        "scriptPubKey": {
          "asm": "OP_DUP OP_HASH160 d2eb140d8b7006e7b862827043f9cddd50da9811 OP_EQUALVERIFY OP_CHECKSIG",
          "hex": "76a914d2eb140d8b7006e7b862827043f9cddd50da981188ac",
          "reqSigs": 1,
          "type": "pubkeyhash",
          "addresses": [
            "noRPn5rE16Upxpoz7h418PKA6oqMmwBmP2"
          ]
        }
      },
      {
        "value": 9998.99774,
        "n": 1,
        "scriptPubKey": {
          "asm": "OP_DUP OP_HASH160 3a537b0cdebc4566690903bb69271aa6dde39194 OP_EQUALVERIFY OP_CHECKSIG",
          "hex": "76a9143a537b0cdebc4566690903bb69271aa6dde3919488ac",
          "reqSigs": 1,
          "type": "pubkeyhash",
          "addresses": [
            "nZWZTjd1pMQwpTHhJt8tZs6DEDj4mfzfmT"
          ]
        }
      }
    ]
  },
  "inputs": [
    {
      "hex": "01000000010000000000000000000000000000000000000000000000000000000000000000ffffffff050290030101ffffffff020010a5d4e80000001976a914d4066ef95b7a4d986319794457a12570131dae8788ac0000000000000000266a24aa21a9ede2f61c3f71d1defd3fa999dfa36953755c690689799962b48bebd836974e8cf900000000",
      "txid": "9d9f90d52eefb6365f5975b27fb13a5fe874c47f34a927e8a35010c5b939e861",
      "hash": "9d9f90d52eefb6365f5975b27fb13a5fe874c47f34a927e8a35010c5b939e861",
      "size": 137,
      "vsize": 137,
      "version": 1,
      "locktime": 0,
      "vin": [
        {
          "coinbase": "0290030101",
          "sequence": 4294967295
        }
      ],
      "vout": [
        {
          "value": 10000,
          "n": 0,
          "scriptPubKey": {
            "asm": "OP_DUP OP_HASH160 d4066ef95b7a4d986319794457a12570131dae87 OP_EQUALVERIFY OP_CHECKSIG",
            "hex": "76a914d4066ef95b7a4d986319794457a12570131dae8788ac",
            "reqSigs": 1,
            "type": "pubkeyhash",
            "addresses": [
              "noXFDwq3WVUStiu3v7UFQTEdPWzdHY3tQF"
            ]
          }
        },
        {
          "value": 0,
          "n": 1,
          "scriptPubKey": {
            "asm": "OP_RETURN aa21a9ede2f61c3f71d1defd3fa999dfa36953755c690689799962b48bebd836974e8cf9",
            "hex": "6a24aa21a9ede2f61c3f71d1defd3fa999dfa36953755c690689799962b48bebd836974e8cf9",
            "type": "nulldata"
          }
        }
      ],
      "blockhash": "06bcbe24172f9475427da975b326cc9d7813bcc1de6193d0f8fcddd08ba682a3",
      "confirmations": 89,
      "time": 1658180937,
      "blocktime": 1658180937
    }
  ]
}