{
    "transaction": {
      "hex": "01000000012cb69429f3e2896e48d7f1617de35b9442db6ee75a8eb4cf301199e2b6d7b1bb000000006b483045022100920557f01c8498fc3cb5e1790fa8fae9b11708630a66fe6e4f53fa68354ba7d502205ed2431b9da5db41c76e173e1e22b5f35c10186e766e8a6d29429066147d95d3012102c3493991faf332e9da95642b90ca7a1193c3ccb6066299438aa3ce44d674a678feffffff0200e1f5050000000017a914fe5cc5d87e3348a5f3eaa316898a0f05d520876e87004425bebc1600001976a9145159d2c491c35615f29c3be2975f5d78d4801d8688ac2c010000",
      "txid": "0e7cd17eaf374f5f42d896155b8ebd267ea9faa2bf215517fd463240b5f23e7e",
      "size": 224,
      "version": 1,
      "locktime": 300,
      "vin": [
        {
          "txid": "bbb1d7b6e2991130cfb48e5ae76edb42945be37d61f1d7486e89e2f32994b62c",
          "vout": 0,
          "scriptSig": {
            "asm": "3045022100920557f01c8498fc3cb5e1790fa8fae9b11708630a66fe6e4f53fa68354ba7d502205ed2431b9da5db41c76e173e1e22b5f35c10186e766e8a6d29429066147d95d3[ALL] 02c3493991faf332e9da95642b90ca7a1193c3ccb6066299438aa3ce44d674a678",
            "hex": "483045022100920557f01c8498fc3cb5e1790fa8fae9b11708630a66fe6e4f53fa68354ba7d502205ed2431b9da5db41c76e173e1e22b5f35c10186e766e8a6d29429066147d95d3012102c3493991faf332e9da95642b90ca7a1193c3ccb6066299438aa3ce44d674a678"
          },
          "sequence": 4294967294
        }
      ],
      "vout": [
        {
          "value": 1,
          "n": 0,
          "scriptPubKey": {
            "asm": "OP_HASH160 fe5cc5d87e3348a5f3eaa316898a0f05d520876e OP_EQUAL",
            "hex": "a914fe5cc5d87e3348a5f3eaa316898a0f05d520876e87",
            "reqSigs": 1,
            "type": "scripthash",
            "addresses": [
              "2NGSAkyhiWMZPcrfiwmcRWf9HQgpsiRGKv4"
            ]
          }
        },
        {
          "value": 249998.99776,
          "n": 1,
          "scriptPubKey": {
            "asm": "OP_DUP OP_HASH160 5159d2c491c35615f29c3be2975f5d78d4801d86 OP_EQUALVERIFY OP_CHECKSIG",
            "hex": "76a9145159d2c491c35615f29c3be2975f5d78d4801d8688ac",
            "reqSigs": 1,
            "type": "pubkeyhash",
            "addresses": [
              "nbcJbqphvpic4RZCBBAWaHbVwCXDQFuXVR"
            ]
          }
        }
      ]
    },
    "inputs": [
      {
        "hex": "01000000010000000000000000000000000000000000000000000000000000000000000000ffffffff0502a5000101ffffffff0200901ec4bc1600001976a914b6a1925a4f03b9c4186efb2d35c6ec3cc3a723f688ac0000000000000000266a24aa21a9ede2f61c3f71d1defd3fa999dfa36953755c690689799962b48bebd836974e8cf900000000",
        "txid": "bbb1d7b6e2991130cfb48e5ae76edb42945be37d61f1d7486e89e2f32994b62c",
        "hash": "bbb1d7b6e2991130cfb48e5ae76edb42945be37d61f1d7486e89e2f32994b62c",
        "size": 137,
        "vsize": 137,
        "version": 1,
        "locktime": 0,
        "vin": [
          {
            "coinbase": "02a5000101",
            "sequence": 4294967295
          }
        ],
        "vout": [
          {
            "value": 250000,
            "n": 0,
            "scriptPubKey": {
              "asm": "OP_DUP OP_HASH160 b6a1925a4f03b9c4186efb2d35c6ec3cc3a723f6 OP_EQUALVERIFY OP_CHECKSIG",
              "hex": "76a914b6a1925a4f03b9c4186efb2d35c6ec3cc3a723f688ac",
              "reqSigs": 1,
              "type": "pubkeyhash",
              "addresses": [
                "nkqpoP7xpox1GMv1uvxEWRjtVdRYLYfMzn"
              ]
            }
          },
          {
            "value": 0,
            "n": 1,
            "scriptPubKey": {
              "asm": "OP_RETURN aa21a9ede2f61c3f71d1defd3fa999dfa36953755c690689799962b48bebd836974e8cf9",
              "hex": "6a24aa21a9ede2f61c3f71d1defd3fa999dfa36953755c690689799962b48bebd836974e8cf9",
              "type": "nulldata"
            }
          }
        ],
        "blockhash": "87ea1e875e0ecd709f26022c17070229546c9742ac673850182e0925798cff59",
        "confirmations": 136,
        "time": 1656950544,
        "blocktime": 1656950544
      }
    ]
  }
