{
  "transaction": {
    "hex": "0100000001937a58932d913498e11204e8b15f21cb93ff79177e0c5c00e9d33a0821a719c5000000006a4730440220424c480f6e7ff2cd16918afc9f36d3244db866b1f7cf224e90022f933b49be99022054b72300f6da7f8ce6f9433ca7b9250ec476b06aeb69ef68f3573b053df37df4012102c931b29c9cbd492146e50802ffe629c0ec605b20f6bd041f18462fc133d04242feffffff0200c4abcee80000001976a9146a07cbf4297379693cc9d68a374496d4e19bcea488ac00e1f5050000000017a914fe5cc5d87e3348a5f3eaa316898a0f05d520876e87e8030000",
    "txid": "b4ed686b9e834d17c057f627e537860c33d1b8fc4f62b1f3d131624851830417",
    "hash": "b4ed686b9e834d17c057f627e537860c33d1b8fc4f62b1f3d131624851830417",
    "size": 223,
    "vsize": 223,
    "version": 1,
    "locktime": 1000,
    "vin": [
      {
        "txid": "c519a721083ad3e9005c0c7e1779ff93cb215fb1e80412e19834912d93587a93",
        "vout": 0,
        "scriptSig": {
          "asm": "30440220424c480f6e7ff2cd16918afc9f36d3244db866b1f7cf224e90022f933b49be99022054b72300f6da7f8ce6f9433ca7b9250ec476b06aeb69ef68f3573b053df37df4[ALL] 02c931b29c9cbd492146e50802ffe629c0ec605b20f6bd041f18462fc133d04242",
          "hex": "4730440220424c480f6e7ff2cd16918afc9f36d3244db866b1f7cf224e90022f933b49be99022054b72300f6da7f8ce6f9433ca7b9250ec476b06aeb69ef68f3573b053df37df4012102c931b29c9cbd492146e50802ffe629c0ec605b20f6bd041f18462fc133d04242"
        },
        "sequence": 4294967294
      }
    ],
    "vout": [
      {
        "value": 9998.99776,
        "n": 0,
        "scriptPubKey": {
          "asm": "OP_DUP OP_HASH160 6a07cbf4297379693cc9d68a374496d4e19bcea4 OP_EQUALVERIFY OP_CHECKSIG",
          "hex": "76a9146a07cbf4297379693cc9d68a374496d4e19bcea488ac",
          "reqSigs": 1,
          "type": "pubkeyhash",
          "addresses": [
            "ndroEL39gnLMkLHDJYrhpDCkYXBm7UamCP"
          ]
        }
      },
      {
        "value": 1,
        "n": 1,
        "scriptPubKey": {
          "asm": "OP_HASH160 fe5cc5d87e3348a5f3eaa316898a0f05d520876e OP_EQUAL",
          "hex": "a914fe5cc5d87e3348a5f3eaa316898a0f05d520876e87",
          "reqSigs": 1,
          "type": "scripthash",
          "addresses": [
            "2NGSAkyhiWMZPcrfiwmcRWf9HQgpsiRGKv4"
          ]
        }
      }
    ]
  },
  "inputs": [
    {
      "hex": "01000000010000000000000000000000000000000000000000000000000000000000000000ffffffff050298030101ffffffff020010a5d4e80000001976a914d4066ef95b7a4d986319794457a12570131dae8788ac0000000000000000266a24aa21a9ede2f61c3f71d1defd3fa999dfa36953755c690689799962b48bebd836974e8cf900000000",
      "txid": "c519a721083ad3e9005c0c7e1779ff93cb215fb1e80412e19834912d93587a93",
      "hash": "c519a721083ad3e9005c0c7e1779ff93cb215fb1e80412e19834912d93587a93",
      "size": 137,
      "vsize": 137,
      "version": 1,
      "locktime": 0,
      "vin": [
        {
          "coinbase": "0298030101",
          "sequence": 4294967295
        }
      ],
      "vout": [
        {
          "value": 10000,
          "n": 0,
          "scriptPubKey": {
            "asm": "OP_DUP OP_HASH160 d4066ef95b7a4d986319794457a12570131dae87 OP_EQUALVERIFY OP_CHECKSIG",
            "hex": "76a914d4066ef95b7a4d986319794457a12570131dae8788ac",
            "reqSigs": 1,
            "type": "pubkeyhash",
            "addresses": [
              "noXFDwq3WVUStiu3v7UFQTEdPWzdHY3tQF"
            ]
          }
        },
        {
          "value": 0,
          "n": 1,
          "scriptPubKey": {
            "asm": "OP_RETURN aa21a9ede2f61c3f71d1defd3fa999dfa36953755c690689799962b48bebd836974e8cf9",
            "hex": "6a24aa21a9ede2f61c3f71d1defd3fa999dfa36953755c690689799962b48bebd836974e8cf9",
            "type": "nulldata"
          }
        }
      ],
      "blockhash": "74ff9225c4c71268bbcb1030bc309cac7d3bcfd060e8fcafefe6236cf890f14b",
      "confirmations": 81,
      "time": 1658180939,
      "blocktime": 1658180939
    }
  ]
}