{
    "transaction": {
      "hex": "01000000027e3ef2b5403246fd175521bfa2faa97e26bd8e5b1596d8425f4f37af7ed17c0e00000000fc004730440220789c210ec80bc6df7ba14d9a24b2503f5e0b4de11d281520e7a45bd06e482f5402202a57c2786c8d00504c60ae2672b06563451c6e4ee02ef852141707dc0cc029740147304402204e69a89d8e0b2bbe709029671d0feeb7fdcebbc232d239b7e58d0d3655794f5f02205588054cdf6aa72de42b8e994183695229d7566fce9cc255826a442cc5066042014c695221028fedaf75b5b08cddf3bf4631c658b68ee6766a8e999467a641d7cb7aaaecec972103316bc27d95b96418349afc6298c259bb999c6e8f39a7217787ad53602be7c1472102e21c29b4a7eeace9c7a8cefb568ca00c86ff9bf5e79e07e5442c29d4a0950d0453aeffffffffd892a0df3876511fd752fefad3d7e77f4f3d3c34e1fb3ffeb13bbf7c69a6c42001000000fdfd0000483045022100a2f49c8a85c3e3b02bb1be747909f33cefbd5b906e72fd12bcc2a8b020c35b420220292f53fda775c208f97677b827227df832aa264b871be65adedc39c83c9b6105014730440220555777ca953332ca4e412f0d8d4df846f3d038596f8ebf9ad8a42de0e1c2fd2d022067fe72cff5d4d872c6481ff7060a87deec9631d9a337449a4eb3bf77c0008a57014c695221028fedaf75b5b08cddf3bf4631c658b68ee6766a8e999467a641d7cb7aaaecec972103316bc27d95b96418349afc6298c259bb999c6e8f39a7217787ad53602be7c1472102e21c29b4a7eeace9c7a8cefb568ca00c86ff9bf5e79e07e5442c29d4a0950d0453aeffffffff01c07fdc0b0000000017a914fe5cc5d87e3348a5f3eaa316898a0f05d520876e8700000000",
      "txid": "76490edac57203a98aa14abd2f9da5483d2aa40a323fadff88d69ce5ac75851d",
      "size": 631,
      "version": 1,
      "locktime": 0,
      "vin": [
        {
          "txid": "0e7cd17eaf374f5f42d896155b8ebd267ea9faa2bf215517fd463240b5f23e7e",
          "vout": 0,
          "scriptSig": {
            "asm": "0 30440220789c210ec80bc6df7ba14d9a24b2503f5e0b4de11d281520e7a45bd06e482f5402202a57c2786c8d00504c60ae2672b06563451c6e4ee02ef852141707dc0cc02974[ALL] 304402204e69a89d8e0b2bbe709029671d0feeb7fdcebbc232d239b7e58d0d3655794f5f02205588054cdf6aa72de42b8e994183695229d7566fce9cc255826a442cc5066042[ALL] 5221028fedaf75b5b08cddf3bf4631c658b68ee6766a8e999467a641d7cb7aaaecec972103316bc27d95b96418349afc6298c259bb999c6e8f39a7217787ad53602be7c1472102e21c29b4a7eeace9c7a8cefb568ca00c86ff9bf5e79e07e5442c29d4a0950d0453ae",
            "hex": "004730440220789c210ec80bc6df7ba14d9a24b2503f5e0b4de11d281520e7a45bd06e482f5402202a57c2786c8d00504c60ae2672b06563451c6e4ee02ef852141707dc0cc029740147304402204e69a89d8e0b2bbe709029671d0feeb7fdcebbc232d239b7e58d0d3655794f5f02205588054cdf6aa72de42b8e994183695229d7566fce9cc255826a442cc5066042014c695221028fedaf75b5b08cddf3bf4631c658b68ee6766a8e999467a641d7cb7aaaecec972103316bc27d95b96418349afc6298c259bb999c6e8f39a7217787ad53602be7c1472102e21c29b4a7eeace9c7a8cefb568ca00c86ff9bf5e79e07e5442c29d4a0950d0453ae"
          },
          "sequence": 4294967295
        },
        {
          "txid": "20c4a6697cbf3bb1fe3ffbe1343c3d4f7fe7d7d3fafe52d71f517638dfa092d8",
          "vout": 1,
          "scriptSig": {
            "asm": "0 3045022100a2f49c8a85c3e3b02bb1be747909f33cefbd5b906e72fd12bcc2a8b020c35b420220292f53fda775c208f97677b827227df832aa264b871be65adedc39c83c9b6105[ALL] 30440220555777ca953332ca4e412f0d8d4df846f3d038596f8ebf9ad8a42de0e1c2fd2d022067fe72cff5d4d872c6481ff7060a87deec9631d9a337449a4eb3bf77c0008a57[ALL] 5221028fedaf75b5b08cddf3bf4631c658b68ee6766a8e999467a641d7cb7aaaecec972103316bc27d95b96418349afc6298c259bb999c6e8f39a7217787ad53602be7c1472102e21c29b4a7eeace9c7a8cefb568ca00c86ff9bf5e79e07e5442c29d4a0950d0453ae",
            "hex": "00483045022100a2f49c8a85c3e3b02bb1be747909f33cefbd5b906e72fd12bcc2a8b020c35b420220292f53fda775c208f97677b827227df832aa264b871be65adedc39c83c9b6105014730440220555777ca953332ca4e412f0d8d4df846f3d038596f8ebf9ad8a42de0e1c2fd2d022067fe72cff5d4d872c6481ff7060a87deec9631d9a337449a4eb3bf77c0008a57014c695221028fedaf75b5b08cddf3bf4631c658b68ee6766a8e999467a641d7cb7aaaecec972103316bc27d95b96418349afc6298c259bb999c6e8f39a7217787ad53602be7c1472102e21c29b4a7eeace9c7a8cefb568ca00c86ff9bf5e79e07e5442c29d4a0950d0453ae"
          },
          "sequence": 4294967295
        }
      ],
      "vout": [
        {
          "value": 1.99,
          "n": 0,
          "scriptPubKey": {
            "asm": "OP_HASH160 fe5cc5d87e3348a5f3eaa316898a0f05d520876e OP_EQUAL",
            "hex": "a914fe5cc5d87e3348a5f3eaa316898a0f05d520876e87",
            "reqSigs": 1,
            "type": "scripthash",
            "addresses": [
              "2NGSAkyhiWMZPcrfiwmcRWf9HQgpsiRGKv4"
            ]
          }
        }
      ]
    },
    "inputs": [
      {
        "hex": "01000000012cb69429f3e2896e48d7f1617de35b9442db6ee75a8eb4cf301199e2b6d7b1bb000000006b483045022100920557f01c8498fc3cb5e1790fa8fae9b11708630a66fe6e4f53fa68354ba7d502205ed2431b9da5db41c76e173e1e22b5f35c10186e766e8a6d29429066147d95d3012102c3493991faf332e9da95642b90ca7a1193c3ccb6066299438aa3ce44d674a678feffffff0200e1f5050000000017a914fe5cc5d87e3348a5f3eaa316898a0f05d520876e87004425bebc1600001976a9145159d2c491c35615f29c3be2975f5d78d4801d8688ac2c010000",
        "txid": "0e7cd17eaf374f5f42d896155b8ebd267ea9faa2bf215517fd463240b5f23e7e",
        "hash": "0e7cd17eaf374f5f42d896155b8ebd267ea9faa2bf215517fd463240b5f23e7e",
        "size": 224,
        "vsize": 224,
        "version": 1,
        "locktime": 300,
        "vin": [
          {
            "txid": "bbb1d7b6e2991130cfb48e5ae76edb42945be37d61f1d7486e89e2f32994b62c",
            "vout": 0,
            "scriptSig": {
              "asm": "3045022100920557f01c8498fc3cb5e1790fa8fae9b11708630a66fe6e4f53fa68354ba7d502205ed2431b9da5db41c76e173e1e22b5f35c10186e766e8a6d29429066147d95d3[ALL] 02c3493991faf332e9da95642b90ca7a1193c3ccb6066299438aa3ce44d674a678",
              "hex": "483045022100920557f01c8498fc3cb5e1790fa8fae9b11708630a66fe6e4f53fa68354ba7d502205ed2431b9da5db41c76e173e1e22b5f35c10186e766e8a6d29429066147d95d3012102c3493991faf332e9da95642b90ca7a1193c3ccb6066299438aa3ce44d674a678"
            },
            "sequence": 4294967294
          }
        ],
        "vout": [
          {
            "value": 1,
            "n": 0,
            "scriptPubKey": {
              "asm": "OP_HASH160 fe5cc5d87e3348a5f3eaa316898a0f05d520876e OP_EQUAL",
              "hex": "a914fe5cc5d87e3348a5f3eaa316898a0f05d520876e87",
              "reqSigs": 1,
              "type": "scripthash",
              "addresses": [
                "2NGSAkyhiWMZPcrfiwmcRWf9HQgpsiRGKv4"
              ]
            }
          },
          {
            "value": 249998.99776,
            "n": 1,
            "scriptPubKey": {
              "asm": "OP_DUP OP_HASH160 5159d2c491c35615f29c3be2975f5d78d4801d86 OP_EQUALVERIFY OP_CHECKSIG",
              "hex": "76a9145159d2c491c35615f29c3be2975f5d78d4801d8688ac",
              "reqSigs": 1,
              "type": "pubkeyhash",
              "addresses": [
                "nbcJbqphvpic4RZCBBAWaHbVwCXDQFuXVR"
              ]
            }
          }
        ]
      },
      {
        "hex": "01000000011293de1c88c7abde5cf361b218be430af8cb529e10bc677de6b936b1af2ea170000000006b483045022100defd6abc3bf7132c39e411cadb71b3457b5c4f3e3191268245a308e5490162d602207d8ac36028646f5ebb6200ffcc082fa2cb3e71521e3ebe778235957548e4c6c7012102c3493991faf332e9da95642b90ca7a1193c3ccb6066299438aa3ce44d674a678feffffff02004425bebc1600001976a9147267f1b082a520be0f41572d34ff40c9654abce888ac00e1f5050000000017a914fe5cc5d87e3348a5f3eaa316898a0f05d520876e872c010000",
        "txid": "20c4a6697cbf3bb1fe3ffbe1343c3d4f7fe7d7d3fafe52d71f517638dfa092d8",
        "hash": "20c4a6697cbf3bb1fe3ffbe1343c3d4f7fe7d7d3fafe52d71f517638dfa092d8",
        "size": 224,
        "vsize": 224,
        "version": 1,
        "locktime": 300,
        "vin": [
          {
            "txid": "70a12eafb136b9e67d67bc109e52cbf80a43be18b261f35cdeabc7881cde9312",
            "vout": 0,
            "scriptSig": {
              "asm": "3045022100defd6abc3bf7132c39e411cadb71b3457b5c4f3e3191268245a308e5490162d602207d8ac36028646f5ebb6200ffcc082fa2cb3e71521e3ebe778235957548e4c6c7[ALL] 02c3493991faf332e9da95642b90ca7a1193c3ccb6066299438aa3ce44d674a678",
              "hex": "483045022100defd6abc3bf7132c39e411cadb71b3457b5c4f3e3191268245a308e5490162d602207d8ac36028646f5ebb6200ffcc082fa2cb3e71521e3ebe778235957548e4c6c7012102c3493991faf332e9da95642b90ca7a1193c3ccb6066299438aa3ce44d674a678"
            },
            "sequence": 4294967294
          }
        ],
        "vout": [
          {
            "value": 249998.99776,
            "n": 0,
            "scriptPubKey": {
              "asm": "OP_DUP OP_HASH160 7267f1b082a520be0f41572d34ff40c9654abce8 OP_EQUALVERIFY OP_CHECKSIG",
              "hex": "76a9147267f1b082a520be0f41572d34ff40c9654abce888ac",
              "reqSigs": 1,
              "type": "pubkeyhash",
              "addresses": [
                "ned5pJVv8Rtpyu3DXWWJzx19JioTHi9xRh"
              ]
            }
          },
          {
            "value": 1,
            "n": 1,
            "scriptPubKey": {
              "asm": "OP_HASH160 fe5cc5d87e3348a5f3eaa316898a0f05d520876e OP_EQUAL",
              "hex": "a914fe5cc5d87e3348a5f3eaa316898a0f05d520876e87",
              "reqSigs": 1,
              "type": "scripthash",
              "addresses": [
                "2NGSAkyhiWMZPcrfiwmcRWf9HQgpsiRGKv4"
              ]
            }
          }
        ]
      }
    ]
}
