{
  "transaction": {
    "txid": "f600d414df3cdcd77895b54c689d2ac770c43b097615c1cd85a84f7cd3730a10",
    "version": 2,
    "type": 0,
    "size": 223,
    "locktime": 300,
    "vin": [
      {
        "txid": "783ab2773b201f1e4887fa426cbb9f52f0a6a9a401ddf6e00adc65f9712ca146",
        "vout": 0,
        "scriptSig": {
          "asm": "30440220385aa6f19e58e09e5f6e5f61e00dd677391360b4d77859b946de6bef2bc806d402201e81dc3ce7f61d57d1ecbb044924f77a9ff4f9b49b454395c9a8ed6fa23ca5d4[ALL] 02ab4c39918f03dcded2b271807d2e37036b2e7359c059cfec69e826d068a189c0",
          "hex": "4730440220385aa6f19e58e09e5f6e5f61e00dd677391360b4d77859b946de6bef2bc806d402201e81dc3ce7f61d57d1ecbb044924f77a9ff4f9b49b454395c9a8ed6fa23ca5d4012102ab4c39918f03dcded2b271807d2e37036b2e7359c059cfec69e826d068a189c0"
        },
        "sequence": 4294967294
      }
    ],
    "vout": [
      {
        "value": 1,
        "valueSat": 100000000,
        "n": 0,
        "scriptPubKey": {
          "asm": "OP_HASH160 fe5cc5d87e3348a5f3eaa316898a0f05d520876e OP_EQUAL",
          "hex": "a914fe5cc5d87e3348a5f3eaa316898a0f05d520876e87",
          "reqSigs": 1,
          "type": "scripthash",
          "addresses": [
            "93cQUkwiqRYJs8zPcWf1gTy31QDutzTfz8"
          ]
        }
      },
      {
        "value": 463.28571205,
        "valueSat": 46328571205,
        "n": 1,
        "scriptPubKey": {
          "asm": "OP_DUP OP_HASH160 b89a2ed165cff6128113cfcd165a62abc279df1e OP_EQUALVERIFY OP_CHECKSIG",
          "hex": "76a914b89a2ed165cff6128113cfcd165a62abc279df1e88ac",
          "reqSigs": 1,
          "type": "pubkeyhash",
          "addresses": [
            "yd9XtKBisrPagNNJoWHnofQX9MZH25nFHk"
          ]
        }
      }
    ],
    "hex": "020000000146a12c71f965dc0ae0f6dd01a4a9a6f0529fbb6c42fa87481e1f203b77b23a78000000006a4730440220385aa6f19e58e09e5f6e5f61e00dd677391360b4d77859b946de6bef2bc806d402201e81dc3ce7f61d57d1ecbb044924f77a9ff4f9b49b454395c9a8ed6fa23ca5d4012102ab4c39918f03dcded2b271807d2e37036b2e7359c059cfec69e826d068a189c0feffffff0200e1f5050000000017a914fe5cc5d87e3348a5f3eaa316898a0f05d520876e8745e565c90a0000001976a914b89a2ed165cff6128113cfcd165a62abc279df1e88ac2c010000",
    "instantlock": false,
    "instantlock_internal": false,
    "chainlock": false
  },
  "inputs": [
    {
      "txid": "783ab2773b201f1e4887fa426cbb9f52f0a6a9a401ddf6e00adc65f9712ca146",
      "version": 2,
      "type": 0,
      "size": 90,
      "locktime": 0,
      "vin": [
        {
          "coinbase": "02b4000101",
          "sequence": 4294967295
        }
      ],
      "vout": [
        {
          "value": 464.28571429,
          "valueSat": 46428571429,
          "n": 0,
          "scriptPubKey": {
            "asm": "OP_DUP OP_HASH160 786a53e659f2cac4fd7fb4e38ce1b847c337baf5 OP_EQUALVERIFY OP_CHECKSIG",
            "hex": "76a914786a53e659f2cac4fd7fb4e38ce1b847c337baf588ac",
            "reqSigs": 1,
            "type": "pubkeyhash",
            "addresses": [
              "yXJ9K18sSpWAXzh7RD9oR6KWiHARQ8iEYE"
            ]
          }
        }
      ],
      "hex": "02000000010000000000000000000000000000000000000000000000000000000000000000ffffffff0502b4000101ffffffff0125c75bcf0a0000001976a914786a53e659f2cac4fd7fb4e38ce1b847c337baf588ac00000000",
      "blockhash": "4075b8f95ea4eaee2ba536263f172682e9f9ea88f3c9ad62c0d13691e710b8d2",
      "height": 180,
      "confirmations": 121,
      "time": 1635930578,
      "blocktime": 1635930578,
      "instantlock": false,
      "instantlock_internal": false,
      "chainlock": false
    }
  ]
}