{
  "transaction": {
    "txid": "7b21e6828aedaa3b9009ec4493b4ce34eec1d7ad9a096b565fba0aefb0c33bf8",
    "version": 2,
    "type": 0,
    "size": 225,
    "locktime": 300,
    "vin": [
      {
        "txid": "c6f12ea9c8653386f1e9115230bcf65e613d5a02992a3d96a5227b120fb66940",
        "vout": 0,
        "scriptSig": {
          "asm": "3044022014d098a917f66d8b1bc3fa4138ee67aa5c5808f5aed16fc841c6664b45de2663022020ec8c58247c83bc0355bb33091f00b81e531f79fd2a08d1ca16be65160edf03[ALL] 02ab4c39918f03dcded2b271807d2e37036b2e7359c059cfec69e826d068a189c0",
          "hex": "473044022014d098a917f66d8b1bc3fa4138ee67aa5c5808f5aed16fc841c6664b45de2663022020ec8c58247c83bc0355bb33091f00b81e531f79fd2a08d1ca16be65160edf03012102ab4c39918f03dcded2b271807d2e37036b2e7359c059cfec69e826d068a189c0"
        },
        "sequence": 4294967294
      }
    ],
    "vout": [
      {
        "value": 1,
        "valueSat": 100000000,
        "n": 0,
        "scriptPubKey": {
          "asm": "OP_DUP OP_HASH160 d2eb140d8b7006e7b862827043f9cddd50da9811 OP_EQUALVERIFY OP_CHECKSIG",
          "hex": "76a914d2eb140d8b7006e7b862827043f9cddd50da981188ac",
          "reqSigs": 1,
          "type": "pubkeyhash",
          "addresses": [
            "yfYgN1u1AxzV3XaKn23cDmfQ6RnpuuHQHk"
          ]
        }
      },
      {
        "value": 463.28571203,
        "valueSat": 46328571203,
        "n": 1,
        "scriptPubKey": {
          "asm": "OP_DUP OP_HASH160 3e44df7920708d40084af63f527b6f6dc8af8e38 OP_EQUALVERIFY OP_CHECKSIG",
          "hex": "76a9143e44df7920708d40084af63f527b6f6dc8af8e3888ac",
          "reqSigs": 1,
          "type": "pubkeyhash",
          "addresses": [
            "yRzhFUMZUao3ifzgKEAXWHF26UztfDt19J"
          ]
        }
      }
    ],
    "hex": "02000000014069b60f127b22a5963d2a99025a3d615ef6bc305211e9f1863365c8a92ef1c6000000006a473044022014d098a917f66d8b1bc3fa4138ee67aa5c5808f5aed16fc841c6664b45de2663022020ec8c58247c83bc0355bb33091f00b81e531f79fd2a08d1ca16be65160edf03012102ab4c39918f03dcded2b271807d2e37036b2e7359c059cfec69e826d068a189c0feffffff0200e1f505000000001976a914d2eb140d8b7006e7b862827043f9cddd50da981188ac43e565c90a0000001976a9143e44df7920708d40084af63f527b6f6dc8af8e3888ac2c010000",
    "instantlock": false,
    "instantlock_internal": false,
    "chainlock": false
  },
  "inputs": [
    {
      "txid": "c6f12ea9c8653386f1e9115230bcf65e613d5a02992a3d96a5227b120fb66940",
      "version": 2,
      "type": 0,
      "size": 90,
      "locktime": 0,
      "vin": [
        {
          "coinbase": "0297000101",
          "sequence": 4294967295
        }
      ],
      "vout": [
        {
          "value": 464.28571429,
          "valueSat": 46428571429,
          "n": 0,
          "scriptPubKey": {
            "asm": "OP_DUP OP_HASH160 786a53e659f2cac4fd7fb4e38ce1b847c337baf5 OP_EQUALVERIFY OP_CHECKSIG",
            "hex": "76a914786a53e659f2cac4fd7fb4e38ce1b847c337baf588ac",
            "reqSigs": 1,
            "type": "pubkeyhash",
            "addresses": [
              "yXJ9K18sSpWAXzh7RD9oR6KWiHARQ8iEYE"
            ]
          }
        }
      ],
      "hex": "02000000010000000000000000000000000000000000000000000000000000000000000000ffffffff050297000101ffffffff0125c75bcf0a0000001976a914786a53e659f2cac4fd7fb4e38ce1b847c337baf588ac00000000",
      "blockhash": "07d3b0b48986099e74175be092f096fa2e6e65a881e97154d3813d116761a51f",
      "height": 151,
      "confirmations": 150,
      "time": 1635930573,
      "blocktime": 1635930573,
      "instantlock": false,
      "instantlock_internal": false,
      "chainlock": false
    }
  ]
}