{
  "txid": "9b08719337a0b0b0d286d9a99576e8251e9cc6d6e452f36211e52734c32d8e35",
  "version": 2,
  "type": 0,
  "size": 223,
  "locktime": 300,
  "vin": [
    {
      "txid": "520f0db2d2cd1dfbd77cd3d6cf9a9e1286c7732b4823b364cb8e56c68a28f34c",
      "vout": 0,
      "scriptSig": {
        "asm": "30440220094b5b86102d02667086c46c85343c3a489239d445db079d5c9b0c478c98bbc302203fc3f91d97ec0c2551c6cbb0a704ae6e4ffb9b9100b537c5fff7ec8d75c54523[ALL] 0389975985c7b69e12e8bf25b87e125be0068ea62beca0f42d96cefc6ae44f596d",
        "hex": "4730440220094b5b86102d02667086c46c85343c3a489239d445db079d5c9b0c478c98bbc302203fc3f91d97ec0c2551c6cbb0a704ae6e4ffb9b9100b537c5fff7ec8d75c5452301210389975985c7b69e12e8bf25b87e125be0068ea62beca0f42d96cefc6ae44f596d"
      },
      "sequence": 4294967294
    }
  ],
  "vout": [
    {
      "value": 1,
      "valueSat": 100000000,
      "n": 0,
      "scriptPubKey": {
        "asm": "OP_HASH160 fe5cc5d87e3348a5f3eaa316898a0f05d520876e OP_EQUAL",
        "hex": "a914fe5cc5d87e3348a5f3eaa316898a0f05d520876e87",
        "reqSigs": 1,
        "type": "scripthash",
        "addresses": [
          "93cQUkwiqRYJs8zPcWf1gTy31QDutzTfz8"
        ]
      }
    },
    {
      "value": 463.28571205,
      "valueSat": 46328571205,
      "n": 1,
      "scriptPubKey": {
        "asm": "OP_DUP OP_HASH160 9cdc532c0856d9bcbcf0f7b9864c8c1915ffe97c OP_EQUALVERIFY OP_CHECKSIG",
        "hex": "76a9149cdc532c0856d9bcbcf0f7b9864c8c1915ffe97c88ac",
        "reqSigs": 1,
        "type": "pubkeyhash",
        "addresses": [
          "yacrCa31GvMrdgJyDvS6Acan2qZXtQnySn"
        ]
      }
    }
  ],
  "hex": "02000000014cf3288ac6568ecb64b323482b73c786129e9acfd6d37cd7fb1dcdd2b20d0f52000000006a4730440220094b5b86102d02667086c46c85343c3a489239d445db079d5c9b0c478c98bbc302203fc3f91d97ec0c2551c6cbb0a704ae6e4ffb9b9100b537c5fff7ec8d75c5452301210389975985c7b69e12e8bf25b87e125be0068ea62beca0f42d96cefc6ae44f596dfeffffff0200e1f5050000000017a914fe5cc5d87e3348a5f3eaa316898a0f05d520876e8745e565c90a0000001976a9149cdc532c0856d9bcbcf0f7b9864c8c1915ffe97c88ac2c010000",
  "instantlock": false,
  "instantlock_internal": false,
  "chainlock": false
}