{
  "transaction": {
    "txid": "f204682b429d6f5defb77bc83159ae96085167794840a2ed147af3479f482bf8",
    "version": 2,
    "type": 0,
    "size": 226,
    "locktime": 300,
    "vin": [
      {
        "txid": "c7bc66cda74a4113c2b4258fbf879c3664701f8dc3b88d2622907d06a276c7a3",
        "vout": 0,
        "scriptSig": {
          "asm": "3045022100b7c541c5914ea67d2d95c94303dc1497bc47aa9e1525ee66f7f4563a78a94f90022077c5f58cd8a91cd74b4866544c571c09a93fc2e862b2684c02edde487d7afd2f[ALL] 02af5d5d2e0756a4e6076d057aff76e05862720ab1661ac139553f29af8d7edac9",
          "hex": "483045022100b7c541c5914ea67d2d95c94303dc1497bc47aa9e1525ee66f7f4563a78a94f90022077c5f58cd8a91cd74b4866544c571c09a93fc2e862b2684c02edde487d7afd2f012102af5d5d2e0756a4e6076d057aff76e05862720ab1661ac139553f29af8d7edac9"
        },
        "sequence": 4294967294
      }
    ],
    "vout": [
      {
        "value": 1,
        "valueSat": 100000000,
        "n": 0,
        "scriptPubKey": {
          "asm": "OP_DUP OP_HASH160 d2eb140d8b7006e7b862827043f9cddd50da9811 OP_EQUALVERIFY OP_CHECKSIG",
          "hex": "76a914d2eb140d8b7006e7b862827043f9cddd50da981188ac",
          "reqSigs": 1,
          "type": "pubkeyhash",
          "addresses": [
            "yfYgN1u1AxzV3XaKn23cDmfQ6RnpuuHQHk"
          ]
        }
      },
      {
        "value": 463.28571203,
        "valueSat": 46328571203,
        "n": 1,
        "scriptPubKey": {
          "asm": "OP_DUP OP_HASH160 3c2982f67f9201f7c3f4c543a8312aa61dc89899 OP_EQUALVERIFY OP_CHECKSIG",
          "hex": "76a9143c2982f67f9201f7c3f4c543a8312aa61dc8989988ac",
          "reqSigs": 1,
          "type": "pubkeyhash",
          "addresses": [
            "yRoZ7zEWdK1RRZQYchCVcHDn9Xbej4fjmZ"
          ]
        }
      }
    ],
    "hex": "0200000001a3c776a2067d9022268db8c38d1f7064369c87bf8f25b4c213414aa7cd66bcc7000000006b483045022100b7c541c5914ea67d2d95c94303dc1497bc47aa9e1525ee66f7f4563a78a94f90022077c5f58cd8a91cd74b4866544c571c09a93fc2e862b2684c02edde487d7afd2f012102af5d5d2e0756a4e6076d057aff76e05862720ab1661ac139553f29af8d7edac9feffffff0200e1f505000000001976a914d2eb140d8b7006e7b862827043f9cddd50da981188ac43e565c90a0000001976a9143c2982f67f9201f7c3f4c543a8312aa61dc8989988ac2c010000",
    "instantlock": false,
    "instantlock_internal": false,
    "chainlock": false
  },
  "inputs": [
    {
      "txid": "c7bc66cda74a4113c2b4258fbf879c3664701f8dc3b88d2622907d06a276c7a3",
      "version": 2,
      "type": 0,
      "size": 90,
      "locktime": 0,
      "vin": [
        {
          "coinbase": "02af000101",
          "sequence": 4294967295
        }
      ],
      "vout": [
        {
          "value": 464.28571429,
          "valueSat": 46428571429,
          "n": 0,
          "scriptPubKey": {
            "asm": "OP_DUP OP_HASH160 4adefceea21b16d839e3dc370f84a3c759a52891 OP_EQUALVERIFY OP_CHECKSIG",
            "hex": "76a9144adefceea21b16d839e3dc370f84a3c759a5289188ac",
            "reqSigs": 1,
            "type": "pubkeyhash",
            "addresses": [
              "yT9Kysr9c6MQCJRX9rtGykj1sAG6nfKx3S"
            ]
          }
        }
      ],
      "hex": "02000000010000000000000000000000000000000000000000000000000000000000000000ffffffff0502af000101ffffffff0125c75bcf0a0000001976a9144adefceea21b16d839e3dc370f84a3c759a5289188ac00000000",
      "blockhash": "07e55d72f0f06024a9c90d4b149326a86aa59e6c1ddbb247cf7d9d7af6a03174",
      "height": 175,
      "confirmations": 126,
      "time": 1628762045,
      "blocktime": 1628762045,
      "instantlock": false,
      "instantlock_internal": false,
      "chainlock": false
    }
  ]
}