{
  "txid": "eed23dcc00eb4b650b95be6018a05ea0acffb22645372b18ae1e88f647ae8202",
  "version": 2,
  "type": 0,
  "size": 226,
  "locktime": 300,
  "vin": [
    {
      "txid": "4755720ed191ddc72e9ad164f940ca2c0fdb00fe9d6b026a1335a69cdda82b61",
      "vout": 0,
      "scriptSig": {
        "asm": "3045022100d86634efd41f07b4b018a159fe071880550f1d1ccc70c319ff6c43a7e73739c102200e41b48dd599f46b1cb7c6b5752b881fcf0292a934df8fbb20fb5b4b2097c7d3[ALL] 0389975985c7b69e12e8bf25b87e125be0068ea62beca0f42d96cefc6ae44f596d",
        "hex": "483045022100d86634efd41f07b4b018a159fe071880550f1d1ccc70c319ff6c43a7e73739c102200e41b48dd599f46b1cb7c6b5752b881fcf0292a934df8fbb20fb5b4b2097c7d301210389975985c7b69e12e8bf25b87e125be0068ea62beca0f42d96cefc6ae44f596d"
      },
      "sequence": 4294967294
    }
  ],
  "vout": [
    {
      "value": 1,
      "valueSat": 100000000,
      "n": 0,
      "scriptPubKey": {
        "asm": "OP_DUP OP_HASH160 d2eb140d8b7006e7b862827043f9cddd50da9811 OP_EQUALVERIFY OP_CHECKSIG",
        "hex": "76a914d2eb140d8b7006e7b862827043f9cddd50da981188ac",
        "reqSigs": 1,
        "type": "pubkeyhash",
        "addresses": [
          "yfYgN1u1AxzV3XaKn23cDmfQ6RnpuuHQHk"
        ]
      }
    },
    {
      "value": 463.28571203,
      "valueSat": 46328571203,
      "n": 1,
      "scriptPubKey": {
        "asm": "OP_DUP OP_HASH160 3758cd982eb08433400985c822713f2c3e52bdf6 OP_EQUALVERIFY OP_CHECKSIG",
        "hex": "76a9143758cd982eb08433400985c822713f2c3e52bdf688ac",
        "reqSigs": 1,
        "type": "pubkeyhash",
        "addresses": [
          "yRN6PuEyKpWAS7Bweoc9JPBPUxtHwfzqzj"
        ]
      }
    }
  ],
  "hex": "0200000001612ba8dd9ca635136a026b9dfe00db0f2cca40f964d19a2ec7dd91d10e725547000000006b483045022100d86634efd41f07b4b018a159fe071880550f1d1ccc70c319ff6c43a7e73739c102200e41b48dd599f46b1cb7c6b5752b881fcf0292a934df8fbb20fb5b4b2097c7d301210389975985c7b69e12e8bf25b87e125be0068ea62beca0f42d96cefc6ae44f596dfeffffff0200e1f505000000001976a914d2eb140d8b7006e7b862827043f9cddd50da981188ac43e565c90a0000001976a9143758cd982eb08433400985c822713f2c3e52bdf688ac2c010000",
  "instantlock": false,
  "instantlock_internal": false,
  "chainlock": false
}