{
  "transaction": {
    "txid": "53d877b5eae221561d07bf3d22c3aa1ab96dd08d0085fa8b6fbfeef7f2cea15c",
    "version": 2,
    "type": 0,
    "size": 223,
    "locktime": 300,
    "vin": [
      {
        "txid": "8152e65244bb13bfd0f6edbd78c30914a4ce3d5dea5c4bdd02131ecb3f9255ff",
        "vout": 0,
        "scriptSig": {
          "asm": "3044022034ea6bebace24b6e9222b0c9239a6ac099cbb55f89c9d5f4f0a12544a29efc2d02201c0380836d1737eff21e6d94280ccb90a52d6e0c4b9332d513880b274b4c4097[ALL] 02af5d5d2e0756a4e6076d057aff76e05862720ab1661ac139553f29af8d7edac9",
          "hex": "473044022034ea6bebace24b6e9222b0c9239a6ac099cbb55f89c9d5f4f0a12544a29efc2d02201c0380836d1737eff21e6d94280ccb90a52d6e0c4b9332d513880b274b4c4097012102af5d5d2e0756a4e6076d057aff76e05862720ab1661ac139553f29af8d7edac9"
        },
        "sequence": 4294967294
      }
    ],
    "vout": [
      {
        "value": 1,
        "valueSat": 100000000,
        "n": 0,
        "scriptPubKey": {
          "asm": "OP_HASH160 fe5cc5d87e3348a5f3eaa316898a0f05d520876e OP_EQUAL",
          "hex": "a914fe5cc5d87e3348a5f3eaa316898a0f05d520876e87",
          "reqSigs": 1,
          "type": "scripthash",
          "addresses": [
            "93cQUkwiqRYJs8zPcWf1gTy31QDutzTfz8"
          ]
        }
      },
      {
        "value": 463.28571205,
        "valueSat": 46328571205,
        "n": 1,
        "scriptPubKey": {
          "asm": "OP_DUP OP_HASH160 6b1a15188d244d788bffc8339ccc60bc43b936a0 OP_EQUALVERIFY OP_CHECKSIG",
          "hex": "76a9146b1a15188d244d788bffc8339ccc60bc43b936a088ac",
          "reqSigs": 1,
          "type": "pubkeyhash",
          "addresses": [
            "yW5kPxzh5gi9WFU5xvscUhZw7LVcKtkjPB"
          ]
        }
      }
    ],
    "hex": "0200000001ff55923fcb1e1302dd4b5cea5d3dcea41409c378bdedf6d0bf13bb4452e65281000000006a473044022034ea6bebace24b6e9222b0c9239a6ac099cbb55f89c9d5f4f0a12544a29efc2d02201c0380836d1737eff21e6d94280ccb90a52d6e0c4b9332d513880b274b4c4097012102af5d5d2e0756a4e6076d057aff76e05862720ab1661ac139553f29af8d7edac9feffffff0200e1f5050000000017a914fe5cc5d87e3348a5f3eaa316898a0f05d520876e8745e565c90a0000001976a9146b1a15188d244d788bffc8339ccc60bc43b936a088ac2c010000",
    "instantlock": false,
    "instantlock_internal": false,
    "chainlock": false
  },
  "inputs": [
    {
      "txid": "8152e65244bb13bfd0f6edbd78c30914a4ce3d5dea5c4bdd02131ecb3f9255ff",
      "version": 2,
      "type": 0,
      "size": 90,
      "locktime": 0,
      "vin": [
        {
          "coinbase": "029c000101",
          "sequence": 4294967295
        }
      ],
      "vout": [
        {
          "value": 464.28571429,
          "valueSat": 46428571429,
          "n": 0,
          "scriptPubKey": {
            "asm": "OP_DUP OP_HASH160 4adefceea21b16d839e3dc370f84a3c759a52891 OP_EQUALVERIFY OP_CHECKSIG",
            "hex": "76a9144adefceea21b16d839e3dc370f84a3c759a5289188ac",
            "reqSigs": 1,
            "type": "pubkeyhash",
            "addresses": [
              "yT9Kysr9c6MQCJRX9rtGykj1sAG6nfKx3S"
            ]
          }
        }
      ],
      "hex": "02000000010000000000000000000000000000000000000000000000000000000000000000ffffffff05029c000101ffffffff0125c75bcf0a0000001976a9144adefceea21b16d839e3dc370f84a3c759a5289188ac00000000",
      "blockhash": "74a78e215d0b94e74562f7aae5725d50fde86b5b89f7774bc3f0e10a8355e76d",
      "height": 156,
      "confirmations": 145,
      "time": 1628762042,
      "blocktime": 1628762042,
      "instantlock": false,
      "instantlock_internal": false,
      "chainlock": false
    }
  ]
}