{
  "txid": "75439741a7e5c294f37dac17c4a6bd50102f0fa17694025022b89a6ad60f8468",
  "version": 1,
  "type": 0,
  "size": 335,
  "locktime": 0,
  "vin": [
    {
      "txid": "9b08719337a0b0b0d286d9a99576e8251e9cc6d6e452f36211e52734c32d8e35",
      "vout": 0,
      "scriptSig": {
        "asm": "0 30440220599f569031732f4da0b425cf37c9832b1d0f3b76946e8ca91cd1a9ff3b12db8302201e4819c7498fbee7aaa7e83e1f391ec891f6e851f42718a9017e44278e61d0b8[ALL] 304402200c9eb9ad657e51a8734979127870f78f8675ca77d31319dca31ac83fcc16142d022023717890eff5a5df07c2fd35c47a7b1c024903be54dbe8b2199f347dc5ad9d62[ALL] 5221028fedaf75b5b08cddf3bf4631c658b68ee6766a8e999467a641d7cb7aaaecec972103316bc27d95b96418349afc6298c259bb999c6e8f39a7217787ad53602be7c1472102e21c29b4a7eeace9c7a8cefb568ca00c86ff9bf5e79e07e5442c29d4a0950d0453ae",
        "hex": "004730440220599f569031732f4da0b425cf37c9832b1d0f3b76946e8ca91cd1a9ff3b12db8302201e4819c7498fbee7aaa7e83e1f391ec891f6e851f42718a9017e44278e61d0b80147304402200c9eb9ad657e51a8734979127870f78f8675ca77d31319dca31ac83fcc16142d022023717890eff5a5df07c2fd35c47a7b1c024903be54dbe8b2199f347dc5ad9d62014c695221028fedaf75b5b08cddf3bf4631c658b68ee6766a8e999467a641d7cb7aaaecec972103316bc27d95b96418349afc6298c259bb999c6e8f39a7217787ad53602be7c1472102e21c29b4a7eeace9c7a8cefb568ca00c86ff9bf5e79e07e5442c29d4a0950d0453ae"
      },
      "sequence": 4294967295
    }
  ],
  "vout": [
    {
      "value": 0.99999,
      "valueSat": 99999000,
      "n": 0,
      "scriptPubKey": {
        "asm": "OP_HASH160 fe5cc5d87e3348a5f3eaa316898a0f05d520876e OP_EQUAL",
        "hex": "a914fe5cc5d87e3348a5f3eaa316898a0f05d520876e87",
        "reqSigs": 1,
        "type": "scripthash",
        "addresses": [
          "93cQUkwiqRYJs8zPcWf1gTy31QDutzTfz8"
        ]
      }
    }
  ],
  "hex": "0100000001358e2dc33427e51162f352e4d6c69c1e25e87695a9d986d2b0b0a0379371089b00000000fc004730440220599f569031732f4da0b425cf37c9832b1d0f3b76946e8ca91cd1a9ff3b12db8302201e4819c7498fbee7aaa7e83e1f391ec891f6e851f42718a9017e44278e61d0b80147304402200c9eb9ad657e51a8734979127870f78f8675ca77d31319dca31ac83fcc16142d022023717890eff5a5df07c2fd35c47a7b1c024903be54dbe8b2199f347dc5ad9d62014c695221028fedaf75b5b08cddf3bf4631c658b68ee6766a8e999467a641d7cb7aaaecec972103316bc27d95b96418349afc6298c259bb999c6e8f39a7217787ad53602be7c1472102e21c29b4a7eeace9c7a8cefb568ca00c86ff9bf5e79e07e5442c29d4a0950d0453aeffffffff0118ddf5050000000017a914fe5cc5d87e3348a5f3eaa316898a0f05d520876e8700000000",
  "instantlock": false,
  "instantlock_internal": false,
  "chainlock": false
}