{
  "transaction": {
    "txid": "684efad41028e3089586ea09b56398d11038df58f7c9fa51baf50bc1d991fa75",
    "version": 1,
    "type": 0,
    "size": 339,
    "locktime": 0,
    "vin": [
      {
        "txid": "f600d414df3cdcd77895b54c689d2ac770c43b097615c1cd85a84f7cd3730a10",
        "vout": 0,
        "scriptSig": {
          "asm": "0 3045022100e9bb9b4bd227d0673ae89d1d67bd808abde8df9824859c31353b2fcd20b0dc5d0220179632f4756b6d98f3c5743f69048f2af4aab247ed4b89f912ad488acf336d00[ALL] 3045022100a6dce775fed913dc2fd47b25bf50cf2a934ec7d46f05a40f4b40b7958b26c8ff0220327c43dfdfdbef642d0f1247058ee31fc9509801e92bfaef03e1c36e872d72c2[ALL] 5221028fedaf75b5b08cddf3bf4631c658b68ee6766a8e999467a641d7cb7aaaecec972103316bc27d95b96418349afc6298c259bb999c6e8f39a7217787ad53602be7c1472102e21c29b4a7eeace9c7a8cefb568ca00c86ff9bf5e79e07e5442c29d4a0950d0453ae",
          "hex": "00483045022100e9bb9b4bd227d0673ae89d1d67bd808abde8df9824859c31353b2fcd20b0dc5d0220179632f4756b6d98f3c5743f69048f2af4aab247ed4b89f912ad488acf336d0001483045022100a6dce775fed913dc2fd47b25bf50cf2a934ec7d46f05a40f4b40b7958b26c8ff0220327c43dfdfdbef642d0f1247058ee31fc9509801e92bfaef03e1c36e872d72c2014c695221028fedaf75b5b08cddf3bf4631c658b68ee6766a8e999467a641d7cb7aaaecec972103316bc27d95b96418349afc6298c259bb999c6e8f39a7217787ad53602be7c1472102e21c29b4a7eeace9c7a8cefb568ca00c86ff9bf5e79e07e5442c29d4a0950d0453ae"
        },
        "sequence": 4294967295
      }
    ],
    "vout": [
      {
        "value": 0.99999,
        "valueSat": 99999000,
        "n": 0,
        "scriptPubKey": {
          "asm": "OP_HASH160 fe5cc5d87e3348a5f3eaa316898a0f05d520876e OP_EQUAL",
          "hex": "a914fe5cc5d87e3348a5f3eaa316898a0f05d520876e87",
          "reqSigs": 1,
          "type": "scripthash",
          "addresses": [
            "93cQUkwiqRYJs8zPcWf1gTy31QDutzTfz8"
          ]
        }
      }
    ],
    "hex": "0100000001100a73d37c4fa885cdc11576093bc470c72a9d684cb59578d7dc3cdf14d400f600000000fdfe0000483045022100e9bb9b4bd227d0673ae89d1d67bd808abde8df9824859c31353b2fcd20b0dc5d0220179632f4756b6d98f3c5743f69048f2af4aab247ed4b89f912ad488acf336d0001483045022100a6dce775fed913dc2fd47b25bf50cf2a934ec7d46f05a40f4b40b7958b26c8ff0220327c43dfdfdbef642d0f1247058ee31fc9509801e92bfaef03e1c36e872d72c2014c695221028fedaf75b5b08cddf3bf4631c658b68ee6766a8e999467a641d7cb7aaaecec972103316bc27d95b96418349afc6298c259bb999c6e8f39a7217787ad53602be7c1472102e21c29b4a7eeace9c7a8cefb568ca00c86ff9bf5e79e07e5442c29d4a0950d0453aeffffffff0118ddf5050000000017a914fe5cc5d87e3348a5f3eaa316898a0f05d520876e8700000000",
    "instantlock": false,
    "instantlock_internal": false,
    "chainlock": false
  },
  "inputs": [
    {
      "txid": "f600d414df3cdcd77895b54c689d2ac770c43b097615c1cd85a84f7cd3730a10",
      "version": 2,
      "type": 0,
      "size": 223,
      "locktime": 300,
      "vin": [
        {
          "txid": "783ab2773b201f1e4887fa426cbb9f52f0a6a9a401ddf6e00adc65f9712ca146",
          "vout": 0,
          "scriptSig": {
            "asm": "30440220385aa6f19e58e09e5f6e5f61e00dd677391360b4d77859b946de6bef2bc806d402201e81dc3ce7f61d57d1ecbb044924f77a9ff4f9b49b454395c9a8ed6fa23ca5d4[ALL] 02ab4c39918f03dcded2b271807d2e37036b2e7359c059cfec69e826d068a189c0",
            "hex": "4730440220385aa6f19e58e09e5f6e5f61e00dd677391360b4d77859b946de6bef2bc806d402201e81dc3ce7f61d57d1ecbb044924f77a9ff4f9b49b454395c9a8ed6fa23ca5d4012102ab4c39918f03dcded2b271807d2e37036b2e7359c059cfec69e826d068a189c0"
          },
          "sequence": 4294967294
        }
      ],
      "vout": [
        {
          "value": 1,
          "valueSat": 100000000,
          "n": 0,
          "scriptPubKey": {
            "asm": "OP_HASH160 fe5cc5d87e3348a5f3eaa316898a0f05d520876e OP_EQUAL",
            "hex": "a914fe5cc5d87e3348a5f3eaa316898a0f05d520876e87",
            "reqSigs": 1,
            "type": "scripthash",
            "addresses": [
              "93cQUkwiqRYJs8zPcWf1gTy31QDutzTfz8"
            ]
          }
        },
        {
          "value": 463.28571205,
          "valueSat": 46328571205,
          "n": 1,
          "scriptPubKey": {
            "asm": "OP_DUP OP_HASH160 b89a2ed165cff6128113cfcd165a62abc279df1e OP_EQUALVERIFY OP_CHECKSIG",
            "hex": "76a914b89a2ed165cff6128113cfcd165a62abc279df1e88ac",
            "reqSigs": 1,
            "type": "pubkeyhash",
            "addresses": [
              "yd9XtKBisrPagNNJoWHnofQX9MZH25nFHk"
            ]
          }
        }
      ],
      "hex": "020000000146a12c71f965dc0ae0f6dd01a4a9a6f0529fbb6c42fa87481e1f203b77b23a78000000006a4730440220385aa6f19e58e09e5f6e5f61e00dd677391360b4d77859b946de6bef2bc806d402201e81dc3ce7f61d57d1ecbb044924f77a9ff4f9b49b454395c9a8ed6fa23ca5d4012102ab4c39918f03dcded2b271807d2e37036b2e7359c059cfec69e826d068a189c0feffffff0200e1f5050000000017a914fe5cc5d87e3348a5f3eaa316898a0f05d520876e8745e565c90a0000001976a914b89a2ed165cff6128113cfcd165a62abc279df1e88ac2c010000",
      "instantlock": false,
      "instantlock_internal": false,
      "chainlock": false
    }
  ]
}