{
  "transaction": {
    "txid": "d596a9ca3053f6f0c1db742fea0879a12158b5d1814c31bffce941ab94499ea7",
    "version": 1,
    "type": 0,
    "size": 335,
    "locktime": 0,
    "vin": [
      {
        "txid": "53d877b5eae221561d07bf3d22c3aa1ab96dd08d0085fa8b6fbfeef7f2cea15c",
        "vout": 0,
        "scriptSig": {
          "asm": "0 304402202c0bc39ec0ab6414c6b1abddb0ca400112a5728d8dfc0fb1c4c74897bd64f3550220103b2e832759fcdec7c93f8d39afc583cd17912d7d47149585396dc9ffd2ccd3[ALL] 30440220613f027829f13236897f81c19286b0d6df9a729b5453b897c77f02d54a0ca487022060653eec25f943a991be0a3ed8cb8622d4e260adfbd12012e1a0dd302f1f1cce[ALL] 5221028fedaf75b5b08cddf3bf4631c658b68ee6766a8e999467a641d7cb7aaaecec972103316bc27d95b96418349afc6298c259bb999c6e8f39a7217787ad53602be7c1472102e21c29b4a7eeace9c7a8cefb568ca00c86ff9bf5e79e07e5442c29d4a0950d0453ae",
          "hex": "0047304402202c0bc39ec0ab6414c6b1abddb0ca400112a5728d8dfc0fb1c4c74897bd64f3550220103b2e832759fcdec7c93f8d39afc583cd17912d7d47149585396dc9ffd2ccd3014730440220613f027829f13236897f81c19286b0d6df9a729b5453b897c77f02d54a0ca487022060653eec25f943a991be0a3ed8cb8622d4e260adfbd12012e1a0dd302f1f1cce014c695221028fedaf75b5b08cddf3bf4631c658b68ee6766a8e999467a641d7cb7aaaecec972103316bc27d95b96418349afc6298c259bb999c6e8f39a7217787ad53602be7c1472102e21c29b4a7eeace9c7a8cefb568ca00c86ff9bf5e79e07e5442c29d4a0950d0453ae"
        },
        "sequence": 4294967295
      }
    ],
    "vout": [
      {
        "value": 0.99999,
        "valueSat": 99999000,
        "n": 0,
        "scriptPubKey": {
          "asm": "OP_HASH160 fe5cc5d87e3348a5f3eaa316898a0f05d520876e OP_EQUAL",
          "hex": "a914fe5cc5d87e3348a5f3eaa316898a0f05d520876e87",
          "reqSigs": 1,
          "type": "scripthash",
          "addresses": [
            "93cQUkwiqRYJs8zPcWf1gTy31QDutzTfz8"
          ]
        }
      }
    ],
    "hex": "01000000015ca1cef2f7eebf6f8bfa85008dd06db91aaac3223dbf071d5621e2eab577d85300000000fc0047304402202c0bc39ec0ab6414c6b1abddb0ca400112a5728d8dfc0fb1c4c74897bd64f3550220103b2e832759fcdec7c93f8d39afc583cd17912d7d47149585396dc9ffd2ccd3014730440220613f027829f13236897f81c19286b0d6df9a729b5453b897c77f02d54a0ca487022060653eec25f943a991be0a3ed8cb8622d4e260adfbd12012e1a0dd302f1f1cce014c695221028fedaf75b5b08cddf3bf4631c658b68ee6766a8e999467a641d7cb7aaaecec972103316bc27d95b96418349afc6298c259bb999c6e8f39a7217787ad53602be7c1472102e21c29b4a7eeace9c7a8cefb568ca00c86ff9bf5e79e07e5442c29d4a0950d0453aeffffffff0118ddf5050000000017a914fe5cc5d87e3348a5f3eaa316898a0f05d520876e8700000000",
    "instantlock": false,
    "instantlock_internal": false,
    "chainlock": false
  },
  "inputs": [
    {
      "txid": "53d877b5eae221561d07bf3d22c3aa1ab96dd08d0085fa8b6fbfeef7f2cea15c",
      "version": 2,
      "type": 0,
      "size": 223,
      "locktime": 300,
      "vin": [
        {
          "txid": "8152e65244bb13bfd0f6edbd78c30914a4ce3d5dea5c4bdd02131ecb3f9255ff",
          "vout": 0,
          "scriptSig": {
            "asm": "3044022034ea6bebace24b6e9222b0c9239a6ac099cbb55f89c9d5f4f0a12544a29efc2d02201c0380836d1737eff21e6d94280ccb90a52d6e0c4b9332d513880b274b4c4097[ALL] 02af5d5d2e0756a4e6076d057aff76e05862720ab1661ac139553f29af8d7edac9",
            "hex": "473044022034ea6bebace24b6e9222b0c9239a6ac099cbb55f89c9d5f4f0a12544a29efc2d02201c0380836d1737eff21e6d94280ccb90a52d6e0c4b9332d513880b274b4c4097012102af5d5d2e0756a4e6076d057aff76e05862720ab1661ac139553f29af8d7edac9"
          },
          "sequence": 4294967294
        }
      ],
      "vout": [
        {
          "value": 1,
          "valueSat": 100000000,
          "n": 0,
          "scriptPubKey": {
            "asm": "OP_HASH160 fe5cc5d87e3348a5f3eaa316898a0f05d520876e OP_EQUAL",
            "hex": "a914fe5cc5d87e3348a5f3eaa316898a0f05d520876e87",
            "reqSigs": 1,
            "type": "scripthash",
            "addresses": [
              "93cQUkwiqRYJs8zPcWf1gTy31QDutzTfz8"
            ]
          }
        },
        {
          "value": 463.28571205,
          "valueSat": 46328571205,
          "n": 1,
          "scriptPubKey": {
            "asm": "OP_DUP OP_HASH160 6b1a15188d244d788bffc8339ccc60bc43b936a0 OP_EQUALVERIFY OP_CHECKSIG",
            "hex": "76a9146b1a15188d244d788bffc8339ccc60bc43b936a088ac",
            "reqSigs": 1,
            "type": "pubkeyhash",
            "addresses": [
              "yW5kPxzh5gi9WFU5xvscUhZw7LVcKtkjPB"
            ]
          }
        }
      ],
      "hex": "0200000001ff55923fcb1e1302dd4b5cea5d3dcea41409c378bdedf6d0bf13bb4452e65281000000006a473044022034ea6bebace24b6e9222b0c9239a6ac099cbb55f89c9d5f4f0a12544a29efc2d02201c0380836d1737eff21e6d94280ccb90a52d6e0c4b9332d513880b274b4c4097012102af5d5d2e0756a4e6076d057aff76e05862720ab1661ac139553f29af8d7edac9feffffff0200e1f5050000000017a914fe5cc5d87e3348a5f3eaa316898a0f05d520876e8745e565c90a0000001976a9146b1a15188d244d788bffc8339ccc60bc43b936a088ac2c010000",
      "instantlock": false,
      "instantlock_internal": false,
      "chainlock": false
    }
  ]
}