{
  "transaction": {
    "txid": "9d9a192ca384ee8a1a282dcf3bb9f0af39dcdacfb22bd8a2f6d052a0ecacea67",
    "hash": "2b8775ed6ce3ff2aff7239a0e818bead5206aaa1952575425a87aec97c268963",
    "version": 2,
    "size": 234,
    "vsize": 153,
    "weight": 609,
    "locktime": 300,
    "vin": [
      {
        "txid": "73c62eb6c3dd936e720e9f7c3f32c75d4b42f51e6268a162d935e72ee78ebafb",
        "vout": 0,
        "scriptSig": {
          "asm": "",
          "hex": ""
        },
        "txinwitness": [
          "304402201f51de8f92656ca493fcc54d63ad82813e647dce8e1c40f830d9d0622bbe95e202207e4d9dee91ca1f9cda3a4c6f28699aeb304cb5d3adf1e6f1dc18796aaa5d5be001",
          "03c3f72c6385d661cc3aaec6b08f6aa8a81759977630fe5d0ade648ac96357d8f8"
        ],
        "sequence": 4294967294
      }
    ],
    "vout": [
      {
        "value": 23.9999847,
        "n": 0,
        "scriptPubKey": {
          "asm": "0 53369c250c4bc6fba16838c51ff8a3c39879823f",
          "hex": "001453369c250c4bc6fba16838c51ff8a3c39879823f",
          "reqSigs": 1,
          "type": "witness_v0_keyhash",
          "addresses": [
            "bcrt1q2vmfcfgvf0r0hgtg8rz3l79rcwv8nq3lyac9y8"
          ]
        }
      },
      {
        "value": 1,
        "n": 1,
        "scriptPubKey": {
          "asm": "1 c4e6bd0d13869e5810c2833896e96a37ad005f48fe7f3bed6d6ddb68e3bacbf8",
          "hex": "5120c4e6bd0d13869e5810c2833896e96a37ad005f48fe7f3bed6d6ddb68e3bacbf8",
          "reqSigs": 1,
          "type": "witness_v1_taproot",
          "addresses": [
            "bcrt1pcnnt6rgns609syxzsvufd6t2x7ksqh6glelnhmtddhdk3ca6e0uqnpgrud"
          ]
        }
      }
    ],
    "hex": "02000000000101fbba8ee72ee735d962a168621ef5424b5dc7323f7c9f0e726e93ddc3b62ec6730000000000feffffff0206120d8f0000000016001453369c250c4bc6fba16838c51ff8a3c39879823f00e1f50500000000225120c4e6bd0d13869e5810c2833896e96a37ad005f48fe7f3bed6d6ddb68e3bacbf80247304402201f51de8f92656ca493fcc54d63ad82813e647dce8e1c40f830d9d0622bbe95e202207e4d9dee91ca1f9cda3a4c6f28699aeb304cb5d3adf1e6f1dc18796aaa5d5be0012103c3f72c6385d661cc3aaec6b08f6aa8a81759977630fe5d0ade648ac96357d8f82c010000"
  },
  "inputs": [
    {
      "txid": "73c62eb6c3dd936e720e9f7c3f32c75d4b42f51e6268a162d935e72ee78ebafb",
      "hash": "0dd10d98df21bf4f7d67c23c562f27d5d268313fa40ad16016f83f1d058c308e",
      "version": 2,
      "size": 170,
      "vsize": 143,
      "weight": 572,
      "locktime": 0,
      "vin": [
        {
          "coinbase": "02a2000101",
          "txinwitness": [
            "0000000000000000000000000000000000000000000000000000000000000000"
          ],
          "sequence": 4294967295
        }
      ],
      "vout": [
        {
          "value": 25,
          "n": 0,
          "scriptPubKey": {
            "asm": "0 294f184433e8c7e3fb03f3f02df8c465653977d8",
            "hex": "0014294f184433e8c7e3fb03f3f02df8c465653977d8",
            "reqSigs": 1,
            "type": "witness_v0_keyhash",
            "addresses": [
              "bcrt1q9983s3pnarr787cr70czm7xyv4jnja7cs6rhes"
            ]
          }
        },
        {
          "value": 0,
          "n": 1,
          "scriptPubKey": {
            "asm": "OP_RETURN aa21a9ede2f61c3f71d1defd3fa999dfa36953755c690689799962b48bebd836974e8cf9",
            "hex": "6a24aa21a9ede2f61c3f71d1defd3fa999dfa36953755c690689799962b48bebd836974e8cf9",
            "type": "nulldata"
          }
        }
      ],
      "hex": "020000000001010000000000000000000000000000000000000000000000000000000000000000ffffffff0502a2000101ffffffff0200f9029500000000160014294f184433e8c7e3fb03f3f02df8c465653977d80000000000000000266a24aa21a9ede2f61c3f71d1defd3fa999dfa36953755c690689799962b48bebd836974e8cf90120000000000000000000000000000000000000000000000000000000000000000000000000",
      "blockhash": "53175e595462d023a71fad3f7a7927320f9ef0a4b9d6611d1871cac31351e231",
      "confirmations": 139,
      "time": 1635930561,
      "blocktime": 1635930561
    }
  ]
}