{
  "transaction": {
    "txid": "da35718cf5b65507dc005d90b2c07b51dedae8c7500f3d1247294ecf6c8e039a",
    "hash": "f24c3e34e3730fb583df6d5d0fae83eabe31db2dd7e9a20f3073dc059ac58095",
    "version": 2,
    "size": 234,
    "vsize": 153,
    "weight": 609,
    "locktime": 0,
    "vin": [
      {
        "txid": "baade7118d7248348529b7a02ffb3520c790cac692250098fa01cf4d353014b4",
        "vout": 0,
        "scriptSig": {
          "asm": "",
          "hex": ""
        },
        "txinwitness": [
          "304402205b9b70764aecf7f356dde145d2db1d2005947f2f1f3b98a8e476602108624b4802200f434c1bc8bda35353ed85ff73418897028f9d3e505bc0ca0edf86a9079ca14601",
          "02c9ceb1981e83aa724b6af1973ce9c698a6ce2268aae7f98f9489d043c038d21f"
        ],
        "sequence": 4294967294
      }
    ],
    "vout": [
      {
        "value": 1,
        "n": 0,
        "scriptPubKey": {
          "asm": "1 c4e6bd0d13869e5810c2833896e96a37ad005f48fe7f3bed6d6ddb68e3bacbf8",
          "hex": "5120c4e6bd0d13869e5810c2833896e96a37ad005f48fe7f3bed6d6ddb68e3bacbf8",
          "address": "bcrt1pcnnt6rgns609syxzsvufd6t2x7ksqh6glelnhmtddhdk3ca6e0uqnpgrud",
          "type": "witness_v1_taproot"
        }
      },
      {
        "value": 22.9999694,
        "n": 1,
        "scriptPubKey": {
          "asm": "0 558ab1dbb81dbf4964e96a591587277a7991fd46",
          "hex": "0014558ab1dbb81dbf4964e96a591587277a7991fd46",
          "address": "bcrt1q2k9trkacrkl5je8fdfv3tpe80fuerl2x0v4s2j",
          "type": "witness_v0_keyhash"
        }
      }
    ],
    "hex": "02000000000101b41430354dcf01fa98002592c6ca90c72035fb2fa0b729853448728d11e7adba0000000000feffffff0200e1f50500000000225120c4e6bd0d13869e5810c2833896e96a37ad005f48fe7f3bed6d6ddb68e3bacbf80c2b178900000000160014558ab1dbb81dbf4964e96a591587277a7991fd460247304402205b9b70764aecf7f356dde145d2db1d2005947f2f1f3b98a8e476602108624b4802200f434c1bc8bda35353ed85ff73418897028f9d3e505bc0ca0edf86a9079ca146012102c9ceb1981e83aa724b6af1973ce9c698a6ce2268aae7f98f9489d043c038d21f00000000"
  },
  "inputs": [
    {
      "txid": "baade7118d7248348529b7a02ffb3520c790cac692250098fa01cf4d353014b4",
      "hash": "d8d5501ff98d9a242c800e585a2f76d07f635b759c921c1cb6dd9d216a0f3681",
      "version": 2,
      "size": 234,
      "vsize": 153,
      "weight": 609,
      "locktime": 252,
      "vin": [
        {
          "txid": "a0da541033ab785231515057012754ef2937d3c348f539ac81f71db3ad9d36bc",
          "vout": 0,
          "scriptSig": {
            "asm": "",
            "hex": ""
          },
          "txinwitness": [
            "3044022063ce944947492b620506faf447674b6788d34904b84ee02760afaf14be90d5cb02200244cb0839fa78d182895b476cac6f1059b4baeb98165fec253528c6af76497701",
            "02ae597cf4b73d83809179eb68a5c88939491385da51b927644a45166dd947a09c"
          ],
          "sequence": 4294967294
        }
      ],
      "vout": [
        {
          "value": 23.9999847,
          "n": 0,
          "scriptPubKey": {
            "asm": "0 3b25283119c13468a41c566d619f10d49aed4f0d",
            "hex": "00143b25283119c13468a41c566d619f10d49aed4f0d",
            "address": "bcrt1q8vjjsvgecy6x3fqu2ekkr8cs6jdw6ncdd3f4tr",
            "type": "witness_v0_keyhash"
          }
        },
        {
          "value": 1,
          "n": 1,
          "scriptPubKey": {
            "asm": "0 1553f31a3e25e770b7bc857b82909e83734dbfe4bcdb5a5e6fc419b6920c398a",
            "hex": "00201553f31a3e25e770b7bc857b82909e83734dbfe4bcdb5a5e6fc419b6920c398a",
            "address": "bcrt1qz4flxx37yhnhpdaus4ac9yy7sde5m0lyhnd45hn0csvmdysv8x9qr7gzry",
            "type": "witness_v0_scripthash"
          }
        }
      ],
      "hex": "02000000000101bc369dadb31df781ac39f548c3d33729ef542701575051315278ab331054daa00000000000feffffff0206120d8f000000001600143b25283119c13468a41c566d619f10d49aed4f0d00e1f505000000002200201553f31a3e25e770b7bc857b82909e83734dbfe4bcdb5a5e6fc419b6920c398a02473044022063ce944947492b620506faf447674b6788d34904b84ee02760afaf14be90d5cb02200244cb0839fa78d182895b476cac6f1059b4baeb98165fec253528c6af764977012102ae597cf4b73d83809179eb68a5c88939491385da51b927644a45166dd947a09cfc000000"
    }
  ]
}