{
  "transaction": {
    "txid": "26e2ef240f892ccca98f44084fbb4562f83dfdd3d3760acdcce2d1ea9e2a0307",
    "hash": "d390f53644ae66c3b13dcd5f6bce5be1a13b48092dc1aa8e165933e121d32931",
    "version": 2,
    "size": 234,
    "vsize": 153,
    "weight": 609,
    "locktime": 300,
    "vin": [
      {
        "txid": "90a82a17daf2845e4822ae17d10bc82298dbdbdbaf1f66f6bf1346ad52f2ca05",
        "vout": 0,
        "scriptSig": {
          "asm": "",
          "hex": ""
        },
        "txinwitness": [
          "30440220159a9ef584a8447b37e9943846ba5f39f3a46152b158c323b47eb23df68664b702200acf7a9415e1d6f8fb7e1cd9c11fd1df51e41d106f5bc4a23d4718025d914b0501",
          "03c3f72c6385d661cc3aaec6b08f6aa8a81759977630fe5d0ade648ac96357d8f8"
        ],
        "sequence": 4294967294
      }
    ],
    "vout": [
      {
        "value": 1,
        "n": 0,
        "scriptPubKey": {
          "asm": "0 1553f31a3e25e770b7bc857b82909e83734dbfe4bcdb5a5e6fc419b6920c398a",
          "hex": "00201553f31a3e25e770b7bc857b82909e83734dbfe4bcdb5a5e6fc419b6920c398a",
          "reqSigs": 1,
          "type": "witness_v0_scripthash",
          "addresses": [
            "bcrt1qz4flxx37yhnhpdaus4ac9yy7sde5m0lyhnd45hn0csvmdysv8x9qr7gzry"
          ]
        }
      },
      {
        "value": 23.9999847,
        "n": 1,
        "scriptPubKey": {
          "asm": "0 f7702cfc1590b5ded5b8c3335172489e2e9465e6",
          "hex": "0014f7702cfc1590b5ded5b8c3335172489e2e9465e6",
          "reqSigs": 1,
          "type": "witness_v0_keyhash",
          "addresses": [
            "bcrt1q7aczelq4jz6aa4dccve4zujgnchfge0x6ujl6c"
          ]
        }
      }
    ],
    "hex": "0200000000010105caf252ad4613bff6661fafdbdbdb9822c80bd117ae22485e84f2da172aa8900000000000feffffff0200e1f505000000002200201553f31a3e25e770b7bc857b82909e83734dbfe4bcdb5a5e6fc419b6920c398a06120d8f00000000160014f7702cfc1590b5ded5b8c3335172489e2e9465e6024730440220159a9ef584a8447b37e9943846ba5f39f3a46152b158c323b47eb23df68664b702200acf7a9415e1d6f8fb7e1cd9c11fd1df51e41d106f5bc4a23d4718025d914b05012103c3f72c6385d661cc3aaec6b08f6aa8a81759977630fe5d0ade648ac96357d8f82c010000"
  },
  "inputs": [
    {
      "txid": "90a82a17daf2845e4822ae17d10bc82298dbdbdbaf1f66f6bf1346ad52f2ca05",
      "hash": "90feb89a67316ef4725616c44e9a64845f932edc69490093c165ab0310edd4f6",
      "version": 2,
      "size": 170,
      "vsize": 143,
      "weight": 572,
      "locktime": 0,
      "vin": [
        {
          "coinbase": "02bf000101",
          "txinwitness": [
            "0000000000000000000000000000000000000000000000000000000000000000"
          ],
          "sequence": 4294967295
        }
      ],
      "vout": [
        {
          "value": 25,
          "n": 0,
          "scriptPubKey": {
            "asm": "0 294f184433e8c7e3fb03f3f02df8c465653977d8",
            "hex": "0014294f184433e8c7e3fb03f3f02df8c465653977d8",
            "reqSigs": 1,
            "type": "witness_v0_keyhash",
            "addresses": [
              "bcrt1q9983s3pnarr787cr70czm7xyv4jnja7cs6rhes"
            ]
          }
        },
        {
          "value": 0,
          "n": 1,
          "scriptPubKey": {
            "asm": "OP_RETURN aa21a9ede2f61c3f71d1defd3fa999dfa36953755c690689799962b48bebd836974e8cf9",
            "hex": "6a24aa21a9ede2f61c3f71d1defd3fa999dfa36953755c690689799962b48bebd836974e8cf9",
            "type": "nulldata"
          }
        }
      ],
      "hex": "020000000001010000000000000000000000000000000000000000000000000000000000000000ffffffff0502bf000101ffffffff0200f9029500000000160014294f184433e8c7e3fb03f3f02df8c465653977d80000000000000000266a24aa21a9ede2f61c3f71d1defd3fa999dfa36953755c690689799962b48bebd836974e8cf90120000000000000000000000000000000000000000000000000000000000000000000000000",
      "blockhash": "27bd1fb9f5003936d255a670e16800ee994be8e951fdc671f8623a25ba0a456f",
      "confirmations": 110,
      "time": 1635930566,
      "blocktime": 1635930566
    }
  ]
}