{
  "transaction": {
    "txid": "452ae52a82a797f95c69bc62bc78ed754ad6bc710f86256f458fcf522cbb8112",
    "hash": "3cb2f0f9063bdabc6367a8a49bd6799d0aef624e41e0f3f841807463df4de770",
    "version": 2,
    "size": 225,
    "vsize": 144,
    "weight": 573,
    "locktime": 300,
    "vin": [
      {
        "txid": "69d71932dcf2519783964591871cae21ba65e29744a5e729624c07f40d29f8d9",
        "vout": 0,
        "scriptSig": {
          "asm": "",
          "hex": ""
        },
        "txinwitness": [
          "3044022036852b7f94b316e8a08a7c8ad9087d9f7f63fa7f3eda5f4942bf37214ed44ee502200975927aec4805e67c247c3f1b7ceab1b43c1c363fea0ff412373f9b878929ec01",
          "0349442be608b97b2d77180638a2ec2fe7c9be5074762a1b0e2d70fb19799f91d4"
        ],
        "sequence": 4294967294
      }
    ],
    "vout": [
      {
        "value": 1,
        "n": 0,
        "scriptPubKey": {
          "asm": "OP_DUP OP_HASH160 d2eb140d8b7006e7b862827043f9cddd50da9811 OP_EQUALVERIFY OP_CHECKSIG",
          "hex": "76a914d2eb140d8b7006e7b862827043f9cddd50da981188ac",
          "reqSigs": 1,
          "type": "pubkeyhash",
          "addresses": [
            "mzkBosFeajZ5KxXp4rPNA8maqoKUFiR7nY"
          ]
        }
      },
      {
        "value": 23.9999856,
        "n": 1,
        "scriptPubKey": {
          "asm": "0 b8e748d0fa2f08918dbfd480cc89244e2c6ba8fc",
          "hex": "0014b8e748d0fa2f08918dbfd480cc89244e2c6ba8fc",
          "reqSigs": 1,
          "type": "witness_v0_keyhash",
          "addresses": [
            "bcrt1qhrn535869uyfrrdl6jqvezfyfckxh28ur93ju4"
          ]
        }
      }
    ],
    "hex": "02000000000101d9f8290df4074c6229e7a54497e265ba21ae1c87914596839751f2dc3219d7690000000000feffffff0200e1f505000000001976a914d2eb140d8b7006e7b862827043f9cddd50da981188ac60120d8f00000000160014b8e748d0fa2f08918dbfd480cc89244e2c6ba8fc02473044022036852b7f94b316e8a08a7c8ad9087d9f7f63fa7f3eda5f4942bf37214ed44ee502200975927aec4805e67c247c3f1b7ceab1b43c1c363fea0ff412373f9b878929ec01210349442be608b97b2d77180638a2ec2fe7c9be5074762a1b0e2d70fb19799f91d42c010000"
  },
  "inputs": [
    {
      "txid": "69d71932dcf2519783964591871cae21ba65e29744a5e729624c07f40d29f8d9",
      "hash": "bfdc6ac6cbd2a3305e2dc1ff1a5bf5bb322ac59f7e4c9466864529588b9bf8db",
      "version": 2,
      "size": 170,
      "vsize": 143,
      "weight": 572,
      "locktime": 0,
      "vin": [
        {
          "coinbase": "02b6000101",
          "txinwitness": [
            "0000000000000000000000000000000000000000000000000000000000000000"
          ],
          "sequence": 4294967295
        }
      ],
      "vout": [
        {
          "value": 25,
          "n": 0,
          "scriptPubKey": {
            "asm": "0 7fff328fedfe7e71830697683d06092d19e11d00",
            "hex": "00147fff328fedfe7e71830697683d06092d19e11d00",
            "reqSigs": 1,
            "type": "witness_v0_keyhash",
            "addresses": [
              "bcrt1q0lln9rldlel8rqcxja5r6psf95v7z8gql8f08r"
            ]
          }
        },
        {
          "value": 0,
          "n": 1,
          "scriptPubKey": {
            "asm": "OP_RETURN aa21a9ede2f61c3f71d1defd3fa999dfa36953755c690689799962b48bebd836974e8cf9",
            "hex": "6a24aa21a9ede2f61c3f71d1defd3fa999dfa36953755c690689799962b48bebd836974e8cf9",
            "type": "nulldata"
          }
        }
      ],
      "hex": "020000000001010000000000000000000000000000000000000000000000000000000000000000ffffffff0502b6000101ffffffff0200f90295000000001600147fff328fedfe7e71830697683d06092d19e11d000000000000000000266a24aa21a9ede2f61c3f71d1defd3fa999dfa36953755c690689799962b48bebd836974e8cf90120000000000000000000000000000000000000000000000000000000000000000000000000",
      "blockhash": "2d90f31f0f5b774f3c0c329f1f3b83c689e30f10d32dffcfaf060fce99ea1735",
      "confirmations": 119,
      "time": 1628762036,
      "blocktime": 1628762036
    }
  ]
}