{
  "transaction": {
    "txid": "2f3d604fc57df3ee1051031df8bcd877f35a7c6e903b43c2c82616d3ec16ccf2",
    "hash": "4cdd7f0a3b2a1fc140ce9b29e0d75f81c6be0fed21f47bcf411025ae5f7b4e74",
    "version": 2,
    "size": 234,
    "vsize": 153,
    "weight": 609,
    "locktime": 300,
    "vin": [
      {
        "txid": "b0622f55b1e828766a454ebca0ed84b56d69d552593ab797861aaec77770793d",
        "vout": 0,
        "scriptSig": {
          "asm": "",
          "hex": ""
        },
        "txinwitness": [
          "304402202604edef6f7317e95524e2525b2d06bc76aa95a2d67cec1e7b14c7d8f8eed25d022065b0cd52310cc38c5ed309a3ff7c171fc708da7e3614c977e00372e80b05cbbe01",
          "02b1e23828070121d55f231f7f1f950644d730eb6dc34763be9c6e42afb4b7179c"
        ],
        "sequence": 4294967294
      }
    ],
    "vout": [
      {
        "value": 1,
        "n": 0,
        "scriptPubKey": {
          "asm": "1 c4e6bd0d13869e5810c2833896e96a37ad005f48fe7f3bed6d6ddb68e3bacbf8",
          "hex": "5120c4e6bd0d13869e5810c2833896e96a37ad005f48fe7f3bed6d6ddb68e3bacbf8",
          "reqSigs": 1,
          "type": "witness_v1_taproot",
          "addresses": [
            "bcrt1pcnnt6rgns609syxzsvufd6t2x7ksqh6glelnhmtddhdk3ca6e0uqnpgrud"
          ]
        }
      },
      {
        "value": 23.9999847,
        "n": 1,
        "scriptPubKey": {
          "asm": "0 440d108f07692d8b11087a388bd7b85e8e503fd1",
          "hex": "0014440d108f07692d8b11087a388bd7b85e8e503fd1",
          "reqSigs": 1,
          "type": "witness_v0_keyhash",
          "addresses": [
            "bcrt1qgsx3prc8dykckygg0gugh4act689q0736hdt09"
          ]
        }
      }
    ],
    "hex": "020000000001013d797077c7ae1a8697b73a5952d5696db584eda0bc4e456a7628e8b1552f62b00000000000feffffff0200e1f50500000000225120c4e6bd0d13869e5810c2833896e96a37ad005f48fe7f3bed6d6ddb68e3bacbf806120d8f00000000160014440d108f07692d8b11087a388bd7b85e8e503fd10247304402202604edef6f7317e95524e2525b2d06bc76aa95a2d67cec1e7b14c7d8f8eed25d022065b0cd52310cc38c5ed309a3ff7c171fc708da7e3614c977e00372e80b05cbbe012102b1e23828070121d55f231f7f1f950644d730eb6dc34763be9c6e42afb4b7179c2c010000"
  },
  "inputs": [
    {
      "txid": "b0622f55b1e828766a454ebca0ed84b56d69d552593ab797861aaec77770793d",
      "hash": "6c4a259c5a90d7b7d97d9f53d7196cde9806de4df195def20ff0e9d07b9db4f0",
      "version": 2,
      "size": 170,
      "vsize": 143,
      "weight": 572,
      "locktime": 0,
      "vin": [
        {
          "coinbase": "02c8000101",
          "txinwitness": [
            "0000000000000000000000000000000000000000000000000000000000000000"
          ],
          "sequence": 4294967295
        }
      ],
      "vout": [
        {
          "value": 25,
          "n": 0,
          "scriptPubKey": {
            "asm": "0 0b55a92ba329ed68602b69a7e2d5588584612a91",
            "hex": "00140b55a92ba329ed68602b69a7e2d5588584612a91",
            "reqSigs": 1,
            "type": "witness_v0_keyhash",
            "addresses": [
              "bcrt1qpd26j2ar98kkscptdxn7942cskzxz253z3dym9"
            ]
          }
        },
        {
          "value": 0,
          "n": 1,
          "scriptPubKey": {
            "asm": "OP_RETURN aa21a9ede2f61c3f71d1defd3fa999dfa36953755c690689799962b48bebd836974e8cf9",
            "hex": "6a24aa21a9ede2f61c3f71d1defd3fa999dfa36953755c690689799962b48bebd836974e8cf9",
            "type": "nulldata"
          }
        }
      ],
      "hex": "020000000001010000000000000000000000000000000000000000000000000000000000000000ffffffff0502c8000101ffffffff0200f90295000000001600140b55a92ba329ed68602b69a7e2d5588584612a910000000000000000266a24aa21a9ede2f61c3f71d1defd3fa999dfa36953755c690689799962b48bebd836974e8cf90120000000000000000000000000000000000000000000000000000000000000000000000000",
      "blockhash": "0d3f4f665240df2f9ee18dd290c424b2ef940fef52945013ee23c81dcee23224",
      "confirmations": 101,
      "time": 1635951291,
      "blocktime": 1635951291
    }
  ]
}