{
  "transaction": {
    "txid": "9a076b71936ee603e1e11fd21a6f634886406665000bf2c19948cb348d641f2b",
    "hash": "af546eb618216c997896d07af454b8ed6b7b288593e4193caaa696466fc472e9",
    "version": 2,
    "size": 223,
    "vsize": 142,
    "weight": 565,
    "locktime": 300,
    "vin": [
      {
        "txid": "a23c63629df6a6df55d8e0a7598998c7774be0ce89925f1a135e6e019341f83d",
        "vout": 0,
        "scriptSig": {
          "asm": "",
          "hex": ""
        },
        "txinwitness": [
          "304402206b7eec36588dacff416b579650300573ea084dcb4a15364541efa7c45a28a0990220607f9ec9b4a7ae4be2cadd68748b1aab1be86c76f00d886753b2b1ff8aa33cb301",
          "03c3f72c6385d661cc3aaec6b08f6aa8a81759977630fe5d0ade648ac96357d8f8"
        ],
        "sequence": 4294967294
      }
    ],
    "vout": [
      {
        "value": 1,
        "n": 0,
        "scriptPubKey": {
          "asm": "OP_HASH160 fe5cc5d87e3348a5f3eaa316898a0f05d520876e OP_EQUAL",
          "hex": "a914fe5cc5d87e3348a5f3eaa316898a0f05d520876e87",
          "reqSigs": 1,
          "type": "scripthash",
          "addresses": [
            "2NGSAkyhiWMZPcrfiwmcRWf9HQgpsiRGKv4"
          ]
        }
      },
      {
        "value": 23.9999858,
        "n": 1,
        "scriptPubKey": {
          "asm": "0 ca181c8495d94009c870cd09b11e4cdcf2479cab",
          "hex": "0014ca181c8495d94009c870cd09b11e4cdcf2479cab",
          "reqSigs": 1,
          "type": "witness_v0_keyhash",
          "addresses": [
            "bcrt1qegvpepy4m9qqnjrse5ymz8jvmney089tz6s34z"
          ]
        }
      }
    ],
    "hex": "020000000001013df84193016e5e131a5f9289cee04b77c7988959a7e0d855dfa6f69d62633ca20000000000feffffff0200e1f5050000000017a914fe5cc5d87e3348a5f3eaa316898a0f05d520876e8774120d8f00000000160014ca181c8495d94009c870cd09b11e4cdcf2479cab0247304402206b7eec36588dacff416b579650300573ea084dcb4a15364541efa7c45a28a0990220607f9ec9b4a7ae4be2cadd68748b1aab1be86c76f00d886753b2b1ff8aa33cb3012103c3f72c6385d661cc3aaec6b08f6aa8a81759977630fe5d0ade648ac96357d8f82c010000"
  },
  "inputs": [
    {
      "txid": "a23c63629df6a6df55d8e0a7598998c7774be0ce89925f1a135e6e019341f83d",
      "hash": "b8d0f97c550413a2c7764040a619f5ee5b118780ef16524ddbbe8c068d12c767",
      "version": 2,
      "size": 170,
      "vsize": 143,
      "weight": 572,
      "locktime": 0,
      "vin": [
        {
          "coinbase": "02ae000101",
          "txinwitness": [
            "0000000000000000000000000000000000000000000000000000000000000000"
          ],
          "sequence": 4294967295
        }
      ],
      "vout": [
        {
          "value": 25,
          "n": 0,
          "scriptPubKey": {
            "asm": "0 294f184433e8c7e3fb03f3f02df8c465653977d8",
            "hex": "0014294f184433e8c7e3fb03f3f02df8c465653977d8",
            "reqSigs": 1,
            "type": "witness_v0_keyhash",
            "addresses": [
              "bcrt1q9983s3pnarr787cr70czm7xyv4jnja7cs6rhes"
            ]
          }
        },
        {
          "value": 0,
          "n": 1,
          "scriptPubKey": {
            "asm": "OP_RETURN aa21a9ede2f61c3f71d1defd3fa999dfa36953755c690689799962b48bebd836974e8cf9",
            "hex": "6a24aa21a9ede2f61c3f71d1defd3fa999dfa36953755c690689799962b48bebd836974e8cf9",
            "type": "nulldata"
          }
        }
      ],
      "hex": "020000000001010000000000000000000000000000000000000000000000000000000000000000ffffffff0502ae000101ffffffff0200f9029500000000160014294f184433e8c7e3fb03f3f02df8c465653977d80000000000000000266a24aa21a9ede2f61c3f71d1defd3fa999dfa36953755c690689799962b48bebd836974e8cf90120000000000000000000000000000000000000000000000000000000000000000000000000",
      "blockhash": "1eb7fe245eba036b51cbecdd6326a56540e7ed239ef3c55d8cb566aa4738b74f",
      "confirmations": 127,
      "time": 1635930563,
      "blocktime": 1635930563
    }
  ]
}