{
  "transaction": {
    "txid": "b5d62df9d936d197c30321e103cc279a6a16075aa50c0d5f751d5ff49296e297",
    "hash": "fd450f4c5c30174c57aac97d605b5014cbe0ef32b34bd40c65642eaf5574de9d",
    "version": 2,
    "size": 234,
    "vsize": 153,
    "weight": 609,
    "locktime": 300,
    "vin": [
      {
        "txid": "3a01724784f489cb585dd134a04acf63fdb5526915c5f22beb4d5fa87da0f792",
        "vout": 0,
        "scriptSig": {
          "asm": "",
          "hex": ""
        },
        "txinwitness": [
          "304402201d81b30b194396cfd5f56436b94206c62458b8aad9b37042500f94ff48d0dd8f022035aa59cc223264b6472951cc08dd2baba0f78544163761e38c063e60c44db2a201",
          "02730c15ea50a4c11265cc2f8eb9673d39e22d0ba93b897cdd657e5eab3a768a1e"
        ],
        "sequence": 4294967294
      }
    ],
    "vout": [
      {
        "value": 1,
        "n": 0,
        "scriptPubKey": {
          "asm": "1 c4e6bd0d13869e5810c2833896e96a37ad005f48fe7f3bed6d6ddb68e3bacbf8",
          "hex": "5120c4e6bd0d13869e5810c2833896e96a37ad005f48fe7f3bed6d6ddb68e3bacbf8",
          "reqSigs": 1,
          "type": "witness_v1_taproot",
          "addresses": [
            "bcrt1pcnnt6rgns609syxzsvufd6t2x7ksqh6glelnhmtddhdk3ca6e0uqnpgrud"
          ]
        }
      },
      {
        "value": 23.9999847,
        "n": 1,
        "scriptPubKey": {
          "asm": "0 f74db1cdaa5ea6126df52ce736657bbc2dc98b61",
          "hex": "0014f74db1cdaa5ea6126df52ce736657bbc2dc98b61",
          "reqSigs": 1,
          "type": "witness_v0_keyhash",
          "addresses": [
            "bcrt1q7axmrnd2t6npym049nnnvetmhskunzmp4zknje"
          ]
        }
      }
    ],
    "hex": "0200000000010192f7a07da85f4deb2bf2c5156952b5fd63cf4aa034d15d58cb89f4844772013a0000000000feffffff0200e1f50500000000225120c4e6bd0d13869e5810c2833896e96a37ad005f48fe7f3bed6d6ddb68e3bacbf806120d8f00000000160014f74db1cdaa5ea6126df52ce736657bbc2dc98b610247304402201d81b30b194396cfd5f56436b94206c62458b8aad9b37042500f94ff48d0dd8f022035aa59cc223264b6472951cc08dd2baba0f78544163761e38c063e60c44db2a2012102730c15ea50a4c11265cc2f8eb9673d39e22d0ba93b897cdd657e5eab3a768a1e2c010000"
  },
  "inputs": [
    {
      "txid": "3a01724784f489cb585dd134a04acf63fdb5526915c5f22beb4d5fa87da0f792",
      "hash": "a4d986f9406dcf74176bb7aad63cd43020a2999f0a2443184d6dcab218b86360",
      "version": 2,
      "size": 170,
      "vsize": 143,
      "weight": 572,
      "locktime": 0,
      "vin": [
        {
          "coinbase": "02b7000101",
          "txinwitness": [
            "0000000000000000000000000000000000000000000000000000000000000000"
          ],
          "sequence": 4294967295
        }
      ],
      "vout": [
        {
          "value": 25,
          "n": 0,
          "scriptPubKey": {
            "asm": "0 5d913c75879a50bc93a3c615209d6eb0be4e82ba",
            "hex": "00145d913c75879a50bc93a3c615209d6eb0be4e82ba",
            "reqSigs": 1,
            "type": "witness_v0_keyhash",
            "addresses": [
              "bcrt1qtkgncav8nfgteyarcc2jp8twkzlyaq46dhra6e"
            ]
          }
        },
        {
          "value": 0,
          "n": 1,
          "scriptPubKey": {
            "asm": "OP_RETURN aa21a9ede2f61c3f71d1defd3fa999dfa36953755c690689799962b48bebd836974e8cf9",
            "hex": "6a24aa21a9ede2f61c3f71d1defd3fa999dfa36953755c690689799962b48bebd836974e8cf9",
            "type": "nulldata"
          }
        }
      ],
      "hex": "020000000001010000000000000000000000000000000000000000000000000000000000000000ffffffff0502b7000101ffffffff0200f90295000000001600145d913c75879a50bc93a3c615209d6eb0be4e82ba0000000000000000266a24aa21a9ede2f61c3f71d1defd3fa999dfa36953755c690689799962b48bebd836974e8cf90120000000000000000000000000000000000000000000000000000000000000000000000000",
      "blockhash": "61a642bc73641bccb358117d5d13f0f68f5e4d6cb96c5b72e73ad43bd6cb1bb0",
      "confirmations": 118,
      "time": 1635950116,
      "blocktime": 1635950116
    }
  ]
}