{
  "transaction": {
    "txid": "022dbc61aaca3064d5cef10cdc0c567db1e4fc98bdd826f5aa739e288c4b6f86",
    "hash": "421e819f1193ddcc4272c98fbd2c3fc42a4e652b4f6c602dcba8531a20d5b875",
    "version": 2,
    "size": 234,
    "vsize": 153,
    "weight": 609,
    "locktime": 0,
    "vin": [
      {
        "txid": "edd608ca2b4479292174f19f698c65c31497d162d605fdb9bdf9682df8541bbf",
        "vout": 1,
        "scriptSig": {
          "asm": "",
          "hex": ""
        },
        "txinwitness": [
          "304402200eebb9643970bc8e899b01de2515a496c982fa6061b4fc056ed371e789444d7302206d6cdb1e4993db24f1be61aa743aa44b95066c28a71cc12b82f9fabc4ed8f3a101",
          "0224fdb51237787edc4bdd3ebfe09b17f7c087e2625ca94fb9a9eeb7841644e1ba"
        ],
        "sequence": 4294967294
      }
    ],
    "vout": [
      {
        "value": 22.9999694,
        "n": 0,
        "scriptPubKey": {
          "asm": "0 02ec7cc41fecc774cd75e1107ea8b62fa56e633f",
          "hex": "001402ec7cc41fecc774cd75e1107ea8b62fa56e633f",
          "address": "bcrt1qqtk8e3qlanrhfnt4uyg8a29k97jkucelnj9tsn",
          "type": "witness_v0_keyhash"
        }
      },
      {
        "value": 1,
        "n": 1,
        "scriptPubKey": {
          "asm": "0 1553f31a3e25e770b7bc857b82909e83734dbfe4bcdb5a5e6fc419b6920c398a",
          "hex": "00201553f31a3e25e770b7bc857b82909e83734dbfe4bcdb5a5e6fc419b6920c398a",
          "address": "bcrt1qz4flxx37yhnhpdaus4ac9yy7sde5m0lyhnd45hn0csvmdysv8x9qr7gzry",
          "type": "witness_v0_scripthash"
        }
      }
    ],
    "hex": "02000000000101bf1b54f82d68f9bdb9fd05d662d19714c3658c699ff174212979442bca08d6ed0100000000feffffff020c2b17890000000016001402ec7cc41fecc774cd75e1107ea8b62fa56e633f00e1f505000000002200201553f31a3e25e770b7bc857b82909e83734dbfe4bcdb5a5e6fc419b6920c398a0247304402200eebb9643970bc8e899b01de2515a496c982fa6061b4fc056ed371e789444d7302206d6cdb1e4993db24f1be61aa743aa44b95066c28a71cc12b82f9fabc4ed8f3a101210224fdb51237787edc4bdd3ebfe09b17f7c087e2625ca94fb9a9eeb7841644e1ba00000000"
  },
  "inputs": [
    {
      "txid": "edd608ca2b4479292174f19f698c65c31497d162d605fdb9bdf9682df8541bbf",
      "hash": "348e5a144206d783ee2d375201f231afb79bd721767940ef8cf98a98aa6fc655",
      "version": 2,
      "size": 234,
      "vsize": 153,
      "weight": 609,
      "locktime": 300,
      "vin": [
        {
          "txid": "d2e9a8176571b0e4d4af2e86a1f7bb39e80bf1ff59ab5151d563cafdcc41c469",
          "vout": 0,
          "scriptSig": {
            "asm": "",
            "hex": ""
          },
          "txinwitness": [
            "3044022077767bfc5785a97dc393643a67cb2e6bfbe7c92b3616df245c4c63dad305dcf9022072b0e9007fac4c74905a09e063b4d882973a3eb1cd3ec753d158c02302bc652a01",
            "02ae597cf4b73d83809179eb68a5c88939491385da51b927644a45166dd947a09c"
          ],
          "sequence": 4294967294
        }
      ],
      "vout": [
        {
          "value": 1,
          "n": 0,
          "scriptPubKey": {
            "asm": "0 1553f31a3e25e770b7bc857b82909e83734dbfe4bcdb5a5e6fc419b6920c398a",
            "hex": "00201553f31a3e25e770b7bc857b82909e83734dbfe4bcdb5a5e6fc419b6920c398a",
            "address": "bcrt1qz4flxx37yhnhpdaus4ac9yy7sde5m0lyhnd45hn0csvmdysv8x9qr7gzry",
            "type": "witness_v0_scripthash"
          }
        },
        {
          "value": 23.9999847,
          "n": 1,
          "scriptPubKey": {
            "asm": "0 73f8edec1cc2a4dabdc55146f0aee1941da059b5",
            "hex": "001473f8edec1cc2a4dabdc55146f0aee1941da059b5",
            "address": "bcrt1qw0uwmmquc2jd40w929r0pthpjsw6qkd48dan7e",
            "type": "witness_v0_keyhash"
          }
        }
      ],
      "hex": "0200000000010169c441ccfdca63d55151ab59fff10be839bbf7a1862eafd4e4b0716517a8e9d20000000000feffffff0200e1f505000000002200201553f31a3e25e770b7bc857b82909e83734dbfe4bcdb5a5e6fc419b6920c398a06120d8f0000000016001473f8edec1cc2a4dabdc55146f0aee1941da059b502473044022077767bfc5785a97dc393643a67cb2e6bfbe7c92b3616df245c4c63dad305dcf9022072b0e9007fac4c74905a09e063b4d882973a3eb1cd3ec753d158c02302bc652a012102ae597cf4b73d83809179eb68a5c88939491385da51b927644a45166dd947a09c2c010000"
    }
  ]
}