{
  "transaction": {
    "txid": "eb7b668275c5bd39f8d38d03667a3fa02365ebc88c61f563012a98499ed2489d",
    "hash": "af8fe9faa191bbbd42577b73149bcf8cc0d0a5f73a77640ef8c03674819b9b64",
    "version": 2,
    "size": 225,
    "vsize": 144,
    "weight": 573,
    "locktime": 0,
    "vin": [
      {
        "txid": "f1972417053a9c5f66a42eec9adccb31f91f4c22059cb48aad1210f85467b26a",
        "vout": 0,
        "scriptSig": {
          "asm": "",
          "hex": ""
        },
        "txinwitness": [
          "3044022052d2528777885e0e472f8b1c9998c2d8731888b630f3b08041a37c8438f0ad7002206b81881fb316e2a616c8e43856434bc1251b446580dd8c015d7614cf11c7bb7d01",
          "02ae597cf4b73d83809179eb68a5c88939491385da51b927644a45166dd947a09c"
        ],
        "sequence": 4294967294
      }
    ],
    "vout": [
      {
        "value": 1,
        "n": 0,
        "scriptPubKey": {
          "asm": "OP_DUP OP_HASH160 d2eb140d8b7006e7b862827043f9cddd50da9811 OP_EQUALVERIFY OP_CHECKSIG",
          "hex": "76a914d2eb140d8b7006e7b862827043f9cddd50da981188ac",
          "address": "mzkBosFeajZ5KxXp4rPNA8maqoKUFiR7nY",
          "type": "pubkeyhash"
        }
      },
      {
        "value": 48.9999856,
        "n": 1,
        "scriptPubKey": {
          "asm": "0 7398ea17db67bf7f118da2022c8dd3b775833e50",
          "hex": "00147398ea17db67bf7f118da2022c8dd3b775833e50",
          "address": "bcrt1qwwvw597mv7lh7yvd5gpzerwnka6cx0js2y89gs",
          "type": "witness_v0_keyhash"
        }
      }
    ],
    "hex": "020000000001016ab26754f81012ad8ab49c05224c1ff931cbdc9aec2ea4665f9c3a05172497f10000000000feffffff0200e1f505000000001976a914d2eb140d8b7006e7b862827043f9cddd50da981188ac600b1024010000001600147398ea17db67bf7f118da2022c8dd3b775833e5002473044022052d2528777885e0e472f8b1c9998c2d8731888b630f3b08041a37c8438f0ad7002206b81881fb316e2a616c8e43856434bc1251b446580dd8c015d7614cf11c7bb7d012102ae597cf4b73d83809179eb68a5c88939491385da51b927644a45166dd947a09c00000000"
  },
  "inputs": [
    {
      "txid": "f1972417053a9c5f66a42eec9adccb31f91f4c22059cb48aad1210f85467b26a",
      "hash": "28ac4529d68f797ca0bee8a5808834defcc64a0c0444fa4418efba69fa20de13",
      "version": 2,
      "size": 170,
      "vsize": 143,
      "weight": 572,
      "locktime": 0,
      "vin": [
        {
          "coinbase": "028d000101",
          "txinwitness": [
            "0000000000000000000000000000000000000000000000000000000000000000"
          ],
          "sequence": 4294967295
        }
      ],
      "vout": [
        {
          "value": 50,
          "n": 0,
          "scriptPubKey": {
            "asm": "0 e6213883f0fc6d583ac3f6ba4c5408714c3f0bc8",
            "hex": "0014e6213883f0fc6d583ac3f6ba4c5408714c3f0bc8",
            "address": "bcrt1qucsn3qlsl3k4swkr76ayc4qgw9xr7z7g9lg4jc",
            "type": "witness_v0_keyhash"
          }
        },
        {
          "value": 0,
          "n": 1,
          "scriptPubKey": {
            "asm": "OP_RETURN aa21a9ede2f61c3f71d1defd3fa999dfa36953755c690689799962b48bebd836974e8cf9",
            "hex": "6a24aa21a9ede2f61c3f71d1defd3fa999dfa36953755c690689799962b48bebd836974e8cf9",
            "type": "nulldata"
          }
        }
      ],
      "hex": "020000000001010000000000000000000000000000000000000000000000000000000000000000ffffffff05028d000101ffffffff0200f2052a01000000160014e6213883f0fc6d583ac3f6ba4c5408714c3f0bc80000000000000000266a24aa21a9ede2f61c3f71d1defd3fa999dfa36953755c690689799962b48bebd836974e8cf90120000000000000000000000000000000000000000000000000000000000000000000000000",
      "blockhash": "3c67e364d1a36b8060db5db4392ad2535982dcd1637ea4d1aeec7ed7c6d559c3",
      "confirmations": 160,
      "time": 1635841980,
      "blocktime": 1635841980
    }
  ]
}