{
  "transaction": {
    "txid": "fb16d25530c80609089bfa0c70e440fb685e5c490645dab253f24381d92fc069",
    "hash": "598ae69a7bded0a820b4f6f715a09246322010d724cc69ff3736cdac3800b924",
    "version": 2,
    "size": 223,
    "vsize": 142,
    "weight": 565,
    "locktime": 300,
    "vin": [
      {
        "txid": "f960aa55596985569fde87cd2fefb005ffb08e6126a70f7f4fe71e4900bb6203",
        "vout": 0,
        "scriptSig": {
          "asm": "",
          "hex": ""
        },
        "txinwitness": [
          "304402202c384cf135f9cf5a429a24bdc1c8cc464133176cb353ce18900eca230d45edc4022000d0d40bef8c345647803286c7fc71c48076bcf100e37551fe204256cae6ca9601",
          "0349442be608b97b2d77180638a2ec2fe7c9be5074762a1b0e2d70fb19799f91d4"
        ],
        "sequence": 4294967294
      }
    ],
    "vout": [
      {
        "value": 23.9999858,
        "n": 0,
        "scriptPubKey": {
          "asm": "0 19851b897b21a093db779ae914b9da7796dcbcb0",
          "hex": "001419851b897b21a093db779ae914b9da7796dcbcb0",
          "reqSigs": 1,
          "type": "witness_v0_keyhash",
          "addresses": [
            "bcrt1qrxz3hztmyxsf8kmhnt53fww6w7tde09sg0yp3s"
          ]
        }
      },
      {
        "value": 1,
        "n": 1,
        "scriptPubKey": {
          "asm": "OP_HASH160 2280193aca8462021ec369d4e2ff1c95741fba7f OP_EQUAL",
          "hex": "a9142280193aca8462021ec369d4e2ff1c95741fba7f87",
          "reqSigs": 1,
          "type": "scripthash",
          "addresses": [
            "2MvPeRFSGYJq9BXoV2fxrMpJjsZMGx2m6Zk"
          ]
        }
      }
    ],
    "hex": "020000000001010362bb00491ee74f7f0fa726618eb0ff05b0ef2fcd87de9f5685695955aa60f90000000000feffffff0274120d8f0000000016001419851b897b21a093db779ae914b9da7796dcbcb000e1f5050000000017a9142280193aca8462021ec369d4e2ff1c95741fba7f870247304402202c384cf135f9cf5a429a24bdc1c8cc464133176cb353ce18900eca230d45edc4022000d0d40bef8c345647803286c7fc71c48076bcf100e37551fe204256cae6ca9601210349442be608b97b2d77180638a2ec2fe7c9be5074762a1b0e2d70fb19799f91d42c010000"
  },
  "inputs": [
    {
      "txid": "f960aa55596985569fde87cd2fefb005ffb08e6126a70f7f4fe71e4900bb6203",
      "hash": "7a7e9df56fa6bcc65b8af6a7391304fb790fa2e29bbf41709241d2b03e66a96a",
      "version": 2,
      "size": 170,
      "vsize": 143,
      "weight": 572,
      "locktime": 0,
      "vin": [
        {
          "coinbase": "02ad000101",
          "txinwitness": [
            "0000000000000000000000000000000000000000000000000000000000000000"
          ],
          "sequence": 4294967295
        }
      ],
      "vout": [
        {
          "value": 25,
          "n": 0,
          "scriptPubKey": {
            "asm": "0 7fff328fedfe7e71830697683d06092d19e11d00",
            "hex": "00147fff328fedfe7e71830697683d06092d19e11d00",
            "reqSigs": 1,
            "type": "witness_v0_keyhash",
            "addresses": [
              "bcrt1q0lln9rldlel8rqcxja5r6psf95v7z8gql8f08r"
            ]
          }
        },
        {
          "value": 0,
          "n": 1,
          "scriptPubKey": {
            "asm": "OP_RETURN aa21a9ede2f61c3f71d1defd3fa999dfa36953755c690689799962b48bebd836974e8cf9",
            "hex": "6a24aa21a9ede2f61c3f71d1defd3fa999dfa36953755c690689799962b48bebd836974e8cf9",
            "type": "nulldata"
          }
        }
      ],
      "hex": "020000000001010000000000000000000000000000000000000000000000000000000000000000ffffffff0502ad000101ffffffff0200f90295000000001600147fff328fedfe7e71830697683d06092d19e11d000000000000000000266a24aa21a9ede2f61c3f71d1defd3fa999dfa36953755c690689799962b48bebd836974e8cf90120000000000000000000000000000000000000000000000000000000000000000000000000",
      "blockhash": "466f485eba00a83b71f9e2763e8359f736e06ab16a28b9d1d4072595b13a1aea",
      "confirmations": 128,
      "time": 1628762034,
      "blocktime": 1628762034
    }
  ]
}