{
  "transaction": {
    "txid": "576f590a38108b718a2acfd2eacb6a2aa6b2a5445515a45191b80080e3fd6d1d",
    "hash": "a634e59b40ab8cf832a2e823bd4f63c04c10bb15d28a0481b907196b9e61e92b",
    "version": 2,
    "size": 223,
    "vsize": 142,
    "weight": 565,
    "locktime": 300,
    "vin": [
      {
        "txid": "cbfa55fb14f13c633215fd7114ec5c725459d4b9c59df410ac07e49e444c61c8",
        "vout": 0,
        "scriptSig": {
          "asm": "",
          "hex": ""
        },
        "txinwitness": [
          "304402207111dcef5577cfbacd517474ef02bcbc4a83c78731fea817ec5d197a9c3484fb02202edd9c083addd551f5015ad3c8ec9356d2584da39c5109becc372ac03ed220d801",
          "03c3f72c6385d661cc3aaec6b08f6aa8a81759977630fe5d0ade648ac96357d8f8"
        ],
        "sequence": 4294967294
      }
    ],
    "vout": [
      {
        "value": 23.9999858,
        "n": 0,
        "scriptPubKey": {
          "asm": "0 52e0b3079beb574d77a1a96df011b47dbf122270",
          "hex": "001452e0b3079beb574d77a1a96df011b47dbf122270",
          "reqSigs": 1,
          "type": "witness_v0_keyhash",
          "addresses": [
            "bcrt1q2tstxpumadt56aap49klqyd50kl3ygnsshys6l"
          ]
        }
      },
      {
        "value": 1,
        "n": 1,
        "scriptPubKey": {
          "asm": "OP_HASH160 2280193aca8462021ec369d4e2ff1c95741fba7f OP_EQUAL",
          "hex": "a9142280193aca8462021ec369d4e2ff1c95741fba7f87",
          "reqSigs": 1,
          "type": "scripthash",
          "addresses": [
            "2MvPeRFSGYJq9BXoV2fxrMpJjsZMGx2m6Zk"
          ]
        }
      }
    ],
    "hex": "02000000000101c8614c449ee407ac10f49dc5b9d45954725cec1471fd1532633cf114fb55facb0000000000feffffff0274120d8f0000000016001452e0b3079beb574d77a1a96df011b47dbf12227000e1f5050000000017a9142280193aca8462021ec369d4e2ff1c95741fba7f870247304402207111dcef5577cfbacd517474ef02bcbc4a83c78731fea817ec5d197a9c3484fb02202edd9c083addd551f5015ad3c8ec9356d2584da39c5109becc372ac03ed220d8012103c3f72c6385d661cc3aaec6b08f6aa8a81759977630fe5d0ade648ac96357d8f82c010000"
  },
  "inputs": [
    {
      "txid": "cbfa55fb14f13c633215fd7114ec5c725459d4b9c59df410ac07e49e444c61c8",
      "hash": "49bacb0e8d52cd82a7b8442a649af6e367198567b22db1ab841897be4073817a",
      "version": 2,
      "size": 170,
      "vsize": 143,
      "weight": 572,
      "locktime": 0,
      "vin": [
        {
          "coinbase": "02c0000101",
          "txinwitness": [
            "0000000000000000000000000000000000000000000000000000000000000000"
          ],
          "sequence": 4294967295
        }
      ],
      "vout": [
        {
          "value": 25,
          "n": 0,
          "scriptPubKey": {
            "asm": "0 294f184433e8c7e3fb03f3f02df8c465653977d8",
            "hex": "0014294f184433e8c7e3fb03f3f02df8c465653977d8",
            "reqSigs": 1,
            "type": "witness_v0_keyhash",
            "addresses": [
              "bcrt1q9983s3pnarr787cr70czm7xyv4jnja7cs6rhes"
            ]
          }
        },
        {
          "value": 0,
          "n": 1,
          "scriptPubKey": {
            "asm": "OP_RETURN aa21a9ede2f61c3f71d1defd3fa999dfa36953755c690689799962b48bebd836974e8cf9",
            "hex": "6a24aa21a9ede2f61c3f71d1defd3fa999dfa36953755c690689799962b48bebd836974e8cf9",
            "type": "nulldata"
          }
        }
      ],
      "hex": "020000000001010000000000000000000000000000000000000000000000000000000000000000ffffffff0502c0000101ffffffff0200f9029500000000160014294f184433e8c7e3fb03f3f02df8c465653977d80000000000000000266a24aa21a9ede2f61c3f71d1defd3fa999dfa36953755c690689799962b48bebd836974e8cf90120000000000000000000000000000000000000000000000000000000000000000000000000",
      "blockhash": "0d35448a19779240f217b5a031fc180d963f90275161388653090fbab4cb3f83",
      "confirmations": 109,
      "time": 1635930566,
      "blocktime": 1635930566
    }
  ]
}