{
  "transaction": {
    "txid": "1affd480765952a9cfcee2f629bfcac7c3a71f82bd42348905779de0490edcd5",
    "hash": "88887d7bd2d6a2934d5a5647544e7eef16c0a98c7d37a80fcaa9b6b874184201",
    "version": 2,
    "size": 223,
    "vsize": 142,
    "weight": 565,
    "locktime": 0,
    "vin": [
      {
        "txid": "350faccea7dce96d7d64b2786c766077f0e1ea3fba272999ca94ca7c39d95f8f",
        "vout": 1,
        "scriptSig": {
          "asm": "",
          "hex": ""
        },
        "txinwitness": [
          "30440220071342cf6fd9e6f49e670a3901005a1b245c5a5703f534c459611bda9013b21002207443a2bfe3a5b84de0e733986ca6c1d621d7ec8709e1598f9c98f0c1a4af9f9001",
          "03873ce6eaf1c1f8c4dfe74e58c5c0f0c93829116f33b77bc57c087722e8cef885"
        ],
        "sequence": 4294967294
      }
    ],
    "vout": [
      {
        "value": 22.9999705,
        "n": 0,
        "scriptPubKey": {
          "asm": "0 98758851337a8cb3a54cb5737f7b7448e2147bda",
          "hex": "001498758851337a8cb3a54cb5737f7b7448e2147bda",
          "address": "bcrt1qnp6cs5fn02xt8f2vk4eh77m5fr3pg77667w7wa",
          "type": "witness_v0_keyhash"
        }
      },
      {
        "value": 1,
        "n": 1,
        "scriptPubKey": {
          "asm": "OP_HASH160 2280193aca8462021ec369d4e2ff1c95741fba7f OP_EQUAL",
          "hex": "a9142280193aca8462021ec369d4e2ff1c95741fba7f87",
          "address": "2MvPeRFSGYJq9BXoV2fxrMpJjsZMGx2m6Zk",
          "type": "scripthash"
        }
      }
    ],
    "hex": "020000000001018f5fd9397cca94ca992927ba3feae1f07760766c78b2647d6de9dca7ceac0f350100000000feffffff027a2b17890000000016001498758851337a8cb3a54cb5737f7b7448e2147bda00e1f5050000000017a9142280193aca8462021ec369d4e2ff1c95741fba7f87024730440220071342cf6fd9e6f49e670a3901005a1b245c5a5703f534c459611bda9013b21002207443a2bfe3a5b84de0e733986ca6c1d621d7ec8709e1598f9c98f0c1a4af9f90012103873ce6eaf1c1f8c4dfe74e58c5c0f0c93829116f33b77bc57c087722e8cef88500000000"
  },
  "inputs": [
    {
      "txid": "350faccea7dce96d7d64b2786c766077f0e1ea3fba272999ca94ca7c39d95f8f",
      "hash": "2396971c0e20cba45b6e481bb9ce65a0a9424240e04e673e595071902cf27d5d",
      "version": 2,
      "size": 234,
      "vsize": 153,
      "weight": 609,
      "locktime": 300,
      "vin": [
        {
          "txid": "be4d9ffb9f6e65ed76bbee9d6f89b25ec0d90bcee40e19d577b7251cc21f481a",
          "vout": 0,
          "scriptSig": {
            "asm": "",
            "hex": ""
          },
          "txinwitness": [
            "3044022079726f0255123695d5fe17d1d558f229898e845b5f7e97b51431da887d9bef660220795ff2ad0d347677441e00e0a2a18ddff19d648db8f528eeb7f5feee9a732dcc01",
            "02ae597cf4b73d83809179eb68a5c88939491385da51b927644a45166dd947a09c"
          ],
          "sequence": 4294967294
        }
      ],
      "vout": [
        {
          "value": 1,
          "n": 0,
          "scriptPubKey": {
            "asm": "0 1553f31a3e25e770b7bc857b82909e83734dbfe4bcdb5a5e6fc419b6920c398a",
            "hex": "00201553f31a3e25e770b7bc857b82909e83734dbfe4bcdb5a5e6fc419b6920c398a",
            "address": "bcrt1qz4flxx37yhnhpdaus4ac9yy7sde5m0lyhnd45hn0csvmdysv8x9qr7gzry",
            "type": "witness_v0_scripthash"
          }
        },
        {
          "value": 23.9999847,
          "n": 1,
          "scriptPubKey": {
            "asm": "0 b9b4ea558687eda5460c3389ff229dca7e8c01fe",
            "hex": "0014b9b4ea558687eda5460c3389ff229dca7e8c01fe",
            "address": "bcrt1qhx6w54vxslk623svxwyl7g5aeflgcq0758w663",
            "type": "witness_v0_keyhash"
          }
        }
      ],
      "hex": "020000000001011a481fc21c25b777d5190ee4ce0bd9c05eb2896f9deebb76ed656e9ffb9f4dbe0000000000feffffff0200e1f505000000002200201553f31a3e25e770b7bc857b82909e83734dbfe4bcdb5a5e6fc419b6920c398a06120d8f00000000160014b9b4ea558687eda5460c3389ff229dca7e8c01fe02473044022079726f0255123695d5fe17d1d558f229898e845b5f7e97b51431da887d9bef660220795ff2ad0d347677441e00e0a2a18ddff19d648db8f528eeb7f5feee9a732dcc012102ae597cf4b73d83809179eb68a5c88939491385da51b927644a45166dd947a09c2c010000"
    }
  ]
}