{
  "transaction": {
    "txid": "620197d8b664091076ac35b0d516f494f7c1b4d5f49b4ad5939c94cfe1f31fbf",
    "hash": "36439254c65915f11ee8e3092cd1c9efeb150e500a76afba29140d36a2689477",
    "version": 2,
    "size": 222,
    "vsize": 141,
    "weight": 561,
    "locktime": 0,
    "vin": [
      {
        "txid": "0babfce1a2cfd7bd16358c9124ba776a395403d6599fdc9021339a5ed7739d91",
        "vout": 0,
        "scriptSig": {
          "asm": "",
          "hex": ""
        },
        "txinwitness": [
          "3044022027f793c49abb6a499e918226176ef0f9f0ec2be6dd67d3d4ced99abd232777e1022039a5c149246d5dfd0efd8502454088fde6ea1c2e0abd91bf3955e3d41995c21001",
          "02ae597cf4b73d83809179eb68a5c88939491385da51b927644a45166dd947a09c"
        ],
        "sequence": 4294967294
      }
    ],
    "vout": [
      {
        "value": 1,
        "n": 0,
        "scriptPubKey": {
          "asm": "0 d2eb140d8b7006e7b862827043f9cddd50da9811",
          "hex": "0014d2eb140d8b7006e7b862827043f9cddd50da9811",
          "address": "bcrt1q6t43grvtwqrw0wrzsfcy87wdm4gd4xq3580nk2",
          "type": "witness_v0_keyhash"
        }
      },
      {
        "value": 48.9999859,
        "n": 1,
        "scriptPubKey": {
          "asm": "0 11ae3db1dac67fbe1af85845edf5c79aae1118c0",
          "hex": "001411ae3db1dac67fbe1af85845edf5c79aae1118c0",
          "address": "bcrt1qzxhrmvw6celmuxhctpz7maw8n2hpzxxqwhl2ge",
          "type": "witness_v0_keyhash"
        }
      }
    ],
    "hex": "02000000000101919d73d75e9a332190dc9f59d60354396a77ba24918c3516bdd7cfa2e1fcab0b0000000000feffffff0200e1f50500000000160014d2eb140d8b7006e7b862827043f9cddd50da98117e0b10240100000016001411ae3db1dac67fbe1af85845edf5c79aae1118c002473044022027f793c49abb6a499e918226176ef0f9f0ec2be6dd67d3d4ced99abd232777e1022039a5c149246d5dfd0efd8502454088fde6ea1c2e0abd91bf3955e3d41995c210012102ae597cf4b73d83809179eb68a5c88939491385da51b927644a45166dd947a09c00000000"
  },
  "inputs": [
    {
      "txid": "0babfce1a2cfd7bd16358c9124ba776a395403d6599fdc9021339a5ed7739d91",
      "hash": "225809468a462b0578db88012927ad4c490172b948e09c617af975b8c6854e6a",
      "version": 2,
      "size": 170,
      "vsize": 143,
      "weight": 572,
      "locktime": 0,
      "vin": [
        {
          "coinbase": "028c000101",
          "txinwitness": [
            "0000000000000000000000000000000000000000000000000000000000000000"
          ],
          "sequence": 4294967295
        }
      ],
      "vout": [
        {
          "value": 50,
          "n": 0,
          "scriptPubKey": {
            "asm": "0 e6213883f0fc6d583ac3f6ba4c5408714c3f0bc8",
            "hex": "0014e6213883f0fc6d583ac3f6ba4c5408714c3f0bc8",
            "address": "bcrt1qucsn3qlsl3k4swkr76ayc4qgw9xr7z7g9lg4jc",
            "type": "witness_v0_keyhash"
          }
        },
        {
          "value": 0,
          "n": 1,
          "scriptPubKey": {
            "asm": "OP_RETURN aa21a9ede2f61c3f71d1defd3fa999dfa36953755c690689799962b48bebd836974e8cf9",
            "hex": "6a24aa21a9ede2f61c3f71d1defd3fa999dfa36953755c690689799962b48bebd836974e8cf9",
            "type": "nulldata"
          }
        }
      ],
      "hex": "020000000001010000000000000000000000000000000000000000000000000000000000000000ffffffff05028c000101ffffffff0200f2052a01000000160014e6213883f0fc6d583ac3f6ba4c5408714c3f0bc80000000000000000266a24aa21a9ede2f61c3f71d1defd3fa999dfa36953755c690689799962b48bebd836974e8cf90120000000000000000000000000000000000000000000000000000000000000000000000000",
      "blockhash": "74eae54dc050b164a2cba34ea1d729e08385f28a50811a4320cc0cae9fed77a2",
      "confirmations": 161,
      "time": 1635841980,
      "blocktime": 1635841980
    }
  ]
}