{
  "transaction": {
    "txid": "0ecaf7ffd75cc6bf79a7b06dd04f8cee529bb21bbe074bb8482e8b2a904003c6",
    "hash": "cfc6b133943c3dd72832c01a4ae12270c6d2de0958f0948e59c753325c778f44",
    "version": 2,
    "size": 225,
    "vsize": 144,
    "weight": 573,
    "locktime": 300,
    "vin": [
      {
        "txid": "67d9559a73fc2eeb009fcc62d8749448a4f854ec4982dc34da845f1fbbd71d5e",
        "vout": 0,
        "scriptSig": {
          "asm": "",
          "hex": ""
        },
        "txinwitness": [
          "304402201583b48605bfa40e03f7cc7080c8d15367bc957774cc3d99104700a0e91c095a02202e49451150ac4ed22de4cd53b442961e893be76ac38124389a0aab424fe270b301",
          "03c3f72c6385d661cc3aaec6b08f6aa8a81759977630fe5d0ade648ac96357d8f8"
        ],
        "sequence": 4294967294
      }
    ],
    "vout": [
      {
        "value": 23.9999856,
        "n": 0,
        "scriptPubKey": {
          "asm": "0 2fe0a5745ebd0cac796fc5dfcdef1db5c5a49264",
          "hex": "00142fe0a5745ebd0cac796fc5dfcdef1db5c5a49264",
          "reqSigs": 1,
          "type": "witness_v0_keyhash",
          "addresses": [
            "bcrt1q9ls22az7h5x2c7t0ch0ummcakhz6fyny268zwn"
          ]
        }
      },
      {
        "value": 1,
        "n": 1,
        "scriptPubKey": {
          "asm": "OP_DUP OP_HASH160 d2eb140d8b7006e7b862827043f9cddd50da9811 OP_EQUALVERIFY OP_CHECKSIG",
          "hex": "76a914d2eb140d8b7006e7b862827043f9cddd50da981188ac",
          "reqSigs": 1,
          "type": "pubkeyhash",
          "addresses": [
            "mzkBosFeajZ5KxXp4rPNA8maqoKUFiR7nY"
          ]
        }
      }
    ],
    "hex": "020000000001015e1dd7bb1f5f84da34dc8249ec54f8a4489474d862cc9f00eb2efc739a55d9670000000000feffffff0260120d8f000000001600142fe0a5745ebd0cac796fc5dfcdef1db5c5a4926400e1f505000000001976a914d2eb140d8b7006e7b862827043f9cddd50da981188ac0247304402201583b48605bfa40e03f7cc7080c8d15367bc957774cc3d99104700a0e91c095a02202e49451150ac4ed22de4cd53b442961e893be76ac38124389a0aab424fe270b3012103c3f72c6385d661cc3aaec6b08f6aa8a81759977630fe5d0ade648ac96357d8f82c010000"
  },
  "inputs": [
    {
      "txid": "67d9559a73fc2eeb009fcc62d8749448a4f854ec4982dc34da845f1fbbd71d5e",
      "hash": "9270eb152123e990fbbb2d6b40b44b7c8358d09a594f1730d8f30bfd03840e0d",
      "version": 2,
      "size": 170,
      "vsize": 143,
      "weight": 572,
      "locktime": 0,
      "vin": [
        {
          "coinbase": "02ba000101",
          "txinwitness": [
            "0000000000000000000000000000000000000000000000000000000000000000"
          ],
          "sequence": 4294967295
        }
      ],
      "vout": [
        {
          "value": 25,
          "n": 0,
          "scriptPubKey": {
            "asm": "0 294f184433e8c7e3fb03f3f02df8c465653977d8",
            "hex": "0014294f184433e8c7e3fb03f3f02df8c465653977d8",
            "reqSigs": 1,
            "type": "witness_v0_keyhash",
            "addresses": [
              "bcrt1q9983s3pnarr787cr70czm7xyv4jnja7cs6rhes"
            ]
          }
        },
        {
          "value": 0,
          "n": 1,
          "scriptPubKey": {
            "asm": "OP_RETURN aa21a9ede2f61c3f71d1defd3fa999dfa36953755c690689799962b48bebd836974e8cf9",
            "hex": "6a24aa21a9ede2f61c3f71d1defd3fa999dfa36953755c690689799962b48bebd836974e8cf9",
            "type": "nulldata"
          }
        }
      ],
      "hex": "020000000001010000000000000000000000000000000000000000000000000000000000000000ffffffff0502ba000101ffffffff0200f9029500000000160014294f184433e8c7e3fb03f3f02df8c465653977d80000000000000000266a24aa21a9ede2f61c3f71d1defd3fa999dfa36953755c690689799962b48bebd836974e8cf90120000000000000000000000000000000000000000000000000000000000000000000000000",
      "blockhash": "4941269a7ff72c8c6c94e8d090d5cc7f6bad756635424a4f5fbf24858e5fd554",
      "confirmations": 115,
      "time": 1635930565,
      "blocktime": 1635930565
    }
  ]
}