{
  "transaction": {
    "txid": "8a02aef6be18fabbf10df0807dbadf15a7ee064cb39de1f92a3d11683800b4d8",
    "hash": "c0f9db2ad4b70d478405cc8a63f76e599cc0e21096a3f80988195555b3d3fc8f",
    "version": 2,
    "size": 234,
    "vsize": 153,
    "weight": 609,
    "locktime": 300,
    "vin": [
      {
        "txid": "b626cd5063910335a0210b6a12a170dbdfaecfaba7e4d171bca61b61e9bf72e3",
        "vout": 0,
        "scriptSig": {
          "asm": "",
          "hex": ""
        },
        "txinwitness": [
          "3044022006edd2b6fa1eadded9cb3b88e77107de66680014c6ef8c4f6644c5bb6aad6041022052a95814e3746bc747912028d5d907b717c7418cd8f50c78c3470ec20712bab201",
          "0349442be608b97b2d77180638a2ec2fe7c9be5074762a1b0e2d70fb19799f91d4"
        ],
        "sequence": 4294967294
      }
    ],
    "vout": [
      {
        "value": 23.9999847,
        "n": 0,
        "scriptPubKey": {
          "asm": "0 4023ed26296b123313e1c20a1dbdb8db76d1302a",
          "hex": "00144023ed26296b123313e1c20a1dbdb8db76d1302a",
          "reqSigs": 1,
          "type": "witness_v0_keyhash",
          "addresses": [
            "bcrt1qgq376f3fdvfrxylpcg9pm0dcmdmdzvp2p73t03"
          ]
        }
      },
      {
        "value": 1,
        "n": 1,
        "scriptPubKey": {
          "asm": "0 1553f31a3e25e770b7bc857b82909e83734dbfe4bcdb5a5e6fc419b6920c398a",
          "hex": "00201553f31a3e25e770b7bc857b82909e83734dbfe4bcdb5a5e6fc419b6920c398a",
          "reqSigs": 1,
          "type": "witness_v0_scripthash",
          "addresses": [
            "bcrt1qz4flxx37yhnhpdaus4ac9yy7sde5m0lyhnd45hn0csvmdysv8x9qr7gzry"
          ]
        }
      }
    ],
    "hex": "02000000000101e372bfe9611ba6bc71d1e4a7abcfaedfdb70a1126a0b21a03503916350cd26b60000000000feffffff0206120d8f000000001600144023ed26296b123313e1c20a1dbdb8db76d1302a00e1f505000000002200201553f31a3e25e770b7bc857b82909e83734dbfe4bcdb5a5e6fc419b6920c398a02473044022006edd2b6fa1eadded9cb3b88e77107de66680014c6ef8c4f6644c5bb6aad6041022052a95814e3746bc747912028d5d907b717c7418cd8f50c78c3470ec20712bab201210349442be608b97b2d77180638a2ec2fe7c9be5074762a1b0e2d70fb19799f91d42c010000"
  },
  "inputs": [
    {
      "txid": "b626cd5063910335a0210b6a12a170dbdfaecfaba7e4d171bca61b61e9bf72e3",
      "hash": "68fddc3790e1659042bf8c9c5dde5868ffd4797353f1453f8ef409997022dade",
      "version": 2,
      "size": 170,
      "vsize": 143,
      "weight": 572,
      "locktime": 0,
      "vin": [
        {
          "coinbase": "0298000101",
          "txinwitness": [
            "0000000000000000000000000000000000000000000000000000000000000000"
          ],
          "sequence": 4294967295
        }
      ],
      "vout": [
        {
          "value": 25,
          "n": 0,
          "scriptPubKey": {
            "asm": "0 7fff328fedfe7e71830697683d06092d19e11d00",
            "hex": "00147fff328fedfe7e71830697683d06092d19e11d00",
            "reqSigs": 1,
            "type": "witness_v0_keyhash",
            "addresses": [
              "bcrt1q0lln9rldlel8rqcxja5r6psf95v7z8gql8f08r"
            ]
          }
        },
        {
          "value": 0,
          "n": 1,
          "scriptPubKey": {
            "asm": "OP_RETURN aa21a9ede2f61c3f71d1defd3fa999dfa36953755c690689799962b48bebd836974e8cf9",
            "hex": "6a24aa21a9ede2f61c3f71d1defd3fa999dfa36953755c690689799962b48bebd836974e8cf9",
            "type": "nulldata"
          }
        }
      ],
      "hex": "020000000001010000000000000000000000000000000000000000000000000000000000000000ffffffff050298000101ffffffff0200f90295000000001600147fff328fedfe7e71830697683d06092d19e11d000000000000000000266a24aa21a9ede2f61c3f71d1defd3fa999dfa36953755c690689799962b48bebd836974e8cf90120000000000000000000000000000000000000000000000000000000000000000000000000",
      "blockhash": "4b72ce532bc2a9729ebd946aba37270c48d243e5114f3d639653897d0b6b9c04",
      "confirmations": 149,
      "time": 1628762031,
      "blocktime": 1628762031
    }
  ]
}