{
  "transaction": {
    "txid": "0e13208dcceaa53d4b1e1bde0c283fed4e7c57d747acba009e04129ead5fdb15",
    "hash": "a04f921944f01a5139ff89ec0f8c9dc058a14d22f3e9793c4687516207eaf456",
    "version": 2,
    "size": 222,
    "vsize": 141,
    "weight": 561,
    "locktime": 300,
    "vin": [
      {
        "txid": "a196152bf320f8a420139292a31f2368e5a65a8ef1209ee5171054d4671ff8d1",
        "vout": 0,
        "scriptSig": {
          "asm": "",
          "hex": ""
        },
        "txinwitness": [
          "3044022024e4216a7e94893eb72f8b494d7e7e9a585395bd5ee99ffb30fcffcd0ac581990220679eab43e698c8d8206ba5c0b761844e013d9ad0b583f8ddc7b5091ca1638a9201",
          "0349442be608b97b2d77180638a2ec2fe7c9be5074762a1b0e2d70fb19799f91d4"
        ],
        "sequence": 4294967294
      }
    ],
    "vout": [
      {
        "value": 23.9999859,
        "n": 0,
        "scriptPubKey": {
          "asm": "0 b5e2d582c930c85c2af8346e64637b87b8f4ce02",
          "hex": "0014b5e2d582c930c85c2af8346e64637b87b8f4ce02",
          "reqSigs": 1,
          "type": "witness_v0_keyhash",
          "addresses": [
            "bcrt1qkh3dtqkfxry9c2hcx3hxgcmms7u0fnszdz5m3q"
          ]
        }
      },
      {
        "value": 1,
        "n": 1,
        "scriptPubKey": {
          "asm": "0 d2eb140d8b7006e7b862827043f9cddd50da9811",
          "hex": "0014d2eb140d8b7006e7b862827043f9cddd50da9811",
          "reqSigs": 1,
          "type": "witness_v0_keyhash",
          "addresses": [
            "bcrt1q6t43grvtwqrw0wrzsfcy87wdm4gd4xq3580nk2"
          ]
        }
      }
    ],
    "hex": "02000000000101d1f81f67d4541017e59e20f18e5aa6e568231fa392921320a4f820f32b1596a10000000000feffffff027e120d8f00000000160014b5e2d582c930c85c2af8346e64637b87b8f4ce0200e1f50500000000160014d2eb140d8b7006e7b862827043f9cddd50da981102473044022024e4216a7e94893eb72f8b494d7e7e9a585395bd5ee99ffb30fcffcd0ac581990220679eab43e698c8d8206ba5c0b761844e013d9ad0b583f8ddc7b5091ca1638a9201210349442be608b97b2d77180638a2ec2fe7c9be5074762a1b0e2d70fb19799f91d42c010000"
  },
  "inputs": [
    {
      "txid": "a196152bf320f8a420139292a31f2368e5a65a8ef1209ee5171054d4671ff8d1",
      "hash": "3a97adda39e35d3009557cf506a59d210744c5148b83a2ae1645dbbb934ece4b",
      "version": 2,
      "size": 170,
      "vsize": 143,
      "weight": 572,
      "locktime": 0,
      "vin": [
        {
          "coinbase": "02c0000101",
          "txinwitness": [
            "0000000000000000000000000000000000000000000000000000000000000000"
          ],
          "sequence": 4294967295
        }
      ],
      "vout": [
        {
          "value": 25,
          "n": 0,
          "scriptPubKey": {
            "asm": "0 7fff328fedfe7e71830697683d06092d19e11d00",
            "hex": "00147fff328fedfe7e71830697683d06092d19e11d00",
            "reqSigs": 1,
            "type": "witness_v0_keyhash",
            "addresses": [
              "bcrt1q0lln9rldlel8rqcxja5r6psf95v7z8gql8f08r"
            ]
          }
        },
        {
          "value": 0,
          "n": 1,
          "scriptPubKey": {
            "asm": "OP_RETURN aa21a9ede2f61c3f71d1defd3fa999dfa36953755c690689799962b48bebd836974e8cf9",
            "hex": "6a24aa21a9ede2f61c3f71d1defd3fa999dfa36953755c690689799962b48bebd836974e8cf9",
            "type": "nulldata"
          }
        }
      ],
      "hex": "020000000001010000000000000000000000000000000000000000000000000000000000000000ffffffff0502c0000101ffffffff0200f90295000000001600147fff328fedfe7e71830697683d06092d19e11d000000000000000000266a24aa21a9ede2f61c3f71d1defd3fa999dfa36953755c690689799962b48bebd836974e8cf90120000000000000000000000000000000000000000000000000000000000000000000000000",
      "blockhash": "71eabb07c17d3c3f19ded675d4514940ecdb2c12c9eff4c981b4d97ffd182bc9",
      "confirmations": 109,
      "time": 1628762037,
      "blocktime": 1628762037
    }
  ]
}