{
  "transaction": {
    "txid": "f53717d2d5590a60ba409311be2c427684cfce26c7b2ec7e80e8bd279dda11c1",
    "hash": "98a450eb0cdcb99517e080fa778798f659be792dc75d1795c972b1c2072c1112",
    "version": 2,
    "size": 234,
    "vsize": 153,
    "weight": 609,
    "locktime": 300,
    "vin": [
      {
        "txid": "d984c41f4337aea83c253c37ed412b301e7fa6c14ef2531c0d6c0a6378b0cdcd",
        "vout": 0,
        "scriptSig": {
          "asm": "",
          "hex": ""
        },
        "txinwitness": [
          "30440220653c4e0fd71d1432d622e858a5665b39bf902c065500d2d447ae95b089a0217602205aa470628968cc2d230c609998dac2ffdf7f0c3be1d371e5fe9f950079286d2a01",
          "030436bbd047f2d811873f1de5d165fb1ddbca5abfa4f960e9b317e9c1b4f73e91"
        ],
        "sequence": 4294967294
      }
    ],
    "vout": [
      {
        "value": 1,
        "n": 0,
        "scriptPubKey": {
          "asm": "1 99a5f9c82618c47e99f1b05ce5236efe503a2403f03666a4070a3110b047dfb0",
          "hex": "512099a5f9c82618c47e99f1b05ce5236efe503a2403f03666a4070a3110b047dfb0",
          "reqSigs": 1,
          "type": "witness_v1_taproot",
          "addresses": [
            "bcrt1pnxjlnjpxrrz8ax03kpww2gmwlegr5fqr7qmxdfq8pgc3pvz8m7cqsf3aep"
          ]
        }
      },
      {
        "value": 23.9999847,
        "n": 1,
        "scriptPubKey": {
          "asm": "0 966560b848965612550203184c3a83deb0d40313",
          "hex": "0014966560b848965612550203184c3a83deb0d40313",
          "reqSigs": 1,
          "type": "witness_v0_keyhash",
          "addresses": [
            "bcrt1qjejkpwzgjetpy4gzqvvycw5rm6cdgqcng23vul"
          ]
        }
      }
    ],
    "hex": "02000000000101cdcdb078630a6c0d1c53f24ec1a67f1e302b41ed373c253ca8ae37431fc484d90000000000feffffff0200e1f5050000000022512099a5f9c82618c47e99f1b05ce5236efe503a2403f03666a4070a3110b047dfb006120d8f00000000160014966560b848965612550203184c3a83deb0d40313024730440220653c4e0fd71d1432d622e858a5665b39bf902c065500d2d447ae95b089a0217602205aa470628968cc2d230c609998dac2ffdf7f0c3be1d371e5fe9f950079286d2a0121030436bbd047f2d811873f1de5d165fb1ddbca5abfa4f960e9b317e9c1b4f73e912c010000"
  },
  "inputs": [
    {
      "txid": "d984c41f4337aea83c253c37ed412b301e7fa6c14ef2531c0d6c0a6378b0cdcd",
      "hash": "9b1bb9b8b2960eb0186f34d3c9253897a14f13bd1a3050d179061a710e0c345f",
      "version": 2,
      "size": 170,
      "vsize": 143,
      "weight": 572,
      "locktime": 0,
      "vin": [
        {
          "coinbase": "02a0000101",
          "txinwitness": [
            "0000000000000000000000000000000000000000000000000000000000000000"
          ],
          "sequence": 4294967295
        }
      ],
      "vout": [
        {
          "value": 25,
          "n": 0,
          "scriptPubKey": {
            "asm": "0 811e3d70cf8818255ac28a8d473f65481c424c8c",
            "hex": "0014811e3d70cf8818255ac28a8d473f65481c424c8c",
            "reqSigs": 1,
            "type": "witness_v0_keyhash",
            "addresses": [
              "bcrt1qsy0r6ux03qvz2kkz32x5w0m9fqwyynyvzq0ueg"
            ]
          }
        },
        {
          "value": 0,
          "n": 1,
          "scriptPubKey": {
            "asm": "OP_RETURN aa21a9ede2f61c3f71d1defd3fa999dfa36953755c690689799962b48bebd836974e8cf9",
            "hex": "6a24aa21a9ede2f61c3f71d1defd3fa999dfa36953755c690689799962b48bebd836974e8cf9",
            "type": "nulldata"
          }
        }
      ],
      "hex": "020000000001010000000000000000000000000000000000000000000000000000000000000000ffffffff0502a0000101ffffffff0200f9029500000000160014811e3d70cf8818255ac28a8d473f65481c424c8c0000000000000000266a24aa21a9ede2f61c3f71d1defd3fa999dfa36953755c690689799962b48bebd836974e8cf90120000000000000000000000000000000000000000000000000000000000000000000000000",
      "blockhash": "5bdc765444b11998063c9377267d1bbf0c15dc8fb78d4059f0b9ec665d0a1df3",
      "confirmations": 141,
      "time": 1634132025,
      "blocktime": 1634132025
    }
  ]
}