{
  "transaction": {
    "txid": "58a2cf84e210630e2160e976553dcda3f17b2bfb7a551be3fb693b1e664a6f05",
    "hash": "47ca222b3def3148a6a74060702369a46957372b0ab6930d34a9287466179daa",
    "version": 2,
    "size": 222,
    "vsize": 141,
    "weight": 561,
    "locktime": 300,
    "vin": [
      {
        "txid": "73402f1ea47811943fbf7eac7b4449eb5cbc2f1c40e82e9830e89d1147ffd66b",
        "vout": 0,
        "scriptSig": {
          "asm": "",
          "hex": ""
        },
        "txinwitness": [
          "3044022062ff90a22dac182553b64a8df8aebc1daf6bff7daf03817a857ecc42bc74c17f022018f10e9117118dcdd1ca5df09d06cc0da7f7bc220aeda2181a21bcbab3dfdb7401",
          "03c3f72c6385d661cc3aaec6b08f6aa8a81759977630fe5d0ade648ac96357d8f8"
        ],
        "sequence": 4294967294
      }
    ],
    "vout": [
      {
        "value": 1,
        "n": 0,
        "scriptPubKey": {
          "asm": "0 d2eb140d8b7006e7b862827043f9cddd50da9811",
          "hex": "0014d2eb140d8b7006e7b862827043f9cddd50da9811",
          "reqSigs": 1,
          "type": "witness_v0_keyhash",
          "addresses": [
            "bcrt1q6t43grvtwqrw0wrzsfcy87wdm4gd4xq3580nk2"
          ]
        }
      },
      {
        "value": 23.9999859,
        "n": 1,
        "scriptPubKey": {
          "asm": "0 f47f28781ddc5d5cc69afcbc7ea0d9ef274ed03f",
          "hex": "0014f47f28781ddc5d5cc69afcbc7ea0d9ef274ed03f",
          "reqSigs": 1,
          "type": "witness_v0_keyhash",
          "addresses": [
            "bcrt1q73ljs7qam3w4e356lj78agxeaun5a5pluy2gz3"
          ]
        }
      }
    ],
    "hex": "020000000001016bd6ff47119de830982ee8401c2fbc5ceb49447bac7ebf3f941178a41e2f40730000000000feffffff0200e1f50500000000160014d2eb140d8b7006e7b862827043f9cddd50da98117e120d8f00000000160014f47f28781ddc5d5cc69afcbc7ea0d9ef274ed03f02473044022062ff90a22dac182553b64a8df8aebc1daf6bff7daf03817a857ecc42bc74c17f022018f10e9117118dcdd1ca5df09d06cc0da7f7bc220aeda2181a21bcbab3dfdb74012103c3f72c6385d661cc3aaec6b08f6aa8a81759977630fe5d0ade648ac96357d8f82c010000"
  },
  "inputs": [
    {
      "txid": "73402f1ea47811943fbf7eac7b4449eb5cbc2f1c40e82e9830e89d1147ffd66b",
      "hash": "47d0648b0d3211df5cd5a5eae860bf443dd8afe734ce23f482ef9c40fb3e4040",
      "version": 2,
      "size": 170,
      "vsize": 143,
      "weight": 572,
      "locktime": 0,
      "vin": [
        {
          "coinbase": "02a3000101",
          "txinwitness": [
            "0000000000000000000000000000000000000000000000000000000000000000"
          ],
          "sequence": 4294967295
        }
      ],
      "vout": [
        {
          "value": 25,
          "n": 0,
          "scriptPubKey": {
            "asm": "0 294f184433e8c7e3fb03f3f02df8c465653977d8",
            "hex": "0014294f184433e8c7e3fb03f3f02df8c465653977d8",
            "reqSigs": 1,
            "type": "witness_v0_keyhash",
            "addresses": [
              "bcrt1q9983s3pnarr787cr70czm7xyv4jnja7cs6rhes"
            ]
          }
        },
        {
          "value": 0,
          "n": 1,
          "scriptPubKey": {
            "asm": "OP_RETURN aa21a9ede2f61c3f71d1defd3fa999dfa36953755c690689799962b48bebd836974e8cf9",
            "hex": "6a24aa21a9ede2f61c3f71d1defd3fa999dfa36953755c690689799962b48bebd836974e8cf9",
            "type": "nulldata"
          }
        }
      ],
      "hex": "020000000001010000000000000000000000000000000000000000000000000000000000000000ffffffff0502a3000101ffffffff0200f9029500000000160014294f184433e8c7e3fb03f3f02df8c465653977d80000000000000000266a24aa21a9ede2f61c3f71d1defd3fa999dfa36953755c690689799962b48bebd836974e8cf90120000000000000000000000000000000000000000000000000000000000000000000000000",
      "blockhash": "285661467e10ab5e70cf5a22b661d5ac5378723b4902b89e2d589c35725d01b7",
      "confirmations": 138,
      "time": 1635930561,
      "blocktime": 1635930561
    }
  ]
}