{
  "transaction": {
    "txid": "4621e2cd92230442f8c67140cfc450a89e94422cbca1d81baee8b2fe1771df15",
    "hash": "b7839029ec3f6cbf249c4078d4b45a9f0cbdc0efda8b08f835ddb0b7d6a82b67",
    "version": 2,
    "size": 223,
    "vsize": 142,
    "weight": 565,
    "locktime": 0,
    "vin": [
      {
        "txid": "823d93a272059def1109d2e0853f7916efe54f8beb27a730052cae4f79a4f0a2",
        "vout": 0,
        "scriptSig": {
          "asm": "",
          "hex": ""
        },
        "txinwitness": [
          "304402205a11accc181be7f138d5eb2eb5acba1c7575e211a56db04b05889472f2bdfd270220370402b5d49483124f3852495e6953b2ff5a328b218259d8b9c6d7142b72a9e201",
          "02ae597cf4b73d83809179eb68a5c88939491385da51b927644a45166dd947a09c"
        ],
        "sequence": 4294967294
      }
    ],
    "vout": [
      {
        "value": 1,
        "n": 0,
        "scriptPubKey": {
          "asm": "OP_HASH160 fe5cc5d87e3348a5f3eaa316898a0f05d520876e OP_EQUAL",
          "hex": "a914fe5cc5d87e3348a5f3eaa316898a0f05d520876e87",
          "address": "2NGSAkyhiWMZPcrfiwmcRWf9HQgpsiRGKv4",
          "type": "scripthash"
        }
      },
      {
        "value": 48.9999858,
        "n": 1,
        "scriptPubKey": {
          "asm": "0 ed58574b2d5678eebb7ff8d8f9e4a15e07c2065e",
          "hex": "0014ed58574b2d5678eebb7ff8d8f9e4a15e07c2065e",
          "address": "bcrt1qa4v9wjed2euwawmllrv0ne9ptcruypj7jrn24y",
          "type": "witness_v0_keyhash"
        }
      }
    ],
    "hex": "02000000000101a2f0a4794fae2c0530a727eb8b4fe5ef16793f85e0d20911ef9d0572a2933d820000000000feffffff0200e1f5050000000017a914fe5cc5d87e3348a5f3eaa316898a0f05d520876e87740b102401000000160014ed58574b2d5678eebb7ff8d8f9e4a15e07c2065e0247304402205a11accc181be7f138d5eb2eb5acba1c7575e211a56db04b05889472f2bdfd270220370402b5d49483124f3852495e6953b2ff5a328b218259d8b9c6d7142b72a9e2012102ae597cf4b73d83809179eb68a5c88939491385da51b927644a45166dd947a09c00000000"
  },
  "inputs": [
    {
      "txid": "823d93a272059def1109d2e0853f7916efe54f8beb27a730052cae4f79a4f0a2",
      "hash": "e375df00648766803d962138e9110495017f73419e865e3166767334fbe2d68d",
      "version": 2,
      "size": 168,
      "vsize": 141,
      "weight": 564,
      "locktime": 0,
      "vin": [
        {
          "coinbase": "520101",
          "txinwitness": [
            "0000000000000000000000000000000000000000000000000000000000000000"
          ],
          "sequence": 4294967295
        }
      ],
      "vout": [
        {
          "value": 50,
          "n": 0,
          "scriptPubKey": {
            "asm": "0 e6213883f0fc6d583ac3f6ba4c5408714c3f0bc8",
            "hex": "0014e6213883f0fc6d583ac3f6ba4c5408714c3f0bc8",
            "address": "bcrt1qucsn3qlsl3k4swkr76ayc4qgw9xr7z7g9lg4jc",
            "type": "witness_v0_keyhash"
          }
        },
        {
          "value": 0,
          "n": 1,
          "scriptPubKey": {
            "asm": "OP_RETURN aa21a9ede2f61c3f71d1defd3fa999dfa36953755c690689799962b48bebd836974e8cf9",
            "hex": "6a24aa21a9ede2f61c3f71d1defd3fa999dfa36953755c690689799962b48bebd836974e8cf9",
            "type": "nulldata"
          }
        }
      ],
      "hex": "020000000001010000000000000000000000000000000000000000000000000000000000000000ffffffff03520101ffffffff0200f2052a01000000160014e6213883f0fc6d583ac3f6ba4c5408714c3f0bc80000000000000000266a24aa21a9ede2f61c3f71d1defd3fa999dfa36953755c690689799962b48bebd836974e8cf90120000000000000000000000000000000000000000000000000000000000000000000000000",
      "blockhash": "4e9dc5b86f234ac1c09c157142cf6bb813c6710b62882f9b39d27ba5c98421c1",
      "confirmations": 299,
      "time": 1635841956,
      "blocktime": 1635841956
    }
  ]
}