{
  "transaction": {
    "txid": "c874837e29beecb69dca662f50c381041f7c0f43c1a947557c2325037da2a8b2",
    "hash": "21896fd30fa07ed4c9afe42e50f2abc5201bb7564d9f340ccf199287cce3f1e5",
    "version": 2,
    "size": 223,
    "vsize": 142,
    "weight": 565,
    "locktime": 300,
    "vin": [
      {
        "txid": "6e8562a2c974f49a30d01b01ed45ce4296abdcb018d65900be6005d0731b2609",
        "vout": 0,
        "scriptSig": {
          "asm": "",
          "hex": ""
        },
        "txinwitness": [
          "30440220718df6720a716286da50c947253c8e73cb2ff17b691bd5a761e0ce7213e94fc602202b8995e2173197a817114b400b6613450dc3f49e18ed202ce026dc798df21cbb01",
          "0349442be608b97b2d77180638a2ec2fe7c9be5074762a1b0e2d70fb19799f91d4"
        ],
        "sequence": 4294967294
      }
    ],
    "vout": [
      {
        "value": 1,
        "n": 0,
        "scriptPubKey": {
          "asm": "OP_HASH160 fe5cc5d87e3348a5f3eaa316898a0f05d520876e OP_EQUAL",
          "hex": "a914fe5cc5d87e3348a5f3eaa316898a0f05d520876e87",
          "reqSigs": 1,
          "type": "scripthash",
          "addresses": [
            "2NGSAkyhiWMZPcrfiwmcRWf9HQgpsiRGKv4"
          ]
        }
      },
      {
        "value": 23.9999858,
        "n": 1,
        "scriptPubKey": {
          "asm": "0 3f3538c1781a935cc6cb7e01454b0f97e943486c",
          "hex": "00143f3538c1781a935cc6cb7e01454b0f97e943486c",
          "reqSigs": 1,
          "type": "witness_v0_keyhash",
          "addresses": [
            "bcrt1q8u6n3stcr2f4e3kt0cq52jc0jl55xjrvneukau"
          ]
        }
      }
    ],
    "hex": "0200000000010109261b73d00560be0059d618b0dcab9642ce45ed011bd0309af474c9a262856e0000000000feffffff0200e1f5050000000017a914fe5cc5d87e3348a5f3eaa316898a0f05d520876e8774120d8f000000001600143f3538c1781a935cc6cb7e01454b0f97e943486c024730440220718df6720a716286da50c947253c8e73cb2ff17b691bd5a761e0ce7213e94fc602202b8995e2173197a817114b400b6613450dc3f49e18ed202ce026dc798df21cbb01210349442be608b97b2d77180638a2ec2fe7c9be5074762a1b0e2d70fb19799f91d42c010000"
  },
  "inputs": [
    {
      "txid": "6e8562a2c974f49a30d01b01ed45ce4296abdcb018d65900be6005d0731b2609",
      "hash": "a8d54010a1790efd1df5d58a7a5bb21ff12054604f07eb46da149d405203b99c",
      "version": 2,
      "size": 170,
      "vsize": 143,
      "weight": 572,
      "locktime": 0,
      "vin": [
        {
          "coinbase": "02ae000101",
          "txinwitness": [
            "0000000000000000000000000000000000000000000000000000000000000000"
          ],
          "sequence": 4294967295
        }
      ],
      "vout": [
        {
          "value": 25,
          "n": 0,
          "scriptPubKey": {
            "asm": "0 7fff328fedfe7e71830697683d06092d19e11d00",
            "hex": "00147fff328fedfe7e71830697683d06092d19e11d00",
            "reqSigs": 1,
            "type": "witness_v0_keyhash",
            "addresses": [
              "bcrt1q0lln9rldlel8rqcxja5r6psf95v7z8gql8f08r"
            ]
          }
        },
        {
          "value": 0,
          "n": 1,
          "scriptPubKey": {
            "asm": "OP_RETURN aa21a9ede2f61c3f71d1defd3fa999dfa36953755c690689799962b48bebd836974e8cf9",
            "hex": "6a24aa21a9ede2f61c3f71d1defd3fa999dfa36953755c690689799962b48bebd836974e8cf9",
            "type": "nulldata"
          }
        }
      ],
      "hex": "020000000001010000000000000000000000000000000000000000000000000000000000000000ffffffff0502ae000101ffffffff0200f90295000000001600147fff328fedfe7e71830697683d06092d19e11d000000000000000000266a24aa21a9ede2f61c3f71d1defd3fa999dfa36953755c690689799962b48bebd836974e8cf90120000000000000000000000000000000000000000000000000000000000000000000000000",
      "blockhash": "7bd4d8c4cfe306f8599539e3f840c19ee83eb7ec81716f99ca2ab714cb948f00",
      "confirmations": 127,
      "time": 1628762034,
      "blocktime": 1628762034
    }
  ]
}