{
  "transaction": {
    "txid": "1b8f258bdbaaf49bf9bcbe6e8f54643463b676bcaa215110d1998ae707d721e7",
    "hash": "457b0f83b48a6de9913451d27059deb23417302f816972d24aa5e95aa4b69ced",
    "version": 1,
    "size": 362,
    "vsize": 161,
    "weight": 644,
    "locktime": 0,
    "vin": [
      {
        "txid": "2f3d604fc57df3ee1051031df8bcd877f35a7c6e903b43c2c82616d3ec16ccf2",
        "vout": 0,
        "scriptSig": {
          "asm": "",
          "hex": ""
        },
        "txinwitness": [
          "59dbb0e04ec8a2dc04ed3623ade3417ae9e69bd4ce6ab1d05053bfc215b68a2a28dcfee713ff836c2c5af44236cc659f4d8ee597ade62aad843f2b194f8268d8",
          "390d61a56a047b2b78df626dc4182147333f4bd83082178d83172eceaa60fd5200922ead43524d092c700279b1d928a505df34150040a6977a1791b0324985cf",
          "208fedaf75b5b08cddf3bf4631c658b68ee6766a8e999467a641d7cb7aaaecec97ad20e21c29b4a7eeace9c7a8cefb568ca00c86ff9bf5e79e07e5442c29d4a0950d04ac",
          "c169d984b8967c360d084920bb8536dddef42b1ccb6337f2d310a8dabd24d43cc2185457a6e74cdfcdf020c0eef3b794f3077f43139aa7c30d50da5a26dceed225"
        ],
        "sequence": 4294967295
      }
    ],
    "vout": [
      {
        "value": 0.99999,
        "n": 0,
        "scriptPubKey": {
          "asm": "1 c4e6bd0d13869e5810c2833896e96a37ad005f48fe7f3bed6d6ddb68e3bacbf8",
          "hex": "5120c4e6bd0d13869e5810c2833896e96a37ad005f48fe7f3bed6d6ddb68e3bacbf8",
          "reqSigs": 1,
          "type": "witness_v1_taproot",
          "addresses": [
            "bcrt1pcnnt6rgns609syxzsvufd6t2x7ksqh6glelnhmtddhdk3ca6e0uqnpgrud"
          ]
        }
      }
    ],
    "hex": "01000000000101f2cc16ecd31626c8c2433b906e7c5af377d8bcf81d035110eef37dc54f603d2f0000000000ffffffff0118ddf50500000000225120c4e6bd0d13869e5810c2833896e96a37ad005f48fe7f3bed6d6ddb68e3bacbf8044059dbb0e04ec8a2dc04ed3623ade3417ae9e69bd4ce6ab1d05053bfc215b68a2a28dcfee713ff836c2c5af44236cc659f4d8ee597ade62aad843f2b194f8268d840390d61a56a047b2b78df626dc4182147333f4bd83082178d83172eceaa60fd5200922ead43524d092c700279b1d928a505df34150040a6977a1791b0324985cf44208fedaf75b5b08cddf3bf4631c658b68ee6766a8e999467a641d7cb7aaaecec97ad20e21c29b4a7eeace9c7a8cefb568ca00c86ff9bf5e79e07e5442c29d4a0950d04ac41c169d984b8967c360d084920bb8536dddef42b1ccb6337f2d310a8dabd24d43cc2185457a6e74cdfcdf020c0eef3b794f3077f43139aa7c30d50da5a26dceed22500000000"
  },
  "inputs": [
    {
      "txid": "2f3d604fc57df3ee1051031df8bcd877f35a7c6e903b43c2c82616d3ec16ccf2",
      "hash": "4cdd7f0a3b2a1fc140ce9b29e0d75f81c6be0fed21f47bcf411025ae5f7b4e74",
      "version": 2,
      "size": 234,
      "vsize": 153,
      "weight": 609,
      "locktime": 300,
      "vin": [
        {
          "txid": "b0622f55b1e828766a454ebca0ed84b56d69d552593ab797861aaec77770793d",
          "vout": 0,
          "scriptSig": {
            "asm": "",
            "hex": ""
          },
          "txinwitness": [
            "304402202604edef6f7317e95524e2525b2d06bc76aa95a2d67cec1e7b14c7d8f8eed25d022065b0cd52310cc38c5ed309a3ff7c171fc708da7e3614c977e00372e80b05cbbe01",
            "02b1e23828070121d55f231f7f1f950644d730eb6dc34763be9c6e42afb4b7179c"
          ],
          "sequence": 4294967294
        }
      ],
      "vout": [
        {
          "value": 1,
          "n": 0,
          "scriptPubKey": {
            "asm": "1 c4e6bd0d13869e5810c2833896e96a37ad005f48fe7f3bed6d6ddb68e3bacbf8",
            "hex": "5120c4e6bd0d13869e5810c2833896e96a37ad005f48fe7f3bed6d6ddb68e3bacbf8",
            "reqSigs": 1,
            "type": "witness_v1_taproot",
            "addresses": [
              "bcrt1pcnnt6rgns609syxzsvufd6t2x7ksqh6glelnhmtddhdk3ca6e0uqnpgrud"
            ]
          }
        },
        {
          "value": 23.9999847,
          "n": 1,
          "scriptPubKey": {
            "asm": "0 440d108f07692d8b11087a388bd7b85e8e503fd1",
            "hex": "0014440d108f07692d8b11087a388bd7b85e8e503fd1",
            "reqSigs": 1,
            "type": "witness_v0_keyhash",
            "addresses": [
              "bcrt1qgsx3prc8dykckygg0gugh4act689q0736hdt09"
            ]
          }
        }
      ],
      "hex": "020000000001013d797077c7ae1a8697b73a5952d5696db584eda0bc4e456a7628e8b1552f62b00000000000feffffff0200e1f50500000000225120c4e6bd0d13869e5810c2833896e96a37ad005f48fe7f3bed6d6ddb68e3bacbf806120d8f00000000160014440d108f07692d8b11087a388bd7b85e8e503fd10247304402202604edef6f7317e95524e2525b2d06bc76aa95a2d67cec1e7b14c7d8f8eed25d022065b0cd52310cc38c5ed309a3ff7c171fc708da7e3614c977e00372e80b05cbbe012102b1e23828070121d55f231f7f1f950644d730eb6dc34763be9c6e42afb4b7179c2c010000"
    }
  ]
}