{
  "transaction": {
    "txid": "5429b4f68e28e22c4bed1f1ea69f480220a39d8fa831c847c7b15f36a9325ad9",
    "hash": "eed8ed06f5dabc1f3a5e42ccd2803fd97b46313963ff918072fff57fa6d824a3",
    "version": 1,
    "size": 349,
    "vsize": 158,
    "weight": 631,
    "locktime": 0,
    "vin": [
      {
        "txid": "8a02aef6be18fabbf10df0807dbadf15a7ee064cb39de1f92a3d11683800b4d8",
        "vout": 1,
        "scriptSig": {
          "asm": "",
          "hex": ""
        },
        "txinwitness": [
          "",
          "304502210086d3495d58fbc3d0c0776d72932e86d9fdaec8852732e7b4bfff9d41c563883702203f282f1279e658fbcb9a6d90885780d0a0d6e229bd5882840f3353b74eddd74b01",
          "30440220700d13ab30bb6e9f30caad767bcd9df8f975eca28712f8170092f705628f28760220264a126f47aedc01a291de5789b997e12de7a0ac8d116d16f8ab5b0aa0d18ddb01",
          "5221028fedaf75b5b08cddf3bf4631c658b68ee6766a8e999467a641d7cb7aaaecec972103316bc27d95b96418349afc6298c259bb999c6e8f39a7217787ad53602be7c1472102e21c29b4a7eeace9c7a8cefb568ca00c86ff9bf5e79e07e5442c29d4a0950d0453ae"
        ],
        "sequence": 4294967295
      }
    ],
    "vout": [
      {
        "value": 0.99999,
        "n": 0,
        "scriptPubKey": {
          "asm": "0 1553f31a3e25e770b7bc857b82909e83734dbfe4bcdb5a5e6fc419b6920c398a",
          "hex": "00201553f31a3e25e770b7bc857b82909e83734dbfe4bcdb5a5e6fc419b6920c398a",
          "reqSigs": 1,
          "type": "witness_v0_scripthash",
          "addresses": [
            "bcrt1qz4flxx37yhnhpdaus4ac9yy7sde5m0lyhnd45hn0csvmdysv8x9qr7gzry"
          ]
        }
      }
    ],
    "hex": "01000000000101d8b4003868113d2af9e19db34c06eea715dfba7d80f00df1bbfa18bef6ae028a0100000000ffffffff0118ddf505000000002200201553f31a3e25e770b7bc857b82909e83734dbfe4bcdb5a5e6fc419b6920c398a040048304502210086d3495d58fbc3d0c0776d72932e86d9fdaec8852732e7b4bfff9d41c563883702203f282f1279e658fbcb9a6d90885780d0a0d6e229bd5882840f3353b74eddd74b014730440220700d13ab30bb6e9f30caad767bcd9df8f975eca28712f8170092f705628f28760220264a126f47aedc01a291de5789b997e12de7a0ac8d116d16f8ab5b0aa0d18ddb01695221028fedaf75b5b08cddf3bf4631c658b68ee6766a8e999467a641d7cb7aaaecec972103316bc27d95b96418349afc6298c259bb999c6e8f39a7217787ad53602be7c1472102e21c29b4a7eeace9c7a8cefb568ca00c86ff9bf5e79e07e5442c29d4a0950d0453ae00000000"
  },
  "inputs": [
    {
      "txid": "8a02aef6be18fabbf10df0807dbadf15a7ee064cb39de1f92a3d11683800b4d8",
      "hash": "c0f9db2ad4b70d478405cc8a63f76e599cc0e21096a3f80988195555b3d3fc8f",
      "version": 2,
      "size": 234,
      "vsize": 153,
      "weight": 609,
      "locktime": 300,
      "vin": [
        {
          "txid": "b626cd5063910335a0210b6a12a170dbdfaecfaba7e4d171bca61b61e9bf72e3",
          "vout": 0,
          "scriptSig": {
            "asm": "",
            "hex": ""
          },
          "txinwitness": [
            "3044022006edd2b6fa1eadded9cb3b88e77107de66680014c6ef8c4f6644c5bb6aad6041022052a95814e3746bc747912028d5d907b717c7418cd8f50c78c3470ec20712bab201",
            "0349442be608b97b2d77180638a2ec2fe7c9be5074762a1b0e2d70fb19799f91d4"
          ],
          "sequence": 4294967294
        }
      ],
      "vout": [
        {
          "value": 23.9999847,
          "n": 0,
          "scriptPubKey": {
            "asm": "0 4023ed26296b123313e1c20a1dbdb8db76d1302a",
            "hex": "00144023ed26296b123313e1c20a1dbdb8db76d1302a",
            "reqSigs": 1,
            "type": "witness_v0_keyhash",
            "addresses": [
              "bcrt1qgq376f3fdvfrxylpcg9pm0dcmdmdzvp2p73t03"
            ]
          }
        },
        {
          "value": 1,
          "n": 1,
          "scriptPubKey": {
            "asm": "0 1553f31a3e25e770b7bc857b82909e83734dbfe4bcdb5a5e6fc419b6920c398a",
            "hex": "00201553f31a3e25e770b7bc857b82909e83734dbfe4bcdb5a5e6fc419b6920c398a",
            "reqSigs": 1,
            "type": "witness_v0_scripthash",
            "addresses": [
              "bcrt1qz4flxx37yhnhpdaus4ac9yy7sde5m0lyhnd45hn0csvmdysv8x9qr7gzry"
            ]
          }
        }
      ],
      "hex": "02000000000101e372bfe9611ba6bc71d1e4a7abcfaedfdb70a1126a0b21a03503916350cd26b60000000000feffffff0206120d8f000000001600144023ed26296b123313e1c20a1dbdb8db76d1302a00e1f505000000002200201553f31a3e25e770b7bc857b82909e83734dbfe4bcdb5a5e6fc419b6920c398a02473044022006edd2b6fa1eadded9cb3b88e77107de66680014c6ef8c4f6644c5bb6aad6041022052a95814e3746bc747912028d5d907b717c7418cd8f50c78c3470ec20712bab201210349442be608b97b2d77180638a2ec2fe7c9be5074762a1b0e2d70fb19799f91d42c010000"
    }
  ]
}