{
  "transaction": {
    "txid": "cf117345d6389352dc8f1783fbf82002cb7a4f3f6a9d27059424fd19a0e5efb4",
    "hash": "32bc5b188f4dbf9ce6ce910efc789d8a0e701801717df54c79ac6bc534f38290",
    "version": 2,
    "size": 193,
    "vsize": 142,
    "weight": 568,
    "locktime": 1990,
    "vin": [
      {
        "txid": "1c0b6983ccebd66ee5602004bd2f1ea18a2d26d41eab96a543efa23245f1357c",
        "vout": 0,
        "scriptSig": {
          "asm": "",
          "hex": ""
        },
        "txinwitness": [
          "745a54244b9d276fce94c05d5be87cab621682c49cc89d3f538bd477094d64a67302aec6126d150c2a07b554f7f1b7bf8c229f2e2ec7a75e3b584158011a6c6c"
        ],
        "sequence": 4294967294
      }
    ],
    "vout": [
      {
        "value": 0.2812358,
        "n": 0,
        "scriptPubKey": {
          "asm": "0 8b9a89a0b36222c88359662d888dc55c183ccd79",
          "hex": "00148b9a89a0b36222c88359662d888dc55c183ccd79",
          "address": "bcrt1q3wdgng9nvg3v3q6evckc3rw9tsvrenteszxse9",
          "type": "witness_v0_keyhash"
        }
      },
      {
        "value": 0.5,
        "n": 1,
        "scriptPubKey": {
          "asm": "1 df8dac0d2d8c394a1a8374e45e369e37af0f0a9d7c81f975e774f4cf202fbe05",
          "hex": "5120df8dac0d2d8c394a1a8374e45e369e37af0f0a9d7c81f975e774f4cf202fbe05",
          "address": "bcrt1pm7x6crfd3su55x5rwnj9ud57x7hs7z5a0jqlja08wn6v7gp0hczst3jdkh",
          "type": "witness_v1_taproot"
        }
      }
    ],
    "hex": "020000000001017c35f14532a2ef43a596ab1ed4262d8aa11e2fbd042060e56ed6ebcc83690b1c0000000000feffffff02bc21ad01000000001600148b9a89a0b36222c88359662d888dc55c183ccd7980f0fa0200000000225120df8dac0d2d8c394a1a8374e45e369e37af0f0a9d7c81f975e774f4cf202fbe050140745a54244b9d276fce94c05d5be87cab621682c49cc89d3f538bd477094d64a67302aec6126d150c2a07b554f7f1b7bf8c229f2e2ec7a75e3b584158011a6c6cc6070000"
  },
  "inputs": [
    {
      "txid": "1c0b6983ccebd66ee5602004bd2f1ea18a2d26d41eab96a543efa23245f1357c",
      "hash": "bed4d4639203d67ee0ddfc041aac4c0651ca673b887e701f6172b9cbf2b4ab9c",
      "version": 2,
      "size": 182,
      "vsize": 155,
      "weight": 620,
      "locktime": 0,
      "vin": [
        {
          "coinbase": "0287030101",
          "txinwitness": [
            "0000000000000000000000000000000000000000000000000000000000000000"
          ],
          "sequence": 4294967295
        }
      ],
      "vout": [
        {
          "value": 0.78125,
          "n": 0,
          "scriptPubKey": {
            "asm": "1 328329ad2911a54724d43940c1bc595b566c1ddc09d59744d6d7284b2448c488",
            "hex": "5120328329ad2911a54724d43940c1bc595b566c1ddc09d59744d6d7284b2448c488",
            "address": "bcrt1px2pjntffzxj5wfx589qvr0zetdtxc8wup82ew3xk6u5ykfzgcjyqchpcvf",
            "type": "witness_v1_taproot"
          }
        },
        {
          "value": 0,
          "n": 1,
          "scriptPubKey": {
            "asm": "OP_RETURN aa21a9ede2f61c3f71d1defd3fa999dfa36953755c690689799962b48bebd836974e8cf9",
            "hex": "6a24aa21a9ede2f61c3f71d1defd3fa999dfa36953755c690689799962b48bebd836974e8cf9",
            "type": "nulldata"
          }
        }
      ],
      "hex": "020000000001010000000000000000000000000000000000000000000000000000000000000000ffffffff050287030101ffffffff02c817a80400000000225120328329ad2911a54724d43940c1bc595b566c1ddc09d59744d6d7284b2448c4880000000000000000266a24aa21a9ede2f61c3f71d1defd3fa999dfa36953755c690689799962b48bebd836974e8cf90120000000000000000000000000000000000000000000000000000000000000000000000000",
      "blockhash": "3efc9645ba1573f0049daf2ac1a5661b83041a61d61badc317230c539c47e187",
      "confirmations": 1088,
      "time": 1635255791,
      "blocktime": 1635255791
    }
  ]
}