{
  "transaction": {
    "txid": "d9ac221874a2a5fd22f571b06f13c9e07e60ca9d0091f7d5a062b379f49769f6",
    "hash": "d9ac221874a2a5fd22f571b06f13c9e07e60ca9d0091f7d5a062b379f49769f6",
    "version": 1,
    "size": 338,
    "vsize": 338,
    "weight": 1352,
    "locktime": 0,
    "vin": [
      {
        "txid": "9a076b71936ee603e1e11fd21a6f634886406665000bf2c19948cb348d641f2b",
        "vout": 0,
        "scriptSig": {
          "asm": "0 3045022100e7845c08a8fe6b930124acbfdc2da7dacfcbf136a00d58dd6e016297fa93f37202206175c10722ea545fcc83eb76443e48357343392253ed28becfdf960e0911a4ad[ALL] 3044022072a2ecafdaef46cc9687049ef06e125f2861e6227e8fe7c74399dce4a473e87c02207cbcc4077f340bcead5b902635a10e16161ccbc98b9e95c59e225c27718b0337[ALL] 5221028fedaf75b5b08cddf3bf4631c658b68ee6766a8e999467a641d7cb7aaaecec972103316bc27d95b96418349afc6298c259bb999c6e8f39a7217787ad53602be7c1472102e21c29b4a7eeace9c7a8cefb568ca00c86ff9bf5e79e07e5442c29d4a0950d0453ae",
          "hex": "00483045022100e7845c08a8fe6b930124acbfdc2da7dacfcbf136a00d58dd6e016297fa93f37202206175c10722ea545fcc83eb76443e48357343392253ed28becfdf960e0911a4ad01473044022072a2ecafdaef46cc9687049ef06e125f2861e6227e8fe7c74399dce4a473e87c02207cbcc4077f340bcead5b902635a10e16161ccbc98b9e95c59e225c27718b0337014c695221028fedaf75b5b08cddf3bf4631c658b68ee6766a8e999467a641d7cb7aaaecec972103316bc27d95b96418349afc6298c259bb999c6e8f39a7217787ad53602be7c1472102e21c29b4a7eeace9c7a8cefb568ca00c86ff9bf5e79e07e5442c29d4a0950d0453ae"
        },
        "sequence": 4294967295
      }
    ],
    "vout": [
      {
        "value": 0.99999,
        "n": 0,
        "scriptPubKey": {
          "asm": "OP_HASH160 fe5cc5d87e3348a5f3eaa316898a0f05d520876e OP_EQUAL",
          "hex": "a914fe5cc5d87e3348a5f3eaa316898a0f05d520876e87",
          "reqSigs": 1,
          "type": "scripthash",
          "addresses": [
            "2NGSAkyhiWMZPcrfiwmcRWf9HQgpsiRGKv4"
          ]
        }
      }
    ],
    "hex": "01000000012b1f648d34cb4899c1f20b006566408648636f1ad21fe1e103e66e93716b079a00000000fdfd0000483045022100e7845c08a8fe6b930124acbfdc2da7dacfcbf136a00d58dd6e016297fa93f37202206175c10722ea545fcc83eb76443e48357343392253ed28becfdf960e0911a4ad01473044022072a2ecafdaef46cc9687049ef06e125f2861e6227e8fe7c74399dce4a473e87c02207cbcc4077f340bcead5b902635a10e16161ccbc98b9e95c59e225c27718b0337014c695221028fedaf75b5b08cddf3bf4631c658b68ee6766a8e999467a641d7cb7aaaecec972103316bc27d95b96418349afc6298c259bb999c6e8f39a7217787ad53602be7c1472102e21c29b4a7eeace9c7a8cefb568ca00c86ff9bf5e79e07e5442c29d4a0950d0453aeffffffff0118ddf5050000000017a914fe5cc5d87e3348a5f3eaa316898a0f05d520876e8700000000"
  },
  "inputs": [
    {
      "txid": "9a076b71936ee603e1e11fd21a6f634886406665000bf2c19948cb348d641f2b",
      "hash": "af546eb618216c997896d07af454b8ed6b7b288593e4193caaa696466fc472e9",
      "version": 2,
      "size": 223,
      "vsize": 142,
      "weight": 565,
      "locktime": 300,
      "vin": [
        {
          "txid": "a23c63629df6a6df55d8e0a7598998c7774be0ce89925f1a135e6e019341f83d",
          "vout": 0,
          "scriptSig": {
            "asm": "",
            "hex": ""
          },
          "txinwitness": [
            "304402206b7eec36588dacff416b579650300573ea084dcb4a15364541efa7c45a28a0990220607f9ec9b4a7ae4be2cadd68748b1aab1be86c76f00d886753b2b1ff8aa33cb301",
            "03c3f72c6385d661cc3aaec6b08f6aa8a81759977630fe5d0ade648ac96357d8f8"
          ],
          "sequence": 4294967294
        }
      ],
      "vout": [
        {
          "value": 1,
          "n": 0,
          "scriptPubKey": {
            "asm": "OP_HASH160 fe5cc5d87e3348a5f3eaa316898a0f05d520876e OP_EQUAL",
            "hex": "a914fe5cc5d87e3348a5f3eaa316898a0f05d520876e87",
            "reqSigs": 1,
            "type": "scripthash",
            "addresses": [
              "2NGSAkyhiWMZPcrfiwmcRWf9HQgpsiRGKv4"
            ]
          }
        },
        {
          "value": 23.9999858,
          "n": 1,
          "scriptPubKey": {
            "asm": "0 ca181c8495d94009c870cd09b11e4cdcf2479cab",
            "hex": "0014ca181c8495d94009c870cd09b11e4cdcf2479cab",
            "reqSigs": 1,
            "type": "witness_v0_keyhash",
            "addresses": [
              "bcrt1qegvpepy4m9qqnjrse5ymz8jvmney089tz6s34z"
            ]
          }
        }
      ],
      "hex": "020000000001013df84193016e5e131a5f9289cee04b77c7988959a7e0d855dfa6f69d62633ca20000000000feffffff0200e1f5050000000017a914fe5cc5d87e3348a5f3eaa316898a0f05d520876e8774120d8f00000000160014ca181c8495d94009c870cd09b11e4cdcf2479cab0247304402206b7eec36588dacff416b579650300573ea084dcb4a15364541efa7c45a28a0990220607f9ec9b4a7ae4be2cadd68748b1aab1be86c76f00d886753b2b1ff8aa33cb3012103c3f72c6385d661cc3aaec6b08f6aa8a81759977630fe5d0ade648ac96357d8f82c010000"
    }
  ]
}