{
  "transaction": {
    "txid": "5647ab06fb6ca2642f511e5396dad57d231a2eb838d6648beceb51c7ebaf9c28",
    "hash": "9528faf89a61e6ad4d2e00a70679bb3eed43443384a199f07e0345e2f7e1f6c2",
    "version": 1,
    "size": 669,
    "vsize": 269,
    "weight": 1074,
    "locktime": 0,
    "vin": [
      {
        "txid": "da35718cf5b65507dc005d90b2c07b51dedae8c7500f3d1247294ecf6c8e039a",
        "vout": 0,
        "scriptSig": {
          "asm": "",
          "hex": ""
        },
        "txinwitness": [
          "fd1c7d372f0787c60661ddd6ba0a0443d15ad07e0dd7d2df889cca42283dac3789ef06b64acf03403a89d26430c1b2967c5e26abf8ca06f7c43c4dc717cc2557",
          "002974a45271d9b118472600f79157acb734eb49834b1fa00fdd0727f67a8634a86e18643e4f902c08f9fa2d6963dd1540bdf02451f70e72f4dbf1d77d667f62",
          "208fedaf75b5b08cddf3bf4631c658b68ee6766a8e999467a641d7cb7aaaecec97ad20e21c29b4a7eeace9c7a8cefb568ca00c86ff9bf5e79e07e5442c29d4a0950d04ac",
          "c169d984b8967c360d084920bb8536dddef42b1ccb6337f2d310a8dabd24d43cc2185457a6e74cdfcdf020c0eef3b794f3077f43139aa7c30d50da5a26dceed225"
        ],
        "sequence": 4294967295
      },
      {
        "txid": "d7665c4d2dba2c6dc82a521d6e8e72dcbdebf5672d9208bae5500a5215b28349",
        "vout": 0,
        "scriptSig": {
          "asm": "",
          "hex": ""
        },
        "txinwitness": [
          "a19b994a6aed8c6795ad940f1e9b0a7861e402d0b822015e6ff69aa2ba369e73da54d0614710797511bf75112d95158c4408454d2f2c9bb2b619dd421d9eb615",
          "c9e0379d57f87c0286010f008fec3b8bd7d39abf99cf90c6e1a091c33f579ee54eb291f9e091c85a8cb9e4df2bfe2ddc09c418fc5b070a74d25c1d78331c6a7f",
          "208fedaf75b5b08cddf3bf4631c658b68ee6766a8e999467a641d7cb7aaaecec97ad20e21c29b4a7eeace9c7a8cefb568ca00c86ff9bf5e79e07e5442c29d4a0950d04ac",
          "c169d984b8967c360d084920bb8536dddef42b1ccb6337f2d310a8dabd24d43cc2185457a6e74cdfcdf020c0eef3b794f3077f43139aa7c30d50da5a26dceed225"
        ],
        "sequence": 4294967295
      }
    ],
    "vout": [
      {
        "value": 1.99999,
        "n": 0,
        "scriptPubKey": {
          "asm": "1 c4e6bd0d13869e5810c2833896e96a37ad005f48fe7f3bed6d6ddb68e3bacbf8",
          "hex": "5120c4e6bd0d13869e5810c2833896e96a37ad005f48fe7f3bed6d6ddb68e3bacbf8",
          "address": "bcrt1pcnnt6rgns609syxzsvufd6t2x7ksqh6glelnhmtddhdk3ca6e0uqnpgrud",
          "type": "witness_v1_taproot"
        }
      }
    ],
    "hex": "010000000001029a038e6ccf4e2947123d0f50c7e8dade517bc0b2905d00dc0755b6f58c7135da0000000000ffffffff4983b215520a50e5ba08922d67f5ebbddc728e6e1d522ac86d2cba2d4d5c66d70000000000ffffffff0118beeb0b00000000225120c4e6bd0d13869e5810c2833896e96a37ad005f48fe7f3bed6d6ddb68e3bacbf80440fd1c7d372f0787c60661ddd6ba0a0443d15ad07e0dd7d2df889cca42283dac3789ef06b64acf03403a89d26430c1b2967c5e26abf8ca06f7c43c4dc717cc255740002974a45271d9b118472600f79157acb734eb49834b1fa00fdd0727f67a8634a86e18643e4f902c08f9fa2d6963dd1540bdf02451f70e72f4dbf1d77d667f6244208fedaf75b5b08cddf3bf4631c658b68ee6766a8e999467a641d7cb7aaaecec97ad20e21c29b4a7eeace9c7a8cefb568ca00c86ff9bf5e79e07e5442c29d4a0950d04ac41c169d984b8967c360d084920bb8536dddef42b1ccb6337f2d310a8dabd24d43cc2185457a6e74cdfcdf020c0eef3b794f3077f43139aa7c30d50da5a26dceed2250440a19b994a6aed8c6795ad940f1e9b0a7861e402d0b822015e6ff69aa2ba369e73da54d0614710797511bf75112d95158c4408454d2f2c9bb2b619dd421d9eb61540c9e0379d57f87c0286010f008fec3b8bd7d39abf99cf90c6e1a091c33f579ee54eb291f9e091c85a8cb9e4df2bfe2ddc09c418fc5b070a74d25c1d78331c6a7f44208fedaf75b5b08cddf3bf4631c658b68ee6766a8e999467a641d7cb7aaaecec97ad20e21c29b4a7eeace9c7a8cefb568ca00c86ff9bf5e79e07e5442c29d4a0950d04ac41c169d984b8967c360d084920bb8536dddef42b1ccb6337f2d310a8dabd24d43cc2185457a6e74cdfcdf020c0eef3b794f3077f43139aa7c30d50da5a26dceed22500000000"
  },
  "inputs": [
    {
      "txid": "da35718cf5b65507dc005d90b2c07b51dedae8c7500f3d1247294ecf6c8e039a",
      "hash": "f24c3e34e3730fb583df6d5d0fae83eabe31db2dd7e9a20f3073dc059ac58095",
      "version": 2,
      "size": 234,
      "vsize": 153,
      "weight": 609,
      "locktime": 0,
      "vin": [
        {
          "txid": "baade7118d7248348529b7a02ffb3520c790cac692250098fa01cf4d353014b4",
          "vout": 0,
          "scriptSig": {
            "asm": "",
            "hex": ""
          },
          "txinwitness": [
            "304402205b9b70764aecf7f356dde145d2db1d2005947f2f1f3b98a8e476602108624b4802200f434c1bc8bda35353ed85ff73418897028f9d3e505bc0ca0edf86a9079ca14601",
            "02c9ceb1981e83aa724b6af1973ce9c698a6ce2268aae7f98f9489d043c038d21f"
          ],
          "sequence": 4294967294
        }
      ],
      "vout": [
        {
          "value": 1,
          "n": 0,
          "scriptPubKey": {
            "asm": "1 c4e6bd0d13869e5810c2833896e96a37ad005f48fe7f3bed6d6ddb68e3bacbf8",
            "hex": "5120c4e6bd0d13869e5810c2833896e96a37ad005f48fe7f3bed6d6ddb68e3bacbf8",
            "address": "bcrt1pcnnt6rgns609syxzsvufd6t2x7ksqh6glelnhmtddhdk3ca6e0uqnpgrud",
            "type": "witness_v1_taproot"
          }
        },
        {
          "value": 22.9999694,
          "n": 1,
          "scriptPubKey": {
            "asm": "0 558ab1dbb81dbf4964e96a591587277a7991fd46",
            "hex": "0014558ab1dbb81dbf4964e96a591587277a7991fd46",
            "address": "bcrt1q2k9trkacrkl5je8fdfv3tpe80fuerl2x0v4s2j",
            "type": "witness_v0_keyhash"
          }
        }
      ],
      "hex": "02000000000101b41430354dcf01fa98002592c6ca90c72035fb2fa0b729853448728d11e7adba0000000000feffffff0200e1f50500000000225120c4e6bd0d13869e5810c2833896e96a37ad005f48fe7f3bed6d6ddb68e3bacbf80c2b178900000000160014558ab1dbb81dbf4964e96a591587277a7991fd460247304402205b9b70764aecf7f356dde145d2db1d2005947f2f1f3b98a8e476602108624b4802200f434c1bc8bda35353ed85ff73418897028f9d3e505bc0ca0edf86a9079ca146012102c9ceb1981e83aa724b6af1973ce9c698a6ce2268aae7f98f9489d043c038d21f00000000"
    },
    {
      "txid": "d7665c4d2dba2c6dc82a521d6e8e72dcbdebf5672d9208bae5500a5215b28349",
      "hash": "72a62dd4bc14312a26a37a1860315bca4c4a230de888363ec7d49492aa33491e",
      "version": 2,
      "size": 233,
      "vsize": 152,
      "weight": 608,
      "locktime": 0,
      "vin": [
        {
          "txid": "ff10065e86247fba370d7a61e3c05af295dd232262516d9a4795d48cf3f3b60a",
          "vout": 1,
          "scriptSig": {
            "asm": "",
            "hex": ""
          },
          "txinwitness": [
            "3043021f45af4085e110c30fec00c40849fa852133ba402731b32b352b6e6a7a212e3602203bb034026d82b6a343f4f624b6bab79eff0efe547e2b5c59b0cb8638681976e801",
            "0384ba9246ca416be610eccd8aabd358e9c492d4e437b60f875c716b6ad1f07d1a"
          ],
          "sequence": 4294967294
        }
      ],
      "vout": [
        {
          "value": 1,
          "n": 0,
          "scriptPubKey": {
            "asm": "1 c4e6bd0d13869e5810c2833896e96a37ad005f48fe7f3bed6d6ddb68e3bacbf8",
            "hex": "5120c4e6bd0d13869e5810c2833896e96a37ad005f48fe7f3bed6d6ddb68e3bacbf8",
            "address": "bcrt1pcnnt6rgns609syxzsvufd6t2x7ksqh6glelnhmtddhdk3ca6e0uqnpgrud",
            "type": "witness_v1_taproot"
          }
        },
        {
          "value": 22.9999694,
          "n": 1,
          "scriptPubKey": {
            "asm": "0 faf9c5bc8d63449f9c24dc432f375d5adce28292",
            "hex": "0014faf9c5bc8d63449f9c24dc432f375d5adce28292",
            "address": "bcrt1qltuut0ydvdzfl8pym3pj7d6attww9q5jezrtaq",
            "type": "witness_v0_keyhash"
          }
        }
      ],
      "hex": "020000000001010ab6f3f38cd495479a6d51622223dd95f25ac0e3617a0d37ba7f24865e0610ff0100000000feffffff0200e1f50500000000225120c4e6bd0d13869e5810c2833896e96a37ad005f48fe7f3bed6d6ddb68e3bacbf80c2b178900000000160014faf9c5bc8d63449f9c24dc432f375d5adce2829202463043021f45af4085e110c30fec00c40849fa852133ba402731b32b352b6e6a7a212e3602203bb034026d82b6a343f4f624b6bab79eff0efe547e2b5c59b0cb8638681976e801210384ba9246ca416be610eccd8aabd358e9c492d4e437b60f875c716b6ad1f07d1a00000000"
    }
  ]
}