{
  "txid": "c52c66f83a0ad6bd883f4ce5aeb4e585bbb7ea49f7426b54af2252516dfb08c8",
  "hash": "bfa12c7856357c5d0b06b95180ed71c11f14acd7c14365e984be676b18d842c0",
  "version": 1,
  "size": 349,
  "vsize": 158,
  "weight": 631,
  "locktime": 0,
  "vin": [
    {
      "txid": "081f8457a9f9dd5814fdb6a4144fa0d9559740eda6f8867bacd2e969d1611b12",
      "vout": 1,
      "scriptSig": {
        "asm": "",
        "hex": ""
      },
      "txinwitness": [
        "",
        "3045022100bd607e76c226f307d2d5af819364ee6f297ec2e8dfe7e721c09dcc63356e6ee602201e506b952160b7c7717f340bbb2fbf4a9b42ddc54687b6fdafff95ec4fd56a5701",
        "304402202e9e98909c00b38680e41718d2d983f55eee2a6e0508d8c917f9f22016964e5502202d0a56126733751f49ebbf5d43f218770f8e2f111aa0c11b10ae0b43fab9316d01",
        "5221028fedaf75b5b08cddf3bf4631c658b68ee6766a8e999467a641d7cb7aaaecec972103316bc27d95b96418349afc6298c259bb999c6e8f39a7217787ad53602be7c1472102e21c29b4a7eeace9c7a8cefb568ca00c86ff9bf5e79e07e5442c29d4a0950d0453ae"
      ],
      "sequence": 4294967295
    }
  ],
  "vout": [
    {
      "value": 0.99999,
      "n": 0,
      "scriptPubKey": {
        "asm": "0 1553f31a3e25e770b7bc857b82909e83734dbfe4bcdb5a5e6fc419b6920c398a",
        "hex": "00201553f31a3e25e770b7bc857b82909e83734dbfe4bcdb5a5e6fc419b6920c398a",
        "reqSigs": 1,
        "type": "witness_v0_scripthash",
        "addresses": [
          "bcrt1qz4flxx37yhnhpdaus4ac9yy7sde5m0lyhnd45hn0csvmdysv8x9qr7gzry"
        ]
      }
    }
  ],
  "hex": "01000000000101121b61d169e9d2ac7b86f8a6ed409755d9a04f14a4b6fd1458ddf9a957841f080100000000ffffffff0118ddf505000000002200201553f31a3e25e770b7bc857b82909e83734dbfe4bcdb5a5e6fc419b6920c398a0400483045022100bd607e76c226f307d2d5af819364ee6f297ec2e8dfe7e721c09dcc63356e6ee602201e506b952160b7c7717f340bbb2fbf4a9b42ddc54687b6fdafff95ec4fd56a570147304402202e9e98909c00b38680e41718d2d983f55eee2a6e0508d8c917f9f22016964e5502202d0a56126733751f49ebbf5d43f218770f8e2f111aa0c11b10ae0b43fab9316d01695221028fedaf75b5b08cddf3bf4631c658b68ee6766a8e999467a641d7cb7aaaecec972103316bc27d95b96418349afc6298c259bb999c6e8f39a7217787ad53602be7c1472102e21c29b4a7eeace9c7a8cefb568ca00c86ff9bf5e79e07e5442c29d4a0950d0453ae00000000"
}