{
  "transaction": {
    "txid": "b04715fa0f603ffde9c6a1f7d4521ecb06fde6efe7d7bb3d9f570a08f08ad15e",
    "hash": "c5ea784baede39fe33aac7a042f4729c3611688d2f129f703423db986ce09a16",
    "version": 1,
    "size": 374,
    "vsize": 182,
    "weight": 728,
    "locktime": 0,
    "vin": [
      {
        "txid": "fb16d25530c80609089bfa0c70e440fb685e5c490645dab253f24381d92fc069",
        "vout": 1,
        "scriptSig": {
          "asm": "00201553f31a3e25e770b7bc857b82909e83734dbfe4bcdb5a5e6fc419b6920c398a",
          "hex": "2200201553f31a3e25e770b7bc857b82909e83734dbfe4bcdb5a5e6fc419b6920c398a"
        },
        "txinwitness": [
          "",
          "3045022100d487b848241e134b79f54a11874d0a9dee6a846109298b975674a1be1692b5d502206db3dcb0828971665681fef955f67efd97cf2fb4d9e9b6ccdd17b743d97c6b6001",
          "3045022100a53de59f82f0933cc88116c483faae73a0999842831669775fbe2e43f4001c7b02205a5d7e6ca7f42097fe1d2414ab2be18dfca7e090a8e14480a76ebb86be06373001",
          "5221028fedaf75b5b08cddf3bf4631c658b68ee6766a8e999467a641d7cb7aaaecec972103316bc27d95b96418349afc6298c259bb999c6e8f39a7217787ad53602be7c1472102e21c29b4a7eeace9c7a8cefb568ca00c86ff9bf5e79e07e5442c29d4a0950d0453ae"
        ],
        "sequence": 4294967295
      }
    ],
    "vout": [
      {
        "value": 0.99999,
        "n": 0,
        "scriptPubKey": {
          "asm": "OP_HASH160 2280193aca8462021ec369d4e2ff1c95741fba7f OP_EQUAL",
          "hex": "a9142280193aca8462021ec369d4e2ff1c95741fba7f87",
          "reqSigs": 1,
          "type": "scripthash",
          "addresses": [
            "2MvPeRFSGYJq9BXoV2fxrMpJjsZMGx2m6Zk"
          ]
        }
      }
    ],
    "hex": "0100000000010169c02fd98143f253b2da4506495c5e68fb40e4700cfa9b080906c83055d216fb01000000232200201553f31a3e25e770b7bc857b82909e83734dbfe4bcdb5a5e6fc419b6920c398affffffff0118ddf5050000000017a9142280193aca8462021ec369d4e2ff1c95741fba7f870400483045022100d487b848241e134b79f54a11874d0a9dee6a846109298b975674a1be1692b5d502206db3dcb0828971665681fef955f67efd97cf2fb4d9e9b6ccdd17b743d97c6b6001483045022100a53de59f82f0933cc88116c483faae73a0999842831669775fbe2e43f4001c7b02205a5d7e6ca7f42097fe1d2414ab2be18dfca7e090a8e14480a76ebb86be06373001695221028fedaf75b5b08cddf3bf4631c658b68ee6766a8e999467a641d7cb7aaaecec972103316bc27d95b96418349afc6298c259bb999c6e8f39a7217787ad53602be7c1472102e21c29b4a7eeace9c7a8cefb568ca00c86ff9bf5e79e07e5442c29d4a0950d0453ae00000000"
  },
  "inputs": [
    {
      "txid": "fb16d25530c80609089bfa0c70e440fb685e5c490645dab253f24381d92fc069",
      "hash": "598ae69a7bded0a820b4f6f715a09246322010d724cc69ff3736cdac3800b924",
      "version": 2,
      "size": 223,
      "vsize": 142,
      "weight": 565,
      "locktime": 300,
      "vin": [
        {
          "txid": "f960aa55596985569fde87cd2fefb005ffb08e6126a70f7f4fe71e4900bb6203",
          "vout": 0,
          "scriptSig": {
            "asm": "",
            "hex": ""
          },
          "txinwitness": [
            "304402202c384cf135f9cf5a429a24bdc1c8cc464133176cb353ce18900eca230d45edc4022000d0d40bef8c345647803286c7fc71c48076bcf100e37551fe204256cae6ca9601",
            "0349442be608b97b2d77180638a2ec2fe7c9be5074762a1b0e2d70fb19799f91d4"
          ],
          "sequence": 4294967294
        }
      ],
      "vout": [
        {
          "value": 23.9999858,
          "n": 0,
          "scriptPubKey": {
            "asm": "0 19851b897b21a093db779ae914b9da7796dcbcb0",
            "hex": "001419851b897b21a093db779ae914b9da7796dcbcb0",
            "reqSigs": 1,
            "type": "witness_v0_keyhash",
            "addresses": [
              "bcrt1qrxz3hztmyxsf8kmhnt53fww6w7tde09sg0yp3s"
            ]
          }
        },
        {
          "value": 1,
          "n": 1,
          "scriptPubKey": {
            "asm": "OP_HASH160 2280193aca8462021ec369d4e2ff1c95741fba7f OP_EQUAL",
            "hex": "a9142280193aca8462021ec369d4e2ff1c95741fba7f87",
            "reqSigs": 1,
            "type": "scripthash",
            "addresses": [
              "2MvPeRFSGYJq9BXoV2fxrMpJjsZMGx2m6Zk"
            ]
          }
        }
      ],
      "hex": "020000000001010362bb00491ee74f7f0fa726618eb0ff05b0ef2fcd87de9f5685695955aa60f90000000000feffffff0274120d8f0000000016001419851b897b21a093db779ae914b9da7796dcbcb000e1f5050000000017a9142280193aca8462021ec369d4e2ff1c95741fba7f870247304402202c384cf135f9cf5a429a24bdc1c8cc464133176cb353ce18900eca230d45edc4022000d0d40bef8c345647803286c7fc71c48076bcf100e37551fe204256cae6ca9601210349442be608b97b2d77180638a2ec2fe7c9be5074762a1b0e2d70fb19799f91d42c010000"
    }
  ]
}