{
  "transaction": {
    "txid": "68b59150dad71b8b24f0e208a60e53886f03ef1ea820c94cd80eb8b7283a22c0",
    "hash": "68b59150dad71b8b24f0e208a60e53886f03ef1ea820c94cd80eb8b7283a22c0",
    "version": 1,
    "size": 338,
    "vsize": 338,
    "weight": 1352,
    "locktime": 0,
    "vin": [
      {
        "txid": "c874837e29beecb69dca662f50c381041f7c0f43c1a947557c2325037da2a8b2",
        "vout": 0,
        "scriptSig": {
          "asm": "0 30440220650576eac9815131d219b34846d8dae6173752d380fcf1ec5029ce3fb16f3f2c02205713a9ee87dc0531adf4d678cf1b458aa1e03d213aefd5f7b80979fb5afd7d02[ALL] 30450221008da0c68e15ae9f503e914699866a6ddbd4f4869f37cae51fe22ed5bae622edc50220543be31d36bc678da35a71f0d212362d55ad71ebccff1b46e386b893c14744fb[ALL] 5221028fedaf75b5b08cddf3bf4631c658b68ee6766a8e999467a641d7cb7aaaecec972103316bc27d95b96418349afc6298c259bb999c6e8f39a7217787ad53602be7c1472102e21c29b4a7eeace9c7a8cefb568ca00c86ff9bf5e79e07e5442c29d4a0950d0453ae",
          "hex": "004730440220650576eac9815131d219b34846d8dae6173752d380fcf1ec5029ce3fb16f3f2c02205713a9ee87dc0531adf4d678cf1b458aa1e03d213aefd5f7b80979fb5afd7d02014830450221008da0c68e15ae9f503e914699866a6ddbd4f4869f37cae51fe22ed5bae622edc50220543be31d36bc678da35a71f0d212362d55ad71ebccff1b46e386b893c14744fb014c695221028fedaf75b5b08cddf3bf4631c658b68ee6766a8e999467a641d7cb7aaaecec972103316bc27d95b96418349afc6298c259bb999c6e8f39a7217787ad53602be7c1472102e21c29b4a7eeace9c7a8cefb568ca00c86ff9bf5e79e07e5442c29d4a0950d0453ae"
        },
        "sequence": 4294967295
      }
    ],
    "vout": [
      {
        "value": 0.99999,
        "n": 0,
        "scriptPubKey": {
          "asm": "OP_HASH160 fe5cc5d87e3348a5f3eaa316898a0f05d520876e OP_EQUAL",
          "hex": "a914fe5cc5d87e3348a5f3eaa316898a0f05d520876e87",
          "reqSigs": 1,
          "type": "scripthash",
          "addresses": [
            "2NGSAkyhiWMZPcrfiwmcRWf9HQgpsiRGKv4"
          ]
        }
      }
    ],
    "hex": "0100000001b2a8a27d0325237c5547a9c1430f7c1f0481c3502f66ca9db6ecbe297e8374c800000000fdfd00004730440220650576eac9815131d219b34846d8dae6173752d380fcf1ec5029ce3fb16f3f2c02205713a9ee87dc0531adf4d678cf1b458aa1e03d213aefd5f7b80979fb5afd7d02014830450221008da0c68e15ae9f503e914699866a6ddbd4f4869f37cae51fe22ed5bae622edc50220543be31d36bc678da35a71f0d212362d55ad71ebccff1b46e386b893c14744fb014c695221028fedaf75b5b08cddf3bf4631c658b68ee6766a8e999467a641d7cb7aaaecec972103316bc27d95b96418349afc6298c259bb999c6e8f39a7217787ad53602be7c1472102e21c29b4a7eeace9c7a8cefb568ca00c86ff9bf5e79e07e5442c29d4a0950d0453aeffffffff0118ddf5050000000017a914fe5cc5d87e3348a5f3eaa316898a0f05d520876e8700000000"
  },
  "inputs": [
    {
      "txid": "c874837e29beecb69dca662f50c381041f7c0f43c1a947557c2325037da2a8b2",
      "hash": "21896fd30fa07ed4c9afe42e50f2abc5201bb7564d9f340ccf199287cce3f1e5",
      "version": 2,
      "size": 223,
      "vsize": 142,
      "weight": 565,
      "locktime": 300,
      "vin": [
        {
          "txid": "6e8562a2c974f49a30d01b01ed45ce4296abdcb018d65900be6005d0731b2609",
          "vout": 0,
          "scriptSig": {
            "asm": "",
            "hex": ""
          },
          "txinwitness": [
            "30440220718df6720a716286da50c947253c8e73cb2ff17b691bd5a761e0ce7213e94fc602202b8995e2173197a817114b400b6613450dc3f49e18ed202ce026dc798df21cbb01",
            "0349442be608b97b2d77180638a2ec2fe7c9be5074762a1b0e2d70fb19799f91d4"
          ],
          "sequence": 4294967294
        }
      ],
      "vout": [
        {
          "value": 1,
          "n": 0,
          "scriptPubKey": {
            "asm": "OP_HASH160 fe5cc5d87e3348a5f3eaa316898a0f05d520876e OP_EQUAL",
            "hex": "a914fe5cc5d87e3348a5f3eaa316898a0f05d520876e87",
            "reqSigs": 1,
            "type": "scripthash",
            "addresses": [
              "2NGSAkyhiWMZPcrfiwmcRWf9HQgpsiRGKv4"
            ]
          }
        },
        {
          "value": 23.9999858,
          "n": 1,
          "scriptPubKey": {
            "asm": "0 3f3538c1781a935cc6cb7e01454b0f97e943486c",
            "hex": "00143f3538c1781a935cc6cb7e01454b0f97e943486c",
            "reqSigs": 1,
            "type": "witness_v0_keyhash",
            "addresses": [
              "bcrt1q8u6n3stcr2f4e3kt0cq52jc0jl55xjrvneukau"
            ]
          }
        }
      ],
      "hex": "0200000000010109261b73d00560be0059d618b0dcab9642ce45ed011bd0309af474c9a262856e0000000000feffffff0200e1f5050000000017a914fe5cc5d87e3348a5f3eaa316898a0f05d520876e8774120d8f000000001600143f3538c1781a935cc6cb7e01454b0f97e943486c024730440220718df6720a716286da50c947253c8e73cb2ff17b691bd5a761e0ce7213e94fc602202b8995e2173197a817114b400b6613450dc3f49e18ed202ce026dc798df21cbb01210349442be608b97b2d77180638a2ec2fe7c9be5074762a1b0e2d70fb19799f91d42c010000"
    }
  ]
}