{
  "txid": "1572cbdbca96387cc46388031852406d112954f9eee632182dd7dba17c6c9bc1",
  "hash": "cf9e5dbf2e8678ecd14ce8a6039380d7877f7db620e2b2c1a3dbdc839ce1b618",
  "version": 1,
  "size": 374,
  "vsize": 182,
  "weight": 728,
  "locktime": 0,
  "vin": [
    {
      "txid": "b0916b7e4e4b1f5383ab7b569f7d18d0e623f36ee1d61911662d9a09166b2db8",
      "vout": 0,
      "scriptSig": {
        "asm": "00201553f31a3e25e770b7bc857b82909e83734dbfe4bcdb5a5e6fc419b6920c398a",
        "hex": "2200201553f31a3e25e770b7bc857b82909e83734dbfe4bcdb5a5e6fc419b6920c398a"
      },
      "txinwitness": [
        "",
        "3045022100827ca3d0040c9aa4f04ce0dc6014874c889e69b9e529bf6a4a9966bc6754af8802201f9502a4d51f77d64133805d6cc54b95696f6910a9df6901fc710471117ad88301",
        "3045022100deabe812faf21bdda56354bf4ea4d979d590b342485c5e8b938fbef2df806a1202201afada7b1204c457c1375e5bcb9ec7711637b9bda0f3b8ba7f6ec3d9c9f462d101",
        "5221028fedaf75b5b08cddf3bf4631c658b68ee6766a8e999467a641d7cb7aaaecec972103316bc27d95b96418349afc6298c259bb999c6e8f39a7217787ad53602be7c1472102e21c29b4a7eeace9c7a8cefb568ca00c86ff9bf5e79e07e5442c29d4a0950d0453ae"
      ],
      "sequence": 4294967295
    }
  ],
  "vout": [
    {
      "value": 0.99999,
      "n": 0,
      "scriptPubKey": {
        "asm": "OP_HASH160 2280193aca8462021ec369d4e2ff1c95741fba7f OP_EQUAL",
        "hex": "a9142280193aca8462021ec369d4e2ff1c95741fba7f87",
        "reqSigs": 1,
        "type": "scripthash",
        "addresses": [
          "2MvPeRFSGYJq9BXoV2fxrMpJjsZMGx2m6Zk"
        ]
      }
    }
  ],
  "hex": "01000000000101b82d6b16099a2d661119d6e16ef323e6d0187d9f567bab83531f4b4e7e6b91b000000000232200201553f31a3e25e770b7bc857b82909e83734dbfe4bcdb5a5e6fc419b6920c398affffffff0118ddf5050000000017a9142280193aca8462021ec369d4e2ff1c95741fba7f870400483045022100827ca3d0040c9aa4f04ce0dc6014874c889e69b9e529bf6a4a9966bc6754af8802201f9502a4d51f77d64133805d6cc54b95696f6910a9df6901fc710471117ad88301483045022100deabe812faf21bdda56354bf4ea4d979d590b342485c5e8b938fbef2df806a1202201afada7b1204c457c1375e5bcb9ec7711637b9bda0f3b8ba7f6ec3d9c9f462d101695221028fedaf75b5b08cddf3bf4631c658b68ee6766a8e999467a641d7cb7aaaecec972103316bc27d95b96418349afc6298c259bb999c6e8f39a7217787ad53602be7c1472102e21c29b4a7eeace9c7a8cefb568ca00c86ff9bf5e79e07e5442c29d4a0950d0453ae00000000"
}