{
  "transaction": {
    "txid": "7342d0b84176b83043aa3249f11ffa3857aa57dd082391facec0e1f6d6af8700",
    "hash": "982c81e9b49e2334d23e50ed72da42ef0024ac81740b6e9bae528fef26a317b2",
    "version": 1,
    "size": 349,
    "vsize": 158,
    "weight": 631,
    "locktime": 0,
    "vin": [
      {
        "txid": "26e2ef240f892ccca98f44084fbb4562f83dfdd3d3760acdcce2d1ea9e2a0307",
        "vout": 0,
        "scriptSig": {
          "asm": "",
          "hex": ""
        },
        "txinwitness": [
          "",
          "3044022051c42eddaf72464e143768042acd9f1e9bedb92c0d99d2e704bd9404cf1b8d060220718086c5b9dfb9c784cec57d3587318bec82b81c2eac891b5f5d4b509020a6ac01",
          "304502210099bc8ea18b2faec8f51bf8cd651fe544d07b98530081949b6c8b0c6b81b5476e022044b53fd6986119ba6ea3210866ab1e1ee876338c697beeef75920efe2d4738e401",
          "5221028fedaf75b5b08cddf3bf4631c658b68ee6766a8e999467a641d7cb7aaaecec972103316bc27d95b96418349afc6298c259bb999c6e8f39a7217787ad53602be7c1472102e21c29b4a7eeace9c7a8cefb568ca00c86ff9bf5e79e07e5442c29d4a0950d0453ae"
        ],
        "sequence": 4294967295
      }
    ],
    "vout": [
      {
        "value": 0.99999,
        "n": 0,
        "scriptPubKey": {
          "asm": "0 1553f31a3e25e770b7bc857b82909e83734dbfe4bcdb5a5e6fc419b6920c398a",
          "hex": "00201553f31a3e25e770b7bc857b82909e83734dbfe4bcdb5a5e6fc419b6920c398a",
          "reqSigs": 1,
          "type": "witness_v0_scripthash",
          "addresses": [
            "bcrt1qz4flxx37yhnhpdaus4ac9yy7sde5m0lyhnd45hn0csvmdysv8x9qr7gzry"
          ]
        }
      }
    ],
    "hex": "0100000000010107032a9eead1e2cccd0a76d3d3fd3df86245bb4f08448fa9cc2c890f24efe2260000000000ffffffff0118ddf505000000002200201553f31a3e25e770b7bc857b82909e83734dbfe4bcdb5a5e6fc419b6920c398a0400473044022051c42eddaf72464e143768042acd9f1e9bedb92c0d99d2e704bd9404cf1b8d060220718086c5b9dfb9c784cec57d3587318bec82b81c2eac891b5f5d4b509020a6ac0148304502210099bc8ea18b2faec8f51bf8cd651fe544d07b98530081949b6c8b0c6b81b5476e022044b53fd6986119ba6ea3210866ab1e1ee876338c697beeef75920efe2d4738e401695221028fedaf75b5b08cddf3bf4631c658b68ee6766a8e999467a641d7cb7aaaecec972103316bc27d95b96418349afc6298c259bb999c6e8f39a7217787ad53602be7c1472102e21c29b4a7eeace9c7a8cefb568ca00c86ff9bf5e79e07e5442c29d4a0950d0453ae00000000"
  },
  "inputs": [
    {
      "txid": "26e2ef240f892ccca98f44084fbb4562f83dfdd3d3760acdcce2d1ea9e2a0307",
      "hash": "d390f53644ae66c3b13dcd5f6bce5be1a13b48092dc1aa8e165933e121d32931",
      "version": 2,
      "size": 234,
      "vsize": 153,
      "weight": 609,
      "locktime": 300,
      "vin": [
        {
          "txid": "90a82a17daf2845e4822ae17d10bc82298dbdbdbaf1f66f6bf1346ad52f2ca05",
          "vout": 0,
          "scriptSig": {
            "asm": "",
            "hex": ""
          },
          "txinwitness": [
            "30440220159a9ef584a8447b37e9943846ba5f39f3a46152b158c323b47eb23df68664b702200acf7a9415e1d6f8fb7e1cd9c11fd1df51e41d106f5bc4a23d4718025d914b0501",
            "03c3f72c6385d661cc3aaec6b08f6aa8a81759977630fe5d0ade648ac96357d8f8"
          ],
          "sequence": 4294967294
        }
      ],
      "vout": [
        {
          "value": 1,
          "n": 0,
          "scriptPubKey": {
            "asm": "0 1553f31a3e25e770b7bc857b82909e83734dbfe4bcdb5a5e6fc419b6920c398a",
            "hex": "00201553f31a3e25e770b7bc857b82909e83734dbfe4bcdb5a5e6fc419b6920c398a",
            "reqSigs": 1,
            "type": "witness_v0_scripthash",
            "addresses": [
              "bcrt1qz4flxx37yhnhpdaus4ac9yy7sde5m0lyhnd45hn0csvmdysv8x9qr7gzry"
            ]
          }
        },
        {
          "value": 23.9999847,
          "n": 1,
          "scriptPubKey": {
            "asm": "0 f7702cfc1590b5ded5b8c3335172489e2e9465e6",
            "hex": "0014f7702cfc1590b5ded5b8c3335172489e2e9465e6",
            "reqSigs": 1,
            "type": "witness_v0_keyhash",
            "addresses": [
              "bcrt1q7aczelq4jz6aa4dccve4zujgnchfge0x6ujl6c"
            ]
          }
        }
      ],
      "hex": "0200000000010105caf252ad4613bff6661fafdbdbdb9822c80bd117ae22485e84f2da172aa8900000000000feffffff0200e1f505000000002200201553f31a3e25e770b7bc857b82909e83734dbfe4bcdb5a5e6fc419b6920c398a06120d8f00000000160014f7702cfc1590b5ded5b8c3335172489e2e9465e6024730440220159a9ef584a8447b37e9943846ba5f39f3a46152b158c323b47eb23df68664b702200acf7a9415e1d6f8fb7e1cd9c11fd1df51e41d106f5bc4a23d4718025d914b05012103c3f72c6385d661cc3aaec6b08f6aa8a81759977630fe5d0ade648ac96357d8f82c010000"
    }
  ]
}