{
  "transaction": {
    "txid": "4568b01e0c0cad32a3bd4ffa14200fe9b40d2eda197911210ec44c710f25f06e",
    "hash": "4829bb26dd5903f8c1ce04ee79819f22960deaa9125aaab9d67947441e160bb8",
    "version": 1,
    "size": 374,
    "vsize": 182,
    "weight": 728,
    "locktime": 0,
    "vin": [
      {
        "txid": "576f590a38108b718a2acfd2eacb6a2aa6b2a5445515a45191b80080e3fd6d1d",
        "vout": 1,
        "scriptSig": {
          "asm": "00201553f31a3e25e770b7bc857b82909e83734dbfe4bcdb5a5e6fc419b6920c398a",
          "hex": "2200201553f31a3e25e770b7bc857b82909e83734dbfe4bcdb5a5e6fc419b6920c398a"
        },
        "txinwitness": [
          "",
          "304502210082b70b2e2bc593ad0155584f76e8f33f78074fb0565bd1222af86f81c77e8952022063ae14ae39dde36e38cf4aa4c8a72c5934e90aae502b2fff8ef4e6fb3400509601",
          "3045022100aca8d7fdc09373f60208ce02b6964dbb009997f84f170b458e4443f94940165202206346816f6386f4f63e0c44bc069d1067c41fc71ba954ae1cf286f1bc9d4c871901",
          "5221028fedaf75b5b08cddf3bf4631c658b68ee6766a8e999467a641d7cb7aaaecec972103316bc27d95b96418349afc6298c259bb999c6e8f39a7217787ad53602be7c1472102e21c29b4a7eeace9c7a8cefb568ca00c86ff9bf5e79e07e5442c29d4a0950d0453ae"
        ],
        "sequence": 4294967295
      }
    ],
    "vout": [
      {
        "value": 0.99999,
        "n": 0,
        "scriptPubKey": {
          "asm": "OP_HASH160 2280193aca8462021ec369d4e2ff1c95741fba7f OP_EQUAL",
          "hex": "a9142280193aca8462021ec369d4e2ff1c95741fba7f87",
          "reqSigs": 1,
          "type": "scripthash",
          "addresses": [
            "2MvPeRFSGYJq9BXoV2fxrMpJjsZMGx2m6Zk"
          ]
        }
      }
    ],
    "hex": "010000000001011d6dfde38000b89151a4155544a5b2a62a6acbead2cf2a8a718b10380a596f5701000000232200201553f31a3e25e770b7bc857b82909e83734dbfe4bcdb5a5e6fc419b6920c398affffffff0118ddf5050000000017a9142280193aca8462021ec369d4e2ff1c95741fba7f87040048304502210082b70b2e2bc593ad0155584f76e8f33f78074fb0565bd1222af86f81c77e8952022063ae14ae39dde36e38cf4aa4c8a72c5934e90aae502b2fff8ef4e6fb3400509601483045022100aca8d7fdc09373f60208ce02b6964dbb009997f84f170b458e4443f94940165202206346816f6386f4f63e0c44bc069d1067c41fc71ba954ae1cf286f1bc9d4c871901695221028fedaf75b5b08cddf3bf4631c658b68ee6766a8e999467a641d7cb7aaaecec972103316bc27d95b96418349afc6298c259bb999c6e8f39a7217787ad53602be7c1472102e21c29b4a7eeace9c7a8cefb568ca00c86ff9bf5e79e07e5442c29d4a0950d0453ae00000000"
  },
  "inputs": [
    {
      "txid": "576f590a38108b718a2acfd2eacb6a2aa6b2a5445515a45191b80080e3fd6d1d",
      "hash": "a634e59b40ab8cf832a2e823bd4f63c04c10bb15d28a0481b907196b9e61e92b",
      "version": 2,
      "size": 223,
      "vsize": 142,
      "weight": 565,
      "locktime": 300,
      "vin": [
        {
          "txid": "cbfa55fb14f13c633215fd7114ec5c725459d4b9c59df410ac07e49e444c61c8",
          "vout": 0,
          "scriptSig": {
            "asm": "",
            "hex": ""
          },
          "txinwitness": [
            "304402207111dcef5577cfbacd517474ef02bcbc4a83c78731fea817ec5d197a9c3484fb02202edd9c083addd551f5015ad3c8ec9356d2584da39c5109becc372ac03ed220d801",
            "03c3f72c6385d661cc3aaec6b08f6aa8a81759977630fe5d0ade648ac96357d8f8"
          ],
          "sequence": 4294967294
        }
      ],
      "vout": [
        {
          "value": 23.9999858,
          "n": 0,
          "scriptPubKey": {
            "asm": "0 52e0b3079beb574d77a1a96df011b47dbf122270",
            "hex": "001452e0b3079beb574d77a1a96df011b47dbf122270",
            "reqSigs": 1,
            "type": "witness_v0_keyhash",
            "addresses": [
              "bcrt1q2tstxpumadt56aap49klqyd50kl3ygnsshys6l"
            ]
          }
        },
        {
          "value": 1,
          "n": 1,
          "scriptPubKey": {
            "asm": "OP_HASH160 2280193aca8462021ec369d4e2ff1c95741fba7f OP_EQUAL",
            "hex": "a9142280193aca8462021ec369d4e2ff1c95741fba7f87",
            "reqSigs": 1,
            "type": "scripthash",
            "addresses": [
              "2MvPeRFSGYJq9BXoV2fxrMpJjsZMGx2m6Zk"
            ]
          }
        }
      ],
      "hex": "02000000000101c8614c449ee407ac10f49dc5b9d45954725cec1471fd1532633cf114fb55facb0000000000feffffff0274120d8f0000000016001452e0b3079beb574d77a1a96df011b47dbf12227000e1f5050000000017a9142280193aca8462021ec369d4e2ff1c95741fba7f870247304402207111dcef5577cfbacd517474ef02bcbc4a83c78731fea817ec5d197a9c3484fb02202edd9c083addd551f5015ad3c8ec9356d2584da39c5109becc372ac03ed220d8012103c3f72c6385d661cc3aaec6b08f6aa8a81759977630fe5d0ade648ac96357d8f82c010000"
    }
  ]
}