{
  "transaction": {
    "txid": "debe66e44a10e0b1519d533c38ba7d851dfb1ecb2a00b5dc6b676bd19422a8ad",
    "hash": "7eb6af0cc53a2963d1ddb43ac7294abff35faacb786b3a3551e8ece6a9ec1cbb",
    "version": 2,
    "size": 193,
    "vsize": 142,
    "weight": 568,
    "locktime": 930,
    "vin": [
      {
        "txid": "9cf46c7045bac8c11d8cff03a2dd85ece98d67958a6c1c38add620515e9c0754",
        "vout": 0,
        "scriptSig": {
          "asm": "",
          "hex": ""
        },
        "txinwitness": [
          "76f8a12b6285c05f05cc1045a79434099def58413326b4d6c0419101044eddca03f9a17ade52dc906a2aac6935cbcebe9773ff18fd2f503a5fc3d5cdc568549b"
        ],
        "sequence": 4294967294
      }
    ],
    "vout": [
      {
        "value": 1,
        "n": 0,
        "scriptPubKey": {
          "asm": "1 328329ad2911a54724d43940c1bc595b566c1ddc09d59744d6d7284b2448c488",
          "hex": "5120328329ad2911a54724d43940c1bc595b566c1ddc09d59744d6d7284b2448c488",
          "address": "bcrt1px2pjntffzxj5wfx589qvr0zetdtxc8wup82ew3xk6u5ykfzgcjyqchpcvf",
          "type": "witness_v1_taproot"
        }
      },
      {
        "value": 0.5624858,
        "n": 1,
        "scriptPubKey": {
          "asm": "0 df33e2904557159bd806cff9aac85148720eda22",
          "hex": "0014df33e2904557159bd806cff9aac85148720eda22",
          "address": "bcrt1qmue79yz92u2ehkqxelu64jz3fpeqak3z2n3g35",
          "type": "witness_v0_keyhash"
        }
      }
    ],
    "hex": "0200000000010154079c5e5120d6ad381c6c8a95678de9ec85dda203ff8c1dc1c8ba45706cf49c0000000000feffffff0200e1f50500000000225120328329ad2911a54724d43940c1bc595b566c1ddc09d59744d6d7284b2448c48804495a0300000000160014df33e2904557159bd806cff9aac85148720eda22014076f8a12b6285c05f05cc1045a79434099def58413326b4d6c0419101044eddca03f9a17ade52dc906a2aac6935cbcebe9773ff18fd2f503a5fc3d5cdc568549ba2030000"
  },
  "inputs": [
    {
      "txid": "9cf46c7045bac8c11d8cff03a2dd85ece98d67958a6c1c38add620515e9c0754",
      "hash": "e72a1eabc94bc5d66be3653604f31aaec7c86926896b88f37dc9d736316cb5dc",
      "version": 2,
      "size": 182,
      "vsize": 155,
      "weight": 620,
      "locktime": 0,
      "vin": [
        {
          "coinbase": "02fe020101",
          "txinwitness": [
            "0000000000000000000000000000000000000000000000000000000000000000"
          ],
          "sequence": 4294967295
        }
      ],
      "vout": [
        {
          "value": 1.5625,
          "n": 0,
          "scriptPubKey": {
            "asm": "1 328329ad2911a54724d43940c1bc595b566c1ddc09d59744d6d7284b2448c488",
            "hex": "5120328329ad2911a54724d43940c1bc595b566c1ddc09d59744d6d7284b2448c488",
            "address": "bcrt1px2pjntffzxj5wfx589qvr0zetdtxc8wup82ew3xk6u5ykfzgcjyqchpcvf",
            "type": "witness_v1_taproot"
          }
        },
        {
          "value": 0,
          "n": 1,
          "scriptPubKey": {
            "asm": "OP_RETURN aa21a9ede2f61c3f71d1defd3fa999dfa36953755c690689799962b48bebd836974e8cf9",
            "hex": "6a24aa21a9ede2f61c3f71d1defd3fa999dfa36953755c690689799962b48bebd836974e8cf9",
            "type": "nulldata"
          }
        }
      ],
      "hex": "020000000001010000000000000000000000000000000000000000000000000000000000000000ffffffff0502fe020101ffffffff02902f500900000000225120328329ad2911a54724d43940c1bc595b566c1ddc09d59744d6d7284b2448c4880000000000000000266a24aa21a9ede2f61c3f71d1defd3fa999dfa36953755c690689799962b48bebd836974e8cf90120000000000000000000000000000000000000000000000000000000000000000000000000",
      "blockhash": "46640f65d17ca7cfce1760ca628bf6e3c7332accb5758d804179b6dc2a543292",
      "confirmations": 165,
      "time": 1635255768,
      "blocktime": 1635255768
    }
  ]
}