{
  "transaction": {
    "txid": "f086928e16e14256a3d105edd022f55578df605d9f61d8d33183ef1757cd4fbc",
    "hash": "ef1db6d73743ed8e55cbcf66a2169d574eeb728f3daf72a2bea117ba73d0862b",
    "version": 1,
    "size": 702,
    "vsize": 321,
    "weight": 1284,
    "locktime": 0,
    "vin": [
      {
        "txid": "1affd480765952a9cfcee2f629bfcac7c3a71f82bd42348905779de0490edcd5",
        "vout": 1,
        "scriptSig": {
          "asm": "00201553f31a3e25e770b7bc857b82909e83734dbfe4bcdb5a5e6fc419b6920c398a",
          "hex": "2200201553f31a3e25e770b7bc857b82909e83734dbfe4bcdb5a5e6fc419b6920c398a"
        },
        "txinwitness": [
          "",
          "304502210081b719bde064051a44041e2e357223042329596de89140b690fe3bd63e1cdc8802201066d43cf6558139a52117c1df805688dacdfe917e28dd6719b358541357f89901",
          "3044022048c2ce6990bb444f9963fd184186fdbc3f4deddc3e8812a0a639a0e6ef1f5b4b02202d38b774f063c41d167c3fd0e6da65961b985eaf2c53e1acfe8d2d8ea3e2671601",
          "5221028fedaf75b5b08cddf3bf4631c658b68ee6766a8e999467a641d7cb7aaaecec972103316bc27d95b96418349afc6298c259bb999c6e8f39a7217787ad53602be7c1472102e21c29b4a7eeace9c7a8cefb568ca00c86ff9bf5e79e07e5442c29d4a0950d0453ae"
        ],
        "sequence": 4294967295
      },
      {
        "txid": "a8eb09da56a8997dee1d11a143d1693cff9e341096e140d2e8d6bda396f31c9b",
        "vout": 1,
        "scriptSig": {
          "asm": "00201553f31a3e25e770b7bc857b82909e83734dbfe4bcdb5a5e6fc419b6920c398a",
          "hex": "2200201553f31a3e25e770b7bc857b82909e83734dbfe4bcdb5a5e6fc419b6920c398a"
        },
        "txinwitness": [
          "",
          "3045022100a27410e74a1ac69b4046cdcaccb8a489ee6d249cf4f6148ce2596039fd8be05c0220328e69f4cffc3c1933e1160870b275d59dbc66f0adfd23ac7934f2c4538528c801",
          "304402201ae958a2767327e9d07fd6dc20a5b5f9b77053a60fa9a835ce0c8821e113e15b022056872f54729d767030e6ccd34ef0f1fc837f2125019bf8c6632ac042c6ec2d3901",
          "5221028fedaf75b5b08cddf3bf4631c658b68ee6766a8e999467a641d7cb7aaaecec972103316bc27d95b96418349afc6298c259bb999c6e8f39a7217787ad53602be7c1472102e21c29b4a7eeace9c7a8cefb568ca00c86ff9bf5e79e07e5442c29d4a0950d0453ae"
        ],
        "sequence": 4294967295
      }
    ],
    "vout": [
      {
        "value": 1.99999,
        "n": 0,
        "scriptPubKey": {
          "asm": "OP_HASH160 2280193aca8462021ec369d4e2ff1c95741fba7f OP_EQUAL",
          "hex": "a9142280193aca8462021ec369d4e2ff1c95741fba7f87",
          "address": "2MvPeRFSGYJq9BXoV2fxrMpJjsZMGx2m6Zk",
          "type": "scripthash"
        }
      }
    ],
    "hex": "01000000000102d5dc0e49e09d7705893442bd821fa7c3c7cabf29f6e2cecfa952597680d4ff1a01000000232200201553f31a3e25e770b7bc857b82909e83734dbfe4bcdb5a5e6fc419b6920c398affffffff9b1cf396a3bdd6e8d240e19610349eff3c69d143a1111dee7d99a856da09eba801000000232200201553f31a3e25e770b7bc857b82909e83734dbfe4bcdb5a5e6fc419b6920c398affffffff0118beeb0b0000000017a9142280193aca8462021ec369d4e2ff1c95741fba7f87040048304502210081b719bde064051a44041e2e357223042329596de89140b690fe3bd63e1cdc8802201066d43cf6558139a52117c1df805688dacdfe917e28dd6719b358541357f89901473044022048c2ce6990bb444f9963fd184186fdbc3f4deddc3e8812a0a639a0e6ef1f5b4b02202d38b774f063c41d167c3fd0e6da65961b985eaf2c53e1acfe8d2d8ea3e2671601695221028fedaf75b5b08cddf3bf4631c658b68ee6766a8e999467a641d7cb7aaaecec972103316bc27d95b96418349afc6298c259bb999c6e8f39a7217787ad53602be7c1472102e21c29b4a7eeace9c7a8cefb568ca00c86ff9bf5e79e07e5442c29d4a0950d0453ae0400483045022100a27410e74a1ac69b4046cdcaccb8a489ee6d249cf4f6148ce2596039fd8be05c0220328e69f4cffc3c1933e1160870b275d59dbc66f0adfd23ac7934f2c4538528c80147304402201ae958a2767327e9d07fd6dc20a5b5f9b77053a60fa9a835ce0c8821e113e15b022056872f54729d767030e6ccd34ef0f1fc837f2125019bf8c6632ac042c6ec2d3901695221028fedaf75b5b08cddf3bf4631c658b68ee6766a8e999467a641d7cb7aaaecec972103316bc27d95b96418349afc6298c259bb999c6e8f39a7217787ad53602be7c1472102e21c29b4a7eeace9c7a8cefb568ca00c86ff9bf5e79e07e5442c29d4a0950d0453ae00000000"
  },
  "inputs": [
    {
      "txid": "1affd480765952a9cfcee2f629bfcac7c3a71f82bd42348905779de0490edcd5",
      "hash": "88887d7bd2d6a2934d5a5647544e7eef16c0a98c7d37a80fcaa9b6b874184201",
      "version": 2,
      "size": 223,
      "vsize": 142,
      "weight": 565,
      "locktime": 0,
      "vin": [
        {
          "txid": "350faccea7dce96d7d64b2786c766077f0e1ea3fba272999ca94ca7c39d95f8f",
          "vout": 1,
          "scriptSig": {
            "asm": "",
            "hex": ""
          },
          "txinwitness": [
            "30440220071342cf6fd9e6f49e670a3901005a1b245c5a5703f534c459611bda9013b21002207443a2bfe3a5b84de0e733986ca6c1d621d7ec8709e1598f9c98f0c1a4af9f9001",
            "03873ce6eaf1c1f8c4dfe74e58c5c0f0c93829116f33b77bc57c087722e8cef885"
          ],
          "sequence": 4294967294
        }
      ],
      "vout": [
        {
          "value": 22.9999705,
          "n": 0,
          "scriptPubKey": {
            "asm": "0 98758851337a8cb3a54cb5737f7b7448e2147bda",
            "hex": "001498758851337a8cb3a54cb5737f7b7448e2147bda",
            "address": "bcrt1qnp6cs5fn02xt8f2vk4eh77m5fr3pg77667w7wa",
            "type": "witness_v0_keyhash"
          }
        },
        {
          "value": 1,
          "n": 1,
          "scriptPubKey": {
            "asm": "OP_HASH160 2280193aca8462021ec369d4e2ff1c95741fba7f OP_EQUAL",
            "hex": "a9142280193aca8462021ec369d4e2ff1c95741fba7f87",
            "address": "2MvPeRFSGYJq9BXoV2fxrMpJjsZMGx2m6Zk",
            "type": "scripthash"
          }
        }
      ],
      "hex": "020000000001018f5fd9397cca94ca992927ba3feae1f07760766c78b2647d6de9dca7ceac0f350100000000feffffff027a2b17890000000016001498758851337a8cb3a54cb5737f7b7448e2147bda00e1f5050000000017a9142280193aca8462021ec369d4e2ff1c95741fba7f87024730440220071342cf6fd9e6f49e670a3901005a1b245c5a5703f534c459611bda9013b21002207443a2bfe3a5b84de0e733986ca6c1d621d7ec8709e1598f9c98f0c1a4af9f90012103873ce6eaf1c1f8c4dfe74e58c5c0f0c93829116f33b77bc57c087722e8cef88500000000"
    },
    {
      "txid": "a8eb09da56a8997dee1d11a143d1693cff9e341096e140d2e8d6bda396f31c9b",
      "hash": "878659d4d6f1c312bc81ee2611bcd10dc3fe4c270ae2f95be37d207e7845dd22",
      "version": 2,
      "size": 223,
      "vsize": 142,
      "weight": 565,
      "locktime": 0,
      "vin": [
        {
          "txid": "28ac712c048e7a9c73b1c773d8cf186d332a1bbc4a5f4a9174783cb74c75fe56",
          "vout": 0,
          "scriptSig": {
            "asm": "",
            "hex": ""
          },
          "txinwitness": [
            "304402205573d937434847ddc3ed05675ab1dcb275437aa75ce051cbfc727ed540db38af0220431b36269861e6bbe9e991331a2e3febd5897ab31a064bdf1d9ece236a40896001",
            "02eb77cb7d9bddb636fcdd679a291a1b7f5724bca8c4cedec202216c15adba5950"
          ],
          "sequence": 4294967294
        }
      ],
      "vout": [
        {
          "value": 22.9999705,
          "n": 0,
          "scriptPubKey": {
            "asm": "0 f9e8f3edb1fb657e28b7a2461a3a6832566d3187",
            "hex": "0014f9e8f3edb1fb657e28b7a2461a3a6832566d3187",
            "address": "bcrt1ql8508md3ldjhu29h5frp5wngxftx6vv8hr24gx",
            "type": "witness_v0_keyhash"
          }
        },
        {
          "value": 1,
          "n": 1,
          "scriptPubKey": {
            "asm": "OP_HASH160 2280193aca8462021ec369d4e2ff1c95741fba7f OP_EQUAL",
            "hex": "a9142280193aca8462021ec369d4e2ff1c95741fba7f87",
            "address": "2MvPeRFSGYJq9BXoV2fxrMpJjsZMGx2m6Zk",
            "type": "scripthash"
          }
        }
      ],
      "hex": "0200000000010156fe754cb73c7874914a5f4abc1b2a336d18cfd873c7b1739c7a8e042c71ac280000000000feffffff027a2b178900000000160014f9e8f3edb1fb657e28b7a2461a3a6832566d318700e1f5050000000017a9142280193aca8462021ec369d4e2ff1c95741fba7f870247304402205573d937434847ddc3ed05675ab1dcb275437aa75ce051cbfc727ed540db38af0220431b36269861e6bbe9e991331a2e3febd5897ab31a064bdf1d9ece236a408960012102eb77cb7d9bddb636fcdd679a291a1b7f5724bca8c4cedec202216c15adba595000000000"
    }
  ]
}