{
  "transaction": {
    "txid": "00d16b7621f8ef987445d16950d2cbe6c2f5154c890fe8bf87ac7f2537a70202",
    "hash": "00d16b7621f8ef987445d16950d2cbe6c2f5154c890fe8bf87ac7f2537a70202",
    "version": 1,
    "size": 634,
    "vsize": 634,
    "weight": 2536,
    "locktime": 0,
    "vin": [
      {
        "txid": "4621e2cd92230442f8c67140cfc450a89e94422cbca1d81baee8b2fe1771df15",
        "vout": 0,
        "scriptSig": {
          "asm": "0 3045022100b2ee5b92350e4fa9f4034bddedfa56f7d444904b49ff1b1dc3c275eb0230e7ec02204158e8df7c7975cf5f1f9768720d1400ebd4def81e36a08dcea6c1b3279c6ae0[ALL] 30440220253046f99b809942e094e41e5561fe00b057a5dbb069ecbb08d3dbff93d7f46402202b9d2ddbcb5d37577d151c827b86642098a2de92d6d9c0aa717cf6880e69f308[ALL] 5221028fedaf75b5b08cddf3bf4631c658b68ee6766a8e999467a641d7cb7aaaecec972103316bc27d95b96418349afc6298c259bb999c6e8f39a7217787ad53602be7c1472102e21c29b4a7eeace9c7a8cefb568ca00c86ff9bf5e79e07e5442c29d4a0950d0453ae",
          "hex": "00483045022100b2ee5b92350e4fa9f4034bddedfa56f7d444904b49ff1b1dc3c275eb0230e7ec02204158e8df7c7975cf5f1f9768720d1400ebd4def81e36a08dcea6c1b3279c6ae0014730440220253046f99b809942e094e41e5561fe00b057a5dbb069ecbb08d3dbff93d7f46402202b9d2ddbcb5d37577d151c827b86642098a2de92d6d9c0aa717cf6880e69f308014c695221028fedaf75b5b08cddf3bf4631c658b68ee6766a8e999467a641d7cb7aaaecec972103316bc27d95b96418349afc6298c259bb999c6e8f39a7217787ad53602be7c1472102e21c29b4a7eeace9c7a8cefb568ca00c86ff9bf5e79e07e5442c29d4a0950d0453ae"
        },
        "sequence": 4294967295
      },
      {
        "txid": "e174c6b5abae915c577b711f2faa8d7a3df451c7ef434ae21549f1c1adf207ab",
        "vout": 0,
        "scriptSig": {
          "asm": "0 3045022100fb14c215679ec805338bdd093c4a2c855329062cd4bc0625433e993119d97130022030948cf878de056d19ebc5212223f67ee0feac21ff7ccdb11e602342d2bd7551[ALL] 3044022023a8e14d7842022f4982d68d2a6e766920773ec54403ea39210b3b5e31fb4e6a02202e14260f9951b068f067680ba56560e5d7ffb7400e46ba15904cb0e982459001[ALL] 5221028fedaf75b5b08cddf3bf4631c658b68ee6766a8e999467a641d7cb7aaaecec972103316bc27d95b96418349afc6298c259bb999c6e8f39a7217787ad53602be7c1472102e21c29b4a7eeace9c7a8cefb568ca00c86ff9bf5e79e07e5442c29d4a0950d0453ae",
          "hex": "00483045022100fb14c215679ec805338bdd093c4a2c855329062cd4bc0625433e993119d97130022030948cf878de056d19ebc5212223f67ee0feac21ff7ccdb11e602342d2bd755101473044022023a8e14d7842022f4982d68d2a6e766920773ec54403ea39210b3b5e31fb4e6a02202e14260f9951b068f067680ba56560e5d7ffb7400e46ba15904cb0e982459001014c695221028fedaf75b5b08cddf3bf4631c658b68ee6766a8e999467a641d7cb7aaaecec972103316bc27d95b96418349afc6298c259bb999c6e8f39a7217787ad53602be7c1472102e21c29b4a7eeace9c7a8cefb568ca00c86ff9bf5e79e07e5442c29d4a0950d0453ae"
        },
        "sequence": 4294967295
      }
    ],
    "vout": [
      {
        "value": 1.99999,
        "n": 0,
        "scriptPubKey": {
          "asm": "OP_HASH160 fe5cc5d87e3348a5f3eaa316898a0f05d520876e OP_EQUAL",
          "hex": "a914fe5cc5d87e3348a5f3eaa316898a0f05d520876e87",
          "address": "2NGSAkyhiWMZPcrfiwmcRWf9HQgpsiRGKv4",
          "type": "scripthash"
        }
      }
    ],
    "hex": "010000000215df7117feb2e8ae1bd8a1bc2c42949ea850c4cf4071c6f842042392cde2214600000000fdfd0000483045022100b2ee5b92350e4fa9f4034bddedfa56f7d444904b49ff1b1dc3c275eb0230e7ec02204158e8df7c7975cf5f1f9768720d1400ebd4def81e36a08dcea6c1b3279c6ae0014730440220253046f99b809942e094e41e5561fe00b057a5dbb069ecbb08d3dbff93d7f46402202b9d2ddbcb5d37577d151c827b86642098a2de92d6d9c0aa717cf6880e69f308014c695221028fedaf75b5b08cddf3bf4631c658b68ee6766a8e999467a641d7cb7aaaecec972103316bc27d95b96418349afc6298c259bb999c6e8f39a7217787ad53602be7c1472102e21c29b4a7eeace9c7a8cefb568ca00c86ff9bf5e79e07e5442c29d4a0950d0453aeffffffffab07f2adc1f14915e24a43efc751f43d7a8daa2f1f717b575c91aeabb5c674e100000000fdfd0000483045022100fb14c215679ec805338bdd093c4a2c855329062cd4bc0625433e993119d97130022030948cf878de056d19ebc5212223f67ee0feac21ff7ccdb11e602342d2bd755101473044022023a8e14d7842022f4982d68d2a6e766920773ec54403ea39210b3b5e31fb4e6a02202e14260f9951b068f067680ba56560e5d7ffb7400e46ba15904cb0e982459001014c695221028fedaf75b5b08cddf3bf4631c658b68ee6766a8e999467a641d7cb7aaaecec972103316bc27d95b96418349afc6298c259bb999c6e8f39a7217787ad53602be7c1472102e21c29b4a7eeace9c7a8cefb568ca00c86ff9bf5e79e07e5442c29d4a0950d0453aeffffffff0118beeb0b0000000017a914fe5cc5d87e3348a5f3eaa316898a0f05d520876e8700000000"
  },
  "inputs": [
    {
      "txid": "4621e2cd92230442f8c67140cfc450a89e94422cbca1d81baee8b2fe1771df15",
      "hash": "b7839029ec3f6cbf249c4078d4b45a9f0cbdc0efda8b08f835ddb0b7d6a82b67",
      "version": 2,
      "size": 223,
      "vsize": 142,
      "weight": 565,
      "locktime": 0,
      "vin": [
        {
          "txid": "823d93a272059def1109d2e0853f7916efe54f8beb27a730052cae4f79a4f0a2",
          "vout": 0,
          "scriptSig": {
            "asm": "",
            "hex": ""
          },
          "txinwitness": [
            "304402205a11accc181be7f138d5eb2eb5acba1c7575e211a56db04b05889472f2bdfd270220370402b5d49483124f3852495e6953b2ff5a328b218259d8b9c6d7142b72a9e201",
            "02ae597cf4b73d83809179eb68a5c88939491385da51b927644a45166dd947a09c"
          ],
          "sequence": 4294967294
        }
      ],
      "vout": [
        {
          "value": 1,
          "n": 0,
          "scriptPubKey": {
            "asm": "OP_HASH160 fe5cc5d87e3348a5f3eaa316898a0f05d520876e OP_EQUAL",
            "hex": "a914fe5cc5d87e3348a5f3eaa316898a0f05d520876e87",
            "address": "2NGSAkyhiWMZPcrfiwmcRWf9HQgpsiRGKv4",
            "type": "scripthash"
          }
        },
        {
          "value": 48.9999858,
          "n": 1,
          "scriptPubKey": {
            "asm": "0 ed58574b2d5678eebb7ff8d8f9e4a15e07c2065e",
            "hex": "0014ed58574b2d5678eebb7ff8d8f9e4a15e07c2065e",
            "address": "bcrt1qa4v9wjed2euwawmllrv0ne9ptcruypj7jrn24y",
            "type": "witness_v0_keyhash"
          }
        }
      ],
      "hex": "02000000000101a2f0a4794fae2c0530a727eb8b4fe5ef16793f85e0d20911ef9d0572a2933d820000000000feffffff0200e1f5050000000017a914fe5cc5d87e3348a5f3eaa316898a0f05d520876e87740b102401000000160014ed58574b2d5678eebb7ff8d8f9e4a15e07c2065e0247304402205a11accc181be7f138d5eb2eb5acba1c7575e211a56db04b05889472f2bdfd270220370402b5d49483124f3852495e6953b2ff5a328b218259d8b9c6d7142b72a9e2012102ae597cf4b73d83809179eb68a5c88939491385da51b927644a45166dd947a09c00000000"
    },
    {
      "txid": "e174c6b5abae915c577b711f2faa8d7a3df451c7ef434ae21549f1c1adf207ab",
      "hash": "161b7621de445c4890ad1b0336c1b4a7da6e8dc5164eee4806fdaa0914e284f3",
      "version": 2,
      "size": 223,
      "vsize": 142,
      "weight": 565,
      "locktime": 0,
      "vin": [
        {
          "txid": "4f7aab326533040bff2755d1f90765d23b878f0c2797d78de856ee736420fbe2",
          "vout": 1,
          "scriptSig": {
            "asm": "",
            "hex": ""
          },
          "txinwitness": [
            "304402204708e14626d840f364ef91c4a412dff4c0753ec8a09bcf7de0e16c46f7d4face022068e6f102a80489113065941bc335c9835c3f82ac69af7c0f886d0fa98dbf1ba501",
            "035a56516712b1d00333bef261d909501d327db9507bf645334c1151f0f84c9752"
          ],
          "sequence": 4294967294
        }
      ],
      "vout": [
        {
          "value": 1,
          "n": 0,
          "scriptPubKey": {
            "asm": "OP_HASH160 fe5cc5d87e3348a5f3eaa316898a0f05d520876e OP_EQUAL",
            "hex": "a914fe5cc5d87e3348a5f3eaa316898a0f05d520876e87",
            "address": "2NGSAkyhiWMZPcrfiwmcRWf9HQgpsiRGKv4",
            "type": "scripthash"
          }
        },
        {
          "value": 22.9999705,
          "n": 1,
          "scriptPubKey": {
            "asm": "0 977f1e0ed153ad73712427e873343678ff717419",
            "hex": "0014977f1e0ed153ad73712427e873343678ff717419",
            "address": "bcrt1qjal3urk32wkhxufyyl58xdpk0rlhzaqe5jw4q3",
            "type": "witness_v0_keyhash"
          }
        }
      ],
      "hex": "02000000000101e2fb206473ee56e88dd797270c8f873bd26507f9d15527ff0b04336532ab7a4f0100000000feffffff0200e1f5050000000017a914fe5cc5d87e3348a5f3eaa316898a0f05d520876e877a2b178900000000160014977f1e0ed153ad73712427e873343678ff7174190247304402204708e14626d840f364ef91c4a412dff4c0753ec8a09bcf7de0e16c46f7d4face022068e6f102a80489113065941bc335c9835c3f82ac69af7c0f886d0fa98dbf1ba50121035a56516712b1d00333bef261d909501d327db9507bf645334c1151f0f84c975200000000"
    }
  ]
}