{
  "txid": "3ff303f4475c7d81b66888d7e26f1e5000837079468d53ea1ce1efeae974f86c",
  "hash": "3ff303f4475c7d81b66888d7e26f1e5000837079468d53ea1ce1efeae974f86c",
  "version": 1,
  "size": 338,
  "vsize": 338,
  "weight": 1352,
  "locktime": 0,
  "vin": [
    {
      "txid": "273d5c6a3009b15768a22fed2bdbc44f983227d1ff9de6a3d62e9fb1990f1804",
      "vout": 1,
      "scriptSig": {
        "asm": "0 3045022100abbaa7060ab44c75f6815564468190d187761fbce36e542b1e5dd4205a8fb4e10220773dbdfd5e8d4b8dd4eb82099efe8af2c62c687d2dd327a11f1ef914d7af00f5[ALL] 3044022008d08e3a5851ad6ec5d4f20666fcfbfe5bd1db9a9d2206d6fdf4a795d019b41002205989631b931a7b01f7c9771abfd35b4e5ad014aa859fe2edc16208d1c1b3c90d[ALL] 5221028fedaf75b5b08cddf3bf4631c658b68ee6766a8e999467a641d7cb7aaaecec972103316bc27d95b96418349afc6298c259bb999c6e8f39a7217787ad53602be7c1472102e21c29b4a7eeace9c7a8cefb568ca00c86ff9bf5e79e07e5442c29d4a0950d0453ae",
        "hex": "00483045022100abbaa7060ab44c75f6815564468190d187761fbce36e542b1e5dd4205a8fb4e10220773dbdfd5e8d4b8dd4eb82099efe8af2c62c687d2dd327a11f1ef914d7af00f501473044022008d08e3a5851ad6ec5d4f20666fcfbfe5bd1db9a9d2206d6fdf4a795d019b41002205989631b931a7b01f7c9771abfd35b4e5ad014aa859fe2edc16208d1c1b3c90d014c695221028fedaf75b5b08cddf3bf4631c658b68ee6766a8e999467a641d7cb7aaaecec972103316bc27d95b96418349afc6298c259bb999c6e8f39a7217787ad53602be7c1472102e21c29b4a7eeace9c7a8cefb568ca00c86ff9bf5e79e07e5442c29d4a0950d0453ae"
      },
      "sequence": 4294967295
    }
  ],
  "vout": [
    {
      "value": 0.99999,
      "n": 0,
      "scriptPubKey": {
        "asm": "OP_HASH160 fe5cc5d87e3348a5f3eaa316898a0f05d520876e OP_EQUAL",
        "hex": "a914fe5cc5d87e3348a5f3eaa316898a0f05d520876e87",
        "reqSigs": 1,
        "type": "scripthash",
        "addresses": [
          "2NGSAkyhiWMZPcrfiwmcRWf9HQgpsiRGKv4"
        ]
      }
    }
  ],
  "hex": "010000000104180f99b19f2ed6a3e69dffd12732984fc4db2bed2fa26857b109306a5c3d2701000000fdfd0000483045022100abbaa7060ab44c75f6815564468190d187761fbce36e542b1e5dd4205a8fb4e10220773dbdfd5e8d4b8dd4eb82099efe8af2c62c687d2dd327a11f1ef914d7af00f501473044022008d08e3a5851ad6ec5d4f20666fcfbfe5bd1db9a9d2206d6fdf4a795d019b41002205989631b931a7b01f7c9771abfd35b4e5ad014aa859fe2edc16208d1c1b3c90d014c695221028fedaf75b5b08cddf3bf4631c658b68ee6766a8e999467a641d7cb7aaaecec972103316bc27d95b96418349afc6298c259bb999c6e8f39a7217787ad53602be7c1472102e21c29b4a7eeace9c7a8cefb568ca00c86ff9bf5e79e07e5442c29d4a0950d0453aeffffffff0118ddf5050000000017a914fe5cc5d87e3348a5f3eaa316898a0f05d520876e8700000000"
}