{
  "transaction": {
    "txid": "3632c799a53444f70df05d3e7ee821e163a137a7aebcea3a1906056268a2b170",
    "hash": "d14af7772f05dc9992aa1ce612f7e731b082b0fdc04fe178931b96421d772c59",
    "version": 1,
    "size": 644,
    "vsize": 263,
    "weight": 1049,
    "locktime": 0,
    "vin": [
      {
        "txid": "022dbc61aaca3064d5cef10cdc0c567db1e4fc98bdd826f5aa739e288c4b6f86",
        "vout": 1,
        "scriptSig": {
          "asm": "",
          "hex": ""
        },
        "txinwitness": [
          "",
          "3045022100ef3ff0bf3e3be8029c18781676a212f04522a9d48be85996fccbe486b8b3fc52022019b5f1881923df770bc2d5d19343d2773c5a4cb941fd29d0d98fb757e4a2618c01",
          "3045022100f490bd5d27940248753b6c65c42a1a104b709a2abff2a44c87d0c16e244fb28c02206ef83ea910952daa2bd9b34f08dc59c3798a4b6bffa62ad4cd26a9a87e2fc37901",
          "5221028fedaf75b5b08cddf3bf4631c658b68ee6766a8e999467a641d7cb7aaaecec972103316bc27d95b96418349afc6298c259bb999c6e8f39a7217787ad53602be7c1472102e21c29b4a7eeace9c7a8cefb568ca00c86ff9bf5e79e07e5442c29d4a0950d0453ae"
        ],
        "sequence": 4294967295
      },
      {
        "txid": "63bccbf016cb9cfafe81d01bb350fb16dbf761a9c511d41d9d16323a8cf5de07",
        "vout": 0,
        "scriptSig": {
          "asm": "",
          "hex": ""
        },
        "txinwitness": [
          "",
          "304402206062e98c774162f512a57f786aa5ad94479aa609804880198193e003d8fab29c02204a9e3b5e47004a9c1d21ae2219e1d8469b15d7c9cd136bd92db7532f56cca81801",
          "304502210081d8b641b7637d2a5cd45028249e44868665695a656af92b5c06425af0e4d8db02201e81fee64d7d54a0d059377e5fd025ec19b31eabd12289369d842f2986214b4001",
          "5221028fedaf75b5b08cddf3bf4631c658b68ee6766a8e999467a641d7cb7aaaecec972103316bc27d95b96418349afc6298c259bb999c6e8f39a7217787ad53602be7c1472102e21c29b4a7eeace9c7a8cefb568ca00c86ff9bf5e79e07e5442c29d4a0950d0453ae"
        ],
        "sequence": 4294967295
      }
    ],
    "vout": [
      {
        "value": 1.99999,
        "n": 0,
        "scriptPubKey": {
          "asm": "0 1553f31a3e25e770b7bc857b82909e83734dbfe4bcdb5a5e6fc419b6920c398a",
          "hex": "00201553f31a3e25e770b7bc857b82909e83734dbfe4bcdb5a5e6fc419b6920c398a",
          "address": "bcrt1qz4flxx37yhnhpdaus4ac9yy7sde5m0lyhnd45hn0csvmdysv8x9qr7gzry",
          "type": "witness_v0_scripthash"
        }
      }
    ],
    "hex": "01000000000102866f4b8c289e73aaf526d8bd98fce4b17d560cdc0cf1ced56430caaa61bc2d020100000000ffffffff07def58c3a32169d1dd411c5a961f7db16fb50b31bd081fefa9ccb16f0cbbc630000000000ffffffff0118beeb0b000000002200201553f31a3e25e770b7bc857b82909e83734dbfe4bcdb5a5e6fc419b6920c398a0400483045022100ef3ff0bf3e3be8029c18781676a212f04522a9d48be85996fccbe486b8b3fc52022019b5f1881923df770bc2d5d19343d2773c5a4cb941fd29d0d98fb757e4a2618c01483045022100f490bd5d27940248753b6c65c42a1a104b709a2abff2a44c87d0c16e244fb28c02206ef83ea910952daa2bd9b34f08dc59c3798a4b6bffa62ad4cd26a9a87e2fc37901695221028fedaf75b5b08cddf3bf4631c658b68ee6766a8e999467a641d7cb7aaaecec972103316bc27d95b96418349afc6298c259bb999c6e8f39a7217787ad53602be7c1472102e21c29b4a7eeace9c7a8cefb568ca00c86ff9bf5e79e07e5442c29d4a0950d0453ae040047304402206062e98c774162f512a57f786aa5ad94479aa609804880198193e003d8fab29c02204a9e3b5e47004a9c1d21ae2219e1d8469b15d7c9cd136bd92db7532f56cca8180148304502210081d8b641b7637d2a5cd45028249e44868665695a656af92b5c06425af0e4d8db02201e81fee64d7d54a0d059377e5fd025ec19b31eabd12289369d842f2986214b4001695221028fedaf75b5b08cddf3bf4631c658b68ee6766a8e999467a641d7cb7aaaecec972103316bc27d95b96418349afc6298c259bb999c6e8f39a7217787ad53602be7c1472102e21c29b4a7eeace9c7a8cefb568ca00c86ff9bf5e79e07e5442c29d4a0950d0453ae00000000"
  },
  "inputs": [
    {
      "txid": "022dbc61aaca3064d5cef10cdc0c567db1e4fc98bdd826f5aa739e288c4b6f86",
      "hash": "421e819f1193ddcc4272c98fbd2c3fc42a4e652b4f6c602dcba8531a20d5b875",
      "version": 2,
      "size": 234,
      "vsize": 153,
      "weight": 609,
      "locktime": 0,
      "vin": [
        {
          "txid": "edd608ca2b4479292174f19f698c65c31497d162d605fdb9bdf9682df8541bbf",
          "vout": 1,
          "scriptSig": {
            "asm": "",
            "hex": ""
          },
          "txinwitness": [
            "304402200eebb9643970bc8e899b01de2515a496c982fa6061b4fc056ed371e789444d7302206d6cdb1e4993db24f1be61aa743aa44b95066c28a71cc12b82f9fabc4ed8f3a101",
            "0224fdb51237787edc4bdd3ebfe09b17f7c087e2625ca94fb9a9eeb7841644e1ba"
          ],
          "sequence": 4294967294
        }
      ],
      "vout": [
        {
          "value": 22.9999694,
          "n": 0,
          "scriptPubKey": {
            "asm": "0 02ec7cc41fecc774cd75e1107ea8b62fa56e633f",
            "hex": "001402ec7cc41fecc774cd75e1107ea8b62fa56e633f",
            "address": "bcrt1qqtk8e3qlanrhfnt4uyg8a29k97jkucelnj9tsn",
            "type": "witness_v0_keyhash"
          }
        },
        {
          "value": 1,
          "n": 1,
          "scriptPubKey": {
            "asm": "0 1553f31a3e25e770b7bc857b82909e83734dbfe4bcdb5a5e6fc419b6920c398a",
            "hex": "00201553f31a3e25e770b7bc857b82909e83734dbfe4bcdb5a5e6fc419b6920c398a",
            "address": "bcrt1qz4flxx37yhnhpdaus4ac9yy7sde5m0lyhnd45hn0csvmdysv8x9qr7gzry",
            "type": "witness_v0_scripthash"
          }
        }
      ],
      "hex": "02000000000101bf1b54f82d68f9bdb9fd05d662d19714c3658c699ff174212979442bca08d6ed0100000000feffffff020c2b17890000000016001402ec7cc41fecc774cd75e1107ea8b62fa56e633f00e1f505000000002200201553f31a3e25e770b7bc857b82909e83734dbfe4bcdb5a5e6fc419b6920c398a0247304402200eebb9643970bc8e899b01de2515a496c982fa6061b4fc056ed371e789444d7302206d6cdb1e4993db24f1be61aa743aa44b95066c28a71cc12b82f9fabc4ed8f3a101210224fdb51237787edc4bdd3ebfe09b17f7c087e2625ca94fb9a9eeb7841644e1ba00000000"
    },
    {
      "txid": "63bccbf016cb9cfafe81d01bb350fb16dbf761a9c511d41d9d16323a8cf5de07",
      "hash": "461cafd730a42e01ae513aeb436f3f675eba69a50685c62296f4912c9b7662d3",
      "version": 2,
      "size": 234,
      "vsize": 153,
      "weight": 609,
      "locktime": 0,
      "vin": [
        {
          "txid": "286b9a8b111427115201e56cbcd16358afb5136f5a2b9bcd42ef1e7099bde386",
          "vout": 0,
          "scriptSig": {
            "asm": "",
            "hex": ""
          },
          "txinwitness": [
            "3044022024b2cc11dcf44ec2307e02646c9e93b6f86eeed7ded6e5a8959e6b09a46e3334022043c0ee752af7922c515e8a7572256b346b6705ab45b218bebb7dbaae84399e4f01",
            "037418939766826de3073191db0ad41c65d7c434bc7b83f9c8459ac52e77769da4"
          ],
          "sequence": 4294967294
        }
      ],
      "vout": [
        {
          "value": 1,
          "n": 0,
          "scriptPubKey": {
            "asm": "0 1553f31a3e25e770b7bc857b82909e83734dbfe4bcdb5a5e6fc419b6920c398a",
            "hex": "00201553f31a3e25e770b7bc857b82909e83734dbfe4bcdb5a5e6fc419b6920c398a",
            "address": "bcrt1qz4flxx37yhnhpdaus4ac9yy7sde5m0lyhnd45hn0csvmdysv8x9qr7gzry",
            "type": "witness_v0_scripthash"
          }
        },
        {
          "value": 22.9999694,
          "n": 1,
          "scriptPubKey": {
            "asm": "0 aaa63ba87d141bc0676ee894e58a04e67aa9c753",
            "hex": "0014aaa63ba87d141bc0676ee894e58a04e67aa9c753",
            "address": "bcrt1q42nrh2razsduqemwaz2wtzsyuea2n36nznwg52",
            "type": "witness_v0_keyhash"
          }
        }
      ],
      "hex": "0200000000010186e3bd99701eef42cd9b2b5a6f13b5af5863d1bc6ce50152112714118b9a6b280000000000feffffff0200e1f505000000002200201553f31a3e25e770b7bc857b82909e83734dbfe4bcdb5a5e6fc419b6920c398a0c2b178900000000160014aaa63ba87d141bc0676ee894e58a04e67aa9c75302473044022024b2cc11dcf44ec2307e02646c9e93b6f86eeed7ded6e5a8959e6b09a46e3334022043c0ee752af7922c515e8a7572256b346b6705ab45b218bebb7dbaae84399e4f0121037418939766826de3073191db0ad41c65d7c434bc7b83f9c8459ac52e77769da400000000"
    }
  ]
}