{
  "msg": {
    "stakerAddr": "bbn1qw3jhxaqax8rcq",
    "pop": {
      "btcSigType": 2,
      "btcSig": "77d73c7deef77de75f6dc79cddaf7c7f8f3aedbddcd36f787f6d35d37dfaf5d7dbdb46b9efb71e71de79f3cf74e7a6b7e9ff7475ae3c6da7dc7b9e7ae9cf74e1deb46dc6dcd5bd377b6df6e3be7475feddf3d71bd7c7757fa7dc6ddd3adf4ddb"
    },
    "btcPk": "7b6a08504c46336f985a5787a5423eb18c10b149fef29cd3316ad86f565cd2b9",
    "fpBtcPkList": [
      "850854d26df93570748d94e3da361f134c522f7970bd7f8701a164547308a900"
    ],
    "stakingTime": 10000,
    "stakingValue": 55555,
    "stakingTx": "020000000111111111111111111111111111111111111111111111111111111111111111110000000000ffffffff0203d9000000000000225120788d73d75d7dd88d3612f7a91d5b3d6ad4778d8b49176f9539d322980b2f4fd7bf51090000000000160014896f1ba65deaeb045bb3121e20e5744e66ca0e4800000000",
    "slashingTx": "0200000001a999d7bc6af1a17cd4e70d0fd875a1734152dfb55f9166240f35965c79fa36c20000000000ffffffff02d90a0000000000001600145be12624d08a2b424095d7c07221c33450d14bf1a2ba000000000000225120d5238530e223ef1bd34a8a98ee1708f6a8a87e7a2589d88de6700b9973ffff4600000000",
    "delegatorSlashingSig": "c032a98f7d16adc8a1438310782b35aa0e5d23abca1deb1d743461e7649e0cca07b030c2f083ffb21b88b8de1198a919853b576a7e9c4b80f5bcd6cb544536b4",
    "unbondingTime": 1008,
    "unbondingTx": "0200000001a999d7bc6af1a17cd4e70d0fd875a1734152dfb55f9166240f35965c79fa36c20000000000ffffffff0133d1000000000000225120dec7bc887b110e2c10f1c9a2212cd961e95184870c91d88c9a3727f4ef4c303c00000000",
    "unbondingValue": 53555,
    "unbondingSlashingTx": "02000000014c2a294c5e31886937d0985e69e65314419e8866e5ab859cb2903cbe420a555a0000000000ffffffff02750a0000000000001600145be12624d08a2b424095d7c07221c33450d14bf136b3000000000000225120d5238530e223ef1bd34a8a98ee1708f6a8a87e7a2589d88de6700b9973ffff4600000000",
    "delegatorUnbondingSlashingSig": "71fdbb1e85db78b2406f7f6a8bbbeecd9be27d6099c4b80b2cf09403a855b55d057805576afad3bf92b79487e9559ad355c9728f95fe191c7a78b21284925fd0"
  },
  "msgBytes": "0a1262626e317177336a6878617161783872637112640802126077d73c7deef77de75f6dc79cddaf7c7f8f3aedbddcd36f787f6d35d37dfaf5d7dbdb46b9efb71e71de79f3cf74e7a6b7e9ff7475ae3c6da7dc7b9e7ae9cf74e1deb46dc6dcd5bd377b6df6e3be7475feddf3d71bd7c7757fa7dc6ddd3adf4ddb1a207b6a08504c46336f985a5787a5423eb18c10b149fef29cd3316ad86f565cd2b92220850854d26df93570748d94e3da361f134c522f7970bd7f8701a164547308a90028904e3083b2033a7d020000000111111111111111111111111111111111111111111111111111111111111111110000000000ffffffff0203d9000000000000225120788d73d75d7dd88d3612f7a91d5b3d6ad4778d8b49176f9539d322980b2f4fd7bf51090000000000160014896f1ba65deaeb045bb3121e20e5744e66ca0e48000000004a7d0200000001a999d7bc6af1a17cd4e70d0fd875a1734152dfb55f9166240f35965c79fa36c20000000000ffffffff02d90a0000000000001600145be12624d08a2b424095d7c07221c33450d14bf1a2ba000000000000225120d5238530e223ef1bd34a8a98ee1708f6a8a87e7a2589d88de6700b9973ffff46000000005240c032a98f7d16adc8a1438310782b35aa0e5d23abca1deb1d743461e7649e0cca07b030c2f083ffb21b88b8de1198a919853b576a7e9c4b80f5bcd6cb544536b458f007625e0200000001a999d7bc6af1a17cd4e70d0fd875a1734152dfb55f9166240f35965c79fa36c20000000000ffffffff0133d1000000000000225120dec7bc887b110e2c10f1c9a2212cd961e95184870c91d88c9a3727f4ef4c303c0000000068b3a203727d02000000014c2a294c5e31886937d0985e69e65314419e8866e5ab859cb2903cbe420a555a0000000000ffffffff02750a0000000000001600145be12624d08a2b424095d7c07221c33450d14bf136b3000000000000225120d5238530e223ef1bd34a8a98ee1708f6a8a87e7a2589d88de6700b9973ffff46000000007a4071fdbb1e85db78b2406f7f6a8bbbeecd9be27d6099c4b80b2cf09403a855b55d057805576afad3bf92b79487e9559ad355c9728f95fe191c7a78b21284925fd0",
  "stakingTx": {
    "version": 2,
    "locktime": 0,
    "ins": [
      {
        "hash": "1111111111111111111111111111111111111111111111111111111111111111",
        "index": 0,
        "script": "",
        "sequence": 4294967295,
        "witness": []
      }
    ],
    "outs": [
      {
        "script": "5120788d73d75d7dd88d3612f7a91d5b3d6ad4778d8b49176f9539d322980b2f4fd7",
        "value": 55555
      },
      {
        "script": "0014896f1ba65deaeb045bb3121e20e5744e66ca0e48",
        "value": 610751
      }
    ]
  }
}
