{
  "unsignedDelegationMsg": {
    "typeUrl": "/babylon.btcstaking.v1.MsgCreateBTCDelegation",
    "value": {
      "stakerAddr": "bbn1qw3jhxaqax8rcq",
      "pop": {
        "btcSigType": 1,
        "btcSig": "0a2a626331713339683368666a6161743473676b616e7a67307a7065743566656e7635726a67306c686e767912cb010340478d18ba3a60afb23a603cbfc3023b3253d1ca0b44053b47bd8e9de2d6aa8efd946ea42c6a2b35deb897c0ed308e1c1b6463a1055a10e6dc5042b610e01af47126207b6a08504c46336f985a5787a5423eb18c10b149fef29cd3316ad86f565cd2b9ad021027b261c050929b74c1a04954b78b4b6035e97a5e078a5a0f28ec96d547bfee9ace803ac01e1d2e84c4fc6bdddf3b8018065cf5ca8405988579188585f382c51c088e882696962cb69242e00941e0a6197b7ecdb83ab8bb0490dbfd23fa4b8d26b75989eb"
      },
      "btcPk": "7b6a08504c46336f985a5787a5423eb18c10b149fef29cd3316ad86f565cd2b9",
      "fpBtcPkList": [
        "d23c2c25e1fcf8fd1c21b9a402c19e2e309e531e45e92fb1e9805b6056b0cc76"
      ],
      "stakingTime": 10000,
      "stakingValue": 55555,
      "stakingTx": "020000000111111111111111111111111111111111111111111111111111111111111111110000000000ffffffff0203d9000000000000225120f1871fc2ac3050b53dc35d502a9d94388f6f373b86f3905667945a8430cbd639bf51090000000000160014896f1ba65deaeb045bb3121e20e5744e66ca0e4800000000",
      "slashingTx": "020000000164da14050ffd0e6186c68a59f371a0adc95cc84b0502fe0915be7eba3f771bb30000000000ffffffff02da0a0000000000001600145be12624d08a2b424095d7c07221c33450d14bf1a1ba000000000000225120d5238530e223ef1bd34a8a98ee1708f6a8a87e7a2589d88de6700b9973ffff4600000000",
      "delegatorSlashingSig": "3da4c633225c7cc2f5b2db78f9126be6f896c8f8facb4e8a8358194fb4c24abaa6e799923d1fe6b607aafc5e45a9b7a18937e3d1231a7dcbfc199df325299e37",
      "unbondingTime": 1008,
      "unbondingTx": "020000000164da14050ffd0e6186c68a59f371a0adc95cc84b0502fe0915be7eba3f771bb30000000000ffffffff0133d10000000000002251204dcea0c802236110602d7b1cc2e76ef5f1f05170b058685b4caf4367ac849d6b00000000",
      "unbondingValue": 53555,
      "unbondingSlashingTx": "0200000001c047c5904542017cfee57fdb350d6bf776a5ef8c46bc033f454a64b496d0ab9d0000000000ffffffff02760a0000000000001600145be12624d08a2b424095d7c07221c33450d14bf135b3000000000000225120d5238530e223ef1bd34a8a98ee1708f6a8a87e7a2589d88de6700b9973ffff4600000000",
      "delegatorUnbondingSlashingSig": "c53c4747e7b4a6177f73d3adc80158088141d7c30d11b5a8be2bb6b1d3acefb3d685391e67add3056982a9989877e20bc82feee844c46dea81a67ab22caf6541"
    }
  },
  "stakingTx": {
    "version": 2,
    "locktime": 0,
    "ins": [
      {
        "hash": "1111111111111111111111111111111111111111111111111111111111111111",
        "index": 0,
        "script": "",
        "sequence": 4294967295,
        "witness": []
      }
    ],
    "outs": [
      {
        "script": "5120f1871fc2ac3050b53dc35d502a9d94388f6f373b86f3905667945a8430cbd639",
        "value": 55555
      },
      {
        "script": "0014896f1ba65deaeb045bb3121e20e5744e66ca0e48",
        "value": 610751
      }
    ]
  }
}
