{
  "unsignedDelegationMsg": {
    "typeUrl": "/babylon.btcstaking.v1.MsgCreateBTCDelegation",
    "value": {
      "stakerAddr": "bbn1qw3jhxaqax8rcq",
      "pop": {
        "btcSigType": 1,
        "btcSig": "0a2a626331713339683368666a6161743473676b616e7a67307a7065743566656e7635726a67306c686e767912cb0103409b9ae725fd43f3d619decb4db55071ce73b1371f789c93642e095902823e4b563ba03385eafa1b15d4dc1b5ba3924c8f02c4086a2176df1e2c727c0f0358e99326207b6a08504c46336f985a5787a5423eb18c10b149fef29cd3316ad86f565cd2b9ad021027b261c150929b74c1a04954b78b4b6035e97a5e078a5a0f28ec96d547bfee9ace803ac02b5e03e8f99e45c243b3a08aab9b3d5dcfbd70b9b4c7b6eb89fd56f4b645efc604fcf01d19707c7d65d145bd77cb1ecab890dd0d8cecc16116d1438aeba66bf6"
      },
      "btcPk": "7b6a08504c46336f985a5787a5423eb18c10b149fef29cd3316ad86f565cd2b9",
      "fpBtcPkList": [
        "d23c2c25e1fcf8fd1c21b9a402c19e2e309e531e45e92fb1e9805b6056b0cc76"
      ],
      "stakingTime": 10000,
      "stakingValue": 55555,
      "stakingTx": "020000000111111111111111111111111111111111111111111111111111111111111111110000000000ffffffff0203d90000000000002251203011435d07a5fbdd9e2ce1f5bcf5f43dd8b879153fb88825fe61f346bf900685bf51090000000000160014896f1ba65deaeb045bb3121e20e5744e66ca0e4800000000",
      "slashingTx": "020000000193bf6c25f9a5ac3144d25dc3e46c2893f24e9b4f71a26a15673e9aac59c3f3890000000000ffffffff02da0a0000000000001600145be12624d08a2b424095d7c07221c33450d14bf1a1ba0000000000002251206c3847465792524786d02b2bbb3833d92f0399c5d299353dc56be1bfc752e5a800000000",
      "delegatorSlashingSig": "05bec13591ed9903a814bcb8aaa4e577578f37e64ed67b77de569576b0b89008575feda800006f0f284ce0c2240f7f2d9b7a7d94093f9e9cbf89ef9524444295",
      "unbondingTime": 301,
      "unbondingTx": "020000000193bf6c25f9a5ac3144d25dc3e46c2893f24e9b4f71a26a15673e9aac59c3f3890000000000ffffffff0133d1000000000000225120df14d46b306102051a4ecd361691e8290be0e439430984431535edf28815a1ed00000000",
      "unbondingValue": 53555,
      "unbondingSlashingTx": "02000000011d7fd905b4d603768b3bc0c5b718497b9d9e3910201e963b5a4705fd237cd4f40000000000ffffffff02760a0000000000001600145be12624d08a2b424095d7c07221c33450d14bf135b30000000000002251206c3847465792524786d02b2bbb3833d92f0399c5d299353dc56be1bfc752e5a800000000",
      "delegatorUnbondingSlashingSig": "0716ce26526755e51ce9f17d932c4694f50143532db5c5d57a83a9bd06f892b5ae526f7ad8db19b96830d8ba56eda9d2a4ec2b5ad711c50b26b980dcf7452efa"
    }
  },
  "stakingTx": {
    "version": 2,
    "locktime": 0,
    "ins": [
      {
        "hash": "1111111111111111111111111111111111111111111111111111111111111111",
        "index": 0,
        "script": "",
        "sequence": 4294967295,
        "witness": []
      }
    ],
    "outs": [
      {
        "script": "51203011435d07a5fbdd9e2ce1f5bcf5f43dd8b879153fb88825fe61f346bf900685",
        "value": 55555
      },
      {
        "script": "0014896f1ba65deaeb045bb3121e20e5744e66ca0e48",
        "value": 610751
      }
    ]
  }
}
