{
  "unsignedDelegationMsg": {
    "typeUrl": "/babylon.btcstaking.v1.MsgCreateBTCDelegation",
    "value": {
      "stakerAddr": "bbn1qw3jhxaqax8rcq",
      "pop": {
        "btcSigType": 1,
        "btcSig": "0a2a626331713339683368666a6161743473676b616e7a67307a7065743566656e7635726a67306c686e767912cb0103404b7729f55fa3d0b0da10357db45a72acf372932e142ce3febc429f20db3b11c0fac2a479d027897a30f00b479024c96ef7ad46a4afc1048042f1cac3cc00344a26207b6a08504c46336f985a5787a5423eb18c10b149fef29cd3316ad86f565cd2b9ad021027b261c150929b74c1a04954b78b4b6035e97a5e078a5a0f28ec96d547bfee9ace803ac068cc9790c0627bc8f28afd009b31974a2fce5ea4fe2ed4dd8b65c8feda196875c1d262cfe1f3b746337f6766e31854333d370f733bd845727aaed2baebc7a552"
      },
      "btcPk": "7b6a08504c46336f985a5787a5423eb18c10b149fef29cd3316ad86f565cd2b9",
      "fpBtcPkList": [
        "850854d26df93570748d94e3da361f134c522f7970bd7f8701a164547308a900"
      ],
      "stakingTime": 10000,
      "stakingValue": 55555,
      "stakingTx": "020000000111111111111111111111111111111111111111111111111111111111111111110000000000ffffffff0203d9000000000000225120788d73d75d7dd88d3612f7a91d5b3d6ad4778d8b49176f9539d322980b2f4fd7bf51090000000000160014896f1ba65deaeb045bb3121e20e5744e66ca0e4800000000",
      "slashingTx": "0200000001a999d7bc6af1a17cd4e70d0fd875a1734152dfb55f9166240f35965c79fa36c20000000000ffffffff02da0a0000000000001600145be12624d08a2b424095d7c07221c33450d14bf1a1ba000000000000225120d5238530e223ef1bd34a8a98ee1708f6a8a87e7a2589d88de6700b9973ffff4600000000",
      "delegatorSlashingSig": "2474337cd33ad60d0de8405f5be6b844c5c135184b77aaee623c4b151e30d533b9ff837821d5d85e9a758c79193244e1bfd3fec42208cc1eca993f318bd77566",
      "unbondingTime": 1008,
      "unbondingTx": "0200000001a999d7bc6af1a17cd4e70d0fd875a1734152dfb55f9166240f35965c79fa36c20000000000ffffffff0133d1000000000000225120dec7bc887b110e2c10f1c9a2212cd961e95184870c91d88c9a3727f4ef4c303c00000000",
      "unbondingValue": 53555,
      "unbondingSlashingTx": "02000000014c2a294c5e31886937d0985e69e65314419e8866e5ab859cb2903cbe420a555a0000000000ffffffff02760a0000000000001600145be12624d08a2b424095d7c07221c33450d14bf135b3000000000000225120d5238530e223ef1bd34a8a98ee1708f6a8a87e7a2589d88de6700b9973ffff4600000000",
      "delegatorUnbondingSlashingSig": "50f787ffcbd0b4301898767a348615d4e987aa617ad7e06e22b0f249e5660030613a3df2300467aa2376abe2554b98f0499cae686f8e53a07715530c99b1f5fe"
    }
  },
  "stakingTx": {
    "version": 2,
    "locktime": 0,
    "ins": [
      {
        "hash": "1111111111111111111111111111111111111111111111111111111111111111",
        "index": 0,
        "script": "",
        "sequence": 4294967295,
        "witness": []
      }
    ],
    "outs": [
      {
        "script": "5120788d73d75d7dd88d3612f7a91d5b3d6ad4778d8b49176f9539d322980b2f4fd7",
        "value": 55555
      },
      {
        "script": "0014896f1ba65deaeb045bb3121e20e5744e66ca0e48",
        "value": 610751
      }
    ]
  }
}
