{
  "unsignedDelegationMsg": {
    "typeUrl": "/babylon.btcstaking.v1.MsgCreateBTCDelegation",
    "value": {
      "stakerAddr": "bbn1qw3jhxaqax8rcq",
      "pop": {
        "btcSigType": 1,
        "btcSig": "0a2a626331713339683368666a6161743473676b616e7a67307a7065743566656e7635726a67306c686e767912cb0103406c70ed995d01a66ec342e4f55d62378d81afae30c3868bb535ad8dedfaf6b192482157370b9b781afda2394b73b0a94d118047acb53c250ee40f2c64f226d18826207b6a08504c46336f985a5787a5423eb18c10b149fef29cd3316ad86f565cd2b9ad021027b261c150929b74c1a04954b78b4b6035e97a5e078a5a0f28ec96d547bfee9ace803ac005cf5c174a40149977408dcf449356dde7532d2491b976e9c8ef3ffc34747f34926c333ffc04475ec29781b22e77d678cf906fe6bf67df0d8c93e2eb2711bfd6"
      },
      "btcPk": "7b6a08504c46336f985a5787a5423eb18c10b149fef29cd3316ad86f565cd2b9",
      "fpBtcPkList": [
        "850854d26df93570748d94e3da361f134c522f7970bd7f8701a164547308a900"
      ],
      "stakingTime": 10000,
      "stakingValue": 55555,
      "stakingTx": "020000000111111111111111111111111111111111111111111111111111111111111111110000000000ffffffff0203d90000000000002251207c6aabd6ba6cebf2971a4f1d33f91fccd4aabf34da6c42a35fd4461cbfeaf4afbf51090000000000160014896f1ba65deaeb045bb3121e20e5744e66ca0e4800000000",
      "slashingTx": "0200000001457966c7197681c0d9c61e885d8dd39e37bf60e691012f0d4d49b7c19cf295070000000000ffffffff02da0a0000000000001600145be12624d08a2b424095d7c07221c33450d14bf1a1ba0000000000002251206c3847465792524786d02b2bbb3833d92f0399c5d299353dc56be1bfc752e5a800000000",
      "delegatorSlashingSig": "21c45381364c1ff4e15d8552135579af3f351718e9f612270cfa2f6c08b3875a541d358cea86c3e5295b264929f56f653a0217fad094140d732890edcff7cc97",
      "unbondingTime": 301,
      "unbondingTx": "0200000001457966c7197681c0d9c61e885d8dd39e37bf60e691012f0d4d49b7c19cf295070000000000ffffffff0133d100000000000022512060d1dc6ff4433048a67a4fe9e25de092dd5e8ffb9411f2750fb3ae886fe9c1b900000000",
      "unbondingValue": 53555,
      "unbondingSlashingTx": "02000000017ead1b1bef2c936c647db83533be37803a64aaf1c0b9a90d70ded87f8d58148f0000000000ffffffff02760a0000000000001600145be12624d08a2b424095d7c07221c33450d14bf135b30000000000002251206c3847465792524786d02b2bbb3833d92f0399c5d299353dc56be1bfc752e5a800000000",
      "delegatorUnbondingSlashingSig": "06057f4dcd75e986eaff1ebed44f6d0334275563716849e2d9c41b18b5d02fd9e7dc251d1cca5230d0f5dc954d71dc817503ab808ecbec42dfdd9f3c2267ce5c"
    }
  },
  "stakingTx": {
    "version": 2,
    "locktime": 0,
    "ins": [
      {
        "hash": "1111111111111111111111111111111111111111111111111111111111111111",
        "index": 0,
        "script": "",
        "sequence": 4294967295,
        "witness": []
      }
    ],
    "outs": [
      {
        "script": "51207c6aabd6ba6cebf2971a4f1d33f91fccd4aabf34da6c42a35fd4461cbfeaf4af",
        "value": 55555
      },
      {
        "script": "0014896f1ba65deaeb045bb3121e20e5744e66ca0e48",
        "value": 610751
      }
    ]
  }
}
