{
  "unsignedDelegationMsg": {
    "typeUrl": "/babylon.btcstaking.v1.MsgCreateBTCDelegation",
    "value": {
      "stakerAddr": "bbn1qw3jhxaqax8rcq",
      "pop": {
        "btcSigType": 2,
        "btcSig": "77d73c7deef77de75f6dc79cddaf7c7f8f3aedbddcd36f787f6d35d37dfaf5d7dbdb46b9efb71e71de79f3cf74e7a6b7e9ff7475ae3c6da7dc7b9e7ae9cf74e1deb46dc6dcd5bd377b6df6e3be7475feddf3d71bd7c7757fa7dc6ddd3adf4ddb"
      },
      "btcPk": "7b6a08504c46336f985a5787a5423eb18c10b149fef29cd3316ad86f565cd2b9",
      "fpBtcPkList": [
        "d23c2c25e1fcf8fd1c21b9a402c19e2e309e531e45e92fb1e9805b6056b0cc76"
      ],
      "stakingTime": 10000,
      "stakingValue": 55555,
      "stakingTx": "020000000111111111111111111111111111111111111111111111111111111111111111110000000000ffffffff0203d9000000000000225120f1871fc2ac3050b53dc35d502a9d94388f6f373b86f3905667945a8430cbd639bf51090000000000160014896f1ba65deaeb045bb3121e20e5744e66ca0e4800000000",
      "slashingTx": "020000000164da14050ffd0e6186c68a59f371a0adc95cc84b0502fe0915be7eba3f771bb30000000000ffffffff02d90a0000000000001600145be12624d08a2b424095d7c07221c33450d14bf1a2ba000000000000225120d5238530e223ef1bd34a8a98ee1708f6a8a87e7a2589d88de6700b9973ffff4600000000",
      "delegatorSlashingSig": "f10a5e6d722b459e87d713bf9af1113fa5eb7a1e41ff5738de7049fcf113beaa5f01228aecf27eb94045a9900b092091a63dbf546fd7d6c05d32d32cf8ad591d",
      "unbondingTime": 1008,
      "unbondingTx": "020000000164da14050ffd0e6186c68a59f371a0adc95cc84b0502fe0915be7eba3f771bb30000000000ffffffff0133d10000000000002251204dcea0c802236110602d7b1cc2e76ef5f1f05170b058685b4caf4367ac849d6b00000000",
      "unbondingValue": 53555,
      "unbondingSlashingTx": "0200000001c047c5904542017cfee57fdb350d6bf776a5ef8c46bc033f454a64b496d0ab9d0000000000ffffffff02750a0000000000001600145be12624d08a2b424095d7c07221c33450d14bf136b3000000000000225120d5238530e223ef1bd34a8a98ee1708f6a8a87e7a2589d88de6700b9973ffff4600000000",
      "delegatorUnbondingSlashingSig": "5bf9bed637fbd109d53c60df4093b166ba06a27b90c6b7d05beb9124a19fc62d1d17522a309d4dd7d8dc2eed954dcb3f628f44ae9837c02b91545fa313de6e17"
    }
  },
  "stakingTx": {
    "version": 2,
    "locktime": 0,
    "ins": [
      {
        "hash": "1111111111111111111111111111111111111111111111111111111111111111",
        "index": 0,
        "script": "",
        "sequence": 4294967295,
        "witness": []
      }
    ],
    "outs": [
      {
        "script": "5120f1871fc2ac3050b53dc35d502a9d94388f6f373b86f3905667945a8430cbd639",
        "value": 55555
      },
      {
        "script": "0014896f1ba65deaeb045bb3121e20e5744e66ca0e48",
        "value": 610751
      }
    ]
  }
}
