{
  "transaction": {
    "txid": "0dc1d4d6668d759b6c028501fb0160860e766a0c4393eadd58a145c6f986a7b6",
    "hash": "1dba7efbf05f51883e5b5fbb5b8f372f2ff24cb785a2e9c842730a793752f994",
    "version": 2,
    "size": 245,
    "vsize": 164,
    "weight": 653,
    "locktime": 300,
    "vin": [
      {
        "txid": "9ed2a53bfa97a10f81fd28dac81defc2859c41e452e93cdfe800a63246d50488",
        "vout": 0,
        "scriptSig": {
          "asm": "001459428eda56834de4e2a175c26ee01eea183640cf",
          "hex": "16001459428eda56834de4e2a175c26ee01eea183640cf"
        },
        "txinwitness": [
          "3044022005ec1778ecfb8cd805dacd475c5590ddd54cd9bf3ed889b862520d7996957902022050ca91e47de8357b3dfa2d87f0b666de9cee72ece77b4230b0c92520401df35201",
          "027719ae154f48dad5410eb429820e72ed1fc02da88a6e827533df4712ad91431c"
        ],
        "sequence": 4294967294
      }
    ],
    "vout": [
      {
        "value": 1,
        "n": 0,
        "scriptPubKey": {
          "asm": "0 d2eb140d8b7006e7b862827043f9cddd50da9811",
          "hex": "0014d2eb140d8b7006e7b862827043f9cddd50da9811",
          "reqSigs": 1,
          "type": "witness_v0_keyhash",
          "addresses": [
            "rltc1q6t43grvtwqrw0wrzsfcy87wdm4gd4xq32246p5"
          ]
        }
      },
      {
        "value": 23.999672,
        "n": 1,
        "scriptPubKey": {
          "asm": "0 cbcb5f432c7a4448eda29c054debc8c4c0ce4ee4",
          "hex": "0014cbcb5f432c7a4448eda29c054debc8c4c0ce4ee4",
          "reqSigs": 1,
          "type": "witness_v0_keyhash",
          "addresses": [
            "rltc1qe0947sev0fzy3mdznsz5m67gcnqvunhy8a5h2a"
          ]
        }
      }
    ],
    "hex": "020000000001018804d54632a600e8df3ce952e4419c85c2ef1dc8da28fd810fa197fa3ba5d29e000000001716001459428eda56834de4e2a175c26ee01eea183640cffeffffff0200e1f50500000000160014d2eb140d8b7006e7b862827043f9cddd50da9811e0970c8f00000000160014cbcb5f432c7a4448eda29c054debc8c4c0ce4ee402473044022005ec1778ecfb8cd805dacd475c5590ddd54cd9bf3ed889b862520d7996957902022050ca91e47de8357b3dfa2d87f0b666de9cee72ece77b4230b0c92520401df3520121027719ae154f48dad5410eb429820e72ed1fc02da88a6e827533df4712ad91431c2c010000"
  },
  "inputs": [
    {
      "txid": "9ed2a53bfa97a10f81fd28dac81defc2859c41e452e93cdfe800a63246d50488",
      "hash": "3ea8a38e22dd996c103d3cf1e56e70601cefedff73a523459d1a6a9e840b1991",
      "version": 2,
      "size": 171,
      "vsize": 144,
      "weight": 576,
      "locktime": 0,
      "vin": [
        {
          "coinbase": "02a3000101",
          "sequence": 4294967295
        }
      ],
      "vout": [
        {
          "value": 25,
          "n": 0,
          "scriptPubKey": {
            "asm": "OP_HASH160 18126dbeef299a405113fda7c493798dd905f4e2 OP_EQUAL",
            "hex": "a91418126dbeef299a405113fda7c493798dd905f4e287",
            "reqSigs": 1,
            "type": "scripthash",
            "addresses": [
              "QNoGQMJvNHYUubKzugLzB37nWUv9ukUDyd"
            ]
          }
        },
        {
          "value": 0,
          "n": 1,
          "scriptPubKey": {
            "asm": "OP_RETURN aa21a9ede2f61c3f71d1defd3fa999dfa36953755c690689799962b48bebd836974e8cf9",
            "hex": "6a24aa21a9ede2f61c3f71d1defd3fa999dfa36953755c690689799962b48bebd836974e8cf9",
            "type": "nulldata"
          }
        }
      ],
      "hex": "020000000001010000000000000000000000000000000000000000000000000000000000000000ffffffff0502a3000101ffffffff0200f902950000000017a91418126dbeef299a405113fda7c493798dd905f4e2870000000000000000266a24aa21a9ede2f61c3f71d1defd3fa999dfa36953755c690689799962b48bebd836974e8cf90120000000000000000000000000000000000000000000000000000000000000000000000000",
      "blockhash": "4d91dedec92c5e62b5fedcb743a748626eeee89b84927520a530910a85d3d41d",
      "confirmations": 138,
      "time": 1635930578,
      "blocktime": 1635930578
    }
  ]
}