{
  "transaction": {
    "txid": "30cae9f3e1b28eedf77035bbfa6ad37afab74a8ebe7d38a1e5f74af5a4ed1072",
    "hash": "97f541d26efc4ad88d983040cdbbb2768f9f953283b10f49fe1f1f8ad88b4d13",
    "version": 2,
    "size": 257,
    "vsize": 176,
    "weight": 701,
    "locktime": 300,
    "vin": [
      {
        "txid": "03cbd9236d731227958d31ad1ac7ec26bd2dbf21ad29c89f62236cbc0d256646",
        "vout": 0,
        "scriptSig": {
          "asm": "001459428eda56834de4e2a175c26ee01eea183640cf",
          "hex": "16001459428eda56834de4e2a175c26ee01eea183640cf"
        },
        "txinwitness": [
          "304402204ecffcf12cdbf774f671b620488327b2fde9b145be759598fe3481c3f31d3c4a02204b0bba167302bc65380d20e61ce20609a2856ca8c55408c19e8ae5b31ab959d801",
          "027719ae154f48dad5410eb429820e72ed1fc02da88a6e827533df4712ad91431c"
        ],
        "sequence": 4294967294
      }
    ],
    "vout": [
      {
        "value": 1,
        "n": 0,
        "scriptPubKey": {
          "asm": "0 1553f31a3e25e770b7bc857b82909e83734dbfe4bcdb5a5e6fc419b6920c398a",
          "hex": "00201553f31a3e25e770b7bc857b82909e83734dbfe4bcdb5a5e6fc419b6920c398a",
          "reqSigs": 1,
          "type": "witness_v0_scripthash",
          "addresses": [
            "rltc1qz4flxx37yhnhpdaus4ac9yy7sde5m0lyhnd45hn0csvmdysv8x9qtazavf"
          ]
        }
      },
      {
        "value": 23.999648,
        "n": 1,
        "scriptPubKey": {
          "asm": "0 cca2f80e44e13d6bdf0da4e04315025ee044cdb8",
          "hex": "0014cca2f80e44e13d6bdf0da4e04315025ee044cdb8",
          "reqSigs": 1,
          "type": "witness_v0_keyhash",
          "addresses": [
            "rltc1qej30srjyuy7khhcd5nsyx9gztmsyfndcauwa73"
          ]
        }
      }
    ],
    "hex": "020000000001014666250dbc6c23629fc829ad21bf2dbd26ecc71aad318d952712736d23d9cb03000000001716001459428eda56834de4e2a175c26ee01eea183640cffeffffff0200e1f505000000002200201553f31a3e25e770b7bc857b82909e83734dbfe4bcdb5a5e6fc419b6920c398a808e0c8f00000000160014cca2f80e44e13d6bdf0da4e04315025ee044cdb80247304402204ecffcf12cdbf774f671b620488327b2fde9b145be759598fe3481c3f31d3c4a02204b0bba167302bc65380d20e61ce20609a2856ca8c55408c19e8ae5b31ab959d80121027719ae154f48dad5410eb429820e72ed1fc02da88a6e827533df4712ad91431c2c010000"
  },
  "inputs": [
    {
      "txid": "03cbd9236d731227958d31ad1ac7ec26bd2dbf21ad29c89f62236cbc0d256646",
      "hash": "f3767eff1c4f0dff2ce1d30ffd64f6c585faea5072e78f4526dea8988474ec30",
      "version": 2,
      "size": 171,
      "vsize": 144,
      "weight": 576,
      "locktime": 0,
      "vin": [
        {
          "coinbase": "029b000101",
          "sequence": 4294967295
        }
      ],
      "vout": [
        {
          "value": 25,
          "n": 0,
          "scriptPubKey": {
            "asm": "OP_HASH160 18126dbeef299a405113fda7c493798dd905f4e2 OP_EQUAL",
            "hex": "a91418126dbeef299a405113fda7c493798dd905f4e287",
            "reqSigs": 1,
            "type": "scripthash",
            "addresses": [
              "QNoGQMJvNHYUubKzugLzB37nWUv9ukUDyd"
            ]
          }
        },
        {
          "value": 0,
          "n": 1,
          "scriptPubKey": {
            "asm": "OP_RETURN aa21a9ede2f61c3f71d1defd3fa999dfa36953755c690689799962b48bebd836974e8cf9",
            "hex": "6a24aa21a9ede2f61c3f71d1defd3fa999dfa36953755c690689799962b48bebd836974e8cf9",
            "type": "nulldata"
          }
        }
      ],
      "hex": "020000000001010000000000000000000000000000000000000000000000000000000000000000ffffffff05029b000101ffffffff0200f902950000000017a91418126dbeef299a405113fda7c493798dd905f4e2870000000000000000266a24aa21a9ede2f61c3f71d1defd3fa999dfa36953755c690689799962b48bebd836974e8cf90120000000000000000000000000000000000000000000000000000000000000000000000000",
      "blockhash": "ab2a8d86e9a5908f4fa39a5626af9c140ac8d3a2c7e12931a1cbe7c2126bb96b",
      "confirmations": 146,
      "time": 1635930577,
      "blocktime": 1635930577
    }
  ]
}