{
  "transaction": {
    "txid": "2725801b2a3cc79dc31c62cb72ec4ee74505031f3ec5ec04a1f92a9648447678",
    "hash": "eb738cc867c470ea9a850b7d344a7a3327ee4b3aa4dc1a4cd0165f2616adc3ba",
    "version": 2,
    "size": 247,
    "vsize": 166,
    "weight": 661,
    "locktime": 300,
    "vin": [
      {
        "txid": "23836db475e60c704f2aded6e15e76510ba649dd40fb762b308e6d50d14cfe8a",
        "vout": 0,
        "scriptSig": {
          "asm": "0014c26fba2de312daae02f280b3b6c753a6bb6dd8c5",
          "hex": "160014c26fba2de312daae02f280b3b6c753a6bb6dd8c5"
        },
        "txinwitness": [
          "304402202f75b4cfeef1e996ee81d8ab617d9fa718a2e118b17be1dd7c6e815045d2dabc0220292bd3c0c3a8f6375d91f7ebad0f261a3865c7496f0e68fc3ac6ea11482a078e01",
          "029eb510705a8771dac819d317844bf5b1d52160182083ec85dd37c80e5e841913"
        ],
        "sequence": 4294967294
      }
    ],
    "vout": [
      {
        "value": 23.999668,
        "n": 0,
        "scriptPubKey": {
          "asm": "OP_HASH160 d5e202f198c70437cdac3e3d5dc9562d987220d4 OP_EQUAL",
          "hex": "a914d5e202f198c70437cdac3e3d5dc9562d987220d487",
          "reqSigs": 1,
          "type": "scripthash",
          "addresses": [
            "Qg6tniJqu5shv79HM9GZF9dygeDni9nPqV"
          ]
        }
      },
      {
        "value": 1,
        "n": 1,
        "scriptPubKey": {
          "asm": "OP_HASH160 2280193aca8462021ec369d4e2ff1c95741fba7f OP_EQUAL",
          "hex": "a9142280193aca8462021ec369d4e2ff1c95741fba7f87",
          "reqSigs": 1,
          "type": "scripthash",
          "addresses": [
            "QPkQYGJWZQtEKiZXemzsSWkB1wo6o6yGyu"
          ]
        }
      }
    ],
    "hex": "020000000001018afe4cd1506d8e302b76fb40dd49a60b51765ee1d6de2a4f700ce675b46d83230000000017160014c26fba2de312daae02f280b3b6c753a6bb6dd8c5feffffff0250960c8f0000000017a914d5e202f198c70437cdac3e3d5dc9562d987220d48700e1f5050000000017a9142280193aca8462021ec369d4e2ff1c95741fba7f870247304402202f75b4cfeef1e996ee81d8ab617d9fa718a2e118b17be1dd7c6e815045d2dabc0220292bd3c0c3a8f6375d91f7ebad0f261a3865c7496f0e68fc3ac6ea11482a078e0121029eb510705a8771dac819d317844bf5b1d52160182083ec85dd37c80e5e8419132c010000"
  },
  "inputs": [
    {
      "txid": "23836db475e60c704f2aded6e15e76510ba649dd40fb762b308e6d50d14cfe8a",
      "hash": "9ec0440e7df4b3f8a273823265b5ea42515b52a3e9db64434647d84f3df26f1e",
      "version": 2,
      "size": 171,
      "vsize": 144,
      "weight": 576,
      "locktime": 0,
      "vin": [
        {
          "coinbase": "02a8000101",
          "sequence": 4294967295
        }
      ],
      "vout": [
        {
          "value": 25,
          "n": 0,
          "scriptPubKey": {
            "asm": "OP_HASH160 27266cd4267ff5efe815d8016e3de54a3999e73b OP_EQUAL",
            "hex": "a91427266cd4267ff5efe815d8016e3de54a3999e73b87",
            "reqSigs": 1,
            "type": "scripthash",
            "addresses": [
              "QQAzVbygGcMZj85Q9HvuiTXQhcG2ZYkZ7w"
            ]
          }
        },
        {
          "value": 0,
          "n": 1,
          "scriptPubKey": {
            "asm": "OP_RETURN aa21a9ede2f61c3f71d1defd3fa999dfa36953755c690689799962b48bebd836974e8cf9",
            "hex": "6a24aa21a9ede2f61c3f71d1defd3fa999dfa36953755c690689799962b48bebd836974e8cf9",
            "type": "nulldata"
          }
        }
      ],
      "hex": "020000000001010000000000000000000000000000000000000000000000000000000000000000ffffffff0502a8000101ffffffff0200f902950000000017a91427266cd4267ff5efe815d8016e3de54a3999e73b870000000000000000266a24aa21a9ede2f61c3f71d1defd3fa999dfa36953755c690689799962b48bebd836974e8cf90120000000000000000000000000000000000000000000000000000000000000000000000000",
      "blockhash": "ff6d5cf4daa6335171d2945655a66026345b1a2fb68693125fc2b221dd7150c5",
      "confirmations": 133,
      "time": 1628762047,
      "blocktime": 1628762047
    }
  ]
}