{
  "txid": "84d2bb7a3db72d991f243fa7934ab71b35359c4c3662e2f2f569cb9688548779",
  "hash": "3862efbe421a10e6092d2446d64961b57205d4a0d1339176a910ab2cc1fcf8bc",
  "version": 2,
  "size": 249,
  "vsize": 168,
  "weight": 669,
  "locktime": 300,
  "vin": [
    {
      "txid": "95fa5655a7d6896b9a39510fb6b11a8eb89829cf9a9927c74487f76e7c749659",
      "vout": 0,
      "scriptSig": {
        "asm": "00147b725c97ad3d97f956c0f892a3fcb5ba826834ea",
        "hex": "1600147b725c97ad3d97f956c0f892a3fcb5ba826834ea"
      },
      "txinwitness": [
        "30440220025b2e3fdc232365c073a2af323d0e0d7bf6a8fce99c0ca1578be033ccf70b6d02200433c3676c362b2bdc03fa77756095c8b45b6ce9481d4dde6c820f4569b778db01",
        "03ee9b52797564294d6ec2fe9089a7f749057c539b5fedf759d182eb8976f88226"
      ],
      "sequence": 4294967294
    }
  ],
  "vout": [
    {
      "value": 23.999664,
      "n": 0,
      "scriptPubKey": {
        "asm": "OP_HASH160 2db48433ee8bbeb70e8a2095f6255eb3a97c9c3d OP_EQUAL",
        "hex": "a9142db48433ee8bbeb70e8a2095f6255eb3a97c9c3d87",
        "reqSigs": 1,
        "type": "scripthash",
        "addresses": [
          "QQmemRzuYv7PzMPcdsWM2dKeSKzGFHcLMp"
        ]
      }
    },
    {
      "value": 1,
      "n": 1,
      "scriptPubKey": {
        "asm": "OP_DUP OP_HASH160 d2eb140d8b7006e7b862827043f9cddd50da9811 OP_EQUALVERIFY OP_CHECKSIG",
        "hex": "76a914d2eb140d8b7006e7b862827043f9cddd50da981188ac",
        "reqSigs": 1,
        "type": "pubkeyhash",
        "addresses": [
          "mzkBosFeajZ5KxXp4rPNA8maqoKUFiR7nY"
        ]
      }
    }
  ],
  "hex": "020000000001015996747c6ef78744c727999acf2998b88e1ab1b60f51399a6b89d6a75556fa9500000000171600147b725c97ad3d97f956c0f892a3fcb5ba826834eafeffffff02c0940c8f0000000017a9142db48433ee8bbeb70e8a2095f6255eb3a97c9c3d8700e1f505000000001976a914d2eb140d8b7006e7b862827043f9cddd50da981188ac024730440220025b2e3fdc232365c073a2af323d0e0d7bf6a8fce99c0ca1578be033ccf70b6d02200433c3676c362b2bdc03fa77756095c8b45b6ce9481d4dde6c820f4569b778db012103ee9b52797564294d6ec2fe9089a7f749057c539b5fedf759d182eb8976f882262c010000"
}