{
  "transaction": {
    "txid": "02a3a2ee8704ba02c2fb45dd5cf1d236b04f14338a7939826d65612ae5572c3a",
    "hash": "7a35e9c982263657d55e23ad52d0e303993474b03c31414391ed241969ea64c8",
    "version": 2,
    "size": 247,
    "vsize": 166,
    "weight": 661,
    "locktime": 300,
    "vin": [
      {
        "txid": "ad134e3cf2779822eb9e7fe4f741716c6f51c1ee860cf0903b87cab53cecd173",
        "vout": 0,
        "scriptSig": {
          "asm": "001459428eda56834de4e2a175c26ee01eea183640cf",
          "hex": "16001459428eda56834de4e2a175c26ee01eea183640cf"
        },
        "txinwitness": [
          "304402200160505b6884d47e61489dfddd68bd4616c21a06e686f980a93905c012270fb102200617004a542ec6bb343073b1381fd23815407cc108a8bbf291499b1db01321e101",
          "027719ae154f48dad5410eb429820e72ed1fc02da88a6e827533df4712ad91431c"
        ],
        "sequence": 4294967294
      }
    ],
    "vout": [
      {
        "value": 23.999668,
        "n": 0,
        "scriptPubKey": {
          "asm": "OP_HASH160 c0773515741c9716fe1adfa99b7fc924b727ae00 OP_EQUAL",
          "hex": "a914c0773515741c9716fe1adfa99b7fc924b727ae0087",
          "reqSigs": 1,
          "type": "scripthash",
          "addresses": [
            "Qe9eeoWuJoWaNkY9a1dx17Zpf8w2Q2vnCE"
          ]
        }
      },
      {
        "value": 1,
        "n": 1,
        "scriptPubKey": {
          "asm": "OP_HASH160 fe5cc5d87e3348a5f3eaa316898a0f05d520876e OP_EQUAL",
          "hex": "a914fe5cc5d87e3348a5f3eaa316898a0f05d520876e87",
          "reqSigs": 1,
          "type": "scripthash",
          "addresses": [
            "QjnvszZxXTcUm3RmZseSbMaiZ5GhayV8j4"
          ]
        }
      }
    ],
    "hex": "0200000000010173d1ec3cb5ca873b90f00c86eec1516f6c7141f7e47f9eeb229877f23c4e13ad000000001716001459428eda56834de4e2a175c26ee01eea183640cffeffffff0250960c8f0000000017a914c0773515741c9716fe1adfa99b7fc924b727ae008700e1f5050000000017a914fe5cc5d87e3348a5f3eaa316898a0f05d520876e870247304402200160505b6884d47e61489dfddd68bd4616c21a06e686f980a93905c012270fb102200617004a542ec6bb343073b1381fd23815407cc108a8bbf291499b1db01321e10121027719ae154f48dad5410eb429820e72ed1fc02da88a6e827533df4712ad91431c2c010000"
  },
  "inputs": [
    {
      "txid": "ad134e3cf2779822eb9e7fe4f741716c6f51c1ee860cf0903b87cab53cecd173",
      "hash": "a9648b59402ab31415c2f836bf68138de4899a5a8ebee58e55f393f132b844f4",
      "version": 2,
      "size": 171,
      "vsize": 144,
      "weight": 576,
      "locktime": 0,
      "vin": [
        {
          "coinbase": "02aa000101",
          "sequence": 4294967295
        }
      ],
      "vout": [
        {
          "value": 25,
          "n": 0,
          "scriptPubKey": {
            "asm": "OP_HASH160 18126dbeef299a405113fda7c493798dd905f4e2 OP_EQUAL",
            "hex": "a91418126dbeef299a405113fda7c493798dd905f4e287",
            "reqSigs": 1,
            "type": "scripthash",
            "addresses": [
              "QNoGQMJvNHYUubKzugLzB37nWUv9ukUDyd"
            ]
          }
        },
        {
          "value": 0,
          "n": 1,
          "scriptPubKey": {
            "asm": "OP_RETURN aa21a9ede2f61c3f71d1defd3fa999dfa36953755c690689799962b48bebd836974e8cf9",
            "hex": "6a24aa21a9ede2f61c3f71d1defd3fa999dfa36953755c690689799962b48bebd836974e8cf9",
            "type": "nulldata"
          }
        }
      ],
      "hex": "020000000001010000000000000000000000000000000000000000000000000000000000000000ffffffff0502aa000101ffffffff0200f902950000000017a91418126dbeef299a405113fda7c493798dd905f4e2870000000000000000266a24aa21a9ede2f61c3f71d1defd3fa999dfa36953755c690689799962b48bebd836974e8cf90120000000000000000000000000000000000000000000000000000000000000000000000000",
      "blockhash": "c1510f5d8bab3d86c56a8806ca960ac96e9b3aeda558520350f8d8ffdd70bc85",
      "confirmations": 131,
      "time": 1635930580,
      "blocktime": 1635930580
    }
  ]
}