{
  "transaction": {
    "txid": "8cd1ad39d106d997dcdcf9a937335a6ee4935b590953ece8683672f2d40cfeb5",
    "hash": "888f3f24b7167ec03bf350db0a94cbcb3e133e529a1c823c70cdee0b1f8bf81f",
    "version": 2,
    "size": 245,
    "vsize": 164,
    "weight": 653,
    "locktime": 300,
    "vin": [
      {
        "txid": "0cfa84262c6f40b0438b436e9f8c14804513e65ecf486c351d1ca39e1e637a6d",
        "vout": 0,
        "scriptSig": {
          "asm": "0014c26fba2de312daae02f280b3b6c753a6bb6dd8c5",
          "hex": "160014c26fba2de312daae02f280b3b6c753a6bb6dd8c5"
        },
        "txinwitness": [
          "3044022052b490fb6030af3cd5567e861dbfad3f92925616ce4cb3f39c9ef4eb952281fa02205b75c4d204d0af54416845854823291954b8de64660f4a3c37edc31c488978a001",
          "029eb510705a8771dac819d317844bf5b1d52160182083ec85dd37c80e5e841913"
        ],
        "sequence": 4294967294
      }
    ],
    "vout": [
      {
        "value": 1,
        "n": 0,
        "scriptPubKey": {
          "asm": "0 d2eb140d8b7006e7b862827043f9cddd50da9811",
          "hex": "0014d2eb140d8b7006e7b862827043f9cddd50da9811",
          "reqSigs": 1,
          "type": "witness_v0_keyhash",
          "addresses": [
            "rltc1q6t43grvtwqrw0wrzsfcy87wdm4gd4xq32246p5"
          ]
        }
      },
      {
        "value": 23.999672,
        "n": 1,
        "scriptPubKey": {
          "asm": "0 de7b5b62eab8c1d045c390250fd38771ba05cd18",
          "hex": "0014de7b5b62eab8c1d045c390250fd38771ba05cd18",
          "reqSigs": 1,
          "type": "witness_v0_keyhash",
          "addresses": [
            "rltc1qmea4kch2hrqaq3wrjqjsl5u8wxaqtngc506jhp"
          ]
        }
      }
    ],
    "hex": "020000000001016d7a631e9ea31c1d356c48cf5ee6134580148c9f6e438b43b0406f2c2684fa0c0000000017160014c26fba2de312daae02f280b3b6c753a6bb6dd8c5feffffff0200e1f50500000000160014d2eb140d8b7006e7b862827043f9cddd50da9811e0970c8f00000000160014de7b5b62eab8c1d045c390250fd38771ba05cd1802473044022052b490fb6030af3cd5567e861dbfad3f92925616ce4cb3f39c9ef4eb952281fa02205b75c4d204d0af54416845854823291954b8de64660f4a3c37edc31c488978a00121029eb510705a8771dac819d317844bf5b1d52160182083ec85dd37c80e5e8419132c010000"
  },
  "inputs": [
    {
      "txid": "0cfa84262c6f40b0438b436e9f8c14804513e65ecf486c351d1ca39e1e637a6d",
      "hash": "f26e17ab6fb419b7048d6f0808337c9e0a65da7df1b5d61b5eac69eaeba66150",
      "version": 2,
      "size": 171,
      "vsize": 144,
      "weight": 576,
      "locktime": 0,
      "vin": [
        {
          "coinbase": "029a000101",
          "sequence": 4294967295
        }
      ],
      "vout": [
        {
          "value": 25,
          "n": 0,
          "scriptPubKey": {
            "asm": "OP_HASH160 27266cd4267ff5efe815d8016e3de54a3999e73b OP_EQUAL",
            "hex": "a91427266cd4267ff5efe815d8016e3de54a3999e73b87",
            "reqSigs": 1,
            "type": "scripthash",
            "addresses": [
              "QQAzVbygGcMZj85Q9HvuiTXQhcG2ZYkZ7w"
            ]
          }
        },
        {
          "value": 0,
          "n": 1,
          "scriptPubKey": {
            "asm": "OP_RETURN aa21a9ede2f61c3f71d1defd3fa999dfa36953755c690689799962b48bebd836974e8cf9",
            "hex": "6a24aa21a9ede2f61c3f71d1defd3fa999dfa36953755c690689799962b48bebd836974e8cf9",
            "type": "nulldata"
          }
        }
      ],
      "hex": "020000000001010000000000000000000000000000000000000000000000000000000000000000ffffffff05029a000101ffffffff0200f902950000000017a91427266cd4267ff5efe815d8016e3de54a3999e73b870000000000000000266a24aa21a9ede2f61c3f71d1defd3fa999dfa36953755c690689799962b48bebd836974e8cf90120000000000000000000000000000000000000000000000000000000000000000000000000",
      "blockhash": "e03de9cad4d65a6b8623cfa7c656aea58275b8a459ab2ea1ca4d299383df2113",
      "confirmations": 147,
      "time": 1628762045,
      "blocktime": 1628762045
    }
  ]
}