{
  "transaction": {
    "txid": "b98611b80dab89db9e71ef900ce2fb0a806311375a0003bd1c31a99012e68cab",
    "hash": "3b4053944f8950177bc6c7d1d9000543f9cabc0881cf1410f199fc85ceb73ff7",
    "version": 2,
    "size": 249,
    "vsize": 168,
    "weight": 669,
    "locktime": 300,
    "vin": [
      {
        "txid": "4f17e9c13b23e9ca75e7eb1c5d0e84729a4e9ec78738c692a4b41bb6fa1f290c",
        "vout": 0,
        "scriptSig": {
          "asm": "0014c26fba2de312daae02f280b3b6c753a6bb6dd8c5",
          "hex": "160014c26fba2de312daae02f280b3b6c753a6bb6dd8c5"
        },
        "txinwitness": [
          "304402206bd9559c888839097c5fe313b813ba58b04510bfd2fdad3094fb4323afe43a2f0220566096328102c83e93f4bfa368ff4e5a20e160044df1e429a2b6153828541b5501",
          "029eb510705a8771dac819d317844bf5b1d52160182083ec85dd37c80e5e841913"
        ],
        "sequence": 4294967294
      }
    ],
    "vout": [
      {
        "value": 1,
        "n": 0,
        "scriptPubKey": {
          "asm": "OP_DUP OP_HASH160 d2eb140d8b7006e7b862827043f9cddd50da9811 OP_EQUALVERIFY OP_CHECKSIG",
          "hex": "76a914d2eb140d8b7006e7b862827043f9cddd50da981188ac",
          "reqSigs": 1,
          "type": "pubkeyhash",
          "addresses": [
            "mzkBosFeajZ5KxXp4rPNA8maqoKUFiR7nY"
          ]
        }
      },
      {
        "value": 23.999664,
        "n": 1,
        "scriptPubKey": {
          "asm": "OP_HASH160 a0c8b85901906287784b258a0e6f3f8455603fc6 OP_EQUAL",
          "hex": "a914a0c8b85901906287784b258a0e6f3f8455603fc687",
          "reqSigs": 1,
          "type": "scripthash",
          "addresses": [
            "QbG8gGaPNmU4StTR7rnLT8R2cziAs3NW4h"
          ]
        }
      }
    ],
    "hex": "020000000001010c291ffab61bb4a492c63887c79e4e9a72840e5d1cebe775cae9233bc1e9174f0000000017160014c26fba2de312daae02f280b3b6c753a6bb6dd8c5feffffff0200e1f505000000001976a914d2eb140d8b7006e7b862827043f9cddd50da981188acc0940c8f0000000017a914a0c8b85901906287784b258a0e6f3f8455603fc6870247304402206bd9559c888839097c5fe313b813ba58b04510bfd2fdad3094fb4323afe43a2f0220566096328102c83e93f4bfa368ff4e5a20e160044df1e429a2b6153828541b550121029eb510705a8771dac819d317844bf5b1d52160182083ec85dd37c80e5e8419132c010000"
  },
  "inputs": [
    {
      "txid": "4f17e9c13b23e9ca75e7eb1c5d0e84729a4e9ec78738c692a4b41bb6fa1f290c",
      "hash": "039421ef01e4faf5dc44e98573cca2d177777b871eef60cd96721a6665d06182",
      "version": 2,
      "size": 171,
      "vsize": 144,
      "weight": 576,
      "locktime": 0,
      "vin": [
        {
          "coinbase": "02bd000101",
          "sequence": 4294967295
        }
      ],
      "vout": [
        {
          "value": 25,
          "n": 0,
          "scriptPubKey": {
            "asm": "OP_HASH160 27266cd4267ff5efe815d8016e3de54a3999e73b OP_EQUAL",
            "hex": "a91427266cd4267ff5efe815d8016e3de54a3999e73b87",
            "reqSigs": 1,
            "type": "scripthash",
            "addresses": [
              "QQAzVbygGcMZj85Q9HvuiTXQhcG2ZYkZ7w"
            ]
          }
        },
        {
          "value": 0,
          "n": 1,
          "scriptPubKey": {
            "asm": "OP_RETURN aa21a9ede2f61c3f71d1defd3fa999dfa36953755c690689799962b48bebd836974e8cf9",
            "hex": "6a24aa21a9ede2f61c3f71d1defd3fa999dfa36953755c690689799962b48bebd836974e8cf9",
            "type": "nulldata"
          }
        }
      ],
      "hex": "020000000001010000000000000000000000000000000000000000000000000000000000000000ffffffff0502bd000101ffffffff0200f902950000000017a91427266cd4267ff5efe815d8016e3de54a3999e73b870000000000000000266a24aa21a9ede2f61c3f71d1defd3fa999dfa36953755c690689799962b48bebd836974e8cf90120000000000000000000000000000000000000000000000000000000000000000000000000",
      "blockhash": "cb5ca7c888d2c7826b67b068566795d18e9be88230451fb2ac779321792887ff",
      "confirmations": 112,
      "time": 1628762051,
      "blocktime": 1628762051
    }
  ]
}