{
  "transaction": {
    "txid": "deca1780c5fca4d6bc9d81cb169037bab0cb6016fe03d96ad6d6f7e4bca37a75",
    "hash": "7b6049556f8a7db027bfa879346c4841db7092b39b236f02318e0d4d1f582304",
    "version": 2,
    "size": 247,
    "vsize": 166,
    "weight": 661,
    "locktime": 300,
    "vin": [
      {
        "txid": "fccf807b9a522f19373e83e764e05dea56803bbe046cfe19a62b7c75652bb17c",
        "vout": 0,
        "scriptSig": {
          "asm": "0014c26fba2de312daae02f280b3b6c753a6bb6dd8c5",
          "hex": "160014c26fba2de312daae02f280b3b6c753a6bb6dd8c5"
        },
        "txinwitness": [
          "3044022012915199a1a851a3d269180cf41b4ca9f0d6ff09bf46cb5e1e08585b7262422902201783dfcfe39ad116608987442cc1a53103f1e7fca90d03111c332d5bd08012be01",
          "029eb510705a8771dac819d317844bf5b1d52160182083ec85dd37c80e5e841913"
        ],
        "sequence": 4294967294
      }
    ],
    "vout": [
      {
        "value": 23.999668,
        "n": 0,
        "scriptPubKey": {
          "asm": "OP_HASH160 c28dd6206616d38aef7f72107e649f6573a5d204 OP_EQUAL",
          "hex": "a914c28dd6206616d38aef7f72107e649f6573a5d20487",
          "reqSigs": 1,
          "type": "scripthash",
          "addresses": [
            "QeLh7UurFCbTMYfNwV43vds7dDevqw53Xu"
          ]
        }
      },
      {
        "value": 1,
        "n": 1,
        "scriptPubKey": {
          "asm": "OP_HASH160 fe5cc5d87e3348a5f3eaa316898a0f05d520876e OP_EQUAL",
          "hex": "a914fe5cc5d87e3348a5f3eaa316898a0f05d520876e87",
          "reqSigs": 1,
          "type": "scripthash",
          "addresses": [
            "QjnvszZxXTcUm3RmZseSbMaiZ5GhayV8j4"
          ]
        }
      }
    ],
    "hex": "020000000001017cb12b65757c2ba619fe6c04be3b8056ea5de064e7833e37192f529a7b80cffc0000000017160014c26fba2de312daae02f280b3b6c753a6bb6dd8c5feffffff0250960c8f0000000017a914c28dd6206616d38aef7f72107e649f6573a5d2048700e1f5050000000017a914fe5cc5d87e3348a5f3eaa316898a0f05d520876e8702473044022012915199a1a851a3d269180cf41b4ca9f0d6ff09bf46cb5e1e08585b7262422902201783dfcfe39ad116608987442cc1a53103f1e7fca90d03111c332d5bd08012be0121029eb510705a8771dac819d317844bf5b1d52160182083ec85dd37c80e5e8419132c010000"
  },
  "inputs": [
    {
      "txid": "fccf807b9a522f19373e83e764e05dea56803bbe046cfe19a62b7c75652bb17c",
      "hash": "e6146c011667a5f7023e8809a57e130668f9a34cc92fd54ff5d2bfa1dd4d7d54",
      "version": 2,
      "size": 171,
      "vsize": 144,
      "weight": 576,
      "locktime": 0,
      "vin": [
        {
          "coinbase": "02ab000101",
          "sequence": 4294967295
        }
      ],
      "vout": [
        {
          "value": 25,
          "n": 0,
          "scriptPubKey": {
            "asm": "OP_HASH160 27266cd4267ff5efe815d8016e3de54a3999e73b OP_EQUAL",
            "hex": "a91427266cd4267ff5efe815d8016e3de54a3999e73b87",
            "reqSigs": 1,
            "type": "scripthash",
            "addresses": [
              "QQAzVbygGcMZj85Q9HvuiTXQhcG2ZYkZ7w"
            ]
          }
        },
        {
          "value": 0,
          "n": 1,
          "scriptPubKey": {
            "asm": "OP_RETURN aa21a9ede2f61c3f71d1defd3fa999dfa36953755c690689799962b48bebd836974e8cf9",
            "hex": "6a24aa21a9ede2f61c3f71d1defd3fa999dfa36953755c690689799962b48bebd836974e8cf9",
            "type": "nulldata"
          }
        }
      ],
      "hex": "020000000001010000000000000000000000000000000000000000000000000000000000000000ffffffff0502ab000101ffffffff0200f902950000000017a91427266cd4267ff5efe815d8016e3de54a3999e73b870000000000000000266a24aa21a9ede2f61c3f71d1defd3fa999dfa36953755c690689799962b48bebd836974e8cf90120000000000000000000000000000000000000000000000000000000000000000000000000",
      "blockhash": "54787484ec3582154dad0d5ec5e2a93031e40874ec532fb6a18ca099e7846abd",
      "confirmations": 130,
      "time": 1628762048,
      "blocktime": 1628762048
    }
  ]
}