{
  "transaction": {
    "txid": "683fba00f32eb7ab88bc12e221cdaea35ee88aeb7c83d103376a3b99c5581e38",
    "hash": "b456e400684d1c528a62facfd5e625a09b86408b4d2e13b8be1f942b34400852",
    "version": 2,
    "size": 249,
    "vsize": 168,
    "weight": 669,
    "locktime": 300,
    "vin": [
      {
        "txid": "cf120c8b1c3371d6326b1143cd0537086a2067afe970964188a18bc02ad1748d",
        "vout": 0,
        "scriptSig": {
          "asm": "001459428eda56834de4e2a175c26ee01eea183640cf",
          "hex": "16001459428eda56834de4e2a175c26ee01eea183640cf"
        },
        "txinwitness": [
          "3044022014f6800b98f72f6d522c9212945ac27856499a47b40752c7a202f55bb5ab057202206acf6f8fb9f9148c265e75fc472bed8a2b1df2893e4b9097ed4589ee12831d1f01",
          "027719ae154f48dad5410eb429820e72ed1fc02da88a6e827533df4712ad91431c"
        ],
        "sequence": 4294967294
      }
    ],
    "vout": [
      {
        "value": 23.999664,
        "n": 0,
        "scriptPubKey": {
          "asm": "OP_HASH160 d14326d69fd26324480dead11642ae070af51a6d OP_EQUAL",
          "hex": "a914d14326d69fd26324480dead11642ae070af51a6d87",
          "reqSigs": 1,
          "type": "scripthash",
          "addresses": [
            "QfgTnB4L39tKbAKrKyC6V2pELomWtwQg5K"
          ]
        }
      },
      {
        "value": 1,
        "n": 1,
        "scriptPubKey": {
          "asm": "OP_DUP OP_HASH160 d2eb140d8b7006e7b862827043f9cddd50da9811 OP_EQUALVERIFY OP_CHECKSIG",
          "hex": "76a914d2eb140d8b7006e7b862827043f9cddd50da981188ac",
          "reqSigs": 1,
          "type": "pubkeyhash",
          "addresses": [
            "mzkBosFeajZ5KxXp4rPNA8maqoKUFiR7nY"
          ]
        }
      }
    ],
    "hex": "020000000001018d74d12ac08ba188419670e9af67206a083705cd43116b32d671331c8b0c12cf000000001716001459428eda56834de4e2a175c26ee01eea183640cffeffffff02c0940c8f0000000017a914d14326d69fd26324480dead11642ae070af51a6d8700e1f505000000001976a914d2eb140d8b7006e7b862827043f9cddd50da981188ac02473044022014f6800b98f72f6d522c9212945ac27856499a47b40752c7a202f55bb5ab057202206acf6f8fb9f9148c265e75fc472bed8a2b1df2893e4b9097ed4589ee12831d1f0121027719ae154f48dad5410eb429820e72ed1fc02da88a6e827533df4712ad91431c2c010000"
  },
  "inputs": [
    {
      "txid": "cf120c8b1c3371d6326b1143cd0537086a2067afe970964188a18bc02ad1748d",
      "hash": "9d312431c933fb18ad1998df2032a9e9934e4c19c522735c3deb029766814253",
      "version": 2,
      "size": 171,
      "vsize": 144,
      "weight": 576,
      "locktime": 0,
      "vin": [
        {
          "coinbase": "02a1000101",
          "sequence": 4294967295
        }
      ],
      "vout": [
        {
          "value": 25,
          "n": 0,
          "scriptPubKey": {
            "asm": "OP_HASH160 18126dbeef299a405113fda7c493798dd905f4e2 OP_EQUAL",
            "hex": "a91418126dbeef299a405113fda7c493798dd905f4e287",
            "reqSigs": 1,
            "type": "scripthash",
            "addresses": [
              "QNoGQMJvNHYUubKzugLzB37nWUv9ukUDyd"
            ]
          }
        },
        {
          "value": 0,
          "n": 1,
          "scriptPubKey": {
            "asm": "OP_RETURN aa21a9ede2f61c3f71d1defd3fa999dfa36953755c690689799962b48bebd836974e8cf9",
            "hex": "6a24aa21a9ede2f61c3f71d1defd3fa999dfa36953755c690689799962b48bebd836974e8cf9",
            "type": "nulldata"
          }
        }
      ],
      "hex": "020000000001010000000000000000000000000000000000000000000000000000000000000000ffffffff0502a1000101ffffffff0200f902950000000017a91418126dbeef299a405113fda7c493798dd905f4e2870000000000000000266a24aa21a9ede2f61c3f71d1defd3fa999dfa36953755c690689799962b48bebd836974e8cf90120000000000000000000000000000000000000000000000000000000000000000000000000",
      "blockhash": "fbfb1b2baf1bed78dd0dc4c262bc10a37b4d6c457c270cafe01b10955d10595c",
      "confirmations": 140,
      "time": 1635930578,
      "blocktime": 1635930578
    }
  ]
}