{
  "txid": "d2a25b487410956ee36be3485d2a70efbf4b12b4f25aaa28cdcf6444672a286f",
  "hash": "849dfe07de4ade31324792a0e5052e58e839cc32afeee94c36ee7ed8c42aba65",
  "version": 2,
  "size": 247,
  "vsize": 166,
  "weight": 661,
  "locktime": 300,
  "vin": [
    {
      "txid": "420af8c48ca478419ca245f19cfb2169aa2afa7bd844d4fc24176ffa54f6a703",
      "vout": 0,
      "scriptSig": {
        "asm": "00147b725c97ad3d97f956c0f892a3fcb5ba826834ea",
        "hex": "1600147b725c97ad3d97f956c0f892a3fcb5ba826834ea"
      },
      "txinwitness": [
        "30440220139f6947d5fad6597ce7036594621009b09acaaaa716fb8f1352e19bd8302eaf02201a0128917cb59c4cbcc73c72d5f64e641d7456f75ac83db8e3e82a6dd0e260cc01",
        "03ee9b52797564294d6ec2fe9089a7f749057c539b5fedf759d182eb8976f88226"
      ],
      "sequence": 4294967294
    }
  ],
  "vout": [
    {
      "value": 23.999668,
      "n": 0,
      "scriptPubKey": {
        "asm": "OP_HASH160 e5d31bae5e618f98d2b2af5a05b54d51cf7012f8 OP_EQUAL",
        "hex": "a914e5d31bae5e618f98d2b2af5a05b54d51cf7012f887",
        "reqSigs": 1,
        "type": "scripthash",
        "addresses": [
          "QhZBkH5ZBjWiMKZjmDV7uYE57Ek5A3jiDQ"
        ]
      }
    },
    {
      "value": 1,
      "n": 1,
      "scriptPubKey": {
        "asm": "OP_HASH160 fe5cc5d87e3348a5f3eaa316898a0f05d520876e OP_EQUAL",
        "hex": "a914fe5cc5d87e3348a5f3eaa316898a0f05d520876e87",
        "reqSigs": 1,
        "type": "scripthash",
        "addresses": [
          "QjnvszZxXTcUm3RmZseSbMaiZ5GhayV8j4"
        ]
      }
    }
  ],
  "hex": "0200000000010103a7f654fa6f1724fcd444d87bfa2aaa6921fb9cf145a29c4178a48cc4f80a4200000000171600147b725c97ad3d97f956c0f892a3fcb5ba826834eafeffffff0250960c8f0000000017a914e5d31bae5e618f98d2b2af5a05b54d51cf7012f88700e1f5050000000017a914fe5cc5d87e3348a5f3eaa316898a0f05d520876e87024730440220139f6947d5fad6597ce7036594621009b09acaaaa716fb8f1352e19bd8302eaf02201a0128917cb59c4cbcc73c72d5f64e641d7456f75ac83db8e3e82a6dd0e260cc012103ee9b52797564294d6ec2fe9089a7f749057c539b5fedf759d182eb8976f882262c010000"
}