{
  "txid": "f905ff4d4b1a4e073e2a04371392ba49030370587f9e8bcbc91be8937ec9df51",
  "hash": "e581a2d72b699ec44b824beac0fa3aaa36cc1dfab493f67c68380c698f89770c",
  "version": 2,
  "size": 247,
  "vsize": 166,
  "weight": 661,
  "locktime": 300,
  "vin": [
    {
      "txid": "1affbb5c027dd02906d5b0c804ea740809c7f074f662218b9c4cc0627a305ba9",
      "vout": 0,
      "scriptSig": {
        "asm": "00147b725c97ad3d97f956c0f892a3fcb5ba826834ea",
        "hex": "1600147b725c97ad3d97f956c0f892a3fcb5ba826834ea"
      },
      "txinwitness": [
        "30440220676f6f96836e15816ee1d25860ef1ede6f82a9f932c8faeac18f830f077c24cb0220221016bbcd1d78b6d68ff6ce1173e4d35090647bb855292d7964f1ecedafe67901",
        "03ee9b52797564294d6ec2fe9089a7f749057c539b5fedf759d182eb8976f88226"
      ],
      "sequence": 4294967294
    }
  ],
  "vout": [
    {
      "value": 1,
      "n": 0,
      "scriptPubKey": {
        "asm": "OP_HASH160 2280193aca8462021ec369d4e2ff1c95741fba7f OP_EQUAL",
        "hex": "a9142280193aca8462021ec369d4e2ff1c95741fba7f87",
        "reqSigs": 1,
        "type": "scripthash",
        "addresses": [
          "QPkQYGJWZQtEKiZXemzsSWkB1wo6o6yGyu"
        ]
      }
    },
    {
      "value": 23.999668,
      "n": 1,
      "scriptPubKey": {
        "asm": "OP_HASH160 a222c0ef0740a01e3f8c3446f9498e8e852c7357 OP_EQUAL",
        "hex": "a914a222c0ef0740a01e3f8c3446f9498e8e852c735787",
        "reqSigs": 1,
        "type": "scripthash",
        "addresses": [
          "QbPHD6pZW21tHcFJ6jT1EGBK9eyoGyDGLB"
        ]
      }
    }
  ],
  "hex": "02000000000101a95b307a62c04c9c8b2162f674f0c7090874ea04c8b0d50629d07d025cbbff1a00000000171600147b725c97ad3d97f956c0f892a3fcb5ba826834eafeffffff0200e1f5050000000017a9142280193aca8462021ec369d4e2ff1c95741fba7f8750960c8f0000000017a914a222c0ef0740a01e3f8c3446f9498e8e852c735787024730440220676f6f96836e15816ee1d25860ef1ede6f82a9f932c8faeac18f830f077c24cb0220221016bbcd1d78b6d68ff6ce1173e4d35090647bb855292d7964f1ecedafe679012103ee9b52797564294d6ec2fe9089a7f749057c539b5fedf759d182eb8976f882262c010000"
}