{
  "transaction": {
    "txid": "b85f31816628ea0ab5aca7739a80c683c2da81d25d2f960d61ca21b4fd9c76a2",
    "hash": "3e380e974bc8b273989a0e57be53312cb24856dbe51d64f1ba8bf0ca38ae1f30",
    "version": 2,
    "size": 257,
    "vsize": 176,
    "weight": 701,
    "locktime": 285,
    "vin": [
      {
        "txid": "45ac44c9f0d8d3e6558d7f3e895808c742963acc170f7e5d7858a3af4e7d18c6",
        "vout": 0,
        "scriptSig": {
          "asm": "0014c26fba2de312daae02f280b3b6c753a6bb6dd8c5",
          "hex": "160014c26fba2de312daae02f280b3b6c753a6bb6dd8c5"
        },
        "txinwitness": [
          "30440220496cb10c2d5e302c7c5c307ef01f2884e8af5a5ea5740ae34c2f698800effc920220340cd2bda7b4abcbcddb885f1110579791ef80724f6fa7168fb49875438ffb8f01",
          "029eb510705a8771dac819d317844bf5b1d52160182083ec85dd37c80e5e841913"
        ],
        "sequence": 4294967294
      }
    ],
    "vout": [
      {
        "value": 1,
        "n": 0,
        "scriptPubKey": {
          "asm": "0 1553f31a3e25e770b7bc857b82909e83734dbfe4bcdb5a5e6fc419b6920c398a",
          "hex": "00201553f31a3e25e770b7bc857b82909e83734dbfe4bcdb5a5e6fc419b6920c398a",
          "reqSigs": 1,
          "type": "witness_v0_scripthash",
          "addresses": [
            "rltc1qz4flxx37yhnhpdaus4ac9yy7sde5m0lyhnd45hn0csvmdysv8x9qtazavf"
          ]
        }
      },
      {
        "value": 23.999648,
        "n": 1,
        "scriptPubKey": {
          "asm": "0 3ad80e58ab7a8f4d1886191fda7d8f68bacba88e",
          "hex": "00143ad80e58ab7a8f4d1886191fda7d8f68bacba88e",
          "reqSigs": 1,
          "type": "witness_v0_keyhash",
          "addresses": [
            "rltc1q8tvquk9t02856xyxry0a5lv0dzavh2yw445pph"
          ]
        }
      }
    ],
    "hex": "02000000000101c6187d4eafa358785d7e0f17cc3a9642c70858893e7f8d55e6d3d8f0c944ac450000000017160014c26fba2de312daae02f280b3b6c753a6bb6dd8c5feffffff0200e1f505000000002200201553f31a3e25e770b7bc857b82909e83734dbfe4bcdb5a5e6fc419b6920c398a808e0c8f000000001600143ad80e58ab7a8f4d1886191fda7d8f68bacba88e024730440220496cb10c2d5e302c7c5c307ef01f2884e8af5a5ea5740ae34c2f698800effc920220340cd2bda7b4abcbcddb885f1110579791ef80724f6fa7168fb49875438ffb8f0121029eb510705a8771dac819d317844bf5b1d52160182083ec85dd37c80e5e8419131d010000"
  },
  "inputs": [
    {
      "txid": "45ac44c9f0d8d3e6558d7f3e895808c742963acc170f7e5d7858a3af4e7d18c6",
      "hash": "803a002e4ea59539d8885bd593125d35b732b0e8b22bab2385704417fb899332",
      "version": 2,
      "size": 171,
      "vsize": 144,
      "weight": 576,
      "locktime": 0,
      "vin": [
        {
          "coinbase": "02a7000101",
          "sequence": 4294967295
        }
      ],
      "vout": [
        {
          "value": 25,
          "n": 0,
          "scriptPubKey": {
            "asm": "OP_HASH160 27266cd4267ff5efe815d8016e3de54a3999e73b OP_EQUAL",
            "hex": "a91427266cd4267ff5efe815d8016e3de54a3999e73b87",
            "reqSigs": 1,
            "type": "scripthash",
            "addresses": [
              "QQAzVbygGcMZj85Q9HvuiTXQhcG2ZYkZ7w"
            ]
          }
        },
        {
          "value": 0,
          "n": 1,
          "scriptPubKey": {
            "asm": "OP_RETURN aa21a9ede2f61c3f71d1defd3fa999dfa36953755c690689799962b48bebd836974e8cf9",
            "hex": "6a24aa21a9ede2f61c3f71d1defd3fa999dfa36953755c690689799962b48bebd836974e8cf9",
            "type": "nulldata"
          }
        }
      ],
      "hex": "020000000001010000000000000000000000000000000000000000000000000000000000000000ffffffff0502a7000101ffffffff0200f902950000000017a91427266cd4267ff5efe815d8016e3de54a3999e73b870000000000000000266a24aa21a9ede2f61c3f71d1defd3fa999dfa36953755c690689799962b48bebd836974e8cf90120000000000000000000000000000000000000000000000000000000000000000000000000",
      "blockhash": "97f917c984e5d632ef0008dae6cb258a5e84111a52abf392a012e3c81c071dd5",
      "confirmations": 134,
      "time": 1628762047,
      "blocktime": 1628762047
    }
  ]
}