{
  "transaction": {
    "txid": "64b46c6e4c2a15f5736e5f8ccacb695e7159125ac8dc4526dee116767c5cca8a",
    "hash": "bd58b41ca94001af0378a731fd6516a887b763defbdd9f1270e12ad204a24218",
    "version": 2,
    "size": 247,
    "vsize": 166,
    "weight": 661,
    "locktime": 300,
    "vin": [
      {
        "txid": "7e57f4dc787466c06f7c3a0ad795e59bc788f749308badbe65bfefc196112b24",
        "vout": 0,
        "scriptSig": {
          "asm": "001459428eda56834de4e2a175c26ee01eea183640cf",
          "hex": "16001459428eda56834de4e2a175c26ee01eea183640cf"
        },
        "txinwitness": [
          "304402200efce50acb64edd22956b5751619ad77a1bdd093d618aab7a6cecd7e1e8fa6a0022046db173f02ae3cfe42b3b83c2c3e81e6a7537c258a8f165bd8129ff05e4c1f7d01",
          "027719ae154f48dad5410eb429820e72ed1fc02da88a6e827533df4712ad91431c"
        ],
        "sequence": 4294967294
      }
    ],
    "vout": [
      {
        "value": 23.999668,
        "n": 0,
        "scriptPubKey": {
          "asm": "OP_HASH160 1bc4f896d9077f65d8dba87512c83502dbe60be0 OP_EQUAL",
          "hex": "a9141bc4f896d9077f65d8dba87512c83502dbe60be087",
          "reqSigs": 1,
          "type": "scripthash",
          "addresses": [
            "QP8pKGS9Wtfzu3HrEpmJ6C4X7wziwh7Wwe"
          ]
        }
      },
      {
        "value": 1,
        "n": 1,
        "scriptPubKey": {
          "asm": "OP_HASH160 2280193aca8462021ec369d4e2ff1c95741fba7f OP_EQUAL",
          "hex": "a9142280193aca8462021ec369d4e2ff1c95741fba7f87",
          "reqSigs": 1,
          "type": "scripthash",
          "addresses": [
            "QPkQYGJWZQtEKiZXemzsSWkB1wo6o6yGyu"
          ]
        }
      }
    ],
    "hex": "02000000000101242b1196c1efbf65bead8b3049f788c79be595d70a3a7c6fc0667478dcf4577e000000001716001459428eda56834de4e2a175c26ee01eea183640cffeffffff0250960c8f0000000017a9141bc4f896d9077f65d8dba87512c83502dbe60be08700e1f5050000000017a9142280193aca8462021ec369d4e2ff1c95741fba7f870247304402200efce50acb64edd22956b5751619ad77a1bdd093d618aab7a6cecd7e1e8fa6a0022046db173f02ae3cfe42b3b83c2c3e81e6a7537c258a8f165bd8129ff05e4c1f7d0121027719ae154f48dad5410eb429820e72ed1fc02da88a6e827533df4712ad91431c2c010000"
  },
  "inputs": [
    {
      "txid": "7e57f4dc787466c06f7c3a0ad795e59bc788f749308badbe65bfefc196112b24",
      "hash": "f7f77e87bef5e36868fdd44f788a0f0bcac6d582013f01512f8fe856822ec500",
      "version": 2,
      "size": 171,
      "vsize": 144,
      "weight": 576,
      "locktime": 0,
      "vin": [
        {
          "coinbase": "02bd000101",
          "sequence": 4294967295
        }
      ],
      "vout": [
        {
          "value": 25,
          "n": 0,
          "scriptPubKey": {
            "asm": "OP_HASH160 18126dbeef299a405113fda7c493798dd905f4e2 OP_EQUAL",
            "hex": "a91418126dbeef299a405113fda7c493798dd905f4e287",
            "reqSigs": 1,
            "type": "scripthash",
            "addresses": [
              "QNoGQMJvNHYUubKzugLzB37nWUv9ukUDyd"
            ]
          }
        },
        {
          "value": 0,
          "n": 1,
          "scriptPubKey": {
            "asm": "OP_RETURN aa21a9ede2f61c3f71d1defd3fa999dfa36953755c690689799962b48bebd836974e8cf9",
            "hex": "6a24aa21a9ede2f61c3f71d1defd3fa999dfa36953755c690689799962b48bebd836974e8cf9",
            "type": "nulldata"
          }
        }
      ],
      "hex": "020000000001010000000000000000000000000000000000000000000000000000000000000000ffffffff0502bd000101ffffffff0200f902950000000017a91418126dbeef299a405113fda7c493798dd905f4e2870000000000000000266a24aa21a9ede2f61c3f71d1defd3fa999dfa36953755c690689799962b48bebd836974e8cf90120000000000000000000000000000000000000000000000000000000000000000000000000",
      "blockhash": "52c6620f7b41bde9c55a294190f1058daf7a7b641007726eb58ddd5fe2dad7ff",
      "confirmations": 112,
      "time": 1635930583,
      "blocktime": 1635930583
    }
  ]
}