{
  "transaction": {
    "txid": "06c1fda4b065386a46998055c41126984e0adf4c7832e6080dcb9ad5171c2f98",
    "hash": "06c1fda4b065386a46998055c41126984e0adf4c7832e6080dcb9ad5171c2f98",
    "version": 1,
    "size": 338,
    "vsize": 338,
    "weight": 1352,
    "locktime": 0,
    "vin": [
      {
        "txid": "02a3a2ee8704ba02c2fb45dd5cf1d236b04f14338a7939826d65612ae5572c3a",
        "vout": 1,
        "scriptSig": {
          "asm": "0 30440220039ba27e1364ea3e392cc61b346ac5b1b5ef92bd15f75465d7f4e5aaab0d23ee02204b36d436ef7c1ed1d02794acc75b224ac39390e0a60095514c320b558c368030[ALL] 3045022100da5a469021f65b5d395dafaca4503deea6a3425c3e4ca993d20a4dadfe52ebd7022031ff8429239c5d0a25ec5c32ccf2559267c8d5f422b699fb6aee31071ed618cd[ALL] 5221028fedaf75b5b08cddf3bf4631c658b68ee6766a8e999467a641d7cb7aaaecec972103316bc27d95b96418349afc6298c259bb999c6e8f39a7217787ad53602be7c1472102e21c29b4a7eeace9c7a8cefb568ca00c86ff9bf5e79e07e5442c29d4a0950d0453ae",
          "hex": "004730440220039ba27e1364ea3e392cc61b346ac5b1b5ef92bd15f75465d7f4e5aaab0d23ee02204b36d436ef7c1ed1d02794acc75b224ac39390e0a60095514c320b558c36803001483045022100da5a469021f65b5d395dafaca4503deea6a3425c3e4ca993d20a4dadfe52ebd7022031ff8429239c5d0a25ec5c32ccf2559267c8d5f422b699fb6aee31071ed618cd014c695221028fedaf75b5b08cddf3bf4631c658b68ee6766a8e999467a641d7cb7aaaecec972103316bc27d95b96418349afc6298c259bb999c6e8f39a7217787ad53602be7c1472102e21c29b4a7eeace9c7a8cefb568ca00c86ff9bf5e79e07e5442c29d4a0950d0453ae"
        },
        "sequence": 4294967295
      }
    ],
    "vout": [
      {
        "value": 0.99999,
        "n": 0,
        "scriptPubKey": {
          "asm": "OP_HASH160 fe5cc5d87e3348a5f3eaa316898a0f05d520876e OP_EQUAL",
          "hex": "a914fe5cc5d87e3348a5f3eaa316898a0f05d520876e87",
          "reqSigs": 1,
          "type": "scripthash",
          "addresses": [
            "QjnvszZxXTcUm3RmZseSbMaiZ5GhayV8j4"
          ]
        }
      }
    ],
    "hex": "01000000013a2c57e52a61656d8239798a33144fb036d2f15cdd45fbc202ba0487eea2a30201000000fdfd00004730440220039ba27e1364ea3e392cc61b346ac5b1b5ef92bd15f75465d7f4e5aaab0d23ee02204b36d436ef7c1ed1d02794acc75b224ac39390e0a60095514c320b558c36803001483045022100da5a469021f65b5d395dafaca4503deea6a3425c3e4ca993d20a4dadfe52ebd7022031ff8429239c5d0a25ec5c32ccf2559267c8d5f422b699fb6aee31071ed618cd014c695221028fedaf75b5b08cddf3bf4631c658b68ee6766a8e999467a641d7cb7aaaecec972103316bc27d95b96418349afc6298c259bb999c6e8f39a7217787ad53602be7c1472102e21c29b4a7eeace9c7a8cefb568ca00c86ff9bf5e79e07e5442c29d4a0950d0453aeffffffff0118ddf5050000000017a914fe5cc5d87e3348a5f3eaa316898a0f05d520876e8700000000"
  },
  "inputs": [
    {
      "txid": "02a3a2ee8704ba02c2fb45dd5cf1d236b04f14338a7939826d65612ae5572c3a",
      "hash": "7a35e9c982263657d55e23ad52d0e303993474b03c31414391ed241969ea64c8",
      "version": 2,
      "size": 247,
      "vsize": 166,
      "weight": 661,
      "locktime": 300,
      "vin": [
        {
          "txid": "ad134e3cf2779822eb9e7fe4f741716c6f51c1ee860cf0903b87cab53cecd173",
          "vout": 0,
          "scriptSig": {
            "asm": "001459428eda56834de4e2a175c26ee01eea183640cf",
            "hex": "16001459428eda56834de4e2a175c26ee01eea183640cf"
          },
          "txinwitness": [
            "304402200160505b6884d47e61489dfddd68bd4616c21a06e686f980a93905c012270fb102200617004a542ec6bb343073b1381fd23815407cc108a8bbf291499b1db01321e101",
            "027719ae154f48dad5410eb429820e72ed1fc02da88a6e827533df4712ad91431c"
          ],
          "sequence": 4294967294
        }
      ],
      "vout": [
        {
          "value": 23.999668,
          "n": 0,
          "scriptPubKey": {
            "asm": "OP_HASH160 c0773515741c9716fe1adfa99b7fc924b727ae00 OP_EQUAL",
            "hex": "a914c0773515741c9716fe1adfa99b7fc924b727ae0087",
            "reqSigs": 1,
            "type": "scripthash",
            "addresses": [
              "Qe9eeoWuJoWaNkY9a1dx17Zpf8w2Q2vnCE"
            ]
          }
        },
        {
          "value": 1,
          "n": 1,
          "scriptPubKey": {
            "asm": "OP_HASH160 fe5cc5d87e3348a5f3eaa316898a0f05d520876e OP_EQUAL",
            "hex": "a914fe5cc5d87e3348a5f3eaa316898a0f05d520876e87",
            "reqSigs": 1,
            "type": "scripthash",
            "addresses": [
              "QjnvszZxXTcUm3RmZseSbMaiZ5GhayV8j4"
            ]
          }
        }
      ],
      "hex": "0200000000010173d1ec3cb5ca873b90f00c86eec1516f6c7141f7e47f9eeb229877f23c4e13ad000000001716001459428eda56834de4e2a175c26ee01eea183640cffeffffff0250960c8f0000000017a914c0773515741c9716fe1adfa99b7fc924b727ae008700e1f5050000000017a914fe5cc5d87e3348a5f3eaa316898a0f05d520876e870247304402200160505b6884d47e61489dfddd68bd4616c21a06e686f980a93905c012270fb102200617004a542ec6bb343073b1381fd23815407cc108a8bbf291499b1db01321e10121027719ae154f48dad5410eb429820e72ed1fc02da88a6e827533df4712ad91431c2c010000"
    }
  ]
}