{
  "transaction": {
    "txid": "5d835a37ddc8a577b371f65c33737f327ed8d27a84e295023d68e203cb29d21a",
    "hash": "118f852c3527d6eec62c51c3bf70ddf0fdceaf4b74940dafb6b8f773dda237f5",
    "version": 1,
    "size": 348,
    "vsize": 158,
    "weight": 630,
    "locktime": 0,
    "vin": [
      {
        "txid": "30cae9f3e1b28eedf77035bbfa6ad37afab74a8ebe7d38a1e5f74af5a4ed1072",
        "vout": 0,
        "scriptSig": {
          "asm": "",
          "hex": ""
        },
        "txinwitness": [
          "",
          "30440220441cb468ee7d557c01584b0bf9045c6f1a892a850d07c72c116b35e6c83b9a2f02207086570bb2e2c1d4dc61b148342f532fd0c1b866e21b0e15452e66d4f29ad4d001",
          "3044022100cf75aab1b6abf9878d7b389e399012417a7d54987c8e6ea1d1603313d3bd14d2021f29ab7754a3f5201dfd9b2bdd4a8eff562f904218cd66d5aed07274cdb6d21301",
          "5221028fedaf75b5b08cddf3bf4631c658b68ee6766a8e999467a641d7cb7aaaecec972103316bc27d95b96418349afc6298c259bb999c6e8f39a7217787ad53602be7c1472102e21c29b4a7eeace9c7a8cefb568ca00c86ff9bf5e79e07e5442c29d4a0950d0453ae"
        ],
        "sequence": 4294967295
      }
    ],
    "vout": [
      {
        "value": 0.99999,
        "n": 0,
        "scriptPubKey": {
          "asm": "0 1553f31a3e25e770b7bc857b82909e83734dbfe4bcdb5a5e6fc419b6920c398a",
          "hex": "00201553f31a3e25e770b7bc857b82909e83734dbfe4bcdb5a5e6fc419b6920c398a",
          "reqSigs": 1,
          "type": "witness_v0_scripthash",
          "addresses": [
            "rltc1qz4flxx37yhnhpdaus4ac9yy7sde5m0lyhnd45hn0csvmdysv8x9qtazavf"
          ]
        }
      }
    ],
    "hex": "010000000001017210eda4f54af7e5a1387dbe8e4ab7fa7ad36afabb3570f7ed8eb2e1f3e9ca300000000000ffffffff0118ddf505000000002200201553f31a3e25e770b7bc857b82909e83734dbfe4bcdb5a5e6fc419b6920c398a04004730440220441cb468ee7d557c01584b0bf9045c6f1a892a850d07c72c116b35e6c83b9a2f02207086570bb2e2c1d4dc61b148342f532fd0c1b866e21b0e15452e66d4f29ad4d001473044022100cf75aab1b6abf9878d7b389e399012417a7d54987c8e6ea1d1603313d3bd14d2021f29ab7754a3f5201dfd9b2bdd4a8eff562f904218cd66d5aed07274cdb6d21301695221028fedaf75b5b08cddf3bf4631c658b68ee6766a8e999467a641d7cb7aaaecec972103316bc27d95b96418349afc6298c259bb999c6e8f39a7217787ad53602be7c1472102e21c29b4a7eeace9c7a8cefb568ca00c86ff9bf5e79e07e5442c29d4a0950d0453ae00000000"
  },
  "inputs": [
    {
      "txid": "30cae9f3e1b28eedf77035bbfa6ad37afab74a8ebe7d38a1e5f74af5a4ed1072",
      "hash": "97f541d26efc4ad88d983040cdbbb2768f9f953283b10f49fe1f1f8ad88b4d13",
      "version": 2,
      "size": 257,
      "vsize": 176,
      "weight": 701,
      "locktime": 300,
      "vin": [
        {
          "txid": "03cbd9236d731227958d31ad1ac7ec26bd2dbf21ad29c89f62236cbc0d256646",
          "vout": 0,
          "scriptSig": {
            "asm": "001459428eda56834de4e2a175c26ee01eea183640cf",
            "hex": "16001459428eda56834de4e2a175c26ee01eea183640cf"
          },
          "txinwitness": [
            "304402204ecffcf12cdbf774f671b620488327b2fde9b145be759598fe3481c3f31d3c4a02204b0bba167302bc65380d20e61ce20609a2856ca8c55408c19e8ae5b31ab959d801",
            "027719ae154f48dad5410eb429820e72ed1fc02da88a6e827533df4712ad91431c"
          ],
          "sequence": 4294967294
        }
      ],
      "vout": [
        {
          "value": 1,
          "n": 0,
          "scriptPubKey": {
            "asm": "0 1553f31a3e25e770b7bc857b82909e83734dbfe4bcdb5a5e6fc419b6920c398a",
            "hex": "00201553f31a3e25e770b7bc857b82909e83734dbfe4bcdb5a5e6fc419b6920c398a",
            "reqSigs": 1,
            "type": "witness_v0_scripthash",
            "addresses": [
              "rltc1qz4flxx37yhnhpdaus4ac9yy7sde5m0lyhnd45hn0csvmdysv8x9qtazavf"
            ]
          }
        },
        {
          "value": 23.999648,
          "n": 1,
          "scriptPubKey": {
            "asm": "0 cca2f80e44e13d6bdf0da4e04315025ee044cdb8",
            "hex": "0014cca2f80e44e13d6bdf0da4e04315025ee044cdb8",
            "reqSigs": 1,
            "type": "witness_v0_keyhash",
            "addresses": [
              "rltc1qej30srjyuy7khhcd5nsyx9gztmsyfndcauwa73"
            ]
          }
        }
      ],
      "hex": "020000000001014666250dbc6c23629fc829ad21bf2dbd26ecc71aad318d952712736d23d9cb03000000001716001459428eda56834de4e2a175c26ee01eea183640cffeffffff0200e1f505000000002200201553f31a3e25e770b7bc857b82909e83734dbfe4bcdb5a5e6fc419b6920c398a808e0c8f00000000160014cca2f80e44e13d6bdf0da4e04315025ee044cdb80247304402204ecffcf12cdbf774f671b620488327b2fde9b145be759598fe3481c3f31d3c4a02204b0bba167302bc65380d20e61ce20609a2856ca8c55408c19e8ae5b31ab959d80121027719ae154f48dad5410eb429820e72ed1fc02da88a6e827533df4712ad91431c2c010000"
    }
  ]
}