{
  "transaction": {
    "txid": "79dac6aac2d6f105931dd9e07ec0d587714fe412ec74f0991bc3088d09a77af5",
    "hash": "ae557435e819c930603840a6534e41179e62e0893a6fab0b5b8d3b07f38242e2",
    "version": 1,
    "size": 349,
    "vsize": 158,
    "weight": 631,
    "locktime": 0,
    "vin": [
      {
        "txid": "b85f31816628ea0ab5aca7739a80c683c2da81d25d2f960d61ca21b4fd9c76a2",
        "vout": 0,
        "scriptSig": {
          "asm": "",
          "hex": ""
        },
        "txinwitness": [
          "",
          "3044022048e381ecc45e875bd93834e260e8ebcb067ef0067cb28a3db3fcfdb180a76df50220237826d5efb867310541446c727cb6815b1f7949994c36bada214335547edcf001",
          "3045022100a5f930f675b930ea2f1a233a52d19ee5456f6a985cd8fd0598256f8dc206dd4b02204c2a77c65955e2e364db38aee626440c9fc65021872dbbdbcaf56d88c7b301d301",
          "5221028fedaf75b5b08cddf3bf4631c658b68ee6766a8e999467a641d7cb7aaaecec972103316bc27d95b96418349afc6298c259bb999c6e8f39a7217787ad53602be7c1472102e21c29b4a7eeace9c7a8cefb568ca00c86ff9bf5e79e07e5442c29d4a0950d0453ae"
        ],
        "sequence": 4294967295
      }
    ],
    "vout": [
      {
        "value": 0.99999,
        "n": 0,
        "scriptPubKey": {
          "asm": "0 1553f31a3e25e770b7bc857b82909e83734dbfe4bcdb5a5e6fc419b6920c398a",
          "hex": "00201553f31a3e25e770b7bc857b82909e83734dbfe4bcdb5a5e6fc419b6920c398a",
          "reqSigs": 1,
          "type": "witness_v0_scripthash",
          "addresses": [
            "rltc1qz4flxx37yhnhpdaus4ac9yy7sde5m0lyhnd45hn0csvmdysv8x9qtazavf"
          ]
        }
      }
    ],
    "hex": "01000000000101a2769cfdb421ca610d962f5dd281dac283c6809a73a7acb50aea286681315fb80000000000ffffffff0118ddf505000000002200201553f31a3e25e770b7bc857b82909e83734dbfe4bcdb5a5e6fc419b6920c398a0400473044022048e381ecc45e875bd93834e260e8ebcb067ef0067cb28a3db3fcfdb180a76df50220237826d5efb867310541446c727cb6815b1f7949994c36bada214335547edcf001483045022100a5f930f675b930ea2f1a233a52d19ee5456f6a985cd8fd0598256f8dc206dd4b02204c2a77c65955e2e364db38aee626440c9fc65021872dbbdbcaf56d88c7b301d301695221028fedaf75b5b08cddf3bf4631c658b68ee6766a8e999467a641d7cb7aaaecec972103316bc27d95b96418349afc6298c259bb999c6e8f39a7217787ad53602be7c1472102e21c29b4a7eeace9c7a8cefb568ca00c86ff9bf5e79e07e5442c29d4a0950d0453ae00000000"
  },
  "inputs": [
    {
      "txid": "b85f31816628ea0ab5aca7739a80c683c2da81d25d2f960d61ca21b4fd9c76a2",
      "hash": "3e380e974bc8b273989a0e57be53312cb24856dbe51d64f1ba8bf0ca38ae1f30",
      "version": 2,
      "size": 257,
      "vsize": 176,
      "weight": 701,
      "locktime": 285,
      "vin": [
        {
          "txid": "45ac44c9f0d8d3e6558d7f3e895808c742963acc170f7e5d7858a3af4e7d18c6",
          "vout": 0,
          "scriptSig": {
            "asm": "0014c26fba2de312daae02f280b3b6c753a6bb6dd8c5",
            "hex": "160014c26fba2de312daae02f280b3b6c753a6bb6dd8c5"
          },
          "txinwitness": [
            "30440220496cb10c2d5e302c7c5c307ef01f2884e8af5a5ea5740ae34c2f698800effc920220340cd2bda7b4abcbcddb885f1110579791ef80724f6fa7168fb49875438ffb8f01",
            "029eb510705a8771dac819d317844bf5b1d52160182083ec85dd37c80e5e841913"
          ],
          "sequence": 4294967294
        }
      ],
      "vout": [
        {
          "value": 1,
          "n": 0,
          "scriptPubKey": {
            "asm": "0 1553f31a3e25e770b7bc857b82909e83734dbfe4bcdb5a5e6fc419b6920c398a",
            "hex": "00201553f31a3e25e770b7bc857b82909e83734dbfe4bcdb5a5e6fc419b6920c398a",
            "reqSigs": 1,
            "type": "witness_v0_scripthash",
            "addresses": [
              "rltc1qz4flxx37yhnhpdaus4ac9yy7sde5m0lyhnd45hn0csvmdysv8x9qtazavf"
            ]
          }
        },
        {
          "value": 23.999648,
          "n": 1,
          "scriptPubKey": {
            "asm": "0 3ad80e58ab7a8f4d1886191fda7d8f68bacba88e",
            "hex": "00143ad80e58ab7a8f4d1886191fda7d8f68bacba88e",
            "reqSigs": 1,
            "type": "witness_v0_keyhash",
            "addresses": [
              "rltc1q8tvquk9t02856xyxry0a5lv0dzavh2yw445pph"
            ]
          }
        }
      ],
      "hex": "02000000000101c6187d4eafa358785d7e0f17cc3a9642c70858893e7f8d55e6d3d8f0c944ac450000000017160014c26fba2de312daae02f280b3b6c753a6bb6dd8c5feffffff0200e1f505000000002200201553f31a3e25e770b7bc857b82909e83734dbfe4bcdb5a5e6fc419b6920c398a808e0c8f000000001600143ad80e58ab7a8f4d1886191fda7d8f68bacba88e024730440220496cb10c2d5e302c7c5c307ef01f2884e8af5a5ea5740ae34c2f698800effc920220340cd2bda7b4abcbcddb885f1110579791ef80724f6fa7168fb49875438ffb8f0121029eb510705a8771dac819d317844bf5b1d52160182083ec85dd37c80e5e8419131d010000"
    }
  ]
}