{
  "txid": "9fd79eaf2895d6c72df6a686c08cb7fdb3a4463c2798305a15ba93b8dd8a9d7e",
  "hash": "9fd79eaf2895d6c72df6a686c08cb7fdb3a4463c2798305a15ba93b8dd8a9d7e",
  "version": 1,
  "size": 338,
  "vsize": 338,
  "weight": 1352,
  "locktime": 0,
  "vin": [
    {
      "txid": "d2a25b487410956ee36be3485d2a70efbf4b12b4f25aaa28cdcf6444672a286f",
      "vout": 1,
      "scriptSig": {
        "asm": "0 3044022015ca24175016b9d10e527ec255b94356b02d9a61fdfd1105399494dcd3ee70460220208c752acf139b3d63588ca3ce9ea57a487e82d557c0622b3d13ec829a77e0ee[ALL] 3045022100b980536b8b2282b6eb8b4fac499e774c2f5e260a456cffde43f193463dfb23a602207728eb54f78110fe9356682b1dd0adf906b2ea3c572508855dd512ee7a8f1c26[ALL] 5221028fedaf75b5b08cddf3bf4631c658b68ee6766a8e999467a641d7cb7aaaecec972103316bc27d95b96418349afc6298c259bb999c6e8f39a7217787ad53602be7c1472102e21c29b4a7eeace9c7a8cefb568ca00c86ff9bf5e79e07e5442c29d4a0950d0453ae",
        "hex": "00473044022015ca24175016b9d10e527ec255b94356b02d9a61fdfd1105399494dcd3ee70460220208c752acf139b3d63588ca3ce9ea57a487e82d557c0622b3d13ec829a77e0ee01483045022100b980536b8b2282b6eb8b4fac499e774c2f5e260a456cffde43f193463dfb23a602207728eb54f78110fe9356682b1dd0adf906b2ea3c572508855dd512ee7a8f1c26014c695221028fedaf75b5b08cddf3bf4631c658b68ee6766a8e999467a641d7cb7aaaecec972103316bc27d95b96418349afc6298c259bb999c6e8f39a7217787ad53602be7c1472102e21c29b4a7eeace9c7a8cefb568ca00c86ff9bf5e79e07e5442c29d4a0950d0453ae"
      },
      "sequence": 4294967295
    }
  ],
  "vout": [
    {
      "value": 0.99999,
      "n": 0,
      "scriptPubKey": {
        "asm": "OP_HASH160 fe5cc5d87e3348a5f3eaa316898a0f05d520876e OP_EQUAL",
        "hex": "a914fe5cc5d87e3348a5f3eaa316898a0f05d520876e87",
        "reqSigs": 1,
        "type": "scripthash",
        "addresses": [
          "QjnvszZxXTcUm3RmZseSbMaiZ5GhayV8j4"
        ]
      }
    }
  ],
  "hex": "01000000016f282a674464cfcd28aa5af2b4124bbfef702a5d48e36be36e951074485ba2d201000000fdfd0000473044022015ca24175016b9d10e527ec255b94356b02d9a61fdfd1105399494dcd3ee70460220208c752acf139b3d63588ca3ce9ea57a487e82d557c0622b3d13ec829a77e0ee01483045022100b980536b8b2282b6eb8b4fac499e774c2f5e260a456cffde43f193463dfb23a602207728eb54f78110fe9356682b1dd0adf906b2ea3c572508855dd512ee7a8f1c26014c695221028fedaf75b5b08cddf3bf4631c658b68ee6766a8e999467a641d7cb7aaaecec972103316bc27d95b96418349afc6298c259bb999c6e8f39a7217787ad53602be7c1472102e21c29b4a7eeace9c7a8cefb568ca00c86ff9bf5e79e07e5442c29d4a0950d0453aeffffffff0118ddf5050000000017a914fe5cc5d87e3348a5f3eaa316898a0f05d520876e8700000000"
}