{
  "txid": "dbb8327082e56b0a289eddb9441cd02000a7b9508bc1ee241a7c4278357e587e",
  "hash": "8c362127d5779cdf2c657f5165c3f5c88bd02f741f7e3c6a85fee93e92acbc0a",
  "version": 1,
  "size": 350,
  "vsize": 158,
  "weight": 632,
  "locktime": 0,
  "vin": [
    {
      "txid": "cebf22eb324a96b0a3f2f544ad204cc396fca6ff0d1280f19ccc76fce2495da8",
      "vout": 0,
      "scriptSig": {
        "asm": "",
        "hex": ""
      },
      "txinwitness": [
        "",
        "3045022100c6689811867db6ff3230c6f281568fdc482181e3449345602598c31abcc3457702205c57b828920982bb8979939504a3f6692df92ef89ceb93cc7a1384af8357ca3701",
        "3045022100b8227a0e430c3002fef68bfe1af3c386ec370d1e268ffced4e991908556fb3cc022024dfa8fb99bcc56252aa5cac76df4ee7c18dd90c884e4b0a8bf3489bc4853b6701",
        "5221028fedaf75b5b08cddf3bf4631c658b68ee6766a8e999467a641d7cb7aaaecec972103316bc27d95b96418349afc6298c259bb999c6e8f39a7217787ad53602be7c1472102e21c29b4a7eeace9c7a8cefb568ca00c86ff9bf5e79e07e5442c29d4a0950d0453ae"
      ],
      "sequence": 4294967295
    }
  ],
  "vout": [
    {
      "value": 0.99999,
      "n": 0,
      "scriptPubKey": {
        "asm": "0 1553f31a3e25e770b7bc857b82909e83734dbfe4bcdb5a5e6fc419b6920c398a",
        "hex": "00201553f31a3e25e770b7bc857b82909e83734dbfe4bcdb5a5e6fc419b6920c398a",
        "reqSigs": 1,
        "type": "witness_v0_scripthash",
        "addresses": [
          "rltc1qz4flxx37yhnhpdaus4ac9yy7sde5m0lyhnd45hn0csvmdysv8x9qtazavf"
        ]
      }
    }
  ],
  "hex": "01000000000101a85d49e2fc76cc9cf180120dffa6fc96c34c20ad44f5f2a3b0964a32eb22bfce0000000000ffffffff0118ddf505000000002200201553f31a3e25e770b7bc857b82909e83734dbfe4bcdb5a5e6fc419b6920c398a0400483045022100c6689811867db6ff3230c6f281568fdc482181e3449345602598c31abcc3457702205c57b828920982bb8979939504a3f6692df92ef89ceb93cc7a1384af8357ca3701483045022100b8227a0e430c3002fef68bfe1af3c386ec370d1e268ffced4e991908556fb3cc022024dfa8fb99bcc56252aa5cac76df4ee7c18dd90c884e4b0a8bf3489bc4853b6701695221028fedaf75b5b08cddf3bf4631c658b68ee6766a8e999467a641d7cb7aaaecec972103316bc27d95b96418349afc6298c259bb999c6e8f39a7217787ad53602be7c1472102e21c29b4a7eeace9c7a8cefb568ca00c86ff9bf5e79e07e5442c29d4a0950d0453ae00000000"
}