{
  "txid": "e99a274b41dc1b88ba08b932f5a0b6ceaa6e1f2a6ec8ca60215d65a44167d420",
  "hash": "3c4570381028e438aa96bc464a1d416d8c6e1ba6fecdf3bd8fac7393fabd2fcc",
  "version": 1,
  "size": 372,
  "vsize": 182,
  "weight": 726,
  "locktime": 0,
  "vin": [
    {
      "txid": "f905ff4d4b1a4e073e2a04371392ba49030370587f9e8bcbc91be8937ec9df51",
      "vout": 0,
      "scriptSig": {
        "asm": "00201553f31a3e25e770b7bc857b82909e83734dbfe4bcdb5a5e6fc419b6920c398a",
        "hex": "2200201553f31a3e25e770b7bc857b82909e83734dbfe4bcdb5a5e6fc419b6920c398a"
      },
      "txinwitness": [
        "",
        "304402200fc8134b93c9a8d3670773bf7bf3025e78d140fd9f355c343bb46175169fca6e02207d648838e6dc9d0d397bdac930160033117bd821b8e74ff062866a5e83b3e03e01",
        "30440220530f4b39e9e75f424fdc4e293f43a4bb84fa09b4eaeb9236343eaee21c43fe4402201682ffadad67de6448919b2aa952106bb98f6d8094b771dbdaacf47fb912bb4601",
        "5221028fedaf75b5b08cddf3bf4631c658b68ee6766a8e999467a641d7cb7aaaecec972103316bc27d95b96418349afc6298c259bb999c6e8f39a7217787ad53602be7c1472102e21c29b4a7eeace9c7a8cefb568ca00c86ff9bf5e79e07e5442c29d4a0950d0453ae"
      ],
      "sequence": 4294967295
    }
  ],
  "vout": [
    {
      "value": 0.99999,
      "n": 0,
      "scriptPubKey": {
        "asm": "OP_HASH160 2280193aca8462021ec369d4e2ff1c95741fba7f OP_EQUAL",
        "hex": "a9142280193aca8462021ec369d4e2ff1c95741fba7f87",
        "reqSigs": 1,
        "type": "scripthash",
        "addresses": [
          "QPkQYGJWZQtEKiZXemzsSWkB1wo6o6yGyu"
        ]
      }
    }
  ],
  "hex": "0100000000010151dfc97e93e81bc9cb8b9e7f5870030349ba921337042a3e074e1a4b4dff05f900000000232200201553f31a3e25e770b7bc857b82909e83734dbfe4bcdb5a5e6fc419b6920c398affffffff0118ddf5050000000017a9142280193aca8462021ec369d4e2ff1c95741fba7f87040047304402200fc8134b93c9a8d3670773bf7bf3025e78d140fd9f355c343bb46175169fca6e02207d648838e6dc9d0d397bdac930160033117bd821b8e74ff062866a5e83b3e03e014730440220530f4b39e9e75f424fdc4e293f43a4bb84fa09b4eaeb9236343eaee21c43fe4402201682ffadad67de6448919b2aa952106bb98f6d8094b771dbdaacf47fb912bb4601695221028fedaf75b5b08cddf3bf4631c658b68ee6766a8e999467a641d7cb7aaaecec972103316bc27d95b96418349afc6298c259bb999c6e8f39a7217787ad53602be7c1472102e21c29b4a7eeace9c7a8cefb568ca00c86ff9bf5e79e07e5442c29d4a0950d0453ae00000000"
}