{
  "transaction": {
    "txid": "c65022d077f0c69e96eaf95a6a2b9721c6363de1943fc22efc8dd1eca32c49d1",
    "hash": "c65022d077f0c69e96eaf95a6a2b9721c6363de1943fc22efc8dd1eca32c49d1",
    "version": 1,
    "size": 338,
    "vsize": 338,
    "weight": 1352,
    "locktime": 0,
    "vin": [
      {
        "txid": "deca1780c5fca4d6bc9d81cb169037bab0cb6016fe03d96ad6d6f7e4bca37a75",
        "vout": 1,
        "scriptSig": {
          "asm": "0 304402207c9cc99ddbb4ed3abfa43448142493c2db72af9364a67e4b90b0f49499fa43ac02207c62aceb0e2c0edb019c8def90a24b060f42ce36e0e47a3f303125c6a244c819[ALL] 3045022100f3903e218a2f4f8d9c8f9326cc1adb2e9db6538e007387445dc1c16c9b711a5d022066b3f2b4a18fef77f7e3c402115c19f55277767d536ccf953e3f60112c58eadd[ALL] 5221028fedaf75b5b08cddf3bf4631c658b68ee6766a8e999467a641d7cb7aaaecec972103316bc27d95b96418349afc6298c259bb999c6e8f39a7217787ad53602be7c1472102e21c29b4a7eeace9c7a8cefb568ca00c86ff9bf5e79e07e5442c29d4a0950d0453ae",
          "hex": "0047304402207c9cc99ddbb4ed3abfa43448142493c2db72af9364a67e4b90b0f49499fa43ac02207c62aceb0e2c0edb019c8def90a24b060f42ce36e0e47a3f303125c6a244c81901483045022100f3903e218a2f4f8d9c8f9326cc1adb2e9db6538e007387445dc1c16c9b711a5d022066b3f2b4a18fef77f7e3c402115c19f55277767d536ccf953e3f60112c58eadd014c695221028fedaf75b5b08cddf3bf4631c658b68ee6766a8e999467a641d7cb7aaaecec972103316bc27d95b96418349afc6298c259bb999c6e8f39a7217787ad53602be7c1472102e21c29b4a7eeace9c7a8cefb568ca00c86ff9bf5e79e07e5442c29d4a0950d0453ae"
        },
        "sequence": 4294967295
      }
    ],
    "vout": [
      {
        "value": 0.99999,
        "n": 0,
        "scriptPubKey": {
          "asm": "OP_HASH160 fe5cc5d87e3348a5f3eaa316898a0f05d520876e OP_EQUAL",
          "hex": "a914fe5cc5d87e3348a5f3eaa316898a0f05d520876e87",
          "reqSigs": 1,
          "type": "scripthash",
          "addresses": [
            "QjnvszZxXTcUm3RmZseSbMaiZ5GhayV8j4"
          ]
        }
      }
    ],
    "hex": "0100000001757aa3bce4f7d6d66ad903fe1660cbb0ba379016cb819dbcd6a4fcc58017cade01000000fdfd000047304402207c9cc99ddbb4ed3abfa43448142493c2db72af9364a67e4b90b0f49499fa43ac02207c62aceb0e2c0edb019c8def90a24b060f42ce36e0e47a3f303125c6a244c81901483045022100f3903e218a2f4f8d9c8f9326cc1adb2e9db6538e007387445dc1c16c9b711a5d022066b3f2b4a18fef77f7e3c402115c19f55277767d536ccf953e3f60112c58eadd014c695221028fedaf75b5b08cddf3bf4631c658b68ee6766a8e999467a641d7cb7aaaecec972103316bc27d95b96418349afc6298c259bb999c6e8f39a7217787ad53602be7c1472102e21c29b4a7eeace9c7a8cefb568ca00c86ff9bf5e79e07e5442c29d4a0950d0453aeffffffff0118ddf5050000000017a914fe5cc5d87e3348a5f3eaa316898a0f05d520876e8700000000"
  },
  "inputs": [
    {
      "txid": "deca1780c5fca4d6bc9d81cb169037bab0cb6016fe03d96ad6d6f7e4bca37a75",
      "hash": "7b6049556f8a7db027bfa879346c4841db7092b39b236f02318e0d4d1f582304",
      "version": 2,
      "size": 247,
      "vsize": 166,
      "weight": 661,
      "locktime": 300,
      "vin": [
        {
          "txid": "fccf807b9a522f19373e83e764e05dea56803bbe046cfe19a62b7c75652bb17c",
          "vout": 0,
          "scriptSig": {
            "asm": "0014c26fba2de312daae02f280b3b6c753a6bb6dd8c5",
            "hex": "160014c26fba2de312daae02f280b3b6c753a6bb6dd8c5"
          },
          "txinwitness": [
            "3044022012915199a1a851a3d269180cf41b4ca9f0d6ff09bf46cb5e1e08585b7262422902201783dfcfe39ad116608987442cc1a53103f1e7fca90d03111c332d5bd08012be01",
            "029eb510705a8771dac819d317844bf5b1d52160182083ec85dd37c80e5e841913"
          ],
          "sequence": 4294967294
        }
      ],
      "vout": [
        {
          "value": 23.999668,
          "n": 0,
          "scriptPubKey": {
            "asm": "OP_HASH160 c28dd6206616d38aef7f72107e649f6573a5d204 OP_EQUAL",
            "hex": "a914c28dd6206616d38aef7f72107e649f6573a5d20487",
            "reqSigs": 1,
            "type": "scripthash",
            "addresses": [
              "QeLh7UurFCbTMYfNwV43vds7dDevqw53Xu"
            ]
          }
        },
        {
          "value": 1,
          "n": 1,
          "scriptPubKey": {
            "asm": "OP_HASH160 fe5cc5d87e3348a5f3eaa316898a0f05d520876e OP_EQUAL",
            "hex": "a914fe5cc5d87e3348a5f3eaa316898a0f05d520876e87",
            "reqSigs": 1,
            "type": "scripthash",
            "addresses": [
              "QjnvszZxXTcUm3RmZseSbMaiZ5GhayV8j4"
            ]
          }
        }
      ],
      "hex": "020000000001017cb12b65757c2ba619fe6c04be3b8056ea5de064e7833e37192f529a7b80cffc0000000017160014c26fba2de312daae02f280b3b6c753a6bb6dd8c5feffffff0250960c8f0000000017a914c28dd6206616d38aef7f72107e649f6573a5d2048700e1f5050000000017a914fe5cc5d87e3348a5f3eaa316898a0f05d520876e8702473044022012915199a1a851a3d269180cf41b4ca9f0d6ff09bf46cb5e1e08585b7262422902201783dfcfe39ad116608987442cc1a53103f1e7fca90d03111c332d5bd08012be0121029eb510705a8771dac819d317844bf5b1d52160182083ec85dd37c80e5e8419132c010000"
    }
  ]
}