{
  "transaction": {
    "txid": "8a913acc60f0f5554a23b7ba8b83ca34ad8557bdaeadca9bde4d0c5d41c4678a",
    "hash": "7a341b48f56f4ffd27311d49b974415ff81d6540eb0102f0c6c3411680a3486a",
    "version": 1,
    "size": 374,
    "vsize": 182,
    "weight": 728,
    "locktime": 0,
    "vin": [
      {
        "txid": "64b46c6e4c2a15f5736e5f8ccacb695e7159125ac8dc4526dee116767c5cca8a",
        "vout": 1,
        "scriptSig": {
          "asm": "00201553f31a3e25e770b7bc857b82909e83734dbfe4bcdb5a5e6fc419b6920c398a",
          "hex": "2200201553f31a3e25e770b7bc857b82909e83734dbfe4bcdb5a5e6fc419b6920c398a"
        },
        "txinwitness": [
          "",
          "3045022100bbdf37bccb7688f209376249adf66c308d81425e898c3e659eec50703dfe0823022015c2a0a134c35994c81e7f5c4c080e1e1db011f4c1fe928a9ef38365494dbb3c01",
          "304502210083ce134302353cadc056845e5d8fdb6a96b8617814e26103e09f2bfcd44e2d2f0220221ed986901938772884e15921f41f75adffca7ba66da90d217847156d54713e01",
          "5221028fedaf75b5b08cddf3bf4631c658b68ee6766a8e999467a641d7cb7aaaecec972103316bc27d95b96418349afc6298c259bb999c6e8f39a7217787ad53602be7c1472102e21c29b4a7eeace9c7a8cefb568ca00c86ff9bf5e79e07e5442c29d4a0950d0453ae"
        ],
        "sequence": 4294967295
      }
    ],
    "vout": [
      {
        "value": 0.99999,
        "n": 0,
        "scriptPubKey": {
          "asm": "OP_HASH160 2280193aca8462021ec369d4e2ff1c95741fba7f OP_EQUAL",
          "hex": "a9142280193aca8462021ec369d4e2ff1c95741fba7f87",
          "reqSigs": 1,
          "type": "scripthash",
          "addresses": [
            "QPkQYGJWZQtEKiZXemzsSWkB1wo6o6yGyu"
          ]
        }
      }
    ],
    "hex": "010000000001018aca5c7c7616e1de2645dcc85a1259715e69cbca8c5f6e73f5152a4c6e6cb46401000000232200201553f31a3e25e770b7bc857b82909e83734dbfe4bcdb5a5e6fc419b6920c398affffffff0118ddf5050000000017a9142280193aca8462021ec369d4e2ff1c95741fba7f870400483045022100bbdf37bccb7688f209376249adf66c308d81425e898c3e659eec50703dfe0823022015c2a0a134c35994c81e7f5c4c080e1e1db011f4c1fe928a9ef38365494dbb3c0148304502210083ce134302353cadc056845e5d8fdb6a96b8617814e26103e09f2bfcd44e2d2f0220221ed986901938772884e15921f41f75adffca7ba66da90d217847156d54713e01695221028fedaf75b5b08cddf3bf4631c658b68ee6766a8e999467a641d7cb7aaaecec972103316bc27d95b96418349afc6298c259bb999c6e8f39a7217787ad53602be7c1472102e21c29b4a7eeace9c7a8cefb568ca00c86ff9bf5e79e07e5442c29d4a0950d0453ae00000000"
  },
  "inputs": [
    {
      "txid": "64b46c6e4c2a15f5736e5f8ccacb695e7159125ac8dc4526dee116767c5cca8a",
      "hash": "bd58b41ca94001af0378a731fd6516a887b763defbdd9f1270e12ad204a24218",
      "version": 2,
      "size": 247,
      "vsize": 166,
      "weight": 661,
      "locktime": 300,
      "vin": [
        {
          "txid": "7e57f4dc787466c06f7c3a0ad795e59bc788f749308badbe65bfefc196112b24",
          "vout": 0,
          "scriptSig": {
            "asm": "001459428eda56834de4e2a175c26ee01eea183640cf",
            "hex": "16001459428eda56834de4e2a175c26ee01eea183640cf"
          },
          "txinwitness": [
            "304402200efce50acb64edd22956b5751619ad77a1bdd093d618aab7a6cecd7e1e8fa6a0022046db173f02ae3cfe42b3b83c2c3e81e6a7537c258a8f165bd8129ff05e4c1f7d01",
            "027719ae154f48dad5410eb429820e72ed1fc02da88a6e827533df4712ad91431c"
          ],
          "sequence": 4294967294
        }
      ],
      "vout": [
        {
          "value": 23.999668,
          "n": 0,
          "scriptPubKey": {
            "asm": "OP_HASH160 1bc4f896d9077f65d8dba87512c83502dbe60be0 OP_EQUAL",
            "hex": "a9141bc4f896d9077f65d8dba87512c83502dbe60be087",
            "reqSigs": 1,
            "type": "scripthash",
            "addresses": [
              "QP8pKGS9Wtfzu3HrEpmJ6C4X7wziwh7Wwe"
            ]
          }
        },
        {
          "value": 1,
          "n": 1,
          "scriptPubKey": {
            "asm": "OP_HASH160 2280193aca8462021ec369d4e2ff1c95741fba7f OP_EQUAL",
            "hex": "a9142280193aca8462021ec369d4e2ff1c95741fba7f87",
            "reqSigs": 1,
            "type": "scripthash",
            "addresses": [
              "QPkQYGJWZQtEKiZXemzsSWkB1wo6o6yGyu"
            ]
          }
        }
      ],
      "hex": "02000000000101242b1196c1efbf65bead8b3049f788c79be595d70a3a7c6fc0667478dcf4577e000000001716001459428eda56834de4e2a175c26ee01eea183640cffeffffff0250960c8f0000000017a9141bc4f896d9077f65d8dba87512c83502dbe60be08700e1f5050000000017a9142280193aca8462021ec369d4e2ff1c95741fba7f870247304402200efce50acb64edd22956b5751619ad77a1bdd093d618aab7a6cecd7e1e8fa6a0022046db173f02ae3cfe42b3b83c2c3e81e6a7537c258a8f165bd8129ff05e4c1f7d0121027719ae154f48dad5410eb429820e72ed1fc02da88a6e827533df4712ad91431c2c010000"
    }
  ]
}