{
  "walletKeys": [
    "xprv9s21ZrQH143K45bDYc9c3aEaGiTK9aPtjgtHg6wBdkryBjix1KKXRCszxPcFPejLT9tdLgNe8E8AuQXK2fy8KhNPeLAZsGoX8w9KS2PkacL",
    "xprv9s21ZrQH143K2eBLSVNk4zhjDzqzqM29aS9cjr4CcoNrKLYwLHtwgTURSk7RPV3cH9zNZQeR1zGw3MEwSjvARSfWEGpxfaBmduhW3TKsH5g",
    "xprv9s21ZrQH143K39N9shF9hAsTwh1FvQuBk8UVsZVwr4XtpqF7stCu2LH358NLuqkkK6pu1Af7TJHr5FZERQoLLtnC7wkoM9sdFo1HuP7dWuv"
  ],
  "psbtBase64": "cHNidP8BAP3qAQEAAAAH2Z764Zn8TVTlglqOM2ijlenrMpkVz7XYjcMRUH0YSDYAAAAAAP////8eyXKaGyU3OjDw/m4IebMRNqVPL4yYYYxGhidIoIxeeAEAAAAA/////7sN++ulm7pp484HpUNG+ATFQ/pG2CjtU50RIxrbqot7AgAAAAD/////pmKl/+v1i/PmXlNFbGfAKcwVSiQJdA2M03/e51WcXv0DAAAAAP/////TlDdc7iOzuZUUiMBANSkVeoWwWO3ANRVG2etIB+ih0wQAAAAA/////w0vfzSG7a78arksIffK+QCFxN5K2sSREG/YoOT1Y96jBQAAAAD/////l0QdmajWbxJKs8neJrh70ArrFUcFHIQqiBZcGwie6QIGAAAAAP////8FhAMAAAAAAAAXqRTZCUdEBMEko9BMP7/2H6pJz0PFi4eEAwAAAAAAABepFAVBJxIdN/MiZs2WfEhUBJdqZ63wh4QDAAAAAAAAIgAgukjj+YdEY5Q/kBkqRfGuiVt3k2KnYpr3rWqdeoNePU+EAwAAAAAAACJRILJyJ/XK3AVq/qSwK0uXuaAVF4YjTCatWI3M8TTniTHGhAMAAAAAAAAiUSBPc7VWE5nrOXtatBPgkMwMSP9wOmGv5Hz31Hoj1DuXiwAAAABPAQSIsh4AAAAAAAAAAAA6ki4p8MjrDbKmBITL3LYx9rEHycquP/3PPn0uwfa80AMSFIcV82HatoWmadQkMeXW0/lzQE2rnJ/RuVCyea12NATMGK4ITwEEiLIeAAAAAAAAAAAAbR1lbT3dkcGUwEVlo2A3AqIQFs7RSiZfOJgtYnXme2QD07rCMTp8ayHLsRsUsNEDQfkiwKQDqL2Mh/Dcgg81r24E9lzYaU8BBIiyHgAAAAAAAAAAAMsE/WOrNNkP5kZriA4qAsz4qGM3QxKZGviRGxqqtEM0AzbvIo/+m47/+6BSwy0zRmDdH4Nmz4/kSuWqZytrYpCVBPLvA4kAAQEg6AMAAAAAAAAXqRRWfNe0T586B8MTjze/mEtg+7ryQ4ciAgPhUk1/b8V6s+rLtlm3hxBngKR10dtIOVLCMQt+mjiXW0gwRQIhAN0xol0OvqkOZ5EBaO98Kzg8omGSzVyHCfApgLfKkEcoAiA3lcZe4PBzuAZE0Mj/odQoRXrirz31tdgReUl4HRDEYgEiAgP29AdkvV1j8gCid4iDrPdelvFQlcmYJjwIcnDQyX5+f0cwRAIgHnlUXAEeNLG4crSwV+ZiYthogdpqf4U+fleppNEsbcECIBpTiyF1x7cWHHbaGDlCIPNUricp/MHJArdMWc154BUxAQEDBAEAAAABBGlSIQP29AdkvV1j8gCid4iDrPdelvFQlcmYJjwIcnDQyX5+fyEDX/t6vHAVngRp9LmJptXheFopBBaf8FCy9Gj+XT1du/IhA+FSTX9vxXqz6su2WbeHEGeApHXR20g5UsIxC36aOJdbU64iBgNf+3q8cBWeBGn0uYmm1eF4WikEFp/wULL0aP5dPV278hTMGK4IAAAAAAAAAAABAAAAAAAAACIGA+FSTX9vxXqz6su2WbeHEGeApHXR20g5UsIxC36aOJdbFPZc2GkAAAAAAAAAAAEAAAAAAAAAIgYD9vQHZL1dY/IAoneIg6z3XpbxUJXJmCY8CHJw0Ml+fn8U8u8DiQAAAAAAAAAAAQAAAAAAAAAAAQEg6AMAAAAAAAAXqRQOJrJdDOrm+c/z7azKoNGnDadgD4ciAgIjRTG8kRmjanlG6VrrdJFd0IfHtE9Re47utz+JoP8amUgwRQIhAN9B+8vzx/dxgmJ7y3zReXO4yljBa4HemOlMApPc8zrCAiBgFxcZFP37yA+TOrO1quTj026Wh1fmwHiP++quvGjiHgEiAgKlhfP6tJte+VNG2TIiGiIb1V7BkfFVM+DycLNYJXTwNUcwRAIgX3YMJ+dZip6Aoq2vHZJcZ9Lmwkrsdz5czlbSNBWaseUCIBzpfVZZaBq4geEKzJyAIVh/hDoVM2w6i2+y78BTkouFAQEDBAEAAAABBCIAIEbUgAoTkzMBlghTme1KFwC0wv04xSGIw6OpH3IfPJYAAQVpUiECpYXz+rSbXvlTRtkyIhoiG9VewZHxVTPg8nCzWCV08DUhAsT3hmz9WZa8EGipYxPKFenMtemEWDoHNA3drnrwFGBbIQIjRTG8kRmjanlG6VrrdJFd0IfHtE9Re47utz+JoP8amVOuIgYCI0UxvJEZo2p5Rula63SRXdCHx7RPUXuO7rc/iaD/GpkU9lzYaQAAAAAAAAAACwAAAAEAAAAiBgKlhfP6tJte+VNG2TIiGiIb1V7BkfFVM+DycLNYJXTwNRTy7wOJAAAAAAAAAAALAAAAAQAAACIGAsT3hmz9WZa8EGipYxPKFenMtemEWDoHNA3drnrwFGBbFMwYrggAAAAAAAAAAAsAAAABAAAAAAEBK+gDAAAAAAAAIgAg2wQn8YIrR3dnDmZzworwL22h1a/nGnH1yQZEcLIp+v0iAgLoCgiIXDU2drggzcKQ5tgaCslaA+irv0u3ruv7cP60GEcwRAIgZEEInIxxpJJrSaWrEr+qhsS2SrvFGbPSF9aP5xvEO+4CID4X0HUsC0EelHfCLC9FVqYto55gCVxuB3S/QqqPSRtNASICA1GeVyq0aFYNH40Ph2mdCYMI4WaQX13K5DkPBg+qjxzjSDBFAiEA07A/t3VTFE4UFxx7G1F6O/M9+HNwtl4zfwpQhEViJh4CIFhbwJE7Vq2WgWHTQ/Mh139flP889iVFky8VCSOaFaOOAQEDBAEAAAABBWlSIQNRnlcqtGhWDR+ND4dpnQmDCOFmkF9dyuQ5DwYPqo8c4yEDoFvCY5EiHWheGNqv82oelcNPmUUSU8Fs1CZQ2yeKeREhAugKCIhcNTZ2uCDNwpDm2BoKyVoD6Ku/S7eu6/tw/rQYU64iBgLoCgiIXDU2drggzcKQ5tgaCslaA+irv0u3ruv7cP60GBT2XNhpAAAAAAAAAAAVAAAAAgAAACIGA1GeVyq0aFYNH40Ph2mdCYMI4WaQX13K5DkPBg+qjxzjFPLvA4kAAAAAAAAAABUAAAACAAAAIgYDoFvCY5EiHWheGNqv82oelcNPmUUSU8Fs1CZQ2yeKeREUzBiuCAAAAAAAAAAAFQAAAAIAAAAAAQEr6AMAAAAAAAAiUSA5S5TQYde3eP7YogTOBe0LRJVOwWIvk0+EEU4Rc/MwJwEDBAAAAABBFHNz1yPOCof4/dZoQ74S2unVGTn2gYjVrZaSC+9fUfSWg9f5jp7w9zNqBvSgEVGDqfmWy6wSKOmqdjj0R/AknzBAg7G7fGzlhoyKcjxNNQWRiUgJsTNVhvYMv8zG3U4ouGMKdGN7GyQuWjiVQNuU8jvL7e6ceDgwyyr6/x8nY9vbe0EUqojKGU/aQ0hlBLhqybcfEPxB3nsXE4dIOUJ/dOeMLVqD1/mOnvD3M2oG9KARUYOp+ZbLrBIo6ap2OPRH8CSfMEDn2rDSd858QZMxNrRNyr70APHQ5iKiJV+YZ9gHvI4ACM/TB2bTbXNsjfeqMpF95Z0IMrSBxJnwkXh2E0UyMG1FQhXAvBfqK79v9GvVwMN4C+KmOIDre7eCs57Ybym5n0iCmU4bF4sbVdPGqsewOeNCLf25ydddTW/JCOl0Poi2UeSNg0Ugc3PXI84Kh/j91mhDvhLa6dUZOfaBiNWtlpIL719R9JatIKqIyhlP2kNIZQS4asm3HxD8Qd57FxOHSDlCf3TnjC1arMAhFnNz1yPOCof4/dZoQ74S2unVGTn2gYjVrZaSC+9fUfSWNQGD1/mOnvD3M2oG9KARUYOp+ZbLrBIo6ap2OPRH8CSfMPLvA4kAAAAAAAAAAB8AAAADAAAAIRaqiMoZT9pDSGUEuGrJtx8Q/EHeexcTh0g5Qn9054wtWjUBg9f5jp7w9zNqBvSgEVGDqfmWy6wSKOmqdjj0R/AknzD2XNhpAAAAAAAAAAAfAAAAAwAAAAABASvoAwAAAAAAACJRICm7+vQ4WxDcK756tNUOic6+j1B5aHJ7GWieJjgIPMVbAQMEAAAAAEEUA1ydYy2y3bj5DPPM/JMYIryx8kVisjrgQavxLlS8pk1CkGnIMg/18cisKgsQR/8UULjA0yXh0S8cUmhNkaO5+0BNjlASi1xh3USbNSptbz1hHhY7B5TIwtBX0lQBlXuwenBCDjNuGPayVdW4aVcMCHCRwwwaM/DKwKQNkNBRTGmkQRRkMVGrA/Ope7htNZLxL40lqAJtic1HNC/BtJxeLmNHi0KQacgyD/XxyKwqCxBH/xRQuMDTJeHRLxxSaE2Ro7n7QAoeAT9tV/uLJIsrGbCLNMGjzV/23krN8Z3Uzg4C1CFUhW3VafRmjyq6zLtQzoGp0vU+/ftifCyxTPksQYmjXadCFcGhB6QD96IH57H1UtP9P1X2SuQOFJ0NJvSGitf67JSet2N+N8rG5fIjR6to6Ha1WRF9lZfuezf7mDwqueUQI8l2RSBkMVGrA/Ope7htNZLxL40lqAJtic1HNC/BtJxeLmNHi60gA1ydYy2y3bj5DPPM/JMYIryx8kVisjrgQavxLlS8pk2swCEWA1ydYy2y3bj5DPPM/JMYIryx8kVisjrgQavxLlS8pk01AUKQacgyD/XxyKwqCxBH/xRQuMDTJeHRLxxSaE2Ro7n7zBiuCAAAAAAAAAAAKQAAAAQAAAAhFmQxUasD86l7uG01kvEvjSWoAm2JzUc0L8G0nF4uY0eLNQFCkGnIMg/18cisKgsQR/8UULjA0yXh0S8cUmhNkaO5+/LvA4kAAAAAAAAAACkAAAAEAAAAAAEBK+gDAAAAAAAAIlEgFcWBUCb2pUsQGU/GmA8YZqAtnsEoUzx5l820KJvz7xYBAwQAAAAAIRYP3qaeQKOt7zzcf6bzrwL0ydnjJUUDyWpqK0qmbneBcRUA9lzYaQAAAAAAAAAAKQAAAAUAAAAhFh2XihdIb/nkfIKZAmnlMfxjmBQZ1M5z7ovSyZZhxTlTFQDy7wOJAAAAAAAAAAApAAAABQAAAAEXIOta0pqFrtJN4ogOd0yq9iT5yxvgnGftSu+7m3vBLd8aARggsqSX6k0LUvUBGuE10Lvg2evXd7so5zPLzBMTS3MQahpI/AVCSVRHTwEVxYFQJvalSxAZT8aYDxhmoC2ewShTPHmXzbQom/PvFuta0pqFrtJN4ogOd0yq9iT5yxvgnGftSu+7m3vBLd8aQgIdl4oXSG/55HyCmQJp5TH8Y5gUGdTOc+6L0smWYcU5UwIP3qaeQKOt7zzcf6bzrwL0ydnjJUUDyWpqK0qmbneBcUn8BUJJVEdPAgIP3qaeQKOt7zzcf6bzrwL0ydnjJUUDyWpqK0qmbneBcRXFgVAm9qVLEBlPxpgPGGagLZ7BKFM8eZfNtCib8+8WQgKCaUl0Df9F1Aix8Z2UxyD1NBHgLFJbKKs8WTtrUw/gNwN0uKD/yqrua3ctrF98I+8zZwsy7HfG1B77PDbfIWWglEn8BUJJVEdPAgIdl4oXSG/55HyCmQJp5TH8Y5gUGdTOc+6L0smWYcU5UxXFgVAm9qVLEBlPxpgPGGagLZ7BKFM8eZfNtCib8+8WQgOkqvRvOgvDmnOFX6h1svLwS9sGI1r7rt+Fe1k93cY8tALNt/GpPsUmKCGY2DRCM3F1fo9Dky0DufQ8P3N4MArlCEn8BUJJVEdPAwIP3qaeQKOt7zzcf6bzrwL0ydnjJUUDyWpqK0qmbneBcRXFgVAm9qVLEBlPxpgPGGagLZ7BKFM8eZfNtCib8+8WIPvcOcO4/8pObK8ymPoaS+VGuZFjwvIb03TSJU7Fs8D0SfwFQklUR08DAh2XihdIb/nkfIKZAmnlMfxjmBQZ1M5z7ovSyZZhxTlTFcWBUCb2pUsQGU/GmA8YZqAtnsEoUzx5l820KJvz7xYgHNigwFmLDYj4if35oxQPjwiOIYeAOi+q7j8TwBY+t2wAAQEg6AMAAAAAAAAXqRQgs3CU2CpRNFH/DM2dsjq6Bbxe84ciAgM27yKP/puO//ugUsMtM0Zg3R+DZs+P5Erlqmcra2KQlUgwRQIhANKnq7bAVjwwAON0Eqm5f2NS0X5AlgRW/oMNJk8EdPi2AiA41c2+iKMZ3l17fbj1fQqSUkvrJCcptGphettTDy+g0AEBAwQBAAAAAQQjIQM27yKP/puO//ugUsMtM0Zg3R+DZs+P5Erlqmcra2KQlawAAQBpUiECzE0PpBHKwkRIb46ywI4DX/dBD0YKNZyn+IEJkb07QgkhAtcv0NDZApNDStX8oWDyeOA8YUSXqk5CXPRU4sEzD5arIQNE2IQTbfVQIChl/7xiGMf5yI/mzjnJRXmBkLrbOKdS8VOuIgICzE0PpBHKwkRIb46ywI4DX/dBD0YKNZyn+IEJkb07QgkU8u8DiQAAAAAAAAAAAAAAAAAAAAAiAgLXL9DQ2QKTQ0rV/KFg8njgPGFEl6pOQlz0VOLBMw+WqxTMGK4IAAAAAAAAAAAAAAAAAAAAACICA0TYhBNt9VAgKGX/vGIYx/nIj+bOOclFeYGQuts4p1LxFPZc2GkAAAAAAAAAAAAAAAAAAAAAAAEAIgAgKSsFI1GjxvgNUbrmQsyIIRgok9vu2ryPXQ6Wd0dgJsEBAWlSIQMuEfmFUmhf6QfzH55yYMkG6N5wDww8ny8UEGI9zf0ZwCEDVFdXzjXPHt+xO54sSi+c4Aq4w2vuEryiM3zlg/0orsghAqPPtmZf5E91ILahtN4aTUZkOzhesf0eCrcO+5ZUKXVUU64iAgKjz7ZmX+RPdSC2obTeGk1GZDs4XrH9Hgq3DvuWVCl1VBT2XNhpAAAAAAAAAAAKAAAAAQAAACICAy4R+YVSaF/pB/MfnnJgyQbo3nAPDDyfLxQQYj3N/RnAFPLvA4kAAAAAAAAAAAoAAAABAAAAIgIDVFdXzjXPHt+xO54sSi+c4Aq4w2vuEryiM3zlg/0orsgUzBiuCAAAAAAAAAAACgAAAAEAAAAAAQFpUiEC1tEUC9LA+RTLMMmSqi/NKD9HGpKBzuyexsW8RI5oaQAhA7hVqHWO2mhjZIRFqdPPuVOIrKF0YhrZjwmaHE+TJv7HIQKV97Un0upTek1CgwQQq/Q0BzG/myDlSXIAGTO5qiNTbFOuIgIClfe1J9LqU3pNQoMEEKv0NAcxv5sg5UlyABkzuaojU2wU9lzYaQAAAAAAAAAAFAAAAAIAAAAiAgLW0RQL0sD5FMswyZKqL80oP0cakoHO7J7GxbxEjmhpABTy7wOJAAAAAAAAAAAUAAAAAgAAACICA7hVqHWO2mhjZIRFqdPPuVOIrKF0YhrZjwmaHE+TJv7HFMwYrggAAAAAAAAAABQAAAACAAAAAAEFII6lgBbsq+PPhJDsZdd5FBVx+55cEurJBdGA8OEClDOUAQbVAcBEIJnkNlXCzz2VA2K7ajpEY4DoC3ofcOUohOtXaxNW3G5ArSCobX/mf2mUETFDzBY0TLHpl7jMjh3uI2Ubl8ecCa+a3awCwEQgmeQ2VcLPPZUDYrtqOkRjgOgLeh9w5SiE61drE1bcbkCtIDoJNTDqFZ1zyP+TCZ7gqbuemqOeCyuEZC1HtPgNSHy7rALARCA6CTUw6hWdc8j/kwme4Km7npqjngsrhGQtR7T4DUh8u60gqG1/5n9plBExQ8wWNEyx6Ze4zI4d7iNlG5fHnAmvmt2sIQc6CTUw6hWdc8j/kwme4Km7npqjngsrhGQtR7T4DUh8u1UCz5YFyuw4JDR71wrVbndglfpj87xoBNBDDOz/5OJT2M68Djt9lSrZVrt3Wd4hc1gsdQDY8p/kwa3mcRs515NYGswYrggAAAAAAAAAAB4AAAADAAAAIQeZ5DZVws89lQNiu2o6RGOA6At6H3DlKITrV2sTVtxuQFUCjWYJslQ1NIEOEhnFfBuh+xzCsadCcmwKp/N9A9AjQBrPlgXK7DgkNHvXCtVud2CV+mPzvGgE0EMM7P/k4lPYzvLvA4kAAAAAAAAAAB4AAAADAAAAIQeobX/mf2mUETFDzBY0TLHpl7jMjh3uI2Ubl8ecCa+a3VUCjWYJslQ1NIEOEhnFfBuh+xzCsadCcmwKp/N9A9AjQBq8Djt9lSrZVrt3Wd4hc1gsdQDY8p/kwa3mcRs515NYGvZc2GkAAAAAAAAAAB4AAAADAAAAAAEFIDG1rxQSHHqZfh9Y3HF4+LJYnjMP5ancjBZUn5DLvp7FAQaOAcBEIE6NDoNB/pVzOvyj2/GFLed2leKHlZeXxtgVn7+wK0i2rSDBYMJ6/MSIjFk/GN7i15hWV1CMA3BatvD2NdNSy69kmawBwEQgwWDCevzEiIxZPxje4teYVldQjANwWrbw9jXTUsuvZJmtIGg2CJCMi/6V448JkGihcBQDMhKe6wNICx5IBtT09DwsrCEHTo0Og0H+lXM6/KPb8YUt53aV4oeVl5fG2BWfv7ArSLY1AQ85UApUUg+u7+hOWk+VlZQ1IzB+8lOn3ccTGJpvWjLw8u8DiQAAAAAAAAAAKAAAAAQAAAAhB2g2CJCMi/6V448JkGihcBQDMhKe6wNICx5IBtT09DwsNQHXo1b7d7GOQ7yGFYDkXABEwIV+MbG952CD2QgMM9P/z/Zc2GkAAAAAAAAAACgAAAAEAAAAIQfBYMJ6/MSIjFk/GN7i15hWV1CMA3BatvD2NdNSy69kmVUCDzlQClRSD67v6E5aT5WVlDUjMH7yU6fdxxMYmm9aMvDXo1b7d7GOQ7yGFYDkXABEwIV+MbG952CD2QgMM9P/z8wYrggAAAAAAAAAACgAAAAEAAAAAA==",
  "psbtBase64Finalized": "cHNidP8BAP3qAQEAAAAH2Z764Zn8TVTlglqOM2ijlenrMpkVz7XYjcMRUH0YSDYAAAAAAP////8eyXKaGyU3OjDw/m4IebMRNqVPL4yYYYxGhidIoIxeeAEAAAAA/////7sN++ulm7pp484HpUNG+ATFQ/pG2CjtU50RIxrbqot7AgAAAAD/////pmKl/+v1i/PmXlNFbGfAKcwVSiQJdA2M03/e51WcXv0DAAAAAP/////TlDdc7iOzuZUUiMBANSkVeoWwWO3ANRVG2etIB+ih0wQAAAAA/////w0vfzSG7a78arksIffK+QCFxN5K2sSREG/YoOT1Y96jBQAAAAD/////l0QdmajWbxJKs8neJrh70ArrFUcFHIQqiBZcGwie6QIGAAAAAP////8FhAMAAAAAAAAXqRTZCUdEBMEko9BMP7/2H6pJz0PFi4eEAwAAAAAAABepFAVBJxIdN/MiZs2WfEhUBJdqZ63wh4QDAAAAAAAAIgAgukjj+YdEY5Q/kBkqRfGuiVt3k2KnYpr3rWqdeoNePU+EAwAAAAAAACJRILJyJ/XK3AVq/qSwK0uXuaAVF4YjTCatWI3M8TTniTHGhAMAAAAAAAAiUSBPc7VWE5nrOXtatBPgkMwMSP9wOmGv5Hz31Hoj1DuXiwAAAABPAQSIsh4AAAAAAAAAAAA6ki4p8MjrDbKmBITL3LYx9rEHycquP/3PPn0uwfa80AMSFIcV82HatoWmadQkMeXW0/lzQE2rnJ/RuVCyea12NATMGK4ITwEEiLIeAAAAAAAAAAAAbR1lbT3dkcGUwEVlo2A3AqIQFs7RSiZfOJgtYnXme2QD07rCMTp8ayHLsRsUsNEDQfkiwKQDqL2Mh/Dcgg81r24E9lzYaU8BBIiyHgAAAAAAAAAAAMsE/WOrNNkP5kZriA4qAsz4qGM3QxKZGviRGxqqtEM0AzbvIo/+m47/+6BSwy0zRmDdH4Nmz4/kSuWqZytrYpCVBPLvA4kAAQEg6AMAAAAAAAAXqRRWfNe0T586B8MTjze/mEtg+7ryQ4cBB/39AABHMEQCIB55VFwBHjSxuHK0sFfmYmLYaIHaan+FPn5XqaTRLG3BAiAaU4shdce3Fhx22hg5QiDzVK4nKfzByQK3TFnNeeAVMQFIMEUCIQDdMaJdDr6pDmeRAWjvfCs4PKJhks1chwnwKYC3ypBHKAIgN5XGXuDwc7gGRNDI/6HUKEV64q899bXYEXlJeB0QxGIBTGlSIQP29AdkvV1j8gCid4iDrPdelvFQlcmYJjwIcnDQyX5+fyEDX/t6vHAVngRp9LmJptXheFopBBaf8FCy9Gj+XT1du/IhA+FSTX9vxXqz6su2WbeHEGeApHXR20g5UsIxC36aOJdbU64AAQEg6AMAAAAAAAAXqRQOJrJdDOrm+c/z7azKoNGnDadgD4cBByMiACBG1IAKE5MzAZYIU5ntShcAtML9OMUhiMOjqR9yHzyWAAEI/f0ABABHMEQCIF92DCfnWYqegKKtrx2SXGfS5sJK7Hc+XM5W0jQVmrHlAiAc6X1WWWgauIHhCsycgCFYf4Q6FTNsOotvsu/AU5KLhQFIMEUCIQDfQfvL88f3cYJie8t80XlzuMpYwWuB3pjpTAKT3PM6wgIgYBcXGRT9+8gPkzqztark49NulodX5sB4j/vqrrxo4h4BaVIhAqWF8/q0m175U0bZMiIaIhvVXsGR8VUz4PJws1gldPA1IQLE94Zs/VmWvBBoqWMTyhXpzLXphFg6BzQN3a568BRgWyECI0UxvJEZo2p5Rula63SRXdCHx7RPUXuO7rc/iaD/GplTrgABASvoAwAAAAAAACIAINsEJ/GCK0d3Zw5mc8KK8C9todWv5xpx9ckGRHCyKfr9AQj9/QAEAEgwRQIhANOwP7d1UxROFBccextRejvzPfhzcLZeM38KUIRFYiYeAiBYW8CRO1atloFh00PzIdd/X5T/PPYlRZMvFQkjmhWjjgFHMEQCIGRBCJyMcaSSa0mlqxK/qobEtkq7xRmz0hfWj+cbxDvuAiA+F9B1LAtBHpR3wiwvRVamLaOeYAlcbgd0v0Kqj0kbTQFpUiEDUZ5XKrRoVg0fjQ+HaZ0JgwjhZpBfXcrkOQ8GD6qPHOMhA6BbwmORIh1oXhjar/NqHpXDT5lFElPBbNQmUNsninkRIQLoCgiIXDU2drggzcKQ5tgaCslaA+irv0u3ruv7cP60GFOuAAEBK+gDAAAAAAAAIlEgOUuU0GHXt3j+2KIEzgXtC0SVTsFiL5NPhBFOEXPzMCcBCP0KAQRA59qw0nfOfEGTMTa0Tcq+9ADx0OYioiVfmGfYB7yOAAjP0wdm021zbI33qjKRfeWdCDK0gcSZ8JF4dhNFMjBtRUCDsbt8bOWGjIpyPE01BZGJSAmxM1WG9gy/zMbdTii4Ywp0Y3sbJC5aOJVA25TyO8vt7px4ODDLKvr/Hydj29t7RCBzc9cjzgqH+P3WaEO+Etrp1Rk59oGI1a2WkgvvX1H0lq0gqojKGU/aQ0hlBLhqybcfEPxB3nsXE4dIOUJ/dOeMLVqsQcC8F+orv2/0a9XAw3gL4qY4gOt7t4KznthvKbmfSIKZThsXixtV08aqx7A540It/bnJ111Nb8kI6XQ+iLZR5I2DAAEBK+gDAAAAAAAAIlEgKbv69DhbENwrvnq01Q6Jzr6PUHlocnsZaJ4mOAg8xVsBCP0KAQRATY5QEotcYd1EmzUqbW89YR4WOweUyMLQV9JUAZV7sHpwQg4zbhj2slXVuGlXDAhwkcMMGjPwysCkDZDQUUxppEAKHgE/bVf7iySLKxmwizTBo81f9t5KzfGd1M4OAtQhVIVt1Wn0Zo8qusy7UM6BqdL1Pv37YnwssUz5LEGJo12nRCBkMVGrA/Ope7htNZLxL40lqAJtic1HNC/BtJxeLmNHi60gA1ydYy2y3bj5DPPM/JMYIryx8kVisjrgQavxLlS8pk2sQcGhB6QD96IH57H1UtP9P1X2SuQOFJ0NJvSGitf67JSet2N+N8rG5fIjR6to6Ha1WRF9lZfuezf7mDwqueUQI8l2AAEBK+gDAAAAAAAAIlEgFcWBUCb2pUsQGU/GmA8YZqAtnsEoUzx5l820KJvz7xYBCEIBQC6kru73wQdl7Xvc56xCm3OV4Iz1UIPfODhHgQVLCIDiRP6KLYR6jDNEMTItDuuk40hy72BS4gRP/3+odjzgwgsAAQEg6AMAAAAAAAAXqRQgs3CU2CpRNFH/DM2dsjq6Bbxe84cBB21IMEUCIQDSp6u2wFY8MADjdBKpuX9jUtF+QJYEVv6DDSZPBHT4tgIgONXNvoijGd5de3249X0KklJL6yQnKbRqYXrbUw8voNABIyEDNu8ij/6bjv/7oFLDLTNGYN0fg2bPj+RK5apnK2tikJWsAAEAaVIhAsxND6QRysJESG+OssCOA1/3QQ9GCjWcp/iBCZG9O0IJIQLXL9DQ2QKTQ0rV/KFg8njgPGFEl6pOQlz0VOLBMw+WqyEDRNiEE231UCAoZf+8YhjH+ciP5s45yUV5gZC62zinUvFTriICAsxND6QRysJESG+OssCOA1/3QQ9GCjWcp/iBCZG9O0IJFPLvA4kAAAAAAAAAAAAAAAAAAAAAIgIC1y/Q0NkCk0NK1fyhYPJ44DxhRJeqTkJc9FTiwTMPlqsUzBiuCAAAAAAAAAAAAAAAAAAAAAAiAgNE2IQTbfVQIChl/7xiGMf5yI/mzjnJRXmBkLrbOKdS8RT2XNhpAAAAAAAAAAAAAAAAAAAAAAABACIAICkrBSNRo8b4DVG65kLMiCEYKJPb7tq8j10OlndHYCbBAQFpUiEDLhH5hVJoX+kH8x+ecmDJBujecA8MPJ8vFBBiPc39GcAhA1RXV841zx7fsTueLEovnOAKuMNr7hK8ojN85YP9KK7IIQKjz7ZmX+RPdSC2obTeGk1GZDs4XrH9Hgq3DvuWVCl1VFOuIgICo8+2Zl/kT3UgtqG03hpNRmQ7OF6x/R4Ktw77llQpdVQU9lzYaQAAAAAAAAAACgAAAAEAAAAiAgMuEfmFUmhf6QfzH55yYMkG6N5wDww8ny8UEGI9zf0ZwBTy7wOJAAAAAAAAAAAKAAAAAQAAACICA1RXV841zx7fsTueLEovnOAKuMNr7hK8ojN85YP9KK7IFMwYrggAAAAAAAAAAAoAAAABAAAAAAEBaVIhAtbRFAvSwPkUyzDJkqovzSg/RxqSgc7snsbFvESOaGkAIQO4Vah1jtpoY2SERanTz7lTiKyhdGIa2Y8JmhxPkyb+xyEClfe1J9LqU3pNQoMEEKv0NAcxv5sg5UlyABkzuaojU2xTriICApX3tSfS6lN6TUKDBBCr9DQHMb+bIOVJcgAZM7mqI1NsFPZc2GkAAAAAAAAAABQAAAACAAAAIgIC1tEUC9LA+RTLMMmSqi/NKD9HGpKBzuyexsW8RI5oaQAU8u8DiQAAAAAAAAAAFAAAAAIAAAAiAgO4Vah1jtpoY2SERanTz7lTiKyhdGIa2Y8JmhxPkyb+xxTMGK4IAAAAAAAAAAAUAAAAAgAAAAABBSCOpYAW7Kvjz4SQ7GXXeRQVcfueXBLqyQXRgPDhApQzlAEG1QHARCCZ5DZVws89lQNiu2o6RGOA6At6H3DlKITrV2sTVtxuQK0gqG1/5n9plBExQ8wWNEyx6Ze4zI4d7iNlG5fHnAmvmt2sAsBEIJnkNlXCzz2VA2K7ajpEY4DoC3ofcOUohOtXaxNW3G5ArSA6CTUw6hWdc8j/kwme4Km7npqjngsrhGQtR7T4DUh8u6wCwEQgOgk1MOoVnXPI/5MJnuCpu56ao54LK4RkLUe0+A1IfLutIKhtf+Z/aZQRMUPMFjRMsemXuMyOHe4jZRuXx5wJr5rdrCEHOgk1MOoVnXPI/5MJnuCpu56ao54LK4RkLUe0+A1IfLtVAs+WBcrsOCQ0e9cK1W53YJX6Y/O8aATQQwzs/+TiU9jOvA47fZUq2Va7d1neIXNYLHUA2PKf5MGt5nEbOdeTWBrMGK4IAAAAAAAAAAAeAAAAAwAAACEHmeQ2VcLPPZUDYrtqOkRjgOgLeh9w5SiE61drE1bcbkBVAo1mCbJUNTSBDhIZxXwbofscwrGnQnJsCqfzfQPQI0Aaz5YFyuw4JDR71wrVbndglfpj87xoBNBDDOz/5OJT2M7y7wOJAAAAAAAAAAAeAAAAAwAAACEHqG1/5n9plBExQ8wWNEyx6Ze4zI4d7iNlG5fHnAmvmt1VAo1mCbJUNTSBDhIZxXwbofscwrGnQnJsCqfzfQPQI0AavA47fZUq2Va7d1neIXNYLHUA2PKf5MGt5nEbOdeTWBr2XNhpAAAAAAAAAAAeAAAAAwAAAAABBSAxta8UEhx6mX4fWNxxePiyWJ4zD+Wp3IwWVJ+Qy76exQEGjgHARCBOjQ6DQf6Vczr8o9vxhS3ndpXih5WXl8bYFZ+/sCtItq0gwWDCevzEiIxZPxje4teYVldQjANwWrbw9jXTUsuvZJmsAcBEIMFgwnr8xIiMWT8Y3uLXmFZXUIwDcFq28PY101LLr2SZrSBoNgiQjIv+leOPCZBooXAUAzISnusDSAseSAbU9PQ8LKwhB06NDoNB/pVzOvyj2/GFLed2leKHlZeXxtgVn7+wK0i2NQEPOVAKVFIPru/oTlpPlZWUNSMwfvJTp93HExiab1oy8PLvA4kAAAAAAAAAACgAAAAEAAAAIQdoNgiQjIv+leOPCZBooXAUAzISnusDSAseSAbU9PQ8LDUB16NW+3exjkO8hhWA5FwARMCFfjGxvedgg9kIDDPT/8/2XNhpAAAAAAAAAAAoAAAABAAAACEHwWDCevzEiIxZPxje4teYVldQjANwWrbw9jXTUsuvZJlVAg85UApUUg+u7+hOWk+VlZQ1IzB+8lOn3ccTGJpvWjLw16NW+3exjkO8hhWA5FwARMCFfjGxvedgg9kIDDPT/8/MGK4IAAAAAAAAAAAoAAAABAAAAAA=",
  "inputs": [
    {
      "hash": "d99efae199fc4d54e5825a8e3368a395e9eb329915cfb5d88dc311507d184836",
      "index": 0,
      "sequence": 4294967295
    },
    {
      "hash": "1ec9729a1b25373a30f0fe6e0879b31136a54f2f8c98618c46862748a08c5e78",
      "index": 1,
      "sequence": 4294967295
    },
    {
      "hash": "bb0dfbeba59bba69e3ce07a54346f804c543fa46d828ed539d11231adbaa8b7b",
      "index": 2,
      "sequence": 4294967295
    },
    {
      "hash": "a662a5ffebf58bf3e65e53456c67c029cc154a2409740d8cd37fdee7559c5efd",
      "index": 3,
      "sequence": 4294967295
    },
    {
      "hash": "d394375cee23b3b9951488c0403529157a85b058edc0351546d9eb4807e8a1d3",
      "index": 4,
      "sequence": 4294967295
    },
    {
      "hash": "0d2f7f3486edaefc6ab92c21f7caf90085c4de4adac491106fd8a0e4f563dea3",
      "index": 5,
      "sequence": 4294967295
    },
    {
      "hash": "97441d99a8d66f124ab3c9de26b87bd00aeb1547051c842a88165c1b089ee902",
      "index": 6,
      "sequence": 4294967295
    }
  ],
  "psbtInputs": [
    {
      "type": "p2sh",
      "partialSig": [
        {
          "pubkey": "03e1524d7f6fc57ab3eacbb659b787106780a475d1db483952c2310b7e9a38975b",
          "signature": "3045022100dd31a25d0ebea90e67910168ef7c2b383ca26192cd5c8709f02980b7ca90472802203795c65ee0f073b80644d0c8ffa1d428457ae2af3df5b5d8117949781d10c46201"
        },
        {
          "pubkey": "03f6f40764bd5d63f200a2778883acf75e96f15095c998263c087270d0c97e7e7f",
          "signature": "304402201e79545c011e34b1b872b4b057e66262d86881da6a7f853e7e57a9a4d12c6dc102201a538b2175c7b7161c76da18394220f354ae2729fcc1c902b74c59cd79e0153101"
        }
      ],
      "sighashType": 1,
      "redeemScript": "522103f6f40764bd5d63f200a2778883acf75e96f15095c998263c087270d0c97e7e7f21035ffb7abc70159e0469f4b989a6d5e1785a2904169ff050b2f468fe5d3d5dbbf22103e1524d7f6fc57ab3eacbb659b787106780a475d1db483952c2310b7e9a38975b53ae",
      "bip32Derivation": [
        {
          "masterFingerprint": "cc18ae08",
          "pubkey": "035ffb7abc70159e0469f4b989a6d5e1785a2904169ff050b2f468fe5d3d5dbbf2",
          "path": "0/0/1/0"
        },
        {
          "masterFingerprint": "f65cd869",
          "pubkey": "03e1524d7f6fc57ab3eacbb659b787106780a475d1db483952c2310b7e9a38975b",
          "path": "0/0/1/0"
        },
        {
          "masterFingerprint": "f2ef0389",
          "pubkey": "03f6f40764bd5d63f200a2778883acf75e96f15095c998263c087270d0c97e7e7f",
          "path": "0/0/1/0"
        }
      ],
      "witnessUtxo": {
        "value": "1000",
        "script": "a914567cd7b44f9f3a07c3138f37bf984b60fbbaf24387"
      }
    },
    {
      "type": "p2shP2wsh",
      "witnessUtxo": {
        "script": "a9140e26b25d0ceae6f9cff3edaccaa0d1a70da7600f87",
        "value": "1000"
      },
      "partialSig": [
        {
          "pubkey": "02234531bc9119a36a7946e95aeb74915dd087c7b44f517b8eeeb73f89a0ff1a99",
          "signature": "3045022100df41fbcbf3c7f77182627bcb7cd17973b8ca58c16b81de98e94c0293dcf33ac202206017171914fdfbc80f933ab3b5aae4e3d36e968757e6c0788ffbeaaebc68e21e01"
        },
        {
          "pubkey": "02a585f3fab49b5ef95346d932221a221bd55ec191f15533e0f270b3582574f035",
          "signature": "304402205f760c27e7598a9e80a2adaf1d925c67d2e6c24aec773e5cce56d234159ab1e502201ce97d5659681ab881e10acc9c8021587f843a15336c3a8b6fb2efc053928b8501"
        }
      ],
      "sighashType": 1,
      "redeemScript": "002046d4800a1393330196085399ed4a1700b4c2fd38c52188c3a3a91f721f3c9600",
      "witnessScript": "522102a585f3fab49b5ef95346d932221a221bd55ec191f15533e0f270b3582574f0352102c4f7866cfd5996bc1068a96313ca15e9ccb5e984583a07340dddae7af014605b2102234531bc9119a36a7946e95aeb74915dd087c7b44f517b8eeeb73f89a0ff1a9953ae",
      "bip32Derivation": [
        {
          "masterFingerprint": "f65cd869",
          "pubkey": "02234531bc9119a36a7946e95aeb74915dd087c7b44f517b8eeeb73f89a0ff1a99",
          "path": "0/0/11/1"
        },
        {
          "masterFingerprint": "f2ef0389",
          "pubkey": "02a585f3fab49b5ef95346d932221a221bd55ec191f15533e0f270b3582574f035",
          "path": "0/0/11/1"
        },
        {
          "masterFingerprint": "cc18ae08",
          "pubkey": "02c4f7866cfd5996bc1068a96313ca15e9ccb5e984583a07340dddae7af014605b",
          "path": "0/0/11/1"
        }
      ]
    },
    {
      "type": "p2wsh",
      "witnessUtxo": {
        "script": "0020db0427f1822b4777670e6673c28af02f6da1d5afe71a71f5c9064470b229fafd",
        "value": "1000"
      },
      "partialSig": [
        {
          "pubkey": "02e80a08885c353676b820cdc290e6d81a0ac95a03e8abbf4bb7aeebfb70feb418",
          "signature": "304402206441089c8c71a4926b49a5ab12bfaa86c4b64abbc519b3d217d68fe71bc43bee02203e17d0752c0b411e9477c22c2f4556a62da39e60095c6e0774bf42aa8f491b4d01"
        },
        {
          "pubkey": "03519e572ab468560d1f8d0f87699d098308e166905f5dcae4390f060faa8f1ce3",
          "signature": "3045022100d3b03fb77553144e14171c7b1b517a3bf33df87370b65e337f0a50844562261e0220585bc0913b56ad968161d343f321d77f5f94ff3cf62545932f1509239a15a38e01"
        }
      ],
      "sighashType": 1,
      "witnessScript": "522103519e572ab468560d1f8d0f87699d098308e166905f5dcae4390f060faa8f1ce32103a05bc26391221d685e18daaff36a1e95c34f99451253c16cd42650db278a79112102e80a08885c353676b820cdc290e6d81a0ac95a03e8abbf4bb7aeebfb70feb41853ae",
      "bip32Derivation": [
        {
          "masterFingerprint": "f65cd869",
          "pubkey": "02e80a08885c353676b820cdc290e6d81a0ac95a03e8abbf4bb7aeebfb70feb418",
          "path": "0/0/21/2"
        },
        {
          "masterFingerprint": "f2ef0389",
          "pubkey": "03519e572ab468560d1f8d0f87699d098308e166905f5dcae4390f060faa8f1ce3",
          "path": "0/0/21/2"
        },
        {
          "masterFingerprint": "cc18ae08",
          "pubkey": "03a05bc26391221d685e18daaff36a1e95c34f99451253c16cd42650db278a7911",
          "path": "0/0/21/2"
        }
      ]
    },
    {
      "type": "p2tr",
      "witnessUtxo": {
        "script": "5120394b94d061d7b778fed8a204ce05ed0b44954ec1622f934f84114e1173f33027",
        "value": "1000"
      },
      "sighashType": 0,
      "tapScriptSig": [
        {
          "pubkey": "7373d723ce0a87f8fdd66843be12dae9d51939f68188d5ad96920bef5f51f496",
          "leafHash": "83d7f98e9ef0f7336a06f4a0115183a9f996cbac1228e9aa7638f447f0249f30",
          "signature": "83b1bb7c6ce5868c8a723c4d350591894809b1335586f60cbfccc6dd4e28b8630a74637b1b242e5a389540db94f23bcbedee9c783830cb2afaff1f2763dbdb7b"
        },
        {
          "pubkey": "aa88ca194fda43486504b86ac9b71f10fc41de7b1713874839427f74e78c2d5a",
          "leafHash": "83d7f98e9ef0f7336a06f4a0115183a9f996cbac1228e9aa7638f447f0249f30",
          "signature": "e7dab0d277ce7c41933136b44dcabef400f1d0e622a2255f9867d807bc8e0008cfd30766d36d736c8df7aa32917de59d0832b481c499f0917876134532306d45"
        }
      ],
      "tapLeafScript": [
        {
          "controlBlock": "c0bc17ea2bbf6ff46bd5c0c3780be2a63880eb7bb782b39ed86f29b99f4882994e1b178b1b55d3c6aac7b039e3422dfdb9c9d75d4d6fc908e9743e88b651e48d83",
          "script": "207373d723ce0a87f8fdd66843be12dae9d51939f68188d5ad96920bef5f51f496ad20aa88ca194fda43486504b86ac9b71f10fc41de7b1713874839427f74e78c2d5aac",
          "leafVersion": 192
        }
      ],
      "tapBip32Derivation": [
        {
          "masterFingerprint": "f2ef0389",
          "pubkey": "7373d723ce0a87f8fdd66843be12dae9d51939f68188d5ad96920bef5f51f496",
          "path": "0/0/31/3",
          "leafHashes": [
            "83d7f98e9ef0f7336a06f4a0115183a9f996cbac1228e9aa7638f447f0249f30"
          ]
        },
        {
          "masterFingerprint": "f65cd869",
          "pubkey": "aa88ca194fda43486504b86ac9b71f10fc41de7b1713874839427f74e78c2d5a",
          "path": "0/0/31/3",
          "leafHashes": [
            "83d7f98e9ef0f7336a06f4a0115183a9f996cbac1228e9aa7638f447f0249f30"
          ]
        }
      ]
    },
    {
      "type": "p2trMusig2",
      "witnessUtxo": {
        "script": "512029bbfaf4385b10dc2bbe7ab4d50e89cebe8f507968727b19689e2638083cc55b",
        "value": "1000"
      },
      "sighashType": 0,
      "tapScriptSig": [
        {
          "pubkey": "035c9d632db2ddb8f90cf3ccfc931822bcb1f24562b23ae041abf12e54bca64d",
          "leafHash": "429069c8320ff5f1c8ac2a0b1047ff1450b8c0d325e1d12f1c52684d91a3b9fb",
          "signature": "4d8e50128b5c61dd449b352a6d6f3d611e163b0794c8c2d057d25401957bb07a70420e336e18f6b255d5b869570c087091c30c1a33f0cac0a40d90d0514c69a4"
        },
        {
          "pubkey": "643151ab03f3a97bb86d3592f12f8d25a8026d89cd47342fc1b49c5e2e63478b",
          "leafHash": "429069c8320ff5f1c8ac2a0b1047ff1450b8c0d325e1d12f1c52684d91a3b9fb",
          "signature": "0a1e013f6d57fb8b248b2b19b08b34c1a3cd5ff6de4acdf19dd4ce0e02d42154856dd569f4668f2abaccbb50ce81a9d2f53efdfb627c2cb14cf92c4189a35da7"
        }
      ],
      "tapLeafScript": [
        {
          "controlBlock": "c1a107a403f7a207e7b1f552d3fd3f55f64ae40e149d0d26f4868ad7faec949eb7637e37cac6e5f22347ab68e876b559117d9597ee7b37fb983c2ab9e51023c976",
          "script": "20643151ab03f3a97bb86d3592f12f8d25a8026d89cd47342fc1b49c5e2e63478bad20035c9d632db2ddb8f90cf3ccfc931822bcb1f24562b23ae041abf12e54bca64dac",
          "leafVersion": 192
        }
      ],
      "tapBip32Derivation": [
        {
          "masterFingerprint": "cc18ae08",
          "pubkey": "035c9d632db2ddb8f90cf3ccfc931822bcb1f24562b23ae041abf12e54bca64d",
          "path": "0/0/41/4",
          "leafHashes": [
            "429069c8320ff5f1c8ac2a0b1047ff1450b8c0d325e1d12f1c52684d91a3b9fb"
          ]
        },
        {
          "masterFingerprint": "f2ef0389",
          "pubkey": "643151ab03f3a97bb86d3592f12f8d25a8026d89cd47342fc1b49c5e2e63478b",
          "path": "0/0/41/4",
          "leafHashes": [
            "429069c8320ff5f1c8ac2a0b1047ff1450b8c0d325e1d12f1c52684d91a3b9fb"
          ]
        }
      ]
    },
    {
      "type": "taprootKeyPathSpend",
      "witnessUtxo": {
        "script": "512015c5815026f6a54b10194fc6980f1866a02d9ec128533c7997cdb4289bf3ef16",
        "value": "1000"
      },
      "sighashType": 0,
      "tapBip32Derivation": [
        {
          "masterFingerprint": "f65cd869",
          "pubkey": "0fdea69e40a3adef3cdc7fa6f3af02f4c9d9e3254503c96a6a2b4aa66e778171",
          "path": "0/0/41/5",
          "leafHashes": []
        },
        {
          "masterFingerprint": "f2ef0389",
          "pubkey": "1d978a17486ff9e47c82990269e531fc63981419d4ce73ee8bd2c99661c53953",
          "path": "0/0/41/5",
          "leafHashes": []
        }
      ],
      "tapInternalKey": "eb5ad29a85aed24de2880e774caaf624f9cb1be09c67ed4aefbb9b7bc12ddf1a",
      "tapMerkleRoot": "b2a497ea4d0b52f5011ae135d0bbe0d9ebd777bb28e733cbcc13134b73106a1a",
      "unknownKeyVals": [
        {
          "key": "fc05424954474f0115c5815026f6a54b10194fc6980f1866a02d9ec128533c7997cdb4289bf3ef16eb5ad29a85aed24de2880e774caaf624f9cb1be09c67ed4aefbb9b7bc12ddf1a",
          "value": "021d978a17486ff9e47c82990269e531fc63981419d4ce73ee8bd2c99661c53953020fdea69e40a3adef3cdc7fa6f3af02f4c9d9e3254503c96a6a2b4aa66e778171"
        },
        {
          "key": "fc05424954474f02020fdea69e40a3adef3cdc7fa6f3af02f4c9d9e3254503c96a6a2b4aa66e77817115c5815026f6a54b10194fc6980f1866a02d9ec128533c7997cdb4289bf3ef16",
          "value": "02826949740dff45d408b1f19d94c720f53411e02c525b28ab3c593b6b530fe0370374b8a0ffcaaaee6b772dac5f7c23ef33670b32ec77c6d41efb3c36df2165a094"
        },
        {
          "key": "fc05424954474f02021d978a17486ff9e47c82990269e531fc63981419d4ce73ee8bd2c99661c5395315c5815026f6a54b10194fc6980f1866a02d9ec128533c7997cdb4289bf3ef16",
          "value": "03a4aaf46f3a0bc39a73855fa875b2f2f04bdb06235afbaedf857b593dddc63cb402cdb7f1a93ec526282198d834423371757e8f43932d03b9f43c3f7378300ae508"
        },
        {
          "key": "fc05424954474f03020fdea69e40a3adef3cdc7fa6f3af02f4c9d9e3254503c96a6a2b4aa66e77817115c5815026f6a54b10194fc6980f1866a02d9ec128533c7997cdb4289bf3ef16",
          "value": "fbdc39c3b8ffca4e6caf3298fa1a4be546b99163c2f21bd374d2254ec5b3c0f4"
        },
        {
          "key": "fc05424954474f03021d978a17486ff9e47c82990269e531fc63981419d4ce73ee8bd2c99661c5395315c5815026f6a54b10194fc6980f1866a02d9ec128533c7997cdb4289bf3ef16",
          "value": "1cd8a0c0598b0d88f889fdf9a3140f8f088e2187803a2faaee3f13c0163eb76c"
        }
      ],
      "musig2Participants": {
        "tapOutputKey": "15c5815026f6a54b10194fc6980f1866a02d9ec128533c7997cdb4289bf3ef16",
        "tapInternalKey": "eb5ad29a85aed24de2880e774caaf624f9cb1be09c67ed4aefbb9b7bc12ddf1a",
        "participantPubKeys": [
          "021d978a17486ff9e47c82990269e531fc63981419d4ce73ee8bd2c99661c53953",
          "020fdea69e40a3adef3cdc7fa6f3af02f4c9d9e3254503c96a6a2b4aa66e778171"
        ]
      },
      "musig2Nonces": [
        {
          "participantPubKey": "020fdea69e40a3adef3cdc7fa6f3af02f4c9d9e3254503c96a6a2b4aa66e778171",
          "tapOutputKey": "15c5815026f6a54b10194fc6980f1866a02d9ec128533c7997cdb4289bf3ef16",
          "pubNonce": "02826949740dff45d408b1f19d94c720f53411e02c525b28ab3c593b6b530fe0370374b8a0ffcaaaee6b772dac5f7c23ef33670b32ec77c6d41efb3c36df2165a094"
        },
        {
          "participantPubKey": "021d978a17486ff9e47c82990269e531fc63981419d4ce73ee8bd2c99661c53953",
          "tapOutputKey": "15c5815026f6a54b10194fc6980f1866a02d9ec128533c7997cdb4289bf3ef16",
          "pubNonce": "03a4aaf46f3a0bc39a73855fa875b2f2f04bdb06235afbaedf857b593dddc63cb402cdb7f1a93ec526282198d834423371757e8f43932d03b9f43c3f7378300ae508"
        }
      ],
      "musig2PartialSigs": [
        {
          "participantPubKey": "020fdea69e40a3adef3cdc7fa6f3af02f4c9d9e3254503c96a6a2b4aa66e778171",
          "tapOutputKey": "15c5815026f6a54b10194fc6980f1866a02d9ec128533c7997cdb4289bf3ef16",
          "partialSig": "fbdc39c3b8ffca4e6caf3298fa1a4be546b99163c2f21bd374d2254ec5b3c0f4"
        },
        {
          "participantPubKey": "021d978a17486ff9e47c82990269e531fc63981419d4ce73ee8bd2c99661c53953",
          "tapOutputKey": "15c5815026f6a54b10194fc6980f1866a02d9ec128533c7997cdb4289bf3ef16",
          "partialSig": "1cd8a0c0598b0d88f889fdf9a3140f8f088e2187803a2faaee3f13c0163eb76c"
        }
      ]
    },
    {
      "type": "p2shP2pk",
      "partialSig": [
        {
          "pubkey": "0336ef228ffe9b8efffba052c32d334660dd1f8366cf8fe44ae5aa672b6b629095",
          "signature": "3045022100d2a7abb6c0563c3000e37412a9b97f6352d17e40960456fe830d264f0474f8b6022038d5cdbe88a319de5d7b7db8f57d0a92524beb242729b46a617adb530f2fa0d001"
        }
      ],
      "sighashType": 1,
      "redeemScript": "210336ef228ffe9b8efffba052c32d334660dd1f8366cf8fe44ae5aa672b6b629095ac",
      "witnessUtxo": {
        "value": "1000",
        "script": "a91420b37094d82a513451ff0ccd9db23aba05bc5ef387"
      }
    }
  ],
  "psbtInputsFinalized": [
    {
      "type": "p2sh",
      "witnessUtxo": {
        "script": "a914567cd7b44f9f3a07c3138f37bf984b60fbbaf24387",
        "value": "1000"
      },
      "finalScriptSig": "0047304402201e79545c011e34b1b872b4b057e66262d86881da6a7f853e7e57a9a4d12c6dc102201a538b2175c7b7161c76da18394220f354ae2729fcc1c902b74c59cd79e0153101483045022100dd31a25d0ebea90e67910168ef7c2b383ca26192cd5c8709f02980b7ca90472802203795c65ee0f073b80644d0c8ffa1d428457ae2af3df5b5d8117949781d10c462014c69522103f6f40764bd5d63f200a2778883acf75e96f15095c998263c087270d0c97e7e7f21035ffb7abc70159e0469f4b989a6d5e1785a2904169ff050b2f468fe5d3d5dbbf22103e1524d7f6fc57ab3eacbb659b787106780a475d1db483952c2310b7e9a38975b53ae"
    },
    {
      "type": "p2shP2wsh",
      "witnessUtxo": {
        "script": "a9140e26b25d0ceae6f9cff3edaccaa0d1a70da7600f87",
        "value": "1000"
      },
      "finalScriptSig": "22002046d4800a1393330196085399ed4a1700b4c2fd38c52188c3a3a91f721f3c9600",
      "finalScriptWitness": "040047304402205f760c27e7598a9e80a2adaf1d925c67d2e6c24aec773e5cce56d234159ab1e502201ce97d5659681ab881e10acc9c8021587f843a15336c3a8b6fb2efc053928b8501483045022100df41fbcbf3c7f77182627bcb7cd17973b8ca58c16b81de98e94c0293dcf33ac202206017171914fdfbc80f933ab3b5aae4e3d36e968757e6c0788ffbeaaebc68e21e0169522102a585f3fab49b5ef95346d932221a221bd55ec191f15533e0f270b3582574f0352102c4f7866cfd5996bc1068a96313ca15e9ccb5e984583a07340dddae7af014605b2102234531bc9119a36a7946e95aeb74915dd087c7b44f517b8eeeb73f89a0ff1a9953ae"
    },
    {
      "type": "p2wsh",
      "witnessUtxo": {
        "script": "0020db0427f1822b4777670e6673c28af02f6da1d5afe71a71f5c9064470b229fafd",
        "value": "1000"
      },
      "finalScriptWitness": "0400483045022100d3b03fb77553144e14171c7b1b517a3bf33df87370b65e337f0a50844562261e0220585bc0913b56ad968161d343f321d77f5f94ff3cf62545932f1509239a15a38e0147304402206441089c8c71a4926b49a5ab12bfaa86c4b64abbc519b3d217d68fe71bc43bee02203e17d0752c0b411e9477c22c2f4556a62da39e60095c6e0774bf42aa8f491b4d0169522103519e572ab468560d1f8d0f87699d098308e166905f5dcae4390f060faa8f1ce32103a05bc26391221d685e18daaff36a1e95c34f99451253c16cd42650db278a79112102e80a08885c353676b820cdc290e6d81a0ac95a03e8abbf4bb7aeebfb70feb41853ae"
    },
    {
      "type": "p2tr",
      "witnessUtxo": {
        "script": "5120394b94d061d7b778fed8a204ce05ed0b44954ec1622f934f84114e1173f33027",
        "value": "1000"
      },
      "finalScriptWitness": "0440e7dab0d277ce7c41933136b44dcabef400f1d0e622a2255f9867d807bc8e0008cfd30766d36d736c8df7aa32917de59d0832b481c499f0917876134532306d454083b1bb7c6ce5868c8a723c4d350591894809b1335586f60cbfccc6dd4e28b8630a74637b1b242e5a389540db94f23bcbedee9c783830cb2afaff1f2763dbdb7b44207373d723ce0a87f8fdd66843be12dae9d51939f68188d5ad96920bef5f51f496ad20aa88ca194fda43486504b86ac9b71f10fc41de7b1713874839427f74e78c2d5aac41c0bc17ea2bbf6ff46bd5c0c3780be2a63880eb7bb782b39ed86f29b99f4882994e1b178b1b55d3c6aac7b039e3422dfdb9c9d75d4d6fc908e9743e88b651e48d83"
    },
    {
      "type": "p2trMusig2",
      "witnessUtxo": {
        "script": "512029bbfaf4385b10dc2bbe7ab4d50e89cebe8f507968727b19689e2638083cc55b",
        "value": "1000"
      },
      "finalScriptWitness": "04404d8e50128b5c61dd449b352a6d6f3d611e163b0794c8c2d057d25401957bb07a70420e336e18f6b255d5b869570c087091c30c1a33f0cac0a40d90d0514c69a4400a1e013f6d57fb8b248b2b19b08b34c1a3cd5ff6de4acdf19dd4ce0e02d42154856dd569f4668f2abaccbb50ce81a9d2f53efdfb627c2cb14cf92c4189a35da74420643151ab03f3a97bb86d3592f12f8d25a8026d89cd47342fc1b49c5e2e63478bad20035c9d632db2ddb8f90cf3ccfc931822bcb1f24562b23ae041abf12e54bca64dac41c1a107a403f7a207e7b1f552d3fd3f55f64ae40e149d0d26f4868ad7faec949eb7637e37cac6e5f22347ab68e876b559117d9597ee7b37fb983c2ab9e51023c976"
    },
    {
      "type": "taprootKeyPathSpend",
      "witnessUtxo": {
        "script": "512015c5815026f6a54b10194fc6980f1866a02d9ec128533c7997cdb4289bf3ef16",
        "value": "1000"
      },
      "unknownKeyVals": [],
      "finalScriptWitness": "01402ea4aeeef7c10765ed7bdce7ac429b7395e08cf55083df38384781054b0880e244fe8a2d847a8c334431322d0eeba4e34872ef6052e2044fff7fa8763ce0c20b"
    },
    {
      "type": "p2shP2pk",
      "witnessUtxo": {
        "script": "a91420b37094d82a513451ff0ccd9db23aba05bc5ef387",
        "value": "1000"
      },
      "finalScriptSig": "483045022100d2a7abb6c0563c3000e37412a9b97f6352d17e40960456fe830d264f0474f8b6022038d5cdbe88a319de5d7b7db8f57d0a92524beb242729b46a617adb530f2fa0d00123210336ef228ffe9b8efffba052c32d334660dd1f8366cf8fe44ae5aa672b6b629095ac"
    }
  ],
  "outputs": [
    {
      "script": "a914d909474404c124a3d04c3fbff61faa49cf43c58b87",
      "value": "900",
      "address": "3MUbfqvBeD7g1R3b9g8ZQxDwjR7SjQWciv"
    },
    {
      "script": "a914054127121d37f32266cd967c485404976a67adf087",
      "value": "900",
      "address": "32AoMPMpT2ErEqupk6CJvrEMrj6TzmZu8V"
    },
    {
      "script": "0020ba48e3f9874463943f90192a45f1ae895b779362a7629af7ad6a9d7a835e3d4f",
      "value": "900",
      "address": "bc1qhfyw87v8g33eg0usry4ytudw39dh0ymz5a3f4aadd2wh4q67848sqay5xu"
    },
    {
      "script": "5120b27227f5cadc056afea4b02b4b97b9a0151786234c26ad588dccf134e78931c6",
      "value": "900",
      "address": "bc1pkfez0aw2mszk4l4ykq45h9ae5q230p3rfsn26kydencnfeufx8rq23ty2z"
    },
    {
      "script": "51204f73b5561399eb397b5ab413e090cc0c48ff703a61afe47cf7d47a23d43b978b",
      "value": "900",
      "address": "bc1pfaem24snn84nj766ksf7pyxvp3y07up6vxh7gl8h63az84pmj79sehcc5d"
    }
  ],
  "psbtOutputs": [
    {
      "redeemScript": "522102cc4d0fa411cac244486f8eb2c08e035ff7410f460a359ca7f8810991bd3b42092102d72fd0d0d90293434ad5fca160f278e03c614497aa4e425cf454e2c1330f96ab210344d884136df550202865ffbc6218c7f9c88fe6ce39c945798190badb38a752f153ae",
      "bip32Derivation": [
        {
          "masterFingerprint": "f2ef0389",
          "pubkey": "02cc4d0fa411cac244486f8eb2c08e035ff7410f460a359ca7f8810991bd3b4209",
          "path": "0/0/0/0"
        },
        {
          "masterFingerprint": "cc18ae08",
          "pubkey": "02d72fd0d0d90293434ad5fca160f278e03c614497aa4e425cf454e2c1330f96ab",
          "path": "0/0/0/0"
        },
        {
          "masterFingerprint": "f65cd869",
          "pubkey": "0344d884136df550202865ffbc6218c7f9c88fe6ce39c945798190badb38a752f1",
          "path": "0/0/0/0"
        }
      ]
    },
    {
      "redeemScript": "0020292b052351a3c6f80d51bae642cc8821182893dbeedabc8f5d0e9677476026c1",
      "witnessScript": "5221032e11f98552685fe907f31f9e7260c906e8de700f0c3c9f2f1410623dcdfd19c02103545757ce35cf1edfb13b9e2c4a2f9ce00ab8c36bee12bca2337ce583fd28aec82102a3cfb6665fe44f7520b6a1b4de1a4d46643b385eb1fd1e0ab70efb965429755453ae",
      "bip32Derivation": [
        {
          "masterFingerprint": "f65cd869",
          "pubkey": "02a3cfb6665fe44f7520b6a1b4de1a4d46643b385eb1fd1e0ab70efb9654297554",
          "path": "0/0/10/1"
        },
        {
          "masterFingerprint": "f2ef0389",
          "pubkey": "032e11f98552685fe907f31f9e7260c906e8de700f0c3c9f2f1410623dcdfd19c0",
          "path": "0/0/10/1"
        },
        {
          "masterFingerprint": "cc18ae08",
          "pubkey": "03545757ce35cf1edfb13b9e2c4a2f9ce00ab8c36bee12bca2337ce583fd28aec8",
          "path": "0/0/10/1"
        }
      ]
    },
    {
      "witnessScript": "522102d6d1140bd2c0f914cb30c992aa2fcd283f471a9281ceec9ec6c5bc448e6869002103b855a8758eda6863648445a9d3cfb95388aca174621ad98f099a1c4f9326fec7210295f7b527d2ea537a4d42830410abf4340731bf9b20e54972001933b9aa23536c53ae",
      "bip32Derivation": [
        {
          "masterFingerprint": "f65cd869",
          "pubkey": "0295f7b527d2ea537a4d42830410abf4340731bf9b20e54972001933b9aa23536c",
          "path": "0/0/20/2"
        },
        {
          "masterFingerprint": "f2ef0389",
          "pubkey": "02d6d1140bd2c0f914cb30c992aa2fcd283f471a9281ceec9ec6c5bc448e686900",
          "path": "0/0/20/2"
        },
        {
          "masterFingerprint": "cc18ae08",
          "pubkey": "03b855a8758eda6863648445a9d3cfb95388aca174621ad98f099a1c4f9326fec7",
          "path": "0/0/20/2"
        }
      ]
    },
    {
      "tapInternalKey": "8ea58016ecabe3cf8490ec65d779141571fb9e5c12eac905d180f0e102943394",
      "tapTree": {
        "leaves": [
          {
            "depth": 1,
            "leafVersion": 192,
            "script": "2099e43655c2cf3d950362bb6a3a446380e80b7a1f70e52884eb576b1356dc6e40ad20a86d7fe67f6994113143cc16344cb1e997b8cc8e1dee23651b97c79c09af9addac"
          },
          {
            "depth": 2,
            "leafVersion": 192,
            "script": "2099e43655c2cf3d950362bb6a3a446380e80b7a1f70e52884eb576b1356dc6e40ad203a093530ea159d73c8ff93099ee0a9bb9e9aa39e0b2b84642d47b4f80d487cbbac"
          },
          {
            "depth": 2,
            "leafVersion": 192,
            "script": "203a093530ea159d73c8ff93099ee0a9bb9e9aa39e0b2b84642d47b4f80d487cbbad20a86d7fe67f6994113143cc16344cb1e997b8cc8e1dee23651b97c79c09af9addac"
          }
        ]
      },
      "tapBip32Derivation": [
        {
          "masterFingerprint": "cc18ae08",
          "pubkey": "3a093530ea159d73c8ff93099ee0a9bb9e9aa39e0b2b84642d47b4f80d487cbb",
          "path": "0/0/30/3",
          "leafHashes": [
            "cf9605caec3824347bd70ad56e776095fa63f3bc6804d0430cecffe4e253d8ce",
            "bc0e3b7d952ad956bb7759de2173582c7500d8f29fe4c1ade6711b39d793581a"
          ]
        },
        {
          "masterFingerprint": "f2ef0389",
          "pubkey": "99e43655c2cf3d950362bb6a3a446380e80b7a1f70e52884eb576b1356dc6e40",
          "path": "0/0/30/3",
          "leafHashes": [
            "8d6609b2543534810e1219c57c1ba1fb1cc2b1a742726c0aa7f37d03d023401a",
            "cf9605caec3824347bd70ad56e776095fa63f3bc6804d0430cecffe4e253d8ce"
          ]
        },
        {
          "masterFingerprint": "f65cd869",
          "pubkey": "a86d7fe67f6994113143cc16344cb1e997b8cc8e1dee23651b97c79c09af9add",
          "path": "0/0/30/3",
          "leafHashes": [
            "8d6609b2543534810e1219c57c1ba1fb1cc2b1a742726c0aa7f37d03d023401a",
            "bc0e3b7d952ad956bb7759de2173582c7500d8f29fe4c1ade6711b39d793581a"
          ]
        }
      ]
    },
    {
      "tapInternalKey": "31b5af14121c7a997e1f58dc7178f8b2589e330fe5a9dc8c16549f90cbbe9ec5",
      "tapTree": {
        "leaves": [
          {
            "depth": 1,
            "leafVersion": 192,
            "script": "204e8d0e8341fe95733afca3dbf1852de77695e287959797c6d8159fbfb02b48b6ad20c160c27afcc4888c593f18dee2d7985657508c03705ab6f0f635d352cbaf6499ac"
          },
          {
            "depth": 1,
            "leafVersion": 192,
            "script": "20c160c27afcc4888c593f18dee2d7985657508c03705ab6f0f635d352cbaf6499ad20683608908c8bfe95e38f099068a170140332129eeb03480b1e4806d4f4f43c2cac"
          }
        ]
      },
      "tapBip32Derivation": [
        {
          "masterFingerprint": "f2ef0389",
          "pubkey": "4e8d0e8341fe95733afca3dbf1852de77695e287959797c6d8159fbfb02b48b6",
          "path": "0/0/40/4",
          "leafHashes": [
            "0f39500a54520faeefe84e5a4f9595943523307ef253a7ddc713189a6f5a32f0"
          ]
        },
        {
          "masterFingerprint": "f65cd869",
          "pubkey": "683608908c8bfe95e38f099068a170140332129eeb03480b1e4806d4f4f43c2c",
          "path": "0/0/40/4",
          "leafHashes": [
            "d7a356fb77b18e43bc861580e45c0044c0857e31b1bde76083d9080c33d3ffcf"
          ]
        },
        {
          "masterFingerprint": "cc18ae08",
          "pubkey": "c160c27afcc4888c593f18dee2d7985657508c03705ab6f0f635d352cbaf6499",
          "path": "0/0/40/4",
          "leafHashes": [
            "0f39500a54520faeefe84e5a4f9595943523307ef253a7ddc713189a6f5a32f0",
            "d7a356fb77b18e43bc861580e45c0044c0857e31b1bde76083d9080c33d3ffcf"
          ]
        }
      ]
    }
  ],
  "extractedTransaction": "01000000000107d99efae199fc4d54e5825a8e3368a395e9eb329915cfb5d88dc311507d18483600000000fdfd000047304402201e79545c011e34b1b872b4b057e66262d86881da6a7f853e7e57a9a4d12c6dc102201a538b2175c7b7161c76da18394220f354ae2729fcc1c902b74c59cd79e0153101483045022100dd31a25d0ebea90e67910168ef7c2b383ca26192cd5c8709f02980b7ca90472802203795c65ee0f073b80644d0c8ffa1d428457ae2af3df5b5d8117949781d10c462014c69522103f6f40764bd5d63f200a2778883acf75e96f15095c998263c087270d0c97e7e7f21035ffb7abc70159e0469f4b989a6d5e1785a2904169ff050b2f468fe5d3d5dbbf22103e1524d7f6fc57ab3eacbb659b787106780a475d1db483952c2310b7e9a38975b53aeffffffff1ec9729a1b25373a30f0fe6e0879b31136a54f2f8c98618c46862748a08c5e78010000002322002046d4800a1393330196085399ed4a1700b4c2fd38c52188c3a3a91f721f3c9600ffffffffbb0dfbeba59bba69e3ce07a54346f804c543fa46d828ed539d11231adbaa8b7b0200000000ffffffffa662a5ffebf58bf3e65e53456c67c029cc154a2409740d8cd37fdee7559c5efd0300000000ffffffffd394375cee23b3b9951488c0403529157a85b058edc0351546d9eb4807e8a1d30400000000ffffffff0d2f7f3486edaefc6ab92c21f7caf90085c4de4adac491106fd8a0e4f563dea30500000000ffffffff97441d99a8d66f124ab3c9de26b87bd00aeb1547051c842a88165c1b089ee902060000006d483045022100d2a7abb6c0563c3000e37412a9b97f6352d17e40960456fe830d264f0474f8b6022038d5cdbe88a319de5d7b7db8f57d0a92524beb242729b46a617adb530f2fa0d00123210336ef228ffe9b8efffba052c32d334660dd1f8366cf8fe44ae5aa672b6b629095acffffffff05840300000000000017a914d909474404c124a3d04c3fbff61faa49cf43c58b87840300000000000017a914054127121d37f32266cd967c485404976a67adf0878403000000000000220020ba48e3f9874463943f90192a45f1ae895b779362a7629af7ad6a9d7a835e3d4f8403000000000000225120b27227f5cadc056afea4b02b4b97b9a0151786234c26ad588dccf134e78931c684030000000000002251204f73b5561399eb397b5ab413e090cc0c48ff703a61afe47cf7d47a23d43b978b00040047304402205f760c27e7598a9e80a2adaf1d925c67d2e6c24aec773e5cce56d234159ab1e502201ce97d5659681ab881e10acc9c8021587f843a15336c3a8b6fb2efc053928b8501483045022100df41fbcbf3c7f77182627bcb7cd17973b8ca58c16b81de98e94c0293dcf33ac202206017171914fdfbc80f933ab3b5aae4e3d36e968757e6c0788ffbeaaebc68e21e0169522102a585f3fab49b5ef95346d932221a221bd55ec191f15533e0f270b3582574f0352102c4f7866cfd5996bc1068a96313ca15e9ccb5e984583a07340dddae7af014605b2102234531bc9119a36a7946e95aeb74915dd087c7b44f517b8eeeb73f89a0ff1a9953ae0400483045022100d3b03fb77553144e14171c7b1b517a3bf33df87370b65e337f0a50844562261e0220585bc0913b56ad968161d343f321d77f5f94ff3cf62545932f1509239a15a38e0147304402206441089c8c71a4926b49a5ab12bfaa86c4b64abbc519b3d217d68fe71bc43bee02203e17d0752c0b411e9477c22c2f4556a62da39e60095c6e0774bf42aa8f491b4d0169522103519e572ab468560d1f8d0f87699d098308e166905f5dcae4390f060faa8f1ce32103a05bc26391221d685e18daaff36a1e95c34f99451253c16cd42650db278a79112102e80a08885c353676b820cdc290e6d81a0ac95a03e8abbf4bb7aeebfb70feb41853ae0440e7dab0d277ce7c41933136b44dcabef400f1d0e622a2255f9867d807bc8e0008cfd30766d36d736c8df7aa32917de59d0832b481c499f0917876134532306d454083b1bb7c6ce5868c8a723c4d350591894809b1335586f60cbfccc6dd4e28b8630a74637b1b242e5a389540db94f23bcbedee9c783830cb2afaff1f2763dbdb7b44207373d723ce0a87f8fdd66843be12dae9d51939f68188d5ad96920bef5f51f496ad20aa88ca194fda43486504b86ac9b71f10fc41de7b1713874839427f74e78c2d5aac41c0bc17ea2bbf6ff46bd5c0c3780be2a63880eb7bb782b39ed86f29b99f4882994e1b178b1b55d3c6aac7b039e3422dfdb9c9d75d4d6fc908e9743e88b651e48d8304404d8e50128b5c61dd449b352a6d6f3d611e163b0794c8c2d057d25401957bb07a70420e336e18f6b255d5b869570c087091c30c1a33f0cac0a40d90d0514c69a4400a1e013f6d57fb8b248b2b19b08b34c1a3cd5ff6de4acdf19dd4ce0e02d42154856dd569f4668f2abaccbb50ce81a9d2f53efdfb627c2cb14cf92c4189a35da74420643151ab03f3a97bb86d3592f12f8d25a8026d89cd47342fc1b49c5e2e63478bad20035c9d632db2ddb8f90cf3ccfc931822bcb1f24562b23ae041abf12e54bca64dac41c1a107a403f7a207e7b1f552d3fd3f55f64ae40e149d0d26f4868ad7faec949eb7637e37cac6e5f22347ab68e876b559117d9597ee7b37fb983c2ab9e51023c97601402ea4aeeef7c10765ed7bdce7ac429b7395e08cf55083df38384781054b0880e244fe8a2d847a8c334431322d0eeba4e34872ef6052e2044fff7fa8763ce0c20b0000000000"
}
