{
  "walletKeys": [
    "xprv9s21ZrQH143K45bDYc9c3aEaGiTK9aPtjgtHg6wBdkryBjix1KKXRCszxPcFPejLT9tdLgNe8E8AuQXK2fy8KhNPeLAZsGoX8w9KS2PkacL",
    "xprv9s21ZrQH143K2eBLSVNk4zhjDzqzqM29aS9cjr4CcoNrKLYwLHtwgTURSk7RPV3cH9zNZQeR1zGw3MEwSjvARSfWEGpxfaBmduhW3TKsH5g",
    "xprv9s21ZrQH143K39N9shF9hAsTwh1FvQuBk8UVsZVwr4XtpqF7stCu2LH358NLuqkkK6pu1Af7TJHr5FZERQoLLtnC7wkoM9sdFo1HuP7dWuv"
  ],
  "psbtBase64": "cHNidP8BAP1zAQIAAAAE1d91MFdo7eEBoxU8tq8ozGHNyoFlG9+jaqfEQENJ5e0AAAAAAP/////ZrJ/8C45dE8o8AXqI8g0isxHPSazKqNvLTtJveVWdmwEAAAAA/////w6oPib2sAMmwUJCVhLc+iBCMDIdyHmXryeTcc5Fxth3AgAAAAD/////uEowcd9r50/zStLQP3RlA7HmnVNAnijdgMJw2EO8ZqkDAAAAAP////8GhAMAAAAAAAAXqRTZCUdEBMEko9BMP7/2H6pJz0PFi4eEAwAAAAAAABepFAVBJxIdN/MiZs2WfEhUBJdqZ63wh4QDAAAAAAAAIgAgukjj+YdEY5Q/kBkqRfGuiVt3k2KnYpr3rWqdeoNePU+EAwAAAAAAABepFPxkGJFgS95wVikwC26N5fZ905Jih4QDAAAAAAAAF6kU9s9lApZzz5LgsOaQjFq5B5Uxai2HhAMAAAAAAAARag9zZXRlYyBhc3Ryb25vbXkAAAAATwEEiLIeAAAAAAAAAAAAOpIuKfDI6w2ypgSEy9y2MfaxB8nKrj/9zz59LsH2vNADEhSHFfNh2raFpmnUJDHl1tP5c0BNq5yf0blQsnmtdjQEzBiuCE8BBIiyHgAAAAAAAAAAAG0dZW093ZHBlMBFZaNgNwKiEBbO0UomXziYLWJ15ntkA9O6wjE6fGshy7EbFLDRA0H5IsCkA6i9jIfw3IIPNa9uBPZc2GlPAQSIsh4AAAAAAAAAAADLBP1jqzTZD+ZGa4gOKgLM+KhjN0MSmRr4kRsaqrRDNAM27yKP/puO//ugUsMtM0Zg3R+DZs+P5Erlqmcra2KQlQTy7wOJAAEBINAHAAAAAAAAF6kUVnzXtE+fOgfDE483v5hLYPu68kOHIgID4VJNf2/FerPqy7ZZt4cQZ4CkddHbSDlSwjELfpo4l1tHMEQCIAsvuwjWRCDBmETvuusN6F658MVWbwnQp6IfOqOfuLYaAiB8qRDFwpq4rQ5nwvupbOtnRe5BZ1XumHxFIALWMyynq0EiAgP29AdkvV1j8gCid4iDrPdelvFQlcmYJjwIcnDQyX5+f0cwRAIgYb3rqnRqFNcYVZXOdMJac2Rx2mpQguPWzsrGnMSc04ECIBvg61ffLiM8Pg3JJJivNEaw6Z4SgD8tBH4ibLi8uiNUQQEDBEEAAAABBGlSIQP29AdkvV1j8gCid4iDrPdelvFQlcmYJjwIcnDQyX5+fyEDX/t6vHAVngRp9LmJptXheFopBBaf8FCy9Gj+XT1du/IhA+FSTX9vxXqz6su2WbeHEGeApHXR20g5UsIxC36aOJdbU64iBgNf+3q8cBWeBGn0uYmm1eF4WikEFp/wULL0aP5dPV278hTMGK4IAAAAAAAAAAABAAAAAAAAACIGA+FSTX9vxXqz6su2WbeHEGeApHXR20g5UsIxC36aOJdbFPZc2GkAAAAAAAAAAAEAAAAAAAAAIgYD9vQHZL1dY/IAoneIg6z3XpbxUJXJmCY8CHJw0Ml+fn8U8u8DiQAAAAAAAAAAAQAAAAAAAAAAAQEg0AcAAAAAAAAXqRQOJrJdDOrm+c/z7azKoNGnDadgD4ciAgIjRTG8kRmjanlG6VrrdJFd0IfHtE9Re47utz+JoP8amUcwRAIgNYDSlZ+OnP3bfz9txW1MTYb78nQsvjyNWU5T/R6gMSECIEZcCHCa7hiBrIaKY0KgplNitOqvSWCrh3e3z2PuIdz+QSICAqWF8/q0m175U0bZMiIaIhvVXsGR8VUz4PJws1gldPA1SDBFAiEAr0FyAd60dYlUUH1jJ7PqmuooU1sW4bEj3ZLwLCfCY+0CIEw8ZEQHBQVJ+RH8Hyny74YjzizPy4UGJ6tLsHx3c1BVQQEDBEEAAAABBCIAIEbUgAoTkzMBlghTme1KFwC0wv04xSGIw6OpH3IfPJYAAQVpUiECpYXz+rSbXvlTRtkyIhoiG9VewZHxVTPg8nCzWCV08DUhAsT3hmz9WZa8EGipYxPKFenMtemEWDoHNA3drnrwFGBbIQIjRTG8kRmjanlG6VrrdJFd0IfHtE9Re47utz+JoP8amVOuIgYCI0UxvJEZo2p5Rula63SRXdCHx7RPUXuO7rc/iaD/GpkU9lzYaQAAAAAAAAAACwAAAAEAAAAiBgKlhfP6tJte+VNG2TIiGiIb1V7BkfFVM+DycLNYJXTwNRTy7wOJAAAAAAAAAAALAAAAAQAAACIGAsT3hmz9WZa8EGipYxPKFenMtemEWDoHNA3drnrwFGBbFMwYrggAAAAAAAAAAAsAAAABAAAAAAEBK9AHAAAAAAAAIgAg2wQn8YIrR3dnDmZzworwL22h1a/nGnH1yQZEcLIp+v0iAgLoCgiIXDU2drggzcKQ5tgaCslaA+irv0u3ruv7cP60GEgwRQIhAKaiElNcLt0Ii75l9DIeijXAAVZHe7tQDNgIFvp9pS2FAiBcv7bmqFr/bojhfsH75lFup3RKz0NNLvO/aIadZfEP8UEiAgNRnlcqtGhWDR+ND4dpnQmDCOFmkF9dyuQ5DwYPqo8c40cwRAIgVKzC+cZoeDpqWRyydlF7MuKsQ7Iaqc6bKAQ7rt8c/UoCIGYojrKjfyTHSe64Jk3c3rcWxAOjeuSxgd8c15VepSwAQQEDBEEAAAABBWlSIQNRnlcqtGhWDR+ND4dpnQmDCOFmkF9dyuQ5DwYPqo8c4yEDoFvCY5EiHWheGNqv82oelcNPmUUSU8Fs1CZQ2yeKeREhAugKCIhcNTZ2uCDNwpDm2BoKyVoD6Ku/S7eu6/tw/rQYU64iBgLoCgiIXDU2drggzcKQ5tgaCslaA+irv0u3ruv7cP60GBT2XNhpAAAAAAAAAAAVAAAAAgAAACIGA1GeVyq0aFYNH40Ph2mdCYMI4WaQX13K5DkPBg+qjxzjFPLvA4kAAAAAAAAAABUAAAACAAAAIgYDoFvCY5EiHWheGNqv82oelcNPmUUSU8Fs1CZQ2yeKeREUzBiuCAAAAAAAAAAAFQAAAAIAAAAAAQEg0AcAAAAAAAAXqRQgs3CU2CpRNFH/DM2dsjq6Bbxe84ciAgM27yKP/puO//ugUsMtM0Zg3R+DZs+P5Erlqmcra2KQlUgwRQIhAJlDVGOZkoRaqALZnGUm1WnuCYgCzOV40agvDTCk8JdCAiBlPXlt0ourinIYciK+23cymOCvSVslZbhSyZFzV2nkJUEBAwRBAAAAAQQjIQM27yKP/puO//ugUsMtM0Zg3R+DZs+P5Erlqmcra2KQlawAAQBpUiECzE0PpBHKwkRIb46ywI4DX/dBD0YKNZyn+IEJkb07QgkhAtcv0NDZApNDStX8oWDyeOA8YUSXqk5CXPRU4sEzD5arIQNE2IQTbfVQIChl/7xiGMf5yI/mzjnJRXmBkLrbOKdS8VOuIgICzE0PpBHKwkRIb46ywI4DX/dBD0YKNZyn+IEJkb07QgkU8u8DiQAAAAAAAAAAAAAAAAAAAAAiAgLXL9DQ2QKTQ0rV/KFg8njgPGFEl6pOQlz0VOLBMw+WqxTMGK4IAAAAAAAAAAAAAAAAAAAAACICA0TYhBNt9VAgKGX/vGIYx/nIj+bOOclFeYGQuts4p1LxFPZc2GkAAAAAAAAAAAAAAAAAAAAAAAEAIgAgKSsFI1GjxvgNUbrmQsyIIRgok9vu2ryPXQ6Wd0dgJsEBAWlSIQMuEfmFUmhf6QfzH55yYMkG6N5wDww8ny8UEGI9zf0ZwCEDVFdXzjXPHt+xO54sSi+c4Aq4w2vuEryiM3zlg/0orsghAqPPtmZf5E91ILahtN4aTUZkOzhesf0eCrcO+5ZUKXVUU64iAgKjz7ZmX+RPdSC2obTeGk1GZDs4XrH9Hgq3DvuWVCl1VBT2XNhpAAAAAAAAAAAKAAAAAQAAACICAy4R+YVSaF/pB/MfnnJgyQbo3nAPDDyfLxQQYj3N/RnAFPLvA4kAAAAAAAAAAAoAAAABAAAAIgIDVFdXzjXPHt+xO54sSi+c4Aq4w2vuEryiM3zlg/0orsgUzBiuCAAAAAAAAAAACgAAAAEAAAAAAQFpUiEC1tEUC9LA+RTLMMmSqi/NKD9HGpKBzuyexsW8RI5oaQAhA7hVqHWO2mhjZIRFqdPPuVOIrKF0YhrZjwmaHE+TJv7HIQKV97Un0upTek1CgwQQq/Q0BzG/myDlSXIAGTO5qiNTbFOuIgIClfe1J9LqU3pNQoMEEKv0NAcxv5sg5UlyABkzuaojU2wU9lzYaQAAAAAAAAAAFAAAAAIAAAAiAgLW0RQL0sD5FMswyZKqL80oP0cakoHO7J7GxbxEjmhpABTy7wOJAAAAAAAAAAAUAAAAAgAAACICA7hVqHWO2mhjZIRFqdPPuVOIrKF0YhrZjwmaHE+TJv7HFMwYrggAAAAAAAAAABQAAAACAAAAAAEAaVIhAnW3o2P1KjiHgGZA82Y3dkWJBy4XbWtqh9fHVBB1dkylIQJMuJ9uP8jjgLzgDGp+FiT0wO5c8HY0i11yRZ15t46VDCEDTFl0wN7rjobIrI9s+lId2D1ITT+RAM/uDWr17RQgKLpTriICAky4n24/yOOAvOAMan4WJPTA7lzwdjSLXXJFnXm3jpUMFNStg3IAAAAAAAAAAAAAAAADAAAAIgICdbejY/UqOIeAZkDzZjd2RYkHLhdta2qH18dUEHV2TKUUVH9FdgAAAAAAAAAAAAAAAAMAAAAiAgNMWXTA3uuOhsisj2z6Uh3YPUhNP5EAz+4NavXtFCAouhRAXGW9AAAAAAAAAAAAAAAAAwAAAAAAAA==",
  "psbtBase64Finalized": "cHNidP8BAP1zAQIAAAAE1d91MFdo7eEBoxU8tq8ozGHNyoFlG9+jaqfEQENJ5e0AAAAAAP/////ZrJ/8C45dE8o8AXqI8g0isxHPSazKqNvLTtJveVWdmwEAAAAA/////w6oPib2sAMmwUJCVhLc+iBCMDIdyHmXryeTcc5Fxth3AgAAAAD/////uEowcd9r50/zStLQP3RlA7HmnVNAnijdgMJw2EO8ZqkDAAAAAP////8GhAMAAAAAAAAXqRTZCUdEBMEko9BMP7/2H6pJz0PFi4eEAwAAAAAAABepFAVBJxIdN/MiZs2WfEhUBJdqZ63wh4QDAAAAAAAAIgAgukjj+YdEY5Q/kBkqRfGuiVt3k2KnYpr3rWqdeoNePU+EAwAAAAAAABepFPxkGJFgS95wVikwC26N5fZ905Jih4QDAAAAAAAAF6kU9s9lApZzz5LgsOaQjFq5B5Uxai2HhAMAAAAAAAARag9zZXRlYyBhc3Ryb25vbXkAAAAATwEEiLIeAAAAAAAAAAAAOpIuKfDI6w2ypgSEy9y2MfaxB8nKrj/9zz59LsH2vNADEhSHFfNh2raFpmnUJDHl1tP5c0BNq5yf0blQsnmtdjQEzBiuCE8BBIiyHgAAAAAAAAAAAG0dZW093ZHBlMBFZaNgNwKiEBbO0UomXziYLWJ15ntkA9O6wjE6fGshy7EbFLDRA0H5IsCkA6i9jIfw3IIPNa9uBPZc2GlPAQSIsh4AAAAAAAAAAADLBP1jqzTZD+ZGa4gOKgLM+KhjN0MSmRr4kRsaqrRDNAM27yKP/puO//ugUsMtM0Zg3R+DZs+P5Erlqmcra2KQlQTy7wOJAAEBINAHAAAAAAAAF6kUVnzXtE+fOgfDE483v5hLYPu68kOHAQf8AEcwRAIgYb3rqnRqFNcYVZXOdMJac2Rx2mpQguPWzsrGnMSc04ECIBvg61ffLiM8Pg3JJJivNEaw6Z4SgD8tBH4ibLi8uiNUQUcwRAIgCy+7CNZEIMGYRO+66w3oXrnwxVZvCdCnoh86o5+4thoCIHypEMXCmritDmfC+6ls62dF7kFnVe6YfEUgAtYzLKerQUxpUiED9vQHZL1dY/IAoneIg6z3XpbxUJXJmCY8CHJw0Ml+fn8hA1/7erxwFZ4EafS5iabV4XhaKQQWn/BQsvRo/l09XbvyIQPhUk1/b8V6s+rLtlm3hxBngKR10dtIOVLCMQt+mjiXW1OuAAEBINAHAAAAAAAAF6kUDiayXQzq5vnP8+2syqDRpw2nYA+HAQcjIgAgRtSAChOTMwGWCFOZ7UoXALTC/TjFIYjDo6kfch88lgABCP39AAQASDBFAiEAr0FyAd60dYlUUH1jJ7PqmuooU1sW4bEj3ZLwLCfCY+0CIEw8ZEQHBQVJ+RH8Hyny74YjzizPy4UGJ6tLsHx3c1BVQUcwRAIgNYDSlZ+OnP3bfz9txW1MTYb78nQsvjyNWU5T/R6gMSECIEZcCHCa7hiBrIaKY0KgplNitOqvSWCrh3e3z2PuIdz+QWlSIQKlhfP6tJte+VNG2TIiGiIb1V7BkfFVM+DycLNYJXTwNSECxPeGbP1ZlrwQaKljE8oV6cy16YRYOgc0Dd2uevAUYFshAiNFMbyRGaNqeUbpWut0kV3Qh8e0T1F7ju63P4mg/xqZU64AAQEr0AcAAAAAAAAiACDbBCfxgitHd2cOZnPCivAvbaHVr+cacfXJBkRwsin6/QEI/f0ABABHMEQCIFSswvnGaHg6alkcsnZRezLirEOyGqnOmygEO67fHP1KAiBmKI6yo38kx0nuuCZN3N63FsQDo3rksYHfHNeVXqUsAEFIMEUCIQCmohJTXC7dCIu+ZfQyHoo1wAFWR3u7UAzYCBb6faUthQIgXL+25qha/26I4X7B++ZRbqd0Ss9DTS7zv2iGnWXxD/FBaVIhA1GeVyq0aFYNH40Ph2mdCYMI4WaQX13K5DkPBg+qjxzjIQOgW8JjkSIdaF4Y2q/zah6Vw0+ZRRJTwWzUJlDbJ4p5ESEC6AoIiFw1Nna4IM3CkObYGgrJWgPoq79Lt67r+3D+tBhTrgABASDQBwAAAAAAABepFCCzcJTYKlE0Uf8MzZ2yOroFvF7zhwEHbUgwRQIhAJlDVGOZkoRaqALZnGUm1WnuCYgCzOV40agvDTCk8JdCAiBlPXlt0ourinIYciK+23cymOCvSVslZbhSyZFzV2nkJUEjIQM27yKP/puO//ugUsMtM0Zg3R+DZs+P5Erlqmcra2KQlawAAQBpUiECzE0PpBHKwkRIb46ywI4DX/dBD0YKNZyn+IEJkb07QgkhAtcv0NDZApNDStX8oWDyeOA8YUSXqk5CXPRU4sEzD5arIQNE2IQTbfVQIChl/7xiGMf5yI/mzjnJRXmBkLrbOKdS8VOuIgICzE0PpBHKwkRIb46ywI4DX/dBD0YKNZyn+IEJkb07QgkU8u8DiQAAAAAAAAAAAAAAAAAAAAAiAgLXL9DQ2QKTQ0rV/KFg8njgPGFEl6pOQlz0VOLBMw+WqxTMGK4IAAAAAAAAAAAAAAAAAAAAACICA0TYhBNt9VAgKGX/vGIYx/nIj+bOOclFeYGQuts4p1LxFPZc2GkAAAAAAAAAAAAAAAAAAAAAAAEAIgAgKSsFI1GjxvgNUbrmQsyIIRgok9vu2ryPXQ6Wd0dgJsEBAWlSIQMuEfmFUmhf6QfzH55yYMkG6N5wDww8ny8UEGI9zf0ZwCEDVFdXzjXPHt+xO54sSi+c4Aq4w2vuEryiM3zlg/0orsghAqPPtmZf5E91ILahtN4aTUZkOzhesf0eCrcO+5ZUKXVUU64iAgKjz7ZmX+RPdSC2obTeGk1GZDs4XrH9Hgq3DvuWVCl1VBT2XNhpAAAAAAAAAAAKAAAAAQAAACICAy4R+YVSaF/pB/MfnnJgyQbo3nAPDDyfLxQQYj3N/RnAFPLvA4kAAAAAAAAAAAoAAAABAAAAIgIDVFdXzjXPHt+xO54sSi+c4Aq4w2vuEryiM3zlg/0orsgUzBiuCAAAAAAAAAAACgAAAAEAAAAAAQFpUiEC1tEUC9LA+RTLMMmSqi/NKD9HGpKBzuyexsW8RI5oaQAhA7hVqHWO2mhjZIRFqdPPuVOIrKF0YhrZjwmaHE+TJv7HIQKV97Un0upTek1CgwQQq/Q0BzG/myDlSXIAGTO5qiNTbFOuIgIClfe1J9LqU3pNQoMEEKv0NAcxv5sg5UlyABkzuaojU2wU9lzYaQAAAAAAAAAAFAAAAAIAAAAiAgLW0RQL0sD5FMswyZKqL80oP0cakoHO7J7GxbxEjmhpABTy7wOJAAAAAAAAAAAUAAAAAgAAACICA7hVqHWO2mhjZIRFqdPPuVOIrKF0YhrZjwmaHE+TJv7HFMwYrggAAAAAAAAAABQAAAACAAAAAAEAaVIhAnW3o2P1KjiHgGZA82Y3dkWJBy4XbWtqh9fHVBB1dkylIQJMuJ9uP8jjgLzgDGp+FiT0wO5c8HY0i11yRZ15t46VDCEDTFl0wN7rjobIrI9s+lId2D1ITT+RAM/uDWr17RQgKLpTriICAky4n24/yOOAvOAMan4WJPTA7lzwdjSLXXJFnXm3jpUMFNStg3IAAAAAAAAAAAAAAAADAAAAIgICdbejY/UqOIeAZkDzZjd2RYkHLhdta2qH18dUEHV2TKUUVH9FdgAAAAAAAAAAAAAAAAMAAAAiAgNMWXTA3uuOhsisj2z6Uh3YPUhNP5EAz+4NavXtFCAouhRAXGW9AAAAAAAAAAAAAAAAAwAAAAAAAA==",
  "inputs": [
    {
      "hash": "d5df75305768ede101a3153cb6af28cc61cdca81651bdfa36aa7c4404349e5ed",
      "index": 0,
      "sequence": 4294967295
    },
    {
      "hash": "d9ac9ffc0b8e5d13ca3c017a88f20d22b311cf49accaa8dbcb4ed26f79559d9b",
      "index": 1,
      "sequence": 4294967295
    },
    {
      "hash": "0ea83e26f6b00326c142425612dcfa204230321dc87997af279371ce45c6d877",
      "index": 2,
      "sequence": 4294967295
    },
    {
      "hash": "b84a3071df6be74ff34ad2d03f746503b1e69d53409e28dd80c270d843bc66a9",
      "index": 3,
      "sequence": 4294967295
    }
  ],
  "psbtInputs": [
    {
      "type": "p2sh",
      "partialSig": [
        {
          "pubkey": "03e1524d7f6fc57ab3eacbb659b787106780a475d1db483952c2310b7e9a38975b",
          "signature": "304402200b2fbb08d64420c19844efbaeb0de85eb9f0c5566f09d0a7a21f3aa39fb8b61a02207ca910c5c29ab8ad0e67c2fba96ceb6745ee416755ee987c452002d6332ca7ab41"
        },
        {
          "pubkey": "03f6f40764bd5d63f200a2778883acf75e96f15095c998263c087270d0c97e7e7f",
          "signature": "3044022061bdebaa746a14d7185595ce74c25a736471da6a5082e3d6cecac69cc49cd38102201be0eb57df2e233c3e0dc92498af3446b0e99e12803f2d047e226cb8bcba235441"
        }
      ],
      "sighashType": 65,
      "redeemScript": "522103f6f40764bd5d63f200a2778883acf75e96f15095c998263c087270d0c97e7e7f21035ffb7abc70159e0469f4b989a6d5e1785a2904169ff050b2f468fe5d3d5dbbf22103e1524d7f6fc57ab3eacbb659b787106780a475d1db483952c2310b7e9a38975b53ae",
      "bip32Derivation": [
        {
          "masterFingerprint": "cc18ae08",
          "pubkey": "035ffb7abc70159e0469f4b989a6d5e1785a2904169ff050b2f468fe5d3d5dbbf2",
          "path": "0/0/1/0"
        },
        {
          "masterFingerprint": "f65cd869",
          "pubkey": "03e1524d7f6fc57ab3eacbb659b787106780a475d1db483952c2310b7e9a38975b",
          "path": "0/0/1/0"
        },
        {
          "masterFingerprint": "f2ef0389",
          "pubkey": "03f6f40764bd5d63f200a2778883acf75e96f15095c998263c087270d0c97e7e7f",
          "path": "0/0/1/0"
        }
      ],
      "witnessUtxo": {
        "value": "2000",
        "script": "a914567cd7b44f9f3a07c3138f37bf984b60fbbaf24387"
      }
    },
    {
      "type": "p2shP2wsh",
      "witnessUtxo": {
        "script": "a9140e26b25d0ceae6f9cff3edaccaa0d1a70da7600f87",
        "value": "2000"
      },
      "partialSig": [
        {
          "pubkey": "02234531bc9119a36a7946e95aeb74915dd087c7b44f517b8eeeb73f89a0ff1a99",
          "signature": "304402203580d2959f8e9cfddb7f3f6dc56d4c4d86fbf2742cbe3c8d594e53fd1ea031210220465c08709aee1881ac868a6342a0a65362b4eaaf4960ab8777b7cf63ee21dcfe41"
        },
        {
          "pubkey": "02a585f3fab49b5ef95346d932221a221bd55ec191f15533e0f270b3582574f035",
          "signature": "3045022100af417201deb4758954507d6327b3ea9aea28535b16e1b123dd92f02c27c263ed02204c3c644407050549f911fc1f29f2ef8623ce2ccfcb850627ab4bb07c7773505541"
        }
      ],
      "sighashType": 65,
      "redeemScript": "002046d4800a1393330196085399ed4a1700b4c2fd38c52188c3a3a91f721f3c9600",
      "witnessScript": "522102a585f3fab49b5ef95346d932221a221bd55ec191f15533e0f270b3582574f0352102c4f7866cfd5996bc1068a96313ca15e9ccb5e984583a07340dddae7af014605b2102234531bc9119a36a7946e95aeb74915dd087c7b44f517b8eeeb73f89a0ff1a9953ae",
      "bip32Derivation": [
        {
          "masterFingerprint": "f65cd869",
          "pubkey": "02234531bc9119a36a7946e95aeb74915dd087c7b44f517b8eeeb73f89a0ff1a99",
          "path": "0/0/11/1"
        },
        {
          "masterFingerprint": "f2ef0389",
          "pubkey": "02a585f3fab49b5ef95346d932221a221bd55ec191f15533e0f270b3582574f035",
          "path": "0/0/11/1"
        },
        {
          "masterFingerprint": "cc18ae08",
          "pubkey": "02c4f7866cfd5996bc1068a96313ca15e9ccb5e984583a07340dddae7af014605b",
          "path": "0/0/11/1"
        }
      ]
    },
    {
      "type": "p2wsh",
      "witnessUtxo": {
        "script": "0020db0427f1822b4777670e6673c28af02f6da1d5afe71a71f5c9064470b229fafd",
        "value": "2000"
      },
      "partialSig": [
        {
          "pubkey": "02e80a08885c353676b820cdc290e6d81a0ac95a03e8abbf4bb7aeebfb70feb418",
          "signature": "3045022100a6a212535c2edd088bbe65f4321e8a35c00156477bbb500cd80816fa7da52d8502205cbfb6e6a85aff6e88e17ec1fbe6516ea7744acf434d2ef3bf68869d65f10ff141"
        },
        {
          "pubkey": "03519e572ab468560d1f8d0f87699d098308e166905f5dcae4390f060faa8f1ce3",
          "signature": "3044022054acc2f9c668783a6a591cb276517b32e2ac43b21aa9ce9b28043baedf1cfd4a022066288eb2a37f24c749eeb8264ddcdeb716c403a37ae4b181df1cd7955ea52c0041"
        }
      ],
      "sighashType": 65,
      "witnessScript": "522103519e572ab468560d1f8d0f87699d098308e166905f5dcae4390f060faa8f1ce32103a05bc26391221d685e18daaff36a1e95c34f99451253c16cd42650db278a79112102e80a08885c353676b820cdc290e6d81a0ac95a03e8abbf4bb7aeebfb70feb41853ae",
      "bip32Derivation": [
        {
          "masterFingerprint": "f65cd869",
          "pubkey": "02e80a08885c353676b820cdc290e6d81a0ac95a03e8abbf4bb7aeebfb70feb418",
          "path": "0/0/21/2"
        },
        {
          "masterFingerprint": "f2ef0389",
          "pubkey": "03519e572ab468560d1f8d0f87699d098308e166905f5dcae4390f060faa8f1ce3",
          "path": "0/0/21/2"
        },
        {
          "masterFingerprint": "cc18ae08",
          "pubkey": "03a05bc26391221d685e18daaff36a1e95c34f99451253c16cd42650db278a7911",
          "path": "0/0/21/2"
        }
      ]
    },
    {
      "type": "p2shP2pk",
      "partialSig": [
        {
          "pubkey": "0336ef228ffe9b8efffba052c32d334660dd1f8366cf8fe44ae5aa672b6b629095",
          "signature": "3045022100994354639992845aa802d99c6526d569ee098802cce578d1a82f0d30a4f097420220653d796dd28bab8a72187222bedb773298e0af495b2565b852c991735769e42541"
        }
      ],
      "sighashType": 65,
      "redeemScript": "210336ef228ffe9b8efffba052c32d334660dd1f8366cf8fe44ae5aa672b6b629095ac",
      "witnessUtxo": {
        "value": "2000",
        "script": "a91420b37094d82a513451ff0ccd9db23aba05bc5ef387"
      }
    }
  ],
  "psbtInputsFinalized": [
    {
      "type": "p2sh",
      "witnessUtxo": {
        "script": "a914567cd7b44f9f3a07c3138f37bf984b60fbbaf24387",
        "value": "2000"
      },
      "finalScriptSig": "00473044022061bdebaa746a14d7185595ce74c25a736471da6a5082e3d6cecac69cc49cd38102201be0eb57df2e233c3e0dc92498af3446b0e99e12803f2d047e226cb8bcba23544147304402200b2fbb08d64420c19844efbaeb0de85eb9f0c5566f09d0a7a21f3aa39fb8b61a02207ca910c5c29ab8ad0e67c2fba96ceb6745ee416755ee987c452002d6332ca7ab414c69522103f6f40764bd5d63f200a2778883acf75e96f15095c998263c087270d0c97e7e7f21035ffb7abc70159e0469f4b989a6d5e1785a2904169ff050b2f468fe5d3d5dbbf22103e1524d7f6fc57ab3eacbb659b787106780a475d1db483952c2310b7e9a38975b53ae"
    },
    {
      "type": "p2shP2wsh",
      "witnessUtxo": {
        "script": "a9140e26b25d0ceae6f9cff3edaccaa0d1a70da7600f87",
        "value": "2000"
      },
      "finalScriptSig": "22002046d4800a1393330196085399ed4a1700b4c2fd38c52188c3a3a91f721f3c9600",
      "finalScriptWitness": "0400483045022100af417201deb4758954507d6327b3ea9aea28535b16e1b123dd92f02c27c263ed02204c3c644407050549f911fc1f29f2ef8623ce2ccfcb850627ab4bb07c777350554147304402203580d2959f8e9cfddb7f3f6dc56d4c4d86fbf2742cbe3c8d594e53fd1ea031210220465c08709aee1881ac868a6342a0a65362b4eaaf4960ab8777b7cf63ee21dcfe4169522102a585f3fab49b5ef95346d932221a221bd55ec191f15533e0f270b3582574f0352102c4f7866cfd5996bc1068a96313ca15e9ccb5e984583a07340dddae7af014605b2102234531bc9119a36a7946e95aeb74915dd087c7b44f517b8eeeb73f89a0ff1a9953ae"
    },
    {
      "type": "p2wsh",
      "witnessUtxo": {
        "script": "0020db0427f1822b4777670e6673c28af02f6da1d5afe71a71f5c9064470b229fafd",
        "value": "2000"
      },
      "finalScriptWitness": "0400473044022054acc2f9c668783a6a591cb276517b32e2ac43b21aa9ce9b28043baedf1cfd4a022066288eb2a37f24c749eeb8264ddcdeb716c403a37ae4b181df1cd7955ea52c0041483045022100a6a212535c2edd088bbe65f4321e8a35c00156477bbb500cd80816fa7da52d8502205cbfb6e6a85aff6e88e17ec1fbe6516ea7744acf434d2ef3bf68869d65f10ff14169522103519e572ab468560d1f8d0f87699d098308e166905f5dcae4390f060faa8f1ce32103a05bc26391221d685e18daaff36a1e95c34f99451253c16cd42650db278a79112102e80a08885c353676b820cdc290e6d81a0ac95a03e8abbf4bb7aeebfb70feb41853ae"
    },
    {
      "type": "p2shP2pk",
      "witnessUtxo": {
        "script": "a91420b37094d82a513451ff0ccd9db23aba05bc5ef387",
        "value": "2000"
      },
      "finalScriptSig": "483045022100994354639992845aa802d99c6526d569ee098802cce578d1a82f0d30a4f097420220653d796dd28bab8a72187222bedb773298e0af495b2565b852c991735769e4254123210336ef228ffe9b8efffba052c32d334660dd1f8366cf8fe44ae5aa672b6b629095ac"
    }
  ],
  "outputs": [
    {
      "script": "a914d909474404c124a3d04c3fbff61faa49cf43c58b87",
      "value": "900",
      "address": "AbZTPoHNRTTSjDZ9bE8J9D874VkRavLrwz"
    },
    {
      "script": "a914054127121d37f32266cd967c485404976a67adf087",
      "value": "900",
      "address": "AGFf5Lj1EGacxeRPBeC3f78XBojSo3ZAJj"
    },
    {
      "script": "0020ba48e3f9874463943f90192a45f1ae895b779362a7629af7ad6a9d7a835e3d4f",
      "value": "900",
      "address": "btg1qhfyw87v8g33eg0usry4ytudw39dh0ymz5a3f4aadd2wh4q67848swaqfkk"
    },
    {
      "script": "a914fc641891604bde705629300b6e8de5f67dd3926287",
      "value": "900",
      "address": "AenPqdTXxV58yXBZAq3PwLpwgFxo33AAHd"
    },
    {
      "script": "a914f6cf65029673cf92e0b0e6908c5ab90795316a2d87",
      "value": "900",
      "address": "AeGtKiUuqA34sq13vsgHSdnTxhyVJpneYJ"
    },
    {
      "script": "6a0f736574656320617374726f6e6f6d79",
      "value": "900"
    }
  ],
  "psbtOutputs": [
    {
      "redeemScript": "522102cc4d0fa411cac244486f8eb2c08e035ff7410f460a359ca7f8810991bd3b42092102d72fd0d0d90293434ad5fca160f278e03c614497aa4e425cf454e2c1330f96ab210344d884136df550202865ffbc6218c7f9c88fe6ce39c945798190badb38a752f153ae",
      "bip32Derivation": [
        {
          "masterFingerprint": "f2ef0389",
          "pubkey": "02cc4d0fa411cac244486f8eb2c08e035ff7410f460a359ca7f8810991bd3b4209",
          "path": "0/0/0/0"
        },
        {
          "masterFingerprint": "cc18ae08",
          "pubkey": "02d72fd0d0d90293434ad5fca160f278e03c614497aa4e425cf454e2c1330f96ab",
          "path": "0/0/0/0"
        },
        {
          "masterFingerprint": "f65cd869",
          "pubkey": "0344d884136df550202865ffbc6218c7f9c88fe6ce39c945798190badb38a752f1",
          "path": "0/0/0/0"
        }
      ]
    },
    {
      "redeemScript": "0020292b052351a3c6f80d51bae642cc8821182893dbeedabc8f5d0e9677476026c1",
      "witnessScript": "5221032e11f98552685fe907f31f9e7260c906e8de700f0c3c9f2f1410623dcdfd19c02103545757ce35cf1edfb13b9e2c4a2f9ce00ab8c36bee12bca2337ce583fd28aec82102a3cfb6665fe44f7520b6a1b4de1a4d46643b385eb1fd1e0ab70efb965429755453ae",
      "bip32Derivation": [
        {
          "masterFingerprint": "f65cd869",
          "pubkey": "02a3cfb6665fe44f7520b6a1b4de1a4d46643b385eb1fd1e0ab70efb9654297554",
          "path": "0/0/10/1"
        },
        {
          "masterFingerprint": "f2ef0389",
          "pubkey": "032e11f98552685fe907f31f9e7260c906e8de700f0c3c9f2f1410623dcdfd19c0",
          "path": "0/0/10/1"
        },
        {
          "masterFingerprint": "cc18ae08",
          "pubkey": "03545757ce35cf1edfb13b9e2c4a2f9ce00ab8c36bee12bca2337ce583fd28aec8",
          "path": "0/0/10/1"
        }
      ]
    },
    {
      "witnessScript": "522102d6d1140bd2c0f914cb30c992aa2fcd283f471a9281ceec9ec6c5bc448e6869002103b855a8758eda6863648445a9d3cfb95388aca174621ad98f099a1c4f9326fec7210295f7b527d2ea537a4d42830410abf4340731bf9b20e54972001933b9aa23536c53ae",
      "bip32Derivation": [
        {
          "masterFingerprint": "f65cd869",
          "pubkey": "0295f7b527d2ea537a4d42830410abf4340731bf9b20e54972001933b9aa23536c",
          "path": "0/0/20/2"
        },
        {
          "masterFingerprint": "f2ef0389",
          "pubkey": "02d6d1140bd2c0f914cb30c992aa2fcd283f471a9281ceec9ec6c5bc448e686900",
          "path": "0/0/20/2"
        },
        {
          "masterFingerprint": "cc18ae08",
          "pubkey": "03b855a8758eda6863648445a9d3cfb95388aca174621ad98f099a1c4f9326fec7",
          "path": "0/0/20/2"
        }
      ]
    },
    {
      "redeemScript": "52210275b7a363f52a3887806640f36637764589072e176d6b6a87d7c7541075764ca521024cb89f6e3fc8e380bce00c6a7e1624f4c0ee5cf076348b5d72459d79b78e950c21034c5974c0deeb8e86c8ac8f6cfa521dd83d484d3f9100cfee0d6af5ed142028ba53ae",
      "bip32Derivation": [
        {
          "masterFingerprint": "d4ad8372",
          "pubkey": "024cb89f6e3fc8e380bce00c6a7e1624f4c0ee5cf076348b5d72459d79b78e950c",
          "path": "0/0/0/3"
        },
        {
          "masterFingerprint": "547f4576",
          "pubkey": "0275b7a363f52a3887806640f36637764589072e176d6b6a87d7c7541075764ca5",
          "path": "0/0/0/3"
        },
        {
          "masterFingerprint": "405c65bd",
          "pubkey": "034c5974c0deeb8e86c8ac8f6cfa521dd83d484d3f9100cfee0d6af5ed142028ba",
          "path": "0/0/0/3"
        }
      ]
    },
    {},
    {}
  ],
  "extractedTransaction": "02000000000104d5df75305768ede101a3153cb6af28cc61cdca81651bdfa36aa7c4404349e5ed00000000fc00473044022061bdebaa746a14d7185595ce74c25a736471da6a5082e3d6cecac69cc49cd38102201be0eb57df2e233c3e0dc92498af3446b0e99e12803f2d047e226cb8bcba23544147304402200b2fbb08d64420c19844efbaeb0de85eb9f0c5566f09d0a7a21f3aa39fb8b61a02207ca910c5c29ab8ad0e67c2fba96ceb6745ee416755ee987c452002d6332ca7ab414c69522103f6f40764bd5d63f200a2778883acf75e96f15095c998263c087270d0c97e7e7f21035ffb7abc70159e0469f4b989a6d5e1785a2904169ff050b2f468fe5d3d5dbbf22103e1524d7f6fc57ab3eacbb659b787106780a475d1db483952c2310b7e9a38975b53aeffffffffd9ac9ffc0b8e5d13ca3c017a88f20d22b311cf49accaa8dbcb4ed26f79559d9b010000002322002046d4800a1393330196085399ed4a1700b4c2fd38c52188c3a3a91f721f3c9600ffffffff0ea83e26f6b00326c142425612dcfa204230321dc87997af279371ce45c6d8770200000000ffffffffb84a3071df6be74ff34ad2d03f746503b1e69d53409e28dd80c270d843bc66a9030000006d483045022100994354639992845aa802d99c6526d569ee098802cce578d1a82f0d30a4f097420220653d796dd28bab8a72187222bedb773298e0af495b2565b852c991735769e4254123210336ef228ffe9b8efffba052c32d334660dd1f8366cf8fe44ae5aa672b6b629095acffffffff06840300000000000017a914d909474404c124a3d04c3fbff61faa49cf43c58b87840300000000000017a914054127121d37f32266cd967c485404976a67adf0878403000000000000220020ba48e3f9874463943f90192a45f1ae895b779362a7629af7ad6a9d7a835e3d4f840300000000000017a914fc641891604bde705629300b6e8de5f67dd3926287840300000000000017a914f6cf65029673cf92e0b0e6908c5ab90795316a2d878403000000000000116a0f736574656320617374726f6e6f6d79000400483045022100af417201deb4758954507d6327b3ea9aea28535b16e1b123dd92f02c27c263ed02204c3c644407050549f911fc1f29f2ef8623ce2ccfcb850627ab4bb07c777350554147304402203580d2959f8e9cfddb7f3f6dc56d4c4d86fbf2742cbe3c8d594e53fd1ea031210220465c08709aee1881ac868a6342a0a65362b4eaaf4960ab8777b7cf63ee21dcfe4169522102a585f3fab49b5ef95346d932221a221bd55ec191f15533e0f270b3582574f0352102c4f7866cfd5996bc1068a96313ca15e9ccb5e984583a07340dddae7af014605b2102234531bc9119a36a7946e95aeb74915dd087c7b44f517b8eeeb73f89a0ff1a9953ae0400473044022054acc2f9c668783a6a591cb276517b32e2ac43b21aa9ce9b28043baedf1cfd4a022066288eb2a37f24c749eeb8264ddcdeb716c403a37ae4b181df1cd7955ea52c0041483045022100a6a212535c2edd088bbe65f4321e8a35c00156477bbb500cd80816fa7da52d8502205cbfb6e6a85aff6e88e17ec1fbe6516ea7744acf434d2ef3bf68869d65f10ff14169522103519e572ab468560d1f8d0f87699d098308e166905f5dcae4390f060faa8f1ce32103a05bc26391221d685e18daaff36a1e95c34f99451253c16cd42650db278a79112102e80a08885c353676b820cdc290e6d81a0ac95a03e8abbf4bb7aeebfb70feb41853ae0000000000"
}
