{
  "walletKeys": [
    "xprv9s21ZrQH143K45bDYc9c3aEaGiTK9aPtjgtHg6wBdkryBjix1KKXRCszxPcFPejLT9tdLgNe8E8AuQXK2fy8KhNPeLAZsGoX8w9KS2PkacL",
    "xprv9s21ZrQH143K2eBLSVNk4zhjDzqzqM29aS9cjr4CcoNrKLYwLHtwgTURSk7RPV3cH9zNZQeR1zGw3MEwSjvARSfWEGpxfaBmduhW3TKsH5g",
    "xprv9s21ZrQH143K39N9shF9hAsTwh1FvQuBk8UVsZVwr4XtpqF7stCu2LH358NLuqkkK6pu1Af7TJHr5FZERQoLLtnC7wkoM9sdFo1HuP7dWuv"
  ],
  "psbtBase64": "cHNidP8BAP1EAgEAAAAHfM4S7/wupWTEInMz/TBUR+DeezrnpfzHUe//8+oTd+EAAAAAAP////+5x7KI/Wqg0UFZluKl2tmk4HDBKeF5J39T4y9gLxgGRgEAAAAA/////x9X2VYK6QcWALaWUzGS3Bd5kWT9P6EoBKf360IBxNXdAgAAAAD//////I/l/yqBjHZhpGKYCd8qH/1gttFlSfv0iCtU50E/+OYDAAAAAP////+ZiATmcY2Ux37vHos814e8wtv8vWwAmrMwQ+flANW0mwQAAAAA/////wKyPp/9VQ+gU/TEPgl7gRTkY8i6UscrMNMdEM3oU6q/BQAAAAD/////IA0CE0XUCyBMwioH66142hcVnzTCxlai9KUdaMbKd1QGAAAAAP////8IhAMAAAAAAAAXqRTZCUdEBMEko9BMP7/2H6pJz0PFi4eEAwAAAAAAABepFAVBJxIdN/MiZs2WfEhUBJdqZ63wh4QDAAAAAAAAIgAgukjj+YdEY5Q/kBkqRfGuiVt3k2KnYpr3rWqdeoNePU+EAwAAAAAAACJRILJyJ/XK3AVq/qSwK0uXuaAVF4YjTCatWI3M8TTniTHGhAMAAAAAAAAiUSBPc7VWE5nrOXtatBPgkMwMSP9wOmGv5Hz31Hoj1DuXi4QDAAAAAAAAF6kUHkkKKjZB/8zFV67N3KZxBPQpeLOHhAMAAAAAAAAXqRSVQoggP5aX4l6uy0jYW4qGCMOFz4cAAAAAAAAAABFqD3NldGVjIGFzdHJvbm9teQAAAABPAQSIsh4AAAAAAAAAAAA6ki4p8MjrDbKmBITL3LYx9rEHycquP/3PPn0uwfa80AMSFIcV82HatoWmadQkMeXW0/lzQE2rnJ/RuVCyea12NATMGK4ITwEEiLIeAAAAAAAAAAAAbR1lbT3dkcGUwEVlo2A3AqIQFs7RSiZfOJgtYnXme2QD07rCMTp8ayHLsRsUsNEDQfkiwKQDqL2Mh/Dcgg81r24E9lzYaU8BBIiyHgAAAAAAAAAAAMsE/WOrNNkP5kZriA4qAsz4qGM3QxKZGviRGxqqtEM0AzbvIo/+m47/+6BSwy0zRmDdH4Nmz4/kSuWqZytrYpCVBPLvA4kAAQEg0AcAAAAAAAAXqRRWfNe0T586B8MTjze/mEtg+7ryQ4ciAgPhUk1/b8V6s+rLtlm3hxBngKR10dtIOVLCMQt+mjiXW0cwRAIgFyDDGfGs/JYpmL7BDY4ckYzZbwLV8bXr9Bw5/xxifLoCIG95Qd4l7UaL8uatFnjTLUpKwsGbdOocmoCJx6K6kzzeASICA/b0B2S9XWPyAKJ3iIOs916W8VCVyZgmPAhycNDJfn5/RzBEAiBO0WMUh7BsKfflhpmN6WrNQs7sdH4z3FKkVe/QBZ2hSgIgYV2NLxWTFMRe953YMUGdxcqxwhmH0PoU0Nv7pBE+IWQBAQMEAQAAAAEEaVIhA/b0B2S9XWPyAKJ3iIOs916W8VCVyZgmPAhycNDJfn5/IQNf+3q8cBWeBGn0uYmm1eF4WikEFp/wULL0aP5dPV278iED4VJNf2/FerPqy7ZZt4cQZ4CkddHbSDlSwjELfpo4l1tTriIGA1/7erxwFZ4EafS5iabV4XhaKQQWn/BQsvRo/l09XbvyFMwYrggAAAAAAAAAAAEAAAAAAAAAIgYD4VJNf2/FerPqy7ZZt4cQZ4CkddHbSDlSwjELfpo4l1sU9lzYaQAAAAAAAAAAAQAAAAAAAAAiBgP29AdkvV1j8gCid4iDrPdelvFQlcmYJjwIcnDQyX5+fxTy7wOJAAAAAAAAAAABAAAAAAAAAAABASDQBwAAAAAAABepFA4msl0M6ub5z/PtrMqg0acNp2APhyICAiNFMbyRGaNqeUbpWut0kV3Qh8e0T1F7ju63P4mg/xqZRzBEAiBqe5kmEPMCrHMgqZmqQlMei2I7BJJ2ja8DLDnW1S7HxgIgZwk5+ezRAs5p6YdQBgZG214fsWKxiRNQuVqP8hN4+DwBIgICpYXz+rSbXvlTRtkyIhoiG9VewZHxVTPg8nCzWCV08DVHMEQCIAotlxxAgxcDhZatarDvFygv09izaNWZAmvE7y2+DX6kAiBBViS2uS6YRlZsq3qCjSIBfUlAZLcqomIP0TIltUk40wEBAwQBAAAAAQQiACBG1IAKE5MzAZYIU5ntShcAtML9OMUhiMOjqR9yHzyWAAEFaVIhAqWF8/q0m175U0bZMiIaIhvVXsGR8VUz4PJws1gldPA1IQLE94Zs/VmWvBBoqWMTyhXpzLXphFg6BzQN3a568BRgWyECI0UxvJEZo2p5Rula63SRXdCHx7RPUXuO7rc/iaD/GplTriIGAiNFMbyRGaNqeUbpWut0kV3Qh8e0T1F7ju63P4mg/xqZFPZc2GkAAAAAAAAAAAsAAAABAAAAIgYCpYXz+rSbXvlTRtkyIhoiG9VewZHxVTPg8nCzWCV08DUU8u8DiQAAAAAAAAAACwAAAAEAAAAiBgLE94Zs/VmWvBBoqWMTyhXpzLXphFg6BzQN3a568BRgWxTMGK4IAAAAAAAAAAALAAAAAQAAAAABASvQBwAAAAAAACIAINsEJ/GCK0d3Zw5mc8KK8C9todWv5xpx9ckGRHCyKfr9IgIC6AoIiFw1Nna4IM3CkObYGgrJWgPoq79Lt67r+3D+tBhHMEQCIBYhAZFPf631ypLeQBrK+fTpmVrPoiL8e7CdaSZQKQ2BAiAgAEsmVt2l79D4pIzcXjYrCS9TvAoSvzLLuWoAUlvydgEiAgNRnlcqtGhWDR+ND4dpnQmDCOFmkF9dyuQ5DwYPqo8c40gwRQIhAOV9Qv9eGd5jMxK83uo6jSmMLwt9pZuAr1BXDXu59meKAiATSI5+hhg0Z8RDD+iFNvHkDd1OsbZP2/ANDVGVzLdXoAEBAwQBAAAAAQVpUiEDUZ5XKrRoVg0fjQ+HaZ0JgwjhZpBfXcrkOQ8GD6qPHOMhA6BbwmORIh1oXhjar/NqHpXDT5lFElPBbNQmUNsninkRIQLoCgiIXDU2drggzcKQ5tgaCslaA+irv0u3ruv7cP60GFOuIgYC6AoIiFw1Nna4IM3CkObYGgrJWgPoq79Lt67r+3D+tBgU9lzYaQAAAAAAAAAAFQAAAAIAAAAiBgNRnlcqtGhWDR+ND4dpnQmDCOFmkF9dyuQ5DwYPqo8c4xTy7wOJAAAAAAAAAAAVAAAAAgAAACIGA6BbwmORIh1oXhjar/NqHpXDT5lFElPBbNQmUNsninkRFMwYrggAAAAAAAAAABUAAAACAAAAAAEBK9AHAAAAAAAAIlEgOUuU0GHXt3j+2KIEzgXtC0SVTsFiL5NPhBFOEXPzMCcBAwQAAAAAQRRzc9cjzgqH+P3WaEO+Etrp1Rk59oGI1a2WkgvvX1H0loPX+Y6e8Pczagb0oBFRg6n5lsusEijpqnY49EfwJJ8wQEvorLE6YeRxgUgbbyoGFBHLrekvdv+mUvOyvz4HmH+KitanoCyNXBo83rFBzBifCJSNIJ+foET3YQu+xbFuJ3JBFKqIyhlP2kNIZQS4asm3HxD8Qd57FxOHSDlCf3TnjC1ag9f5jp7w9zNqBvSgEVGDqfmWy6wSKOmqdjj0R/AknzBAFGW39kL2C2xgOFdqeiBvrbQ39JX4xMiUS2zCRRkfqBPliNEAJUeBe+rgP6rKA0spAna0CD01BXI5gSvMecvQtUIVwLwX6iu/b/Rr1cDDeAvipjiA63u3grOe2G8puZ9IgplOGxeLG1XTxqrHsDnjQi39ucnXXU1vyQjpdD6ItlHkjYNFIHNz1yPOCof4/dZoQ74S2unVGTn2gYjVrZaSC+9fUfSWrSCqiMoZT9pDSGUEuGrJtx8Q/EHeexcTh0g5Qn9054wtWqzAIRZzc9cjzgqH+P3WaEO+Etrp1Rk59oGI1a2WkgvvX1H0ljUBg9f5jp7w9zNqBvSgEVGDqfmWy6wSKOmqdjj0R/AknzDy7wOJAAAAAAAAAAAfAAAAAwAAACEWqojKGU/aQ0hlBLhqybcfEPxB3nsXE4dIOUJ/dOeMLVo1AYPX+Y6e8Pczagb0oBFRg6n5lsusEijpqnY49EfwJJ8w9lzYaQAAAAAAAAAAHwAAAAMAAAAAAQEr0AcAAAAAAAAiUSApu/r0OFsQ3Cu+erTVDonOvo9QeWhyexloniY4CDzFWwEDBAAAAABBFANcnWMtst24+QzzzPyTGCK8sfJFYrI64EGr8S5UvKZNQpBpyDIP9fHIrCoLEEf/FFC4wNMl4dEvHFJoTZGjuftAxmYxS+/baIef6u87TkeH01G7aibXEcaGdKXmD8Y+EKKg8Bu6Eq8ZFKLd54V7HQ8zOQfzGMXWO+firrYR9xNTdUEUZDFRqwPzqXu4bTWS8S+NJagCbYnNRzQvwbScXi5jR4tCkGnIMg/18cisKgsQR/8UULjA0yXh0S8cUmhNkaO5+0Bq6mkEWbJWkrJIHcVf0iLU6PiFlrkwiTKElK9nwOsivPpmBhdROvcGh2JSFQqzI26WU5DS0pLIOZmyHRqLDIjTQhXBoQekA/eiB+ex9VLT/T9V9krkDhSdDSb0horX+uyUnrdjfjfKxuXyI0eraOh2tVkRfZWX7ns3+5g8KrnlECPJdkUgZDFRqwPzqXu4bTWS8S+NJagCbYnNRzQvwbScXi5jR4utIANcnWMtst24+QzzzPyTGCK8sfJFYrI64EGr8S5UvKZNrMAhFgNcnWMtst24+QzzzPyTGCK8sfJFYrI64EGr8S5UvKZNNQFCkGnIMg/18cisKgsQR/8UULjA0yXh0S8cUmhNkaO5+8wYrggAAAAAAAAAACkAAAAEAAAAIRZkMVGrA/Ope7htNZLxL40lqAJtic1HNC/BtJxeLmNHizUBQpBpyDIP9fHIrCoLEEf/FFC4wNMl4dEvHFJoTZGjufvy7wOJAAAAAAAAAAApAAAABAAAAAABASvQBwAAAAAAACJRIBXFgVAm9qVLEBlPxpgPGGagLZ7BKFM8eZfNtCib8+8WAQMEAAAAACEWD96mnkCjre883H+m868C9MnZ4yVFA8lqaitKpm53gXEVAPZc2GkAAAAAAAAAACkAAAAFAAAAIRYdl4oXSG/55HyCmQJp5TH8Y5gUGdTOc+6L0smWYcU5UxUA8u8DiQAAAAAAAAAAKQAAAAUAAAABFyDrWtKaha7STeKIDndMqvYk+csb4Jxn7Urvu5t7wS3fGgEYILKkl+pNC1L1ARrhNdC74Nnr13e7KOczy8wTE0tzEGoaSPwFQklUR08BFcWBUCb2pUsQGU/GmA8YZqAtnsEoUzx5l820KJvz7xbrWtKaha7STeKIDndMqvYk+csb4Jxn7Urvu5t7wS3fGkICHZeKF0hv+eR8gpkCaeUx/GOYFBnUznPui9LJlmHFOVMCD96mnkCjre883H+m868C9MnZ4yVFA8lqaitKpm53gXFJ/AVCSVRHTwICD96mnkCjre883H+m868C9MnZ4yVFA8lqaitKpm53gXEVxYFQJvalSxAZT8aYDxhmoC2ewShTPHmXzbQom/PvFkICO135HOr5/VSUgUzOfdLtyOehu2kQD2qAWGPaNW+o34cD2rDZMAXzsM05tzaT19dpK6CmsV2vTCgVHFdvHw5iFbVJ/AVCSVRHTwICHZeKF0hv+eR8gpkCaeUx/GOYFBnUznPui9LJlmHFOVMVxYFQJvalSxAZT8aYDxhmoC2ewShTPHmXzbQom/PvFkICPFJN3QA2o35UcAm/yek3FG9tNAErZfkWTd+5sIX+znYCCtwIPe7VX4IKlQ+3rwl8rSJKkppG4yV+dXaOtDOaCLBJ/AVCSVRHTwMCD96mnkCjre883H+m868C9MnZ4yVFA8lqaitKpm53gXEVxYFQJvalSxAZT8aYDxhmoC2ewShTPHmXzbQom/PvFiC8HMBIqCOUzv/LyToXJO2OUksXB/FbQS7pelC4ClT+MEn8BUJJVEdPAwIdl4oXSG/55HyCmQJp5TH8Y5gUGdTOc+6L0smWYcU5UxXFgVAm9qVLEBlPxpgPGGagLZ7BKFM8eZfNtCib8+8WIOoxNb/al1oQD/RyY355jRL547KI5zFHqzoY/Jxn1ugiAAEBINAHAAAAAAAAF6kUILNwlNgqUTRR/wzNnbI6ugW8XvOHIgIDNu8ij/6bjv/7oFLDLTNGYN0fg2bPj+RK5apnK2tikJVHMEQCIEiQ/WF7M+z59W9aU/rbyqRHcBshnxB8OaGs7/iL6kRhAiAu8VTNI7F+eaI1dn5WhJAUm6rmmGKAgmZNstnmKcU+bgEBAwQBAAAAAQQjIQM27yKP/puO//ugUsMtM0Zg3R+DZs+P5Erlqmcra2KQlawAAQBpUiECzE0PpBHKwkRIb46ywI4DX/dBD0YKNZyn+IEJkb07QgkhAtcv0NDZApNDStX8oWDyeOA8YUSXqk5CXPRU4sEzD5arIQNE2IQTbfVQIChl/7xiGMf5yI/mzjnJRXmBkLrbOKdS8VOuIgICzE0PpBHKwkRIb46ywI4DX/dBD0YKNZyn+IEJkb07QgkU8u8DiQAAAAAAAAAAAAAAAAAAAAAiAgLXL9DQ2QKTQ0rV/KFg8njgPGFEl6pOQlz0VOLBMw+WqxTMGK4IAAAAAAAAAAAAAAAAAAAAACICA0TYhBNt9VAgKGX/vGIYx/nIj+bOOclFeYGQuts4p1LxFPZc2GkAAAAAAAAAAAAAAAAAAAAAAAEAIgAgKSsFI1GjxvgNUbrmQsyIIRgok9vu2ryPXQ6Wd0dgJsEBAWlSIQMuEfmFUmhf6QfzH55yYMkG6N5wDww8ny8UEGI9zf0ZwCEDVFdXzjXPHt+xO54sSi+c4Aq4w2vuEryiM3zlg/0orsghAqPPtmZf5E91ILahtN4aTUZkOzhesf0eCrcO+5ZUKXVUU64iAgKjz7ZmX+RPdSC2obTeGk1GZDs4XrH9Hgq3DvuWVCl1VBT2XNhpAAAAAAAAAAAKAAAAAQAAACICAy4R+YVSaF/pB/MfnnJgyQbo3nAPDDyfLxQQYj3N/RnAFPLvA4kAAAAAAAAAAAoAAAABAAAAIgIDVFdXzjXPHt+xO54sSi+c4Aq4w2vuEryiM3zlg/0orsgUzBiuCAAAAAAAAAAACgAAAAEAAAAAAQFpUiEC1tEUC9LA+RTLMMmSqi/NKD9HGpKBzuyexsW8RI5oaQAhA7hVqHWO2mhjZIRFqdPPuVOIrKF0YhrZjwmaHE+TJv7HIQKV97Un0upTek1CgwQQq/Q0BzG/myDlSXIAGTO5qiNTbFOuIgIClfe1J9LqU3pNQoMEEKv0NAcxv5sg5UlyABkzuaojU2wU9lzYaQAAAAAAAAAAFAAAAAIAAAAiAgLW0RQL0sD5FMswyZKqL80oP0cakoHO7J7GxbxEjmhpABTy7wOJAAAAAAAAAAAUAAAAAgAAACICA7hVqHWO2mhjZIRFqdPPuVOIrKF0YhrZjwmaHE+TJv7HFMwYrggAAAAAAAAAABQAAAACAAAAAAEFII6lgBbsq+PPhJDsZdd5FBVx+55cEurJBdGA8OEClDOUAQbVAcBEIJnkNlXCzz2VA2K7ajpEY4DoC3ofcOUohOtXaxNW3G5ArSCobX/mf2mUETFDzBY0TLHpl7jMjh3uI2Ubl8ecCa+a3awCwEQgmeQ2VcLPPZUDYrtqOkRjgOgLeh9w5SiE61drE1bcbkCtIDoJNTDqFZ1zyP+TCZ7gqbuemqOeCyuEZC1HtPgNSHy7rALARCA6CTUw6hWdc8j/kwme4Km7npqjngsrhGQtR7T4DUh8u60gqG1/5n9plBExQ8wWNEyx6Ze4zI4d7iNlG5fHnAmvmt2sIQc6CTUw6hWdc8j/kwme4Km7npqjngsrhGQtR7T4DUh8u1UCz5YFyuw4JDR71wrVbndglfpj87xoBNBDDOz/5OJT2M68Djt9lSrZVrt3Wd4hc1gsdQDY8p/kwa3mcRs515NYGswYrggAAAAAAAAAAB4AAAADAAAAIQeZ5DZVws89lQNiu2o6RGOA6At6H3DlKITrV2sTVtxuQFUCjWYJslQ1NIEOEhnFfBuh+xzCsadCcmwKp/N9A9AjQBrPlgXK7DgkNHvXCtVud2CV+mPzvGgE0EMM7P/k4lPYzvLvA4kAAAAAAAAAAB4AAAADAAAAIQeobX/mf2mUETFDzBY0TLHpl7jMjh3uI2Ubl8ecCa+a3VUCjWYJslQ1NIEOEhnFfBuh+xzCsadCcmwKp/N9A9AjQBq8Djt9lSrZVrt3Wd4hc1gsdQDY8p/kwa3mcRs515NYGvZc2GkAAAAAAAAAAB4AAAADAAAAAAEFIDG1rxQSHHqZfh9Y3HF4+LJYnjMP5ancjBZUn5DLvp7FAQaOAcBEIE6NDoNB/pVzOvyj2/GFLed2leKHlZeXxtgVn7+wK0i2rSDBYMJ6/MSIjFk/GN7i15hWV1CMA3BatvD2NdNSy69kmawBwEQgwWDCevzEiIxZPxje4teYVldQjANwWrbw9jXTUsuvZJmtIGg2CJCMi/6V448JkGihcBQDMhKe6wNICx5IBtT09DwsrCEHTo0Og0H+lXM6/KPb8YUt53aV4oeVl5fG2BWfv7ArSLY1AQ85UApUUg+u7+hOWk+VlZQ1IzB+8lOn3ccTGJpvWjLw8u8DiQAAAAAAAAAAKAAAAAQAAAAhB2g2CJCMi/6V448JkGihcBQDMhKe6wNICx5IBtT09DwsNQHXo1b7d7GOQ7yGFYDkXABEwIV+MbG952CD2QgMM9P/z/Zc2GkAAAAAAAAAACgAAAAEAAAAIQfBYMJ6/MSIjFk/GN7i15hWV1CMA3BatvD2NdNSy69kmVUCDzlQClRSD67v6E5aT5WVlDUjMH7yU6fdxxMYmm9aMvDXo1b7d7GOQ7yGFYDkXABEwIV+MbG952CD2QgMM9P/z8wYrggAAAAAAAAAACgAAAAEAAAAAAEAaVIhAy/I8jyVnscxESG7ZkxU2YXXGhGUyButHXKo7HvNJepTIQMPl2opuTggsYxJlVgoKS3TSCRdnNVjJmgcnqqaSVAD3SEDQNn2wZvrJ6gwIdKK58eAUFmD3C4ezHnnfb18rhBSiipTriICAw+Xaim5OCCxjEmVWCgpLdNIJF2c1WMmaByeqppJUAPdFNStg3IAAAAAAAAAAAAAAAAFAAAAIgIDL8jyPJWexzERIbtmTFTZhdcaEZTIG60dcqjse80l6lMUVH9FdgAAAAAAAAAAAAAAAAUAAAAiAgNA2fbBm+snqDAh0ornx4BQWYPcLh7Meed9vXyuEFKKKhRAXGW9AAAAAAAAAAAAAAAABQAAAAAAAA==",
  "psbtBase64Finalized": "cHNidP8BAP1EAgEAAAAHfM4S7/wupWTEInMz/TBUR+DeezrnpfzHUe//8+oTd+EAAAAAAP////+5x7KI/Wqg0UFZluKl2tmk4HDBKeF5J39T4y9gLxgGRgEAAAAA/////x9X2VYK6QcWALaWUzGS3Bd5kWT9P6EoBKf360IBxNXdAgAAAAD//////I/l/yqBjHZhpGKYCd8qH/1gttFlSfv0iCtU50E/+OYDAAAAAP////+ZiATmcY2Ux37vHos814e8wtv8vWwAmrMwQ+flANW0mwQAAAAA/////wKyPp/9VQ+gU/TEPgl7gRTkY8i6UscrMNMdEM3oU6q/BQAAAAD/////IA0CE0XUCyBMwioH66142hcVnzTCxlai9KUdaMbKd1QGAAAAAP////8IhAMAAAAAAAAXqRTZCUdEBMEko9BMP7/2H6pJz0PFi4eEAwAAAAAAABepFAVBJxIdN/MiZs2WfEhUBJdqZ63wh4QDAAAAAAAAIgAgukjj+YdEY5Q/kBkqRfGuiVt3k2KnYpr3rWqdeoNePU+EAwAAAAAAACJRILJyJ/XK3AVq/qSwK0uXuaAVF4YjTCatWI3M8TTniTHGhAMAAAAAAAAiUSBPc7VWE5nrOXtatBPgkMwMSP9wOmGv5Hz31Hoj1DuXi4QDAAAAAAAAF6kUHkkKKjZB/8zFV67N3KZxBPQpeLOHhAMAAAAAAAAXqRSVQoggP5aX4l6uy0jYW4qGCMOFz4cAAAAAAAAAABFqD3NldGVjIGFzdHJvbm9teQAAAABPAQSIsh4AAAAAAAAAAAA6ki4p8MjrDbKmBITL3LYx9rEHycquP/3PPn0uwfa80AMSFIcV82HatoWmadQkMeXW0/lzQE2rnJ/RuVCyea12NATMGK4ITwEEiLIeAAAAAAAAAAAAbR1lbT3dkcGUwEVlo2A3AqIQFs7RSiZfOJgtYnXme2QD07rCMTp8ayHLsRsUsNEDQfkiwKQDqL2Mh/Dcgg81r24E9lzYaU8BBIiyHgAAAAAAAAAAAMsE/WOrNNkP5kZriA4qAsz4qGM3QxKZGviRGxqqtEM0AzbvIo/+m47/+6BSwy0zRmDdH4Nmz4/kSuWqZytrYpCVBPLvA4kAAQEg0AcAAAAAAAAXqRRWfNe0T586B8MTjze/mEtg+7ryQ4cBB/wARzBEAiBO0WMUh7BsKfflhpmN6WrNQs7sdH4z3FKkVe/QBZ2hSgIgYV2NLxWTFMRe953YMUGdxcqxwhmH0PoU0Nv7pBE+IWQBRzBEAiAXIMMZ8az8limYvsENjhyRjNlvAtXxtev0HDn/HGJ8ugIgb3lB3iXtRovy5q0WeNMtSkrCwZt06hyagInHorqTPN4BTGlSIQP29AdkvV1j8gCid4iDrPdelvFQlcmYJjwIcnDQyX5+fyEDX/t6vHAVngRp9LmJptXheFopBBaf8FCy9Gj+XT1du/IhA+FSTX9vxXqz6su2WbeHEGeApHXR20g5UsIxC36aOJdbU64AAQEg0AcAAAAAAAAXqRQOJrJdDOrm+c/z7azKoNGnDadgD4cBByMiACBG1IAKE5MzAZYIU5ntShcAtML9OMUhiMOjqR9yHzyWAAEI/AQARzBEAiAKLZccQIMXA4WWrWqw7xcoL9PYs2jVmQJrxO8tvg1+pAIgQVYktrkumEZWbKt6go0iAX1JQGS3KqJiD9EyJbVJONMBRzBEAiBqe5kmEPMCrHMgqZmqQlMei2I7BJJ2ja8DLDnW1S7HxgIgZwk5+ezRAs5p6YdQBgZG214fsWKxiRNQuVqP8hN4+DwBaVIhAqWF8/q0m175U0bZMiIaIhvVXsGR8VUz4PJws1gldPA1IQLE94Zs/VmWvBBoqWMTyhXpzLXphFg6BzQN3a568BRgWyECI0UxvJEZo2p5Rula63SRXdCHx7RPUXuO7rc/iaD/GplTrgABASvQBwAAAAAAACIAINsEJ/GCK0d3Zw5mc8KK8C9todWv5xpx9ckGRHCyKfr9AQj9/QAEAEgwRQIhAOV9Qv9eGd5jMxK83uo6jSmMLwt9pZuAr1BXDXu59meKAiATSI5+hhg0Z8RDD+iFNvHkDd1OsbZP2/ANDVGVzLdXoAFHMEQCIBYhAZFPf631ypLeQBrK+fTpmVrPoiL8e7CdaSZQKQ2BAiAgAEsmVt2l79D4pIzcXjYrCS9TvAoSvzLLuWoAUlvydgFpUiEDUZ5XKrRoVg0fjQ+HaZ0JgwjhZpBfXcrkOQ8GD6qPHOMhA6BbwmORIh1oXhjar/NqHpXDT5lFElPBbNQmUNsninkRIQLoCgiIXDU2drggzcKQ5tgaCslaA+irv0u3ruv7cP60GFOuAAEBK9AHAAAAAAAAIlEgOUuU0GHXt3j+2KIEzgXtC0SVTsFiL5NPhBFOEXPzMCcBCP0KAQRAFGW39kL2C2xgOFdqeiBvrbQ39JX4xMiUS2zCRRkfqBPliNEAJUeBe+rgP6rKA0spAna0CD01BXI5gSvMecvQtUBL6KyxOmHkcYFIG28qBhQRy63pL3b/plLzsr8+B5h/iorWp6AsjVwaPN6xQcwYnwiUjSCfn6BE92ELvsWxbidyRCBzc9cjzgqH+P3WaEO+Etrp1Rk59oGI1a2WkgvvX1H0lq0gqojKGU/aQ0hlBLhqybcfEPxB3nsXE4dIOUJ/dOeMLVqsQcC8F+orv2/0a9XAw3gL4qY4gOt7t4KznthvKbmfSIKZThsXixtV08aqx7A540It/bnJ111Nb8kI6XQ+iLZR5I2DAAEBK9AHAAAAAAAAIlEgKbv69DhbENwrvnq01Q6Jzr6PUHlocnsZaJ4mOAg8xVsBCP0KAQRAxmYxS+/baIef6u87TkeH01G7aibXEcaGdKXmD8Y+EKKg8Bu6Eq8ZFKLd54V7HQ8zOQfzGMXWO+firrYR9xNTdUBq6mkEWbJWkrJIHcVf0iLU6PiFlrkwiTKElK9nwOsivPpmBhdROvcGh2JSFQqzI26WU5DS0pLIOZmyHRqLDIjTRCBkMVGrA/Ope7htNZLxL40lqAJtic1HNC/BtJxeLmNHi60gA1ydYy2y3bj5DPPM/JMYIryx8kVisjrgQavxLlS8pk2sQcGhB6QD96IH57H1UtP9P1X2SuQOFJ0NJvSGitf67JSet2N+N8rG5fIjR6to6Ha1WRF9lZfuezf7mDwqueUQI8l2AAEBK9AHAAAAAAAAIlEgFcWBUCb2pUsQGU/GmA8YZqAtnsEoUzx5l820KJvz7xYBCEIBQOwqF2s4VKMiaxx1dJXnSBYjoD1yimUwK/bMC9cP54A/P0l8EjUhHXOsuU+rGfCPheyfVsq4tT1uW1hVgaSzAFYAAQEg0AcAAAAAAAAXqRQgs3CU2CpRNFH/DM2dsjq6Bbxe84cBB2xHMEQCIEiQ/WF7M+z59W9aU/rbyqRHcBshnxB8OaGs7/iL6kRhAiAu8VTNI7F+eaI1dn5WhJAUm6rmmGKAgmZNstnmKcU+bgEjIQM27yKP/puO//ugUsMtM0Zg3R+DZs+P5Erlqmcra2KQlawAAQBpUiECzE0PpBHKwkRIb46ywI4DX/dBD0YKNZyn+IEJkb07QgkhAtcv0NDZApNDStX8oWDyeOA8YUSXqk5CXPRU4sEzD5arIQNE2IQTbfVQIChl/7xiGMf5yI/mzjnJRXmBkLrbOKdS8VOuIgICzE0PpBHKwkRIb46ywI4DX/dBD0YKNZyn+IEJkb07QgkU8u8DiQAAAAAAAAAAAAAAAAAAAAAiAgLXL9DQ2QKTQ0rV/KFg8njgPGFEl6pOQlz0VOLBMw+WqxTMGK4IAAAAAAAAAAAAAAAAAAAAACICA0TYhBNt9VAgKGX/vGIYx/nIj+bOOclFeYGQuts4p1LxFPZc2GkAAAAAAAAAAAAAAAAAAAAAAAEAIgAgKSsFI1GjxvgNUbrmQsyIIRgok9vu2ryPXQ6Wd0dgJsEBAWlSIQMuEfmFUmhf6QfzH55yYMkG6N5wDww8ny8UEGI9zf0ZwCEDVFdXzjXPHt+xO54sSi+c4Aq4w2vuEryiM3zlg/0orsghAqPPtmZf5E91ILahtN4aTUZkOzhesf0eCrcO+5ZUKXVUU64iAgKjz7ZmX+RPdSC2obTeGk1GZDs4XrH9Hgq3DvuWVCl1VBT2XNhpAAAAAAAAAAAKAAAAAQAAACICAy4R+YVSaF/pB/MfnnJgyQbo3nAPDDyfLxQQYj3N/RnAFPLvA4kAAAAAAAAAAAoAAAABAAAAIgIDVFdXzjXPHt+xO54sSi+c4Aq4w2vuEryiM3zlg/0orsgUzBiuCAAAAAAAAAAACgAAAAEAAAAAAQFpUiEC1tEUC9LA+RTLMMmSqi/NKD9HGpKBzuyexsW8RI5oaQAhA7hVqHWO2mhjZIRFqdPPuVOIrKF0YhrZjwmaHE+TJv7HIQKV97Un0upTek1CgwQQq/Q0BzG/myDlSXIAGTO5qiNTbFOuIgIClfe1J9LqU3pNQoMEEKv0NAcxv5sg5UlyABkzuaojU2wU9lzYaQAAAAAAAAAAFAAAAAIAAAAiAgLW0RQL0sD5FMswyZKqL80oP0cakoHO7J7GxbxEjmhpABTy7wOJAAAAAAAAAAAUAAAAAgAAACICA7hVqHWO2mhjZIRFqdPPuVOIrKF0YhrZjwmaHE+TJv7HFMwYrggAAAAAAAAAABQAAAACAAAAAAEFII6lgBbsq+PPhJDsZdd5FBVx+55cEurJBdGA8OEClDOUAQbVAcBEIJnkNlXCzz2VA2K7ajpEY4DoC3ofcOUohOtXaxNW3G5ArSCobX/mf2mUETFDzBY0TLHpl7jMjh3uI2Ubl8ecCa+a3awCwEQgmeQ2VcLPPZUDYrtqOkRjgOgLeh9w5SiE61drE1bcbkCtIDoJNTDqFZ1zyP+TCZ7gqbuemqOeCyuEZC1HtPgNSHy7rALARCA6CTUw6hWdc8j/kwme4Km7npqjngsrhGQtR7T4DUh8u60gqG1/5n9plBExQ8wWNEyx6Ze4zI4d7iNlG5fHnAmvmt2sIQc6CTUw6hWdc8j/kwme4Km7npqjngsrhGQtR7T4DUh8u1UCz5YFyuw4JDR71wrVbndglfpj87xoBNBDDOz/5OJT2M68Djt9lSrZVrt3Wd4hc1gsdQDY8p/kwa3mcRs515NYGswYrggAAAAAAAAAAB4AAAADAAAAIQeZ5DZVws89lQNiu2o6RGOA6At6H3DlKITrV2sTVtxuQFUCjWYJslQ1NIEOEhnFfBuh+xzCsadCcmwKp/N9A9AjQBrPlgXK7DgkNHvXCtVud2CV+mPzvGgE0EMM7P/k4lPYzvLvA4kAAAAAAAAAAB4AAAADAAAAIQeobX/mf2mUETFDzBY0TLHpl7jMjh3uI2Ubl8ecCa+a3VUCjWYJslQ1NIEOEhnFfBuh+xzCsadCcmwKp/N9A9AjQBq8Djt9lSrZVrt3Wd4hc1gsdQDY8p/kwa3mcRs515NYGvZc2GkAAAAAAAAAAB4AAAADAAAAAAEFIDG1rxQSHHqZfh9Y3HF4+LJYnjMP5ancjBZUn5DLvp7FAQaOAcBEIE6NDoNB/pVzOvyj2/GFLed2leKHlZeXxtgVn7+wK0i2rSDBYMJ6/MSIjFk/GN7i15hWV1CMA3BatvD2NdNSy69kmawBwEQgwWDCevzEiIxZPxje4teYVldQjANwWrbw9jXTUsuvZJmtIGg2CJCMi/6V448JkGihcBQDMhKe6wNICx5IBtT09DwsrCEHTo0Og0H+lXM6/KPb8YUt53aV4oeVl5fG2BWfv7ArSLY1AQ85UApUUg+u7+hOWk+VlZQ1IzB+8lOn3ccTGJpvWjLw8u8DiQAAAAAAAAAAKAAAAAQAAAAhB2g2CJCMi/6V448JkGihcBQDMhKe6wNICx5IBtT09DwsNQHXo1b7d7GOQ7yGFYDkXABEwIV+MbG952CD2QgMM9P/z/Zc2GkAAAAAAAAAACgAAAAEAAAAIQfBYMJ6/MSIjFk/GN7i15hWV1CMA3BatvD2NdNSy69kmVUCDzlQClRSD67v6E5aT5WVlDUjMH7yU6fdxxMYmm9aMvDXo1b7d7GOQ7yGFYDkXABEwIV+MbG952CD2QgMM9P/z8wYrggAAAAAAAAAACgAAAAEAAAAAAEAaVIhAy/I8jyVnscxESG7ZkxU2YXXGhGUyButHXKo7HvNJepTIQMPl2opuTggsYxJlVgoKS3TSCRdnNVjJmgcnqqaSVAD3SEDQNn2wZvrJ6gwIdKK58eAUFmD3C4ezHnnfb18rhBSiipTriICAw+Xaim5OCCxjEmVWCgpLdNIJF2c1WMmaByeqppJUAPdFNStg3IAAAAAAAAAAAAAAAAFAAAAIgIDL8jyPJWexzERIbtmTFTZhdcaEZTIG60dcqjse80l6lMUVH9FdgAAAAAAAAAAAAAAAAUAAAAiAgNA2fbBm+snqDAh0ornx4BQWYPcLh7Meed9vXyuEFKKKhRAXGW9AAAAAAAAAAAAAAAABQAAAAAAAA==",
  "inputs": [
    {
      "hash": "7cce12effc2ea564c4227333fd305447e0de7b3ae7a5fcc751effff3ea1377e1",
      "index": 0,
      "sequence": 4294967295
    },
    {
      "hash": "b9c7b288fd6aa0d1415996e2a5dad9a4e070c129e179277f53e32f602f180646",
      "index": 1,
      "sequence": 4294967295
    },
    {
      "hash": "1f57d9560ae9071600b696533192dc17799164fd3fa12804a7f7eb4201c4d5dd",
      "index": 2,
      "sequence": 4294967295
    },
    {
      "hash": "fc8fe5ff2a818c7661a4629809df2a1ffd60b6d16549fbf4882b54e7413ff8e6",
      "index": 3,
      "sequence": 4294967295
    },
    {
      "hash": "998804e6718d94c77eef1e8b3cd787bcc2dbfcbd6c009ab33043e7e500d5b49b",
      "index": 4,
      "sequence": 4294967295
    },
    {
      "hash": "02b23e9ffd550fa053f4c43e097b8114e463c8ba52c72b30d31d10cde853aabf",
      "index": 5,
      "sequence": 4294967295
    },
    {
      "hash": "200d021345d40b204cc22a07ebad78da17159f34c2c656a2f4a51d68c6ca7754",
      "index": 6,
      "sequence": 4294967295
    }
  ],
  "psbtInputs": [
    {
      "type": "p2sh",
      "partialSig": [
        {
          "pubkey": "03e1524d7f6fc57ab3eacbb659b787106780a475d1db483952c2310b7e9a38975b",
          "signature": "304402201720c319f1acfc962998bec10d8e1c918cd96f02d5f1b5ebf41c39ff1c627cba02206f7941de25ed468bf2e6ad1678d32d4a4ac2c19b74ea1c9a8089c7a2ba933cde01"
        },
        {
          "pubkey": "03f6f40764bd5d63f200a2778883acf75e96f15095c998263c087270d0c97e7e7f",
          "signature": "304402204ed1631487b06c29f7e586998de96acd42ceec747e33dc52a455efd0059da14a0220615d8d2f159314c45ef79dd831419dc5cab1c21987d0fa14d0dbfba4113e216401"
        }
      ],
      "sighashType": 1,
      "redeemScript": "522103f6f40764bd5d63f200a2778883acf75e96f15095c998263c087270d0c97e7e7f21035ffb7abc70159e0469f4b989a6d5e1785a2904169ff050b2f468fe5d3d5dbbf22103e1524d7f6fc57ab3eacbb659b787106780a475d1db483952c2310b7e9a38975b53ae",
      "bip32Derivation": [
        {
          "masterFingerprint": "cc18ae08",
          "pubkey": "035ffb7abc70159e0469f4b989a6d5e1785a2904169ff050b2f468fe5d3d5dbbf2",
          "path": "0/0/1/0"
        },
        {
          "masterFingerprint": "f65cd869",
          "pubkey": "03e1524d7f6fc57ab3eacbb659b787106780a475d1db483952c2310b7e9a38975b",
          "path": "0/0/1/0"
        },
        {
          "masterFingerprint": "f2ef0389",
          "pubkey": "03f6f40764bd5d63f200a2778883acf75e96f15095c998263c087270d0c97e7e7f",
          "path": "0/0/1/0"
        }
      ],
      "witnessUtxo": {
        "value": "2000",
        "script": "a914567cd7b44f9f3a07c3138f37bf984b60fbbaf24387"
      }
    },
    {
      "type": "p2shP2wsh",
      "witnessUtxo": {
        "script": "a9140e26b25d0ceae6f9cff3edaccaa0d1a70da7600f87",
        "value": "2000"
      },
      "partialSig": [
        {
          "pubkey": "02234531bc9119a36a7946e95aeb74915dd087c7b44f517b8eeeb73f89a0ff1a99",
          "signature": "304402206a7b992610f302ac7320a999aa42531e8b623b0492768daf032c39d6d52ec7c60220670939f9ecd102ce69e98750060646db5e1fb162b1891350b95a8ff21378f83c01"
        },
        {
          "pubkey": "02a585f3fab49b5ef95346d932221a221bd55ec191f15533e0f270b3582574f035",
          "signature": "304402200a2d971c408317038596ad6ab0ef17282fd3d8b368d599026bc4ef2dbe0d7ea40220415624b6b92e9846566cab7a828d22017d494064b72aa2620fd13225b54938d301"
        }
      ],
      "sighashType": 1,
      "redeemScript": "002046d4800a1393330196085399ed4a1700b4c2fd38c52188c3a3a91f721f3c9600",
      "witnessScript": "522102a585f3fab49b5ef95346d932221a221bd55ec191f15533e0f270b3582574f0352102c4f7866cfd5996bc1068a96313ca15e9ccb5e984583a07340dddae7af014605b2102234531bc9119a36a7946e95aeb74915dd087c7b44f517b8eeeb73f89a0ff1a9953ae",
      "bip32Derivation": [
        {
          "masterFingerprint": "f65cd869",
          "pubkey": "02234531bc9119a36a7946e95aeb74915dd087c7b44f517b8eeeb73f89a0ff1a99",
          "path": "0/0/11/1"
        },
        {
          "masterFingerprint": "f2ef0389",
          "pubkey": "02a585f3fab49b5ef95346d932221a221bd55ec191f15533e0f270b3582574f035",
          "path": "0/0/11/1"
        },
        {
          "masterFingerprint": "cc18ae08",
          "pubkey": "02c4f7866cfd5996bc1068a96313ca15e9ccb5e984583a07340dddae7af014605b",
          "path": "0/0/11/1"
        }
      ]
    },
    {
      "type": "p2wsh",
      "witnessUtxo": {
        "script": "0020db0427f1822b4777670e6673c28af02f6da1d5afe71a71f5c9064470b229fafd",
        "value": "2000"
      },
      "partialSig": [
        {
          "pubkey": "02e80a08885c353676b820cdc290e6d81a0ac95a03e8abbf4bb7aeebfb70feb418",
          "signature": "30440220162101914f7fadf5ca92de401acaf9f4e9995acfa222fc7bb09d692650290d81022020004b2656dda5efd0f8a48cdc5e362b092f53bc0a12bf32cbb96a00525bf27601"
        },
        {
          "pubkey": "03519e572ab468560d1f8d0f87699d098308e166905f5dcae4390f060faa8f1ce3",
          "signature": "3045022100e57d42ff5e19de633312bcdeea3a8d298c2f0b7da59b80af50570d7bb9f6678a022013488e7e86183467c4430fe88536f1e40ddd4eb1b64fdbf00d0d5195ccb757a001"
        }
      ],
      "sighashType": 1,
      "witnessScript": "522103519e572ab468560d1f8d0f87699d098308e166905f5dcae4390f060faa8f1ce32103a05bc26391221d685e18daaff36a1e95c34f99451253c16cd42650db278a79112102e80a08885c353676b820cdc290e6d81a0ac95a03e8abbf4bb7aeebfb70feb41853ae",
      "bip32Derivation": [
        {
          "masterFingerprint": "f65cd869",
          "pubkey": "02e80a08885c353676b820cdc290e6d81a0ac95a03e8abbf4bb7aeebfb70feb418",
          "path": "0/0/21/2"
        },
        {
          "masterFingerprint": "f2ef0389",
          "pubkey": "03519e572ab468560d1f8d0f87699d098308e166905f5dcae4390f060faa8f1ce3",
          "path": "0/0/21/2"
        },
        {
          "masterFingerprint": "cc18ae08",
          "pubkey": "03a05bc26391221d685e18daaff36a1e95c34f99451253c16cd42650db278a7911",
          "path": "0/0/21/2"
        }
      ]
    },
    {
      "type": "p2tr",
      "witnessUtxo": {
        "script": "5120394b94d061d7b778fed8a204ce05ed0b44954ec1622f934f84114e1173f33027",
        "value": "2000"
      },
      "sighashType": 0,
      "tapScriptSig": [
        {
          "pubkey": "7373d723ce0a87f8fdd66843be12dae9d51939f68188d5ad96920bef5f51f496",
          "leafHash": "83d7f98e9ef0f7336a06f4a0115183a9f996cbac1228e9aa7638f447f0249f30",
          "signature": "4be8acb13a61e47181481b6f2a061411cbade92f76ffa652f3b2bf3e07987f8a8ad6a7a02c8d5c1a3cdeb141cc189f08948d209f9fa044f7610bbec5b16e2772"
        },
        {
          "pubkey": "aa88ca194fda43486504b86ac9b71f10fc41de7b1713874839427f74e78c2d5a",
          "leafHash": "83d7f98e9ef0f7336a06f4a0115183a9f996cbac1228e9aa7638f447f0249f30",
          "signature": "1465b7f642f60b6c6038576a7a206fadb437f495f8c4c8944b6cc245191fa813e588d1002547817beae03faaca034b290276b4083d35057239812bcc79cbd0b5"
        }
      ],
      "tapLeafScript": [
        {
          "controlBlock": "c0bc17ea2bbf6ff46bd5c0c3780be2a63880eb7bb782b39ed86f29b99f4882994e1b178b1b55d3c6aac7b039e3422dfdb9c9d75d4d6fc908e9743e88b651e48d83",
          "script": "207373d723ce0a87f8fdd66843be12dae9d51939f68188d5ad96920bef5f51f496ad20aa88ca194fda43486504b86ac9b71f10fc41de7b1713874839427f74e78c2d5aac",
          "leafVersion": 192
        }
      ],
      "tapBip32Derivation": [
        {
          "masterFingerprint": "f2ef0389",
          "pubkey": "7373d723ce0a87f8fdd66843be12dae9d51939f68188d5ad96920bef5f51f496",
          "path": "0/0/31/3",
          "leafHashes": [
            "83d7f98e9ef0f7336a06f4a0115183a9f996cbac1228e9aa7638f447f0249f30"
          ]
        },
        {
          "masterFingerprint": "f65cd869",
          "pubkey": "aa88ca194fda43486504b86ac9b71f10fc41de7b1713874839427f74e78c2d5a",
          "path": "0/0/31/3",
          "leafHashes": [
            "83d7f98e9ef0f7336a06f4a0115183a9f996cbac1228e9aa7638f447f0249f30"
          ]
        }
      ]
    },
    {
      "type": "p2trMusig2",
      "witnessUtxo": {
        "script": "512029bbfaf4385b10dc2bbe7ab4d50e89cebe8f507968727b19689e2638083cc55b",
        "value": "2000"
      },
      "sighashType": 0,
      "tapScriptSig": [
        {
          "pubkey": "035c9d632db2ddb8f90cf3ccfc931822bcb1f24562b23ae041abf12e54bca64d",
          "leafHash": "429069c8320ff5f1c8ac2a0b1047ff1450b8c0d325e1d12f1c52684d91a3b9fb",
          "signature": "c666314befdb68879feaef3b4e4787d351bb6a26d711c68674a5e60fc63e10a2a0f01bba12af1914a2dde7857b1d0f333907f318c5d63be7e2aeb611f7135375"
        },
        {
          "pubkey": "643151ab03f3a97bb86d3592f12f8d25a8026d89cd47342fc1b49c5e2e63478b",
          "leafHash": "429069c8320ff5f1c8ac2a0b1047ff1450b8c0d325e1d12f1c52684d91a3b9fb",
          "signature": "6aea690459b25692b2481dc55fd222d4e8f88596b93089328494af67c0eb22bcfa660617513af706876252150ab3236e965390d2d292c83999b21d1a8b0c88d3"
        }
      ],
      "tapLeafScript": [
        {
          "controlBlock": "c1a107a403f7a207e7b1f552d3fd3f55f64ae40e149d0d26f4868ad7faec949eb7637e37cac6e5f22347ab68e876b559117d9597ee7b37fb983c2ab9e51023c976",
          "script": "20643151ab03f3a97bb86d3592f12f8d25a8026d89cd47342fc1b49c5e2e63478bad20035c9d632db2ddb8f90cf3ccfc931822bcb1f24562b23ae041abf12e54bca64dac",
          "leafVersion": 192
        }
      ],
      "tapBip32Derivation": [
        {
          "masterFingerprint": "cc18ae08",
          "pubkey": "035c9d632db2ddb8f90cf3ccfc931822bcb1f24562b23ae041abf12e54bca64d",
          "path": "0/0/41/4",
          "leafHashes": [
            "429069c8320ff5f1c8ac2a0b1047ff1450b8c0d325e1d12f1c52684d91a3b9fb"
          ]
        },
        {
          "masterFingerprint": "f2ef0389",
          "pubkey": "643151ab03f3a97bb86d3592f12f8d25a8026d89cd47342fc1b49c5e2e63478b",
          "path": "0/0/41/4",
          "leafHashes": [
            "429069c8320ff5f1c8ac2a0b1047ff1450b8c0d325e1d12f1c52684d91a3b9fb"
          ]
        }
      ]
    },
    {
      "type": "taprootKeyPathSpend",
      "witnessUtxo": {
        "script": "512015c5815026f6a54b10194fc6980f1866a02d9ec128533c7997cdb4289bf3ef16",
        "value": "2000"
      },
      "sighashType": 0,
      "tapBip32Derivation": [
        {
          "masterFingerprint": "f65cd869",
          "pubkey": "0fdea69e40a3adef3cdc7fa6f3af02f4c9d9e3254503c96a6a2b4aa66e778171",
          "path": "0/0/41/5",
          "leafHashes": []
        },
        {
          "masterFingerprint": "f2ef0389",
          "pubkey": "1d978a17486ff9e47c82990269e531fc63981419d4ce73ee8bd2c99661c53953",
          "path": "0/0/41/5",
          "leafHashes": []
        }
      ],
      "tapInternalKey": "eb5ad29a85aed24de2880e774caaf624f9cb1be09c67ed4aefbb9b7bc12ddf1a",
      "tapMerkleRoot": "b2a497ea4d0b52f5011ae135d0bbe0d9ebd777bb28e733cbcc13134b73106a1a",
      "unknownKeyVals": [
        {
          "key": "fc05424954474f0115c5815026f6a54b10194fc6980f1866a02d9ec128533c7997cdb4289bf3ef16eb5ad29a85aed24de2880e774caaf624f9cb1be09c67ed4aefbb9b7bc12ddf1a",
          "value": "021d978a17486ff9e47c82990269e531fc63981419d4ce73ee8bd2c99661c53953020fdea69e40a3adef3cdc7fa6f3af02f4c9d9e3254503c96a6a2b4aa66e778171"
        },
        {
          "key": "fc05424954474f02020fdea69e40a3adef3cdc7fa6f3af02f4c9d9e3254503c96a6a2b4aa66e77817115c5815026f6a54b10194fc6980f1866a02d9ec128533c7997cdb4289bf3ef16",
          "value": "023b5df91ceaf9fd5494814cce7dd2edc8e7a1bb69100f6a805863da356fa8df8703dab0d93005f3b0cd39b73693d7d7692ba0a6b15daf4c28151c576f1f0e6215b5"
        },
        {
          "key": "fc05424954474f02021d978a17486ff9e47c82990269e531fc63981419d4ce73ee8bd2c99661c5395315c5815026f6a54b10194fc6980f1866a02d9ec128533c7997cdb4289bf3ef16",
          "value": "023c524ddd0036a37e547009bfc9e937146f6d34012b65f9164ddfb9b085fece76020adc083deed55f820a950fb7af097cad224a929a46e3257e75768eb4339a08b0"
        },
        {
          "key": "fc05424954474f03020fdea69e40a3adef3cdc7fa6f3af02f4c9d9e3254503c96a6a2b4aa66e77817115c5815026f6a54b10194fc6980f1866a02d9ec128533c7997cdb4289bf3ef16",
          "value": "bc1cc048a82394ceffcbc93a1724ed8e524b1707f15b412ee97a50b80a54fe30"
        },
        {
          "key": "fc05424954474f03021d978a17486ff9e47c82990269e531fc63981419d4ce73ee8bd2c99661c5395315c5815026f6a54b10194fc6980f1866a02d9ec128533c7997cdb4289bf3ef16",
          "value": "ea3135bfda975a100ff472637e798d12f9e3b288e73147ab3a18fc9c67d6e822"
        }
      ],
      "musig2Participants": {
        "tapOutputKey": "15c5815026f6a54b10194fc6980f1866a02d9ec128533c7997cdb4289bf3ef16",
        "tapInternalKey": "eb5ad29a85aed24de2880e774caaf624f9cb1be09c67ed4aefbb9b7bc12ddf1a",
        "participantPubKeys": [
          "021d978a17486ff9e47c82990269e531fc63981419d4ce73ee8bd2c99661c53953",
          "020fdea69e40a3adef3cdc7fa6f3af02f4c9d9e3254503c96a6a2b4aa66e778171"
        ]
      },
      "musig2Nonces": [
        {
          "participantPubKey": "020fdea69e40a3adef3cdc7fa6f3af02f4c9d9e3254503c96a6a2b4aa66e778171",
          "tapOutputKey": "15c5815026f6a54b10194fc6980f1866a02d9ec128533c7997cdb4289bf3ef16",
          "pubNonce": "023b5df91ceaf9fd5494814cce7dd2edc8e7a1bb69100f6a805863da356fa8df8703dab0d93005f3b0cd39b73693d7d7692ba0a6b15daf4c28151c576f1f0e6215b5"
        },
        {
          "participantPubKey": "021d978a17486ff9e47c82990269e531fc63981419d4ce73ee8bd2c99661c53953",
          "tapOutputKey": "15c5815026f6a54b10194fc6980f1866a02d9ec128533c7997cdb4289bf3ef16",
          "pubNonce": "023c524ddd0036a37e547009bfc9e937146f6d34012b65f9164ddfb9b085fece76020adc083deed55f820a950fb7af097cad224a929a46e3257e75768eb4339a08b0"
        }
      ],
      "musig2PartialSigs": [
        {
          "participantPubKey": "020fdea69e40a3adef3cdc7fa6f3af02f4c9d9e3254503c96a6a2b4aa66e778171",
          "tapOutputKey": "15c5815026f6a54b10194fc6980f1866a02d9ec128533c7997cdb4289bf3ef16",
          "partialSig": "bc1cc048a82394ceffcbc93a1724ed8e524b1707f15b412ee97a50b80a54fe30"
        },
        {
          "participantPubKey": "021d978a17486ff9e47c82990269e531fc63981419d4ce73ee8bd2c99661c53953",
          "tapOutputKey": "15c5815026f6a54b10194fc6980f1866a02d9ec128533c7997cdb4289bf3ef16",
          "partialSig": "ea3135bfda975a100ff472637e798d12f9e3b288e73147ab3a18fc9c67d6e822"
        }
      ]
    },
    {
      "type": "p2shP2pk",
      "partialSig": [
        {
          "pubkey": "0336ef228ffe9b8efffba052c32d334660dd1f8366cf8fe44ae5aa672b6b629095",
          "signature": "304402204890fd617b33ecf9f56f5a53fadbcaa447701b219f107c39a1aceff88bea446102202ef154cd23b17e79a235767e568490149baae698628082664db2d9e629c53e6e01"
        }
      ],
      "sighashType": 1,
      "redeemScript": "210336ef228ffe9b8efffba052c32d334660dd1f8366cf8fe44ae5aa672b6b629095ac",
      "witnessUtxo": {
        "value": "2000",
        "script": "a91420b37094d82a513451ff0ccd9db23aba05bc5ef387"
      }
    }
  ],
  "psbtInputsFinalized": [
    {
      "type": "p2sh",
      "witnessUtxo": {
        "script": "a914567cd7b44f9f3a07c3138f37bf984b60fbbaf24387",
        "value": "2000"
      },
      "finalScriptSig": "0047304402204ed1631487b06c29f7e586998de96acd42ceec747e33dc52a455efd0059da14a0220615d8d2f159314c45ef79dd831419dc5cab1c21987d0fa14d0dbfba4113e21640147304402201720c319f1acfc962998bec10d8e1c918cd96f02d5f1b5ebf41c39ff1c627cba02206f7941de25ed468bf2e6ad1678d32d4a4ac2c19b74ea1c9a8089c7a2ba933cde014c69522103f6f40764bd5d63f200a2778883acf75e96f15095c998263c087270d0c97e7e7f21035ffb7abc70159e0469f4b989a6d5e1785a2904169ff050b2f468fe5d3d5dbbf22103e1524d7f6fc57ab3eacbb659b787106780a475d1db483952c2310b7e9a38975b53ae"
    },
    {
      "type": "p2shP2wsh",
      "witnessUtxo": {
        "script": "a9140e26b25d0ceae6f9cff3edaccaa0d1a70da7600f87",
        "value": "2000"
      },
      "finalScriptSig": "22002046d4800a1393330196085399ed4a1700b4c2fd38c52188c3a3a91f721f3c9600",
      "finalScriptWitness": "040047304402200a2d971c408317038596ad6ab0ef17282fd3d8b368d599026bc4ef2dbe0d7ea40220415624b6b92e9846566cab7a828d22017d494064b72aa2620fd13225b54938d30147304402206a7b992610f302ac7320a999aa42531e8b623b0492768daf032c39d6d52ec7c60220670939f9ecd102ce69e98750060646db5e1fb162b1891350b95a8ff21378f83c0169522102a585f3fab49b5ef95346d932221a221bd55ec191f15533e0f270b3582574f0352102c4f7866cfd5996bc1068a96313ca15e9ccb5e984583a07340dddae7af014605b2102234531bc9119a36a7946e95aeb74915dd087c7b44f517b8eeeb73f89a0ff1a9953ae"
    },
    {
      "type": "p2wsh",
      "witnessUtxo": {
        "script": "0020db0427f1822b4777670e6673c28af02f6da1d5afe71a71f5c9064470b229fafd",
        "value": "2000"
      },
      "finalScriptWitness": "0400483045022100e57d42ff5e19de633312bcdeea3a8d298c2f0b7da59b80af50570d7bb9f6678a022013488e7e86183467c4430fe88536f1e40ddd4eb1b64fdbf00d0d5195ccb757a0014730440220162101914f7fadf5ca92de401acaf9f4e9995acfa222fc7bb09d692650290d81022020004b2656dda5efd0f8a48cdc5e362b092f53bc0a12bf32cbb96a00525bf2760169522103519e572ab468560d1f8d0f87699d098308e166905f5dcae4390f060faa8f1ce32103a05bc26391221d685e18daaff36a1e95c34f99451253c16cd42650db278a79112102e80a08885c353676b820cdc290e6d81a0ac95a03e8abbf4bb7aeebfb70feb41853ae"
    },
    {
      "type": "p2tr",
      "witnessUtxo": {
        "script": "5120394b94d061d7b778fed8a204ce05ed0b44954ec1622f934f84114e1173f33027",
        "value": "2000"
      },
      "finalScriptWitness": "04401465b7f642f60b6c6038576a7a206fadb437f495f8c4c8944b6cc245191fa813e588d1002547817beae03faaca034b290276b4083d35057239812bcc79cbd0b5404be8acb13a61e47181481b6f2a061411cbade92f76ffa652f3b2bf3e07987f8a8ad6a7a02c8d5c1a3cdeb141cc189f08948d209f9fa044f7610bbec5b16e277244207373d723ce0a87f8fdd66843be12dae9d51939f68188d5ad96920bef5f51f496ad20aa88ca194fda43486504b86ac9b71f10fc41de7b1713874839427f74e78c2d5aac41c0bc17ea2bbf6ff46bd5c0c3780be2a63880eb7bb782b39ed86f29b99f4882994e1b178b1b55d3c6aac7b039e3422dfdb9c9d75d4d6fc908e9743e88b651e48d83"
    },
    {
      "type": "p2trMusig2",
      "witnessUtxo": {
        "script": "512029bbfaf4385b10dc2bbe7ab4d50e89cebe8f507968727b19689e2638083cc55b",
        "value": "2000"
      },
      "finalScriptWitness": "0440c666314befdb68879feaef3b4e4787d351bb6a26d711c68674a5e60fc63e10a2a0f01bba12af1914a2dde7857b1d0f333907f318c5d63be7e2aeb611f7135375406aea690459b25692b2481dc55fd222d4e8f88596b93089328494af67c0eb22bcfa660617513af706876252150ab3236e965390d2d292c83999b21d1a8b0c88d34420643151ab03f3a97bb86d3592f12f8d25a8026d89cd47342fc1b49c5e2e63478bad20035c9d632db2ddb8f90cf3ccfc931822bcb1f24562b23ae041abf12e54bca64dac41c1a107a403f7a207e7b1f552d3fd3f55f64ae40e149d0d26f4868ad7faec949eb7637e37cac6e5f22347ab68e876b559117d9597ee7b37fb983c2ab9e51023c976"
    },
    {
      "type": "taprootKeyPathSpend",
      "witnessUtxo": {
        "script": "512015c5815026f6a54b10194fc6980f1866a02d9ec128533c7997cdb4289bf3ef16",
        "value": "2000"
      },
      "unknownKeyVals": [],
      "finalScriptWitness": "0140ec2a176b3854a3226b1c757495e7481623a03d728a65302bf6cc0bd70fe7803f3f497c1235211d73acb94fab19f08f85ec9f56cab8b53d6e5b585581a4b30056"
    },
    {
      "type": "p2shP2pk",
      "witnessUtxo": {
        "script": "a91420b37094d82a513451ff0ccd9db23aba05bc5ef387",
        "value": "2000"
      },
      "finalScriptSig": "47304402204890fd617b33ecf9f56f5a53fadbcaa447701b219f107c39a1aceff88bea446102202ef154cd23b17e79a235767e568490149baae698628082664db2d9e629c53e6e0123210336ef228ffe9b8efffba052c32d334660dd1f8366cf8fe44ae5aa672b6b629095ac"
    }
  ],
  "outputs": [
    {
      "script": "a914d909474404c124a3d04c3fbff61faa49cf43c58b87",
      "value": "900",
      "address": "3MUbfqvBeD7g1R3b9g8ZQxDwjR7SjQWciv"
    },
    {
      "script": "a914054127121d37f32266cd967c485404976a67adf087",
      "value": "900",
      "address": "32AoMPMpT2ErEqupk6CJvrEMrj6TzmZu8V"
    },
    {
      "script": "0020ba48e3f9874463943f90192a45f1ae895b779362a7629af7ad6a9d7a835e3d4f",
      "value": "900",
      "address": "bc1qhfyw87v8g33eg0usry4ytudw39dh0ymz5a3f4aadd2wh4q67848sqay5xu"
    },
    {
      "script": "5120b27227f5cadc056afea4b02b4b97b9a0151786234c26ad588dccf134e78931c6",
      "value": "900",
      "address": "bc1pkfez0aw2mszk4l4ykq45h9ae5q230p3rfsn26kydencnfeufx8rq23ty2z"
    },
    {
      "script": "51204f73b5561399eb397b5ab413e090cc0c48ff703a61afe47cf7d47a23d43b978b",
      "value": "900",
      "address": "bc1pfaem24snn84nj766ksf7pyxvp3y07up6vxh7gl8h63az84pmj79sehcc5d"
    },
    {
      "script": "a9141e490a2a3641ffccc557aecddca67104f42978b387",
      "value": "900",
      "address": "34T9hBmUH9m7aCiJzk3BCPuLaGdGKRmWdL"
    },
    {
      "script": "a914954288203f9697e25eaecb48d85b8a8608c385cf87",
      "value": "900",
      "address": "3FJEJqGMWCA8XUnK1jypEy7bu74YMCT8eE"
    },
    {
      "script": "6a0f736574656320617374726f6e6f6d79",
      "value": "0"
    }
  ],
  "psbtOutputs": [
    {
      "redeemScript": "522102cc4d0fa411cac244486f8eb2c08e035ff7410f460a359ca7f8810991bd3b42092102d72fd0d0d90293434ad5fca160f278e03c614497aa4e425cf454e2c1330f96ab210344d884136df550202865ffbc6218c7f9c88fe6ce39c945798190badb38a752f153ae",
      "bip32Derivation": [
        {
          "masterFingerprint": "f2ef0389",
          "pubkey": "02cc4d0fa411cac244486f8eb2c08e035ff7410f460a359ca7f8810991bd3b4209",
          "path": "0/0/0/0"
        },
        {
          "masterFingerprint": "cc18ae08",
          "pubkey": "02d72fd0d0d90293434ad5fca160f278e03c614497aa4e425cf454e2c1330f96ab",
          "path": "0/0/0/0"
        },
        {
          "masterFingerprint": "f65cd869",
          "pubkey": "0344d884136df550202865ffbc6218c7f9c88fe6ce39c945798190badb38a752f1",
          "path": "0/0/0/0"
        }
      ]
    },
    {
      "redeemScript": "0020292b052351a3c6f80d51bae642cc8821182893dbeedabc8f5d0e9677476026c1",
      "witnessScript": "5221032e11f98552685fe907f31f9e7260c906e8de700f0c3c9f2f1410623dcdfd19c02103545757ce35cf1edfb13b9e2c4a2f9ce00ab8c36bee12bca2337ce583fd28aec82102a3cfb6665fe44f7520b6a1b4de1a4d46643b385eb1fd1e0ab70efb965429755453ae",
      "bip32Derivation": [
        {
          "masterFingerprint": "f65cd869",
          "pubkey": "02a3cfb6665fe44f7520b6a1b4de1a4d46643b385eb1fd1e0ab70efb9654297554",
          "path": "0/0/10/1"
        },
        {
          "masterFingerprint": "f2ef0389",
          "pubkey": "032e11f98552685fe907f31f9e7260c906e8de700f0c3c9f2f1410623dcdfd19c0",
          "path": "0/0/10/1"
        },
        {
          "masterFingerprint": "cc18ae08",
          "pubkey": "03545757ce35cf1edfb13b9e2c4a2f9ce00ab8c36bee12bca2337ce583fd28aec8",
          "path": "0/0/10/1"
        }
      ]
    },
    {
      "witnessScript": "522102d6d1140bd2c0f914cb30c992aa2fcd283f471a9281ceec9ec6c5bc448e6869002103b855a8758eda6863648445a9d3cfb95388aca174621ad98f099a1c4f9326fec7210295f7b527d2ea537a4d42830410abf4340731bf9b20e54972001933b9aa23536c53ae",
      "bip32Derivation": [
        {
          "masterFingerprint": "f65cd869",
          "pubkey": "0295f7b527d2ea537a4d42830410abf4340731bf9b20e54972001933b9aa23536c",
          "path": "0/0/20/2"
        },
        {
          "masterFingerprint": "f2ef0389",
          "pubkey": "02d6d1140bd2c0f914cb30c992aa2fcd283f471a9281ceec9ec6c5bc448e686900",
          "path": "0/0/20/2"
        },
        {
          "masterFingerprint": "cc18ae08",
          "pubkey": "03b855a8758eda6863648445a9d3cfb95388aca174621ad98f099a1c4f9326fec7",
          "path": "0/0/20/2"
        }
      ]
    },
    {
      "tapInternalKey": "8ea58016ecabe3cf8490ec65d779141571fb9e5c12eac905d180f0e102943394",
      "tapTree": {
        "leaves": [
          {
            "depth": 1,
            "leafVersion": 192,
            "script": "2099e43655c2cf3d950362bb6a3a446380e80b7a1f70e52884eb576b1356dc6e40ad20a86d7fe67f6994113143cc16344cb1e997b8cc8e1dee23651b97c79c09af9addac"
          },
          {
            "depth": 2,
            "leafVersion": 192,
            "script": "2099e43655c2cf3d950362bb6a3a446380e80b7a1f70e52884eb576b1356dc6e40ad203a093530ea159d73c8ff93099ee0a9bb9e9aa39e0b2b84642d47b4f80d487cbbac"
          },
          {
            "depth": 2,
            "leafVersion": 192,
            "script": "203a093530ea159d73c8ff93099ee0a9bb9e9aa39e0b2b84642d47b4f80d487cbbad20a86d7fe67f6994113143cc16344cb1e997b8cc8e1dee23651b97c79c09af9addac"
          }
        ]
      },
      "tapBip32Derivation": [
        {
          "masterFingerprint": "cc18ae08",
          "pubkey": "3a093530ea159d73c8ff93099ee0a9bb9e9aa39e0b2b84642d47b4f80d487cbb",
          "path": "0/0/30/3",
          "leafHashes": [
            "cf9605caec3824347bd70ad56e776095fa63f3bc6804d0430cecffe4e253d8ce",
            "bc0e3b7d952ad956bb7759de2173582c7500d8f29fe4c1ade6711b39d793581a"
          ]
        },
        {
          "masterFingerprint": "f2ef0389",
          "pubkey": "99e43655c2cf3d950362bb6a3a446380e80b7a1f70e52884eb576b1356dc6e40",
          "path": "0/0/30/3",
          "leafHashes": [
            "8d6609b2543534810e1219c57c1ba1fb1cc2b1a742726c0aa7f37d03d023401a",
            "cf9605caec3824347bd70ad56e776095fa63f3bc6804d0430cecffe4e253d8ce"
          ]
        },
        {
          "masterFingerprint": "f65cd869",
          "pubkey": "a86d7fe67f6994113143cc16344cb1e997b8cc8e1dee23651b97c79c09af9add",
          "path": "0/0/30/3",
          "leafHashes": [
            "8d6609b2543534810e1219c57c1ba1fb1cc2b1a742726c0aa7f37d03d023401a",
            "bc0e3b7d952ad956bb7759de2173582c7500d8f29fe4c1ade6711b39d793581a"
          ]
        }
      ]
    },
    {
      "tapInternalKey": "31b5af14121c7a997e1f58dc7178f8b2589e330fe5a9dc8c16549f90cbbe9ec5",
      "tapTree": {
        "leaves": [
          {
            "depth": 1,
            "leafVersion": 192,
            "script": "204e8d0e8341fe95733afca3dbf1852de77695e287959797c6d8159fbfb02b48b6ad20c160c27afcc4888c593f18dee2d7985657508c03705ab6f0f635d352cbaf6499ac"
          },
          {
            "depth": 1,
            "leafVersion": 192,
            "script": "20c160c27afcc4888c593f18dee2d7985657508c03705ab6f0f635d352cbaf6499ad20683608908c8bfe95e38f099068a170140332129eeb03480b1e4806d4f4f43c2cac"
          }
        ]
      },
      "tapBip32Derivation": [
        {
          "masterFingerprint": "f2ef0389",
          "pubkey": "4e8d0e8341fe95733afca3dbf1852de77695e287959797c6d8159fbfb02b48b6",
          "path": "0/0/40/4",
          "leafHashes": [
            "0f39500a54520faeefe84e5a4f9595943523307ef253a7ddc713189a6f5a32f0"
          ]
        },
        {
          "masterFingerprint": "f65cd869",
          "pubkey": "683608908c8bfe95e38f099068a170140332129eeb03480b1e4806d4f4f43c2c",
          "path": "0/0/40/4",
          "leafHashes": [
            "d7a356fb77b18e43bc861580e45c0044c0857e31b1bde76083d9080c33d3ffcf"
          ]
        },
        {
          "masterFingerprint": "cc18ae08",
          "pubkey": "c160c27afcc4888c593f18dee2d7985657508c03705ab6f0f635d352cbaf6499",
          "path": "0/0/40/4",
          "leafHashes": [
            "0f39500a54520faeefe84e5a4f9595943523307ef253a7ddc713189a6f5a32f0",
            "d7a356fb77b18e43bc861580e45c0044c0857e31b1bde76083d9080c33d3ffcf"
          ]
        }
      ]
    },
    {
      "redeemScript": "5221032fc8f23c959ec7311121bb664c54d985d71a1194c81bad1d72a8ec7bcd25ea5321030f976a29b93820b18c49955828292dd348245d9cd56326681c9eaa9a495003dd210340d9f6c19beb27a83021d28ae7c780505983dc2e1ecc79e77dbd7cae10528a2a53ae",
      "bip32Derivation": [
        {
          "masterFingerprint": "d4ad8372",
          "pubkey": "030f976a29b93820b18c49955828292dd348245d9cd56326681c9eaa9a495003dd",
          "path": "0/0/0/5"
        },
        {
          "masterFingerprint": "547f4576",
          "pubkey": "032fc8f23c959ec7311121bb664c54d985d71a1194c81bad1d72a8ec7bcd25ea53",
          "path": "0/0/0/5"
        },
        {
          "masterFingerprint": "405c65bd",
          "pubkey": "0340d9f6c19beb27a83021d28ae7c780505983dc2e1ecc79e77dbd7cae10528a2a",
          "path": "0/0/0/5"
        }
      ]
    },
    {},
    {}
  ],
  "extractedTransaction": "010000000001077cce12effc2ea564c4227333fd305447e0de7b3ae7a5fcc751effff3ea1377e100000000fc0047304402204ed1631487b06c29f7e586998de96acd42ceec747e33dc52a455efd0059da14a0220615d8d2f159314c45ef79dd831419dc5cab1c21987d0fa14d0dbfba4113e21640147304402201720c319f1acfc962998bec10d8e1c918cd96f02d5f1b5ebf41c39ff1c627cba02206f7941de25ed468bf2e6ad1678d32d4a4ac2c19b74ea1c9a8089c7a2ba933cde014c69522103f6f40764bd5d63f200a2778883acf75e96f15095c998263c087270d0c97e7e7f21035ffb7abc70159e0469f4b989a6d5e1785a2904169ff050b2f468fe5d3d5dbbf22103e1524d7f6fc57ab3eacbb659b787106780a475d1db483952c2310b7e9a38975b53aeffffffffb9c7b288fd6aa0d1415996e2a5dad9a4e070c129e179277f53e32f602f180646010000002322002046d4800a1393330196085399ed4a1700b4c2fd38c52188c3a3a91f721f3c9600ffffffff1f57d9560ae9071600b696533192dc17799164fd3fa12804a7f7eb4201c4d5dd0200000000fffffffffc8fe5ff2a818c7661a4629809df2a1ffd60b6d16549fbf4882b54e7413ff8e60300000000ffffffff998804e6718d94c77eef1e8b3cd787bcc2dbfcbd6c009ab33043e7e500d5b49b0400000000ffffffff02b23e9ffd550fa053f4c43e097b8114e463c8ba52c72b30d31d10cde853aabf0500000000ffffffff200d021345d40b204cc22a07ebad78da17159f34c2c656a2f4a51d68c6ca7754060000006c47304402204890fd617b33ecf9f56f5a53fadbcaa447701b219f107c39a1aceff88bea446102202ef154cd23b17e79a235767e568490149baae698628082664db2d9e629c53e6e0123210336ef228ffe9b8efffba052c32d334660dd1f8366cf8fe44ae5aa672b6b629095acffffffff08840300000000000017a914d909474404c124a3d04c3fbff61faa49cf43c58b87840300000000000017a914054127121d37f32266cd967c485404976a67adf0878403000000000000220020ba48e3f9874463943f90192a45f1ae895b779362a7629af7ad6a9d7a835e3d4f8403000000000000225120b27227f5cadc056afea4b02b4b97b9a0151786234c26ad588dccf134e78931c684030000000000002251204f73b5561399eb397b5ab413e090cc0c48ff703a61afe47cf7d47a23d43b978b840300000000000017a9141e490a2a3641ffccc557aecddca67104f42978b387840300000000000017a914954288203f9697e25eaecb48d85b8a8608c385cf870000000000000000116a0f736574656320617374726f6e6f6d7900040047304402200a2d971c408317038596ad6ab0ef17282fd3d8b368d599026bc4ef2dbe0d7ea40220415624b6b92e9846566cab7a828d22017d494064b72aa2620fd13225b54938d30147304402206a7b992610f302ac7320a999aa42531e8b623b0492768daf032c39d6d52ec7c60220670939f9ecd102ce69e98750060646db5e1fb162b1891350b95a8ff21378f83c0169522102a585f3fab49b5ef95346d932221a221bd55ec191f15533e0f270b3582574f0352102c4f7866cfd5996bc1068a96313ca15e9ccb5e984583a07340dddae7af014605b2102234531bc9119a36a7946e95aeb74915dd087c7b44f517b8eeeb73f89a0ff1a9953ae0400483045022100e57d42ff5e19de633312bcdeea3a8d298c2f0b7da59b80af50570d7bb9f6678a022013488e7e86183467c4430fe88536f1e40ddd4eb1b64fdbf00d0d5195ccb757a0014730440220162101914f7fadf5ca92de401acaf9f4e9995acfa222fc7bb09d692650290d81022020004b2656dda5efd0f8a48cdc5e362b092f53bc0a12bf32cbb96a00525bf2760169522103519e572ab468560d1f8d0f87699d098308e166905f5dcae4390f060faa8f1ce32103a05bc26391221d685e18daaff36a1e95c34f99451253c16cd42650db278a79112102e80a08885c353676b820cdc290e6d81a0ac95a03e8abbf4bb7aeebfb70feb41853ae04401465b7f642f60b6c6038576a7a206fadb437f495f8c4c8944b6cc245191fa813e588d1002547817beae03faaca034b290276b4083d35057239812bcc79cbd0b5404be8acb13a61e47181481b6f2a061411cbade92f76ffa652f3b2bf3e07987f8a8ad6a7a02c8d5c1a3cdeb141cc189f08948d209f9fa044f7610bbec5b16e277244207373d723ce0a87f8fdd66843be12dae9d51939f68188d5ad96920bef5f51f496ad20aa88ca194fda43486504b86ac9b71f10fc41de7b1713874839427f74e78c2d5aac41c0bc17ea2bbf6ff46bd5c0c3780be2a63880eb7bb782b39ed86f29b99f4882994e1b178b1b55d3c6aac7b039e3422dfdb9c9d75d4d6fc908e9743e88b651e48d830440c666314befdb68879feaef3b4e4787d351bb6a26d711c68674a5e60fc63e10a2a0f01bba12af1914a2dde7857b1d0f333907f318c5d63be7e2aeb611f7135375406aea690459b25692b2481dc55fd222d4e8f88596b93089328494af67c0eb22bcfa660617513af706876252150ab3236e965390d2d292c83999b21d1a8b0c88d34420643151ab03f3a97bb86d3592f12f8d25a8026d89cd47342fc1b49c5e2e63478bad20035c9d632db2ddb8f90cf3ccfc931822bcb1f24562b23ae041abf12e54bca64dac41c1a107a403f7a207e7b1f552d3fd3f55f64ae40e149d0d26f4868ad7faec949eb7637e37cac6e5f22347ab68e876b559117d9597ee7b37fb983c2ab9e51023c9760140ec2a176b3854a3226b1c757495e7481623a03d728a65302bf6cc0bd70fe7803f3f497c1235211d73acb94fab19f08f85ec9f56cab8b53d6e5b585581a4b300560000000000"
}
