{
  "walletKeys": [
    "xprv9s21ZrQH143K45bDYc9c3aEaGiTK9aPtjgtHg6wBdkryBjix1KKXRCszxPcFPejLT9tdLgNe8E8AuQXK2fy8KhNPeLAZsGoX8w9KS2PkacL",
    "xprv9s21ZrQH143K2eBLSVNk4zhjDzqzqM29aS9cjr4CcoNrKLYwLHtwgTURSk7RPV3cH9zNZQeR1zGw3MEwSjvARSfWEGpxfaBmduhW3TKsH5g",
    "xprv9s21ZrQH143K39N9shF9hAsTwh1FvQuBk8UVsZVwr4XtpqF7stCu2LH358NLuqkkK6pu1Af7TJHr5FZERQoLLtnC7wkoM9sdFo1HuP7dWuv"
  ],
  "psbtBase64": "cHNidP8BANYBAAAAAnzOEu/8LqVkxCJzM/0wVEfg3ns656X8x1Hv//PqE3fhAAAAAAD/////Q0P053icjhyiKz//jAorgodKqlv5a0Unr/vgYL+rA6wBAAAAAP////8EhAMAAAAAAAAXqRTZCUdEBMEko9BMP7/2H6pJz0PFi4eEAwAAAAAAABepFE79dh6b5hyqQhyKrEqQKtbypUvPh4QDAAAAAAAAF6kU0k04Fr6KJQy93n6qZ0+AFwzalE6HAAAAAAAAAAARag9zZXRlYyBhc3Ryb25vbXkAAAAATwEEiLIeAAAAAAAAAAAAOpIuKfDI6w2ypgSEy9y2MfaxB8nKrj/9zz59LsH2vNADEhSHFfNh2raFpmnUJDHl1tP5c0BNq5yf0blQsnmtdjQEzBiuCE8BBIiyHgAAAAAAAAAAAG0dZW093ZHBlMBFZaNgNwKiEBbO0UomXziYLWJ15ntkA9O6wjE6fGshy7EbFLDRA0H5IsCkA6i9jIfw3IIPNa9uBPZc2GlPAQSIsh4AAAAAAAAAAADLBP1jqzTZD+ZGa4gOKgLM+KhjN0MSmRr4kRsaqrRDNAM27yKP/puO//ugUsMtM0Zg3R+DZs+P5Erlqmcra2KQlQTy7wOJAAEAvgEAAAABAQEBAQEBAQEBAQEBAQEBAQEBAQEBAQEBAQEBAQEBAQEAAAAAa0gwRQIhAPgzk573ViMHluiX3f+QFzSlryObFIEGKBZNex1+acf9AiBCbT2kKbhsehXKhr1tLhbgYPwkvMQnjpbmp0MFK/DtfAEhA70MNLI3Pjh1dc3bED7AORbDEETyUI4mH+NZeiaA7L0f/////wHQBwAAAAAAABepFFZ817RPnzoHwxOPN7+YS2D7uvJDhwAAAAAiAgPhUk1/b8V6s+rLtlm3hxBngKR10dtIOVLCMQt+mjiXW0cwRAIgFTgEICUPtILM1ZidZJ/jkThwG82hvOyxWy9LuMtMtsQCIGYJjuYWdPyoCu3KeAdYxA/MS9fBMzszoLYTfXl3yZixASICA/b0B2S9XWPyAKJ3iIOs916W8VCVyZgmPAhycNDJfn5/RzBEAiB3dPdTNuIUP1WILl9bSpkJ3FypewAI35V+OudA061NQQIgaYLyKSxAxXWws7FXaHIxyS5oVqZg74axp1FPBsbupnUBAQMEAQAAAAEEaVIhA/b0B2S9XWPyAKJ3iIOs916W8VCVyZgmPAhycNDJfn5/IQNf+3q8cBWeBGn0uYmm1eF4WikEFp/wULL0aP5dPV278iED4VJNf2/FerPqy7ZZt4cQZ4CkddHbSDlSwjELfpo4l1tTriIGA1/7erxwFZ4EafS5iabV4XhaKQQWn/BQsvRo/l09XbvyFMwYrggAAAAAAAAAAAEAAAAAAAAAIgYD4VJNf2/FerPqy7ZZt4cQZ4CkddHbSDlSwjELfpo4l1sU9lzYaQAAAAAAAAAAAQAAAAAAAAAiBgP29AdkvV1j8gCid4iDrPdelvFQlcmYJjwIcnDQyX5+fxTy7wOJAAAAAAAAAAABAAAAAAAAAAABAOABAAAAAQEBAQEBAQEBAQEBAQEBAQEBAQEBAQEBAQEBAQEBAQEBAAAAAGtIMEUCIQC5xoC/xvS0jDX648pwuPYIpwp4+p8zRuL3sUFxII/52wIgRyAsUIWrXhDO2x5T+lOKmx+K8ACl8+lqaxyLP9tsCOsBIQO9DDSyNz44dXXN2xA+wDkWwxBE8lCOJh/jWXomgOy9H/////8C0AcAAAAAAAAZdqkUiDrY0a/9+Kc8va9yN7XFq57CwyaIrNAHAAAAAAAAF6kUILNwlNgqUTRR/wzNnbI6ugW8XvOHAAAAACICAzbvIo/+m47/+6BSwy0zRmDdH4Nmz4/kSuWqZytrYpCVRzBEAiAPmE66M5KL/DR3I1dcU21Ofzw0a3ETt2PkJNPghfAFkQIgG+nI4qATYsv2FDETjO51TrQIvJVbqizIiXb5dpfLIi0BAQMEAQAAAAEEIyEDNu8ij/6bjv/7oFLDLTNGYN0fg2bPj+RK5apnK2tikJWsAAEAaVIhAsxND6QRysJESG+OssCOA1/3QQ9GCjWcp/iBCZG9O0IJIQLXL9DQ2QKTQ0rV/KFg8njgPGFEl6pOQlz0VOLBMw+WqyEDRNiEE231UCAoZf+8YhjH+ciP5s45yUV5gZC62zinUvFTriICAsxND6QRysJESG+OssCOA1/3QQ9GCjWcp/iBCZG9O0IJFPLvA4kAAAAAAAAAAAAAAAAAAAAAIgIC1y/Q0NkCk0NK1fyhYPJ44DxhRJeqTkJc9FTiwTMPlqsUzBiuCAAAAAAAAAAAAAAAAAAAAAAiAgNE2IQTbfVQIChl/7xiGMf5yI/mzjnJRXmBkLrbOKdS8RT2XNhpAAAAAAAAAAAAAAAAAAAAAAABAGlSIQNreRC1kdOnVtXudaXozA4n50XoVTD+q9J9T1hHpQ8whiECr+EtV30aIKPtr8L9PSVazn0bixg9CvndP75b9VQ6vH0hA0omsDbfD18D30R00HkkqYoF4RuiWER24a3bRIKs6kARU64iAgKv4S1XfRogo+2vwv09JVrOfRuLGD0K+d0/vlv1VDq8fRTUrYNyAAAAAAAAAAAAAAAAAQAAACICA0omsDbfD18D30R00HkkqYoF4RuiWER24a3bRIKs6kARFEBcZb0AAAAAAAAAAAAAAAABAAAAIgIDa3kQtZHTp1bV7nWl6MwOJ+dF6FUw/qvSfU9YR6UPMIYUVH9FdgAAAAAAAAAAAAAAAAEAAAAAAAA=",
  "psbtBase64Finalized": "cHNidP8BANYBAAAAAnzOEu/8LqVkxCJzM/0wVEfg3ns656X8x1Hv//PqE3fhAAAAAAD/////Q0P053icjhyiKz//jAorgodKqlv5a0Unr/vgYL+rA6wBAAAAAP////8EhAMAAAAAAAAXqRTZCUdEBMEko9BMP7/2H6pJz0PFi4eEAwAAAAAAABepFE79dh6b5hyqQhyKrEqQKtbypUvPh4QDAAAAAAAAF6kU0k04Fr6KJQy93n6qZ0+AFwzalE6HAAAAAAAAAAARag9zZXRlYyBhc3Ryb25vbXkAAAAATwEEiLIeAAAAAAAAAAAAOpIuKfDI6w2ypgSEy9y2MfaxB8nKrj/9zz59LsH2vNADEhSHFfNh2raFpmnUJDHl1tP5c0BNq5yf0blQsnmtdjQEzBiuCE8BBIiyHgAAAAAAAAAAAG0dZW093ZHBlMBFZaNgNwKiEBbO0UomXziYLWJ15ntkA9O6wjE6fGshy7EbFLDRA0H5IsCkA6i9jIfw3IIPNa9uBPZc2GlPAQSIsh4AAAAAAAAAAADLBP1jqzTZD+ZGa4gOKgLM+KhjN0MSmRr4kRsaqrRDNAM27yKP/puO//ugUsMtM0Zg3R+DZs+P5Erlqmcra2KQlQTy7wOJAAEAvgEAAAABAQEBAQEBAQEBAQEBAQEBAQEBAQEBAQEBAQEBAQEBAQEAAAAAa0gwRQIhAPgzk573ViMHluiX3f+QFzSlryObFIEGKBZNex1+acf9AiBCbT2kKbhsehXKhr1tLhbgYPwkvMQnjpbmp0MFK/DtfAEhA70MNLI3Pjh1dc3bED7AORbDEETyUI4mH+NZeiaA7L0f/////wHQBwAAAAAAABepFFZ817RPnzoHwxOPN7+YS2D7uvJDhwAAAAABB/wARzBEAiB3dPdTNuIUP1WILl9bSpkJ3FypewAI35V+OudA061NQQIgaYLyKSxAxXWws7FXaHIxyS5oVqZg74axp1FPBsbupnUBRzBEAiAVOAQgJQ+0gszVmJ1kn+OROHAbzaG87LFbL0u4y0y2xAIgZgmO5hZ0/KgK7cp4B1jED8xL18EzOzOgthN9eXfJmLEBTGlSIQP29AdkvV1j8gCid4iDrPdelvFQlcmYJjwIcnDQyX5+fyEDX/t6vHAVngRp9LmJptXheFopBBaf8FCy9Gj+XT1du/IhA+FSTX9vxXqz6su2WbeHEGeApHXR20g5UsIxC36aOJdbU64AAQDgAQAAAAEBAQEBAQEBAQEBAQEBAQEBAQEBAQEBAQEBAQEBAQEBAQAAAABrSDBFAiEAucaAv8b0tIw1+uPKcLj2CKcKePqfM0bi97FBcSCP+dsCIEcgLFCFq14QztseU/pTipsfivAApfPpamsciz/bbAjrASEDvQw0sjc+OHV1zdsQPsA5FsMQRPJQjiYf41l6JoDsvR//////AtAHAAAAAAAAGXapFIg62NGv/finPL2vcje1xauewsMmiKzQBwAAAAAAABepFCCzcJTYKlE0Uf8MzZ2yOroFvF7zhwAAAAABB2xHMEQCIA+YTrozkov8NHcjV1xTbU5/PDRrcRO3Y+Qk0+CF8AWRAiAb6cjioBNiy/YUMROM7nVOtAi8lVuqLMiJdvl2l8siLQEjIQM27yKP/puO//ugUsMtM0Zg3R+DZs+P5Erlqmcra2KQlawAAQBpUiECzE0PpBHKwkRIb46ywI4DX/dBD0YKNZyn+IEJkb07QgkhAtcv0NDZApNDStX8oWDyeOA8YUSXqk5CXPRU4sEzD5arIQNE2IQTbfVQIChl/7xiGMf5yI/mzjnJRXmBkLrbOKdS8VOuIgICzE0PpBHKwkRIb46ywI4DX/dBD0YKNZyn+IEJkb07QgkU8u8DiQAAAAAAAAAAAAAAAAAAAAAiAgLXL9DQ2QKTQ0rV/KFg8njgPGFEl6pOQlz0VOLBMw+WqxTMGK4IAAAAAAAAAAAAAAAAAAAAACICA0TYhBNt9VAgKGX/vGIYx/nIj+bOOclFeYGQuts4p1LxFPZc2GkAAAAAAAAAAAAAAAAAAAAAAAEAaVIhA2t5ELWR06dW1e51pejMDifnRehVMP6r0n1PWEelDzCGIQKv4S1XfRogo+2vwv09JVrOfRuLGD0K+d0/vlv1VDq8fSEDSiawNt8PXwPfRHTQeSSpigXhG6JYRHbhrdtEgqzqQBFTriICAq/hLVd9GiCj7a/C/T0lWs59G4sYPQr53T++W/VUOrx9FNStg3IAAAAAAAAAAAAAAAABAAAAIgIDSiawNt8PXwPfRHTQeSSpigXhG6JYRHbhrdtEgqzqQBEUQFxlvQAAAAAAAAAAAAAAAAEAAAAiAgNreRC1kdOnVtXudaXozA4n50XoVTD+q9J9T1hHpQ8whhRUf0V2AAAAAAAAAAAAAAAAAQAAAAAAAA==",
  "inputs": [
    {
      "hash": "7cce12effc2ea564c4227333fd305447e0de7b3ae7a5fcc751effff3ea1377e1",
      "index": 0,
      "sequence": 4294967295
    },
    {
      "hash": "4343f4e7789c8e1ca22b3fff8c0a2b82874aaa5bf96b4527affbe060bfab03ac",
      "index": 1,
      "sequence": 4294967295
    }
  ],
  "psbtInputs": [
    {
      "type": "p2sh",
      "unknownKeyVals": [],
      "nonWitnessUtxo": "01000000010101010101010101010101010101010101010101010101010101010101010101000000006b483045022100f833939ef756230796e897ddff901734a5af239b14810628164d7b1d7e69c7fd0220426d3da429b86c7a15ca86bd6d2e16e060fc24bcc4278e96e6a743052bf0ed7c012103bd0c34b2373e387575cddb103ec03916c31044f2508e261fe3597a2680ecbd1fffffffff01d00700000000000017a914567cd7b44f9f3a07c3138f37bf984b60fbbaf2438700000000",
      "sighashType": 1,
      "bip32Derivation": [
        {
          "pubkey": "03f6f40764bd5d63f200a2778883acf75e96f15095c998263c087270d0c97e7e7f",
          "path": "0/0/1/0",
          "masterFingerprint": "f2ef0389"
        },
        {
          "pubkey": "035ffb7abc70159e0469f4b989a6d5e1785a2904169ff050b2f468fe5d3d5dbbf2",
          "path": "0/0/1/0",
          "masterFingerprint": "cc18ae08"
        },
        {
          "pubkey": "03e1524d7f6fc57ab3eacbb659b787106780a475d1db483952c2310b7e9a38975b",
          "path": "0/0/1/0",
          "masterFingerprint": "f65cd869"
        }
      ],
      "redeemScript": "522103f6f40764bd5d63f200a2778883acf75e96f15095c998263c087270d0c97e7e7f21035ffb7abc70159e0469f4b989a6d5e1785a2904169ff050b2f468fe5d3d5dbbf22103e1524d7f6fc57ab3eacbb659b787106780a475d1db483952c2310b7e9a38975b53ae",
      "partialSig": [
        {
          "pubkey": "03f6f40764bd5d63f200a2778883acf75e96f15095c998263c087270d0c97e7e7f",
          "signature": "304402207774f75336e2143f55882e5f5b4a9909dc5ca97b0008df957e3ae740d3ad4d4102206982f2292c40c575b0b3b157687231c92e6856a660ef86b1a7514f06c6eea67501"
        },
        {
          "pubkey": "03e1524d7f6fc57ab3eacbb659b787106780a475d1db483952c2310b7e9a38975b",
          "signature": "3044022015380420250fb482ccd5989d649fe39138701bcda1bcecb15b2f4bb8cb4cb6c4022066098ee61674fca80aedca780758c40fcc4bd7c1333b33a0b6137d7977c998b101"
        }
      ]
    },
    {
      "type": "p2shP2pk",
      "unknownKeyVals": [],
      "redeemScript": "210336ef228ffe9b8efffba052c32d334660dd1f8366cf8fe44ae5aa672b6b629095ac",
      "nonWitnessUtxo": "01000000010101010101010101010101010101010101010101010101010101010101010101000000006b483045022100b9c680bfc6f4b48c35fae3ca70b8f608a70a78fa9f3346e2f7b14171208ff9db022047202c5085ab5e10cedb1e53fa538a9b1f8af000a5f3e96a6b1c8b3fdb6c08eb012103bd0c34b2373e387575cddb103ec03916c31044f2508e261fe3597a2680ecbd1fffffffff02d0070000000000001976a914883ad8d1affdf8a73cbdaf7237b5c5ab9ec2c32688acd00700000000000017a91420b37094d82a513451ff0ccd9db23aba05bc5ef38700000000",
      "sighashType": 1,
      "partialSig": [
        {
          "pubkey": "0336ef228ffe9b8efffba052c32d334660dd1f8366cf8fe44ae5aa672b6b629095",
          "signature": "304402200f984eba33928bfc347723575c536d4e7f3c346b7113b763e424d3e085f0059102201be9c8e2a01362cbf61431138cee754eb408bc955baa2cc88976f97697cb222d01"
        }
      ]
    }
  ],
  "psbtInputsFinalized": [
    {
      "type": "p2sh",
      "finalScriptSig": "0047304402207774f75336e2143f55882e5f5b4a9909dc5ca97b0008df957e3ae740d3ad4d4102206982f2292c40c575b0b3b157687231c92e6856a660ef86b1a7514f06c6eea67501473044022015380420250fb482ccd5989d649fe39138701bcda1bcecb15b2f4bb8cb4cb6c4022066098ee61674fca80aedca780758c40fcc4bd7c1333b33a0b6137d7977c998b1014c69522103f6f40764bd5d63f200a2778883acf75e96f15095c998263c087270d0c97e7e7f21035ffb7abc70159e0469f4b989a6d5e1785a2904169ff050b2f468fe5d3d5dbbf22103e1524d7f6fc57ab3eacbb659b787106780a475d1db483952c2310b7e9a38975b53ae",
      "nonWitnessUtxo": "01000000010101010101010101010101010101010101010101010101010101010101010101000000006b483045022100f833939ef756230796e897ddff901734a5af239b14810628164d7b1d7e69c7fd0220426d3da429b86c7a15ca86bd6d2e16e060fc24bcc4278e96e6a743052bf0ed7c012103bd0c34b2373e387575cddb103ec03916c31044f2508e261fe3597a2680ecbd1fffffffff01d00700000000000017a914567cd7b44f9f3a07c3138f37bf984b60fbbaf2438700000000"
    },
    {
      "type": "p2shP2pk",
      "finalScriptSig": "47304402200f984eba33928bfc347723575c536d4e7f3c346b7113b763e424d3e085f0059102201be9c8e2a01362cbf61431138cee754eb408bc955baa2cc88976f97697cb222d0123210336ef228ffe9b8efffba052c32d334660dd1f8366cf8fe44ae5aa672b6b629095ac",
      "nonWitnessUtxo": "01000000010101010101010101010101010101010101010101010101010101010101010101000000006b483045022100b9c680bfc6f4b48c35fae3ca70b8f608a70a78fa9f3346e2f7b14171208ff9db022047202c5085ab5e10cedb1e53fa538a9b1f8af000a5f3e96a6b1c8b3fdb6c08eb012103bd0c34b2373e387575cddb103ec03916c31044f2508e261fe3597a2680ecbd1fffffffff02d0070000000000001976a914883ad8d1affdf8a73cbdaf7237b5c5ab9ec2c32688acd00700000000000017a91420b37094d82a513451ff0ccd9db23aba05bc5ef38700000000"
    }
  ],
  "outputs": [
    {
      "script": "a914d909474404c124a3d04c3fbff61faa49cf43c58b87",
      "value": "900",
      "address": "7nCEW3CMTCDK1BaYRHo4kLDbexwpb8uDVT"
    },
    {
      "script": "a9144efd761e9be61caa421c8aac4a902ad6f2a54bcf87",
      "value": "900",
      "address": "7ZcK6WRYz9ADUsUTRjeANb9ceiTkBudEKu"
    },
    {
      "script": "a914d24d3816be8a250cbdde7eaa674f80170cda944e87",
      "value": "900",
      "address": "7madAJKrqQYQu3KPWhDPGHVCyqyAeFkqfg"
    },
    {
      "script": "6a0f736574656320617374726f6e6f6d79",
      "value": "0"
    }
  ],
  "psbtOutputs": [
    {
      "unknownKeyVals": [],
      "bip32Derivation": [
        {
          "pubkey": "02cc4d0fa411cac244486f8eb2c08e035ff7410f460a359ca7f8810991bd3b4209",
          "path": "0/0/0/0",
          "masterFingerprint": "f2ef0389"
        },
        {
          "pubkey": "02d72fd0d0d90293434ad5fca160f278e03c614497aa4e425cf454e2c1330f96ab",
          "path": "0/0/0/0",
          "masterFingerprint": "cc18ae08"
        },
        {
          "pubkey": "0344d884136df550202865ffbc6218c7f9c88fe6ce39c945798190badb38a752f1",
          "path": "0/0/0/0",
          "masterFingerprint": "f65cd869"
        }
      ],
      "redeemScript": "522102cc4d0fa411cac244486f8eb2c08e035ff7410f460a359ca7f8810991bd3b42092102d72fd0d0d90293434ad5fca160f278e03c614497aa4e425cf454e2c1330f96ab210344d884136df550202865ffbc6218c7f9c88fe6ce39c945798190badb38a752f153ae"
    },
    {
      "unknownKeyVals": [],
      "bip32Derivation": [
        {
          "pubkey": "036b7910b591d3a756d5ee75a5e8cc0e27e745e85530feabd27d4f5847a50f3086",
          "path": "0/0/0/1",
          "masterFingerprint": "547f4576"
        },
        {
          "pubkey": "02afe12d577d1a20a3edafc2fd3d255ace7d1b8b183d0af9dd3fbe5bf5543abc7d",
          "path": "0/0/0/1",
          "masterFingerprint": "d4ad8372"
        },
        {
          "pubkey": "034a26b036df0f5f03df4474d07924a98a05e11ba2584476e1addb4482acea4011",
          "path": "0/0/0/1",
          "masterFingerprint": "405c65bd"
        }
      ],
      "redeemScript": "5221036b7910b591d3a756d5ee75a5e8cc0e27e745e85530feabd27d4f5847a50f30862102afe12d577d1a20a3edafc2fd3d255ace7d1b8b183d0af9dd3fbe5bf5543abc7d21034a26b036df0f5f03df4474d07924a98a05e11ba2584476e1addb4482acea401153ae"
    },
    {
      "unknownKeyVals": []
    },
    {
      "unknownKeyVals": []
    }
  ],
  "extractedTransaction": "01000000027cce12effc2ea564c4227333fd305447e0de7b3ae7a5fcc751effff3ea1377e100000000fc0047304402207774f75336e2143f55882e5f5b4a9909dc5ca97b0008df957e3ae740d3ad4d4102206982f2292c40c575b0b3b157687231c92e6856a660ef86b1a7514f06c6eea67501473044022015380420250fb482ccd5989d649fe39138701bcda1bcecb15b2f4bb8cb4cb6c4022066098ee61674fca80aedca780758c40fcc4bd7c1333b33a0b6137d7977c998b1014c69522103f6f40764bd5d63f200a2778883acf75e96f15095c998263c087270d0c97e7e7f21035ffb7abc70159e0469f4b989a6d5e1785a2904169ff050b2f468fe5d3d5dbbf22103e1524d7f6fc57ab3eacbb659b787106780a475d1db483952c2310b7e9a38975b53aeffffffff4343f4e7789c8e1ca22b3fff8c0a2b82874aaa5bf96b4527affbe060bfab03ac010000006c47304402200f984eba33928bfc347723575c536d4e7f3c346b7113b763e424d3e085f0059102201be9c8e2a01362cbf61431138cee754eb408bc955baa2cc88976f97697cb222d0123210336ef228ffe9b8efffba052c32d334660dd1f8366cf8fe44ae5aa672b6b629095acffffffff04840300000000000017a914d909474404c124a3d04c3fbff61faa49cf43c58b87840300000000000017a9144efd761e9be61caa421c8aac4a902ad6f2a54bcf87840300000000000017a914d24d3816be8a250cbdde7eaa674f80170cda944e870000000000000000116a0f736574656320617374726f6e6f6d7900000000"
}
