{
  "walletKeys": [
    "xprv9s21ZrQH143K45bDYc9c3aEaGiTK9aPtjgtHg6wBdkryBjix1KKXRCszxPcFPejLT9tdLgNe8E8AuQXK2fy8KhNPeLAZsGoX8w9KS2PkacL",
    "xprv9s21ZrQH143K2eBLSVNk4zhjDzqzqM29aS9cjr4CcoNrKLYwLHtwgTURSk7RPV3cH9zNZQeR1zGw3MEwSjvARSfWEGpxfaBmduhW3TKsH5g",
    "xprv9s21ZrQH143K39N9shF9hAsTwh1FvQuBk8UVsZVwr4XtpqF7stCu2LH358NLuqkkK6pu1Af7TJHr5FZERQoLLtnC7wkoM9sdFo1HuP7dWuv"
  ],
  "psbtBase64": "cHNidP8BAP1zAQEAAAAEfM4S7/wupWTEInMz/TBUR+DeezrnpfzHUe//8+oTd+EAAAAAAP////+5x7KI/Wqg0UFZluKl2tmk4HDBKeF5J39T4y9gLxgGRgEAAAAA/////x9X2VYK6QcWALaWUzGS3Bd5kWT9P6EoBKf360IBxNXdAgAAAAD/////s+R4ljpxQ/cE8YzkwP7OMzyDM5Yy5wvdhjrCqJkVAmwDAAAAAP////8GhAMAAAAAAAAXqRTZCUdEBMEko9BMP7/2H6pJz0PFi4eEAwAAAAAAABepFAVBJxIdN/MiZs2WfEhUBJdqZ63wh4QDAAAAAAAAIgAgukjj+YdEY5Q/kBkqRfGuiVt3k2KnYpr3rWqdeoNePU+EAwAAAAAAABepFPxkGJFgS95wVikwC26N5fZ905Jih4QDAAAAAAAAF6kU9s9lApZzz5LgsOaQjFq5B5Uxai2HAAAAAAAAAAARag9zZXRlYyBhc3Ryb25vbXkAAAAATwEEiLIeAAAAAAAAAAAAOpIuKfDI6w2ypgSEy9y2MfaxB8nKrj/9zz59LsH2vNADEhSHFfNh2raFpmnUJDHl1tP5c0BNq5yf0blQsnmtdjQEzBiuCE8BBIiyHgAAAAAAAAAAAG0dZW093ZHBlMBFZaNgNwKiEBbO0UomXziYLWJ15ntkA9O6wjE6fGshy7EbFLDRA0H5IsCkA6i9jIfw3IIPNa9uBPZc2GlPAQSIsh4AAAAAAAAAAADLBP1jqzTZD+ZGa4gOKgLM+KhjN0MSmRr4kRsaqrRDNAM27yKP/puO//ugUsMtM0Zg3R+DZs+P5Erlqmcra2KQlQTy7wOJAAEBINAHAAAAAAAAF6kUVnzXtE+fOgfDE483v5hLYPu68kOHIgID4VJNf2/FerPqy7ZZt4cQZ4CkddHbSDlSwjELfpo4l1tIMEUCIQCcS9whtfHWQBAXrXGmvvew6KbAnA73jglJxTSEUpMs4QIgA2VoTjhkhU8GvucZdYn4U62wirAJY89Tfi3l0ApXdpEBIgID9vQHZL1dY/IAoneIg6z3XpbxUJXJmCY8CHJw0Ml+fn9HMEQCIHS/JsC2QdCDkrs5uLMjNLQQyKGxQ6PUVHtXKFtLPBFDAiBW/dVaPaHl88OX7kjlO91U8Wkd56H30djhGjZTlNU7KgEBAwQBAAAAAQRpUiED9vQHZL1dY/IAoneIg6z3XpbxUJXJmCY8CHJw0Ml+fn8hA1/7erxwFZ4EafS5iabV4XhaKQQWn/BQsvRo/l09XbvyIQPhUk1/b8V6s+rLtlm3hxBngKR10dtIOVLCMQt+mjiXW1OuIgYDX/t6vHAVngRp9LmJptXheFopBBaf8FCy9Gj+XT1du/IUzBiuCAAAAAAAAAAAAQAAAAAAAAAiBgPhUk1/b8V6s+rLtlm3hxBngKR10dtIOVLCMQt+mjiXWxT2XNhpAAAAAAAAAAABAAAAAAAAACIGA/b0B2S9XWPyAKJ3iIOs916W8VCVyZgmPAhycNDJfn5/FPLvA4kAAAAAAAAAAAEAAAAAAAAAAAEBINAHAAAAAAAAF6kUDiayXQzq5vnP8+2syqDRpw2nYA+HIgICI0UxvJEZo2p5Rula63SRXdCHx7RPUXuO7rc/iaD/GplHMEQCIF4Z51tNdgwfGST0EebDM31BezZtomYmo/7BZTeN7pM3AiAJrwr4/IXFJhhxtNTIcCAhgDkIx9DNJEkw1CdG+yFEKgEiAgKlhfP6tJte+VNG2TIiGiIb1V7BkfFVM+DycLNYJXTwNUcwRAIgF6QkSZf/dCCZ2EeHIvBXp78ZobLJF+cF75hBQEd8wEACIBPAhjojhQMwXzae6BJeud0DTeIMb99A7MPKKz4vYU3rAQEDBAEAAAABBCIAIEbUgAoTkzMBlghTme1KFwC0wv04xSGIw6OpH3IfPJYAAQVpUiECpYXz+rSbXvlTRtkyIhoiG9VewZHxVTPg8nCzWCV08DUhAsT3hmz9WZa8EGipYxPKFenMtemEWDoHNA3drnrwFGBbIQIjRTG8kRmjanlG6VrrdJFd0IfHtE9Re47utz+JoP8amVOuIgYCI0UxvJEZo2p5Rula63SRXdCHx7RPUXuO7rc/iaD/GpkU9lzYaQAAAAAAAAAACwAAAAEAAAAiBgKlhfP6tJte+VNG2TIiGiIb1V7BkfFVM+DycLNYJXTwNRTy7wOJAAAAAAAAAAALAAAAAQAAACIGAsT3hmz9WZa8EGipYxPKFenMtemEWDoHNA3drnrwFGBbFMwYrggAAAAAAAAAAAsAAAABAAAAAAEBK9AHAAAAAAAAIgAg2wQn8YIrR3dnDmZzworwL22h1a/nGnH1yQZEcLIp+v0iAgLoCgiIXDU2drggzcKQ5tgaCslaA+irv0u3ruv7cP60GEcwRAIgXoaBfWznH9n88RAfO7ogBykFfVCJeHXTao2I2sEheQECIBTBlL8CqxOZTCf5vyIsE6CHZ4DHbPuYisx9TE/5SIWjASICA1GeVyq0aFYNH40Ph2mdCYMI4WaQX13K5DkPBg+qjxzjSDBFAiEA1EuQPr6WSiw8FFvHo4H6daRuX26rzxcDfpXcfd3m3XACIHpCm/DADMbHFKQu0l9atzDd8uapVYG2Ix0UGJsoHqGpAQEDBAEAAAABBWlSIQNRnlcqtGhWDR+ND4dpnQmDCOFmkF9dyuQ5DwYPqo8c4yEDoFvCY5EiHWheGNqv82oelcNPmUUSU8Fs1CZQ2yeKeREhAugKCIhcNTZ2uCDNwpDm2BoKyVoD6Ku/S7eu6/tw/rQYU64iBgLoCgiIXDU2drggzcKQ5tgaCslaA+irv0u3ruv7cP60GBT2XNhpAAAAAAAAAAAVAAAAAgAAACIGA1GeVyq0aFYNH40Ph2mdCYMI4WaQX13K5DkPBg+qjxzjFPLvA4kAAAAAAAAAABUAAAACAAAAIgYDoFvCY5EiHWheGNqv82oelcNPmUUSU8Fs1CZQ2yeKeREUzBiuCAAAAAAAAAAAFQAAAAIAAAAAAQEg0AcAAAAAAAAXqRQgs3CU2CpRNFH/DM2dsjq6Bbxe84ciAgM27yKP/puO//ugUsMtM0Zg3R+DZs+P5Erlqmcra2KQlUcwRAIgb9YQhUAWq5khL2s9qF/5w59e3uSpdsMxDLwOFXmlAagCIHLOXAcbAN3pydj714hq3tLEKLi9RS7ncpyHWdZBzCFLAQEDBAEAAAABBCMhAzbvIo/+m47/+6BSwy0zRmDdH4Nmz4/kSuWqZytrYpCVrAABAGlSIQLMTQ+kEcrCREhvjrLAjgNf90EPRgo1nKf4gQmRvTtCCSEC1y/Q0NkCk0NK1fyhYPJ44DxhRJeqTkJc9FTiwTMPlqshA0TYhBNt9VAgKGX/vGIYx/nIj+bOOclFeYGQuts4p1LxU64iAgLMTQ+kEcrCREhvjrLAjgNf90EPRgo1nKf4gQmRvTtCCRTy7wOJAAAAAAAAAAAAAAAAAAAAACICAtcv0NDZApNDStX8oWDyeOA8YUSXqk5CXPRU4sEzD5arFMwYrggAAAAAAAAAAAAAAAAAAAAAIgIDRNiEE231UCAoZf+8YhjH+ciP5s45yUV5gZC62zinUvEU9lzYaQAAAAAAAAAAAAAAAAAAAAAAAQAiACApKwUjUaPG+A1RuuZCzIghGCiT2+7avI9dDpZ3R2AmwQEBaVIhAy4R+YVSaF/pB/MfnnJgyQbo3nAPDDyfLxQQYj3N/RnAIQNUV1fONc8e37E7nixKL5zgCrjDa+4SvKIzfOWD/SiuyCECo8+2Zl/kT3UgtqG03hpNRmQ7OF6x/R4Ktw77llQpdVRTriICAqPPtmZf5E91ILahtN4aTUZkOzhesf0eCrcO+5ZUKXVUFPZc2GkAAAAAAAAAAAoAAAABAAAAIgIDLhH5hVJoX+kH8x+ecmDJBujecA8MPJ8vFBBiPc39GcAU8u8DiQAAAAAAAAAACgAAAAEAAAAiAgNUV1fONc8e37E7nixKL5zgCrjDa+4SvKIzfOWD/SiuyBTMGK4IAAAAAAAAAAAKAAAAAQAAAAABAWlSIQLW0RQL0sD5FMswyZKqL80oP0cakoHO7J7GxbxEjmhpACEDuFWodY7aaGNkhEWp08+5U4isoXRiGtmPCZocT5Mm/schApX3tSfS6lN6TUKDBBCr9DQHMb+bIOVJcgAZM7mqI1NsU64iAgKV97Un0upTek1CgwQQq/Q0BzG/myDlSXIAGTO5qiNTbBT2XNhpAAAAAAAAAAAUAAAAAgAAACICAtbRFAvSwPkUyzDJkqovzSg/RxqSgc7snsbFvESOaGkAFPLvA4kAAAAAAAAAABQAAAACAAAAIgIDuFWodY7aaGNkhEWp08+5U4isoXRiGtmPCZocT5Mm/scUzBiuCAAAAAAAAAAAFAAAAAIAAAAAAQBpUiECdbejY/UqOIeAZkDzZjd2RYkHLhdta2qH18dUEHV2TKUhAky4n24/yOOAvOAMan4WJPTA7lzwdjSLXXJFnXm3jpUMIQNMWXTA3uuOhsisj2z6Uh3YPUhNP5EAz+4NavXtFCAoulOuIgICTLifbj/I44C84AxqfhYk9MDuXPB2NItdckWdebeOlQwU1K2DcgAAAAAAAAAAAAAAAAMAAAAiAgJ1t6Nj9So4h4BmQPNmN3ZFiQcuF21raofXx1QQdXZMpRRUf0V2AAAAAAAAAAAAAAAAAwAAACICA0xZdMDe646GyKyPbPpSHdg9SE0/kQDP7g1q9e0UICi6FEBcZb0AAAAAAAAAAAAAAAADAAAAAAAA",
  "psbtBase64Finalized": "cHNidP8BAP1zAQEAAAAEfM4S7/wupWTEInMz/TBUR+DeezrnpfzHUe//8+oTd+EAAAAAAP////+5x7KI/Wqg0UFZluKl2tmk4HDBKeF5J39T4y9gLxgGRgEAAAAA/////x9X2VYK6QcWALaWUzGS3Bd5kWT9P6EoBKf360IBxNXdAgAAAAD/////s+R4ljpxQ/cE8YzkwP7OMzyDM5Yy5wvdhjrCqJkVAmwDAAAAAP////8GhAMAAAAAAAAXqRTZCUdEBMEko9BMP7/2H6pJz0PFi4eEAwAAAAAAABepFAVBJxIdN/MiZs2WfEhUBJdqZ63wh4QDAAAAAAAAIgAgukjj+YdEY5Q/kBkqRfGuiVt3k2KnYpr3rWqdeoNePU+EAwAAAAAAABepFPxkGJFgS95wVikwC26N5fZ905Jih4QDAAAAAAAAF6kU9s9lApZzz5LgsOaQjFq5B5Uxai2HAAAAAAAAAAARag9zZXRlYyBhc3Ryb25vbXkAAAAATwEEiLIeAAAAAAAAAAAAOpIuKfDI6w2ypgSEy9y2MfaxB8nKrj/9zz59LsH2vNADEhSHFfNh2raFpmnUJDHl1tP5c0BNq5yf0blQsnmtdjQEzBiuCE8BBIiyHgAAAAAAAAAAAG0dZW093ZHBlMBFZaNgNwKiEBbO0UomXziYLWJ15ntkA9O6wjE6fGshy7EbFLDRA0H5IsCkA6i9jIfw3IIPNa9uBPZc2GlPAQSIsh4AAAAAAAAAAADLBP1jqzTZD+ZGa4gOKgLM+KhjN0MSmRr4kRsaqrRDNAM27yKP/puO//ugUsMtM0Zg3R+DZs+P5Erlqmcra2KQlQTy7wOJAAEBINAHAAAAAAAAF6kUVnzXtE+fOgfDE483v5hLYPu68kOHAQf9/QAARzBEAiB0vybAtkHQg5K7ObizIzS0EMihsUOj1FR7VyhbSzwRQwIgVv3VWj2h5fPDl+5I5TvdVPFpHeeh99HY4Ro2U5TVOyoBSDBFAiEAnEvcIbXx1kAQF61xpr73sOimwJwO944JScU0hFKTLOECIANlaE44ZIVPBr7nGXWJ+FOtsIqwCWPPU34t5dAKV3aRAUxpUiED9vQHZL1dY/IAoneIg6z3XpbxUJXJmCY8CHJw0Ml+fn8hA1/7erxwFZ4EafS5iabV4XhaKQQWn/BQsvRo/l09XbvyIQPhUk1/b8V6s+rLtlm3hxBngKR10dtIOVLCMQt+mjiXW1OuAAEBINAHAAAAAAAAF6kUDiayXQzq5vnP8+2syqDRpw2nYA+HAQcjIgAgRtSAChOTMwGWCFOZ7UoXALTC/TjFIYjDo6kfch88lgABCPwEAEcwRAIgF6QkSZf/dCCZ2EeHIvBXp78ZobLJF+cF75hBQEd8wEACIBPAhjojhQMwXzae6BJeud0DTeIMb99A7MPKKz4vYU3rAUcwRAIgXhnnW012DB8ZJPQR5sMzfUF7Nm2iZiaj/sFlN43ukzcCIAmvCvj8hcUmGHG01MhwICGAOQjH0M0kSTDUJ0b7IUQqAWlSIQKlhfP6tJte+VNG2TIiGiIb1V7BkfFVM+DycLNYJXTwNSECxPeGbP1ZlrwQaKljE8oV6cy16YRYOgc0Dd2uevAUYFshAiNFMbyRGaNqeUbpWut0kV3Qh8e0T1F7ju63P4mg/xqZU64AAQEr0AcAAAAAAAAiACDbBCfxgitHd2cOZnPCivAvbaHVr+cacfXJBkRwsin6/QEI/f0ABABIMEUCIQDUS5A+vpZKLDwUW8ejgfp1pG5fbqvPFwN+ldx93ebdcAIgekKb8MAMxscUpC7SX1q3MN3y5qlVgbYjHRQYmygeoakBRzBEAiBehoF9bOcf2fzxEB87uiAHKQV9UIl4ddNqjYjawSF5AQIgFMGUvwKrE5lMJ/m/IiwToIdngMds+5iKzH1MT/lIhaMBaVIhA1GeVyq0aFYNH40Ph2mdCYMI4WaQX13K5DkPBg+qjxzjIQOgW8JjkSIdaF4Y2q/zah6Vw0+ZRRJTwWzUJlDbJ4p5ESEC6AoIiFw1Nna4IM3CkObYGgrJWgPoq79Lt67r+3D+tBhTrgABASDQBwAAAAAAABepFCCzcJTYKlE0Uf8MzZ2yOroFvF7zhwEHbEcwRAIgb9YQhUAWq5khL2s9qF/5w59e3uSpdsMxDLwOFXmlAagCIHLOXAcbAN3pydj714hq3tLEKLi9RS7ncpyHWdZBzCFLASMhAzbvIo/+m47/+6BSwy0zRmDdH4Nmz4/kSuWqZytrYpCVrAABAGlSIQLMTQ+kEcrCREhvjrLAjgNf90EPRgo1nKf4gQmRvTtCCSEC1y/Q0NkCk0NK1fyhYPJ44DxhRJeqTkJc9FTiwTMPlqshA0TYhBNt9VAgKGX/vGIYx/nIj+bOOclFeYGQuts4p1LxU64iAgLMTQ+kEcrCREhvjrLAjgNf90EPRgo1nKf4gQmRvTtCCRTy7wOJAAAAAAAAAAAAAAAAAAAAACICAtcv0NDZApNDStX8oWDyeOA8YUSXqk5CXPRU4sEzD5arFMwYrggAAAAAAAAAAAAAAAAAAAAAIgIDRNiEE231UCAoZf+8YhjH+ciP5s45yUV5gZC62zinUvEU9lzYaQAAAAAAAAAAAAAAAAAAAAAAAQAiACApKwUjUaPG+A1RuuZCzIghGCiT2+7avI9dDpZ3R2AmwQEBaVIhAy4R+YVSaF/pB/MfnnJgyQbo3nAPDDyfLxQQYj3N/RnAIQNUV1fONc8e37E7nixKL5zgCrjDa+4SvKIzfOWD/SiuyCECo8+2Zl/kT3UgtqG03hpNRmQ7OF6x/R4Ktw77llQpdVRTriICAqPPtmZf5E91ILahtN4aTUZkOzhesf0eCrcO+5ZUKXVUFPZc2GkAAAAAAAAAAAoAAAABAAAAIgIDLhH5hVJoX+kH8x+ecmDJBujecA8MPJ8vFBBiPc39GcAU8u8DiQAAAAAAAAAACgAAAAEAAAAiAgNUV1fONc8e37E7nixKL5zgCrjDa+4SvKIzfOWD/SiuyBTMGK4IAAAAAAAAAAAKAAAAAQAAAAABAWlSIQLW0RQL0sD5FMswyZKqL80oP0cakoHO7J7GxbxEjmhpACEDuFWodY7aaGNkhEWp08+5U4isoXRiGtmPCZocT5Mm/schApX3tSfS6lN6TUKDBBCr9DQHMb+bIOVJcgAZM7mqI1NsU64iAgKV97Un0upTek1CgwQQq/Q0BzG/myDlSXIAGTO5qiNTbBT2XNhpAAAAAAAAAAAUAAAAAgAAACICAtbRFAvSwPkUyzDJkqovzSg/RxqSgc7snsbFvESOaGkAFPLvA4kAAAAAAAAAABQAAAACAAAAIgIDuFWodY7aaGNkhEWp08+5U4isoXRiGtmPCZocT5Mm/scUzBiuCAAAAAAAAAAAFAAAAAIAAAAAAQBpUiECdbejY/UqOIeAZkDzZjd2RYkHLhdta2qH18dUEHV2TKUhAky4n24/yOOAvOAMan4WJPTA7lzwdjSLXXJFnXm3jpUMIQNMWXTA3uuOhsisj2z6Uh3YPUhNP5EAz+4NavXtFCAoulOuIgICTLifbj/I44C84AxqfhYk9MDuXPB2NItdckWdebeOlQwU1K2DcgAAAAAAAAAAAAAAAAMAAAAiAgJ1t6Nj9So4h4BmQPNmN3ZFiQcuF21raofXx1QQdXZMpRRUf0V2AAAAAAAAAAAAAAAAAwAAACICA0xZdMDe646GyKyPbPpSHdg9SE0/kQDP7g1q9e0UICi6FEBcZb0AAAAAAAAAAAAAAAADAAAAAAAA",
  "inputs": [
    {
      "hash": "7cce12effc2ea564c4227333fd305447e0de7b3ae7a5fcc751effff3ea1377e1",
      "index": 0,
      "sequence": 4294967295
    },
    {
      "hash": "b9c7b288fd6aa0d1415996e2a5dad9a4e070c129e179277f53e32f602f180646",
      "index": 1,
      "sequence": 4294967295
    },
    {
      "hash": "1f57d9560ae9071600b696533192dc17799164fd3fa12804a7f7eb4201c4d5dd",
      "index": 2,
      "sequence": 4294967295
    },
    {
      "hash": "b3e478963a7143f704f18ce4c0fece333c83339632e70bdd863ac2a89915026c",
      "index": 3,
      "sequence": 4294967295
    }
  ],
  "psbtInputs": [
    {
      "type": "p2sh",
      "partialSig": [
        {
          "pubkey": "03e1524d7f6fc57ab3eacbb659b787106780a475d1db483952c2310b7e9a38975b",
          "signature": "30450221009c4bdc21b5f1d6401017ad71a6bef7b0e8a6c09c0ef78e0949c5348452932ce102200365684e3864854f06bee7197589f853adb08ab00963cf537e2de5d00a57769101"
        },
        {
          "pubkey": "03f6f40764bd5d63f200a2778883acf75e96f15095c998263c087270d0c97e7e7f",
          "signature": "3044022074bf26c0b641d08392bb39b8b32334b410c8a1b143a3d4547b57285b4b3c1143022056fdd55a3da1e5f3c397ee48e53bdd54f1691de7a1f7d1d8e11a365394d53b2a01"
        }
      ],
      "sighashType": 1,
      "redeemScript": "522103f6f40764bd5d63f200a2778883acf75e96f15095c998263c087270d0c97e7e7f21035ffb7abc70159e0469f4b989a6d5e1785a2904169ff050b2f468fe5d3d5dbbf22103e1524d7f6fc57ab3eacbb659b787106780a475d1db483952c2310b7e9a38975b53ae",
      "bip32Derivation": [
        {
          "masterFingerprint": "cc18ae08",
          "pubkey": "035ffb7abc70159e0469f4b989a6d5e1785a2904169ff050b2f468fe5d3d5dbbf2",
          "path": "0/0/1/0"
        },
        {
          "masterFingerprint": "f65cd869",
          "pubkey": "03e1524d7f6fc57ab3eacbb659b787106780a475d1db483952c2310b7e9a38975b",
          "path": "0/0/1/0"
        },
        {
          "masterFingerprint": "f2ef0389",
          "pubkey": "03f6f40764bd5d63f200a2778883acf75e96f15095c998263c087270d0c97e7e7f",
          "path": "0/0/1/0"
        }
      ],
      "witnessUtxo": {
        "value": "2000",
        "script": "a914567cd7b44f9f3a07c3138f37bf984b60fbbaf24387"
      }
    },
    {
      "type": "p2shP2wsh",
      "witnessUtxo": {
        "script": "a9140e26b25d0ceae6f9cff3edaccaa0d1a70da7600f87",
        "value": "2000"
      },
      "partialSig": [
        {
          "pubkey": "02234531bc9119a36a7946e95aeb74915dd087c7b44f517b8eeeb73f89a0ff1a99",
          "signature": "304402205e19e75b4d760c1f1924f411e6c3337d417b366da26626a3fec165378dee9337022009af0af8fc85c5261871b4d4c8702021803908c7d0cd244930d42746fb21442a01"
        },
        {
          "pubkey": "02a585f3fab49b5ef95346d932221a221bd55ec191f15533e0f270b3582574f035",
          "signature": "3044022017a4244997ff742099d8478722f057a7bf19a1b2c917e705ef984140477cc040022013c0863a238503305f369ee8125eb9dd034de20c6fdf40ecc3ca2b3e2f614deb01"
        }
      ],
      "sighashType": 1,
      "redeemScript": "002046d4800a1393330196085399ed4a1700b4c2fd38c52188c3a3a91f721f3c9600",
      "witnessScript": "522102a585f3fab49b5ef95346d932221a221bd55ec191f15533e0f270b3582574f0352102c4f7866cfd5996bc1068a96313ca15e9ccb5e984583a07340dddae7af014605b2102234531bc9119a36a7946e95aeb74915dd087c7b44f517b8eeeb73f89a0ff1a9953ae",
      "bip32Derivation": [
        {
          "masterFingerprint": "f65cd869",
          "pubkey": "02234531bc9119a36a7946e95aeb74915dd087c7b44f517b8eeeb73f89a0ff1a99",
          "path": "0/0/11/1"
        },
        {
          "masterFingerprint": "f2ef0389",
          "pubkey": "02a585f3fab49b5ef95346d932221a221bd55ec191f15533e0f270b3582574f035",
          "path": "0/0/11/1"
        },
        {
          "masterFingerprint": "cc18ae08",
          "pubkey": "02c4f7866cfd5996bc1068a96313ca15e9ccb5e984583a07340dddae7af014605b",
          "path": "0/0/11/1"
        }
      ]
    },
    {
      "type": "p2wsh",
      "witnessUtxo": {
        "script": "0020db0427f1822b4777670e6673c28af02f6da1d5afe71a71f5c9064470b229fafd",
        "value": "2000"
      },
      "partialSig": [
        {
          "pubkey": "02e80a08885c353676b820cdc290e6d81a0ac95a03e8abbf4bb7aeebfb70feb418",
          "signature": "304402205e86817d6ce71fd9fcf1101f3bba200729057d50897875d36a8d88dac1217901022014c194bf02ab13994c27f9bf222c13a0876780c76cfb988acc7d4c4ff94885a301"
        },
        {
          "pubkey": "03519e572ab468560d1f8d0f87699d098308e166905f5dcae4390f060faa8f1ce3",
          "signature": "3045022100d44b903ebe964a2c3c145bc7a381fa75a46e5f6eabcf17037e95dc7ddde6dd7002207a429bf0c00cc6c714a42ed25f5ab730ddf2e6a95581b6231d14189b281ea1a901"
        }
      ],
      "sighashType": 1,
      "witnessScript": "522103519e572ab468560d1f8d0f87699d098308e166905f5dcae4390f060faa8f1ce32103a05bc26391221d685e18daaff36a1e95c34f99451253c16cd42650db278a79112102e80a08885c353676b820cdc290e6d81a0ac95a03e8abbf4bb7aeebfb70feb41853ae",
      "bip32Derivation": [
        {
          "masterFingerprint": "f65cd869",
          "pubkey": "02e80a08885c353676b820cdc290e6d81a0ac95a03e8abbf4bb7aeebfb70feb418",
          "path": "0/0/21/2"
        },
        {
          "masterFingerprint": "f2ef0389",
          "pubkey": "03519e572ab468560d1f8d0f87699d098308e166905f5dcae4390f060faa8f1ce3",
          "path": "0/0/21/2"
        },
        {
          "masterFingerprint": "cc18ae08",
          "pubkey": "03a05bc26391221d685e18daaff36a1e95c34f99451253c16cd42650db278a7911",
          "path": "0/0/21/2"
        }
      ]
    },
    {
      "type": "p2shP2pk",
      "partialSig": [
        {
          "pubkey": "0336ef228ffe9b8efffba052c32d334660dd1f8366cf8fe44ae5aa672b6b629095",
          "signature": "304402206fd610854016ab99212f6b3da85ff9c39f5edee4a976c3310cbc0e1579a501a8022072ce5c071b00dde9c9d8fbd7886aded2c428b8bd452ee7729c8759d641cc214b01"
        }
      ],
      "sighashType": 1,
      "redeemScript": "210336ef228ffe9b8efffba052c32d334660dd1f8366cf8fe44ae5aa672b6b629095ac",
      "witnessUtxo": {
        "value": "2000",
        "script": "a91420b37094d82a513451ff0ccd9db23aba05bc5ef387"
      }
    }
  ],
  "psbtInputsFinalized": [
    {
      "type": "p2sh",
      "witnessUtxo": {
        "script": "a914567cd7b44f9f3a07c3138f37bf984b60fbbaf24387",
        "value": "2000"
      },
      "finalScriptSig": "00473044022074bf26c0b641d08392bb39b8b32334b410c8a1b143a3d4547b57285b4b3c1143022056fdd55a3da1e5f3c397ee48e53bdd54f1691de7a1f7d1d8e11a365394d53b2a014830450221009c4bdc21b5f1d6401017ad71a6bef7b0e8a6c09c0ef78e0949c5348452932ce102200365684e3864854f06bee7197589f853adb08ab00963cf537e2de5d00a577691014c69522103f6f40764bd5d63f200a2778883acf75e96f15095c998263c087270d0c97e7e7f21035ffb7abc70159e0469f4b989a6d5e1785a2904169ff050b2f468fe5d3d5dbbf22103e1524d7f6fc57ab3eacbb659b787106780a475d1db483952c2310b7e9a38975b53ae"
    },
    {
      "type": "p2shP2wsh",
      "witnessUtxo": {
        "script": "a9140e26b25d0ceae6f9cff3edaccaa0d1a70da7600f87",
        "value": "2000"
      },
      "finalScriptSig": "22002046d4800a1393330196085399ed4a1700b4c2fd38c52188c3a3a91f721f3c9600",
      "finalScriptWitness": "0400473044022017a4244997ff742099d8478722f057a7bf19a1b2c917e705ef984140477cc040022013c0863a238503305f369ee8125eb9dd034de20c6fdf40ecc3ca2b3e2f614deb0147304402205e19e75b4d760c1f1924f411e6c3337d417b366da26626a3fec165378dee9337022009af0af8fc85c5261871b4d4c8702021803908c7d0cd244930d42746fb21442a0169522102a585f3fab49b5ef95346d932221a221bd55ec191f15533e0f270b3582574f0352102c4f7866cfd5996bc1068a96313ca15e9ccb5e984583a07340dddae7af014605b2102234531bc9119a36a7946e95aeb74915dd087c7b44f517b8eeeb73f89a0ff1a9953ae"
    },
    {
      "type": "p2wsh",
      "witnessUtxo": {
        "script": "0020db0427f1822b4777670e6673c28af02f6da1d5afe71a71f5c9064470b229fafd",
        "value": "2000"
      },
      "finalScriptWitness": "0400483045022100d44b903ebe964a2c3c145bc7a381fa75a46e5f6eabcf17037e95dc7ddde6dd7002207a429bf0c00cc6c714a42ed25f5ab730ddf2e6a95581b6231d14189b281ea1a90147304402205e86817d6ce71fd9fcf1101f3bba200729057d50897875d36a8d88dac1217901022014c194bf02ab13994c27f9bf222c13a0876780c76cfb988acc7d4c4ff94885a30169522103519e572ab468560d1f8d0f87699d098308e166905f5dcae4390f060faa8f1ce32103a05bc26391221d685e18daaff36a1e95c34f99451253c16cd42650db278a79112102e80a08885c353676b820cdc290e6d81a0ac95a03e8abbf4bb7aeebfb70feb41853ae"
    },
    {
      "type": "p2shP2pk",
      "witnessUtxo": {
        "script": "a91420b37094d82a513451ff0ccd9db23aba05bc5ef387",
        "value": "2000"
      },
      "finalScriptSig": "47304402206fd610854016ab99212f6b3da85ff9c39f5edee4a976c3310cbc0e1579a501a8022072ce5c071b00dde9c9d8fbd7886aded2c428b8bd452ee7729c8759d641cc214b0123210336ef228ffe9b8efffba052c32d334660dd1f8366cf8fe44ae5aa672b6b629095ac"
    }
  ],
  "outputs": [
    {
      "script": "a914d909474404c124a3d04c3fbff61faa49cf43c58b87",
      "value": "900",
      "address": "MTgjyjL9bKy6ovKVFZ7uEbUM47htkbjGDc"
    },
    {
      "script": "a914054127121d37f32266cd967c485404976a67adf087",
      "value": "900",
      "address": "M8NwfGmnQ96H3MBiqyBekVUmBRguvnNQEi"
    },
    {
      "script": "0020ba48e3f9874463943f90192a45f1ae895b779362a7629af7ad6a9d7a835e3d4f",
      "value": "900",
      "address": "ltc1qhfyw87v8g33eg0usry4ytudw39dh0ymz5a3f4aadd2wh4q67848sre2yue"
    },
    {
      "script": "a914fc641891604bde705629300b6e8de5f67dd3926287",
      "value": "900",
      "address": "MWugRZWK8Mao4DwtqA312jBBfsvGEb56pq"
    },
    {
      "script": "a914f6cf65029673cf92e0b0e6908c5ab90795316a2d87",
      "value": "900",
      "address": "MWQAueXh12YixXmPbCftY28hxKvxVrJbZK"
    },
    {
      "script": "6a0f736574656320617374726f6e6f6d79",
      "value": "0"
    }
  ],
  "psbtOutputs": [
    {
      "redeemScript": "522102cc4d0fa411cac244486f8eb2c08e035ff7410f460a359ca7f8810991bd3b42092102d72fd0d0d90293434ad5fca160f278e03c614497aa4e425cf454e2c1330f96ab210344d884136df550202865ffbc6218c7f9c88fe6ce39c945798190badb38a752f153ae",
      "bip32Derivation": [
        {
          "masterFingerprint": "f2ef0389",
          "pubkey": "02cc4d0fa411cac244486f8eb2c08e035ff7410f460a359ca7f8810991bd3b4209",
          "path": "0/0/0/0"
        },
        {
          "masterFingerprint": "cc18ae08",
          "pubkey": "02d72fd0d0d90293434ad5fca160f278e03c614497aa4e425cf454e2c1330f96ab",
          "path": "0/0/0/0"
        },
        {
          "masterFingerprint": "f65cd869",
          "pubkey": "0344d884136df550202865ffbc6218c7f9c88fe6ce39c945798190badb38a752f1",
          "path": "0/0/0/0"
        }
      ]
    },
    {
      "redeemScript": "0020292b052351a3c6f80d51bae642cc8821182893dbeedabc8f5d0e9677476026c1",
      "witnessScript": "5221032e11f98552685fe907f31f9e7260c906e8de700f0c3c9f2f1410623dcdfd19c02103545757ce35cf1edfb13b9e2c4a2f9ce00ab8c36bee12bca2337ce583fd28aec82102a3cfb6665fe44f7520b6a1b4de1a4d46643b385eb1fd1e0ab70efb965429755453ae",
      "bip32Derivation": [
        {
          "masterFingerprint": "f65cd869",
          "pubkey": "02a3cfb6665fe44f7520b6a1b4de1a4d46643b385eb1fd1e0ab70efb9654297554",
          "path": "0/0/10/1"
        },
        {
          "masterFingerprint": "f2ef0389",
          "pubkey": "032e11f98552685fe907f31f9e7260c906e8de700f0c3c9f2f1410623dcdfd19c0",
          "path": "0/0/10/1"
        },
        {
          "masterFingerprint": "cc18ae08",
          "pubkey": "03545757ce35cf1edfb13b9e2c4a2f9ce00ab8c36bee12bca2337ce583fd28aec8",
          "path": "0/0/10/1"
        }
      ]
    },
    {
      "witnessScript": "522102d6d1140bd2c0f914cb30c992aa2fcd283f471a9281ceec9ec6c5bc448e6869002103b855a8758eda6863648445a9d3cfb95388aca174621ad98f099a1c4f9326fec7210295f7b527d2ea537a4d42830410abf4340731bf9b20e54972001933b9aa23536c53ae",
      "bip32Derivation": [
        {
          "masterFingerprint": "f65cd869",
          "pubkey": "0295f7b527d2ea537a4d42830410abf4340731bf9b20e54972001933b9aa23536c",
          "path": "0/0/20/2"
        },
        {
          "masterFingerprint": "f2ef0389",
          "pubkey": "02d6d1140bd2c0f914cb30c992aa2fcd283f471a9281ceec9ec6c5bc448e686900",
          "path": "0/0/20/2"
        },
        {
          "masterFingerprint": "cc18ae08",
          "pubkey": "03b855a8758eda6863648445a9d3cfb95388aca174621ad98f099a1c4f9326fec7",
          "path": "0/0/20/2"
        }
      ]
    },
    {
      "redeemScript": "52210275b7a363f52a3887806640f36637764589072e176d6b6a87d7c7541075764ca521024cb89f6e3fc8e380bce00c6a7e1624f4c0ee5cf076348b5d72459d79b78e950c21034c5974c0deeb8e86c8ac8f6cfa521dd83d484d3f9100cfee0d6af5ed142028ba53ae",
      "bip32Derivation": [
        {
          "masterFingerprint": "d4ad8372",
          "pubkey": "024cb89f6e3fc8e380bce00c6a7e1624f4c0ee5cf076348b5d72459d79b78e950c",
          "path": "0/0/0/3"
        },
        {
          "masterFingerprint": "547f4576",
          "pubkey": "0275b7a363f52a3887806640f36637764589072e176d6b6a87d7c7541075764ca5",
          "path": "0/0/0/3"
        },
        {
          "masterFingerprint": "405c65bd",
          "pubkey": "034c5974c0deeb8e86c8ac8f6cfa521dd83d484d3f9100cfee0d6af5ed142028ba",
          "path": "0/0/0/3"
        }
      ]
    },
    {},
    {}
  ],
  "extractedTransaction": "010000000001047cce12effc2ea564c4227333fd305447e0de7b3ae7a5fcc751effff3ea1377e100000000fdfd0000473044022074bf26c0b641d08392bb39b8b32334b410c8a1b143a3d4547b57285b4b3c1143022056fdd55a3da1e5f3c397ee48e53bdd54f1691de7a1f7d1d8e11a365394d53b2a014830450221009c4bdc21b5f1d6401017ad71a6bef7b0e8a6c09c0ef78e0949c5348452932ce102200365684e3864854f06bee7197589f853adb08ab00963cf537e2de5d00a577691014c69522103f6f40764bd5d63f200a2778883acf75e96f15095c998263c087270d0c97e7e7f21035ffb7abc70159e0469f4b989a6d5e1785a2904169ff050b2f468fe5d3d5dbbf22103e1524d7f6fc57ab3eacbb659b787106780a475d1db483952c2310b7e9a38975b53aeffffffffb9c7b288fd6aa0d1415996e2a5dad9a4e070c129e179277f53e32f602f180646010000002322002046d4800a1393330196085399ed4a1700b4c2fd38c52188c3a3a91f721f3c9600ffffffff1f57d9560ae9071600b696533192dc17799164fd3fa12804a7f7eb4201c4d5dd0200000000ffffffffb3e478963a7143f704f18ce4c0fece333c83339632e70bdd863ac2a89915026c030000006c47304402206fd610854016ab99212f6b3da85ff9c39f5edee4a976c3310cbc0e1579a501a8022072ce5c071b00dde9c9d8fbd7886aded2c428b8bd452ee7729c8759d641cc214b0123210336ef228ffe9b8efffba052c32d334660dd1f8366cf8fe44ae5aa672b6b629095acffffffff06840300000000000017a914d909474404c124a3d04c3fbff61faa49cf43c58b87840300000000000017a914054127121d37f32266cd967c485404976a67adf0878403000000000000220020ba48e3f9874463943f90192a45f1ae895b779362a7629af7ad6a9d7a835e3d4f840300000000000017a914fc641891604bde705629300b6e8de5f67dd3926287840300000000000017a914f6cf65029673cf92e0b0e6908c5ab90795316a2d870000000000000000116a0f736574656320617374726f6e6f6d79000400473044022017a4244997ff742099d8478722f057a7bf19a1b2c917e705ef984140477cc040022013c0863a238503305f369ee8125eb9dd034de20c6fdf40ecc3ca2b3e2f614deb0147304402205e19e75b4d760c1f1924f411e6c3337d417b366da26626a3fec165378dee9337022009af0af8fc85c5261871b4d4c8702021803908c7d0cd244930d42746fb21442a0169522102a585f3fab49b5ef95346d932221a221bd55ec191f15533e0f270b3582574f0352102c4f7866cfd5996bc1068a96313ca15e9ccb5e984583a07340dddae7af014605b2102234531bc9119a36a7946e95aeb74915dd087c7b44f517b8eeeb73f89a0ff1a9953ae0400483045022100d44b903ebe964a2c3c145bc7a381fa75a46e5f6eabcf17037e95dc7ddde6dd7002207a429bf0c00cc6c714a42ed25f5ab730ddf2e6a95581b6231d14189b281ea1a90147304402205e86817d6ce71fd9fcf1101f3bba200729057d50897875d36a8d88dac1217901022014c194bf02ab13994c27f9bf222c13a0876780c76cfb988acc7d4c4ff94885a30169522103519e572ab468560d1f8d0f87699d098308e166905f5dcae4390f060faa8f1ce32103a05bc26391221d685e18daaff36a1e95c34f99451253c16cd42650db278a79112102e80a08885c353676b820cdc290e6d81a0ac95a03e8abbf4bb7aeebfb70feb41853ae0000000000"
}
