{
  "walletKeys": [
    "xprv9s21ZrQH143K45bDYc9c3aEaGiTK9aPtjgtHg6wBdkryBjix1KKXRCszxPcFPejLT9tdLgNe8E8AuQXK2fy8KhNPeLAZsGoX8w9KS2PkacL",
    "xprv9s21ZrQH143K2eBLSVNk4zhjDzqzqM29aS9cjr4CcoNrKLYwLHtwgTURSk7RPV3cH9zNZQeR1zGw3MEwSjvARSfWEGpxfaBmduhW3TKsH5g",
    "xprv9s21ZrQH143K39N9shF9hAsTwh1FvQuBk8UVsZVwr4XtpqF7stCu2LH358NLuqkkK6pu1Af7TJHr5FZERQoLLtnC7wkoM9sdFo1HuP7dWuv"
  ],
  "psbtBase64": "cHNidP8BAP0ZAQIAAAAEXHl7JZuCciuE7AYqznYGwAktTG1xHrS3dWe+E7Rwxq8AAAAAAP////8w57CA8+oTQ5EOL6FfWb7OJVTPMKkj0zvCjx6/ugtrSQEAAAAA/////9QB0PHuoV0QUhdbprACPeye09XU48ta3KpUb+fP+syJAgAAAAD/////FExoOFOAMZV1idmrdt6ukrAf5jVo2r8aZCk+afJaeUEDAAAAAP////8DhAMAAAAAAAAXqRTZCUdEBMEko9BMP7/2H6pJz0PFi4eEAwAAAAAAABepFAVBJxIdN/MiZs2WfEhUBJdqZ63wh4QDAAAAAAAAIgAgukjj+YdEY5Q/kBkqRfGuiVt3k2KnYpr3rWqdeoNePU8AAAAATwEEiLIeAAAAAAAAAAAAOpIuKfDI6w2ypgSEy9y2MfaxB8nKrj/9zz59LsH2vNADEhSHFfNh2raFpmnUJDHl1tP5c0BNq5yf0blQsnmtdjQEzBiuCE8BBIiyHgAAAAAAAAAAAG0dZW093ZHBlMBFZaNgNwKiEBbO0UomXziYLWJ15ntkA9O6wjE6fGshy7EbFLDRA0H5IsCkA6i9jIfw3IIPNa9uBPZc2GlPAQSIsh4AAAAAAAAAAADLBP1jqzTZD+ZGa4gOKgLM+KhjN0MSmRr4kRsaqrRDNAM27yKP/puO//ugUsMtM0Zg3R+DZs+P5Erlqmcra2KQlQTy7wOJAAEAvQIAAAABAQEBAQEBAQEBAQEBAQEBAQEBAQEBAQEBAQEBAQEBAQEAAAAAakcwRAIgHqWF/NB4uNG9Cdr663PVIIerF2/RZ//WCD58UnE55r4CIBonxwq68xAfzVMswOmRbYP+EmLi2xJYvm2WYaYWqmWDASEDvQw0sjc+OHV1zdsQPsA5FsMQRPJQjiYf41l6JoDsvR//////AegDAAAAAAAAF6kUVnzXtE+fOgfDE483v5hLYPu68kOHAAAAACICA+FSTX9vxXqz6su2WbeHEGeApHXR20g5UsIxC36aOJdbSDBFAiEA3UwLN0rKY4QFlORMmVg1s2MOrj9hEdPupfrstJ8uQFQCIDhPNlPc6A2dwoedUI3OPxzMjRmxkVNze7I6J0lBxCLUQSICA/b0B2S9XWPyAKJ3iIOs916W8VCVyZgmPAhycNDJfn5/SDBFAiEA4OG6cgUrPzxLGTsfIa/2bov7ghEx+bdoC+p4HKbWN0MCIChcoUPwbNTjKurJv/Fu+Sq7ld8LCGSXCSZmhq1LGA12QQEDBEEAAAABBGlSIQP29AdkvV1j8gCid4iDrPdelvFQlcmYJjwIcnDQyX5+fyEDX/t6vHAVngRp9LmJptXheFopBBaf8FCy9Gj+XT1du/IhA+FSTX9vxXqz6su2WbeHEGeApHXR20g5UsIxC36aOJdbU64iBgNf+3q8cBWeBGn0uYmm1eF4WikEFp/wULL0aP5dPV278hTMGK4IAAAAAAAAAAABAAAAAAAAACIGA+FSTX9vxXqz6su2WbeHEGeApHXR20g5UsIxC36aOJdbFPZc2GkAAAAAAAAAAAEAAAAAAAAAIgYD9vQHZL1dY/IAoneIg6z3XpbxUJXJmCY8CHJw0Ml+fn8U8u8DiQAAAAAAAAAAAQAAAAAAAAAAAQEg6AMAAAAAAAAXqRQOJrJdDOrm+c/z7azKoNGnDadgD4ciAgIjRTG8kRmjanlG6VrrdJFd0IfHtE9Re47utz+JoP8amUgwRQIhAMOulNu5drzThWYwi02TUNqG6+BExhCza5E/ZHZSRWjNAiBE39MhCPCv5GpjOE9CpJkLpzueut3YiAHa8+Pr2D4iPEEiAgKlhfP6tJte+VNG2TIiGiIb1V7BkfFVM+DycLNYJXTwNUcwRAIgbraghFBde63Br+9VToWcZd8xrVt728YqFJQ9W0+VMHECIAy6SOnFZ2ViqzDXMJREig6zXu5zv6xTERQM2UQzLcqbQQEDBEEAAAABBCIAIEbUgAoTkzMBlghTme1KFwC0wv04xSGIw6OpH3IfPJYAAQVpUiECpYXz+rSbXvlTRtkyIhoiG9VewZHxVTPg8nCzWCV08DUhAsT3hmz9WZa8EGipYxPKFenMtemEWDoHNA3drnrwFGBbIQIjRTG8kRmjanlG6VrrdJFd0IfHtE9Re47utz+JoP8amVOuIgYCI0UxvJEZo2p5Rula63SRXdCHx7RPUXuO7rc/iaD/GpkU9lzYaQAAAAAAAAAACwAAAAEAAAAiBgKlhfP6tJte+VNG2TIiGiIb1V7BkfFVM+DycLNYJXTwNRTy7wOJAAAAAAAAAAALAAAAAQAAACIGAsT3hmz9WZa8EGipYxPKFenMtemEWDoHNA3drnrwFGBbFMwYrggAAAAAAAAAAAsAAAABAAAAAAEBK+gDAAAAAAAAIgAg2wQn8YIrR3dnDmZzworwL22h1a/nGnH1yQZEcLIp+v0iAgLoCgiIXDU2drggzcKQ5tgaCslaA+irv0u3ruv7cP60GEcwRAIgccToXWbS6pHXcUWJJOZ0tMpA9tyASjHbhtgNUe78RsUCICm7l0GQmvgfMgXt9ixRNCujxERJB7ePVvrEEVXq0M87QSICA1GeVyq0aFYNH40Ph2mdCYMI4WaQX13K5DkPBg+qjxzjSDBFAiEA+MxnYf9fcLlbS7blDwh75uOJl5S5MEjwgHjHvOidWDQCIBHL60PlvVX8lrOb4rxGES7NYID9bxSBU96h3Jy43MXqQQEDBEEAAAABBWlSIQNRnlcqtGhWDR+ND4dpnQmDCOFmkF9dyuQ5DwYPqo8c4yEDoFvCY5EiHWheGNqv82oelcNPmUUSU8Fs1CZQ2yeKeREhAugKCIhcNTZ2uCDNwpDm2BoKyVoD6Ku/S7eu6/tw/rQYU64iBgLoCgiIXDU2drggzcKQ5tgaCslaA+irv0u3ruv7cP60GBT2XNhpAAAAAAAAAAAVAAAAAgAAACIGA1GeVyq0aFYNH40Ph2mdCYMI4WaQX13K5DkPBg+qjxzjFPLvA4kAAAAAAAAAABUAAAACAAAAIgYDoFvCY5EiHWheGNqv82oelcNPmUUSU8Fs1CZQ2yeKeREUzBiuCAAAAAAAAAAAFQAAAAIAAAAAAQD9IwECAAAAAQEBAQEBAQEBAQEBAQEBAQEBAQEBAQEBAQEBAQEBAQEBAAAAAGpHMEQCIFIqwEtoMABBVmg+xJEuDBUX8euAM3ymR1oUJfgPJIwQAiAO95sZW48bN6xCqJpnER4UcOupjbVm+QGN0soBmb/RwQEhA70MNLI3Pjh1dc3bED7AORbDEETyUI4mH+NZeiaA7L0f/////wToAwAAAAAAABl2qRSIOtjRr/34pzy9r3I3tcWrnsLDJois6AMAAAAAAAAZdqkUiDrY0a/9+Kc8va9yN7XFq57CwyaIrOgDAAAAAAAAGXapFIg62NGv/finPL2vcje1xauewsMmiKzoAwAAAAAAABepFCCzcJTYKlE0Uf8MzZ2yOroFvF7zhwAAAAAiAgM27yKP/puO//ugUsMtM0Zg3R+DZs+P5Erlqmcra2KQlUgwRQIhANn8QytdIjMlwDhEGXTXVRdYKp8Oi6ENMYiyCS6Xx2JOAiACjjMH6wKxkWwaAInqb/GiVebSvQ6rLJlN+0M9bupDlkEBAwRBAAAAAQQjIQM27yKP/puO//ugUsMtM0Zg3R+DZs+P5Erlqmcra2KQlawAAQBpUiECzE0PpBHKwkRIb46ywI4DX/dBD0YKNZyn+IEJkb07QgkhAtcv0NDZApNDStX8oWDyeOA8YUSXqk5CXPRU4sEzD5arIQNE2IQTbfVQIChl/7xiGMf5yI/mzjnJRXmBkLrbOKdS8VOuIgICzE0PpBHKwkRIb46ywI4DX/dBD0YKNZyn+IEJkb07QgkU8u8DiQAAAAAAAAAAAAAAAAAAAAAiAgLXL9DQ2QKTQ0rV/KFg8njgPGFEl6pOQlz0VOLBMw+WqxTMGK4IAAAAAAAAAAAAAAAAAAAAACICA0TYhBNt9VAgKGX/vGIYx/nIj+bOOclFeYGQuts4p1LxFPZc2GkAAAAAAAAAAAAAAAAAAAAAAAEAIgAgKSsFI1GjxvgNUbrmQsyIIRgok9vu2ryPXQ6Wd0dgJsEBAWlSIQMuEfmFUmhf6QfzH55yYMkG6N5wDww8ny8UEGI9zf0ZwCEDVFdXzjXPHt+xO54sSi+c4Aq4w2vuEryiM3zlg/0orsghAqPPtmZf5E91ILahtN4aTUZkOzhesf0eCrcO+5ZUKXVUU64iAgKjz7ZmX+RPdSC2obTeGk1GZDs4XrH9Hgq3DvuWVCl1VBT2XNhpAAAAAAAAAAAKAAAAAQAAACICAy4R+YVSaF/pB/MfnnJgyQbo3nAPDDyfLxQQYj3N/RnAFPLvA4kAAAAAAAAAAAoAAAABAAAAIgIDVFdXzjXPHt+xO54sSi+c4Aq4w2vuEryiM3zlg/0orsgUzBiuCAAAAAAAAAAACgAAAAEAAAAAAQFpUiEC1tEUC9LA+RTLMMmSqi/NKD9HGpKBzuyexsW8RI5oaQAhA7hVqHWO2mhjZIRFqdPPuVOIrKF0YhrZjwmaHE+TJv7HIQKV97Un0upTek1CgwQQq/Q0BzG/myDlSXIAGTO5qiNTbFOuIgIClfe1J9LqU3pNQoMEEKv0NAcxv5sg5UlyABkzuaojU2wU9lzYaQAAAAAAAAAAFAAAAAIAAAAiAgLW0RQL0sD5FMswyZKqL80oP0cakoHO7J7GxbxEjmhpABTy7wOJAAAAAAAAAAAUAAAAAgAAACICA7hVqHWO2mhjZIRFqdPPuVOIrKF0YhrZjwmaHE+TJv7HFMwYrggAAAAAAAAAABQAAAACAAAAAA==",
  "psbtBase64Finalized": "cHNidP8BAP0ZAQIAAAAEXHl7JZuCciuE7AYqznYGwAktTG1xHrS3dWe+E7Rwxq8AAAAAAP////8w57CA8+oTQ5EOL6FfWb7OJVTPMKkj0zvCjx6/ugtrSQEAAAAA/////9QB0PHuoV0QUhdbprACPeye09XU48ta3KpUb+fP+syJAgAAAAD/////FExoOFOAMZV1idmrdt6ukrAf5jVo2r8aZCk+afJaeUEDAAAAAP////8DhAMAAAAAAAAXqRTZCUdEBMEko9BMP7/2H6pJz0PFi4eEAwAAAAAAABepFAVBJxIdN/MiZs2WfEhUBJdqZ63wh4QDAAAAAAAAIgAgukjj+YdEY5Q/kBkqRfGuiVt3k2KnYpr3rWqdeoNePU8AAAAATwEEiLIeAAAAAAAAAAAAOpIuKfDI6w2ypgSEy9y2MfaxB8nKrj/9zz59LsH2vNADEhSHFfNh2raFpmnUJDHl1tP5c0BNq5yf0blQsnmtdjQEzBiuCE8BBIiyHgAAAAAAAAAAAG0dZW093ZHBlMBFZaNgNwKiEBbO0UomXziYLWJ15ntkA9O6wjE6fGshy7EbFLDRA0H5IsCkA6i9jIfw3IIPNa9uBPZc2GlPAQSIsh4AAAAAAAAAAADLBP1jqzTZD+ZGa4gOKgLM+KhjN0MSmRr4kRsaqrRDNAM27yKP/puO//ugUsMtM0Zg3R+DZs+P5Erlqmcra2KQlQTy7wOJAAEAvQIAAAABAQEBAQEBAQEBAQEBAQEBAQEBAQEBAQEBAQEBAQEBAQEAAAAAakcwRAIgHqWF/NB4uNG9Cdr663PVIIerF2/RZ//WCD58UnE55r4CIBonxwq68xAfzVMswOmRbYP+EmLi2xJYvm2WYaYWqmWDASEDvQw0sjc+OHV1zdsQPsA5FsMQRPJQjiYf41l6JoDsvR//////AegDAAAAAAAAF6kUVnzXtE+fOgfDE483v5hLYPu68kOHAAAAAAEH/f4AAEgwRQIhAODhunIFKz88Sxk7HyGv9m6L+4IRMfm3aAvqeBym1jdDAiAoXKFD8GzU4yrqyb/xbvkqu5XfCwhklwkmZoatSxgNdkFIMEUCIQDdTAs3SspjhAWU5EyZWDWzYw6uP2ER0+6l+uy0ny5AVAIgOE82U9zoDZ3Ch51Qjc4/HMyNGbGRU3N7sjonSUHEItRBTGlSIQP29AdkvV1j8gCid4iDrPdelvFQlcmYJjwIcnDQyX5+fyEDX/t6vHAVngRp9LmJptXheFopBBaf8FCy9Gj+XT1du/IhA+FSTX9vxXqz6su2WbeHEGeApHXR20g5UsIxC36aOJdbU64AAQEg6AMAAAAAAAAXqRQOJrJdDOrm+c/z7azKoNGnDadgD4cBByMiACBG1IAKE5MzAZYIU5ntShcAtML9OMUhiMOjqR9yHzyWAAEI/f0ABABHMEQCIG62oIRQXXutwa/vVU6FnGXfMa1be9vGKhSUPVtPlTBxAiAMukjpxWdlYqsw1zCURIoOs17uc7+sUxEUDNlEMy3Km0FIMEUCIQDDrpTbuXa804VmMItNk1DahuvgRMYQs2uRP2R2UkVozQIgRN/TIQjwr+RqYzhPQqSZC6c7nrrd2IgB2vPj69g+IjxBaVIhAqWF8/q0m175U0bZMiIaIhvVXsGR8VUz4PJws1gldPA1IQLE94Zs/VmWvBBoqWMTyhXpzLXphFg6BzQN3a568BRgWyECI0UxvJEZo2p5Rula63SRXdCHx7RPUXuO7rc/iaD/GplTrgABASvoAwAAAAAAACIAINsEJ/GCK0d3Zw5mc8KK8C9todWv5xpx9ckGRHCyKfr9AQj9/QAEAEgwRQIhAPjMZ2H/X3C5W0u25Q8Ie+bjiZeUuTBI8IB4x7zonVg0AiARy+tD5b1V/Jazm+K8RhEuzWCA/W8UgVPeodycuNzF6kFHMEQCIHHE6F1m0uqR13FFiSTmdLTKQPbcgEox24bYDVHu/EbFAiApu5dBkJr4HzIF7fYsUTQro8RESQe3j1b6xBFV6tDPO0FpUiEDUZ5XKrRoVg0fjQ+HaZ0JgwjhZpBfXcrkOQ8GD6qPHOMhA6BbwmORIh1oXhjar/NqHpXDT5lFElPBbNQmUNsninkRIQLoCgiIXDU2drggzcKQ5tgaCslaA+irv0u3ruv7cP60GFOuAAEA/SMBAgAAAAEBAQEBAQEBAQEBAQEBAQEBAQEBAQEBAQEBAQEBAQEBAQAAAABqRzBEAiBSKsBLaDAAQVZoPsSRLgwVF/HrgDN8pkdaFCX4DySMEAIgDvebGVuPGzesQqiaZxEeFHDrqY21ZvkBjdLKAZm/0cEBIQO9DDSyNz44dXXN2xA+wDkWwxBE8lCOJh/jWXomgOy9H/////8E6AMAAAAAAAAZdqkUiDrY0a/9+Kc8va9yN7XFq57CwyaIrOgDAAAAAAAAGXapFIg62NGv/finPL2vcje1xauewsMmiKzoAwAAAAAAABl2qRSIOtjRr/34pzy9r3I3tcWrnsLDJois6AMAAAAAAAAXqRQgs3CU2CpRNFH/DM2dsjq6Bbxe84cAAAAAAQdtSDBFAiEA2fxDK10iMyXAOEQZdNdVF1gqnw6LoQ0xiLIJLpfHYk4CIAKOMwfrArGRbBoAiepv8aJV5tK9DqssmU37Qz1u6kOWQSMhAzbvIo/+m47/+6BSwy0zRmDdH4Nmz4/kSuWqZytrYpCVrAABAGlSIQLMTQ+kEcrCREhvjrLAjgNf90EPRgo1nKf4gQmRvTtCCSEC1y/Q0NkCk0NK1fyhYPJ44DxhRJeqTkJc9FTiwTMPlqshA0TYhBNt9VAgKGX/vGIYx/nIj+bOOclFeYGQuts4p1LxU64iAgLMTQ+kEcrCREhvjrLAjgNf90EPRgo1nKf4gQmRvTtCCRTy7wOJAAAAAAAAAAAAAAAAAAAAACICAtcv0NDZApNDStX8oWDyeOA8YUSXqk5CXPRU4sEzD5arFMwYrggAAAAAAAAAAAAAAAAAAAAAIgIDRNiEE231UCAoZf+8YhjH+ciP5s45yUV5gZC62zinUvEU9lzYaQAAAAAAAAAAAAAAAAAAAAAAAQAiACApKwUjUaPG+A1RuuZCzIghGCiT2+7avI9dDpZ3R2AmwQEBaVIhAy4R+YVSaF/pB/MfnnJgyQbo3nAPDDyfLxQQYj3N/RnAIQNUV1fONc8e37E7nixKL5zgCrjDa+4SvKIzfOWD/SiuyCECo8+2Zl/kT3UgtqG03hpNRmQ7OF6x/R4Ktw77llQpdVRTriICAqPPtmZf5E91ILahtN4aTUZkOzhesf0eCrcO+5ZUKXVUFPZc2GkAAAAAAAAAAAoAAAABAAAAIgIDLhH5hVJoX+kH8x+ecmDJBujecA8MPJ8vFBBiPc39GcAU8u8DiQAAAAAAAAAACgAAAAEAAAAiAgNUV1fONc8e37E7nixKL5zgCrjDa+4SvKIzfOWD/SiuyBTMGK4IAAAAAAAAAAAKAAAAAQAAAAABAWlSIQLW0RQL0sD5FMswyZKqL80oP0cakoHO7J7GxbxEjmhpACEDuFWodY7aaGNkhEWp08+5U4isoXRiGtmPCZocT5Mm/schApX3tSfS6lN6TUKDBBCr9DQHMb+bIOVJcgAZM7mqI1NsU64iAgKV97Un0upTek1CgwQQq/Q0BzG/myDlSXIAGTO5qiNTbBT2XNhpAAAAAAAAAAAUAAAAAgAAACICAtbRFAvSwPkUyzDJkqovzSg/RxqSgc7snsbFvESOaGkAFPLvA4kAAAAAAAAAABQAAAACAAAAIgIDuFWodY7aaGNkhEWp08+5U4isoXRiGtmPCZocT5Mm/scUzBiuCAAAAAAAAAAAFAAAAAIAAAAA",
  "inputs": [
    {
      "hash": "5c797b259b82722b84ec062ace7606c0092d4c6d711eb4b77567be13b470c6af",
      "index": 0,
      "sequence": 4294967295
    },
    {
      "hash": "30e7b080f3ea1343910e2fa15f59bece2554cf30a923d33bc28f1ebfba0b6b49",
      "index": 1,
      "sequence": 4294967295
    },
    {
      "hash": "d401d0f1eea15d1052175ba6b0023dec9ed3d5d4e3cb5adcaa546fe7cffacc89",
      "index": 2,
      "sequence": 4294967295
    },
    {
      "hash": "144c6838538031957589d9ab76deae92b01fe63568dabf1a64293e69f25a7941",
      "index": 3,
      "sequence": 4294967295
    }
  ],
  "psbtInputs": [
    {
      "type": "p2sh",
      "unknownKeyVals": [],
      "nonWitnessUtxo": "02000000010101010101010101010101010101010101010101010101010101010101010101000000006a47304402201ea585fcd078b8d1bd09dafaeb73d52087ab176fd167ffd6083e7c527139e6be02201a27c70abaf3101fcd532cc0e9916d83fe1262e2db1258be6d9661a616aa6583012103bd0c34b2373e387575cddb103ec03916c31044f2508e261fe3597a2680ecbd1fffffffff01e80300000000000017a914567cd7b44f9f3a07c3138f37bf984b60fbbaf2438700000000",
      "sighashType": 65,
      "bip32Derivation": [
        {
          "pubkey": "03f6f40764bd5d63f200a2778883acf75e96f15095c998263c087270d0c97e7e7f",
          "path": "0/0/1/0",
          "masterFingerprint": "f2ef0389"
        },
        {
          "pubkey": "035ffb7abc70159e0469f4b989a6d5e1785a2904169ff050b2f468fe5d3d5dbbf2",
          "path": "0/0/1/0",
          "masterFingerprint": "cc18ae08"
        },
        {
          "pubkey": "03e1524d7f6fc57ab3eacbb659b787106780a475d1db483952c2310b7e9a38975b",
          "path": "0/0/1/0",
          "masterFingerprint": "f65cd869"
        }
      ],
      "redeemScript": "522103f6f40764bd5d63f200a2778883acf75e96f15095c998263c087270d0c97e7e7f21035ffb7abc70159e0469f4b989a6d5e1785a2904169ff050b2f468fe5d3d5dbbf22103e1524d7f6fc57ab3eacbb659b787106780a475d1db483952c2310b7e9a38975b53ae",
      "partialSig": [
        {
          "pubkey": "03f6f40764bd5d63f200a2778883acf75e96f15095c998263c087270d0c97e7e7f",
          "signature": "3045022100e0e1ba72052b3f3c4b193b1f21aff66e8bfb821131f9b7680bea781ca6d637430220285ca143f06cd4e32aeac9bff16ef92abb95df0b08649709266686ad4b180d7641"
        },
        {
          "pubkey": "03e1524d7f6fc57ab3eacbb659b787106780a475d1db483952c2310b7e9a38975b",
          "signature": "3045022100dd4c0b374aca63840594e44c995835b3630eae3f6111d3eea5faecb49f2e40540220384f3653dce80d9dc2879d508dce3f1ccc8d19b19153737bb23a274941c422d441"
        }
      ]
    },
    {
      "type": "p2shP2wsh",
      "unknownKeyVals": [],
      "witnessUtxo": {
        "script": "a9140e26b25d0ceae6f9cff3edaccaa0d1a70da7600f87",
        "value": "1000"
      },
      "sighashType": 65,
      "bip32Derivation": [
        {
          "pubkey": "02a585f3fab49b5ef95346d932221a221bd55ec191f15533e0f270b3582574f035",
          "path": "0/0/11/1",
          "masterFingerprint": "f2ef0389"
        },
        {
          "pubkey": "02c4f7866cfd5996bc1068a96313ca15e9ccb5e984583a07340dddae7af014605b",
          "path": "0/0/11/1",
          "masterFingerprint": "cc18ae08"
        },
        {
          "pubkey": "02234531bc9119a36a7946e95aeb74915dd087c7b44f517b8eeeb73f89a0ff1a99",
          "path": "0/0/11/1",
          "masterFingerprint": "f65cd869"
        }
      ],
      "witnessScript": "522102a585f3fab49b5ef95346d932221a221bd55ec191f15533e0f270b3582574f0352102c4f7866cfd5996bc1068a96313ca15e9ccb5e984583a07340dddae7af014605b2102234531bc9119a36a7946e95aeb74915dd087c7b44f517b8eeeb73f89a0ff1a9953ae",
      "redeemScript": "002046d4800a1393330196085399ed4a1700b4c2fd38c52188c3a3a91f721f3c9600",
      "partialSig": [
        {
          "pubkey": "02a585f3fab49b5ef95346d932221a221bd55ec191f15533e0f270b3582574f035",
          "signature": "304402206eb6a084505d7badc1afef554e859c65df31ad5b7bdbc62a14943d5b4f95307102200cba48e9c5676562ab30d73094448a0eb35eee73bfac5311140cd944332dca9b41"
        },
        {
          "pubkey": "02234531bc9119a36a7946e95aeb74915dd087c7b44f517b8eeeb73f89a0ff1a99",
          "signature": "3045022100c3ae94dbb976bcd38566308b4d9350da86ebe044c610b36b913f6476524568cd022044dfd32108f0afe46a63384f42a4990ba73b9ebaddd88801daf3e3ebd83e223c41"
        }
      ]
    },
    {
      "type": "p2wsh",
      "unknownKeyVals": [],
      "witnessUtxo": {
        "script": "0020db0427f1822b4777670e6673c28af02f6da1d5afe71a71f5c9064470b229fafd",
        "value": "1000"
      },
      "sighashType": 65,
      "bip32Derivation": [
        {
          "pubkey": "03519e572ab468560d1f8d0f87699d098308e166905f5dcae4390f060faa8f1ce3",
          "path": "0/0/21/2",
          "masterFingerprint": "f2ef0389"
        },
        {
          "pubkey": "03a05bc26391221d685e18daaff36a1e95c34f99451253c16cd42650db278a7911",
          "path": "0/0/21/2",
          "masterFingerprint": "cc18ae08"
        },
        {
          "pubkey": "02e80a08885c353676b820cdc290e6d81a0ac95a03e8abbf4bb7aeebfb70feb418",
          "path": "0/0/21/2",
          "masterFingerprint": "f65cd869"
        }
      ],
      "witnessScript": "522103519e572ab468560d1f8d0f87699d098308e166905f5dcae4390f060faa8f1ce32103a05bc26391221d685e18daaff36a1e95c34f99451253c16cd42650db278a79112102e80a08885c353676b820cdc290e6d81a0ac95a03e8abbf4bb7aeebfb70feb41853ae",
      "partialSig": [
        {
          "pubkey": "03519e572ab468560d1f8d0f87699d098308e166905f5dcae4390f060faa8f1ce3",
          "signature": "3045022100f8cc6761ff5f70b95b4bb6e50f087be6e3899794b93048f08078c7bce89d5834022011cbeb43e5bd55fc96b39be2bc46112ecd6080fd6f148153dea1dc9cb8dcc5ea41"
        },
        {
          "pubkey": "02e80a08885c353676b820cdc290e6d81a0ac95a03e8abbf4bb7aeebfb70feb418",
          "signature": "3044022071c4e85d66d2ea91d771458924e674b4ca40f6dc804a31db86d80d51eefc46c5022029bb9741909af81f3205edf62c51342ba3c4444907b78f56fac41155ead0cf3b41"
        }
      ]
    },
    {
      "type": "p2shP2pk",
      "unknownKeyVals": [],
      "redeemScript": "210336ef228ffe9b8efffba052c32d334660dd1f8366cf8fe44ae5aa672b6b629095ac",
      "nonWitnessUtxo": "02000000010101010101010101010101010101010101010101010101010101010101010101000000006a4730440220522ac04b6830004156683ec4912e0c1517f1eb80337ca6475a1425f80f248c1002200ef79b195b8f1b37ac42a89a67111e1470eba98db566f9018dd2ca0199bfd1c1012103bd0c34b2373e387575cddb103ec03916c31044f2508e261fe3597a2680ecbd1fffffffff04e8030000000000001976a914883ad8d1affdf8a73cbdaf7237b5c5ab9ec2c32688ace8030000000000001976a914883ad8d1affdf8a73cbdaf7237b5c5ab9ec2c32688ace8030000000000001976a914883ad8d1affdf8a73cbdaf7237b5c5ab9ec2c32688ace80300000000000017a91420b37094d82a513451ff0ccd9db23aba05bc5ef38700000000",
      "sighashType": 65,
      "partialSig": [
        {
          "pubkey": "0336ef228ffe9b8efffba052c32d334660dd1f8366cf8fe44ae5aa672b6b629095",
          "signature": "3045022100d9fc432b5d223325c038441974d75517582a9f0e8ba10d3188b2092e97c7624e0220028e3307eb02b1916c1a0089ea6ff1a255e6d2bd0eab2c994dfb433d6eea439641"
        }
      ]
    }
  ],
  "psbtInputsFinalized": [
    {
      "type": "p2sh",
      "finalScriptSig": "00483045022100e0e1ba72052b3f3c4b193b1f21aff66e8bfb821131f9b7680bea781ca6d637430220285ca143f06cd4e32aeac9bff16ef92abb95df0b08649709266686ad4b180d7641483045022100dd4c0b374aca63840594e44c995835b3630eae3f6111d3eea5faecb49f2e40540220384f3653dce80d9dc2879d508dce3f1ccc8d19b19153737bb23a274941c422d4414c69522103f6f40764bd5d63f200a2778883acf75e96f15095c998263c087270d0c97e7e7f21035ffb7abc70159e0469f4b989a6d5e1785a2904169ff050b2f468fe5d3d5dbbf22103e1524d7f6fc57ab3eacbb659b787106780a475d1db483952c2310b7e9a38975b53ae",
      "nonWitnessUtxo": "02000000010101010101010101010101010101010101010101010101010101010101010101000000006a47304402201ea585fcd078b8d1bd09dafaeb73d52087ab176fd167ffd6083e7c527139e6be02201a27c70abaf3101fcd532cc0e9916d83fe1262e2db1258be6d9661a616aa6583012103bd0c34b2373e387575cddb103ec03916c31044f2508e261fe3597a2680ecbd1fffffffff01e80300000000000017a914567cd7b44f9f3a07c3138f37bf984b60fbbaf2438700000000"
    },
    {
      "type": "p2shP2wsh",
      "witnessUtxo": {
        "script": "a9140e26b25d0ceae6f9cff3edaccaa0d1a70da7600f87",
        "value": "1000"
      },
      "finalScriptSig": "22002046d4800a1393330196085399ed4a1700b4c2fd38c52188c3a3a91f721f3c9600",
      "finalScriptWitness": "040047304402206eb6a084505d7badc1afef554e859c65df31ad5b7bdbc62a14943d5b4f95307102200cba48e9c5676562ab30d73094448a0eb35eee73bfac5311140cd944332dca9b41483045022100c3ae94dbb976bcd38566308b4d9350da86ebe044c610b36b913f6476524568cd022044dfd32108f0afe46a63384f42a4990ba73b9ebaddd88801daf3e3ebd83e223c4169522102a585f3fab49b5ef95346d932221a221bd55ec191f15533e0f270b3582574f0352102c4f7866cfd5996bc1068a96313ca15e9ccb5e984583a07340dddae7af014605b2102234531bc9119a36a7946e95aeb74915dd087c7b44f517b8eeeb73f89a0ff1a9953ae"
    },
    {
      "type": "p2wsh",
      "witnessUtxo": {
        "script": "0020db0427f1822b4777670e6673c28af02f6da1d5afe71a71f5c9064470b229fafd",
        "value": "1000"
      },
      "finalScriptWitness": "0400483045022100f8cc6761ff5f70b95b4bb6e50f087be6e3899794b93048f08078c7bce89d5834022011cbeb43e5bd55fc96b39be2bc46112ecd6080fd6f148153dea1dc9cb8dcc5ea41473044022071c4e85d66d2ea91d771458924e674b4ca40f6dc804a31db86d80d51eefc46c5022029bb9741909af81f3205edf62c51342ba3c4444907b78f56fac41155ead0cf3b4169522103519e572ab468560d1f8d0f87699d098308e166905f5dcae4390f060faa8f1ce32103a05bc26391221d685e18daaff36a1e95c34f99451253c16cd42650db278a79112102e80a08885c353676b820cdc290e6d81a0ac95a03e8abbf4bb7aeebfb70feb41853ae"
    },
    {
      "type": "p2shP2pk",
      "finalScriptSig": "483045022100d9fc432b5d223325c038441974d75517582a9f0e8ba10d3188b2092e97c7624e0220028e3307eb02b1916c1a0089ea6ff1a255e6d2bd0eab2c994dfb433d6eea43964123210336ef228ffe9b8efffba052c32d334660dd1f8366cf8fe44ae5aa672b6b629095ac",
      "nonWitnessUtxo": "02000000010101010101010101010101010101010101010101010101010101010101010101000000006a4730440220522ac04b6830004156683ec4912e0c1517f1eb80337ca6475a1425f80f248c1002200ef79b195b8f1b37ac42a89a67111e1470eba98db566f9018dd2ca0199bfd1c1012103bd0c34b2373e387575cddb103ec03916c31044f2508e261fe3597a2680ecbd1fffffffff04e8030000000000001976a914883ad8d1affdf8a73cbdaf7237b5c5ab9ec2c32688ace8030000000000001976a914883ad8d1affdf8a73cbdaf7237b5c5ab9ec2c32688ace8030000000000001976a914883ad8d1affdf8a73cbdaf7237b5c5ab9ec2c32688ace80300000000000017a91420b37094d82a513451ff0ccd9db23aba05bc5ef38700000000"
    }
  ],
  "outputs": [
    {
      "script": "a914d909474404c124a3d04c3fbff61faa49cf43c58b87",
      "value": "900",
      "address": "AbZTPoHNRTTSjDZ9bE8J9D874VkRavLrwz"
    },
    {
      "script": "a914054127121d37f32266cd967c485404976a67adf087",
      "value": "900",
      "address": "AGFf5Lj1EGacxeRPBeC3f78XBojSo3ZAJj"
    },
    {
      "script": "0020ba48e3f9874463943f90192a45f1ae895b779362a7629af7ad6a9d7a835e3d4f",
      "value": "900",
      "address": "btg1qhfyw87v8g33eg0usry4ytudw39dh0ymz5a3f4aadd2wh4q67848swaqfkk"
    }
  ],
  "psbtOutputs": [
    {
      "unknownKeyVals": [],
      "bip32Derivation": [
        {
          "pubkey": "02cc4d0fa411cac244486f8eb2c08e035ff7410f460a359ca7f8810991bd3b4209",
          "path": "0/0/0/0",
          "masterFingerprint": "f2ef0389"
        },
        {
          "pubkey": "02d72fd0d0d90293434ad5fca160f278e03c614497aa4e425cf454e2c1330f96ab",
          "path": "0/0/0/0",
          "masterFingerprint": "cc18ae08"
        },
        {
          "pubkey": "0344d884136df550202865ffbc6218c7f9c88fe6ce39c945798190badb38a752f1",
          "path": "0/0/0/0",
          "masterFingerprint": "f65cd869"
        }
      ],
      "redeemScript": "522102cc4d0fa411cac244486f8eb2c08e035ff7410f460a359ca7f8810991bd3b42092102d72fd0d0d90293434ad5fca160f278e03c614497aa4e425cf454e2c1330f96ab210344d884136df550202865ffbc6218c7f9c88fe6ce39c945798190badb38a752f153ae"
    },
    {
      "unknownKeyVals": [],
      "bip32Derivation": [
        {
          "pubkey": "032e11f98552685fe907f31f9e7260c906e8de700f0c3c9f2f1410623dcdfd19c0",
          "path": "0/0/10/1",
          "masterFingerprint": "f2ef0389"
        },
        {
          "pubkey": "03545757ce35cf1edfb13b9e2c4a2f9ce00ab8c36bee12bca2337ce583fd28aec8",
          "path": "0/0/10/1",
          "masterFingerprint": "cc18ae08"
        },
        {
          "pubkey": "02a3cfb6665fe44f7520b6a1b4de1a4d46643b385eb1fd1e0ab70efb9654297554",
          "path": "0/0/10/1",
          "masterFingerprint": "f65cd869"
        }
      ],
      "witnessScript": "5221032e11f98552685fe907f31f9e7260c906e8de700f0c3c9f2f1410623dcdfd19c02103545757ce35cf1edfb13b9e2c4a2f9ce00ab8c36bee12bca2337ce583fd28aec82102a3cfb6665fe44f7520b6a1b4de1a4d46643b385eb1fd1e0ab70efb965429755453ae",
      "redeemScript": "0020292b052351a3c6f80d51bae642cc8821182893dbeedabc8f5d0e9677476026c1"
    },
    {
      "unknownKeyVals": [],
      "bip32Derivation": [
        {
          "pubkey": "02d6d1140bd2c0f914cb30c992aa2fcd283f471a9281ceec9ec6c5bc448e686900",
          "path": "0/0/20/2",
          "masterFingerprint": "f2ef0389"
        },
        {
          "pubkey": "03b855a8758eda6863648445a9d3cfb95388aca174621ad98f099a1c4f9326fec7",
          "path": "0/0/20/2",
          "masterFingerprint": "cc18ae08"
        },
        {
          "pubkey": "0295f7b527d2ea537a4d42830410abf4340731bf9b20e54972001933b9aa23536c",
          "path": "0/0/20/2",
          "masterFingerprint": "f65cd869"
        }
      ],
      "witnessScript": "522102d6d1140bd2c0f914cb30c992aa2fcd283f471a9281ceec9ec6c5bc448e6869002103b855a8758eda6863648445a9d3cfb95388aca174621ad98f099a1c4f9326fec7210295f7b527d2ea537a4d42830410abf4340731bf9b20e54972001933b9aa23536c53ae"
    }
  ],
  "extractedTransaction": "020000000001045c797b259b82722b84ec062ace7606c0092d4c6d711eb4b77567be13b470c6af00000000fdfe0000483045022100e0e1ba72052b3f3c4b193b1f21aff66e8bfb821131f9b7680bea781ca6d637430220285ca143f06cd4e32aeac9bff16ef92abb95df0b08649709266686ad4b180d7641483045022100dd4c0b374aca63840594e44c995835b3630eae3f6111d3eea5faecb49f2e40540220384f3653dce80d9dc2879d508dce3f1ccc8d19b19153737bb23a274941c422d4414c69522103f6f40764bd5d63f200a2778883acf75e96f15095c998263c087270d0c97e7e7f21035ffb7abc70159e0469f4b989a6d5e1785a2904169ff050b2f468fe5d3d5dbbf22103e1524d7f6fc57ab3eacbb659b787106780a475d1db483952c2310b7e9a38975b53aeffffffff30e7b080f3ea1343910e2fa15f59bece2554cf30a923d33bc28f1ebfba0b6b49010000002322002046d4800a1393330196085399ed4a1700b4c2fd38c52188c3a3a91f721f3c9600ffffffffd401d0f1eea15d1052175ba6b0023dec9ed3d5d4e3cb5adcaa546fe7cffacc890200000000ffffffff144c6838538031957589d9ab76deae92b01fe63568dabf1a64293e69f25a7941030000006d483045022100d9fc432b5d223325c038441974d75517582a9f0e8ba10d3188b2092e97c7624e0220028e3307eb02b1916c1a0089ea6ff1a255e6d2bd0eab2c994dfb433d6eea43964123210336ef228ffe9b8efffba052c32d334660dd1f8366cf8fe44ae5aa672b6b629095acffffffff03840300000000000017a914d909474404c124a3d04c3fbff61faa49cf43c58b87840300000000000017a914054127121d37f32266cd967c485404976a67adf0878403000000000000220020ba48e3f9874463943f90192a45f1ae895b779362a7629af7ad6a9d7a835e3d4f00040047304402206eb6a084505d7badc1afef554e859c65df31ad5b7bdbc62a14943d5b4f95307102200cba48e9c5676562ab30d73094448a0eb35eee73bfac5311140cd944332dca9b41483045022100c3ae94dbb976bcd38566308b4d9350da86ebe044c610b36b913f6476524568cd022044dfd32108f0afe46a63384f42a4990ba73b9ebaddd88801daf3e3ebd83e223c4169522102a585f3fab49b5ef95346d932221a221bd55ec191f15533e0f270b3582574f0352102c4f7866cfd5996bc1068a96313ca15e9ccb5e984583a07340dddae7af014605b2102234531bc9119a36a7946e95aeb74915dd087c7b44f517b8eeeb73f89a0ff1a9953ae0400483045022100f8cc6761ff5f70b95b4bb6e50f087be6e3899794b93048f08078c7bce89d5834022011cbeb43e5bd55fc96b39be2bc46112ecd6080fd6f148153dea1dc9cb8dcc5ea41473044022071c4e85d66d2ea91d771458924e674b4ca40f6dc804a31db86d80d51eefc46c5022029bb9741909af81f3205edf62c51342ba3c4444907b78f56fac41155ead0cf3b4169522103519e572ab468560d1f8d0f87699d098308e166905f5dcae4390f060faa8f1ce32103a05bc26391221d685e18daaff36a1e95c34f99451253c16cd42650db278a79112102e80a08885c353676b820cdc290e6d81a0ac95a03e8abbf4bb7aeebfb70feb41853ae0000000000"
}
