{
  "walletKeys": [
    "xprv9s21ZrQH143K45bDYc9c3aEaGiTK9aPtjgtHg6wBdkryBjix1KKXRCszxPcFPejLT9tdLgNe8E8AuQXK2fy8KhNPeLAZsGoX8w9KS2PkacL",
    "xprv9s21ZrQH143K2eBLSVNk4zhjDzqzqM29aS9cjr4CcoNrKLYwLHtwgTURSk7RPV3cH9zNZQeR1zGw3MEwSjvARSfWEGpxfaBmduhW3TKsH5g",
    "xprv9s21ZrQH143K39N9shF9hAsTwh1FvQuBk8UVsZVwr4XtpqF7stCu2LH358NLuqkkK6pu1Af7TJHr5FZERQoLLtnC7wkoM9sdFo1HuP7dWuv"
  ],
  "psbtBase64": "cHNidP8BAP1zAQEAAAAEfM4S7/wupWTEInMz/TBUR+DeezrnpfzHUe//8+oTd+EAAAAAAP////+5x7KI/Wqg0UFZluKl2tmk4HDBKeF5J39T4y9gLxgGRgEAAAAA/////x9X2VYK6QcWALaWUzGS3Bd5kWT9P6EoBKf360IBxNXdAgAAAAD/////s+R4ljpxQ/cE8YzkwP7OMzyDM5Yy5wvdhjrCqJkVAmwDAAAAAP////8GhAMAAAAAAAAXqRTZCUdEBMEko9BMP7/2H6pJz0PFi4eEAwAAAAAAABepFAVBJxIdN/MiZs2WfEhUBJdqZ63wh4QDAAAAAAAAIgAgukjj+YdEY5Q/kBkqRfGuiVt3k2KnYpr3rWqdeoNePU+EAwAAAAAAABepFPxkGJFgS95wVikwC26N5fZ905Jih4QDAAAAAAAAF6kU9s9lApZzz5LgsOaQjFq5B5Uxai2HhAMAAAAAAAARag9zZXRlYyBhc3Ryb25vbXkAAAAATwEEiLIeAAAAAAAAAAAAOpIuKfDI6w2ypgSEy9y2MfaxB8nKrj/9zz59LsH2vNADEhSHFfNh2raFpmnUJDHl1tP5c0BNq5yf0blQsnmtdjQEzBiuCE8BBIiyHgAAAAAAAAAAAG0dZW093ZHBlMBFZaNgNwKiEBbO0UomXziYLWJ15ntkA9O6wjE6fGshy7EbFLDRA0H5IsCkA6i9jIfw3IIPNa9uBPZc2GlPAQSIsh4AAAAAAAAAAADLBP1jqzTZD+ZGa4gOKgLM+KhjN0MSmRr4kRsaqrRDNAM27yKP/puO//ugUsMtM0Zg3R+DZs+P5Erlqmcra2KQlQTy7wOJAAEBINAHAAAAAAAAF6kUVnzXtE+fOgfDE483v5hLYPu68kOHIgID4VJNf2/FerPqy7ZZt4cQZ4CkddHbSDlSwjELfpo4l1tIMEUCIQD37GvxTX41CUKFJfp3/SrVdktAXekMwN6WqP9nyjBm0AIgJcsiayK4ApU777UkbjygTeJZe+9XZtC0lSYnD4Iyu5QBIgID9vQHZL1dY/IAoneIg6z3XpbxUJXJmCY8CHJw0Ml+fn9HMEQCIDRRyk2jNgqUeJluM+sH6RaHMUrSf4o8CUH/MXBY76yAAiBqMplXDLJTgSZiThxLZyMIumpKb+Qz41c/1cJs5NN3YgEBAwQBAAAAAQRpUiED9vQHZL1dY/IAoneIg6z3XpbxUJXJmCY8CHJw0Ml+fn8hA1/7erxwFZ4EafS5iabV4XhaKQQWn/BQsvRo/l09XbvyIQPhUk1/b8V6s+rLtlm3hxBngKR10dtIOVLCMQt+mjiXW1OuIgYDX/t6vHAVngRp9LmJptXheFopBBaf8FCy9Gj+XT1du/IUzBiuCAAAAAAAAAAAAQAAAAAAAAAiBgPhUk1/b8V6s+rLtlm3hxBngKR10dtIOVLCMQt+mjiXWxT2XNhpAAAAAAAAAAABAAAAAAAAACIGA/b0B2S9XWPyAKJ3iIOs916W8VCVyZgmPAhycNDJfn5/FPLvA4kAAAAAAAAAAAEAAAAAAAAAAAEBINAHAAAAAAAAF6kUDiayXQzq5vnP8+2syqDRpw2nYA+HIgICI0UxvJEZo2p5Rula63SRXdCHx7RPUXuO7rc/iaD/GplIMEUCIQCTn1zlQY/a7p4x2Maf3Mrfya9iKb/WYPhgTA/SsTtU6AIgJmubRmzR/S32AFYlZKcW+qjdT5S/idkPo/mXlI7V6RkBIgICpYXz+rSbXvlTRtkyIhoiG9VewZHxVTPg8nCzWCV08DVIMEUCIQD5FdWA9xEwgbdFtNbuKESyE4i7AQLNAT0lyCPOkoDB5wIgH/a0dB1KxPNz/JUlsWol5CAzP/0ptzb5KVrfwIUF+NwBAQMEAQAAAAEEIgAgRtSAChOTMwGWCFOZ7UoXALTC/TjFIYjDo6kfch88lgABBWlSIQKlhfP6tJte+VNG2TIiGiIb1V7BkfFVM+DycLNYJXTwNSECxPeGbP1ZlrwQaKljE8oV6cy16YRYOgc0Dd2uevAUYFshAiNFMbyRGaNqeUbpWut0kV3Qh8e0T1F7ju63P4mg/xqZU64iBgIjRTG8kRmjanlG6VrrdJFd0IfHtE9Re47utz+JoP8amRT2XNhpAAAAAAAAAAALAAAAAQAAACIGAqWF8/q0m175U0bZMiIaIhvVXsGR8VUz4PJws1gldPA1FPLvA4kAAAAAAAAAAAsAAAABAAAAIgYCxPeGbP1ZlrwQaKljE8oV6cy16YRYOgc0Dd2uevAUYFsUzBiuCAAAAAAAAAAACwAAAAEAAAAAAQEr0AcAAAAAAAAiACDbBCfxgitHd2cOZnPCivAvbaHVr+cacfXJBkRwsin6/SICAugKCIhcNTZ2uCDNwpDm2BoKyVoD6Ku/S7eu6/tw/rQYRzBEAiAlyW0NvaEFS6pYR8TNFDvPmsqRWqKKjPoIFlF75SksrQIgFiXqCqsXCZaJPRTthZmVEzKXlvvQ+ni3PYytofmHczABIgIDUZ5XKrRoVg0fjQ+HaZ0JgwjhZpBfXcrkOQ8GD6qPHONIMEUCIQCfcvrNaHTGV1eVF2/ldepIA+mPt3mGnoemZsehcdRHCQIgLHzvRGM5z/V8FX7CdOOs74zYEx9Jj2UbMTVtppC2uCYBAQMEAQAAAAEFaVIhA1GeVyq0aFYNH40Ph2mdCYMI4WaQX13K5DkPBg+qjxzjIQOgW8JjkSIdaF4Y2q/zah6Vw0+ZRRJTwWzUJlDbJ4p5ESEC6AoIiFw1Nna4IM3CkObYGgrJWgPoq79Lt67r+3D+tBhTriIGAugKCIhcNTZ2uCDNwpDm2BoKyVoD6Ku/S7eu6/tw/rQYFPZc2GkAAAAAAAAAABUAAAACAAAAIgYDUZ5XKrRoVg0fjQ+HaZ0JgwjhZpBfXcrkOQ8GD6qPHOMU8u8DiQAAAAAAAAAAFQAAAAIAAAAiBgOgW8JjkSIdaF4Y2q/zah6Vw0+ZRRJTwWzUJlDbJ4p5ERTMGK4IAAAAAAAAAAAVAAAAAgAAAAABASDQBwAAAAAAABepFCCzcJTYKlE0Uf8MzZ2yOroFvF7zhyICAzbvIo/+m47/+6BSwy0zRmDdH4Nmz4/kSuWqZytrYpCVSDBFAiEA/dXj3DDMcYf9GW9UzcyLm8leCT1cLioSyPTEI/LmeXcCIAFz9Ur2sYR405qh1vQpltIVqVackc6AMPRrOYVe4blPAQEDBAEAAAABBCMhAzbvIo/+m47/+6BSwy0zRmDdH4Nmz4/kSuWqZytrYpCVrAABAGlSIQLMTQ+kEcrCREhvjrLAjgNf90EPRgo1nKf4gQmRvTtCCSEC1y/Q0NkCk0NK1fyhYPJ44DxhRJeqTkJc9FTiwTMPlqshA0TYhBNt9VAgKGX/vGIYx/nIj+bOOclFeYGQuts4p1LxU64iAgLMTQ+kEcrCREhvjrLAjgNf90EPRgo1nKf4gQmRvTtCCRTy7wOJAAAAAAAAAAAAAAAAAAAAACICAtcv0NDZApNDStX8oWDyeOA8YUSXqk5CXPRU4sEzD5arFMwYrggAAAAAAAAAAAAAAAAAAAAAIgIDRNiEE231UCAoZf+8YhjH+ciP5s45yUV5gZC62zinUvEU9lzYaQAAAAAAAAAAAAAAAAAAAAAAAQAiACApKwUjUaPG+A1RuuZCzIghGCiT2+7avI9dDpZ3R2AmwQEBaVIhAy4R+YVSaF/pB/MfnnJgyQbo3nAPDDyfLxQQYj3N/RnAIQNUV1fONc8e37E7nixKL5zgCrjDa+4SvKIzfOWD/SiuyCECo8+2Zl/kT3UgtqG03hpNRmQ7OF6x/R4Ktw77llQpdVRTriICAqPPtmZf5E91ILahtN4aTUZkOzhesf0eCrcO+5ZUKXVUFPZc2GkAAAAAAAAAAAoAAAABAAAAIgIDLhH5hVJoX+kH8x+ecmDJBujecA8MPJ8vFBBiPc39GcAU8u8DiQAAAAAAAAAACgAAAAEAAAAiAgNUV1fONc8e37E7nixKL5zgCrjDa+4SvKIzfOWD/SiuyBTMGK4IAAAAAAAAAAAKAAAAAQAAAAABAWlSIQLW0RQL0sD5FMswyZKqL80oP0cakoHO7J7GxbxEjmhpACEDuFWodY7aaGNkhEWp08+5U4isoXRiGtmPCZocT5Mm/schApX3tSfS6lN6TUKDBBCr9DQHMb+bIOVJcgAZM7mqI1NsU64iAgKV97Un0upTek1CgwQQq/Q0BzG/myDlSXIAGTO5qiNTbBT2XNhpAAAAAAAAAAAUAAAAAgAAACICAtbRFAvSwPkUyzDJkqovzSg/RxqSgc7snsbFvESOaGkAFPLvA4kAAAAAAAAAABQAAAACAAAAIgIDuFWodY7aaGNkhEWp08+5U4isoXRiGtmPCZocT5Mm/scUzBiuCAAAAAAAAAAAFAAAAAIAAAAAAQBpUiECdbejY/UqOIeAZkDzZjd2RYkHLhdta2qH18dUEHV2TKUhAky4n24/yOOAvOAMan4WJPTA7lzwdjSLXXJFnXm3jpUMIQNMWXTA3uuOhsisj2z6Uh3YPUhNP5EAz+4NavXtFCAoulOuIgICTLifbj/I44C84AxqfhYk9MDuXPB2NItdckWdebeOlQwU1K2DcgAAAAAAAAAAAAAAAAMAAAAiAgJ1t6Nj9So4h4BmQPNmN3ZFiQcuF21raofXx1QQdXZMpRRUf0V2AAAAAAAAAAAAAAAAAwAAACICA0xZdMDe646GyKyPbPpSHdg9SE0/kQDP7g1q9e0UICi6FEBcZb0AAAAAAAAAAAAAAAADAAAAAAAA",
  "psbtBase64Finalized": "cHNidP8BAP1zAQEAAAAEfM4S7/wupWTEInMz/TBUR+DeezrnpfzHUe//8+oTd+EAAAAAAP////+5x7KI/Wqg0UFZluKl2tmk4HDBKeF5J39T4y9gLxgGRgEAAAAA/////x9X2VYK6QcWALaWUzGS3Bd5kWT9P6EoBKf360IBxNXdAgAAAAD/////s+R4ljpxQ/cE8YzkwP7OMzyDM5Yy5wvdhjrCqJkVAmwDAAAAAP////8GhAMAAAAAAAAXqRTZCUdEBMEko9BMP7/2H6pJz0PFi4eEAwAAAAAAABepFAVBJxIdN/MiZs2WfEhUBJdqZ63wh4QDAAAAAAAAIgAgukjj+YdEY5Q/kBkqRfGuiVt3k2KnYpr3rWqdeoNePU+EAwAAAAAAABepFPxkGJFgS95wVikwC26N5fZ905Jih4QDAAAAAAAAF6kU9s9lApZzz5LgsOaQjFq5B5Uxai2HhAMAAAAAAAARag9zZXRlYyBhc3Ryb25vbXkAAAAATwEEiLIeAAAAAAAAAAAAOpIuKfDI6w2ypgSEy9y2MfaxB8nKrj/9zz59LsH2vNADEhSHFfNh2raFpmnUJDHl1tP5c0BNq5yf0blQsnmtdjQEzBiuCE8BBIiyHgAAAAAAAAAAAG0dZW093ZHBlMBFZaNgNwKiEBbO0UomXziYLWJ15ntkA9O6wjE6fGshy7EbFLDRA0H5IsCkA6i9jIfw3IIPNa9uBPZc2GlPAQSIsh4AAAAAAAAAAADLBP1jqzTZD+ZGa4gOKgLM+KhjN0MSmRr4kRsaqrRDNAM27yKP/puO//ugUsMtM0Zg3R+DZs+P5Erlqmcra2KQlQTy7wOJAAEBINAHAAAAAAAAF6kUVnzXtE+fOgfDE483v5hLYPu68kOHAQf9/QAARzBEAiA0UcpNozYKlHiZbjPrB+kWhzFK0n+KPAlB/zFwWO+sgAIgajKZVwyyU4EmYk4cS2cjCLpqSm/kM+NXP9XCbOTTd2IBSDBFAiEA9+xr8U1+NQlChSX6d/0q1XZLQF3pDMDelqj/Z8owZtACICXLImsiuAKVO++1JG48oE3iWXvvV2bQtJUmJw+CMruUAUxpUiED9vQHZL1dY/IAoneIg6z3XpbxUJXJmCY8CHJw0Ml+fn8hA1/7erxwFZ4EafS5iabV4XhaKQQWn/BQsvRo/l09XbvyIQPhUk1/b8V6s+rLtlm3hxBngKR10dtIOVLCMQt+mjiXW1OuAAEBINAHAAAAAAAAF6kUDiayXQzq5vnP8+2syqDRpw2nYA+HAQcjIgAgRtSAChOTMwGWCFOZ7UoXALTC/TjFIYjDo6kfch88lgABCP3+AAQASDBFAiEA+RXVgPcRMIG3RbTW7ihEshOIuwECzQE9JcgjzpKAwecCIB/2tHQdSsTzc/yVJbFqJeQgMz/9Kbc2+Sla38CFBfjcAUgwRQIhAJOfXOVBj9runjHYxp/cyt/Jr2Ipv9Zg+GBMD9KxO1ToAiAma5tGbNH9LfYAViVkpxb6qN1PlL+J2Q+j+ZeUjtXpGQFpUiECpYXz+rSbXvlTRtkyIhoiG9VewZHxVTPg8nCzWCV08DUhAsT3hmz9WZa8EGipYxPKFenMtemEWDoHNA3drnrwFGBbIQIjRTG8kRmjanlG6VrrdJFd0IfHtE9Re47utz+JoP8amVOuAAEBK9AHAAAAAAAAIgAg2wQn8YIrR3dnDmZzworwL22h1a/nGnH1yQZEcLIp+v0BCP39AAQASDBFAiEAn3L6zWh0xldXlRdv5XXqSAPpj7d5hp6HpmbHoXHURwkCICx870RjOc/1fBV+wnTjrO+M2BMfSY9lGzE1baaQtrgmAUcwRAIgJcltDb2hBUuqWEfEzRQ7z5rKkVqiioz6CBZRe+UpLK0CIBYl6gqrFwmWiT0U7YWZlRMyl5b70Pp4tz2MraH5h3MwAWlSIQNRnlcqtGhWDR+ND4dpnQmDCOFmkF9dyuQ5DwYPqo8c4yEDoFvCY5EiHWheGNqv82oelcNPmUUSU8Fs1CZQ2yeKeREhAugKCIhcNTZ2uCDNwpDm2BoKyVoD6Ku/S7eu6/tw/rQYU64AAQEg0AcAAAAAAAAXqRQgs3CU2CpRNFH/DM2dsjq6Bbxe84cBB21IMEUCIQD91ePcMMxxh/0Zb1TNzIubyV4JPVwuKhLI9MQj8uZ5dwIgAXP1SvaxhHjTmqHW9CmW0hWpVpyRzoAw9Gs5hV7huU8BIyEDNu8ij/6bjv/7oFLDLTNGYN0fg2bPj+RK5apnK2tikJWsAAEAaVIhAsxND6QRysJESG+OssCOA1/3QQ9GCjWcp/iBCZG9O0IJIQLXL9DQ2QKTQ0rV/KFg8njgPGFEl6pOQlz0VOLBMw+WqyEDRNiEE231UCAoZf+8YhjH+ciP5s45yUV5gZC62zinUvFTriICAsxND6QRysJESG+OssCOA1/3QQ9GCjWcp/iBCZG9O0IJFPLvA4kAAAAAAAAAAAAAAAAAAAAAIgIC1y/Q0NkCk0NK1fyhYPJ44DxhRJeqTkJc9FTiwTMPlqsUzBiuCAAAAAAAAAAAAAAAAAAAAAAiAgNE2IQTbfVQIChl/7xiGMf5yI/mzjnJRXmBkLrbOKdS8RT2XNhpAAAAAAAAAAAAAAAAAAAAAAABACIAICkrBSNRo8b4DVG65kLMiCEYKJPb7tq8j10OlndHYCbBAQFpUiEDLhH5hVJoX+kH8x+ecmDJBujecA8MPJ8vFBBiPc39GcAhA1RXV841zx7fsTueLEovnOAKuMNr7hK8ojN85YP9KK7IIQKjz7ZmX+RPdSC2obTeGk1GZDs4XrH9Hgq3DvuWVCl1VFOuIgICo8+2Zl/kT3UgtqG03hpNRmQ7OF6x/R4Ktw77llQpdVQU9lzYaQAAAAAAAAAACgAAAAEAAAAiAgMuEfmFUmhf6QfzH55yYMkG6N5wDww8ny8UEGI9zf0ZwBTy7wOJAAAAAAAAAAAKAAAAAQAAACICA1RXV841zx7fsTueLEovnOAKuMNr7hK8ojN85YP9KK7IFMwYrggAAAAAAAAAAAoAAAABAAAAAAEBaVIhAtbRFAvSwPkUyzDJkqovzSg/RxqSgc7snsbFvESOaGkAIQO4Vah1jtpoY2SERanTz7lTiKyhdGIa2Y8JmhxPkyb+xyEClfe1J9LqU3pNQoMEEKv0NAcxv5sg5UlyABkzuaojU2xTriICApX3tSfS6lN6TUKDBBCr9DQHMb+bIOVJcgAZM7mqI1NsFPZc2GkAAAAAAAAAABQAAAACAAAAIgIC1tEUC9LA+RTLMMmSqi/NKD9HGpKBzuyexsW8RI5oaQAU8u8DiQAAAAAAAAAAFAAAAAIAAAAiAgO4Vah1jtpoY2SERanTz7lTiKyhdGIa2Y8JmhxPkyb+xxTMGK4IAAAAAAAAAAAUAAAAAgAAAAABAGlSIQJ1t6Nj9So4h4BmQPNmN3ZFiQcuF21raofXx1QQdXZMpSECTLifbj/I44C84AxqfhYk9MDuXPB2NItdckWdebeOlQwhA0xZdMDe646GyKyPbPpSHdg9SE0/kQDP7g1q9e0UICi6U64iAgJMuJ9uP8jjgLzgDGp+FiT0wO5c8HY0i11yRZ15t46VDBTUrYNyAAAAAAAAAAAAAAAAAwAAACICAnW3o2P1KjiHgGZA82Y3dkWJBy4XbWtqh9fHVBB1dkylFFR/RXYAAAAAAAAAAAAAAAADAAAAIgIDTFl0wN7rjobIrI9s+lId2D1ITT+RAM/uDWr17RQgKLoUQFxlvQAAAAAAAAAAAAAAAAMAAAAAAAA=",
  "inputs": [
    {
      "hash": "7cce12effc2ea564c4227333fd305447e0de7b3ae7a5fcc751effff3ea1377e1",
      "index": 0,
      "sequence": 4294967295
    },
    {
      "hash": "b9c7b288fd6aa0d1415996e2a5dad9a4e070c129e179277f53e32f602f180646",
      "index": 1,
      "sequence": 4294967295
    },
    {
      "hash": "1f57d9560ae9071600b696533192dc17799164fd3fa12804a7f7eb4201c4d5dd",
      "index": 2,
      "sequence": 4294967295
    },
    {
      "hash": "b3e478963a7143f704f18ce4c0fece333c83339632e70bdd863ac2a89915026c",
      "index": 3,
      "sequence": 4294967295
    }
  ],
  "psbtInputs": [
    {
      "type": "p2sh",
      "partialSig": [
        {
          "pubkey": "03e1524d7f6fc57ab3eacbb659b787106780a475d1db483952c2310b7e9a38975b",
          "signature": "3045022100f7ec6bf14d7e3509428525fa77fd2ad5764b405de90cc0de96a8ff67ca3066d0022025cb226b22b802953befb5246e3ca04de2597bef5766d0b49526270f8232bb9401"
        },
        {
          "pubkey": "03f6f40764bd5d63f200a2778883acf75e96f15095c998263c087270d0c97e7e7f",
          "signature": "304402203451ca4da3360a9478996e33eb07e91687314ad27f8a3c0941ff317058efac8002206a3299570cb2538126624e1c4b672308ba6a4a6fe433e3573fd5c26ce4d3776201"
        }
      ],
      "sighashType": 1,
      "redeemScript": "522103f6f40764bd5d63f200a2778883acf75e96f15095c998263c087270d0c97e7e7f21035ffb7abc70159e0469f4b989a6d5e1785a2904169ff050b2f468fe5d3d5dbbf22103e1524d7f6fc57ab3eacbb659b787106780a475d1db483952c2310b7e9a38975b53ae",
      "bip32Derivation": [
        {
          "masterFingerprint": "cc18ae08",
          "pubkey": "035ffb7abc70159e0469f4b989a6d5e1785a2904169ff050b2f468fe5d3d5dbbf2",
          "path": "0/0/1/0"
        },
        {
          "masterFingerprint": "f65cd869",
          "pubkey": "03e1524d7f6fc57ab3eacbb659b787106780a475d1db483952c2310b7e9a38975b",
          "path": "0/0/1/0"
        },
        {
          "masterFingerprint": "f2ef0389",
          "pubkey": "03f6f40764bd5d63f200a2778883acf75e96f15095c998263c087270d0c97e7e7f",
          "path": "0/0/1/0"
        }
      ],
      "witnessUtxo": {
        "value": "2000",
        "script": "a914567cd7b44f9f3a07c3138f37bf984b60fbbaf24387"
      }
    },
    {
      "type": "p2shP2wsh",
      "witnessUtxo": {
        "script": "a9140e26b25d0ceae6f9cff3edaccaa0d1a70da7600f87",
        "value": "2000"
      },
      "partialSig": [
        {
          "pubkey": "02234531bc9119a36a7946e95aeb74915dd087c7b44f517b8eeeb73f89a0ff1a99",
          "signature": "3045022100939f5ce5418fdaee9e31d8c69fdccadfc9af6229bfd660f8604c0fd2b13b54e80220266b9b466cd1fd2df600562564a716faa8dd4f94bf89d90fa3f997948ed5e91901"
        },
        {
          "pubkey": "02a585f3fab49b5ef95346d932221a221bd55ec191f15533e0f270b3582574f035",
          "signature": "3045022100f915d580f7113081b745b4d6ee2844b21388bb0102cd013d25c823ce9280c1e702201ff6b4741d4ac4f373fc9525b16a25e420333ffd29b736f9295adfc08505f8dc01"
        }
      ],
      "sighashType": 1,
      "redeemScript": "002046d4800a1393330196085399ed4a1700b4c2fd38c52188c3a3a91f721f3c9600",
      "witnessScript": "522102a585f3fab49b5ef95346d932221a221bd55ec191f15533e0f270b3582574f0352102c4f7866cfd5996bc1068a96313ca15e9ccb5e984583a07340dddae7af014605b2102234531bc9119a36a7946e95aeb74915dd087c7b44f517b8eeeb73f89a0ff1a9953ae",
      "bip32Derivation": [
        {
          "masterFingerprint": "f65cd869",
          "pubkey": "02234531bc9119a36a7946e95aeb74915dd087c7b44f517b8eeeb73f89a0ff1a99",
          "path": "0/0/11/1"
        },
        {
          "masterFingerprint": "f2ef0389",
          "pubkey": "02a585f3fab49b5ef95346d932221a221bd55ec191f15533e0f270b3582574f035",
          "path": "0/0/11/1"
        },
        {
          "masterFingerprint": "cc18ae08",
          "pubkey": "02c4f7866cfd5996bc1068a96313ca15e9ccb5e984583a07340dddae7af014605b",
          "path": "0/0/11/1"
        }
      ]
    },
    {
      "type": "p2wsh",
      "witnessUtxo": {
        "script": "0020db0427f1822b4777670e6673c28af02f6da1d5afe71a71f5c9064470b229fafd",
        "value": "2000"
      },
      "partialSig": [
        {
          "pubkey": "02e80a08885c353676b820cdc290e6d81a0ac95a03e8abbf4bb7aeebfb70feb418",
          "signature": "3044022025c96d0dbda1054baa5847c4cd143bcf9aca915aa28a8cfa0816517be5292cad02201625ea0aab170996893d14ed85999513329796fbd0fa78b73d8cada1f987733001"
        },
        {
          "pubkey": "03519e572ab468560d1f8d0f87699d098308e166905f5dcae4390f060faa8f1ce3",
          "signature": "30450221009f72facd6874c6575795176fe575ea4803e98fb779869e87a666c7a171d4470902202c7cef446339cff57c157ec274e3acef8cd8131f498f651b31356da690b6b82601"
        }
      ],
      "sighashType": 1,
      "witnessScript": "522103519e572ab468560d1f8d0f87699d098308e166905f5dcae4390f060faa8f1ce32103a05bc26391221d685e18daaff36a1e95c34f99451253c16cd42650db278a79112102e80a08885c353676b820cdc290e6d81a0ac95a03e8abbf4bb7aeebfb70feb41853ae",
      "bip32Derivation": [
        {
          "masterFingerprint": "f65cd869",
          "pubkey": "02e80a08885c353676b820cdc290e6d81a0ac95a03e8abbf4bb7aeebfb70feb418",
          "path": "0/0/21/2"
        },
        {
          "masterFingerprint": "f2ef0389",
          "pubkey": "03519e572ab468560d1f8d0f87699d098308e166905f5dcae4390f060faa8f1ce3",
          "path": "0/0/21/2"
        },
        {
          "masterFingerprint": "cc18ae08",
          "pubkey": "03a05bc26391221d685e18daaff36a1e95c34f99451253c16cd42650db278a7911",
          "path": "0/0/21/2"
        }
      ]
    },
    {
      "type": "p2shP2pk",
      "partialSig": [
        {
          "pubkey": "0336ef228ffe9b8efffba052c32d334660dd1f8366cf8fe44ae5aa672b6b629095",
          "signature": "3045022100fdd5e3dc30cc7187fd196f54cdcc8b9bc95e093d5c2e2a12c8f4c423f2e6797702200173f54af6b18478d39aa1d6f42996d215a9569c91ce8030f46b39855ee1b94f01"
        }
      ],
      "sighashType": 1,
      "redeemScript": "210336ef228ffe9b8efffba052c32d334660dd1f8366cf8fe44ae5aa672b6b629095ac",
      "witnessUtxo": {
        "value": "2000",
        "script": "a91420b37094d82a513451ff0ccd9db23aba05bc5ef387"
      }
    }
  ],
  "psbtInputsFinalized": [
    {
      "type": "p2sh",
      "witnessUtxo": {
        "script": "a914567cd7b44f9f3a07c3138f37bf984b60fbbaf24387",
        "value": "2000"
      },
      "finalScriptSig": "0047304402203451ca4da3360a9478996e33eb07e91687314ad27f8a3c0941ff317058efac8002206a3299570cb2538126624e1c4b672308ba6a4a6fe433e3573fd5c26ce4d3776201483045022100f7ec6bf14d7e3509428525fa77fd2ad5764b405de90cc0de96a8ff67ca3066d0022025cb226b22b802953befb5246e3ca04de2597bef5766d0b49526270f8232bb94014c69522103f6f40764bd5d63f200a2778883acf75e96f15095c998263c087270d0c97e7e7f21035ffb7abc70159e0469f4b989a6d5e1785a2904169ff050b2f468fe5d3d5dbbf22103e1524d7f6fc57ab3eacbb659b787106780a475d1db483952c2310b7e9a38975b53ae"
    },
    {
      "type": "p2shP2wsh",
      "witnessUtxo": {
        "script": "a9140e26b25d0ceae6f9cff3edaccaa0d1a70da7600f87",
        "value": "2000"
      },
      "finalScriptSig": "22002046d4800a1393330196085399ed4a1700b4c2fd38c52188c3a3a91f721f3c9600",
      "finalScriptWitness": "0400483045022100f915d580f7113081b745b4d6ee2844b21388bb0102cd013d25c823ce9280c1e702201ff6b4741d4ac4f373fc9525b16a25e420333ffd29b736f9295adfc08505f8dc01483045022100939f5ce5418fdaee9e31d8c69fdccadfc9af6229bfd660f8604c0fd2b13b54e80220266b9b466cd1fd2df600562564a716faa8dd4f94bf89d90fa3f997948ed5e9190169522102a585f3fab49b5ef95346d932221a221bd55ec191f15533e0f270b3582574f0352102c4f7866cfd5996bc1068a96313ca15e9ccb5e984583a07340dddae7af014605b2102234531bc9119a36a7946e95aeb74915dd087c7b44f517b8eeeb73f89a0ff1a9953ae"
    },
    {
      "type": "p2wsh",
      "witnessUtxo": {
        "script": "0020db0427f1822b4777670e6673c28af02f6da1d5afe71a71f5c9064470b229fafd",
        "value": "2000"
      },
      "finalScriptWitness": "04004830450221009f72facd6874c6575795176fe575ea4803e98fb779869e87a666c7a171d4470902202c7cef446339cff57c157ec274e3acef8cd8131f498f651b31356da690b6b82601473044022025c96d0dbda1054baa5847c4cd143bcf9aca915aa28a8cfa0816517be5292cad02201625ea0aab170996893d14ed85999513329796fbd0fa78b73d8cada1f98773300169522103519e572ab468560d1f8d0f87699d098308e166905f5dcae4390f060faa8f1ce32103a05bc26391221d685e18daaff36a1e95c34f99451253c16cd42650db278a79112102e80a08885c353676b820cdc290e6d81a0ac95a03e8abbf4bb7aeebfb70feb41853ae"
    },
    {
      "type": "p2shP2pk",
      "witnessUtxo": {
        "script": "a91420b37094d82a513451ff0ccd9db23aba05bc5ef387",
        "value": "2000"
      },
      "finalScriptSig": "483045022100fdd5e3dc30cc7187fd196f54cdcc8b9bc95e093d5c2e2a12c8f4c423f2e6797702200173f54af6b18478d39aa1d6f42996d215a9569c91ce8030f46b39855ee1b94f0123210336ef228ffe9b8efffba052c32d334660dd1f8366cf8fe44ae5aa672b6b629095ac"
    }
  ],
  "outputs": [
    {
      "script": "a914d909474404c124a3d04c3fbff61faa49cf43c58b87",
      "value": "900",
      "address": "MTgjyjL9bKy6ovKVFZ7uEbUM47htkbjGDc"
    },
    {
      "script": "a914054127121d37f32266cd967c485404976a67adf087",
      "value": "900",
      "address": "M8NwfGmnQ96H3MBiqyBekVUmBRguvnNQEi"
    },
    {
      "script": "0020ba48e3f9874463943f90192a45f1ae895b779362a7629af7ad6a9d7a835e3d4f",
      "value": "900",
      "address": "ltc1qhfyw87v8g33eg0usry4ytudw39dh0ymz5a3f4aadd2wh4q67848sre2yue"
    },
    {
      "script": "a914fc641891604bde705629300b6e8de5f67dd3926287",
      "value": "900",
      "address": "MWugRZWK8Mao4DwtqA312jBBfsvGEb56pq"
    },
    {
      "script": "a914f6cf65029673cf92e0b0e6908c5ab90795316a2d87",
      "value": "900",
      "address": "MWQAueXh12YixXmPbCftY28hxKvxVrJbZK"
    },
    {
      "script": "6a0f736574656320617374726f6e6f6d79",
      "value": "900"
    }
  ],
  "psbtOutputs": [
    {
      "redeemScript": "522102cc4d0fa411cac244486f8eb2c08e035ff7410f460a359ca7f8810991bd3b42092102d72fd0d0d90293434ad5fca160f278e03c614497aa4e425cf454e2c1330f96ab210344d884136df550202865ffbc6218c7f9c88fe6ce39c945798190badb38a752f153ae",
      "bip32Derivation": [
        {
          "masterFingerprint": "f2ef0389",
          "pubkey": "02cc4d0fa411cac244486f8eb2c08e035ff7410f460a359ca7f8810991bd3b4209",
          "path": "0/0/0/0"
        },
        {
          "masterFingerprint": "cc18ae08",
          "pubkey": "02d72fd0d0d90293434ad5fca160f278e03c614497aa4e425cf454e2c1330f96ab",
          "path": "0/0/0/0"
        },
        {
          "masterFingerprint": "f65cd869",
          "pubkey": "0344d884136df550202865ffbc6218c7f9c88fe6ce39c945798190badb38a752f1",
          "path": "0/0/0/0"
        }
      ]
    },
    {
      "redeemScript": "0020292b052351a3c6f80d51bae642cc8821182893dbeedabc8f5d0e9677476026c1",
      "witnessScript": "5221032e11f98552685fe907f31f9e7260c906e8de700f0c3c9f2f1410623dcdfd19c02103545757ce35cf1edfb13b9e2c4a2f9ce00ab8c36bee12bca2337ce583fd28aec82102a3cfb6665fe44f7520b6a1b4de1a4d46643b385eb1fd1e0ab70efb965429755453ae",
      "bip32Derivation": [
        {
          "masterFingerprint": "f65cd869",
          "pubkey": "02a3cfb6665fe44f7520b6a1b4de1a4d46643b385eb1fd1e0ab70efb9654297554",
          "path": "0/0/10/1"
        },
        {
          "masterFingerprint": "f2ef0389",
          "pubkey": "032e11f98552685fe907f31f9e7260c906e8de700f0c3c9f2f1410623dcdfd19c0",
          "path": "0/0/10/1"
        },
        {
          "masterFingerprint": "cc18ae08",
          "pubkey": "03545757ce35cf1edfb13b9e2c4a2f9ce00ab8c36bee12bca2337ce583fd28aec8",
          "path": "0/0/10/1"
        }
      ]
    },
    {
      "witnessScript": "522102d6d1140bd2c0f914cb30c992aa2fcd283f471a9281ceec9ec6c5bc448e6869002103b855a8758eda6863648445a9d3cfb95388aca174621ad98f099a1c4f9326fec7210295f7b527d2ea537a4d42830410abf4340731bf9b20e54972001933b9aa23536c53ae",
      "bip32Derivation": [
        {
          "masterFingerprint": "f65cd869",
          "pubkey": "0295f7b527d2ea537a4d42830410abf4340731bf9b20e54972001933b9aa23536c",
          "path": "0/0/20/2"
        },
        {
          "masterFingerprint": "f2ef0389",
          "pubkey": "02d6d1140bd2c0f914cb30c992aa2fcd283f471a9281ceec9ec6c5bc448e686900",
          "path": "0/0/20/2"
        },
        {
          "masterFingerprint": "cc18ae08",
          "pubkey": "03b855a8758eda6863648445a9d3cfb95388aca174621ad98f099a1c4f9326fec7",
          "path": "0/0/20/2"
        }
      ]
    },
    {
      "redeemScript": "52210275b7a363f52a3887806640f36637764589072e176d6b6a87d7c7541075764ca521024cb89f6e3fc8e380bce00c6a7e1624f4c0ee5cf076348b5d72459d79b78e950c21034c5974c0deeb8e86c8ac8f6cfa521dd83d484d3f9100cfee0d6af5ed142028ba53ae",
      "bip32Derivation": [
        {
          "masterFingerprint": "d4ad8372",
          "pubkey": "024cb89f6e3fc8e380bce00c6a7e1624f4c0ee5cf076348b5d72459d79b78e950c",
          "path": "0/0/0/3"
        },
        {
          "masterFingerprint": "547f4576",
          "pubkey": "0275b7a363f52a3887806640f36637764589072e176d6b6a87d7c7541075764ca5",
          "path": "0/0/0/3"
        },
        {
          "masterFingerprint": "405c65bd",
          "pubkey": "034c5974c0deeb8e86c8ac8f6cfa521dd83d484d3f9100cfee0d6af5ed142028ba",
          "path": "0/0/0/3"
        }
      ]
    },
    {},
    {}
  ],
  "extractedTransaction": "010000000001047cce12effc2ea564c4227333fd305447e0de7b3ae7a5fcc751effff3ea1377e100000000fdfd000047304402203451ca4da3360a9478996e33eb07e91687314ad27f8a3c0941ff317058efac8002206a3299570cb2538126624e1c4b672308ba6a4a6fe433e3573fd5c26ce4d3776201483045022100f7ec6bf14d7e3509428525fa77fd2ad5764b405de90cc0de96a8ff67ca3066d0022025cb226b22b802953befb5246e3ca04de2597bef5766d0b49526270f8232bb94014c69522103f6f40764bd5d63f200a2778883acf75e96f15095c998263c087270d0c97e7e7f21035ffb7abc70159e0469f4b989a6d5e1785a2904169ff050b2f468fe5d3d5dbbf22103e1524d7f6fc57ab3eacbb659b787106780a475d1db483952c2310b7e9a38975b53aeffffffffb9c7b288fd6aa0d1415996e2a5dad9a4e070c129e179277f53e32f602f180646010000002322002046d4800a1393330196085399ed4a1700b4c2fd38c52188c3a3a91f721f3c9600ffffffff1f57d9560ae9071600b696533192dc17799164fd3fa12804a7f7eb4201c4d5dd0200000000ffffffffb3e478963a7143f704f18ce4c0fece333c83339632e70bdd863ac2a89915026c030000006d483045022100fdd5e3dc30cc7187fd196f54cdcc8b9bc95e093d5c2e2a12c8f4c423f2e6797702200173f54af6b18478d39aa1d6f42996d215a9569c91ce8030f46b39855ee1b94f0123210336ef228ffe9b8efffba052c32d334660dd1f8366cf8fe44ae5aa672b6b629095acffffffff06840300000000000017a914d909474404c124a3d04c3fbff61faa49cf43c58b87840300000000000017a914054127121d37f32266cd967c485404976a67adf0878403000000000000220020ba48e3f9874463943f90192a45f1ae895b779362a7629af7ad6a9d7a835e3d4f840300000000000017a914fc641891604bde705629300b6e8de5f67dd3926287840300000000000017a914f6cf65029673cf92e0b0e6908c5ab90795316a2d878403000000000000116a0f736574656320617374726f6e6f6d79000400483045022100f915d580f7113081b745b4d6ee2844b21388bb0102cd013d25c823ce9280c1e702201ff6b4741d4ac4f373fc9525b16a25e420333ffd29b736f9295adfc08505f8dc01483045022100939f5ce5418fdaee9e31d8c69fdccadfc9af6229bfd660f8604c0fd2b13b54e80220266b9b466cd1fd2df600562564a716faa8dd4f94bf89d90fa3f997948ed5e9190169522102a585f3fab49b5ef95346d932221a221bd55ec191f15533e0f270b3582574f0352102c4f7866cfd5996bc1068a96313ca15e9ccb5e984583a07340dddae7af014605b2102234531bc9119a36a7946e95aeb74915dd087c7b44f517b8eeeb73f89a0ff1a9953ae04004830450221009f72facd6874c6575795176fe575ea4803e98fb779869e87a666c7a171d4470902202c7cef446339cff57c157ec274e3acef8cd8131f498f651b31356da690b6b82601473044022025c96d0dbda1054baa5847c4cd143bcf9aca915aa28a8cfa0816517be5292cad02201625ea0aab170996893d14ed85999513329796fbd0fa78b73d8cada1f98773300169522103519e572ab468560d1f8d0f87699d098308e166905f5dcae4390f060faa8f1ce32103a05bc26391221d685e18daaff36a1e95c34f99451253c16cd42650db278a79112102e80a08885c353676b820cdc290e6d81a0ac95a03e8abbf4bb7aeebfb70feb41853ae0000000000"
}
