{
  "walletKeys": [
    "xprv9s21ZrQH143K45bDYc9c3aEaGiTK9aPtjgtHg6wBdkryBjix1KKXRCszxPcFPejLT9tdLgNe8E8AuQXK2fy8KhNPeLAZsGoX8w9KS2PkacL",
    "xprv9s21ZrQH143K2eBLSVNk4zhjDzqzqM29aS9cjr4CcoNrKLYwLHtwgTURSk7RPV3cH9zNZQeR1zGw3MEwSjvARSfWEGpxfaBmduhW3TKsH5g",
    "xprv9s21ZrQH143K39N9shF9hAsTwh1FvQuBk8UVsZVwr4XtpqF7stCu2LH358NLuqkkK6pu1Af7TJHr5FZERQoLLtnC7wkoM9sdFo1HuP7dWuv"
  ],
  "psbtBase64": "cHNidP8BAP1zAQEAAAAEfM4S7/wupWTEInMz/TBUR+DeezrnpfzHUe//8+oTd+EAAAAAAP////+5x7KI/Wqg0UFZluKl2tmk4HDBKeF5J39T4y9gLxgGRgEAAAAA/////x9X2VYK6QcWALaWUzGS3Bd5kWT9P6EoBKf360IBxNXdAgAAAAD/////s+R4ljpxQ/cE8YzkwP7OMzyDM5Yy5wvdhjrCqJkVAmwDAAAAAP////8GhAMAAAAAAAAXqRTZCUdEBMEko9BMP7/2H6pJz0PFi4eEAwAAAAAAABepFAVBJxIdN/MiZs2WfEhUBJdqZ63wh4QDAAAAAAAAIgAgukjj+YdEY5Q/kBkqRfGuiVt3k2KnYpr3rWqdeoNePU+EAwAAAAAAABepFPxkGJFgS95wVikwC26N5fZ905Jih4QDAAAAAAAAF6kU9s9lApZzz5LgsOaQjFq5B5Uxai2HAAAAAAAAAAARag9zZXRlYyBhc3Ryb25vbXkAAAAATwEEiLIeAAAAAAAAAAAAOpIuKfDI6w2ypgSEy9y2MfaxB8nKrj/9zz59LsH2vNADEhSHFfNh2raFpmnUJDHl1tP5c0BNq5yf0blQsnmtdjQEzBiuCE8BBIiyHgAAAAAAAAAAAG0dZW093ZHBlMBFZaNgNwKiEBbO0UomXziYLWJ15ntkA9O6wjE6fGshy7EbFLDRA0H5IsCkA6i9jIfw3IIPNa9uBPZc2GlPAQSIsh4AAAAAAAAAAADLBP1jqzTZD+ZGa4gOKgLM+KhjN0MSmRr4kRsaqrRDNAM27yKP/puO//ugUsMtM0Zg3R+DZs+P5Erlqmcra2KQlQTy7wOJAAEAvgEAAAABAQEBAQEBAQEBAQEBAQEBAQEBAQEBAQEBAQEBAQEBAQEAAAAAa0gwRQIhAPgzk573ViMHluiX3f+QFzSlryObFIEGKBZNex1+acf9AiBCbT2kKbhsehXKhr1tLhbgYPwkvMQnjpbmp0MFK/DtfAEhA70MNLI3Pjh1dc3bED7AORbDEETyUI4mH+NZeiaA7L0f/////wHQBwAAAAAAABepFFZ817RPnzoHwxOPN7+YS2D7uvJDhwAAAAAiAgPhUk1/b8V6s+rLtlm3hxBngKR10dtIOVLCMQt+mjiXW0gwRQIhAJxL3CG18dZAEBetcaa+97DopsCcDveOCUnFNIRSkyzhAiADZWhOOGSFTwa+5xl1ifhTrbCKsAljz1N+LeXQCld2kQEiAgP29AdkvV1j8gCid4iDrPdelvFQlcmYJjwIcnDQyX5+f0cwRAIgdL8mwLZB0IOSuzm4syM0tBDIobFDo9RUe1coW0s8EUMCIFb91Vo9oeXzw5fuSOU73VTxaR3noffR2OEaNlOU1TsqAQEDBAEAAAABBGlSIQP29AdkvV1j8gCid4iDrPdelvFQlcmYJjwIcnDQyX5+fyEDX/t6vHAVngRp9LmJptXheFopBBaf8FCy9Gj+XT1du/IhA+FSTX9vxXqz6su2WbeHEGeApHXR20g5UsIxC36aOJdbU64iBgNf+3q8cBWeBGn0uYmm1eF4WikEFp/wULL0aP5dPV278hTMGK4IAAAAAAAAAAABAAAAAAAAACIGA+FSTX9vxXqz6su2WbeHEGeApHXR20g5UsIxC36aOJdbFPZc2GkAAAAAAAAAAAEAAAAAAAAAIgYD9vQHZL1dY/IAoneIg6z3XpbxUJXJmCY8CHJw0Ml+fn8U8u8DiQAAAAAAAAAAAQAAAAAAAAAAAQEg0AcAAAAAAAAXqRQOJrJdDOrm+c/z7azKoNGnDadgD4ciAgIjRTG8kRmjanlG6VrrdJFd0IfHtE9Re47utz+JoP8amUcwRAIgXhnnW012DB8ZJPQR5sMzfUF7Nm2iZiaj/sFlN43ukzcCIAmvCvj8hcUmGHG01MhwICGAOQjH0M0kSTDUJ0b7IUQqASICAqWF8/q0m175U0bZMiIaIhvVXsGR8VUz4PJws1gldPA1RzBEAiAXpCRJl/90IJnYR4ci8FenvxmhsskX5wXvmEFAR3zAQAIgE8CGOiOFAzBfNp7oEl653QNN4gxv30Dsw8orPi9hTesBAQMEAQAAAAEEIgAgRtSAChOTMwGWCFOZ7UoXALTC/TjFIYjDo6kfch88lgABBWlSIQKlhfP6tJte+VNG2TIiGiIb1V7BkfFVM+DycLNYJXTwNSECxPeGbP1ZlrwQaKljE8oV6cy16YRYOgc0Dd2uevAUYFshAiNFMbyRGaNqeUbpWut0kV3Qh8e0T1F7ju63P4mg/xqZU64iBgIjRTG8kRmjanlG6VrrdJFd0IfHtE9Re47utz+JoP8amRT2XNhpAAAAAAAAAAALAAAAAQAAACIGAqWF8/q0m175U0bZMiIaIhvVXsGR8VUz4PJws1gldPA1FPLvA4kAAAAAAAAAAAsAAAABAAAAIgYCxPeGbP1ZlrwQaKljE8oV6cy16YRYOgc0Dd2uevAUYFsUzBiuCAAAAAAAAAAACwAAAAEAAAAAAQEr0AcAAAAAAAAiACDbBCfxgitHd2cOZnPCivAvbaHVr+cacfXJBkRwsin6/SICAugKCIhcNTZ2uCDNwpDm2BoKyVoD6Ku/S7eu6/tw/rQYRzBEAiBehoF9bOcf2fzxEB87uiAHKQV9UIl4ddNqjYjawSF5AQIgFMGUvwKrE5lMJ/m/IiwToIdngMds+5iKzH1MT/lIhaMBIgIDUZ5XKrRoVg0fjQ+HaZ0JgwjhZpBfXcrkOQ8GD6qPHONIMEUCIQDUS5A+vpZKLDwUW8ejgfp1pG5fbqvPFwN+ldx93ebdcAIgekKb8MAMxscUpC7SX1q3MN3y5qlVgbYjHRQYmygeoakBAQMEAQAAAAEFaVIhA1GeVyq0aFYNH40Ph2mdCYMI4WaQX13K5DkPBg+qjxzjIQOgW8JjkSIdaF4Y2q/zah6Vw0+ZRRJTwWzUJlDbJ4p5ESEC6AoIiFw1Nna4IM3CkObYGgrJWgPoq79Lt67r+3D+tBhTriIGAugKCIhcNTZ2uCDNwpDm2BoKyVoD6Ku/S7eu6/tw/rQYFPZc2GkAAAAAAAAAABUAAAACAAAAIgYDUZ5XKrRoVg0fjQ+HaZ0JgwjhZpBfXcrkOQ8GD6qPHOMU8u8DiQAAAAAAAAAAFQAAAAIAAAAiBgOgW8JjkSIdaF4Y2q/zah6Vw0+ZRRJTwWzUJlDbJ4p5ERTMGK4IAAAAAAAAAAAVAAAAAgAAAAABAP0jAQEAAAABAQEBAQEBAQEBAQEBAQEBAQEBAQEBAQEBAQEBAQEBAQEAAAAAakcwRAIgHtQ/FHX75rJizVGLoaF+VPVaeUTIiBTi/Yaq8lnt+X8CIHKE+GEBqno57mMrMlTqxPYF/VLkB+0jqaZ0MYnEcdcuASEDvQw0sjc+OHV1zdsQPsA5FsMQRPJQjiYf41l6JoDsvR//////BNAHAAAAAAAAGXapFIg62NGv/finPL2vcje1xauewsMmiKzQBwAAAAAAABl2qRSIOtjRr/34pzy9r3I3tcWrnsLDJois0AcAAAAAAAAZdqkUiDrY0a/9+Kc8va9yN7XFq57CwyaIrNAHAAAAAAAAF6kUILNwlNgqUTRR/wzNnbI6ugW8XvOHAAAAACICAzbvIo/+m47/+6BSwy0zRmDdH4Nmz4/kSuWqZytrYpCVRzBEAiBv1hCFQBarmSEvaz2oX/nDn17e5Kl2wzEMvA4VeaUBqAIgcs5cBxsA3enJ2PvXiGre0sQouL1FLudynIdZ1kHMIUsBAQMEAQAAAAEEIyEDNu8ij/6bjv/7oFLDLTNGYN0fg2bPj+RK5apnK2tikJWsAAEAaVIhAsxND6QRysJESG+OssCOA1/3QQ9GCjWcp/iBCZG9O0IJIQLXL9DQ2QKTQ0rV/KFg8njgPGFEl6pOQlz0VOLBMw+WqyEDRNiEE231UCAoZf+8YhjH+ciP5s45yUV5gZC62zinUvFTriICAsxND6QRysJESG+OssCOA1/3QQ9GCjWcp/iBCZG9O0IJFPLvA4kAAAAAAAAAAAAAAAAAAAAAIgIC1y/Q0NkCk0NK1fyhYPJ44DxhRJeqTkJc9FTiwTMPlqsUzBiuCAAAAAAAAAAAAAAAAAAAAAAiAgNE2IQTbfVQIChl/7xiGMf5yI/mzjnJRXmBkLrbOKdS8RT2XNhpAAAAAAAAAAAAAAAAAAAAAAABACIAICkrBSNRo8b4DVG65kLMiCEYKJPb7tq8j10OlndHYCbBAQFpUiEDLhH5hVJoX+kH8x+ecmDJBujecA8MPJ8vFBBiPc39GcAhA1RXV841zx7fsTueLEovnOAKuMNr7hK8ojN85YP9KK7IIQKjz7ZmX+RPdSC2obTeGk1GZDs4XrH9Hgq3DvuWVCl1VFOuIgICo8+2Zl/kT3UgtqG03hpNRmQ7OF6x/R4Ktw77llQpdVQU9lzYaQAAAAAAAAAACgAAAAEAAAAiAgMuEfmFUmhf6QfzH55yYMkG6N5wDww8ny8UEGI9zf0ZwBTy7wOJAAAAAAAAAAAKAAAAAQAAACICA1RXV841zx7fsTueLEovnOAKuMNr7hK8ojN85YP9KK7IFMwYrggAAAAAAAAAAAoAAAABAAAAAAEBaVIhAtbRFAvSwPkUyzDJkqovzSg/RxqSgc7snsbFvESOaGkAIQO4Vah1jtpoY2SERanTz7lTiKyhdGIa2Y8JmhxPkyb+xyEClfe1J9LqU3pNQoMEEKv0NAcxv5sg5UlyABkzuaojU2xTriICApX3tSfS6lN6TUKDBBCr9DQHMb+bIOVJcgAZM7mqI1NsFPZc2GkAAAAAAAAAABQAAAACAAAAIgIC1tEUC9LA+RTLMMmSqi/NKD9HGpKBzuyexsW8RI5oaQAU8u8DiQAAAAAAAAAAFAAAAAIAAAAiAgO4Vah1jtpoY2SERanTz7lTiKyhdGIa2Y8JmhxPkyb+xxTMGK4IAAAAAAAAAAAUAAAAAgAAAAABAGlSIQJ1t6Nj9So4h4BmQPNmN3ZFiQcuF21raofXx1QQdXZMpSECTLifbj/I44C84AxqfhYk9MDuXPB2NItdckWdebeOlQwhA0xZdMDe646GyKyPbPpSHdg9SE0/kQDP7g1q9e0UICi6U64iAgJMuJ9uP8jjgLzgDGp+FiT0wO5c8HY0i11yRZ15t46VDBTUrYNyAAAAAAAAAAAAAAAAAwAAACICAnW3o2P1KjiHgGZA82Y3dkWJBy4XbWtqh9fHVBB1dkylFFR/RXYAAAAAAAAAAAAAAAADAAAAIgIDTFl0wN7rjobIrI9s+lId2D1ITT+RAM/uDWr17RQgKLoUQFxlvQAAAAAAAAAAAAAAAAMAAAAAAAA=",
  "psbtBase64Finalized": "cHNidP8BAP1zAQEAAAAEfM4S7/wupWTEInMz/TBUR+DeezrnpfzHUe//8+oTd+EAAAAAAP////+5x7KI/Wqg0UFZluKl2tmk4HDBKeF5J39T4y9gLxgGRgEAAAAA/////x9X2VYK6QcWALaWUzGS3Bd5kWT9P6EoBKf360IBxNXdAgAAAAD/////s+R4ljpxQ/cE8YzkwP7OMzyDM5Yy5wvdhjrCqJkVAmwDAAAAAP////8GhAMAAAAAAAAXqRTZCUdEBMEko9BMP7/2H6pJz0PFi4eEAwAAAAAAABepFAVBJxIdN/MiZs2WfEhUBJdqZ63wh4QDAAAAAAAAIgAgukjj+YdEY5Q/kBkqRfGuiVt3k2KnYpr3rWqdeoNePU+EAwAAAAAAABepFPxkGJFgS95wVikwC26N5fZ905Jih4QDAAAAAAAAF6kU9s9lApZzz5LgsOaQjFq5B5Uxai2HAAAAAAAAAAARag9zZXRlYyBhc3Ryb25vbXkAAAAATwEEiLIeAAAAAAAAAAAAOpIuKfDI6w2ypgSEy9y2MfaxB8nKrj/9zz59LsH2vNADEhSHFfNh2raFpmnUJDHl1tP5c0BNq5yf0blQsnmtdjQEzBiuCE8BBIiyHgAAAAAAAAAAAG0dZW093ZHBlMBFZaNgNwKiEBbO0UomXziYLWJ15ntkA9O6wjE6fGshy7EbFLDRA0H5IsCkA6i9jIfw3IIPNa9uBPZc2GlPAQSIsh4AAAAAAAAAAADLBP1jqzTZD+ZGa4gOKgLM+KhjN0MSmRr4kRsaqrRDNAM27yKP/puO//ugUsMtM0Zg3R+DZs+P5Erlqmcra2KQlQTy7wOJAAEAvgEAAAABAQEBAQEBAQEBAQEBAQEBAQEBAQEBAQEBAQEBAQEBAQEAAAAAa0gwRQIhAPgzk573ViMHluiX3f+QFzSlryObFIEGKBZNex1+acf9AiBCbT2kKbhsehXKhr1tLhbgYPwkvMQnjpbmp0MFK/DtfAEhA70MNLI3Pjh1dc3bED7AORbDEETyUI4mH+NZeiaA7L0f/////wHQBwAAAAAAABepFFZ817RPnzoHwxOPN7+YS2D7uvJDhwAAAAABB/39AABHMEQCIHS/JsC2QdCDkrs5uLMjNLQQyKGxQ6PUVHtXKFtLPBFDAiBW/dVaPaHl88OX7kjlO91U8Wkd56H30djhGjZTlNU7KgFIMEUCIQCcS9whtfHWQBAXrXGmvvew6KbAnA73jglJxTSEUpMs4QIgA2VoTjhkhU8GvucZdYn4U62wirAJY89Tfi3l0ApXdpEBTGlSIQP29AdkvV1j8gCid4iDrPdelvFQlcmYJjwIcnDQyX5+fyEDX/t6vHAVngRp9LmJptXheFopBBaf8FCy9Gj+XT1du/IhA+FSTX9vxXqz6su2WbeHEGeApHXR20g5UsIxC36aOJdbU64AAQEg0AcAAAAAAAAXqRQOJrJdDOrm+c/z7azKoNGnDadgD4cBByMiACBG1IAKE5MzAZYIU5ntShcAtML9OMUhiMOjqR9yHzyWAAEI/AQARzBEAiAXpCRJl/90IJnYR4ci8FenvxmhsskX5wXvmEFAR3zAQAIgE8CGOiOFAzBfNp7oEl653QNN4gxv30Dsw8orPi9hTesBRzBEAiBeGedbTXYMHxkk9BHmwzN9QXs2baJmJqP+wWU3je6TNwIgCa8K+PyFxSYYcbTUyHAgIYA5CMfQzSRJMNQnRvshRCoBaVIhAqWF8/q0m175U0bZMiIaIhvVXsGR8VUz4PJws1gldPA1IQLE94Zs/VmWvBBoqWMTyhXpzLXphFg6BzQN3a568BRgWyECI0UxvJEZo2p5Rula63SRXdCHx7RPUXuO7rc/iaD/GplTrgABASvQBwAAAAAAACIAINsEJ/GCK0d3Zw5mc8KK8C9todWv5xpx9ckGRHCyKfr9AQj9/QAEAEgwRQIhANRLkD6+lkosPBRbx6OB+nWkbl9uq88XA36V3H3d5t1wAiB6QpvwwAzGxxSkLtJfWrcw3fLmqVWBtiMdFBibKB6hqQFHMEQCIF6GgX1s5x/Z/PEQHzu6IAcpBX1QiXh102qNiNrBIXkBAiAUwZS/AqsTmUwn+b8iLBOgh2eAx2z7mIrMfUxP+UiFowFpUiEDUZ5XKrRoVg0fjQ+HaZ0JgwjhZpBfXcrkOQ8GD6qPHOMhA6BbwmORIh1oXhjar/NqHpXDT5lFElPBbNQmUNsninkRIQLoCgiIXDU2drggzcKQ5tgaCslaA+irv0u3ruv7cP60GFOuAAEA/SMBAQAAAAEBAQEBAQEBAQEBAQEBAQEBAQEBAQEBAQEBAQEBAQEBAQAAAABqRzBEAiAe1D8UdfvmsmLNUYuhoX5U9Vp5RMiIFOL9hqryWe35fwIgcoT4YQGqejnuYysyVOrE9gX9UuQH7SOppnQxicRx1y4BIQO9DDSyNz44dXXN2xA+wDkWwxBE8lCOJh/jWXomgOy9H/////8E0AcAAAAAAAAZdqkUiDrY0a/9+Kc8va9yN7XFq57CwyaIrNAHAAAAAAAAGXapFIg62NGv/finPL2vcje1xauewsMmiKzQBwAAAAAAABl2qRSIOtjRr/34pzy9r3I3tcWrnsLDJois0AcAAAAAAAAXqRQgs3CU2CpRNFH/DM2dsjq6Bbxe84cAAAAAAQdsRzBEAiBv1hCFQBarmSEvaz2oX/nDn17e5Kl2wzEMvA4VeaUBqAIgcs5cBxsA3enJ2PvXiGre0sQouL1FLudynIdZ1kHMIUsBIyEDNu8ij/6bjv/7oFLDLTNGYN0fg2bPj+RK5apnK2tikJWsAAEAaVIhAsxND6QRysJESG+OssCOA1/3QQ9GCjWcp/iBCZG9O0IJIQLXL9DQ2QKTQ0rV/KFg8njgPGFEl6pOQlz0VOLBMw+WqyEDRNiEE231UCAoZf+8YhjH+ciP5s45yUV5gZC62zinUvFTriICAsxND6QRysJESG+OssCOA1/3QQ9GCjWcp/iBCZG9O0IJFPLvA4kAAAAAAAAAAAAAAAAAAAAAIgIC1y/Q0NkCk0NK1fyhYPJ44DxhRJeqTkJc9FTiwTMPlqsUzBiuCAAAAAAAAAAAAAAAAAAAAAAiAgNE2IQTbfVQIChl/7xiGMf5yI/mzjnJRXmBkLrbOKdS8RT2XNhpAAAAAAAAAAAAAAAAAAAAAAABACIAICkrBSNRo8b4DVG65kLMiCEYKJPb7tq8j10OlndHYCbBAQFpUiEDLhH5hVJoX+kH8x+ecmDJBujecA8MPJ8vFBBiPc39GcAhA1RXV841zx7fsTueLEovnOAKuMNr7hK8ojN85YP9KK7IIQKjz7ZmX+RPdSC2obTeGk1GZDs4XrH9Hgq3DvuWVCl1VFOuIgICo8+2Zl/kT3UgtqG03hpNRmQ7OF6x/R4Ktw77llQpdVQU9lzYaQAAAAAAAAAACgAAAAEAAAAiAgMuEfmFUmhf6QfzH55yYMkG6N5wDww8ny8UEGI9zf0ZwBTy7wOJAAAAAAAAAAAKAAAAAQAAACICA1RXV841zx7fsTueLEovnOAKuMNr7hK8ojN85YP9KK7IFMwYrggAAAAAAAAAAAoAAAABAAAAAAEBaVIhAtbRFAvSwPkUyzDJkqovzSg/RxqSgc7snsbFvESOaGkAIQO4Vah1jtpoY2SERanTz7lTiKyhdGIa2Y8JmhxPkyb+xyEClfe1J9LqU3pNQoMEEKv0NAcxv5sg5UlyABkzuaojU2xTriICApX3tSfS6lN6TUKDBBCr9DQHMb+bIOVJcgAZM7mqI1NsFPZc2GkAAAAAAAAAABQAAAACAAAAIgIC1tEUC9LA+RTLMMmSqi/NKD9HGpKBzuyexsW8RI5oaQAU8u8DiQAAAAAAAAAAFAAAAAIAAAAiAgO4Vah1jtpoY2SERanTz7lTiKyhdGIa2Y8JmhxPkyb+xxTMGK4IAAAAAAAAAAAUAAAAAgAAAAABAGlSIQJ1t6Nj9So4h4BmQPNmN3ZFiQcuF21raofXx1QQdXZMpSECTLifbj/I44C84AxqfhYk9MDuXPB2NItdckWdebeOlQwhA0xZdMDe646GyKyPbPpSHdg9SE0/kQDP7g1q9e0UICi6U64iAgJMuJ9uP8jjgLzgDGp+FiT0wO5c8HY0i11yRZ15t46VDBTUrYNyAAAAAAAAAAAAAAAAAwAAACICAnW3o2P1KjiHgGZA82Y3dkWJBy4XbWtqh9fHVBB1dkylFFR/RXYAAAAAAAAAAAAAAAADAAAAIgIDTFl0wN7rjobIrI9s+lId2D1ITT+RAM/uDWr17RQgKLoUQFxlvQAAAAAAAAAAAAAAAAMAAAAAAAA=",
  "inputs": [
    {
      "hash": "7cce12effc2ea564c4227333fd305447e0de7b3ae7a5fcc751effff3ea1377e1",
      "index": 0,
      "sequence": 4294967295
    },
    {
      "hash": "b9c7b288fd6aa0d1415996e2a5dad9a4e070c129e179277f53e32f602f180646",
      "index": 1,
      "sequence": 4294967295
    },
    {
      "hash": "1f57d9560ae9071600b696533192dc17799164fd3fa12804a7f7eb4201c4d5dd",
      "index": 2,
      "sequence": 4294967295
    },
    {
      "hash": "b3e478963a7143f704f18ce4c0fece333c83339632e70bdd863ac2a89915026c",
      "index": 3,
      "sequence": 4294967295
    }
  ],
  "psbtInputs": [
    {
      "type": "p2sh",
      "unknownKeyVals": [],
      "nonWitnessUtxo": "01000000010101010101010101010101010101010101010101010101010101010101010101000000006b483045022100f833939ef756230796e897ddff901734a5af239b14810628164d7b1d7e69c7fd0220426d3da429b86c7a15ca86bd6d2e16e060fc24bcc4278e96e6a743052bf0ed7c012103bd0c34b2373e387575cddb103ec03916c31044f2508e261fe3597a2680ecbd1fffffffff01d00700000000000017a914567cd7b44f9f3a07c3138f37bf984b60fbbaf2438700000000",
      "sighashType": 1,
      "bip32Derivation": [
        {
          "pubkey": "03f6f40764bd5d63f200a2778883acf75e96f15095c998263c087270d0c97e7e7f",
          "path": "0/0/1/0",
          "masterFingerprint": "f2ef0389"
        },
        {
          "pubkey": "035ffb7abc70159e0469f4b989a6d5e1785a2904169ff050b2f468fe5d3d5dbbf2",
          "path": "0/0/1/0",
          "masterFingerprint": "cc18ae08"
        },
        {
          "pubkey": "03e1524d7f6fc57ab3eacbb659b787106780a475d1db483952c2310b7e9a38975b",
          "path": "0/0/1/0",
          "masterFingerprint": "f65cd869"
        }
      ],
      "redeemScript": "522103f6f40764bd5d63f200a2778883acf75e96f15095c998263c087270d0c97e7e7f21035ffb7abc70159e0469f4b989a6d5e1785a2904169ff050b2f468fe5d3d5dbbf22103e1524d7f6fc57ab3eacbb659b787106780a475d1db483952c2310b7e9a38975b53ae",
      "partialSig": [
        {
          "pubkey": "03f6f40764bd5d63f200a2778883acf75e96f15095c998263c087270d0c97e7e7f",
          "signature": "3044022074bf26c0b641d08392bb39b8b32334b410c8a1b143a3d4547b57285b4b3c1143022056fdd55a3da1e5f3c397ee48e53bdd54f1691de7a1f7d1d8e11a365394d53b2a01"
        },
        {
          "pubkey": "03e1524d7f6fc57ab3eacbb659b787106780a475d1db483952c2310b7e9a38975b",
          "signature": "30450221009c4bdc21b5f1d6401017ad71a6bef7b0e8a6c09c0ef78e0949c5348452932ce102200365684e3864854f06bee7197589f853adb08ab00963cf537e2de5d00a57769101"
        }
      ]
    },
    {
      "type": "p2shP2wsh",
      "unknownKeyVals": [],
      "witnessUtxo": {
        "script": "a9140e26b25d0ceae6f9cff3edaccaa0d1a70da7600f87",
        "value": "2000"
      },
      "sighashType": 1,
      "bip32Derivation": [
        {
          "pubkey": "02a585f3fab49b5ef95346d932221a221bd55ec191f15533e0f270b3582574f035",
          "path": "0/0/11/1",
          "masterFingerprint": "f2ef0389"
        },
        {
          "pubkey": "02c4f7866cfd5996bc1068a96313ca15e9ccb5e984583a07340dddae7af014605b",
          "path": "0/0/11/1",
          "masterFingerprint": "cc18ae08"
        },
        {
          "pubkey": "02234531bc9119a36a7946e95aeb74915dd087c7b44f517b8eeeb73f89a0ff1a99",
          "path": "0/0/11/1",
          "masterFingerprint": "f65cd869"
        }
      ],
      "witnessScript": "522102a585f3fab49b5ef95346d932221a221bd55ec191f15533e0f270b3582574f0352102c4f7866cfd5996bc1068a96313ca15e9ccb5e984583a07340dddae7af014605b2102234531bc9119a36a7946e95aeb74915dd087c7b44f517b8eeeb73f89a0ff1a9953ae",
      "redeemScript": "002046d4800a1393330196085399ed4a1700b4c2fd38c52188c3a3a91f721f3c9600",
      "partialSig": [
        {
          "pubkey": "02a585f3fab49b5ef95346d932221a221bd55ec191f15533e0f270b3582574f035",
          "signature": "3044022017a4244997ff742099d8478722f057a7bf19a1b2c917e705ef984140477cc040022013c0863a238503305f369ee8125eb9dd034de20c6fdf40ecc3ca2b3e2f614deb01"
        },
        {
          "pubkey": "02234531bc9119a36a7946e95aeb74915dd087c7b44f517b8eeeb73f89a0ff1a99",
          "signature": "304402205e19e75b4d760c1f1924f411e6c3337d417b366da26626a3fec165378dee9337022009af0af8fc85c5261871b4d4c8702021803908c7d0cd244930d42746fb21442a01"
        }
      ]
    },
    {
      "type": "p2wsh",
      "unknownKeyVals": [],
      "witnessUtxo": {
        "script": "0020db0427f1822b4777670e6673c28af02f6da1d5afe71a71f5c9064470b229fafd",
        "value": "2000"
      },
      "sighashType": 1,
      "bip32Derivation": [
        {
          "pubkey": "03519e572ab468560d1f8d0f87699d098308e166905f5dcae4390f060faa8f1ce3",
          "path": "0/0/21/2",
          "masterFingerprint": "f2ef0389"
        },
        {
          "pubkey": "03a05bc26391221d685e18daaff36a1e95c34f99451253c16cd42650db278a7911",
          "path": "0/0/21/2",
          "masterFingerprint": "cc18ae08"
        },
        {
          "pubkey": "02e80a08885c353676b820cdc290e6d81a0ac95a03e8abbf4bb7aeebfb70feb418",
          "path": "0/0/21/2",
          "masterFingerprint": "f65cd869"
        }
      ],
      "witnessScript": "522103519e572ab468560d1f8d0f87699d098308e166905f5dcae4390f060faa8f1ce32103a05bc26391221d685e18daaff36a1e95c34f99451253c16cd42650db278a79112102e80a08885c353676b820cdc290e6d81a0ac95a03e8abbf4bb7aeebfb70feb41853ae",
      "partialSig": [
        {
          "pubkey": "03519e572ab468560d1f8d0f87699d098308e166905f5dcae4390f060faa8f1ce3",
          "signature": "3045022100d44b903ebe964a2c3c145bc7a381fa75a46e5f6eabcf17037e95dc7ddde6dd7002207a429bf0c00cc6c714a42ed25f5ab730ddf2e6a95581b6231d14189b281ea1a901"
        },
        {
          "pubkey": "02e80a08885c353676b820cdc290e6d81a0ac95a03e8abbf4bb7aeebfb70feb418",
          "signature": "304402205e86817d6ce71fd9fcf1101f3bba200729057d50897875d36a8d88dac1217901022014c194bf02ab13994c27f9bf222c13a0876780c76cfb988acc7d4c4ff94885a301"
        }
      ]
    },
    {
      "type": "p2shP2pk",
      "unknownKeyVals": [],
      "redeemScript": "210336ef228ffe9b8efffba052c32d334660dd1f8366cf8fe44ae5aa672b6b629095ac",
      "nonWitnessUtxo": "01000000010101010101010101010101010101010101010101010101010101010101010101000000006a47304402201ed43f1475fbe6b262cd518ba1a17e54f55a7944c88814e2fd86aaf259edf97f02207284f86101aa7a39ee632b3254eac4f605fd52e407ed23a9a6743189c471d72e012103bd0c34b2373e387575cddb103ec03916c31044f2508e261fe3597a2680ecbd1fffffffff04d0070000000000001976a914883ad8d1affdf8a73cbdaf7237b5c5ab9ec2c32688acd0070000000000001976a914883ad8d1affdf8a73cbdaf7237b5c5ab9ec2c32688acd0070000000000001976a914883ad8d1affdf8a73cbdaf7237b5c5ab9ec2c32688acd00700000000000017a91420b37094d82a513451ff0ccd9db23aba05bc5ef38700000000",
      "sighashType": 1,
      "partialSig": [
        {
          "pubkey": "0336ef228ffe9b8efffba052c32d334660dd1f8366cf8fe44ae5aa672b6b629095",
          "signature": "304402206fd610854016ab99212f6b3da85ff9c39f5edee4a976c3310cbc0e1579a501a8022072ce5c071b00dde9c9d8fbd7886aded2c428b8bd452ee7729c8759d641cc214b01"
        }
      ]
    }
  ],
  "psbtInputsFinalized": [
    {
      "type": "p2sh",
      "finalScriptSig": "00473044022074bf26c0b641d08392bb39b8b32334b410c8a1b143a3d4547b57285b4b3c1143022056fdd55a3da1e5f3c397ee48e53bdd54f1691de7a1f7d1d8e11a365394d53b2a014830450221009c4bdc21b5f1d6401017ad71a6bef7b0e8a6c09c0ef78e0949c5348452932ce102200365684e3864854f06bee7197589f853adb08ab00963cf537e2de5d00a577691014c69522103f6f40764bd5d63f200a2778883acf75e96f15095c998263c087270d0c97e7e7f21035ffb7abc70159e0469f4b989a6d5e1785a2904169ff050b2f468fe5d3d5dbbf22103e1524d7f6fc57ab3eacbb659b787106780a475d1db483952c2310b7e9a38975b53ae",
      "nonWitnessUtxo": "01000000010101010101010101010101010101010101010101010101010101010101010101000000006b483045022100f833939ef756230796e897ddff901734a5af239b14810628164d7b1d7e69c7fd0220426d3da429b86c7a15ca86bd6d2e16e060fc24bcc4278e96e6a743052bf0ed7c012103bd0c34b2373e387575cddb103ec03916c31044f2508e261fe3597a2680ecbd1fffffffff01d00700000000000017a914567cd7b44f9f3a07c3138f37bf984b60fbbaf2438700000000"
    },
    {
      "type": "p2shP2wsh",
      "witnessUtxo": {
        "script": "a9140e26b25d0ceae6f9cff3edaccaa0d1a70da7600f87",
        "value": "2000"
      },
      "finalScriptSig": "22002046d4800a1393330196085399ed4a1700b4c2fd38c52188c3a3a91f721f3c9600",
      "finalScriptWitness": "0400473044022017a4244997ff742099d8478722f057a7bf19a1b2c917e705ef984140477cc040022013c0863a238503305f369ee8125eb9dd034de20c6fdf40ecc3ca2b3e2f614deb0147304402205e19e75b4d760c1f1924f411e6c3337d417b366da26626a3fec165378dee9337022009af0af8fc85c5261871b4d4c8702021803908c7d0cd244930d42746fb21442a0169522102a585f3fab49b5ef95346d932221a221bd55ec191f15533e0f270b3582574f0352102c4f7866cfd5996bc1068a96313ca15e9ccb5e984583a07340dddae7af014605b2102234531bc9119a36a7946e95aeb74915dd087c7b44f517b8eeeb73f89a0ff1a9953ae"
    },
    {
      "type": "p2wsh",
      "witnessUtxo": {
        "script": "0020db0427f1822b4777670e6673c28af02f6da1d5afe71a71f5c9064470b229fafd",
        "value": "2000"
      },
      "finalScriptWitness": "0400483045022100d44b903ebe964a2c3c145bc7a381fa75a46e5f6eabcf17037e95dc7ddde6dd7002207a429bf0c00cc6c714a42ed25f5ab730ddf2e6a95581b6231d14189b281ea1a90147304402205e86817d6ce71fd9fcf1101f3bba200729057d50897875d36a8d88dac1217901022014c194bf02ab13994c27f9bf222c13a0876780c76cfb988acc7d4c4ff94885a30169522103519e572ab468560d1f8d0f87699d098308e166905f5dcae4390f060faa8f1ce32103a05bc26391221d685e18daaff36a1e95c34f99451253c16cd42650db278a79112102e80a08885c353676b820cdc290e6d81a0ac95a03e8abbf4bb7aeebfb70feb41853ae"
    },
    {
      "type": "p2shP2pk",
      "finalScriptSig": "47304402206fd610854016ab99212f6b3da85ff9c39f5edee4a976c3310cbc0e1579a501a8022072ce5c071b00dde9c9d8fbd7886aded2c428b8bd452ee7729c8759d641cc214b0123210336ef228ffe9b8efffba052c32d334660dd1f8366cf8fe44ae5aa672b6b629095ac",
      "nonWitnessUtxo": "01000000010101010101010101010101010101010101010101010101010101010101010101000000006a47304402201ed43f1475fbe6b262cd518ba1a17e54f55a7944c88814e2fd86aaf259edf97f02207284f86101aa7a39ee632b3254eac4f605fd52e407ed23a9a6743189c471d72e012103bd0c34b2373e387575cddb103ec03916c31044f2508e261fe3597a2680ecbd1fffffffff04d0070000000000001976a914883ad8d1affdf8a73cbdaf7237b5c5ab9ec2c32688acd0070000000000001976a914883ad8d1affdf8a73cbdaf7237b5c5ab9ec2c32688acd0070000000000001976a914883ad8d1affdf8a73cbdaf7237b5c5ab9ec2c32688acd00700000000000017a91420b37094d82a513451ff0ccd9db23aba05bc5ef38700000000"
    }
  ],
  "outputs": [
    {
      "script": "a914d909474404c124a3d04c3fbff61faa49cf43c58b87",
      "value": "900",
      "address": "MTgjyjL9bKy6ovKVFZ7uEbUM47htkbjGDc"
    },
    {
      "script": "a914054127121d37f32266cd967c485404976a67adf087",
      "value": "900",
      "address": "M8NwfGmnQ96H3MBiqyBekVUmBRguvnNQEi"
    },
    {
      "script": "0020ba48e3f9874463943f90192a45f1ae895b779362a7629af7ad6a9d7a835e3d4f",
      "value": "900",
      "address": "ltc1qhfyw87v8g33eg0usry4ytudw39dh0ymz5a3f4aadd2wh4q67848sre2yue"
    },
    {
      "script": "a914fc641891604bde705629300b6e8de5f67dd3926287",
      "value": "900",
      "address": "MWugRZWK8Mao4DwtqA312jBBfsvGEb56pq"
    },
    {
      "script": "a914f6cf65029673cf92e0b0e6908c5ab90795316a2d87",
      "value": "900",
      "address": "MWQAueXh12YixXmPbCftY28hxKvxVrJbZK"
    },
    {
      "script": "6a0f736574656320617374726f6e6f6d79",
      "value": "0"
    }
  ],
  "psbtOutputs": [
    {
      "unknownKeyVals": [],
      "bip32Derivation": [
        {
          "pubkey": "02cc4d0fa411cac244486f8eb2c08e035ff7410f460a359ca7f8810991bd3b4209",
          "path": "0/0/0/0",
          "masterFingerprint": "f2ef0389"
        },
        {
          "pubkey": "02d72fd0d0d90293434ad5fca160f278e03c614497aa4e425cf454e2c1330f96ab",
          "path": "0/0/0/0",
          "masterFingerprint": "cc18ae08"
        },
        {
          "pubkey": "0344d884136df550202865ffbc6218c7f9c88fe6ce39c945798190badb38a752f1",
          "path": "0/0/0/0",
          "masterFingerprint": "f65cd869"
        }
      ],
      "redeemScript": "522102cc4d0fa411cac244486f8eb2c08e035ff7410f460a359ca7f8810991bd3b42092102d72fd0d0d90293434ad5fca160f278e03c614497aa4e425cf454e2c1330f96ab210344d884136df550202865ffbc6218c7f9c88fe6ce39c945798190badb38a752f153ae"
    },
    {
      "unknownKeyVals": [],
      "bip32Derivation": [
        {
          "pubkey": "032e11f98552685fe907f31f9e7260c906e8de700f0c3c9f2f1410623dcdfd19c0",
          "path": "0/0/10/1",
          "masterFingerprint": "f2ef0389"
        },
        {
          "pubkey": "03545757ce35cf1edfb13b9e2c4a2f9ce00ab8c36bee12bca2337ce583fd28aec8",
          "path": "0/0/10/1",
          "masterFingerprint": "cc18ae08"
        },
        {
          "pubkey": "02a3cfb6665fe44f7520b6a1b4de1a4d46643b385eb1fd1e0ab70efb9654297554",
          "path": "0/0/10/1",
          "masterFingerprint": "f65cd869"
        }
      ],
      "witnessScript": "5221032e11f98552685fe907f31f9e7260c906e8de700f0c3c9f2f1410623dcdfd19c02103545757ce35cf1edfb13b9e2c4a2f9ce00ab8c36bee12bca2337ce583fd28aec82102a3cfb6665fe44f7520b6a1b4de1a4d46643b385eb1fd1e0ab70efb965429755453ae",
      "redeemScript": "0020292b052351a3c6f80d51bae642cc8821182893dbeedabc8f5d0e9677476026c1"
    },
    {
      "unknownKeyVals": [],
      "bip32Derivation": [
        {
          "pubkey": "02d6d1140bd2c0f914cb30c992aa2fcd283f471a9281ceec9ec6c5bc448e686900",
          "path": "0/0/20/2",
          "masterFingerprint": "f2ef0389"
        },
        {
          "pubkey": "03b855a8758eda6863648445a9d3cfb95388aca174621ad98f099a1c4f9326fec7",
          "path": "0/0/20/2",
          "masterFingerprint": "cc18ae08"
        },
        {
          "pubkey": "0295f7b527d2ea537a4d42830410abf4340731bf9b20e54972001933b9aa23536c",
          "path": "0/0/20/2",
          "masterFingerprint": "f65cd869"
        }
      ],
      "witnessScript": "522102d6d1140bd2c0f914cb30c992aa2fcd283f471a9281ceec9ec6c5bc448e6869002103b855a8758eda6863648445a9d3cfb95388aca174621ad98f099a1c4f9326fec7210295f7b527d2ea537a4d42830410abf4340731bf9b20e54972001933b9aa23536c53ae"
    },
    {
      "unknownKeyVals": [],
      "bip32Derivation": [
        {
          "pubkey": "0275b7a363f52a3887806640f36637764589072e176d6b6a87d7c7541075764ca5",
          "path": "0/0/0/3",
          "masterFingerprint": "547f4576"
        },
        {
          "pubkey": "024cb89f6e3fc8e380bce00c6a7e1624f4c0ee5cf076348b5d72459d79b78e950c",
          "path": "0/0/0/3",
          "masterFingerprint": "d4ad8372"
        },
        {
          "pubkey": "034c5974c0deeb8e86c8ac8f6cfa521dd83d484d3f9100cfee0d6af5ed142028ba",
          "path": "0/0/0/3",
          "masterFingerprint": "405c65bd"
        }
      ],
      "redeemScript": "52210275b7a363f52a3887806640f36637764589072e176d6b6a87d7c7541075764ca521024cb89f6e3fc8e380bce00c6a7e1624f4c0ee5cf076348b5d72459d79b78e950c21034c5974c0deeb8e86c8ac8f6cfa521dd83d484d3f9100cfee0d6af5ed142028ba53ae"
    },
    {
      "unknownKeyVals": []
    },
    {
      "unknownKeyVals": []
    }
  ],
  "extractedTransaction": "010000000001047cce12effc2ea564c4227333fd305447e0de7b3ae7a5fcc751effff3ea1377e100000000fdfd0000473044022074bf26c0b641d08392bb39b8b32334b410c8a1b143a3d4547b57285b4b3c1143022056fdd55a3da1e5f3c397ee48e53bdd54f1691de7a1f7d1d8e11a365394d53b2a014830450221009c4bdc21b5f1d6401017ad71a6bef7b0e8a6c09c0ef78e0949c5348452932ce102200365684e3864854f06bee7197589f853adb08ab00963cf537e2de5d00a577691014c69522103f6f40764bd5d63f200a2778883acf75e96f15095c998263c087270d0c97e7e7f21035ffb7abc70159e0469f4b989a6d5e1785a2904169ff050b2f468fe5d3d5dbbf22103e1524d7f6fc57ab3eacbb659b787106780a475d1db483952c2310b7e9a38975b53aeffffffffb9c7b288fd6aa0d1415996e2a5dad9a4e070c129e179277f53e32f602f180646010000002322002046d4800a1393330196085399ed4a1700b4c2fd38c52188c3a3a91f721f3c9600ffffffff1f57d9560ae9071600b696533192dc17799164fd3fa12804a7f7eb4201c4d5dd0200000000ffffffffb3e478963a7143f704f18ce4c0fece333c83339632e70bdd863ac2a89915026c030000006c47304402206fd610854016ab99212f6b3da85ff9c39f5edee4a976c3310cbc0e1579a501a8022072ce5c071b00dde9c9d8fbd7886aded2c428b8bd452ee7729c8759d641cc214b0123210336ef228ffe9b8efffba052c32d334660dd1f8366cf8fe44ae5aa672b6b629095acffffffff06840300000000000017a914d909474404c124a3d04c3fbff61faa49cf43c58b87840300000000000017a914054127121d37f32266cd967c485404976a67adf0878403000000000000220020ba48e3f9874463943f90192a45f1ae895b779362a7629af7ad6a9d7a835e3d4f840300000000000017a914fc641891604bde705629300b6e8de5f67dd3926287840300000000000017a914f6cf65029673cf92e0b0e6908c5ab90795316a2d870000000000000000116a0f736574656320617374726f6e6f6d79000400473044022017a4244997ff742099d8478722f057a7bf19a1b2c917e705ef984140477cc040022013c0863a238503305f369ee8125eb9dd034de20c6fdf40ecc3ca2b3e2f614deb0147304402205e19e75b4d760c1f1924f411e6c3337d417b366da26626a3fec165378dee9337022009af0af8fc85c5261871b4d4c8702021803908c7d0cd244930d42746fb21442a0169522102a585f3fab49b5ef95346d932221a221bd55ec191f15533e0f270b3582574f0352102c4f7866cfd5996bc1068a96313ca15e9ccb5e984583a07340dddae7af014605b2102234531bc9119a36a7946e95aeb74915dd087c7b44f517b8eeeb73f89a0ff1a9953ae0400483045022100d44b903ebe964a2c3c145bc7a381fa75a46e5f6eabcf17037e95dc7ddde6dd7002207a429bf0c00cc6c714a42ed25f5ab730ddf2e6a95581b6231d14189b281ea1a90147304402205e86817d6ce71fd9fcf1101f3bba200729057d50897875d36a8d88dac1217901022014c194bf02ab13994c27f9bf222c13a0876780c76cfb988acc7d4c4ff94885a30169522103519e572ab468560d1f8d0f87699d098308e166905f5dcae4390f060faa8f1ce32103a05bc26391221d685e18daaff36a1e95c34f99451253c16cd42650db278a79112102e80a08885c353676b820cdc290e6d81a0ac95a03e8abbf4bb7aeebfb70feb41853ae0000000000"
}
