{
  "walletKeys": [
    "xprv9s21ZrQH143K45bDYc9c3aEaGiTK9aPtjgtHg6wBdkryBjix1KKXRCszxPcFPejLT9tdLgNe8E8AuQXK2fy8KhNPeLAZsGoX8w9KS2PkacL",
    "xprv9s21ZrQH143K2eBLSVNk4zhjDzqzqM29aS9cjr4CcoNrKLYwLHtwgTURSk7RPV3cH9zNZQeR1zGw3MEwSjvARSfWEGpxfaBmduhW3TKsH5g",
    "xprv9s21ZrQH143K39N9shF9hAsTwh1FvQuBk8UVsZVwr4XtpqF7stCu2LH358NLuqkkK6pu1Af7TJHr5FZERQoLLtnC7wkoM9sdFo1HuP7dWuv"
  ],
  "psbtBase64": "cHNidP8BAP1zAQIAAAAE1d91MFdo7eEBoxU8tq8ozGHNyoFlG9+jaqfEQENJ5e0AAAAAAP/////ZrJ/8C45dE8o8AXqI8g0isxHPSazKqNvLTtJveVWdmwEAAAAA/////w6oPib2sAMmwUJCVhLc+iBCMDIdyHmXryeTcc5Fxth3AgAAAAD/////uEowcd9r50/zStLQP3RlA7HmnVNAnijdgMJw2EO8ZqkDAAAAAP////8GhAMAAAAAAAAXqRTZCUdEBMEko9BMP7/2H6pJz0PFi4eEAwAAAAAAABepFAVBJxIdN/MiZs2WfEhUBJdqZ63wh4QDAAAAAAAAIgAgukjj+YdEY5Q/kBkqRfGuiVt3k2KnYpr3rWqdeoNePU+EAwAAAAAAABepFPxkGJFgS95wVikwC26N5fZ905Jih4QDAAAAAAAAF6kU9s9lApZzz5LgsOaQjFq5B5Uxai2HAAAAAAAAAAARag9zZXRlYyBhc3Ryb25vbXkAAAAATwEEiLIeAAAAAAAAAAAAOpIuKfDI6w2ypgSEy9y2MfaxB8nKrj/9zz59LsH2vNADEhSHFfNh2raFpmnUJDHl1tP5c0BNq5yf0blQsnmtdjQEzBiuCE8BBIiyHgAAAAAAAAAAAG0dZW093ZHBlMBFZaNgNwKiEBbO0UomXziYLWJ15ntkA9O6wjE6fGshy7EbFLDRA0H5IsCkA6i9jIfw3IIPNa9uBPZc2GlPAQSIsh4AAAAAAAAAAADLBP1jqzTZD+ZGa4gOKgLM+KhjN0MSmRr4kRsaqrRDNAM27yKP/puO//ugUsMtM0Zg3R+DZs+P5Erlqmcra2KQlQTy7wOJAAEAvgIAAAABAQEBAQEBAQEBAQEBAQEBAQEBAQEBAQEBAQEBAQEBAQEAAAAAa0gwRQIhAPUYu8uFyBaFI1ULQglnUKkejtCi+T+7pFx0kqIkfccmAiB61WKxWM5NedPC63rgpXP5qEE9lcP/FhHCl/fxzoKhnwEhA70MNLI3Pjh1dc3bED7AORbDEETyUI4mH+NZeiaA7L0f/////wHQBwAAAAAAABepFFZ817RPnzoHwxOPN7+YS2D7uvJDhwAAAAAiAgPhUk1/b8V6s+rLtlm3hxBngKR10dtIOVLCMQt+mjiXW0cwRAIgUgXtlDOHnOy/Jxhd/gERUo8ON1k8Y6EaWZ2wRnaghRYCID29NCoY2f9ZiyZWiDyOps+eT8U1pJdWYG5aGXSa6M9xQSICA/b0B2S9XWPyAKJ3iIOs916W8VCVyZgmPAhycNDJfn5/RzBEAiBDay33Nq61jmRuRWL/cQTIEd4Trx5MGKpn1MuGeCHZ0AIgbSkCvtx4wEG19rIOQ4bN0iR48Tsfz6Uo8d2iAcfThhxBAQMEQQAAAAEEaVIhA/b0B2S9XWPyAKJ3iIOs916W8VCVyZgmPAhycNDJfn5/IQNf+3q8cBWeBGn0uYmm1eF4WikEFp/wULL0aP5dPV278iED4VJNf2/FerPqy7ZZt4cQZ4CkddHbSDlSwjELfpo4l1tTriIGA1/7erxwFZ4EafS5iabV4XhaKQQWn/BQsvRo/l09XbvyFMwYrggAAAAAAAAAAAEAAAAAAAAAIgYD4VJNf2/FerPqy7ZZt4cQZ4CkddHbSDlSwjELfpo4l1sU9lzYaQAAAAAAAAAAAQAAAAAAAAAiBgP29AdkvV1j8gCid4iDrPdelvFQlcmYJjwIcnDQyX5+fxTy7wOJAAAAAAAAAAABAAAAAAAAAAABASDQBwAAAAAAABepFA4msl0M6ub5z/PtrMqg0acNp2APhyICAiNFMbyRGaNqeUbpWut0kV3Qh8e0T1F7ju63P4mg/xqZSDBFAiEA+f/aMe9bav3gXz4he5eU2+EyVaRbFGwOTaZu1Qu+eD0CIDWYqmbe3X02dyoCbUz06JR4DIOgPrJ6k2uEO7NGCS1QQSICAqWF8/q0m175U0bZMiIaIhvVXsGR8VUz4PJws1gldPA1SDBFAiEA8RiNMeXPT/AxqwVQsxDgp7eZ6NJ64Z1A+HpyAIOuC3cCIDH18jE2lsL1iNSK1XQ60WaQR11nBzEawzWq6Dh+1fq4QQEDBEEAAAABBCIAIEbUgAoTkzMBlghTme1KFwC0wv04xSGIw6OpH3IfPJYAAQVpUiECpYXz+rSbXvlTRtkyIhoiG9VewZHxVTPg8nCzWCV08DUhAsT3hmz9WZa8EGipYxPKFenMtemEWDoHNA3drnrwFGBbIQIjRTG8kRmjanlG6VrrdJFd0IfHtE9Re47utz+JoP8amVOuIgYCI0UxvJEZo2p5Rula63SRXdCHx7RPUXuO7rc/iaD/GpkU9lzYaQAAAAAAAAAACwAAAAEAAAAiBgKlhfP6tJte+VNG2TIiGiIb1V7BkfFVM+DycLNYJXTwNRTy7wOJAAAAAAAAAAALAAAAAQAAACIGAsT3hmz9WZa8EGipYxPKFenMtemEWDoHNA3drnrwFGBbFMwYrggAAAAAAAAAAAsAAAABAAAAAAEBK9AHAAAAAAAAIgAg2wQn8YIrR3dnDmZzworwL22h1a/nGnH1yQZEcLIp+v0iAgLoCgiIXDU2drggzcKQ5tgaCslaA+irv0u3ruv7cP60GEgwRQIhALD6vPs1Z9XSARq2++Hkn3o0wI605MWH4bstZqSnuNShAiBWaFZ0AUIn+x9RyDHbXnN8xnfOzuyfREhWkmycKb7DLEEiAgNRnlcqtGhWDR+ND4dpnQmDCOFmkF9dyuQ5DwYPqo8c40gwRQIhAOoLAGTSbU+2oiztjdJblwE5+5dETtdcoRaUCDhL8LmHAiBFqQHm9PE5WYFInP7JIlKCQMAvJ4hUxbd4znq09be2fEEBAwRBAAAAAQVpUiEDUZ5XKrRoVg0fjQ+HaZ0JgwjhZpBfXcrkOQ8GD6qPHOMhA6BbwmORIh1oXhjar/NqHpXDT5lFElPBbNQmUNsninkRIQLoCgiIXDU2drggzcKQ5tgaCslaA+irv0u3ruv7cP60GFOuIgYC6AoIiFw1Nna4IM3CkObYGgrJWgPoq79Lt67r+3D+tBgU9lzYaQAAAAAAAAAAFQAAAAIAAAAiBgNRnlcqtGhWDR+ND4dpnQmDCOFmkF9dyuQ5DwYPqo8c4xTy7wOJAAAAAAAAAAAVAAAAAgAAACIGA6BbwmORIh1oXhjar/NqHpXDT5lFElPBbNQmUNsninkRFMwYrggAAAAAAAAAABUAAAACAAAAAAEA/SMBAgAAAAEBAQEBAQEBAQEBAQEBAQEBAQEBAQEBAQEBAQEBAQEBAQAAAABqRzBEAiBvTRymKpO5qRsc5qPLVVwWVJtBbH9yqR+9g/CKkyW4nQIgT/YwzKzpnzZobvPmXcwvERPR4i1+iApDaEkxpNbjKx8BIQO9DDSyNz44dXXN2xA+wDkWwxBE8lCOJh/jWXomgOy9H/////8E0AcAAAAAAAAZdqkUiDrY0a/9+Kc8va9yN7XFq57CwyaIrNAHAAAAAAAAGXapFIg62NGv/finPL2vcje1xauewsMmiKzQBwAAAAAAABl2qRSIOtjRr/34pzy9r3I3tcWrnsLDJois0AcAAAAAAAAXqRQgs3CU2CpRNFH/DM2dsjq6Bbxe84cAAAAAIgIDNu8ij/6bjv/7oFLDLTNGYN0fg2bPj+RK5apnK2tikJVHMEQCIAMHbAnAnCibtuW6R3+Ceq/XE8FbH+Vn1EIJcXWiIC3cAiAyHUyEaSP0Uw48NKQMOGzK0DFYapGbY/XBZDXGs05tsUEBAwRBAAAAAQQjIQM27yKP/puO//ugUsMtM0Zg3R+DZs+P5Erlqmcra2KQlawAAQBpUiECzE0PpBHKwkRIb46ywI4DX/dBD0YKNZyn+IEJkb07QgkhAtcv0NDZApNDStX8oWDyeOA8YUSXqk5CXPRU4sEzD5arIQNE2IQTbfVQIChl/7xiGMf5yI/mzjnJRXmBkLrbOKdS8VOuIgICzE0PpBHKwkRIb46ywI4DX/dBD0YKNZyn+IEJkb07QgkU8u8DiQAAAAAAAAAAAAAAAAAAAAAiAgLXL9DQ2QKTQ0rV/KFg8njgPGFEl6pOQlz0VOLBMw+WqxTMGK4IAAAAAAAAAAAAAAAAAAAAACICA0TYhBNt9VAgKGX/vGIYx/nIj+bOOclFeYGQuts4p1LxFPZc2GkAAAAAAAAAAAAAAAAAAAAAAAEAIgAgKSsFI1GjxvgNUbrmQsyIIRgok9vu2ryPXQ6Wd0dgJsEBAWlSIQMuEfmFUmhf6QfzH55yYMkG6N5wDww8ny8UEGI9zf0ZwCEDVFdXzjXPHt+xO54sSi+c4Aq4w2vuEryiM3zlg/0orsghAqPPtmZf5E91ILahtN4aTUZkOzhesf0eCrcO+5ZUKXVUU64iAgKjz7ZmX+RPdSC2obTeGk1GZDs4XrH9Hgq3DvuWVCl1VBT2XNhpAAAAAAAAAAAKAAAAAQAAACICAy4R+YVSaF/pB/MfnnJgyQbo3nAPDDyfLxQQYj3N/RnAFPLvA4kAAAAAAAAAAAoAAAABAAAAIgIDVFdXzjXPHt+xO54sSi+c4Aq4w2vuEryiM3zlg/0orsgUzBiuCAAAAAAAAAAACgAAAAEAAAAAAQFpUiEC1tEUC9LA+RTLMMmSqi/NKD9HGpKBzuyexsW8RI5oaQAhA7hVqHWO2mhjZIRFqdPPuVOIrKF0YhrZjwmaHE+TJv7HIQKV97Un0upTek1CgwQQq/Q0BzG/myDlSXIAGTO5qiNTbFOuIgIClfe1J9LqU3pNQoMEEKv0NAcxv5sg5UlyABkzuaojU2wU9lzYaQAAAAAAAAAAFAAAAAIAAAAiAgLW0RQL0sD5FMswyZKqL80oP0cakoHO7J7GxbxEjmhpABTy7wOJAAAAAAAAAAAUAAAAAgAAACICA7hVqHWO2mhjZIRFqdPPuVOIrKF0YhrZjwmaHE+TJv7HFMwYrggAAAAAAAAAABQAAAACAAAAAAEAaVIhAnW3o2P1KjiHgGZA82Y3dkWJBy4XbWtqh9fHVBB1dkylIQJMuJ9uP8jjgLzgDGp+FiT0wO5c8HY0i11yRZ15t46VDCEDTFl0wN7rjobIrI9s+lId2D1ITT+RAM/uDWr17RQgKLpTriICAky4n24/yOOAvOAMan4WJPTA7lzwdjSLXXJFnXm3jpUMFNStg3IAAAAAAAAAAAAAAAADAAAAIgICdbejY/UqOIeAZkDzZjd2RYkHLhdta2qH18dUEHV2TKUUVH9FdgAAAAAAAAAAAAAAAAMAAAAiAgNMWXTA3uuOhsisj2z6Uh3YPUhNP5EAz+4NavXtFCAouhRAXGW9AAAAAAAAAAAAAAAAAwAAAAAAAA==",
  "psbtBase64Finalized": "cHNidP8BAP1zAQIAAAAE1d91MFdo7eEBoxU8tq8ozGHNyoFlG9+jaqfEQENJ5e0AAAAAAP/////ZrJ/8C45dE8o8AXqI8g0isxHPSazKqNvLTtJveVWdmwEAAAAA/////w6oPib2sAMmwUJCVhLc+iBCMDIdyHmXryeTcc5Fxth3AgAAAAD/////uEowcd9r50/zStLQP3RlA7HmnVNAnijdgMJw2EO8ZqkDAAAAAP////8GhAMAAAAAAAAXqRTZCUdEBMEko9BMP7/2H6pJz0PFi4eEAwAAAAAAABepFAVBJxIdN/MiZs2WfEhUBJdqZ63wh4QDAAAAAAAAIgAgukjj+YdEY5Q/kBkqRfGuiVt3k2KnYpr3rWqdeoNePU+EAwAAAAAAABepFPxkGJFgS95wVikwC26N5fZ905Jih4QDAAAAAAAAF6kU9s9lApZzz5LgsOaQjFq5B5Uxai2HAAAAAAAAAAARag9zZXRlYyBhc3Ryb25vbXkAAAAATwEEiLIeAAAAAAAAAAAAOpIuKfDI6w2ypgSEy9y2MfaxB8nKrj/9zz59LsH2vNADEhSHFfNh2raFpmnUJDHl1tP5c0BNq5yf0blQsnmtdjQEzBiuCE8BBIiyHgAAAAAAAAAAAG0dZW093ZHBlMBFZaNgNwKiEBbO0UomXziYLWJ15ntkA9O6wjE6fGshy7EbFLDRA0H5IsCkA6i9jIfw3IIPNa9uBPZc2GlPAQSIsh4AAAAAAAAAAADLBP1jqzTZD+ZGa4gOKgLM+KhjN0MSmRr4kRsaqrRDNAM27yKP/puO//ugUsMtM0Zg3R+DZs+P5Erlqmcra2KQlQTy7wOJAAEAvgIAAAABAQEBAQEBAQEBAQEBAQEBAQEBAQEBAQEBAQEBAQEBAQEAAAAAa0gwRQIhAPUYu8uFyBaFI1ULQglnUKkejtCi+T+7pFx0kqIkfccmAiB61WKxWM5NedPC63rgpXP5qEE9lcP/FhHCl/fxzoKhnwEhA70MNLI3Pjh1dc3bED7AORbDEETyUI4mH+NZeiaA7L0f/////wHQBwAAAAAAABepFFZ817RPnzoHwxOPN7+YS2D7uvJDhwAAAAABB/wARzBEAiBDay33Nq61jmRuRWL/cQTIEd4Trx5MGKpn1MuGeCHZ0AIgbSkCvtx4wEG19rIOQ4bN0iR48Tsfz6Uo8d2iAcfThhxBRzBEAiBSBe2UM4ec7L8nGF3+ARFSjw43WTxjoRpZnbBGdqCFFgIgPb00KhjZ/1mLJlaIPI6mz55PxTWkl1ZgbloZdJroz3FBTGlSIQP29AdkvV1j8gCid4iDrPdelvFQlcmYJjwIcnDQyX5+fyEDX/t6vHAVngRp9LmJptXheFopBBaf8FCy9Gj+XT1du/IhA+FSTX9vxXqz6su2WbeHEGeApHXR20g5UsIxC36aOJdbU64AAQEg0AcAAAAAAAAXqRQOJrJdDOrm+c/z7azKoNGnDadgD4cBByMiACBG1IAKE5MzAZYIU5ntShcAtML9OMUhiMOjqR9yHzyWAAEI/f4ABABIMEUCIQDxGI0x5c9P8DGrBVCzEOCnt5no0nrhnUD4enIAg64LdwIgMfXyMTaWwvWI1IrVdDrRZpBHXWcHMRrDNaroOH7V+rhBSDBFAiEA+f/aMe9bav3gXz4he5eU2+EyVaRbFGwOTaZu1Qu+eD0CIDWYqmbe3X02dyoCbUz06JR4DIOgPrJ6k2uEO7NGCS1QQWlSIQKlhfP6tJte+VNG2TIiGiIb1V7BkfFVM+DycLNYJXTwNSECxPeGbP1ZlrwQaKljE8oV6cy16YRYOgc0Dd2uevAUYFshAiNFMbyRGaNqeUbpWut0kV3Qh8e0T1F7ju63P4mg/xqZU64AAQEr0AcAAAAAAAAiACDbBCfxgitHd2cOZnPCivAvbaHVr+cacfXJBkRwsin6/QEI/f4ABABIMEUCIQDqCwBk0m1PtqIs7Y3SW5cBOfuXRE7XXKEWlAg4S/C5hwIgRakB5vTxOVmBSJz+ySJSgkDALyeIVMW3eM56tPW3tnxBSDBFAiEAsPq8+zVn1dIBGrb74eSfejTAjrTkxYfhuy1mpKe41KECIFZoVnQBQif7H1HIMdtec3zGd87O7J9ESFaSbJwpvsMsQWlSIQNRnlcqtGhWDR+ND4dpnQmDCOFmkF9dyuQ5DwYPqo8c4yEDoFvCY5EiHWheGNqv82oelcNPmUUSU8Fs1CZQ2yeKeREhAugKCIhcNTZ2uCDNwpDm2BoKyVoD6Ku/S7eu6/tw/rQYU64AAQD9IwECAAAAAQEBAQEBAQEBAQEBAQEBAQEBAQEBAQEBAQEBAQEBAQEBAAAAAGpHMEQCIG9NHKYqk7mpGxzmo8tVXBZUm0Fsf3KpH72D8IqTJbidAiBP9jDMrOmfNmhu8+ZdzC8RE9HiLX6ICkNoSTGk1uMrHwEhA70MNLI3Pjh1dc3bED7AORbDEETyUI4mH+NZeiaA7L0f/////wTQBwAAAAAAABl2qRSIOtjRr/34pzy9r3I3tcWrnsLDJois0AcAAAAAAAAZdqkUiDrY0a/9+Kc8va9yN7XFq57CwyaIrNAHAAAAAAAAGXapFIg62NGv/finPL2vcje1xauewsMmiKzQBwAAAAAAABepFCCzcJTYKlE0Uf8MzZ2yOroFvF7zhwAAAAABB2xHMEQCIAMHbAnAnCibtuW6R3+Ceq/XE8FbH+Vn1EIJcXWiIC3cAiAyHUyEaSP0Uw48NKQMOGzK0DFYapGbY/XBZDXGs05tsUEjIQM27yKP/puO//ugUsMtM0Zg3R+DZs+P5Erlqmcra2KQlawAAQBpUiECzE0PpBHKwkRIb46ywI4DX/dBD0YKNZyn+IEJkb07QgkhAtcv0NDZApNDStX8oWDyeOA8YUSXqk5CXPRU4sEzD5arIQNE2IQTbfVQIChl/7xiGMf5yI/mzjnJRXmBkLrbOKdS8VOuIgICzE0PpBHKwkRIb46ywI4DX/dBD0YKNZyn+IEJkb07QgkU8u8DiQAAAAAAAAAAAAAAAAAAAAAiAgLXL9DQ2QKTQ0rV/KFg8njgPGFEl6pOQlz0VOLBMw+WqxTMGK4IAAAAAAAAAAAAAAAAAAAAACICA0TYhBNt9VAgKGX/vGIYx/nIj+bOOclFeYGQuts4p1LxFPZc2GkAAAAAAAAAAAAAAAAAAAAAAAEAIgAgKSsFI1GjxvgNUbrmQsyIIRgok9vu2ryPXQ6Wd0dgJsEBAWlSIQMuEfmFUmhf6QfzH55yYMkG6N5wDww8ny8UEGI9zf0ZwCEDVFdXzjXPHt+xO54sSi+c4Aq4w2vuEryiM3zlg/0orsghAqPPtmZf5E91ILahtN4aTUZkOzhesf0eCrcO+5ZUKXVUU64iAgKjz7ZmX+RPdSC2obTeGk1GZDs4XrH9Hgq3DvuWVCl1VBT2XNhpAAAAAAAAAAAKAAAAAQAAACICAy4R+YVSaF/pB/MfnnJgyQbo3nAPDDyfLxQQYj3N/RnAFPLvA4kAAAAAAAAAAAoAAAABAAAAIgIDVFdXzjXPHt+xO54sSi+c4Aq4w2vuEryiM3zlg/0orsgUzBiuCAAAAAAAAAAACgAAAAEAAAAAAQFpUiEC1tEUC9LA+RTLMMmSqi/NKD9HGpKBzuyexsW8RI5oaQAhA7hVqHWO2mhjZIRFqdPPuVOIrKF0YhrZjwmaHE+TJv7HIQKV97Un0upTek1CgwQQq/Q0BzG/myDlSXIAGTO5qiNTbFOuIgIClfe1J9LqU3pNQoMEEKv0NAcxv5sg5UlyABkzuaojU2wU9lzYaQAAAAAAAAAAFAAAAAIAAAAiAgLW0RQL0sD5FMswyZKqL80oP0cakoHO7J7GxbxEjmhpABTy7wOJAAAAAAAAAAAUAAAAAgAAACICA7hVqHWO2mhjZIRFqdPPuVOIrKF0YhrZjwmaHE+TJv7HFMwYrggAAAAAAAAAABQAAAACAAAAAAEAaVIhAnW3o2P1KjiHgGZA82Y3dkWJBy4XbWtqh9fHVBB1dkylIQJMuJ9uP8jjgLzgDGp+FiT0wO5c8HY0i11yRZ15t46VDCEDTFl0wN7rjobIrI9s+lId2D1ITT+RAM/uDWr17RQgKLpTriICAky4n24/yOOAvOAMan4WJPTA7lzwdjSLXXJFnXm3jpUMFNStg3IAAAAAAAAAAAAAAAADAAAAIgICdbejY/UqOIeAZkDzZjd2RYkHLhdta2qH18dUEHV2TKUUVH9FdgAAAAAAAAAAAAAAAAMAAAAiAgNMWXTA3uuOhsisj2z6Uh3YPUhNP5EAz+4NavXtFCAouhRAXGW9AAAAAAAAAAAAAAAAAwAAAAAAAA==",
  "inputs": [
    {
      "hash": "d5df75305768ede101a3153cb6af28cc61cdca81651bdfa36aa7c4404349e5ed",
      "index": 0,
      "sequence": 4294967295
    },
    {
      "hash": "d9ac9ffc0b8e5d13ca3c017a88f20d22b311cf49accaa8dbcb4ed26f79559d9b",
      "index": 1,
      "sequence": 4294967295
    },
    {
      "hash": "0ea83e26f6b00326c142425612dcfa204230321dc87997af279371ce45c6d877",
      "index": 2,
      "sequence": 4294967295
    },
    {
      "hash": "b84a3071df6be74ff34ad2d03f746503b1e69d53409e28dd80c270d843bc66a9",
      "index": 3,
      "sequence": 4294967295
    }
  ],
  "psbtInputs": [
    {
      "type": "p2sh",
      "unknownKeyVals": [],
      "nonWitnessUtxo": "02000000010101010101010101010101010101010101010101010101010101010101010101000000006b483045022100f518bbcb85c8168523550b42096750a91e8ed0a2f93fbba45c7492a2247dc72602207ad562b158ce4d79d3c2eb7ae0a573f9a8413d95c3ff1611c297f7f1ce82a19f012103bd0c34b2373e387575cddb103ec03916c31044f2508e261fe3597a2680ecbd1fffffffff01d00700000000000017a914567cd7b44f9f3a07c3138f37bf984b60fbbaf2438700000000",
      "sighashType": 65,
      "bip32Derivation": [
        {
          "pubkey": "03f6f40764bd5d63f200a2778883acf75e96f15095c998263c087270d0c97e7e7f",
          "path": "0/0/1/0",
          "masterFingerprint": "f2ef0389"
        },
        {
          "pubkey": "035ffb7abc70159e0469f4b989a6d5e1785a2904169ff050b2f468fe5d3d5dbbf2",
          "path": "0/0/1/0",
          "masterFingerprint": "cc18ae08"
        },
        {
          "pubkey": "03e1524d7f6fc57ab3eacbb659b787106780a475d1db483952c2310b7e9a38975b",
          "path": "0/0/1/0",
          "masterFingerprint": "f65cd869"
        }
      ],
      "redeemScript": "522103f6f40764bd5d63f200a2778883acf75e96f15095c998263c087270d0c97e7e7f21035ffb7abc70159e0469f4b989a6d5e1785a2904169ff050b2f468fe5d3d5dbbf22103e1524d7f6fc57ab3eacbb659b787106780a475d1db483952c2310b7e9a38975b53ae",
      "partialSig": [
        {
          "pubkey": "03f6f40764bd5d63f200a2778883acf75e96f15095c998263c087270d0c97e7e7f",
          "signature": "30440220436b2df736aeb58e646e4562ff7104c811de13af1e4c18aa67d4cb867821d9d002206d2902bedc78c041b5f6b20e4386cdd22478f13b1fcfa528f1dda201c7d3861c41"
        },
        {
          "pubkey": "03e1524d7f6fc57ab3eacbb659b787106780a475d1db483952c2310b7e9a38975b",
          "signature": "304402205205ed9433879cecbf27185dfe0111528f0e37593c63a11a599db04676a0851602203dbd342a18d9ff598b2656883c8ea6cf9e4fc535a49756606e5a19749ae8cf7141"
        }
      ]
    },
    {
      "type": "p2shP2wsh",
      "unknownKeyVals": [],
      "witnessUtxo": {
        "script": "a9140e26b25d0ceae6f9cff3edaccaa0d1a70da7600f87",
        "value": "2000"
      },
      "sighashType": 65,
      "bip32Derivation": [
        {
          "pubkey": "02a585f3fab49b5ef95346d932221a221bd55ec191f15533e0f270b3582574f035",
          "path": "0/0/11/1",
          "masterFingerprint": "f2ef0389"
        },
        {
          "pubkey": "02c4f7866cfd5996bc1068a96313ca15e9ccb5e984583a07340dddae7af014605b",
          "path": "0/0/11/1",
          "masterFingerprint": "cc18ae08"
        },
        {
          "pubkey": "02234531bc9119a36a7946e95aeb74915dd087c7b44f517b8eeeb73f89a0ff1a99",
          "path": "0/0/11/1",
          "masterFingerprint": "f65cd869"
        }
      ],
      "witnessScript": "522102a585f3fab49b5ef95346d932221a221bd55ec191f15533e0f270b3582574f0352102c4f7866cfd5996bc1068a96313ca15e9ccb5e984583a07340dddae7af014605b2102234531bc9119a36a7946e95aeb74915dd087c7b44f517b8eeeb73f89a0ff1a9953ae",
      "redeemScript": "002046d4800a1393330196085399ed4a1700b4c2fd38c52188c3a3a91f721f3c9600",
      "partialSig": [
        {
          "pubkey": "02a585f3fab49b5ef95346d932221a221bd55ec191f15533e0f270b3582574f035",
          "signature": "3045022100f1188d31e5cf4ff031ab0550b310e0a7b799e8d27ae19d40f87a720083ae0b77022031f5f2313696c2f588d48ad5743ad16690475d6707311ac335aae8387ed5fab841"
        },
        {
          "pubkey": "02234531bc9119a36a7946e95aeb74915dd087c7b44f517b8eeeb73f89a0ff1a99",
          "signature": "3045022100f9ffda31ef5b6afde05f3e217b9794dbe13255a45b146c0e4da66ed50bbe783d02203598aa66dedd7d36772a026d4cf4e894780c83a03eb27a936b843bb346092d5041"
        }
      ]
    },
    {
      "type": "p2wsh",
      "unknownKeyVals": [],
      "witnessUtxo": {
        "script": "0020db0427f1822b4777670e6673c28af02f6da1d5afe71a71f5c9064470b229fafd",
        "value": "2000"
      },
      "sighashType": 65,
      "bip32Derivation": [
        {
          "pubkey": "03519e572ab468560d1f8d0f87699d098308e166905f5dcae4390f060faa8f1ce3",
          "path": "0/0/21/2",
          "masterFingerprint": "f2ef0389"
        },
        {
          "pubkey": "03a05bc26391221d685e18daaff36a1e95c34f99451253c16cd42650db278a7911",
          "path": "0/0/21/2",
          "masterFingerprint": "cc18ae08"
        },
        {
          "pubkey": "02e80a08885c353676b820cdc290e6d81a0ac95a03e8abbf4bb7aeebfb70feb418",
          "path": "0/0/21/2",
          "masterFingerprint": "f65cd869"
        }
      ],
      "witnessScript": "522103519e572ab468560d1f8d0f87699d098308e166905f5dcae4390f060faa8f1ce32103a05bc26391221d685e18daaff36a1e95c34f99451253c16cd42650db278a79112102e80a08885c353676b820cdc290e6d81a0ac95a03e8abbf4bb7aeebfb70feb41853ae",
      "partialSig": [
        {
          "pubkey": "03519e572ab468560d1f8d0f87699d098308e166905f5dcae4390f060faa8f1ce3",
          "signature": "3045022100ea0b0064d26d4fb6a22ced8dd25b970139fb97444ed75ca1169408384bf0b987022045a901e6f4f1395981489cfec922528240c02f278854c5b778ce7ab4f5b7b67c41"
        },
        {
          "pubkey": "02e80a08885c353676b820cdc290e6d81a0ac95a03e8abbf4bb7aeebfb70feb418",
          "signature": "3045022100b0fabcfb3567d5d2011ab6fbe1e49f7a34c08eb4e4c587e1bb2d66a4a7b8d4a1022056685674014227fb1f51c831db5e737cc677ceceec9f444856926c9c29bec32c41"
        }
      ]
    },
    {
      "type": "p2shP2pk",
      "unknownKeyVals": [],
      "redeemScript": "210336ef228ffe9b8efffba052c32d334660dd1f8366cf8fe44ae5aa672b6b629095ac",
      "nonWitnessUtxo": "02000000010101010101010101010101010101010101010101010101010101010101010101000000006a47304402206f4d1ca62a93b9a91b1ce6a3cb555c16549b416c7f72a91fbd83f08a9325b89d02204ff630ccace99f36686ef3e65dcc2f1113d1e22d7e880a43684931a4d6e32b1f012103bd0c34b2373e387575cddb103ec03916c31044f2508e261fe3597a2680ecbd1fffffffff04d0070000000000001976a914883ad8d1affdf8a73cbdaf7237b5c5ab9ec2c32688acd0070000000000001976a914883ad8d1affdf8a73cbdaf7237b5c5ab9ec2c32688acd0070000000000001976a914883ad8d1affdf8a73cbdaf7237b5c5ab9ec2c32688acd00700000000000017a91420b37094d82a513451ff0ccd9db23aba05bc5ef38700000000",
      "sighashType": 65,
      "partialSig": [
        {
          "pubkey": "0336ef228ffe9b8efffba052c32d334660dd1f8366cf8fe44ae5aa672b6b629095",
          "signature": "3044022003076c09c09c289bb6e5ba477f827aafd713c15b1fe567d442097175a2202ddc0220321d4c846923f4530e3c34a40c386ccad031586a919b63f5c16435c6b34e6db141"
        }
      ]
    }
  ],
  "psbtInputsFinalized": [
    {
      "type": "p2sh",
      "finalScriptSig": "004730440220436b2df736aeb58e646e4562ff7104c811de13af1e4c18aa67d4cb867821d9d002206d2902bedc78c041b5f6b20e4386cdd22478f13b1fcfa528f1dda201c7d3861c4147304402205205ed9433879cecbf27185dfe0111528f0e37593c63a11a599db04676a0851602203dbd342a18d9ff598b2656883c8ea6cf9e4fc535a49756606e5a19749ae8cf71414c69522103f6f40764bd5d63f200a2778883acf75e96f15095c998263c087270d0c97e7e7f21035ffb7abc70159e0469f4b989a6d5e1785a2904169ff050b2f468fe5d3d5dbbf22103e1524d7f6fc57ab3eacbb659b787106780a475d1db483952c2310b7e9a38975b53ae",
      "nonWitnessUtxo": "02000000010101010101010101010101010101010101010101010101010101010101010101000000006b483045022100f518bbcb85c8168523550b42096750a91e8ed0a2f93fbba45c7492a2247dc72602207ad562b158ce4d79d3c2eb7ae0a573f9a8413d95c3ff1611c297f7f1ce82a19f012103bd0c34b2373e387575cddb103ec03916c31044f2508e261fe3597a2680ecbd1fffffffff01d00700000000000017a914567cd7b44f9f3a07c3138f37bf984b60fbbaf2438700000000"
    },
    {
      "type": "p2shP2wsh",
      "witnessUtxo": {
        "script": "a9140e26b25d0ceae6f9cff3edaccaa0d1a70da7600f87",
        "value": "2000"
      },
      "finalScriptSig": "22002046d4800a1393330196085399ed4a1700b4c2fd38c52188c3a3a91f721f3c9600",
      "finalScriptWitness": "0400483045022100f1188d31e5cf4ff031ab0550b310e0a7b799e8d27ae19d40f87a720083ae0b77022031f5f2313696c2f588d48ad5743ad16690475d6707311ac335aae8387ed5fab841483045022100f9ffda31ef5b6afde05f3e217b9794dbe13255a45b146c0e4da66ed50bbe783d02203598aa66dedd7d36772a026d4cf4e894780c83a03eb27a936b843bb346092d504169522102a585f3fab49b5ef95346d932221a221bd55ec191f15533e0f270b3582574f0352102c4f7866cfd5996bc1068a96313ca15e9ccb5e984583a07340dddae7af014605b2102234531bc9119a36a7946e95aeb74915dd087c7b44f517b8eeeb73f89a0ff1a9953ae"
    },
    {
      "type": "p2wsh",
      "witnessUtxo": {
        "script": "0020db0427f1822b4777670e6673c28af02f6da1d5afe71a71f5c9064470b229fafd",
        "value": "2000"
      },
      "finalScriptWitness": "0400483045022100ea0b0064d26d4fb6a22ced8dd25b970139fb97444ed75ca1169408384bf0b987022045a901e6f4f1395981489cfec922528240c02f278854c5b778ce7ab4f5b7b67c41483045022100b0fabcfb3567d5d2011ab6fbe1e49f7a34c08eb4e4c587e1bb2d66a4a7b8d4a1022056685674014227fb1f51c831db5e737cc677ceceec9f444856926c9c29bec32c4169522103519e572ab468560d1f8d0f87699d098308e166905f5dcae4390f060faa8f1ce32103a05bc26391221d685e18daaff36a1e95c34f99451253c16cd42650db278a79112102e80a08885c353676b820cdc290e6d81a0ac95a03e8abbf4bb7aeebfb70feb41853ae"
    },
    {
      "type": "p2shP2pk",
      "finalScriptSig": "473044022003076c09c09c289bb6e5ba477f827aafd713c15b1fe567d442097175a2202ddc0220321d4c846923f4530e3c34a40c386ccad031586a919b63f5c16435c6b34e6db14123210336ef228ffe9b8efffba052c32d334660dd1f8366cf8fe44ae5aa672b6b629095ac",
      "nonWitnessUtxo": "02000000010101010101010101010101010101010101010101010101010101010101010101000000006a47304402206f4d1ca62a93b9a91b1ce6a3cb555c16549b416c7f72a91fbd83f08a9325b89d02204ff630ccace99f36686ef3e65dcc2f1113d1e22d7e880a43684931a4d6e32b1f012103bd0c34b2373e387575cddb103ec03916c31044f2508e261fe3597a2680ecbd1fffffffff04d0070000000000001976a914883ad8d1affdf8a73cbdaf7237b5c5ab9ec2c32688acd0070000000000001976a914883ad8d1affdf8a73cbdaf7237b5c5ab9ec2c32688acd0070000000000001976a914883ad8d1affdf8a73cbdaf7237b5c5ab9ec2c32688acd00700000000000017a91420b37094d82a513451ff0ccd9db23aba05bc5ef38700000000"
    }
  ],
  "outputs": [
    {
      "script": "a914d909474404c124a3d04c3fbff61faa49cf43c58b87",
      "value": "900",
      "address": "AbZTPoHNRTTSjDZ9bE8J9D874VkRavLrwz"
    },
    {
      "script": "a914054127121d37f32266cd967c485404976a67adf087",
      "value": "900",
      "address": "AGFf5Lj1EGacxeRPBeC3f78XBojSo3ZAJj"
    },
    {
      "script": "0020ba48e3f9874463943f90192a45f1ae895b779362a7629af7ad6a9d7a835e3d4f",
      "value": "900",
      "address": "btg1qhfyw87v8g33eg0usry4ytudw39dh0ymz5a3f4aadd2wh4q67848swaqfkk"
    },
    {
      "script": "a914fc641891604bde705629300b6e8de5f67dd3926287",
      "value": "900",
      "address": "AenPqdTXxV58yXBZAq3PwLpwgFxo33AAHd"
    },
    {
      "script": "a914f6cf65029673cf92e0b0e6908c5ab90795316a2d87",
      "value": "900",
      "address": "AeGtKiUuqA34sq13vsgHSdnTxhyVJpneYJ"
    },
    {
      "script": "6a0f736574656320617374726f6e6f6d79",
      "value": "0"
    }
  ],
  "psbtOutputs": [
    {
      "unknownKeyVals": [],
      "bip32Derivation": [
        {
          "pubkey": "02cc4d0fa411cac244486f8eb2c08e035ff7410f460a359ca7f8810991bd3b4209",
          "path": "0/0/0/0",
          "masterFingerprint": "f2ef0389"
        },
        {
          "pubkey": "02d72fd0d0d90293434ad5fca160f278e03c614497aa4e425cf454e2c1330f96ab",
          "path": "0/0/0/0",
          "masterFingerprint": "cc18ae08"
        },
        {
          "pubkey": "0344d884136df550202865ffbc6218c7f9c88fe6ce39c945798190badb38a752f1",
          "path": "0/0/0/0",
          "masterFingerprint": "f65cd869"
        }
      ],
      "redeemScript": "522102cc4d0fa411cac244486f8eb2c08e035ff7410f460a359ca7f8810991bd3b42092102d72fd0d0d90293434ad5fca160f278e03c614497aa4e425cf454e2c1330f96ab210344d884136df550202865ffbc6218c7f9c88fe6ce39c945798190badb38a752f153ae"
    },
    {
      "unknownKeyVals": [],
      "bip32Derivation": [
        {
          "pubkey": "032e11f98552685fe907f31f9e7260c906e8de700f0c3c9f2f1410623dcdfd19c0",
          "path": "0/0/10/1",
          "masterFingerprint": "f2ef0389"
        },
        {
          "pubkey": "03545757ce35cf1edfb13b9e2c4a2f9ce00ab8c36bee12bca2337ce583fd28aec8",
          "path": "0/0/10/1",
          "masterFingerprint": "cc18ae08"
        },
        {
          "pubkey": "02a3cfb6665fe44f7520b6a1b4de1a4d46643b385eb1fd1e0ab70efb9654297554",
          "path": "0/0/10/1",
          "masterFingerprint": "f65cd869"
        }
      ],
      "witnessScript": "5221032e11f98552685fe907f31f9e7260c906e8de700f0c3c9f2f1410623dcdfd19c02103545757ce35cf1edfb13b9e2c4a2f9ce00ab8c36bee12bca2337ce583fd28aec82102a3cfb6665fe44f7520b6a1b4de1a4d46643b385eb1fd1e0ab70efb965429755453ae",
      "redeemScript": "0020292b052351a3c6f80d51bae642cc8821182893dbeedabc8f5d0e9677476026c1"
    },
    {
      "unknownKeyVals": [],
      "bip32Derivation": [
        {
          "pubkey": "02d6d1140bd2c0f914cb30c992aa2fcd283f471a9281ceec9ec6c5bc448e686900",
          "path": "0/0/20/2",
          "masterFingerprint": "f2ef0389"
        },
        {
          "pubkey": "03b855a8758eda6863648445a9d3cfb95388aca174621ad98f099a1c4f9326fec7",
          "path": "0/0/20/2",
          "masterFingerprint": "cc18ae08"
        },
        {
          "pubkey": "0295f7b527d2ea537a4d42830410abf4340731bf9b20e54972001933b9aa23536c",
          "path": "0/0/20/2",
          "masterFingerprint": "f65cd869"
        }
      ],
      "witnessScript": "522102d6d1140bd2c0f914cb30c992aa2fcd283f471a9281ceec9ec6c5bc448e6869002103b855a8758eda6863648445a9d3cfb95388aca174621ad98f099a1c4f9326fec7210295f7b527d2ea537a4d42830410abf4340731bf9b20e54972001933b9aa23536c53ae"
    },
    {
      "unknownKeyVals": [],
      "bip32Derivation": [
        {
          "pubkey": "0275b7a363f52a3887806640f36637764589072e176d6b6a87d7c7541075764ca5",
          "path": "0/0/0/3",
          "masterFingerprint": "547f4576"
        },
        {
          "pubkey": "024cb89f6e3fc8e380bce00c6a7e1624f4c0ee5cf076348b5d72459d79b78e950c",
          "path": "0/0/0/3",
          "masterFingerprint": "d4ad8372"
        },
        {
          "pubkey": "034c5974c0deeb8e86c8ac8f6cfa521dd83d484d3f9100cfee0d6af5ed142028ba",
          "path": "0/0/0/3",
          "masterFingerprint": "405c65bd"
        }
      ],
      "redeemScript": "52210275b7a363f52a3887806640f36637764589072e176d6b6a87d7c7541075764ca521024cb89f6e3fc8e380bce00c6a7e1624f4c0ee5cf076348b5d72459d79b78e950c21034c5974c0deeb8e86c8ac8f6cfa521dd83d484d3f9100cfee0d6af5ed142028ba53ae"
    },
    {
      "unknownKeyVals": []
    },
    {
      "unknownKeyVals": []
    }
  ],
  "extractedTransaction": "02000000000104d5df75305768ede101a3153cb6af28cc61cdca81651bdfa36aa7c4404349e5ed00000000fc004730440220436b2df736aeb58e646e4562ff7104c811de13af1e4c18aa67d4cb867821d9d002206d2902bedc78c041b5f6b20e4386cdd22478f13b1fcfa528f1dda201c7d3861c4147304402205205ed9433879cecbf27185dfe0111528f0e37593c63a11a599db04676a0851602203dbd342a18d9ff598b2656883c8ea6cf9e4fc535a49756606e5a19749ae8cf71414c69522103f6f40764bd5d63f200a2778883acf75e96f15095c998263c087270d0c97e7e7f21035ffb7abc70159e0469f4b989a6d5e1785a2904169ff050b2f468fe5d3d5dbbf22103e1524d7f6fc57ab3eacbb659b787106780a475d1db483952c2310b7e9a38975b53aeffffffffd9ac9ffc0b8e5d13ca3c017a88f20d22b311cf49accaa8dbcb4ed26f79559d9b010000002322002046d4800a1393330196085399ed4a1700b4c2fd38c52188c3a3a91f721f3c9600ffffffff0ea83e26f6b00326c142425612dcfa204230321dc87997af279371ce45c6d8770200000000ffffffffb84a3071df6be74ff34ad2d03f746503b1e69d53409e28dd80c270d843bc66a9030000006c473044022003076c09c09c289bb6e5ba477f827aafd713c15b1fe567d442097175a2202ddc0220321d4c846923f4530e3c34a40c386ccad031586a919b63f5c16435c6b34e6db14123210336ef228ffe9b8efffba052c32d334660dd1f8366cf8fe44ae5aa672b6b629095acffffffff06840300000000000017a914d909474404c124a3d04c3fbff61faa49cf43c58b87840300000000000017a914054127121d37f32266cd967c485404976a67adf0878403000000000000220020ba48e3f9874463943f90192a45f1ae895b779362a7629af7ad6a9d7a835e3d4f840300000000000017a914fc641891604bde705629300b6e8de5f67dd3926287840300000000000017a914f6cf65029673cf92e0b0e6908c5ab90795316a2d870000000000000000116a0f736574656320617374726f6e6f6d79000400483045022100f1188d31e5cf4ff031ab0550b310e0a7b799e8d27ae19d40f87a720083ae0b77022031f5f2313696c2f588d48ad5743ad16690475d6707311ac335aae8387ed5fab841483045022100f9ffda31ef5b6afde05f3e217b9794dbe13255a45b146c0e4da66ed50bbe783d02203598aa66dedd7d36772a026d4cf4e894780c83a03eb27a936b843bb346092d504169522102a585f3fab49b5ef95346d932221a221bd55ec191f15533e0f270b3582574f0352102c4f7866cfd5996bc1068a96313ca15e9ccb5e984583a07340dddae7af014605b2102234531bc9119a36a7946e95aeb74915dd087c7b44f517b8eeeb73f89a0ff1a9953ae0400483045022100ea0b0064d26d4fb6a22ced8dd25b970139fb97444ed75ca1169408384bf0b987022045a901e6f4f1395981489cfec922528240c02f278854c5b778ce7ab4f5b7b67c41483045022100b0fabcfb3567d5d2011ab6fbe1e49f7a34c08eb4e4c587e1bb2d66a4a7b8d4a1022056685674014227fb1f51c831db5e737cc677ceceec9f444856926c9c29bec32c4169522103519e572ab468560d1f8d0f87699d098308e166905f5dcae4390f060faa8f1ce32103a05bc26391221d685e18daaff36a1e95c34f99451253c16cd42650db278a79112102e80a08885c353676b820cdc290e6d81a0ac95a03e8abbf4bb7aeebfb70feb41853ae0000000000"
}
