{
  "valid": {
    "multisig": [
      {
        "description": "P2SH 2-of-3 multisig, signed by key 1 and 2 (Dash)",
        "network": "dash",
        "version": 2,
        "locktime": 0,
        "inputs": [
          {
            "txId": "8589b1372f928bf40e5fa434bb2df7f4d6b0c0ff8c698ed1573099bc385446f2",
            "vout": 0,
            "redeemScriptHex": "522102fa7a51471c13df1b87ed6687be9ebc746b2801230592d7541061eddcc91c5b3d210363945f699f409787e6348b0bb5dbd0fe795cf7d0133ced5e13e8aa3c26db761121035ce5bf6521535490e39b6516e8c55986cf8bd13e33b8044a71ba61d3c8e01fac53ae",
            "sequence": 4294967295,
            "signs": [
              {
                "pubKeyIndex": 0,
                "keyPair": "XDG95UrXfoy1sRtfftWhbcwJD4U5FZj1nR1rhqzNf43CzkEAvESU",
                "scriptSig": "OP_0 304402200685dca480d2fbdede321e6a8dacc495105b77d13ed1050d097f74fd297efbaa0220141209e112e838036bdf1757a7984df21df23fd735c77a9f2ad1025f1ee7af6501 OP_0 OP_0 522102fa7a51471c13df1b87ed6687be9ebc746b2801230592d7541061eddcc91c5b3d210363945f699f409787e6348b0bb5dbd0fe795cf7d0133ced5e13e8aa3c26db761121035ce5bf6521535490e39b6516e8c55986cf8bd13e33b8044a71ba61d3c8e01fac53ae"
              },
              {
                "pubKeyIndex": 1,
                "keyPair": "XHpynJEvTASKUfdWx2eLWmQgGEeumifNhoJheU7tbJVZXwWcuKJm",
                "scriptSig": "OP_0 304402200685dca480d2fbdede321e6a8dacc495105b77d13ed1050d097f74fd297efbaa0220141209e112e838036bdf1757a7984df21df23fd735c77a9f2ad1025f1ee7af6501 304402203f205962349dc4da062c15b73126b38f5e5e8016fe317e3dcb59bcdded117fbd022036386f24da402f821d259557b521561d78079069f5c80f4c8993a8a8af610e8301 OP_0 522102fa7a51471c13df1b87ed6687be9ebc746b2801230592d7541061eddcc91c5b3d210363945f699f409787e6348b0bb5dbd0fe795cf7d0133ced5e13e8aa3c26db761121035ce5bf6521535490e39b6516e8c55986cf8bd13e33b8044a71ba61d3c8e01fac53ae"
              }
            ]
          }
        ],
        "outputs": [
          {
            "script": "OP_DUP OP_HASH160 ae4038c16a7a946e5d880f7ba74278ca24ea7245 OP_EQUALVERIFY OP_CHECKSIG",
            "value": 200000
          }
        ],
        "txHex": "0200000001f2465438bc993057d18e698cffc0b0d6f4f72dbb34a45f0ef48b922f37b1898500000000fc0047304402200685dca480d2fbdede321e6a8dacc495105b77d13ed1050d097f74fd297efbaa0220141209e112e838036bdf1757a7984df21df23fd735c77a9f2ad1025f1ee7af650147304402203f205962349dc4da062c15b73126b38f5e5e8016fe317e3dcb59bcdded117fbd022036386f24da402f821d259557b521561d78079069f5c80f4c8993a8a8af610e83014c69522102fa7a51471c13df1b87ed6687be9ebc746b2801230592d7541061eddcc91c5b3d210363945f699f409787e6348b0bb5dbd0fe795cf7d0133ced5e13e8aa3c26db761121035ce5bf6521535490e39b6516e8c55986cf8bd13e33b8044a71ba61d3c8e01fac53aeffffffff01400d0300000000001976a914ae4038c16a7a946e5d880f7ba74278ca24ea724588ac00000000"
      },
      {
        "description": "P2SH 2-of-3 multisig, signed by key 1 and 2 (Dash) - brodcasted",
        "url_comment": "https://live.blockcypher.com/dash/tx/b87dd9fd8e0983f90a709a53c152f3acab1525c2acbaf53da3f86ce21ccab185",
        "network": "dash",
        "version": 2,
        "locktime": 0,
        "inputs": [
          {
            "txId": "8589b1372f928bf40e5fa434bb2df7f4d6b0c0ff8c698ed1573099bc385446f2",
            "vout": 0,
            "redeemScriptHex": "522102fa7a51471c13df1b87ed6687be9ebc746b2801230592d7541061eddcc91c5b3d210363945f699f409787e6348b0bb5dbd0fe795cf7d0133ced5e13e8aa3c26db761121035ce5bf6521535490e39b6516e8c55986cf8bd13e33b8044a71ba61d3c8e01fac53ae",
            "sequence": 4294967295,
            "signs": [
              {
                "pubKeyIndex": 0,
                "keyPair": "XDG95UrXfoy1sRtfftWhbcwJD4U5FZj1nR1rhqzNf43CzkEAvESU",
                "scriptSig": "OP_0 3045022100e3c06a8448983adf926359de08b0682357a3277a7b053a272aafaa1dc343af6b02205492b653adc286dae6992ecb176768c9b94c35929441d4ee94a4903d875ba9be01 OP_0 OP_0 522102fa7a51471c13df1b87ed6687be9ebc746b2801230592d7541061eddcc91c5b3d210363945f699f409787e6348b0bb5dbd0fe795cf7d0133ced5e13e8aa3c26db761121035ce5bf6521535490e39b6516e8c55986cf8bd13e33b8044a71ba61d3c8e01fac53ae"
              },
              {
                "pubKeyIndex": 1,
                "keyPair": "XHpynJEvTASKUfdWx2eLWmQgGEeumifNhoJheU7tbJVZXwWcuKJm",
                "scriptSig": "OP_0 3045022100e3c06a8448983adf926359de08b0682357a3277a7b053a272aafaa1dc343af6b02205492b653adc286dae6992ecb176768c9b94c35929441d4ee94a4903d875ba9be01 30450221009b5c66a102dd970d6d7d49b9460b7e0d306f3182bf95a01682c65dc197405cca02205fe76995ea1c8973b391377e9d2c7a6835f5b8104879bd9a11fcb1d680136c7501 OP_0 522102fa7a51471c13df1b87ed6687be9ebc746b2801230592d7541061eddcc91c5b3d210363945f699f409787e6348b0bb5dbd0fe795cf7d0133ced5e13e8aa3c26db761121035ce5bf6521535490e39b6516e8c55986cf8bd13e33b8044a71ba61d3c8e01fac53ae"
              }
            ]
          }
        ],
        "outputs": [
          {
            "script": "OP_DUP OP_HASH160 ae4038c16a7a946e5d880f7ba74278ca24ea7245 OP_EQUALVERIFY OP_CHECKSIG",
            "value": 190000
          }
        ],
        "txHex": "0200000001f2465438bc993057d18e698cffc0b0d6f4f72dbb34a45f0ef48b922f37b1898500000000fdfe0000483045022100e3c06a8448983adf926359de08b0682357a3277a7b053a272aafaa1dc343af6b02205492b653adc286dae6992ecb176768c9b94c35929441d4ee94a4903d875ba9be014830450221009b5c66a102dd970d6d7d49b9460b7e0d306f3182bf95a01682c65dc197405cca02205fe76995ea1c8973b391377e9d2c7a6835f5b8104879bd9a11fcb1d680136c75014c69522102fa7a51471c13df1b87ed6687be9ebc746b2801230592d7541061eddcc91c5b3d210363945f699f409787e6348b0bb5dbd0fe795cf7d0133ced5e13e8aa3c26db761121035ce5bf6521535490e39b6516e8c55986cf8bd13e33b8044a71ba61d3c8e01fac53aeffffffff0130e60200000000001976a914ae4038c16a7a946e5d880f7ba74278ca24ea724588ac00000000"
      },
      {
        "description": "P2SH 2-of-3 multisig, signed by key 1 and 2 (Dash testnet)",
        "network": "dashTest",
        "version": 2,
        "locktime": 0,
        "inputs": [
          {
            "txId": "e1af441c1a5c4620d1fc93b69d7b431c3458e19c5f6a80fbc6fe313071ebf16f",
            "vout": 1,
            "redeemScriptHex": "5221038660a0cbabd9ce718448a5c23942d1f0600a37a5c28fd5a3928e10baf5bc83c121025ab146c08163c11ad3a36d2a0af58096d33f2598eeb6a4013f536544f3bba22b2102b071038877ffff14dff399edf90f0a9abde14b4b462bf18ab9ae7cc5867292c453ae",
            "sequence": 4294967295,
            "signs": [
              {
                "pubKeyIndex": 0,
                "keyPair": "cRAq2kUQEDq3x9cmo1LA9aTM25txUJWmP8UXKuYfKWTbn6UibsmC",
                "scriptSig": "OP_0 3045022100cfa7bec4546a26c407e726f4b27908b097817e37ecc13a96fe20e7819c5d67ce02202c1b61e028171a67da4811e391d4482b0fb1f43d0403f0e96ec29fbfa606bcf801 OP_0 OP_0 5221038660a0cbabd9ce718448a5c23942d1f0600a37a5c28fd5a3928e10baf5bc83c121025ab146c08163c11ad3a36d2a0af58096d33f2598eeb6a4013f536544f3bba22b2102b071038877ffff14dff399edf90f0a9abde14b4b462bf18ab9ae7cc5867292c453ae"
              },
              {
                "pubKeyIndex": 1,
                "keyPair": "cVxjhma6hGFGjesyuNk6SNb7xQRcN9YV4UZeEtEdCgoH7T2HdTnF",
                "scriptSig": "OP_0 3045022100cfa7bec4546a26c407e726f4b27908b097817e37ecc13a96fe20e7819c5d67ce02202c1b61e028171a67da4811e391d4482b0fb1f43d0403f0e96ec29fbfa606bcf801 30450221009227b218c40d1f0c441c9f3a77091106c6121bb5219d7fd9e7f36b62510584080220418f2456c3d6eeb9a2613ae7ef36115c47ac2d1dfe7edda7d43dee9b2de4b6d501 OP_0 5221038660a0cbabd9ce718448a5c23942d1f0600a37a5c28fd5a3928e10baf5bc83c121025ab146c08163c11ad3a36d2a0af58096d33f2598eeb6a4013f536544f3bba22b2102b071038877ffff14dff399edf90f0a9abde14b4b462bf18ab9ae7cc5867292c453ae"
              }
            ]
          }
        ],
        "outputs": [
          {
            "script": "OP_DUP OP_HASH160 323a8b6425ea6f8dafd411db13bc303219a9e4f0 OP_EQUALVERIFY OP_CHECKSIG",
            "value": 100000000
          }
        ],
        "txHex": "02000000016ff1eb713031fec6fb806a5f9ce158341c437b9db693fcd120465c1a1c44afe101000000fdfe0000483045022100cfa7bec4546a26c407e726f4b27908b097817e37ecc13a96fe20e7819c5d67ce02202c1b61e028171a67da4811e391d4482b0fb1f43d0403f0e96ec29fbfa606bcf8014830450221009227b218c40d1f0c441c9f3a77091106c6121bb5219d7fd9e7f36b62510584080220418f2456c3d6eeb9a2613ae7ef36115c47ac2d1dfe7edda7d43dee9b2de4b6d5014c695221038660a0cbabd9ce718448a5c23942d1f0600a37a5c28fd5a3928e10baf5bc83c121025ab146c08163c11ad3a36d2a0af58096d33f2598eeb6a4013f536544f3bba22b2102b071038877ffff14dff399edf90f0a9abde14b4b462bf18ab9ae7cc5867292c453aeffffffff0100e1f505000000001976a914323a8b6425ea6f8dafd411db13bc303219a9e4f088ac00000000"
      }
    ]
  }
}
