{
  "transaction": {
    "txid": "1c7e84246bfdc54bc8f05392cb87a55e8a82c2db4ac6ac27b83c6e64654d0154",
    "hash": "b5ef030751badf9476304f2ba7fa91688619a23016a448eea3eae0a4af56fd12",
    "version": 2,
    "size": 760,
    "vsize": 438,
    "weight": 1750,
    "locktime": 2001,
    "vin": [
      {
        "txid": "b9e99416f9192086a0717a332fa8d731b7eec25b7b01374e643263bce600b3b5",
        "vout": 0,
        "scriptSig": {
          "asm": "001426776210a97f23f913d0b8c6d0798707194eee51",
          "hex": "16001426776210a97f23f913d0b8c6d0798707194eee51"
        },
        "txinwitness": [
          "30440220628216ca0c543e79ae185eeb921b59449b5cae9a2dc363bcec744c403ef69f96022055ca94d002c6b1ec548ed9efbe8da8d3de3d3aeffce4112b9bd2af6d0e179bae41",
          "0206bdf1cc6a86ce3aa5fefd33f21394f8a642c6832bf4bb888c06abf8b123d528"
        ],
        "sequence": 4294967294
      },
      {
        "txid": "594fc3f1fd83056f7bfda69817916fc91831d4607cc9fe37c72162d538e41d2c",
        "vout": 0,
        "scriptSig": {
          "asm": "001426776210a97f23f913d0b8c6d0798707194eee51",
          "hex": "16001426776210a97f23f913d0b8c6d0798707194eee51"
        },
        "txinwitness": [
          "3044022005e1372111935e69906a876b51f975896b2e1fac006d85303066f1411f1d650502202a5b6aa047b7425d8a22aa6af4780458865e432296fb7283f5e4ea5157764edd41",
          "0206bdf1cc6a86ce3aa5fefd33f21394f8a642c6832bf4bb888c06abf8b123d528"
        ],
        "sequence": 4294967294
      },
      {
        "txid": "4e4e6f1eb728472845f68d57b00a9c3b6a95696f50ac3c81e98bd42c49cacb2f",
        "vout": 0,
        "scriptSig": {
          "asm": "001426776210a97f23f913d0b8c6d0798707194eee51",
          "hex": "16001426776210a97f23f913d0b8c6d0798707194eee51"
        },
        "txinwitness": [
          "304402205e8e0dc7d2e573fc2c60c650abc50d8e35f6b2a4811276aa10b6ee99e264e4dd02202c00a03dafe97b3bfaa3a1c6a067fbf78e2d513def623fcbbbbc074b2d559c0541",
          "0206bdf1cc6a86ce3aa5fefd33f21394f8a642c6832bf4bb888c06abf8b123d528"
        ],
        "sequence": 4294967294
      },
      {
        "txid": "44241bfe5e855baa4e9535f7f9cd508231e56ae35d8479d7f610d640f85b3da2",
        "vout": 0,
        "scriptSig": {
          "asm": "001426776210a97f23f913d0b8c6d0798707194eee51",
          "hex": "16001426776210a97f23f913d0b8c6d0798707194eee51"
        },
        "txinwitness": [
          "3044022073e25ed905fa7901aa2eb50130f3061d885403a4b80a8f64f20b0ff737b3911002203e082994cf29072f025a39fa53a6fd0a95eb68ac39aa44e4facea7c8f2422df441",
          "0206bdf1cc6a86ce3aa5fefd33f21394f8a642c6832bf4bb888c06abf8b123d528"
        ],
        "sequence": 4294967294
      }
    ],
    "vout": [
      {
        "value": 0.01309599,
        "n": 0,
        "scriptPubKey": {
          "asm": "OP_HASH160 150324f4821ba006ef77e5e1d9c48c3b954ade46 OP_EQUAL",
          "hex": "a914150324f4821ba006ef77e5e1d9c48c3b954ade4687",
          "reqSigs": 1,
          "type": "scripthash",
          "addresses": [
            "2MuAKwnYbBHkwZfZ21f3zbziBXW68eQNDh5"
          ]
        }
      },
      {
        "value": 1,
        "n": 1,
        "scriptPubKey": {
          "asm": "OP_HASH160 fe5cc5d87e3348a5f3eaa316898a0f05d520876e OP_EQUAL",
          "hex": "a914fe5cc5d87e3348a5f3eaa316898a0f05d520876e87",
          "reqSigs": 1,
          "type": "scripthash",
          "addresses": [
            "2NGSAkyhiWMZPcrfiwmcRWf9HQgpsiRGKv4"
          ]
        }
      }
    ],
    "hex": "02000000000104b5b300e6bc6332644e37017b5bc2eeb731d7a82f337a71a0862019f91694e9b9000000001716001426776210a97f23f913d0b8c6d0798707194eee51feffffff2c1de438d56221c737fec97c60d43118c96f911798a6fd7b6f0583fdf1c34f59000000001716001426776210a97f23f913d0b8c6d0798707194eee51feffffff2fcbca492cd48be9813cac506f69956a3b9c0ab0578df645284728b71e6f4e4e000000001716001426776210a97f23f913d0b8c6d0798707194eee51feffffffa23d5bf840d610f6d779845de36ae5318250cdf9f735954eaa5b855efe1b2444000000001716001426776210a97f23f913d0b8c6d0798707194eee51feffffff029ffb13000000000017a914150324f4821ba006ef77e5e1d9c48c3b954ade468700e1f5050000000017a914fe5cc5d87e3348a5f3eaa316898a0f05d520876e87024730440220628216ca0c543e79ae185eeb921b59449b5cae9a2dc363bcec744c403ef69f96022055ca94d002c6b1ec548ed9efbe8da8d3de3d3aeffce4112b9bd2af6d0e179bae41210206bdf1cc6a86ce3aa5fefd33f21394f8a642c6832bf4bb888c06abf8b123d52802473044022005e1372111935e69906a876b51f975896b2e1fac006d85303066f1411f1d650502202a5b6aa047b7425d8a22aa6af4780458865e432296fb7283f5e4ea5157764edd41210206bdf1cc6a86ce3aa5fefd33f21394f8a642c6832bf4bb888c06abf8b123d5280247304402205e8e0dc7d2e573fc2c60c650abc50d8e35f6b2a4811276aa10b6ee99e264e4dd02202c00a03dafe97b3bfaa3a1c6a067fbf78e2d513def623fcbbbbc074b2d559c0541210206bdf1cc6a86ce3aa5fefd33f21394f8a642c6832bf4bb888c06abf8b123d52802473044022073e25ed905fa7901aa2eb50130f3061d885403a4b80a8f64f20b0ff737b3911002203e082994cf29072f025a39fa53a6fd0a95eb68ac39aa44e4facea7c8f2422df441210206bdf1cc6a86ce3aa5fefd33f21394f8a642c6832bf4bb888c06abf8b123d528d1070000"
  },
  "inputs": [
    {
      "txid": "b9e99416f9192086a0717a332fa8d731b7eec25b7b01374e643263bce600b3b5",
      "hash": "726b66643e5015217890e425ef8fb91419b3388dac96aae86e74a9865208f4a9",
      "version": 2,
      "size": 171,
      "vsize": 144,
      "weight": 576,
      "locktime": 0,
      "vin": [
        {
          "coinbase": "0228050101",
          "sequence": 4294967295
        }
      ],
      "vout": [
        {
          "value": 0.1953125,
          "n": 0,
          "scriptPubKey": {
            "asm": "OP_HASH160 50b6e6ea0ddc13d8ac720d72fd84943e43de56d7 OP_EQUAL",
            "hex": "a91450b6e6ea0ddc13d8ac720d72fd84943e43de56d787",
            "reqSigs": 1,
            "type": "scripthash",
            "addresses": [
              "2Mzc19tGZj6Y8GWJJhWcbmUdaWQhi63S2vM"
            ]
          }
        },
        {
          "value": 0,
          "n": 1,
          "scriptPubKey": {
            "asm": "OP_RETURN aa21a9ede2f61c3f71d1defd3fa999dfa36953755c690689799962b48bebd836974e8cf9",
            "hex": "6a24aa21a9ede2f61c3f71d1defd3fa999dfa36953755c690689799962b48bebd836974e8cf9",
            "type": "nulldata"
          }
        }
      ],
      "hex": "020000000001010000000000000000000000000000000000000000000000000000000000000000ffffffff050228050101ffffffff02f2052a010000000017a91450b6e6ea0ddc13d8ac720d72fd84943e43de56d7870000000000000000266a24aa21a9ede2f61c3f71d1defd3fa999dfa36953755c690689799962b48bebd836974e8cf90120000000000000000000000000000000000000000000000000000000000000000000000000",
      "blockhash": "35ead4ed9e058c3587cebcdb57581c40fec518d8bbe46842501346a2c492916c",
      "confirmations": 682,
      "time": 1640270324,
      "blocktime": 1640270324
    },
    {
      "txid": "594fc3f1fd83056f7bfda69817916fc91831d4607cc9fe37c72162d538e41d2c",
      "hash": "cdab770f7fa54b3ae568496511182bcf732092ae820d97919bc25ea05d0e11a0",
      "version": 2,
      "size": 171,
      "vsize": 144,
      "weight": 576,
      "locktime": 0,
      "vin": [
        {
          "coinbase": "0231070101",
          "sequence": 4294967295
        }
      ],
      "vout": [
        {
          "value": 0.01220703,
          "n": 0,
          "scriptPubKey": {
            "asm": "OP_HASH160 50b6e6ea0ddc13d8ac720d72fd84943e43de56d7 OP_EQUAL",
            "hex": "a91450b6e6ea0ddc13d8ac720d72fd84943e43de56d787",
            "reqSigs": 1,
            "type": "scripthash",
            "addresses": [
              "2Mzc19tGZj6Y8GWJJhWcbmUdaWQhi63S2vM"
            ]
          }
        },
        {
          "value": 0,
          "n": 1,
          "scriptPubKey": {
            "asm": "OP_RETURN aa21a9ede2f61c3f71d1defd3fa999dfa36953755c690689799962b48bebd836974e8cf9",
            "hex": "6a24aa21a9ede2f61c3f71d1defd3fa999dfa36953755c690689799962b48bebd836974e8cf9",
            "type": "nulldata"
          }
        }
      ],
      "hex": "020000000001010000000000000000000000000000000000000000000000000000000000000000ffffffff050231070101ffffffff025fa012000000000017a91450b6e6ea0ddc13d8ac720d72fd84943e43de56d7870000000000000000266a24aa21a9ede2f61c3f71d1defd3fa999dfa36953755c690689799962b48bebd836974e8cf90120000000000000000000000000000000000000000000000000000000000000000000000000",
      "blockhash": "4e96f6247fe57d82ce2128eabf1c6ae44c0f6f189fb0c197ba5cb4727bcfca91",
      "confirmations": 161,
      "time": 1640270411,
      "blocktime": 1640270411
    },
    {
      "txid": "4e4e6f1eb728472845f68d57b00a9c3b6a95696f50ac3c81e98bd42c49cacb2f",
      "hash": "a5abac0d239fce92ca8b8243cf9f6b18d4690c85787ba981171bfbfa080235ed",
      "version": 2,
      "size": 171,
      "vsize": 144,
      "weight": 576,
      "locktime": 0,
      "vin": [
        {
          "coinbase": "02ee060101",
          "sequence": 4294967295
        }
      ],
      "vout": [
        {
          "value": 0.02441406,
          "n": 0,
          "scriptPubKey": {
            "asm": "OP_HASH160 50b6e6ea0ddc13d8ac720d72fd84943e43de56d7 OP_EQUAL",
            "hex": "a91450b6e6ea0ddc13d8ac720d72fd84943e43de56d787",
            "reqSigs": 1,
            "type": "scripthash",
            "addresses": [
              "2Mzc19tGZj6Y8GWJJhWcbmUdaWQhi63S2vM"
            ]
          }
        },
        {
          "value": 0,
          "n": 1,
          "scriptPubKey": {
            "asm": "OP_RETURN aa21a9ede2f61c3f71d1defd3fa999dfa36953755c690689799962b48bebd836974e8cf9",
            "hex": "6a24aa21a9ede2f61c3f71d1defd3fa999dfa36953755c690689799962b48bebd836974e8cf9",
            "type": "nulldata"
          }
        }
      ],
      "hex": "020000000001010000000000000000000000000000000000000000000000000000000000000000ffffffff0502ee060101ffffffff02be4025000000000017a91450b6e6ea0ddc13d8ac720d72fd84943e43de56d7870000000000000000266a24aa21a9ede2f61c3f71d1defd3fa999dfa36953755c690689799962b48bebd836974e8cf90120000000000000000000000000000000000000000000000000000000000000000000000000",
      "blockhash": "22412992eb963d22b939a00d3f36b750039d3f294206468dd1ee81c6160b19c3",
      "confirmations": 228,
      "time": 1640270400,
      "blocktime": 1640270400
    },
    {
      "txid": "44241bfe5e855baa4e9535f7f9cd508231e56ae35d8479d7f610d640f85b3da2",
      "hash": "c634173c00bae07124ed7840ec5e2b2df2490c7254d1ef83a4b612099e3e8b4d",
      "version": 2,
      "size": 171,
      "vsize": 144,
      "weight": 576,
      "locktime": 0,
      "vin": [
        {
          "coinbase": "02b0030101",
          "sequence": 4294967295
        }
      ],
      "vout": [
        {
          "value": 0.78125,
          "n": 0,
          "scriptPubKey": {
            "asm": "OP_HASH160 50b6e6ea0ddc13d8ac720d72fd84943e43de56d7 OP_EQUAL",
            "hex": "a91450b6e6ea0ddc13d8ac720d72fd84943e43de56d787",
            "reqSigs": 1,
            "type": "scripthash",
            "addresses": [
              "2Mzc19tGZj6Y8GWJJhWcbmUdaWQhi63S2vM"
            ]
          }
        },
        {
          "value": 0,
          "n": 1,
          "scriptPubKey": {
            "asm": "OP_RETURN aa21a9ede2f61c3f71d1defd3fa999dfa36953755c690689799962b48bebd836974e8cf9",
            "hex": "6a24aa21a9ede2f61c3f71d1defd3fa999dfa36953755c690689799962b48bebd836974e8cf9",
            "type": "nulldata"
          }
        }
      ],
      "hex": "020000000001010000000000000000000000000000000000000000000000000000000000000000ffffffff0502b0030101ffffffff02c817a8040000000017a91450b6e6ea0ddc13d8ac720d72fd84943e43de56d7870000000000000000266a24aa21a9ede2f61c3f71d1defd3fa999dfa36953755c690689799962b48bebd836974e8cf90120000000000000000000000000000000000000000000000000000000000000000000000000",
      "blockhash": "3e2252186b9d315feab57fa4f36fdbedfd2b6e0a69e9a076737dbb572b3aff13",
      "confirmations": 1058,
      "time": 1640270262,
      "blocktime": 1640270262
    }
  ]
}