{
  "transaction": {
    "txid": "27236c58d6e6f9243a91cbd69f97346d8b8e9129b786642b7241abdd64175894",
    "hash": "16a56da3c63269244275af755c548ce085828961896bd293f9ae12e0ce692402",
    "version": 2,
    "size": 762,
    "vsize": 440,
    "weight": 1758,
    "locktime": 2001,
    "vin": [
      {
        "txid": "4ef6d6ee1b078616d8a4c20aa25f32e859801588aaa5b3c33e10e09fefe07d9f",
        "vout": 0,
        "scriptSig": {
          "asm": "001426776210a97f23f913d0b8c6d0798707194eee51",
          "hex": "16001426776210a97f23f913d0b8c6d0798707194eee51"
        },
        "txinwitness": [
          "304402205b211846a174822c759d80249ffa34523ace581f7a7556c3157e751141d1e0ce02206ddae7490e75d2a7e8582eb464e25d6abef64a23ebf18d752e965a5cb3295ffe41",
          "0206bdf1cc6a86ce3aa5fefd33f21394f8a642c6832bf4bb888c06abf8b123d528"
        ],
        "sequence": 4294967294
      },
      {
        "txid": "32a79e8c73960d63b71ea79c9f710f2b51671baf21a575fb491d3bb1e7c08ff0",
        "vout": 0,
        "scriptSig": {
          "asm": "001426776210a97f23f913d0b8c6d0798707194eee51",
          "hex": "16001426776210a97f23f913d0b8c6d0798707194eee51"
        },
        "txinwitness": [
          "304402205bc6a3f2acd667fba98dc3148c93a2ad4c8b42dfe5198093291baccf6a77947602201bf6112e3f43ed7788b38d7198969fcd8798c626dd0bde427149e34b892fe27741",
          "0206bdf1cc6a86ce3aa5fefd33f21394f8a642c6832bf4bb888c06abf8b123d528"
        ],
        "sequence": 4294967294
      },
      {
        "txid": "293cbde60602a9fc2efb6cabd29eb78e3485db1bb883e6e8df8280e5d81c9bdd",
        "vout": 0,
        "scriptSig": {
          "asm": "001426776210a97f23f913d0b8c6d0798707194eee51",
          "hex": "16001426776210a97f23f913d0b8c6d0798707194eee51"
        },
        "txinwitness": [
          "304402205d56f305b53dccc832fd01acc59ad92f0a46247f5386051879c3a9f87bec2ff40220378dabcbc9e9db533dbd805ac58af20532fb472a2b8984571ea5fbba7a45f58841",
          "0206bdf1cc6a86ce3aa5fefd33f21394f8a642c6832bf4bb888c06abf8b123d528"
        ],
        "sequence": 4294967294
      },
      {
        "txid": "b8304df89939010f433f80de8fbc837d0464b31a0723566afc0721299f1288b5",
        "vout": 0,
        "scriptSig": {
          "asm": "001426776210a97f23f913d0b8c6d0798707194eee51",
          "hex": "16001426776210a97f23f913d0b8c6d0798707194eee51"
        },
        "txinwitness": [
          "304402201240021bd42098515c983f36dc77edbdf0bd067b46290eeb51b68173f38e9a6a022031dfe199f7cb30fb790d3c9fed4cc6a2ef0a45bfc412e254f7ce24d28c86d65141",
          "0206bdf1cc6a86ce3aa5fefd33f21394f8a642c6832bf4bb888c06abf8b123d528"
        ],
        "sequence": 4294967294
      }
    ],
    "vout": [
      {
        "value": 1,
        "n": 0,
        "scriptPubKey": {
          "asm": "OP_DUP OP_HASH160 d2eb140d8b7006e7b862827043f9cddd50da9811 OP_EQUALVERIFY OP_CHECKSIG",
          "hex": "76a914d2eb140d8b7006e7b862827043f9cddd50da981188ac",
          "reqSigs": 1,
          "type": "pubkeyhash",
          "addresses": [
            "mzkBosFeajZ5KxXp4rPNA8maqoKUFiR7nY"
          ]
        }
      },
      {
        "value": 0.01309559,
        "n": 1,
        "scriptPubKey": {
          "asm": "OP_HASH160 58e110a46bd07a39d4853a4d62bd85daba4e0c6e OP_EQUAL",
          "hex": "a91458e110a46bd07a39d4853a4d62bd85daba4e0c6e87",
          "reqSigs": 1,
          "type": "scripthash",
          "addresses": [
            "2N1MB4xQDcKX86rgeCgFjp9veXNHv9YrxgX"
          ]
        }
      }
    ],
    "hex": "020000000001049f7de0ef9fe0103ec3b3a5aa88158059e8325fa20ac2a4d81686071beed6f64e000000001716001426776210a97f23f913d0b8c6d0798707194eee51fefffffff08fc0e7b13b1d49fb75a521af1b67512b0f719f9ca71eb7630d96738c9ea732000000001716001426776210a97f23f913d0b8c6d0798707194eee51feffffffdd9b1cd8e58082dfe8e683b81bdb85348eb79ed2ab6cfb2efca90206e6bd3c29000000001716001426776210a97f23f913d0b8c6d0798707194eee51feffffffb588129f292107fc6a5623071ab364047d83bc8fde803f430f013999f84d30b8000000001716001426776210a97f23f913d0b8c6d0798707194eee51feffffff0200e1f505000000001976a914d2eb140d8b7006e7b862827043f9cddd50da981188ac77fb13000000000017a91458e110a46bd07a39d4853a4d62bd85daba4e0c6e870247304402205b211846a174822c759d80249ffa34523ace581f7a7556c3157e751141d1e0ce02206ddae7490e75d2a7e8582eb464e25d6abef64a23ebf18d752e965a5cb3295ffe41210206bdf1cc6a86ce3aa5fefd33f21394f8a642c6832bf4bb888c06abf8b123d5280247304402205bc6a3f2acd667fba98dc3148c93a2ad4c8b42dfe5198093291baccf6a77947602201bf6112e3f43ed7788b38d7198969fcd8798c626dd0bde427149e34b892fe27741210206bdf1cc6a86ce3aa5fefd33f21394f8a642c6832bf4bb888c06abf8b123d5280247304402205d56f305b53dccc832fd01acc59ad92f0a46247f5386051879c3a9f87bec2ff40220378dabcbc9e9db533dbd805ac58af20532fb472a2b8984571ea5fbba7a45f58841210206bdf1cc6a86ce3aa5fefd33f21394f8a642c6832bf4bb888c06abf8b123d5280247304402201240021bd42098515c983f36dc77edbdf0bd067b46290eeb51b68173f38e9a6a022031dfe199f7cb30fb790d3c9fed4cc6a2ef0a45bfc412e254f7ce24d28c86d65141210206bdf1cc6a86ce3aa5fefd33f21394f8a642c6832bf4bb888c06abf8b123d528d1070000"
  },
  "inputs": [
    {
      "txid": "4ef6d6ee1b078616d8a4c20aa25f32e859801588aaa5b3c33e10e09fefe07d9f",
      "hash": "57b1379da7316f895e1595bfa9fabb649ee2abca74972c8e340c64988eb1b1b1",
      "version": 2,
      "size": 171,
      "vsize": 144,
      "weight": 576,
      "locktime": 0,
      "vin": [
        {
          "coinbase": "0288030101",
          "sequence": 4294967295
        }
      ],
      "vout": [
        {
          "value": 0.78125,
          "n": 0,
          "scriptPubKey": {
            "asm": "OP_HASH160 50b6e6ea0ddc13d8ac720d72fd84943e43de56d7 OP_EQUAL",
            "hex": "a91450b6e6ea0ddc13d8ac720d72fd84943e43de56d787",
            "reqSigs": 1,
            "type": "scripthash",
            "addresses": [
              "2Mzc19tGZj6Y8GWJJhWcbmUdaWQhi63S2vM"
            ]
          }
        },
        {
          "value": 0,
          "n": 1,
          "scriptPubKey": {
            "asm": "OP_RETURN aa21a9ede2f61c3f71d1defd3fa999dfa36953755c690689799962b48bebd836974e8cf9",
            "hex": "6a24aa21a9ede2f61c3f71d1defd3fa999dfa36953755c690689799962b48bebd836974e8cf9",
            "type": "nulldata"
          }
        }
      ],
      "hex": "020000000001010000000000000000000000000000000000000000000000000000000000000000ffffffff050288030101ffffffff02c817a8040000000017a91450b6e6ea0ddc13d8ac720d72fd84943e43de56d7870000000000000000266a24aa21a9ede2f61c3f71d1defd3fa999dfa36953755c690689799962b48bebd836974e8cf90120000000000000000000000000000000000000000000000000000000000000000000000000",
      "blockhash": "09511ca1c84a3f0df544a168b0a07470e2cdf74a83c3dd928359beea997e572b",
      "confirmations": 1098,
      "time": 1640270255,
      "blocktime": 1640270255
    },
    {
      "txid": "32a79e8c73960d63b71ea79c9f710f2b51671baf21a575fb491d3bb1e7c08ff0",
      "hash": "f393df98fe1e8fdace5dd72751ea5f5e1c8a854aef4521963c5cec8ea6894738",
      "version": 2,
      "size": 171,
      "vsize": 144,
      "weight": 576,
      "locktime": 0,
      "vin": [
        {
          "coinbase": "024b070101",
          "sequence": 4294967295
        }
      ],
      "vout": [
        {
          "value": 0.01220703,
          "n": 0,
          "scriptPubKey": {
            "asm": "OP_HASH160 50b6e6ea0ddc13d8ac720d72fd84943e43de56d7 OP_EQUAL",
            "hex": "a91450b6e6ea0ddc13d8ac720d72fd84943e43de56d787",
            "reqSigs": 1,
            "type": "scripthash",
            "addresses": [
              "2Mzc19tGZj6Y8GWJJhWcbmUdaWQhi63S2vM"
            ]
          }
        },
        {
          "value": 0,
          "n": 1,
          "scriptPubKey": {
            "asm": "OP_RETURN aa21a9ede2f61c3f71d1defd3fa999dfa36953755c690689799962b48bebd836974e8cf9",
            "hex": "6a24aa21a9ede2f61c3f71d1defd3fa999dfa36953755c690689799962b48bebd836974e8cf9",
            "type": "nulldata"
          }
        }
      ],
      "hex": "020000000001010000000000000000000000000000000000000000000000000000000000000000ffffffff05024b070101ffffffff025fa012000000000017a91450b6e6ea0ddc13d8ac720d72fd84943e43de56d7870000000000000000266a24aa21a9ede2f61c3f71d1defd3fa999dfa36953755c690689799962b48bebd836974e8cf90120000000000000000000000000000000000000000000000000000000000000000000000000",
      "blockhash": "183747339ee4575f8c545f5c9f9389c246845d0eca2e56fa9f153ea6a812dd16",
      "confirmations": 135,
      "time": 1640270415,
      "blocktime": 1640270415
    },
    {
      "txid": "293cbde60602a9fc2efb6cabd29eb78e3485db1bb883e6e8df8280e5d81c9bdd",
      "hash": "ef1c19ccee77ffcc16501d62aac3d92445ac31a9af9ececd03f1cebdf75c3b6f",
      "version": 2,
      "size": 171,
      "vsize": 144,
      "weight": 576,
      "locktime": 0,
      "vin": [
        {
          "coinbase": "0294060101",
          "sequence": 4294967295
        }
      ],
      "vout": [
        {
          "value": 0.02441406,
          "n": 0,
          "scriptPubKey": {
            "asm": "OP_HASH160 50b6e6ea0ddc13d8ac720d72fd84943e43de56d7 OP_EQUAL",
            "hex": "a91450b6e6ea0ddc13d8ac720d72fd84943e43de56d787",
            "reqSigs": 1,
            "type": "scripthash",
            "addresses": [
              "2Mzc19tGZj6Y8GWJJhWcbmUdaWQhi63S2vM"
            ]
          }
        },
        {
          "value": 0,
          "n": 1,
          "scriptPubKey": {
            "asm": "OP_RETURN aa21a9ede2f61c3f71d1defd3fa999dfa36953755c690689799962b48bebd836974e8cf9",
            "hex": "6a24aa21a9ede2f61c3f71d1defd3fa999dfa36953755c690689799962b48bebd836974e8cf9",
            "type": "nulldata"
          }
        }
      ],
      "hex": "020000000001010000000000000000000000000000000000000000000000000000000000000000ffffffff050294060101ffffffff02be4025000000000017a91450b6e6ea0ddc13d8ac720d72fd84943e43de56d7870000000000000000266a24aa21a9ede2f61c3f71d1defd3fa999dfa36953755c690689799962b48bebd836974e8cf90120000000000000000000000000000000000000000000000000000000000000000000000000",
      "blockhash": "262cce4ec8a673a8efcdf620157422400b5f2d07232f77f11698878d67ada135",
      "confirmations": 318,
      "time": 1640270385,
      "blocktime": 1640270385
    },
    {
      "txid": "b8304df89939010f433f80de8fbc837d0464b31a0723566afc0721299f1288b5",
      "hash": "a0feb6ed1951d85b0d3d9001fbad137e4af65c35e564d6d1c8237ccee0d824b9",
      "version": 2,
      "size": 171,
      "vsize": 144,
      "weight": 576,
      "locktime": 0,
      "vin": [
        {
          "coinbase": "02b6040101",
          "sequence": 4294967295
        }
      ],
      "vout": [
        {
          "value": 0.1953125,
          "n": 0,
          "scriptPubKey": {
            "asm": "OP_HASH160 50b6e6ea0ddc13d8ac720d72fd84943e43de56d7 OP_EQUAL",
            "hex": "a91450b6e6ea0ddc13d8ac720d72fd84943e43de56d787",
            "reqSigs": 1,
            "type": "scripthash",
            "addresses": [
              "2Mzc19tGZj6Y8GWJJhWcbmUdaWQhi63S2vM"
            ]
          }
        },
        {
          "value": 0,
          "n": 1,
          "scriptPubKey": {
            "asm": "OP_RETURN aa21a9ede2f61c3f71d1defd3fa999dfa36953755c690689799962b48bebd836974e8cf9",
            "hex": "6a24aa21a9ede2f61c3f71d1defd3fa999dfa36953755c690689799962b48bebd836974e8cf9",
            "type": "nulldata"
          }
        }
      ],
      "hex": "020000000001010000000000000000000000000000000000000000000000000000000000000000ffffffff0502b6040101ffffffff02f2052a010000000017a91450b6e6ea0ddc13d8ac720d72fd84943e43de56d7870000000000000000266a24aa21a9ede2f61c3f71d1defd3fa999dfa36953755c690689799962b48bebd836974e8cf90120000000000000000000000000000000000000000000000000000000000000000000000000",
      "blockhash": "194889ea9ed5daea52cbb4e5f223123e3a0c0b0cb0a150c502ff5d5cc5bda557",
      "confirmations": 796,
      "time": 1640270305,
      "blocktime": 1640270305
    }
  ]
}