{
  "transaction": {
    "txid": "6320ceb66ce817af6149e974cc68bc6587fdafea13baf57d8d244debdff4d75c",
    "hash": "7483bdbd07e604b3733fbaa8f9c98de121a7f0e910be96e92bcdbd45e3d78cd7",
    "version": 2,
    "size": 760,
    "vsize": 438,
    "weight": 1750,
    "locktime": 2001,
    "vin": [
      {
        "txid": "90a686747bb26a6f46108c62bdf2586cd566b8800d44e9432e72c191cbd7750a",
        "vout": 0,
        "scriptSig": {
          "asm": "001426776210a97f23f913d0b8c6d0798707194eee51",
          "hex": "16001426776210a97f23f913d0b8c6d0798707194eee51"
        },
        "txinwitness": [
          "304402204ee5b8174cf7cf64330d863ec122bc0ca4b2f37b4bda8dc6fbe0c601e75f88f102205245908abd9169a33debc5e731b627086929ef183d0e100937a549a2b3fdd97641",
          "0206bdf1cc6a86ce3aa5fefd33f21394f8a642c6832bf4bb888c06abf8b123d528"
        ],
        "sequence": 4294967294
      },
      {
        "txid": "8c0aedcb000dd1016b755a95f41aaeac382ecb1f25cf45f5e11de37170c87b7a",
        "vout": 0,
        "scriptSig": {
          "asm": "001426776210a97f23f913d0b8c6d0798707194eee51",
          "hex": "16001426776210a97f23f913d0b8c6d0798707194eee51"
        },
        "txinwitness": [
          "3044022056146065bd89e41c565c2a7aa464be3c25c330eb470c2ea61785054c8c5434650220602d689a8c07aa74c94450de557e834300b4209264358bfecc1d7e4bf2479dd941",
          "0206bdf1cc6a86ce3aa5fefd33f21394f8a642c6832bf4bb888c06abf8b123d528"
        ],
        "sequence": 4294967294
      },
      {
        "txid": "1fef70aaf6115f6378234b9f0e25b40b070c4357dbae2f39775aabc682cc42c5",
        "vout": 0,
        "scriptSig": {
          "asm": "001426776210a97f23f913d0b8c6d0798707194eee51",
          "hex": "16001426776210a97f23f913d0b8c6d0798707194eee51"
        },
        "txinwitness": [
          "3044022007768a4b48918d5e2d604a836bc2c3b4dae9ff325d87333b4b65638c108e2a670220248f1bcbc23c8167541ed5275a164c40a1042f0cacd0b3e2324bc873c23478ce41",
          "0206bdf1cc6a86ce3aa5fefd33f21394f8a642c6832bf4bb888c06abf8b123d528"
        ],
        "sequence": 4294967294
      },
      {
        "txid": "eb6b05c050cc1330a98aff82f9ef0541be1a47fb8cb781c311b35e9605649312",
        "vout": 0,
        "scriptSig": {
          "asm": "001426776210a97f23f913d0b8c6d0798707194eee51",
          "hex": "16001426776210a97f23f913d0b8c6d0798707194eee51"
        },
        "txinwitness": [
          "30440220704f09319936ea9424a705e3f682213707678498e2716100735c3930fbb1a6af022030eb7725efad484553b79b1a351a59bac747354e270f7deecfb55ac61724512b41",
          "0206bdf1cc6a86ce3aa5fefd33f21394f8a642c6832bf4bb888c06abf8b123d528"
        ],
        "sequence": 4294967294
      }
    ],
    "vout": [
      {
        "value": 1,
        "n": 0,
        "scriptPubKey": {
          "asm": "OP_HASH160 2280193aca8462021ec369d4e2ff1c95741fba7f OP_EQUAL",
          "hex": "a9142280193aca8462021ec369d4e2ff1c95741fba7f87",
          "reqSigs": 1,
          "type": "scripthash",
          "addresses": [
            "2MvPeRFSGYJq9BXoV2fxrMpJjsZMGx2m6Zk"
          ]
        }
      },
      {
        "value": 0.01309599,
        "n": 1,
        "scriptPubKey": {
          "asm": "OP_HASH160 592edbd750293078f8e5287b208ff3ea705928ab OP_EQUAL",
          "hex": "a914592edbd750293078f8e5287b208ff3ea705928ab87",
          "reqSigs": 1,
          "type": "scripthash",
          "addresses": [
            "2N1NnGAF6AqNa9igGA3i9pbRE4dHReJxmZv"
          ]
        }
      }
    ],
    "hex": "020000000001040a75d7cb91c1722e43e9440d80b866d56c58f2bd628c10466f6ab27b7486a690000000001716001426776210a97f23f913d0b8c6d0798707194eee51feffffff7a7bc87071e31de1f545cf251fcb2e38acae1af4955a756b01d10d00cbed0a8c000000001716001426776210a97f23f913d0b8c6d0798707194eee51feffffffc542cc82c6ab5a77392faedb57430c070bb4250e9f4b2378635f11f6aa70ef1f000000001716001426776210a97f23f913d0b8c6d0798707194eee51feffffff12936405965eb311c381b78cfb471abe4105eff982ff8aa93013cc50c0056beb000000001716001426776210a97f23f913d0b8c6d0798707194eee51feffffff0200e1f5050000000017a9142280193aca8462021ec369d4e2ff1c95741fba7f879ffb13000000000017a914592edbd750293078f8e5287b208ff3ea705928ab870247304402204ee5b8174cf7cf64330d863ec122bc0ca4b2f37b4bda8dc6fbe0c601e75f88f102205245908abd9169a33debc5e731b627086929ef183d0e100937a549a2b3fdd97641210206bdf1cc6a86ce3aa5fefd33f21394f8a642c6832bf4bb888c06abf8b123d52802473044022056146065bd89e41c565c2a7aa464be3c25c330eb470c2ea61785054c8c5434650220602d689a8c07aa74c94450de557e834300b4209264358bfecc1d7e4bf2479dd941210206bdf1cc6a86ce3aa5fefd33f21394f8a642c6832bf4bb888c06abf8b123d52802473044022007768a4b48918d5e2d604a836bc2c3b4dae9ff325d87333b4b65638c108e2a670220248f1bcbc23c8167541ed5275a164c40a1042f0cacd0b3e2324bc873c23478ce41210206bdf1cc6a86ce3aa5fefd33f21394f8a642c6832bf4bb888c06abf8b123d528024730440220704f09319936ea9424a705e3f682213707678498e2716100735c3930fbb1a6af022030eb7725efad484553b79b1a351a59bac747354e270f7deecfb55ac61724512b41210206bdf1cc6a86ce3aa5fefd33f21394f8a642c6832bf4bb888c06abf8b123d528d1070000"
  },
  "inputs": [
    {
      "txid": "90a686747bb26a6f46108c62bdf2586cd566b8800d44e9432e72c191cbd7750a",
      "hash": "591473f1a9edc37f23a289e667881516878bf86c7388e5479df11f0b4ca031b6",
      "version": 2,
      "size": 171,
      "vsize": 144,
      "weight": 576,
      "locktime": 0,
      "vin": [
        {
          "coinbase": "0230050101",
          "sequence": 4294967295
        }
      ],
      "vout": [
        {
          "value": 0.1953125,
          "n": 0,
          "scriptPubKey": {
            "asm": "OP_HASH160 50b6e6ea0ddc13d8ac720d72fd84943e43de56d7 OP_EQUAL",
            "hex": "a91450b6e6ea0ddc13d8ac720d72fd84943e43de56d787",
            "reqSigs": 1,
            "type": "scripthash",
            "addresses": [
              "2Mzc19tGZj6Y8GWJJhWcbmUdaWQhi63S2vM"
            ]
          }
        },
        {
          "value": 0,
          "n": 1,
          "scriptPubKey": {
            "asm": "OP_RETURN aa21a9ede2f61c3f71d1defd3fa999dfa36953755c690689799962b48bebd836974e8cf9",
            "hex": "6a24aa21a9ede2f61c3f71d1defd3fa999dfa36953755c690689799962b48bebd836974e8cf9",
            "type": "nulldata"
          }
        }
      ],
      "hex": "020000000001010000000000000000000000000000000000000000000000000000000000000000ffffffff050230050101ffffffff02f2052a010000000017a91450b6e6ea0ddc13d8ac720d72fd84943e43de56d7870000000000000000266a24aa21a9ede2f61c3f71d1defd3fa999dfa36953755c690689799962b48bebd836974e8cf90120000000000000000000000000000000000000000000000000000000000000000000000000",
      "blockhash": "5bf0c57561f1f50f61491b36ff5cd43cefac92d30998799514b4e1deaf6a21cc",
      "confirmations": 674,
      "time": 1640270326,
      "blocktime": 1640270326
    },
    {
      "txid": "8c0aedcb000dd1016b755a95f41aaeac382ecb1f25cf45f5e11de37170c87b7a",
      "hash": "470a5b485476bbfae78294b329c6bfd5a6543275b7f2d5edfec87d2305d8faa5",
      "version": 2,
      "size": 171,
      "vsize": 144,
      "weight": 576,
      "locktime": 0,
      "vin": [
        {
          "coinbase": "0218070101",
          "sequence": 4294967295
        }
      ],
      "vout": [
        {
          "value": 0.01220703,
          "n": 0,
          "scriptPubKey": {
            "asm": "OP_HASH160 50b6e6ea0ddc13d8ac720d72fd84943e43de56d7 OP_EQUAL",
            "hex": "a91450b6e6ea0ddc13d8ac720d72fd84943e43de56d787",
            "reqSigs": 1,
            "type": "scripthash",
            "addresses": [
              "2Mzc19tGZj6Y8GWJJhWcbmUdaWQhi63S2vM"
            ]
          }
        },
        {
          "value": 0,
          "n": 1,
          "scriptPubKey": {
            "asm": "OP_RETURN aa21a9ede2f61c3f71d1defd3fa999dfa36953755c690689799962b48bebd836974e8cf9",
            "hex": "6a24aa21a9ede2f61c3f71d1defd3fa999dfa36953755c690689799962b48bebd836974e8cf9",
            "type": "nulldata"
          }
        }
      ],
      "hex": "020000000001010000000000000000000000000000000000000000000000000000000000000000ffffffff050218070101ffffffff025fa012000000000017a91450b6e6ea0ddc13d8ac720d72fd84943e43de56d7870000000000000000266a24aa21a9ede2f61c3f71d1defd3fa999dfa36953755c690689799962b48bebd836974e8cf90120000000000000000000000000000000000000000000000000000000000000000000000000",
      "blockhash": "041d4732dc5f9daf73465091c64e56abf79c1cea0b226ce71085309dd1e03322",
      "confirmations": 186,
      "time": 1640270407,
      "blocktime": 1640270407
    },
    {
      "txid": "1fef70aaf6115f6378234b9f0e25b40b070c4357dbae2f39775aabc682cc42c5",
      "hash": "adbab07ed2da6cc5c32692465a2d66bdd51fe39b63b49f3fdf34b76a6be89bf7",
      "version": 2,
      "size": 171,
      "vsize": 144,
      "weight": 576,
      "locktime": 0,
      "vin": [
        {
          "coinbase": "020f040101",
          "sequence": 4294967295
        }
      ],
      "vout": [
        {
          "value": 0.78125,
          "n": 0,
          "scriptPubKey": {
            "asm": "OP_HASH160 50b6e6ea0ddc13d8ac720d72fd84943e43de56d7 OP_EQUAL",
            "hex": "a91450b6e6ea0ddc13d8ac720d72fd84943e43de56d787",
            "reqSigs": 1,
            "type": "scripthash",
            "addresses": [
              "2Mzc19tGZj6Y8GWJJhWcbmUdaWQhi63S2vM"
            ]
          }
        },
        {
          "value": 0,
          "n": 1,
          "scriptPubKey": {
            "asm": "OP_RETURN aa21a9ede2f61c3f71d1defd3fa999dfa36953755c690689799962b48bebd836974e8cf9",
            "hex": "6a24aa21a9ede2f61c3f71d1defd3fa999dfa36953755c690689799962b48bebd836974e8cf9",
            "type": "nulldata"
          }
        }
      ],
      "hex": "020000000001010000000000000000000000000000000000000000000000000000000000000000ffffffff05020f040101ffffffff02c817a8040000000017a91450b6e6ea0ddc13d8ac720d72fd84943e43de56d7870000000000000000266a24aa21a9ede2f61c3f71d1defd3fa999dfa36953755c690689799962b48bebd836974e8cf90120000000000000000000000000000000000000000000000000000000000000000000000000",
      "blockhash": "3db17ed7edb4b22c3d532514f0fcd13fa3b1b3b762b35bf2856a40d7c60e59d4",
      "confirmations": 963,
      "time": 1640270277,
      "blocktime": 1640270277
    },
    {
      "txid": "eb6b05c050cc1330a98aff82f9ef0541be1a47fb8cb781c311b35e9605649312",
      "hash": "01357925fd9d19ca4e74f8e8fa8b77554c809180ff9890be437292c0676d23e9",
      "version": 2,
      "size": 171,
      "vsize": 144,
      "weight": 576,
      "locktime": 0,
      "vin": [
        {
          "coinbase": "02ca060101",
          "sequence": 4294967295
        }
      ],
      "vout": [
        {
          "value": 0.02441406,
          "n": 0,
          "scriptPubKey": {
            "asm": "OP_HASH160 50b6e6ea0ddc13d8ac720d72fd84943e43de56d7 OP_EQUAL",
            "hex": "a91450b6e6ea0ddc13d8ac720d72fd84943e43de56d787",
            "reqSigs": 1,
            "type": "scripthash",
            "addresses": [
              "2Mzc19tGZj6Y8GWJJhWcbmUdaWQhi63S2vM"
            ]
          }
        },
        {
          "value": 0,
          "n": 1,
          "scriptPubKey": {
            "asm": "OP_RETURN aa21a9ede2f61c3f71d1defd3fa999dfa36953755c690689799962b48bebd836974e8cf9",
            "hex": "6a24aa21a9ede2f61c3f71d1defd3fa999dfa36953755c690689799962b48bebd836974e8cf9",
            "type": "nulldata"
          }
        }
      ],
      "hex": "020000000001010000000000000000000000000000000000000000000000000000000000000000ffffffff0502ca060101ffffffff02be4025000000000017a91450b6e6ea0ddc13d8ac720d72fd84943e43de56d7870000000000000000266a24aa21a9ede2f61c3f71d1defd3fa999dfa36953755c690689799962b48bebd836974e8cf90120000000000000000000000000000000000000000000000000000000000000000000000000",
      "blockhash": "11824d13b1506c57aef4b21642a215e974b464b1e279a54727ebcc490a25f06d",
      "confirmations": 264,
      "time": 1640270394,
      "blocktime": 1640270394
    }
  ]
}