{
  "transaction": {
    "txid": "e1d1ad44f26c0ea1d5cced7de4a211d5734b71d3dc33ab01f1a0cdf101e0df5e",
    "hash": "bc602be68c9f0e0a1a6fb9cfd28d8408577d0fd9048a5249c50add0d669f67dd",
    "version": 2,
    "size": 770,
    "vsize": 448,
    "weight": 1790,
    "locktime": 2001,
    "vin": [
      {
        "txid": "d13c9897e0a102670ef2a00f3c9bc23ec3377bb9b94d8212cc79b4255a20566a",
        "vout": 0,
        "scriptSig": {
          "asm": "001426776210a97f23f913d0b8c6d0798707194eee51",
          "hex": "16001426776210a97f23f913d0b8c6d0798707194eee51"
        },
        "txinwitness": [
          "304402203969d2abcef7428ed308cb7c3499bdb1227d6799af42e55886e5acffedff8c23022010ce930c7cb5e94e6d2f20617a765e3ab183df7aebc084f7e733d744c0ccc73441",
          "0206bdf1cc6a86ce3aa5fefd33f21394f8a642c6832bf4bb888c06abf8b123d528"
        ],
        "sequence": 4294967294
      },
      {
        "txid": "7cf685f23f2dc2de17e89dbd5de560b5f6e54563e6835a5b447e14d7f1b836ef",
        "vout": 0,
        "scriptSig": {
          "asm": "001426776210a97f23f913d0b8c6d0798707194eee51",
          "hex": "16001426776210a97f23f913d0b8c6d0798707194eee51"
        },
        "txinwitness": [
          "30440220487fd741cb480b8b073043f9fd1ac399a15abbd43d41e635afb6db465e48bc770220414b0eae07385b3a2d2fbe060c6a6f1045f841ac077dc63bfe99447e13cfdeea41",
          "0206bdf1cc6a86ce3aa5fefd33f21394f8a642c6832bf4bb888c06abf8b123d528"
        ],
        "sequence": 4294967294
      },
      {
        "txid": "9034325103d268dc3cdd91141a26cc05c5aa34dd36c6ca9855c9a0acc22d2426",
        "vout": 0,
        "scriptSig": {
          "asm": "001426776210a97f23f913d0b8c6d0798707194eee51",
          "hex": "16001426776210a97f23f913d0b8c6d0798707194eee51"
        },
        "txinwitness": [
          "304402206e2d015988f03242652da3b8696472728ad26cac79f65e9dcf08e38fefaede0302200d3c29febc37af4728b20a6e1cf10952ed2180247190eb8a81b75d0d9ac65b5341",
          "0206bdf1cc6a86ce3aa5fefd33f21394f8a642c6832bf4bb888c06abf8b123d528"
        ],
        "sequence": 4294967294
      },
      {
        "txid": "dce15139c27cbdc590005e911c242ca6e8b3d0038a8c332f0c8f8fcca23dc233",
        "vout": 0,
        "scriptSig": {
          "asm": "001426776210a97f23f913d0b8c6d0798707194eee51",
          "hex": "16001426776210a97f23f913d0b8c6d0798707194eee51"
        },
        "txinwitness": [
          "3044022050d49b7632cd39b46aeb18cf7ba817712c26400792a92161732d83196909223b0220756dcbbf7c01742f9c7cb56a59eaf652fca295946103b023c6a1f8f7b73b8ae941",
          "0206bdf1cc6a86ce3aa5fefd33f21394f8a642c6832bf4bb888c06abf8b123d528"
        ],
        "sequence": 4294967294
      }
    ],
    "vout": [
      {
        "value": 1,
        "n": 0,
        "scriptPubKey": {
          "asm": "0 1553f31a3e25e770b7bc857b82909e83734dbfe4bcdb5a5e6fc419b6920c398a",
          "hex": "00201553f31a3e25e770b7bc857b82909e83734dbfe4bcdb5a5e6fc419b6920c398a",
          "reqSigs": 1,
          "type": "witness_v0_scripthash",
          "addresses": [
            "btgrt1qz4flxx37yhnhpdaus4ac9yy7sde5m0lyhnd45hn0csvmdysv8x9qmez7qc"
          ]
        }
      },
      {
        "value": 0.01309399,
        "n": 1,
        "scriptPubKey": {
          "asm": "0 75fb6db068f122bbd11a2d0d75f3bd7f1229f74e",
          "hex": "001475fb6db068f122bbd11a2d0d75f3bd7f1229f74e",
          "reqSigs": 1,
          "type": "witness_v0_keyhash",
          "addresses": [
            "btgrt1qwhakmvrg7y3th5g695xhtuaa0ufzna6wx0nmqv"
          ]
        }
      }
    ],
    "hex": "020000000001046a56205a25b479cc12824db9b97b37c33ec29b3c0fa0f20e6702a1e097983cd1000000001716001426776210a97f23f913d0b8c6d0798707194eee51feffffffef36b8f1d7147e445b5a83e66345e5f6b560e55dbd9de817dec22d3ff285f67c000000001716001426776210a97f23f913d0b8c6d0798707194eee51feffffff26242dc2aca0c95598cac636dd34aac505cc261a1491dd3cdc68d20351323490000000001716001426776210a97f23f913d0b8c6d0798707194eee51feffffff33c23da2cc8f8f0c2f338c8a03d0b3e8a62c241c915e0090c5bd7cc23951e1dc000000001716001426776210a97f23f913d0b8c6d0798707194eee51feffffff0200e1f505000000002200201553f31a3e25e770b7bc857b82909e83734dbfe4bcdb5a5e6fc419b6920c398ad7fa13000000000016001475fb6db068f122bbd11a2d0d75f3bd7f1229f74e0247304402203969d2abcef7428ed308cb7c3499bdb1227d6799af42e55886e5acffedff8c23022010ce930c7cb5e94e6d2f20617a765e3ab183df7aebc084f7e733d744c0ccc73441210206bdf1cc6a86ce3aa5fefd33f21394f8a642c6832bf4bb888c06abf8b123d528024730440220487fd741cb480b8b073043f9fd1ac399a15abbd43d41e635afb6db465e48bc770220414b0eae07385b3a2d2fbe060c6a6f1045f841ac077dc63bfe99447e13cfdeea41210206bdf1cc6a86ce3aa5fefd33f21394f8a642c6832bf4bb888c06abf8b123d5280247304402206e2d015988f03242652da3b8696472728ad26cac79f65e9dcf08e38fefaede0302200d3c29febc37af4728b20a6e1cf10952ed2180247190eb8a81b75d0d9ac65b5341210206bdf1cc6a86ce3aa5fefd33f21394f8a642c6832bf4bb888c06abf8b123d52802473044022050d49b7632cd39b46aeb18cf7ba817712c26400792a92161732d83196909223b0220756dcbbf7c01742f9c7cb56a59eaf652fca295946103b023c6a1f8f7b73b8ae941210206bdf1cc6a86ce3aa5fefd33f21394f8a642c6832bf4bb888c06abf8b123d528d1070000"
  },
  "inputs": [
    {
      "txid": "d13c9897e0a102670ef2a00f3c9bc23ec3377bb9b94d8212cc79b4255a20566a",
      "hash": "b2ba31403c8853c1c05ac7b1e1fc0230ff0132dabcb52081d384f3758a03c4c5",
      "version": 2,
      "size": 171,
      "vsize": 144,
      "weight": 576,
      "locktime": 0,
      "vin": [
        {
          "coinbase": "0290060101",
          "sequence": 4294967295
        }
      ],
      "vout": [
        {
          "value": 0.02441406,
          "n": 0,
          "scriptPubKey": {
            "asm": "OP_HASH160 50b6e6ea0ddc13d8ac720d72fd84943e43de56d7 OP_EQUAL",
            "hex": "a91450b6e6ea0ddc13d8ac720d72fd84943e43de56d787",
            "reqSigs": 1,
            "type": "scripthash",
            "addresses": [
              "2Mzc19tGZj6Y8GWJJhWcbmUdaWQhi63S2vM"
            ]
          }
        },
        {
          "value": 0,
          "n": 1,
          "scriptPubKey": {
            "asm": "OP_RETURN aa21a9ede2f61c3f71d1defd3fa999dfa36953755c690689799962b48bebd836974e8cf9",
            "hex": "6a24aa21a9ede2f61c3f71d1defd3fa999dfa36953755c690689799962b48bebd836974e8cf9",
            "type": "nulldata"
          }
        }
      ],
      "hex": "020000000001010000000000000000000000000000000000000000000000000000000000000000ffffffff050290060101ffffffff02be4025000000000017a91450b6e6ea0ddc13d8ac720d72fd84943e43de56d7870000000000000000266a24aa21a9ede2f61c3f71d1defd3fa999dfa36953755c690689799962b48bebd836974e8cf90120000000000000000000000000000000000000000000000000000000000000000000000000",
      "blockhash": "5cbd1e2ca75fd04f610acac25633f4c814f76e6dfef8d63e082b5fb8b4494fa5",
      "confirmations": 322,
      "time": 1640270384,
      "blocktime": 1640270384
    },
    {
      "txid": "7cf685f23f2dc2de17e89dbd5de560b5f6e54563e6835a5b447e14d7f1b836ef",
      "hash": "3834015f9b5b63cec97e325e5ba8a48eefb402a3ade33fb61dfbac3f1f31d8d8",
      "version": 2,
      "size": 171,
      "vsize": 144,
      "weight": 576,
      "locktime": 0,
      "vin": [
        {
          "coinbase": "0216040101",
          "sequence": 4294967295
        }
      ],
      "vout": [
        {
          "value": 0.78125,
          "n": 0,
          "scriptPubKey": {
            "asm": "OP_HASH160 50b6e6ea0ddc13d8ac720d72fd84943e43de56d7 OP_EQUAL",
            "hex": "a91450b6e6ea0ddc13d8ac720d72fd84943e43de56d787",
            "reqSigs": 1,
            "type": "scripthash",
            "addresses": [
              "2Mzc19tGZj6Y8GWJJhWcbmUdaWQhi63S2vM"
            ]
          }
        },
        {
          "value": 0,
          "n": 1,
          "scriptPubKey": {
            "asm": "OP_RETURN aa21a9ede2f61c3f71d1defd3fa999dfa36953755c690689799962b48bebd836974e8cf9",
            "hex": "6a24aa21a9ede2f61c3f71d1defd3fa999dfa36953755c690689799962b48bebd836974e8cf9",
            "type": "nulldata"
          }
        }
      ],
      "hex": "020000000001010000000000000000000000000000000000000000000000000000000000000000ffffffff050216040101ffffffff02c817a8040000000017a91450b6e6ea0ddc13d8ac720d72fd84943e43de56d7870000000000000000266a24aa21a9ede2f61c3f71d1defd3fa999dfa36953755c690689799962b48bebd836974e8cf90120000000000000000000000000000000000000000000000000000000000000000000000000",
      "blockhash": "5588cce29f3619a0898b8d0e58f14b02152e0e6af49fb327728e00bb1729e49f",
      "confirmations": 956,
      "time": 1640270279,
      "blocktime": 1640270279
    },
    {
      "txid": "9034325103d268dc3cdd91141a26cc05c5aa34dd36c6ca9855c9a0acc22d2426",
      "hash": "3fa9005d07aad5cf9e4ae7e27107ec10d644f6b42c95055cb2a2da19d0514047",
      "version": 2,
      "size": 171,
      "vsize": 144,
      "weight": 576,
      "locktime": 0,
      "vin": [
        {
          "coinbase": "02f1040101",
          "sequence": 4294967295
        }
      ],
      "vout": [
        {
          "value": 0.1953125,
          "n": 0,
          "scriptPubKey": {
            "asm": "OP_HASH160 50b6e6ea0ddc13d8ac720d72fd84943e43de56d7 OP_EQUAL",
            "hex": "a91450b6e6ea0ddc13d8ac720d72fd84943e43de56d787",
            "reqSigs": 1,
            "type": "scripthash",
            "addresses": [
              "2Mzc19tGZj6Y8GWJJhWcbmUdaWQhi63S2vM"
            ]
          }
        },
        {
          "value": 0,
          "n": 1,
          "scriptPubKey": {
            "asm": "OP_RETURN aa21a9ede2f61c3f71d1defd3fa999dfa36953755c690689799962b48bebd836974e8cf9",
            "hex": "6a24aa21a9ede2f61c3f71d1defd3fa999dfa36953755c690689799962b48bebd836974e8cf9",
            "type": "nulldata"
          }
        }
      ],
      "hex": "020000000001010000000000000000000000000000000000000000000000000000000000000000ffffffff0502f1040101ffffffff02f2052a010000000017a91450b6e6ea0ddc13d8ac720d72fd84943e43de56d7870000000000000000266a24aa21a9ede2f61c3f71d1defd3fa999dfa36953755c690689799962b48bebd836974e8cf90120000000000000000000000000000000000000000000000000000000000000000000000000",
      "blockhash": "3991d9a5d8b0ed4e9e65a61f11edb07592946df6a5a50f4664ed8156e72a036c",
      "confirmations": 737,
      "time": 1640270315,
      "blocktime": 1640270315
    },
    {
      "txid": "dce15139c27cbdc590005e911c242ca6e8b3d0038a8c332f0c8f8fcca23dc233",
      "hash": "fca7b5440e8e5545b61b46868479f33e34c1d6f8e7d2e86d1f0c27cdfcd4a897",
      "version": 2,
      "size": 171,
      "vsize": 144,
      "weight": 576,
      "locktime": 0,
      "vin": [
        {
          "coinbase": "0259070101",
          "sequence": 4294967295
        }
      ],
      "vout": [
        {
          "value": 0.01220703,
          "n": 0,
          "scriptPubKey": {
            "asm": "OP_HASH160 50b6e6ea0ddc13d8ac720d72fd84943e43de56d7 OP_EQUAL",
            "hex": "a91450b6e6ea0ddc13d8ac720d72fd84943e43de56d787",
            "reqSigs": 1,
            "type": "scripthash",
            "addresses": [
              "2Mzc19tGZj6Y8GWJJhWcbmUdaWQhi63S2vM"
            ]
          }
        },
        {
          "value": 0,
          "n": 1,
          "scriptPubKey": {
            "asm": "OP_RETURN aa21a9ede2f61c3f71d1defd3fa999dfa36953755c690689799962b48bebd836974e8cf9",
            "hex": "6a24aa21a9ede2f61c3f71d1defd3fa999dfa36953755c690689799962b48bebd836974e8cf9",
            "type": "nulldata"
          }
        }
      ],
      "hex": "020000000001010000000000000000000000000000000000000000000000000000000000000000ffffffff050259070101ffffffff025fa012000000000017a91450b6e6ea0ddc13d8ac720d72fd84943e43de56d7870000000000000000266a24aa21a9ede2f61c3f71d1defd3fa999dfa36953755c690689799962b48bebd836974e8cf90120000000000000000000000000000000000000000000000000000000000000000000000000",
      "blockhash": "43f51ef4ea9ee016dcaa5e2c9decbec013cbae6ebd149f4f6f9bf36eb49257a5",
      "confirmations": 121,
      "time": 1640270418,
      "blocktime": 1640270418
    }
  ]
}