{
  "transaction": {
    "txid": "8bf779d3dbbcd07f66c04d5f2a8db72564c87fd934f74cd16e9a9dad2b5ca966",
    "hash": "800a2ffc8924c208c8f5736460044f6b0c9888f19bfaea5b5b850f3af271dc6e",
    "version": 2,
    "size": 758,
    "vsize": 436,
    "weight": 1742,
    "locktime": 2001,
    "vin": [
      {
        "txid": "7ea51836a9fedcf9b1ccf608ec84fbe2034235375400a59ed3ca63e3c4556cdf",
        "vout": 0,
        "scriptSig": {
          "asm": "001426776210a97f23f913d0b8c6d0798707194eee51",
          "hex": "16001426776210a97f23f913d0b8c6d0798707194eee51"
        },
        "txinwitness": [
          "304402205dcd367660f0e71c713d4b9585792c2e276e37ca78e3f93ae4f958158f5f65a10220590b837056f26b8316320a36580e08535e7aaf7778d6edae171219f70aafe8f041",
          "0206bdf1cc6a86ce3aa5fefd33f21394f8a642c6832bf4bb888c06abf8b123d528"
        ],
        "sequence": 4294967294
      },
      {
        "txid": "9d395b0331fd6a90db68f906103d875bda44a2d231d8d6172c7cc77a1ee86c7f",
        "vout": 0,
        "scriptSig": {
          "asm": "001426776210a97f23f913d0b8c6d0798707194eee51",
          "hex": "16001426776210a97f23f913d0b8c6d0798707194eee51"
        },
        "txinwitness": [
          "304402206ba0cd82dd57e4d9c9f15f4a18f099a48269df29b507e1abfbb2abcf1da023b00220461ef9b2aad58868609bbdfbf25a9505954be1f8e4dcd079c52f274e43657b7241",
          "0206bdf1cc6a86ce3aa5fefd33f21394f8a642c6832bf4bb888c06abf8b123d528"
        ],
        "sequence": 4294967294
      },
      {
        "txid": "c86df62d10042679b795898650c3ffa9fc8dc48038182d532b7176be92194539",
        "vout": 0,
        "scriptSig": {
          "asm": "001426776210a97f23f913d0b8c6d0798707194eee51",
          "hex": "16001426776210a97f23f913d0b8c6d0798707194eee51"
        },
        "txinwitness": [
          "3044022019a95bc107389dadab4ede29eceefc787c54d1156555212fda5b90c2b9e4b00b022036e743cc8f87a01748733b040a23260aaf048991306bf5887028a3f95f81bfb941",
          "0206bdf1cc6a86ce3aa5fefd33f21394f8a642c6832bf4bb888c06abf8b123d528"
        ],
        "sequence": 4294967294
      },
      {
        "txid": "e3f550155bc4b72f8be44e9eed5e13fbc689b0b2d534b98e97380e8044fb46b1",
        "vout": 0,
        "scriptSig": {
          "asm": "001426776210a97f23f913d0b8c6d0798707194eee51",
          "hex": "16001426776210a97f23f913d0b8c6d0798707194eee51"
        },
        "txinwitness": [
          "304402205ea7e8de83065ce25d250cab42163ca43442bd33f423ccbae37f83e2f2ab07a502205a56eaf3b6c2a716f9f7470258609ebf1ebc6d89e76f730ef275184cd7fc29a541",
          "0206bdf1cc6a86ce3aa5fefd33f21394f8a642c6832bf4bb888c06abf8b123d528"
        ],
        "sequence": 4294967294
      }
    ],
    "vout": [
      {
        "value": 0.01309639,
        "n": 0,
        "scriptPubKey": {
          "asm": "0 2f209aa796e2c96521346b2b99f7af41081686d1",
          "hex": "00142f209aa796e2c96521346b2b99f7af41081686d1",
          "reqSigs": 1,
          "type": "witness_v0_keyhash",
          "addresses": [
            "btgrt1q9usf4fukutyk2gf5dv4enaa0gyypdpk3sa5mj4"
          ]
        }
      },
      {
        "value": 1,
        "n": 1,
        "scriptPubKey": {
          "asm": "0 d2eb140d8b7006e7b862827043f9cddd50da9811",
          "hex": "0014d2eb140d8b7006e7b862827043f9cddd50da9811",
          "reqSigs": 1,
          "type": "witness_v0_keyhash",
          "addresses": [
            "btgrt1q6t43grvtwqrw0wrzsfcy87wdm4gd4xq33v30vf"
          ]
        }
      }
    ],
    "hex": "02000000000104df6c55c4e363cad39ea5005437354203e2fb84ec08f6ccb1f9dcfea93618a57e000000001716001426776210a97f23f913d0b8c6d0798707194eee51feffffff7f6ce81e7ac77c2c17d6d831d2a244da5b873d1006f968db906afd31035b399d000000001716001426776210a97f23f913d0b8c6d0798707194eee51feffffff39451992be76712b532d183880c48dfca9ffc350868995b7792604102df66dc8000000001716001426776210a97f23f913d0b8c6d0798707194eee51feffffffb146fb44800e38978eb934d5b2b089c6fb135eed9e4ee48b2fb7c45b1550f5e3000000001716001426776210a97f23f913d0b8c6d0798707194eee51feffffff02c7fb1300000000001600142f209aa796e2c96521346b2b99f7af41081686d100e1f50500000000160014d2eb140d8b7006e7b862827043f9cddd50da98110247304402205dcd367660f0e71c713d4b9585792c2e276e37ca78e3f93ae4f958158f5f65a10220590b837056f26b8316320a36580e08535e7aaf7778d6edae171219f70aafe8f041210206bdf1cc6a86ce3aa5fefd33f21394f8a642c6832bf4bb888c06abf8b123d5280247304402206ba0cd82dd57e4d9c9f15f4a18f099a48269df29b507e1abfbb2abcf1da023b00220461ef9b2aad58868609bbdfbf25a9505954be1f8e4dcd079c52f274e43657b7241210206bdf1cc6a86ce3aa5fefd33f21394f8a642c6832bf4bb888c06abf8b123d52802473044022019a95bc107389dadab4ede29eceefc787c54d1156555212fda5b90c2b9e4b00b022036e743cc8f87a01748733b040a23260aaf048991306bf5887028a3f95f81bfb941210206bdf1cc6a86ce3aa5fefd33f21394f8a642c6832bf4bb888c06abf8b123d5280247304402205ea7e8de83065ce25d250cab42163ca43442bd33f423ccbae37f83e2f2ab07a502205a56eaf3b6c2a716f9f7470258609ebf1ebc6d89e76f730ef275184cd7fc29a541210206bdf1cc6a86ce3aa5fefd33f21394f8a642c6832bf4bb888c06abf8b123d528d1070000"
  },
  "inputs": [
    {
      "txid": "7ea51836a9fedcf9b1ccf608ec84fbe2034235375400a59ed3ca63e3c4556cdf",
      "hash": "8543df2eef63f92fb674ab36fe86d672959b40948899e22fe68e5bed60acec78",
      "version": 2,
      "size": 171,
      "vsize": 144,
      "weight": 576,
      "locktime": 0,
      "vin": [
        {
          "coinbase": "024f070101",
          "sequence": 4294967295
        }
      ],
      "vout": [
        {
          "value": 0.01220703,
          "n": 0,
          "scriptPubKey": {
            "asm": "OP_HASH160 50b6e6ea0ddc13d8ac720d72fd84943e43de56d7 OP_EQUAL",
            "hex": "a91450b6e6ea0ddc13d8ac720d72fd84943e43de56d787",
            "reqSigs": 1,
            "type": "scripthash",
            "addresses": [
              "2Mzc19tGZj6Y8GWJJhWcbmUdaWQhi63S2vM"
            ]
          }
        },
        {
          "value": 0,
          "n": 1,
          "scriptPubKey": {
            "asm": "OP_RETURN aa21a9ede2f61c3f71d1defd3fa999dfa36953755c690689799962b48bebd836974e8cf9",
            "hex": "6a24aa21a9ede2f61c3f71d1defd3fa999dfa36953755c690689799962b48bebd836974e8cf9",
            "type": "nulldata"
          }
        }
      ],
      "hex": "020000000001010000000000000000000000000000000000000000000000000000000000000000ffffffff05024f070101ffffffff025fa012000000000017a91450b6e6ea0ddc13d8ac720d72fd84943e43de56d7870000000000000000266a24aa21a9ede2f61c3f71d1defd3fa999dfa36953755c690689799962b48bebd836974e8cf90120000000000000000000000000000000000000000000000000000000000000000000000000",
      "blockhash": "4212fa6d975c58e4f07e01b3a0279d112200ae64f8f58a268e28076efd2a0608",
      "confirmations": 131,
      "time": 1640270416,
      "blocktime": 1640270416
    },
    {
      "txid": "9d395b0331fd6a90db68f906103d875bda44a2d231d8d6172c7cc77a1ee86c7f",
      "hash": "10283bd2e4039209387e68f80ac8a6811e24f9e64ca5d75cb3d4455daf0d4afd",
      "version": 2,
      "size": 171,
      "vsize": 144,
      "weight": 576,
      "locktime": 0,
      "vin": [
        {
          "coinbase": "0213040101",
          "sequence": 4294967295
        }
      ],
      "vout": [
        {
          "value": 0.78125,
          "n": 0,
          "scriptPubKey": {
            "asm": "OP_HASH160 50b6e6ea0ddc13d8ac720d72fd84943e43de56d7 OP_EQUAL",
            "hex": "a91450b6e6ea0ddc13d8ac720d72fd84943e43de56d787",
            "reqSigs": 1,
            "type": "scripthash",
            "addresses": [
              "2Mzc19tGZj6Y8GWJJhWcbmUdaWQhi63S2vM"
            ]
          }
        },
        {
          "value": 0,
          "n": 1,
          "scriptPubKey": {
            "asm": "OP_RETURN aa21a9ede2f61c3f71d1defd3fa999dfa36953755c690689799962b48bebd836974e8cf9",
            "hex": "6a24aa21a9ede2f61c3f71d1defd3fa999dfa36953755c690689799962b48bebd836974e8cf9",
            "type": "nulldata"
          }
        }
      ],
      "hex": "020000000001010000000000000000000000000000000000000000000000000000000000000000ffffffff050213040101ffffffff02c817a8040000000017a91450b6e6ea0ddc13d8ac720d72fd84943e43de56d7870000000000000000266a24aa21a9ede2f61c3f71d1defd3fa999dfa36953755c690689799962b48bebd836974e8cf90120000000000000000000000000000000000000000000000000000000000000000000000000",
      "blockhash": "7e20856f4ba175d22eb6de77dfb0ee028a0fb6306e89aad42e62c9f89e805af0",
      "confirmations": 959,
      "time": 1640270278,
      "blocktime": 1640270278
    },
    {
      "txid": "c86df62d10042679b795898650c3ffa9fc8dc48038182d532b7176be92194539",
      "hash": "ce01b643bbbf5c9f795083f3bc5fa774afabef1c763777026016bd4aeabb5fcb",
      "version": 2,
      "size": 171,
      "vsize": 144,
      "weight": 576,
      "locktime": 0,
      "vin": [
        {
          "coinbase": "02d9060101",
          "sequence": 4294967295
        }
      ],
      "vout": [
        {
          "value": 0.02441406,
          "n": 0,
          "scriptPubKey": {
            "asm": "OP_HASH160 50b6e6ea0ddc13d8ac720d72fd84943e43de56d7 OP_EQUAL",
            "hex": "a91450b6e6ea0ddc13d8ac720d72fd84943e43de56d787",
            "reqSigs": 1,
            "type": "scripthash",
            "addresses": [
              "2Mzc19tGZj6Y8GWJJhWcbmUdaWQhi63S2vM"
            ]
          }
        },
        {
          "value": 0,
          "n": 1,
          "scriptPubKey": {
            "asm": "OP_RETURN aa21a9ede2f61c3f71d1defd3fa999dfa36953755c690689799962b48bebd836974e8cf9",
            "hex": "6a24aa21a9ede2f61c3f71d1defd3fa999dfa36953755c690689799962b48bebd836974e8cf9",
            "type": "nulldata"
          }
        }
      ],
      "hex": "020000000001010000000000000000000000000000000000000000000000000000000000000000ffffffff0502d9060101ffffffff02be4025000000000017a91450b6e6ea0ddc13d8ac720d72fd84943e43de56d7870000000000000000266a24aa21a9ede2f61c3f71d1defd3fa999dfa36953755c690689799962b48bebd836974e8cf90120000000000000000000000000000000000000000000000000000000000000000000000000",
      "blockhash": "608f101189d844c628e281224f54670b8c3ab2548333635ab663a61780e9676a",
      "confirmations": 249,
      "time": 1640270396,
      "blocktime": 1640270396
    },
    {
      "txid": "e3f550155bc4b72f8be44e9eed5e13fbc689b0b2d534b98e97380e8044fb46b1",
      "hash": "b52e241a41b772780b09ff15ba13026415fecb9d03f6b9f9706de3fd646171b8",
      "version": 2,
      "size": 171,
      "vsize": 144,
      "weight": 576,
      "locktime": 0,
      "vin": [
        {
          "coinbase": "02d3040101",
          "sequence": 4294967295
        }
      ],
      "vout": [
        {
          "value": 0.1953125,
          "n": 0,
          "scriptPubKey": {
            "asm": "OP_HASH160 50b6e6ea0ddc13d8ac720d72fd84943e43de56d7 OP_EQUAL",
            "hex": "a91450b6e6ea0ddc13d8ac720d72fd84943e43de56d787",
            "reqSigs": 1,
            "type": "scripthash",
            "addresses": [
              "2Mzc19tGZj6Y8GWJJhWcbmUdaWQhi63S2vM"
            ]
          }
        },
        {
          "value": 0,
          "n": 1,
          "scriptPubKey": {
            "asm": "OP_RETURN aa21a9ede2f61c3f71d1defd3fa999dfa36953755c690689799962b48bebd836974e8cf9",
            "hex": "6a24aa21a9ede2f61c3f71d1defd3fa999dfa36953755c690689799962b48bebd836974e8cf9",
            "type": "nulldata"
          }
        }
      ],
      "hex": "020000000001010000000000000000000000000000000000000000000000000000000000000000ffffffff0502d3040101ffffffff02f2052a010000000017a91450b6e6ea0ddc13d8ac720d72fd84943e43de56d7870000000000000000266a24aa21a9ede2f61c3f71d1defd3fa999dfa36953755c690689799962b48bebd836974e8cf90120000000000000000000000000000000000000000000000000000000000000000000000000",
      "blockhash": "56e1b509216213ae1dcdfaf8d099c48f5c3b11125ab97de182725bdaa695609f",
      "confirmations": 767,
      "time": 1640270310,
      "blocktime": 1640270310
    }
  ]
}