{
  "transaction": {
    "txid": "a16923ac8344d02369df560bdc61b72325afebc8e1ad4bc243b0d2b2eb309459",
    "hash": "79789e70d0295a81b46356a6a9fc896937efe3815a6e6e34ba7e9602f39a7e33",
    "version": 2,
    "size": 641,
    "vsize": 262,
    "weight": 1046,
    "locktime": 0,
    "vin": [
      {
        "txid": "e1d1ad44f26c0ea1d5cced7de4a211d5734b71d3dc33ab01f1a0cdf101e0df5e",
        "vout": 0,
        "scriptSig": {
          "asm": "",
          "hex": ""
        },
        "txinwitness": [
          "",
          "3044022079ea23c0ef29d5fe2965c13241819174177f192d34523e4035e25a7e11092b0602203efae8b359bffbfc4678b52469b93a8f9d73c7d2969193863bdd5076e671630241",
          "3044022066cc4c6b208c64396ca4e00280da266a1ea76b685527db68d4d6b62bd5d8cb9f02201c3ac0d1a8732b091577448e1ff46004ba58b6bef33a5dd9b8a6bf1f5e75021941",
          "5221028fedaf75b5b08cddf3bf4631c658b68ee6766a8e999467a641d7cb7aaaecec972103316bc27d95b96418349afc6298c259bb999c6e8f39a7217787ad53602be7c1472102e21c29b4a7eeace9c7a8cefb568ca00c86ff9bf5e79e07e5442c29d4a0950d0453ae"
        ],
        "sequence": 4294967295
      },
      {
        "txid": "9c64c80d4c4dd9951408ff7a522f547f541efb5bcec1245115e375f23e724d56",
        "vout": 0,
        "scriptSig": {
          "asm": "",
          "hex": ""
        },
        "txinwitness": [
          "",
          "304402202650a93a7117ba116b56a12b02f182a6c16f9519de100e047c967086b66fcc0f02200f07a0bed89ac8b5bf9f64a9067e84c39d3f32c7c596a5d0e02710f83667419641",
          "3044022049c2f95bc419c580139225e6d272195dab8d1bceda80cdbde0cfcccc784c1804022005e83945dd342ad0da2dc1c676c19b41386b9edd6b4dc219e94bfbf3f7ce057141",
          "5221028fedaf75b5b08cddf3bf4631c658b68ee6766a8e999467a641d7cb7aaaecec972103316bc27d95b96418349afc6298c259bb999c6e8f39a7217787ad53602be7c1472102e21c29b4a7eeace9c7a8cefb568ca00c86ff9bf5e79e07e5442c29d4a0950d0453ae"
        ],
        "sequence": 4294967295
      }
    ],
    "vout": [
      {
        "value": 1.99999,
        "n": 0,
        "scriptPubKey": {
          "asm": "0 1553f31a3e25e770b7bc857b82909e83734dbfe4bcdb5a5e6fc419b6920c398a",
          "hex": "00201553f31a3e25e770b7bc857b82909e83734dbfe4bcdb5a5e6fc419b6920c398a",
          "reqSigs": 1,
          "type": "witness_v0_scripthash",
          "addresses": [
            "btgrt1qz4flxx37yhnhpdaus4ac9yy7sde5m0lyhnd45hn0csvmdysv8x9qmez7qc"
          ]
        }
      }
    ],
    "hex": "020000000001025edfe001f1cda0f101ab33dcd3714b73d511a2e47dedccd5a10e6cf244add1e10000000000ffffffff564d723ef275e3155124c1ce5bfb1e547f542f527aff081495d94d4c0dc8649c0000000000ffffffff0118beeb0b000000002200201553f31a3e25e770b7bc857b82909e83734dbfe4bcdb5a5e6fc419b6920c398a0400473044022079ea23c0ef29d5fe2965c13241819174177f192d34523e4035e25a7e11092b0602203efae8b359bffbfc4678b52469b93a8f9d73c7d2969193863bdd5076e671630241473044022066cc4c6b208c64396ca4e00280da266a1ea76b685527db68d4d6b62bd5d8cb9f02201c3ac0d1a8732b091577448e1ff46004ba58b6bef33a5dd9b8a6bf1f5e75021941695221028fedaf75b5b08cddf3bf4631c658b68ee6766a8e999467a641d7cb7aaaecec972103316bc27d95b96418349afc6298c259bb999c6e8f39a7217787ad53602be7c1472102e21c29b4a7eeace9c7a8cefb568ca00c86ff9bf5e79e07e5442c29d4a0950d0453ae040047304402202650a93a7117ba116b56a12b02f182a6c16f9519de100e047c967086b66fcc0f02200f07a0bed89ac8b5bf9f64a9067e84c39d3f32c7c596a5d0e02710f83667419641473044022049c2f95bc419c580139225e6d272195dab8d1bceda80cdbde0cfcccc784c1804022005e83945dd342ad0da2dc1c676c19b41386b9edd6b4dc219e94bfbf3f7ce057141695221028fedaf75b5b08cddf3bf4631c658b68ee6766a8e999467a641d7cb7aaaecec972103316bc27d95b96418349afc6298c259bb999c6e8f39a7217787ad53602be7c1472102e21c29b4a7eeace9c7a8cefb568ca00c86ff9bf5e79e07e5442c29d4a0950d0453ae00000000"
  },
  "inputs": [
    {
      "txid": "e1d1ad44f26c0ea1d5cced7de4a211d5734b71d3dc33ab01f1a0cdf101e0df5e",
      "hash": "bc602be68c9f0e0a1a6fb9cfd28d8408577d0fd9048a5249c50add0d669f67dd",
      "version": 2,
      "size": 770,
      "vsize": 448,
      "weight": 1790,
      "locktime": 2001,
      "vin": [
        {
          "txid": "d13c9897e0a102670ef2a00f3c9bc23ec3377bb9b94d8212cc79b4255a20566a",
          "vout": 0,
          "scriptSig": {
            "asm": "001426776210a97f23f913d0b8c6d0798707194eee51",
            "hex": "16001426776210a97f23f913d0b8c6d0798707194eee51"
          },
          "txinwitness": [
            "304402203969d2abcef7428ed308cb7c3499bdb1227d6799af42e55886e5acffedff8c23022010ce930c7cb5e94e6d2f20617a765e3ab183df7aebc084f7e733d744c0ccc73441",
            "0206bdf1cc6a86ce3aa5fefd33f21394f8a642c6832bf4bb888c06abf8b123d528"
          ],
          "sequence": 4294967294
        },
        {
          "txid": "7cf685f23f2dc2de17e89dbd5de560b5f6e54563e6835a5b447e14d7f1b836ef",
          "vout": 0,
          "scriptSig": {
            "asm": "001426776210a97f23f913d0b8c6d0798707194eee51",
            "hex": "16001426776210a97f23f913d0b8c6d0798707194eee51"
          },
          "txinwitness": [
            "30440220487fd741cb480b8b073043f9fd1ac399a15abbd43d41e635afb6db465e48bc770220414b0eae07385b3a2d2fbe060c6a6f1045f841ac077dc63bfe99447e13cfdeea41",
            "0206bdf1cc6a86ce3aa5fefd33f21394f8a642c6832bf4bb888c06abf8b123d528"
          ],
          "sequence": 4294967294
        },
        {
          "txid": "9034325103d268dc3cdd91141a26cc05c5aa34dd36c6ca9855c9a0acc22d2426",
          "vout": 0,
          "scriptSig": {
            "asm": "001426776210a97f23f913d0b8c6d0798707194eee51",
            "hex": "16001426776210a97f23f913d0b8c6d0798707194eee51"
          },
          "txinwitness": [
            "304402206e2d015988f03242652da3b8696472728ad26cac79f65e9dcf08e38fefaede0302200d3c29febc37af4728b20a6e1cf10952ed2180247190eb8a81b75d0d9ac65b5341",
            "0206bdf1cc6a86ce3aa5fefd33f21394f8a642c6832bf4bb888c06abf8b123d528"
          ],
          "sequence": 4294967294
        },
        {
          "txid": "dce15139c27cbdc590005e911c242ca6e8b3d0038a8c332f0c8f8fcca23dc233",
          "vout": 0,
          "scriptSig": {
            "asm": "001426776210a97f23f913d0b8c6d0798707194eee51",
            "hex": "16001426776210a97f23f913d0b8c6d0798707194eee51"
          },
          "txinwitness": [
            "3044022050d49b7632cd39b46aeb18cf7ba817712c26400792a92161732d83196909223b0220756dcbbf7c01742f9c7cb56a59eaf652fca295946103b023c6a1f8f7b73b8ae941",
            "0206bdf1cc6a86ce3aa5fefd33f21394f8a642c6832bf4bb888c06abf8b123d528"
          ],
          "sequence": 4294967294
        }
      ],
      "vout": [
        {
          "value": 1,
          "n": 0,
          "scriptPubKey": {
            "asm": "0 1553f31a3e25e770b7bc857b82909e83734dbfe4bcdb5a5e6fc419b6920c398a",
            "hex": "00201553f31a3e25e770b7bc857b82909e83734dbfe4bcdb5a5e6fc419b6920c398a",
            "reqSigs": 1,
            "type": "witness_v0_scripthash",
            "addresses": [
              "btgrt1qz4flxx37yhnhpdaus4ac9yy7sde5m0lyhnd45hn0csvmdysv8x9qmez7qc"
            ]
          }
        },
        {
          "value": 0.01309399,
          "n": 1,
          "scriptPubKey": {
            "asm": "0 75fb6db068f122bbd11a2d0d75f3bd7f1229f74e",
            "hex": "001475fb6db068f122bbd11a2d0d75f3bd7f1229f74e",
            "reqSigs": 1,
            "type": "witness_v0_keyhash",
            "addresses": [
              "btgrt1qwhakmvrg7y3th5g695xhtuaa0ufzna6wx0nmqv"
            ]
          }
        }
      ],
      "hex": "020000000001046a56205a25b479cc12824db9b97b37c33ec29b3c0fa0f20e6702a1e097983cd1000000001716001426776210a97f23f913d0b8c6d0798707194eee51feffffffef36b8f1d7147e445b5a83e66345e5f6b560e55dbd9de817dec22d3ff285f67c000000001716001426776210a97f23f913d0b8c6d0798707194eee51feffffff26242dc2aca0c95598cac636dd34aac505cc261a1491dd3cdc68d20351323490000000001716001426776210a97f23f913d0b8c6d0798707194eee51feffffff33c23da2cc8f8f0c2f338c8a03d0b3e8a62c241c915e0090c5bd7cc23951e1dc000000001716001426776210a97f23f913d0b8c6d0798707194eee51feffffff0200e1f505000000002200201553f31a3e25e770b7bc857b82909e83734dbfe4bcdb5a5e6fc419b6920c398ad7fa13000000000016001475fb6db068f122bbd11a2d0d75f3bd7f1229f74e0247304402203969d2abcef7428ed308cb7c3499bdb1227d6799af42e55886e5acffedff8c23022010ce930c7cb5e94e6d2f20617a765e3ab183df7aebc084f7e733d744c0ccc73441210206bdf1cc6a86ce3aa5fefd33f21394f8a642c6832bf4bb888c06abf8b123d528024730440220487fd741cb480b8b073043f9fd1ac399a15abbd43d41e635afb6db465e48bc770220414b0eae07385b3a2d2fbe060c6a6f1045f841ac077dc63bfe99447e13cfdeea41210206bdf1cc6a86ce3aa5fefd33f21394f8a642c6832bf4bb888c06abf8b123d5280247304402206e2d015988f03242652da3b8696472728ad26cac79f65e9dcf08e38fefaede0302200d3c29febc37af4728b20a6e1cf10952ed2180247190eb8a81b75d0d9ac65b5341210206bdf1cc6a86ce3aa5fefd33f21394f8a642c6832bf4bb888c06abf8b123d52802473044022050d49b7632cd39b46aeb18cf7ba817712c26400792a92161732d83196909223b0220756dcbbf7c01742f9c7cb56a59eaf652fca295946103b023c6a1f8f7b73b8ae941210206bdf1cc6a86ce3aa5fefd33f21394f8a642c6832bf4bb888c06abf8b123d528d1070000"
    },
    {
      "txid": "9c64c80d4c4dd9951408ff7a522f547f541efb5bcec1245115e375f23e724d56",
      "hash": "5c019f7ae2edbe7d7bcaebe817f894d403330614a277c07fa041ea08d9be6dae",
      "version": 2,
      "size": 769,
      "vsize": 448,
      "weight": 1789,
      "locktime": 2001,
      "vin": [
        {
          "txid": "52261618efb69a365907c13d4d63ee2a7d305d9a663561c64217f51077d33cff",
          "vout": 0,
          "scriptSig": {
            "asm": "001426776210a97f23f913d0b8c6d0798707194eee51",
            "hex": "16001426776210a97f23f913d0b8c6d0798707194eee51"
          },
          "txinwitness": [
            "3044022009200501e34ec9df82bc63b3d4c05f4046f41983312d8bc891ed45ebb157fb0c02205816d5e662e1e1ae98a581bb75602d7a8b4273ef925a906ae3528f85fae8349541",
            "0206bdf1cc6a86ce3aa5fefd33f21394f8a642c6832bf4bb888c06abf8b123d528"
          ],
          "sequence": 4294967294
        },
        {
          "txid": "0843a9aaad5c11875365cbda310ca40ae67b208da63818f29d016b5b4d58c9fc",
          "vout": 0,
          "scriptSig": {
            "asm": "001426776210a97f23f913d0b8c6d0798707194eee51",
            "hex": "16001426776210a97f23f913d0b8c6d0798707194eee51"
          },
          "txinwitness": [
            "30440220452feb0429c4a157ccc26e0f7fa78fc9f40f8974a08437015c5a62bdfb8757a802204df725044116b24d83ff15d2c190c7225500a06c5b7ad856d15fea735d0614da41",
            "0206bdf1cc6a86ce3aa5fefd33f21394f8a642c6832bf4bb888c06abf8b123d528"
          ],
          "sequence": 4294967294
        },
        {
          "txid": "a0c386df6f1552c7dd9f9a7afe8630d2ecd8eafd530bd6e92cbbb7916ae74d59",
          "vout": 0,
          "scriptSig": {
            "asm": "001426776210a97f23f913d0b8c6d0798707194eee51",
            "hex": "16001426776210a97f23f913d0b8c6d0798707194eee51"
          },
          "txinwitness": [
            "304402203f0f617f3943f943320d7f1631ccd3953b625997c02a9cf0d1886d2966fba4b302200a897d4cc99c38482f5951d238227e0dc24b10025d8ccc22cac9211f8fb068b341",
            "0206bdf1cc6a86ce3aa5fefd33f21394f8a642c6832bf4bb888c06abf8b123d528"
          ],
          "sequence": 4294967294
        },
        {
          "txid": "3ae22d121706eea686537e1ce2b96860a14582d03acdede67e6dd48638542338",
          "vout": 0,
          "scriptSig": {
            "asm": "001426776210a97f23f913d0b8c6d0798707194eee51",
            "hex": "16001426776210a97f23f913d0b8c6d0798707194eee51"
          },
          "txinwitness": [
            "3043021f3af831cd7397e40f736e77054bd65ac089fe8f997e58e377b6974e6e362a5d022051b519df84cc7e81aadfbe95a9af162a3bbcc26515b4b64ba0f96b9cb06bdc5141",
            "0206bdf1cc6a86ce3aa5fefd33f21394f8a642c6832bf4bb888c06abf8b123d528"
          ],
          "sequence": 4294967294
        }
      ],
      "vout": [
        {
          "value": 1,
          "n": 0,
          "scriptPubKey": {
            "asm": "0 1553f31a3e25e770b7bc857b82909e83734dbfe4bcdb5a5e6fc419b6920c398a",
            "hex": "00201553f31a3e25e770b7bc857b82909e83734dbfe4bcdb5a5e6fc419b6920c398a",
            "reqSigs": 1,
            "type": "witness_v0_scripthash",
            "addresses": [
              "btgrt1qz4flxx37yhnhpdaus4ac9yy7sde5m0lyhnd45hn0csvmdysv8x9qmez7qc"
            ]
          }
        },
        {
          "value": 0.01309399,
          "n": 1,
          "scriptPubKey": {
            "asm": "0 ffe9622dfa842370eb8f20a9920fb84fe9390c7a",
            "hex": "0014ffe9622dfa842370eb8f20a9920fb84fe9390c7a",
            "reqSigs": 1,
            "type": "witness_v0_keyhash",
            "addresses": [
              "btgrt1qll5kyt06ss3hp6u0yz5eyracfl5njrr6mef933"
            ]
          }
        }
      ],
      "hex": "02000000000104ff3cd37710f51742c66135669a5d307d2aee634d3dc10759369ab6ef18162652000000001716001426776210a97f23f913d0b8c6d0798707194eee51fefffffffcc9584d5b6b019df21838a68d207be60aa40c31dacb655387115cadaaa94308000000001716001426776210a97f23f913d0b8c6d0798707194eee51feffffff594de76a91b7bb2ce9d60b53fdead8ecd23086fe7a9a9fddc752156fdf86c3a0000000001716001426776210a97f23f913d0b8c6d0798707194eee51feffffff3823543886d46d7ee6edcd3ad08245a16068b9e21c7e5386a6ee0617122de23a000000001716001426776210a97f23f913d0b8c6d0798707194eee51feffffff0200e1f505000000002200201553f31a3e25e770b7bc857b82909e83734dbfe4bcdb5a5e6fc419b6920c398ad7fa130000000000160014ffe9622dfa842370eb8f20a9920fb84fe9390c7a02473044022009200501e34ec9df82bc63b3d4c05f4046f41983312d8bc891ed45ebb157fb0c02205816d5e662e1e1ae98a581bb75602d7a8b4273ef925a906ae3528f85fae8349541210206bdf1cc6a86ce3aa5fefd33f21394f8a642c6832bf4bb888c06abf8b123d528024730440220452feb0429c4a157ccc26e0f7fa78fc9f40f8974a08437015c5a62bdfb8757a802204df725044116b24d83ff15d2c190c7225500a06c5b7ad856d15fea735d0614da41210206bdf1cc6a86ce3aa5fefd33f21394f8a642c6832bf4bb888c06abf8b123d5280247304402203f0f617f3943f943320d7f1631ccd3953b625997c02a9cf0d1886d2966fba4b302200a897d4cc99c38482f5951d238227e0dc24b10025d8ccc22cac9211f8fb068b341210206bdf1cc6a86ce3aa5fefd33f21394f8a642c6832bf4bb888c06abf8b123d52802463043021f3af831cd7397e40f736e77054bd65ac089fe8f997e58e377b6974e6e362a5d022051b519df84cc7e81aadfbe95a9af162a3bbcc26515b4b64ba0f96b9cb06bdc5141210206bdf1cc6a86ce3aa5fefd33f21394f8a642c6832bf4bb888c06abf8b123d528d1070000"
    }
  ]
}