{
  "transaction": {
    "txid": "94dcc3ac2d4b5c9ad9ccdc5363f360093fdc2072732a7fd21c6432b0566f7581",
    "hash": "00485e227f42121e238f268ded6bdcca502ebbd9c9f98cae147734572c1661a5",
    "version": 2,
    "size": 701,
    "vsize": 321,
    "weight": 1283,
    "locktime": 0,
    "vin": [
      {
        "txid": "6320ceb66ce817af6149e974cc68bc6587fdafea13baf57d8d244debdff4d75c",
        "vout": 0,
        "scriptSig": {
          "asm": "00201553f31a3e25e770b7bc857b82909e83734dbfe4bcdb5a5e6fc419b6920c398a",
          "hex": "2200201553f31a3e25e770b7bc857b82909e83734dbfe4bcdb5a5e6fc419b6920c398a"
        },
        "txinwitness": [
          "",
          "30440220716cc4f74457ef8bc56deef3aa365cfdb250f929fc942fb2bbfabba2f69fbbd302206b0afabaac6d761b9c10ce20ee36ab72dc44a835f25f9beebed69d1c73f38f3541",
          "3045022100fa7fe72a8128d7a5f051a18ded2999371ac66f71fc036fa6ceb33ee3741dba870220699e716891c7dddc4a989dcfdc57e39d2df4c8f90b0b532dc899df95f562d7db41",
          "5221028fedaf75b5b08cddf3bf4631c658b68ee6766a8e999467a641d7cb7aaaecec972103316bc27d95b96418349afc6298c259bb999c6e8f39a7217787ad53602be7c1472102e21c29b4a7eeace9c7a8cefb568ca00c86ff9bf5e79e07e5442c29d4a0950d0453ae"
        ],
        "sequence": 4294967295
      },
      {
        "txid": "b257a52e9685f4de528b0c34dc59d8296f2616762915d590bc3a0478c304ba41",
        "vout": 1,
        "scriptSig": {
          "asm": "00201553f31a3e25e770b7bc857b82909e83734dbfe4bcdb5a5e6fc419b6920c398a",
          "hex": "2200201553f31a3e25e770b7bc857b82909e83734dbfe4bcdb5a5e6fc419b6920c398a"
        },
        "txinwitness": [
          "",
          "304402203a9a496ea6c2ab9ea305929001e24f4436617fc98a3db5908741741d168b1da602207298e58c28f922661928a3b32814078b7565a6ef65d2fdb32aeb59cb5e0d41b741",
          "304402204870353ad02805f649940b17d76db6daac78e95b1c4955d7346cdafee768b0f902200fd846418eca388b45a39ec2a9503ebcd859401e03df578f303b24ac590fcc8141",
          "5221028fedaf75b5b08cddf3bf4631c658b68ee6766a8e999467a641d7cb7aaaecec972103316bc27d95b96418349afc6298c259bb999c6e8f39a7217787ad53602be7c1472102e21c29b4a7eeace9c7a8cefb568ca00c86ff9bf5e79e07e5442c29d4a0950d0453ae"
        ],
        "sequence": 4294967295
      }
    ],
    "vout": [
      {
        "value": 1.99999,
        "n": 0,
        "scriptPubKey": {
          "asm": "OP_HASH160 2280193aca8462021ec369d4e2ff1c95741fba7f OP_EQUAL",
          "hex": "a9142280193aca8462021ec369d4e2ff1c95741fba7f87",
          "reqSigs": 1,
          "type": "scripthash",
          "addresses": [
            "2MvPeRFSGYJq9BXoV2fxrMpJjsZMGx2m6Zk"
          ]
        }
      }
    ],
    "hex": "020000000001025cd7f4dfeb4d248d7df5ba13eaaffd8765bc68cc74e94961af17e86cb6ce206300000000232200201553f31a3e25e770b7bc857b82909e83734dbfe4bcdb5a5e6fc419b6920c398affffffff41ba04c378043abc90d515297616266f29d859dc340c8b52def485962ea557b201000000232200201553f31a3e25e770b7bc857b82909e83734dbfe4bcdb5a5e6fc419b6920c398affffffff0118beeb0b0000000017a9142280193aca8462021ec369d4e2ff1c95741fba7f8704004730440220716cc4f74457ef8bc56deef3aa365cfdb250f929fc942fb2bbfabba2f69fbbd302206b0afabaac6d761b9c10ce20ee36ab72dc44a835f25f9beebed69d1c73f38f3541483045022100fa7fe72a8128d7a5f051a18ded2999371ac66f71fc036fa6ceb33ee3741dba870220699e716891c7dddc4a989dcfdc57e39d2df4c8f90b0b532dc899df95f562d7db41695221028fedaf75b5b08cddf3bf4631c658b68ee6766a8e999467a641d7cb7aaaecec972103316bc27d95b96418349afc6298c259bb999c6e8f39a7217787ad53602be7c1472102e21c29b4a7eeace9c7a8cefb568ca00c86ff9bf5e79e07e5442c29d4a0950d0453ae040047304402203a9a496ea6c2ab9ea305929001e24f4436617fc98a3db5908741741d168b1da602207298e58c28f922661928a3b32814078b7565a6ef65d2fdb32aeb59cb5e0d41b74147304402204870353ad02805f649940b17d76db6daac78e95b1c4955d7346cdafee768b0f902200fd846418eca388b45a39ec2a9503ebcd859401e03df578f303b24ac590fcc8141695221028fedaf75b5b08cddf3bf4631c658b68ee6766a8e999467a641d7cb7aaaecec972103316bc27d95b96418349afc6298c259bb999c6e8f39a7217787ad53602be7c1472102e21c29b4a7eeace9c7a8cefb568ca00c86ff9bf5e79e07e5442c29d4a0950d0453ae00000000"
  },
  "inputs": [
    {
      "txid": "6320ceb66ce817af6149e974cc68bc6587fdafea13baf57d8d244debdff4d75c",
      "hash": "7483bdbd07e604b3733fbaa8f9c98de121a7f0e910be96e92bcdbd45e3d78cd7",
      "version": 2,
      "size": 760,
      "vsize": 438,
      "weight": 1750,
      "locktime": 2001,
      "vin": [
        {
          "txid": "90a686747bb26a6f46108c62bdf2586cd566b8800d44e9432e72c191cbd7750a",
          "vout": 0,
          "scriptSig": {
            "asm": "001426776210a97f23f913d0b8c6d0798707194eee51",
            "hex": "16001426776210a97f23f913d0b8c6d0798707194eee51"
          },
          "txinwitness": [
            "304402204ee5b8174cf7cf64330d863ec122bc0ca4b2f37b4bda8dc6fbe0c601e75f88f102205245908abd9169a33debc5e731b627086929ef183d0e100937a549a2b3fdd97641",
            "0206bdf1cc6a86ce3aa5fefd33f21394f8a642c6832bf4bb888c06abf8b123d528"
          ],
          "sequence": 4294967294
        },
        {
          "txid": "8c0aedcb000dd1016b755a95f41aaeac382ecb1f25cf45f5e11de37170c87b7a",
          "vout": 0,
          "scriptSig": {
            "asm": "001426776210a97f23f913d0b8c6d0798707194eee51",
            "hex": "16001426776210a97f23f913d0b8c6d0798707194eee51"
          },
          "txinwitness": [
            "3044022056146065bd89e41c565c2a7aa464be3c25c330eb470c2ea61785054c8c5434650220602d689a8c07aa74c94450de557e834300b4209264358bfecc1d7e4bf2479dd941",
            "0206bdf1cc6a86ce3aa5fefd33f21394f8a642c6832bf4bb888c06abf8b123d528"
          ],
          "sequence": 4294967294
        },
        {
          "txid": "1fef70aaf6115f6378234b9f0e25b40b070c4357dbae2f39775aabc682cc42c5",
          "vout": 0,
          "scriptSig": {
            "asm": "001426776210a97f23f913d0b8c6d0798707194eee51",
            "hex": "16001426776210a97f23f913d0b8c6d0798707194eee51"
          },
          "txinwitness": [
            "3044022007768a4b48918d5e2d604a836bc2c3b4dae9ff325d87333b4b65638c108e2a670220248f1bcbc23c8167541ed5275a164c40a1042f0cacd0b3e2324bc873c23478ce41",
            "0206bdf1cc6a86ce3aa5fefd33f21394f8a642c6832bf4bb888c06abf8b123d528"
          ],
          "sequence": 4294967294
        },
        {
          "txid": "eb6b05c050cc1330a98aff82f9ef0541be1a47fb8cb781c311b35e9605649312",
          "vout": 0,
          "scriptSig": {
            "asm": "001426776210a97f23f913d0b8c6d0798707194eee51",
            "hex": "16001426776210a97f23f913d0b8c6d0798707194eee51"
          },
          "txinwitness": [
            "30440220704f09319936ea9424a705e3f682213707678498e2716100735c3930fbb1a6af022030eb7725efad484553b79b1a351a59bac747354e270f7deecfb55ac61724512b41",
            "0206bdf1cc6a86ce3aa5fefd33f21394f8a642c6832bf4bb888c06abf8b123d528"
          ],
          "sequence": 4294967294
        }
      ],
      "vout": [
        {
          "value": 1,
          "n": 0,
          "scriptPubKey": {
            "asm": "OP_HASH160 2280193aca8462021ec369d4e2ff1c95741fba7f OP_EQUAL",
            "hex": "a9142280193aca8462021ec369d4e2ff1c95741fba7f87",
            "reqSigs": 1,
            "type": "scripthash",
            "addresses": [
              "2MvPeRFSGYJq9BXoV2fxrMpJjsZMGx2m6Zk"
            ]
          }
        },
        {
          "value": 0.01309599,
          "n": 1,
          "scriptPubKey": {
            "asm": "OP_HASH160 592edbd750293078f8e5287b208ff3ea705928ab OP_EQUAL",
            "hex": "a914592edbd750293078f8e5287b208ff3ea705928ab87",
            "reqSigs": 1,
            "type": "scripthash",
            "addresses": [
              "2N1NnGAF6AqNa9igGA3i9pbRE4dHReJxmZv"
            ]
          }
        }
      ],
      "hex": "020000000001040a75d7cb91c1722e43e9440d80b866d56c58f2bd628c10466f6ab27b7486a690000000001716001426776210a97f23f913d0b8c6d0798707194eee51feffffff7a7bc87071e31de1f545cf251fcb2e38acae1af4955a756b01d10d00cbed0a8c000000001716001426776210a97f23f913d0b8c6d0798707194eee51feffffffc542cc82c6ab5a77392faedb57430c070bb4250e9f4b2378635f11f6aa70ef1f000000001716001426776210a97f23f913d0b8c6d0798707194eee51feffffff12936405965eb311c381b78cfb471abe4105eff982ff8aa93013cc50c0056beb000000001716001426776210a97f23f913d0b8c6d0798707194eee51feffffff0200e1f5050000000017a9142280193aca8462021ec369d4e2ff1c95741fba7f879ffb13000000000017a914592edbd750293078f8e5287b208ff3ea705928ab870247304402204ee5b8174cf7cf64330d863ec122bc0ca4b2f37b4bda8dc6fbe0c601e75f88f102205245908abd9169a33debc5e731b627086929ef183d0e100937a549a2b3fdd97641210206bdf1cc6a86ce3aa5fefd33f21394f8a642c6832bf4bb888c06abf8b123d52802473044022056146065bd89e41c565c2a7aa464be3c25c330eb470c2ea61785054c8c5434650220602d689a8c07aa74c94450de557e834300b4209264358bfecc1d7e4bf2479dd941210206bdf1cc6a86ce3aa5fefd33f21394f8a642c6832bf4bb888c06abf8b123d52802473044022007768a4b48918d5e2d604a836bc2c3b4dae9ff325d87333b4b65638c108e2a670220248f1bcbc23c8167541ed5275a164c40a1042f0cacd0b3e2324bc873c23478ce41210206bdf1cc6a86ce3aa5fefd33f21394f8a642c6832bf4bb888c06abf8b123d528024730440220704f09319936ea9424a705e3f682213707678498e2716100735c3930fbb1a6af022030eb7725efad484553b79b1a351a59bac747354e270f7deecfb55ac61724512b41210206bdf1cc6a86ce3aa5fefd33f21394f8a642c6832bf4bb888c06abf8b123d528d1070000"
    },
    {
      "txid": "b257a52e9685f4de528b0c34dc59d8296f2616762915d590bc3a0478c304ba41",
      "hash": "ba70f7034ab5f6c4ee4bfd7db72281aaf34a0c6f081adabd1e9c9117b6687180",
      "version": 2,
      "size": 760,
      "vsize": 438,
      "weight": 1750,
      "locktime": 2001,
      "vin": [
        {
          "txid": "58b3f864d1c77c992672d39c16a038f013589f1c73b4699db5faa65e6fed7fce",
          "vout": 0,
          "scriptSig": {
            "asm": "001426776210a97f23f913d0b8c6d0798707194eee51",
            "hex": "16001426776210a97f23f913d0b8c6d0798707194eee51"
          },
          "txinwitness": [
            "304402201e8680c7fd1cd6de1fec2fee777f7e7c1b9e75e9d0bd52ba58f884e2dacb2bd4022023009aa3d57ec1989eecb1c992f38c095993ea1943286cfba035c57d3f7a65a141",
            "0206bdf1cc6a86ce3aa5fefd33f21394f8a642c6832bf4bb888c06abf8b123d528"
          ],
          "sequence": 4294967294
        },
        {
          "txid": "52a9d0dfe10e0d77731ef71f98649682ca0b85aedf2cd7b9fd7fdc242a02bfd9",
          "vout": 0,
          "scriptSig": {
            "asm": "001426776210a97f23f913d0b8c6d0798707194eee51",
            "hex": "16001426776210a97f23f913d0b8c6d0798707194eee51"
          },
          "txinwitness": [
            "304402202256c0c728257bad490c7536799d45554704c349d7da2e1691792b59baba6306022061eecc1fb422d23e3317e3ec548d66b6c45fb371bdb5606553e2a93de6131a6a41",
            "0206bdf1cc6a86ce3aa5fefd33f21394f8a642c6832bf4bb888c06abf8b123d528"
          ],
          "sequence": 4294967294
        },
        {
          "txid": "5e3f40cdd51d97877dbe340691a0f72a4f6ca600df4871c596c578c000531a16",
          "vout": 0,
          "scriptSig": {
            "asm": "001426776210a97f23f913d0b8c6d0798707194eee51",
            "hex": "16001426776210a97f23f913d0b8c6d0798707194eee51"
          },
          "txinwitness": [
            "30440220295526004db03b52790d485422efa25f00c553a9fb299f4cf1a8ea337c11eca4022027713d99b5f7c56310447fdfb1f20fbf9030f507dc6e6c8a18275325615a9d6741",
            "0206bdf1cc6a86ce3aa5fefd33f21394f8a642c6832bf4bb888c06abf8b123d528"
          ],
          "sequence": 4294967294
        },
        {
          "txid": "9de16f5e33234a17dbf4bba599d926f3762ef35b8d3e916db8facb8c65721909",
          "vout": 0,
          "scriptSig": {
            "asm": "001426776210a97f23f913d0b8c6d0798707194eee51",
            "hex": "16001426776210a97f23f913d0b8c6d0798707194eee51"
          },
          "txinwitness": [
            "3044022034276f39c4cec920fbb2f7e0cd66d94cf516211e5ed7f358a0ca0cb3eb5db8a2022061e9d422ce562f4aaab14e2de471fd9e0b22115707efcc241b70ed702490060e41",
            "0206bdf1cc6a86ce3aa5fefd33f21394f8a642c6832bf4bb888c06abf8b123d528"
          ],
          "sequence": 4294967294
        }
      ],
      "vout": [
        {
          "value": 0.01309599,
          "n": 0,
          "scriptPubKey": {
            "asm": "OP_HASH160 9df68b25f6af4a098aadac136f16ac411e9bf234 OP_EQUAL",
            "hex": "a9149df68b25f6af4a098aadac136f16ac411e9bf23487",
            "reqSigs": 1,
            "type": "scripthash",
            "addresses": [
              "2N7eTRYhZYw9ibJzBWp7drUP6SHq9KtbMch"
            ]
          }
        },
        {
          "value": 1,
          "n": 1,
          "scriptPubKey": {
            "asm": "OP_HASH160 2280193aca8462021ec369d4e2ff1c95741fba7f OP_EQUAL",
            "hex": "a9142280193aca8462021ec369d4e2ff1c95741fba7f87",
            "reqSigs": 1,
            "type": "scripthash",
            "addresses": [
              "2MvPeRFSGYJq9BXoV2fxrMpJjsZMGx2m6Zk"
            ]
          }
        }
      ],
      "hex": "02000000000104ce7fed6f5ea6fab59d69b4731c9f5813f038a0169cd37226997cc7d164f8b358000000001716001426776210a97f23f913d0b8c6d0798707194eee51feffffffd9bf022a24dc7ffdb9d72cdfae850bca829664981ff71e73770d0ee1dfd0a952000000001716001426776210a97f23f913d0b8c6d0798707194eee51feffffff161a5300c078c596c57148df00a66c4f2af7a0910634be7d87971dd5cd403f5e000000001716001426776210a97f23f913d0b8c6d0798707194eee51feffffff091972658ccbfab86d913e8d5bf32e76f326d999a5bbf4db174a23335e6fe19d000000001716001426776210a97f23f913d0b8c6d0798707194eee51feffffff029ffb13000000000017a9149df68b25f6af4a098aadac136f16ac411e9bf2348700e1f5050000000017a9142280193aca8462021ec369d4e2ff1c95741fba7f870247304402201e8680c7fd1cd6de1fec2fee777f7e7c1b9e75e9d0bd52ba58f884e2dacb2bd4022023009aa3d57ec1989eecb1c992f38c095993ea1943286cfba035c57d3f7a65a141210206bdf1cc6a86ce3aa5fefd33f21394f8a642c6832bf4bb888c06abf8b123d5280247304402202256c0c728257bad490c7536799d45554704c349d7da2e1691792b59baba6306022061eecc1fb422d23e3317e3ec548d66b6c45fb371bdb5606553e2a93de6131a6a41210206bdf1cc6a86ce3aa5fefd33f21394f8a642c6832bf4bb888c06abf8b123d528024730440220295526004db03b52790d485422efa25f00c553a9fb299f4cf1a8ea337c11eca4022027713d99b5f7c56310447fdfb1f20fbf9030f507dc6e6c8a18275325615a9d6741210206bdf1cc6a86ce3aa5fefd33f21394f8a642c6832bf4bb888c06abf8b123d52802473044022034276f39c4cec920fbb2f7e0cd66d94cf516211e5ed7f358a0ca0cb3eb5db8a2022061e9d422ce562f4aaab14e2de471fd9e0b22115707efcc241b70ed702490060e41210206bdf1cc6a86ce3aa5fefd33f21394f8a642c6832bf4bb888c06abf8b123d528d1070000"
    }
  ]
}