{
  "transaction": {
    "txid": "9ccb0b09fac9a909b82d64712893086bb07d86694fe870ac0a4f987459f12f47",
    "hash": "9ccb0b09fac9a909b82d64712893086bb07d86694fe870ac0a4f987459f12f47",
    "version": 2,
    "size": 635,
    "vsize": 635,
    "weight": 2540,
    "locktime": 0,
    "vin": [
      {
        "txid": "1c7e84246bfdc54bc8f05392cb87a55e8a82c2db4ac6ac27b83c6e64654d0154",
        "vout": 1,
        "scriptSig": {
          "asm": "0 3045022100d85afd5c55ee9f045320565a1d3e3afa7e1a6e034a0cf5ecb1bd5d064863b491022052b0db600cacafcf19cc07af43cd126c412cbbe45acfe30b7611febebffbf242[ALL|FORKID] 3045022100c912344b2e2a8e1985f5b716bb442a2acbeab8b050b3d07ad9a5d254bd114c97022058ed3cc57ee379dd486e31ab5a34950dcf2211df5cd872a5aa9ce2c427d5d14e[ALL|FORKID] 5221028fedaf75b5b08cddf3bf4631c658b68ee6766a8e999467a641d7cb7aaaecec972103316bc27d95b96418349afc6298c259bb999c6e8f39a7217787ad53602be7c1472102e21c29b4a7eeace9c7a8cefb568ca00c86ff9bf5e79e07e5442c29d4a0950d0453ae",
          "hex": "00483045022100d85afd5c55ee9f045320565a1d3e3afa7e1a6e034a0cf5ecb1bd5d064863b491022052b0db600cacafcf19cc07af43cd126c412cbbe45acfe30b7611febebffbf24241483045022100c912344b2e2a8e1985f5b716bb442a2acbeab8b050b3d07ad9a5d254bd114c97022058ed3cc57ee379dd486e31ab5a34950dcf2211df5cd872a5aa9ce2c427d5d14e414c695221028fedaf75b5b08cddf3bf4631c658b68ee6766a8e999467a641d7cb7aaaecec972103316bc27d95b96418349afc6298c259bb999c6e8f39a7217787ad53602be7c1472102e21c29b4a7eeace9c7a8cefb568ca00c86ff9bf5e79e07e5442c29d4a0950d0453ae"
        },
        "sequence": 4294967295
      },
      {
        "txid": "93a640b0ad6b3b30f5e3a6456ac0d3767c7e57fc9ef39447bd0ea7cc8f90e822",
        "vout": 1,
        "scriptSig": {
          "asm": "0 3044022039f7fe2913fcc617ef94d134723f6f9af601f3dff107674d5180a8ce2fb70a3a02206f1e886cef792abff388a9433097196c66cb0748512e24604788018d7c2db436[ALL|FORKID] 304502210085bf9904aaec1d8c1ca9e4b5788a7b9d4204c5cab995cb3e231201da870469fc0220440653fc876660928833995ce8524ce5db3ef6acf7d1500963ec05a5bfcd2aae[ALL|FORKID] 5221028fedaf75b5b08cddf3bf4631c658b68ee6766a8e999467a641d7cb7aaaecec972103316bc27d95b96418349afc6298c259bb999c6e8f39a7217787ad53602be7c1472102e21c29b4a7eeace9c7a8cefb568ca00c86ff9bf5e79e07e5442c29d4a0950d0453ae",
          "hex": "00473044022039f7fe2913fcc617ef94d134723f6f9af601f3dff107674d5180a8ce2fb70a3a02206f1e886cef792abff388a9433097196c66cb0748512e24604788018d7c2db4364148304502210085bf9904aaec1d8c1ca9e4b5788a7b9d4204c5cab995cb3e231201da870469fc0220440653fc876660928833995ce8524ce5db3ef6acf7d1500963ec05a5bfcd2aae414c695221028fedaf75b5b08cddf3bf4631c658b68ee6766a8e999467a641d7cb7aaaecec972103316bc27d95b96418349afc6298c259bb999c6e8f39a7217787ad53602be7c1472102e21c29b4a7eeace9c7a8cefb568ca00c86ff9bf5e79e07e5442c29d4a0950d0453ae"
        },
        "sequence": 4294967295
      }
    ],
    "vout": [
      {
        "value": 1.99999,
        "n": 0,
        "scriptPubKey": {
          "asm": "OP_HASH160 fe5cc5d87e3348a5f3eaa316898a0f05d520876e OP_EQUAL",
          "hex": "a914fe5cc5d87e3348a5f3eaa316898a0f05d520876e87",
          "reqSigs": 1,
          "type": "scripthash",
          "addresses": [
            "2NGSAkyhiWMZPcrfiwmcRWf9HQgpsiRGKv4"
          ]
        }
      }
    ],
    "hex": "020000000254014d65646e3cb827acc64adbc2828a5ea587cb9253f0c84bc5fd6b24847e1c01000000fdfe0000483045022100d85afd5c55ee9f045320565a1d3e3afa7e1a6e034a0cf5ecb1bd5d064863b491022052b0db600cacafcf19cc07af43cd126c412cbbe45acfe30b7611febebffbf24241483045022100c912344b2e2a8e1985f5b716bb442a2acbeab8b050b3d07ad9a5d254bd114c97022058ed3cc57ee379dd486e31ab5a34950dcf2211df5cd872a5aa9ce2c427d5d14e414c695221028fedaf75b5b08cddf3bf4631c658b68ee6766a8e999467a641d7cb7aaaecec972103316bc27d95b96418349afc6298c259bb999c6e8f39a7217787ad53602be7c1472102e21c29b4a7eeace9c7a8cefb568ca00c86ff9bf5e79e07e5442c29d4a0950d0453aeffffffff22e8908fcca70ebd4794f39efc577e7c76d3c06a45a6e3f5303b6badb040a69301000000fdfd0000473044022039f7fe2913fcc617ef94d134723f6f9af601f3dff107674d5180a8ce2fb70a3a02206f1e886cef792abff388a9433097196c66cb0748512e24604788018d7c2db4364148304502210085bf9904aaec1d8c1ca9e4b5788a7b9d4204c5cab995cb3e231201da870469fc0220440653fc876660928833995ce8524ce5db3ef6acf7d1500963ec05a5bfcd2aae414c695221028fedaf75b5b08cddf3bf4631c658b68ee6766a8e999467a641d7cb7aaaecec972103316bc27d95b96418349afc6298c259bb999c6e8f39a7217787ad53602be7c1472102e21c29b4a7eeace9c7a8cefb568ca00c86ff9bf5e79e07e5442c29d4a0950d0453aeffffffff0118beeb0b0000000017a914fe5cc5d87e3348a5f3eaa316898a0f05d520876e8700000000"
  },
  "inputs": [
    {
      "txid": "1c7e84246bfdc54bc8f05392cb87a55e8a82c2db4ac6ac27b83c6e64654d0154",
      "hash": "b5ef030751badf9476304f2ba7fa91688619a23016a448eea3eae0a4af56fd12",
      "version": 2,
      "size": 760,
      "vsize": 438,
      "weight": 1750,
      "locktime": 2001,
      "vin": [
        {
          "txid": "b9e99416f9192086a0717a332fa8d731b7eec25b7b01374e643263bce600b3b5",
          "vout": 0,
          "scriptSig": {
            "asm": "001426776210a97f23f913d0b8c6d0798707194eee51",
            "hex": "16001426776210a97f23f913d0b8c6d0798707194eee51"
          },
          "txinwitness": [
            "30440220628216ca0c543e79ae185eeb921b59449b5cae9a2dc363bcec744c403ef69f96022055ca94d002c6b1ec548ed9efbe8da8d3de3d3aeffce4112b9bd2af6d0e179bae41",
            "0206bdf1cc6a86ce3aa5fefd33f21394f8a642c6832bf4bb888c06abf8b123d528"
          ],
          "sequence": 4294967294
        },
        {
          "txid": "594fc3f1fd83056f7bfda69817916fc91831d4607cc9fe37c72162d538e41d2c",
          "vout": 0,
          "scriptSig": {
            "asm": "001426776210a97f23f913d0b8c6d0798707194eee51",
            "hex": "16001426776210a97f23f913d0b8c6d0798707194eee51"
          },
          "txinwitness": [
            "3044022005e1372111935e69906a876b51f975896b2e1fac006d85303066f1411f1d650502202a5b6aa047b7425d8a22aa6af4780458865e432296fb7283f5e4ea5157764edd41",
            "0206bdf1cc6a86ce3aa5fefd33f21394f8a642c6832bf4bb888c06abf8b123d528"
          ],
          "sequence": 4294967294
        },
        {
          "txid": "4e4e6f1eb728472845f68d57b00a9c3b6a95696f50ac3c81e98bd42c49cacb2f",
          "vout": 0,
          "scriptSig": {
            "asm": "001426776210a97f23f913d0b8c6d0798707194eee51",
            "hex": "16001426776210a97f23f913d0b8c6d0798707194eee51"
          },
          "txinwitness": [
            "304402205e8e0dc7d2e573fc2c60c650abc50d8e35f6b2a4811276aa10b6ee99e264e4dd02202c00a03dafe97b3bfaa3a1c6a067fbf78e2d513def623fcbbbbc074b2d559c0541",
            "0206bdf1cc6a86ce3aa5fefd33f21394f8a642c6832bf4bb888c06abf8b123d528"
          ],
          "sequence": 4294967294
        },
        {
          "txid": "44241bfe5e855baa4e9535f7f9cd508231e56ae35d8479d7f610d640f85b3da2",
          "vout": 0,
          "scriptSig": {
            "asm": "001426776210a97f23f913d0b8c6d0798707194eee51",
            "hex": "16001426776210a97f23f913d0b8c6d0798707194eee51"
          },
          "txinwitness": [
            "3044022073e25ed905fa7901aa2eb50130f3061d885403a4b80a8f64f20b0ff737b3911002203e082994cf29072f025a39fa53a6fd0a95eb68ac39aa44e4facea7c8f2422df441",
            "0206bdf1cc6a86ce3aa5fefd33f21394f8a642c6832bf4bb888c06abf8b123d528"
          ],
          "sequence": 4294967294
        }
      ],
      "vout": [
        {
          "value": 0.01309599,
          "n": 0,
          "scriptPubKey": {
            "asm": "OP_HASH160 150324f4821ba006ef77e5e1d9c48c3b954ade46 OP_EQUAL",
            "hex": "a914150324f4821ba006ef77e5e1d9c48c3b954ade4687",
            "reqSigs": 1,
            "type": "scripthash",
            "addresses": [
              "2MuAKwnYbBHkwZfZ21f3zbziBXW68eQNDh5"
            ]
          }
        },
        {
          "value": 1,
          "n": 1,
          "scriptPubKey": {
            "asm": "OP_HASH160 fe5cc5d87e3348a5f3eaa316898a0f05d520876e OP_EQUAL",
            "hex": "a914fe5cc5d87e3348a5f3eaa316898a0f05d520876e87",
            "reqSigs": 1,
            "type": "scripthash",
            "addresses": [
              "2NGSAkyhiWMZPcrfiwmcRWf9HQgpsiRGKv4"
            ]
          }
        }
      ],
      "hex": "02000000000104b5b300e6bc6332644e37017b5bc2eeb731d7a82f337a71a0862019f91694e9b9000000001716001426776210a97f23f913d0b8c6d0798707194eee51feffffff2c1de438d56221c737fec97c60d43118c96f911798a6fd7b6f0583fdf1c34f59000000001716001426776210a97f23f913d0b8c6d0798707194eee51feffffff2fcbca492cd48be9813cac506f69956a3b9c0ab0578df645284728b71e6f4e4e000000001716001426776210a97f23f913d0b8c6d0798707194eee51feffffffa23d5bf840d610f6d779845de36ae5318250cdf9f735954eaa5b855efe1b2444000000001716001426776210a97f23f913d0b8c6d0798707194eee51feffffff029ffb13000000000017a914150324f4821ba006ef77e5e1d9c48c3b954ade468700e1f5050000000017a914fe5cc5d87e3348a5f3eaa316898a0f05d520876e87024730440220628216ca0c543e79ae185eeb921b59449b5cae9a2dc363bcec744c403ef69f96022055ca94d002c6b1ec548ed9efbe8da8d3de3d3aeffce4112b9bd2af6d0e179bae41210206bdf1cc6a86ce3aa5fefd33f21394f8a642c6832bf4bb888c06abf8b123d52802473044022005e1372111935e69906a876b51f975896b2e1fac006d85303066f1411f1d650502202a5b6aa047b7425d8a22aa6af4780458865e432296fb7283f5e4ea5157764edd41210206bdf1cc6a86ce3aa5fefd33f21394f8a642c6832bf4bb888c06abf8b123d5280247304402205e8e0dc7d2e573fc2c60c650abc50d8e35f6b2a4811276aa10b6ee99e264e4dd02202c00a03dafe97b3bfaa3a1c6a067fbf78e2d513def623fcbbbbc074b2d559c0541210206bdf1cc6a86ce3aa5fefd33f21394f8a642c6832bf4bb888c06abf8b123d52802473044022073e25ed905fa7901aa2eb50130f3061d885403a4b80a8f64f20b0ff737b3911002203e082994cf29072f025a39fa53a6fd0a95eb68ac39aa44e4facea7c8f2422df441210206bdf1cc6a86ce3aa5fefd33f21394f8a642c6832bf4bb888c06abf8b123d528d1070000"
    },
    {
      "txid": "93a640b0ad6b3b30f5e3a6456ac0d3767c7e57fc9ef39447bd0ea7cc8f90e822",
      "hash": "a3a452f23616bfab999a96204a1f527431029ac985f7eb3baf3102ceca35b8f5",
      "version": 2,
      "size": 760,
      "vsize": 438,
      "weight": 1750,
      "locktime": 2001,
      "vin": [
        {
          "txid": "9c150face5b4702666ee93d6a62ccca2cb216268ee9b5fdd1f2532fbea283d9d",
          "vout": 0,
          "scriptSig": {
            "asm": "001426776210a97f23f913d0b8c6d0798707194eee51",
            "hex": "16001426776210a97f23f913d0b8c6d0798707194eee51"
          },
          "txinwitness": [
            "30440220489e4081d87ce2c3d4856b3da3141cc18284391c9dab038c7f7338b2376e32f60220714636e77858b0799f461d52d0eec72eb8d987d2d65e9fde5dc8134ebea8a71241",
            "0206bdf1cc6a86ce3aa5fefd33f21394f8a642c6832bf4bb888c06abf8b123d528"
          ],
          "sequence": 4294967294
        },
        {
          "txid": "0fe49bca57734e00ea8acd9c5fc782331aa469408a65152a6f644eadc2301768",
          "vout": 0,
          "scriptSig": {
            "asm": "001426776210a97f23f913d0b8c6d0798707194eee51",
            "hex": "16001426776210a97f23f913d0b8c6d0798707194eee51"
          },
          "txinwitness": [
            "304402205005b0146e30bc0209174ed621706f1ae38fb286e31d4f502f8746950013096a02206d18356f84581e3c2cf824c11ead552992b9ae4a26552518dca332f64c4c4a5041",
            "0206bdf1cc6a86ce3aa5fefd33f21394f8a642c6832bf4bb888c06abf8b123d528"
          ],
          "sequence": 4294967294
        },
        {
          "txid": "9ba638f42c713c96d28c1b4260346ae17d0b7d17947ed41ebc302571696d1913",
          "vout": 0,
          "scriptSig": {
            "asm": "001426776210a97f23f913d0b8c6d0798707194eee51",
            "hex": "16001426776210a97f23f913d0b8c6d0798707194eee51"
          },
          "txinwitness": [
            "3044022061455c09e1533d6aba73d2b5b953f348c89992c494a22e1be7e4b27513aaff3e022021f8962f0ff7a41b2abad6a967f9101daf90e6c2abfcda3a8cbf6af435568c9d41",
            "0206bdf1cc6a86ce3aa5fefd33f21394f8a642c6832bf4bb888c06abf8b123d528"
          ],
          "sequence": 4294967294
        },
        {
          "txid": "b137ad7984cdfe123ce08aae8834abd885ae674f573f9e5104960c6b06b16fa1",
          "vout": 0,
          "scriptSig": {
            "asm": "001426776210a97f23f913d0b8c6d0798707194eee51",
            "hex": "16001426776210a97f23f913d0b8c6d0798707194eee51"
          },
          "txinwitness": [
            "3044022012cd62f5b7994c5bfacccfd04ffc9a9cd4b170d6d9e738a697d347880581016702206cd4a03f9c1fd2b3afa79e218fb02cf174fa76c0707650247a139d3edcada88e41",
            "0206bdf1cc6a86ce3aa5fefd33f21394f8a642c6832bf4bb888c06abf8b123d528"
          ],
          "sequence": 4294967294
        }
      ],
      "vout": [
        {
          "value": 0.01309599,
          "n": 0,
          "scriptPubKey": {
            "asm": "OP_HASH160 fb71a95bd03e600e57360ceb14b3b795c1949770 OP_EQUAL",
            "hex": "a914fb71a95bd03e600e57360ceb14b3b795c194977087",
            "reqSigs": 1,
            "type": "scripthash",
            "addresses": [
              "2NGAjkn1Wzfn9anm3kB4NDSU6MLbMnQBwGA"
            ]
          }
        },
        {
          "value": 1,
          "n": 1,
          "scriptPubKey": {
            "asm": "OP_HASH160 fe5cc5d87e3348a5f3eaa316898a0f05d520876e OP_EQUAL",
            "hex": "a914fe5cc5d87e3348a5f3eaa316898a0f05d520876e87",
            "reqSigs": 1,
            "type": "scripthash",
            "addresses": [
              "2NGSAkyhiWMZPcrfiwmcRWf9HQgpsiRGKv4"
            ]
          }
        }
      ],
      "hex": "020000000001049d3d28eafb32251fdd5f9bee686221cba2cc2ca6d693ee662670b4e5ac0f159c000000001716001426776210a97f23f913d0b8c6d0798707194eee51feffffff681730c2ad4e646f2a15658a4069a41a3382c75f9ccd8aea004e7357ca9be40f000000001716001426776210a97f23f913d0b8c6d0798707194eee51feffffff13196d69712530bc1ed47e94177d0b7de16a3460421b8cd2963c712cf438a69b000000001716001426776210a97f23f913d0b8c6d0798707194eee51feffffffa16fb1066b0c9604519e3f574f67ae85d8ab3488ae8ae03c12fecd8479ad37b1000000001716001426776210a97f23f913d0b8c6d0798707194eee51feffffff029ffb13000000000017a914fb71a95bd03e600e57360ceb14b3b795c19497708700e1f5050000000017a914fe5cc5d87e3348a5f3eaa316898a0f05d520876e87024730440220489e4081d87ce2c3d4856b3da3141cc18284391c9dab038c7f7338b2376e32f60220714636e77858b0799f461d52d0eec72eb8d987d2d65e9fde5dc8134ebea8a71241210206bdf1cc6a86ce3aa5fefd33f21394f8a642c6832bf4bb888c06abf8b123d5280247304402205005b0146e30bc0209174ed621706f1ae38fb286e31d4f502f8746950013096a02206d18356f84581e3c2cf824c11ead552992b9ae4a26552518dca332f64c4c4a5041210206bdf1cc6a86ce3aa5fefd33f21394f8a642c6832bf4bb888c06abf8b123d52802473044022061455c09e1533d6aba73d2b5b953f348c89992c494a22e1be7e4b27513aaff3e022021f8962f0ff7a41b2abad6a967f9101daf90e6c2abfcda3a8cbf6af435568c9d41210206bdf1cc6a86ce3aa5fefd33f21394f8a642c6832bf4bb888c06abf8b123d52802473044022012cd62f5b7994c5bfacccfd04ffc9a9cd4b170d6d9e738a697d347880581016702206cd4a03f9c1fd2b3afa79e218fb02cf174fa76c0707650247a139d3edcada88e41210206bdf1cc6a86ce3aa5fefd33f21394f8a642c6832bf4bb888c06abf8b123d528d1070000"
    }
  ]
}