{
  "data": {
    "87f4cf756eef9979f0fb6a03db2ab2e0fd46060cf97714a990623093fe227a87": {
      "raw_transaction": "01000000010b7d7a4ff58429cef78f353488e3c4458b112428592b645aae1e4c8a6a58409700000000fdfd0000483045022100ad4a93adf846d4876aeffbde41b938201a9c11e0ef9230f136884df8bb546fc4022016d0399fc9b7fb47089c49f52fc25cf46137209f5904b4886e7242d337f655980147304402201096c2bc191a2b2aeb42d162b49fb484f86afe92bf1053f9faf6856140c04c8c022055b78635c7cbb1e5508adccd35bc3d86dbc012590cab25e7e3109aa692b5cab2014c6952210228e8835b438332d7a71f6bf47acd910b9ea4c3e8cc4d66c373193ec3cd2f11c721026ad921cbabef7f0f0cf423b714afe3d47ec3fe2f9c97408e2b69db7c1898ef4e2102dc25fd9b507968cab74b389c31d00f6e44810d2681f67591376d6eb145ea595e53aeffffffff02a08601000000000017a9143f33728930e89da323ecc3fed33deece67c5eef987f9b70d000000000017a914f913679ad119754a95641615ded5f6cc20543ed1879a091600",
      "decoded_raw_transaction": {
        "txid": "87f4cf756eef9979f0fb6a03db2ab2e0fd46060cf97714a990623093fe227a87",
        "hash": "87f4cf756eef9979f0fb6a03db2ab2e0fd46060cf97714a990623093fe227a87",
        "version": 1,
        "size": 370,
        "vsize": 370,
        "weight": 1480,
        "locktime": 1444250,
        "vin": [
          {
            "txid": "9740586a8a4c1eae5a642b592824118b45c4e38834358ff7ce2984f54f7a7d0b",
            "vout": 0,
            "scriptSig": {
              "asm": "0 3045022100ad4a93adf846d4876aeffbde41b938201a9c11e0ef9230f136884df8bb546fc4022016d0399fc9b7fb47089c49f52fc25cf46137209f5904b4886e7242d337f65598[ALL] 304402201096c2bc191a2b2aeb42d162b49fb484f86afe92bf1053f9faf6856140c04c8c022055b78635c7cbb1e5508adccd35bc3d86dbc012590cab25e7e3109aa692b5cab2[ALL] 52210228e8835b438332d7a71f6bf47acd910b9ea4c3e8cc4d66c373193ec3cd2f11c721026ad921cbabef7f0f0cf423b714afe3d47ec3fe2f9c97408e2b69db7c1898ef4e2102dc25fd9b507968cab74b389c31d00f6e44810d2681f67591376d6eb145ea595e53ae",
              "hex": "00483045022100ad4a93adf846d4876aeffbde41b938201a9c11e0ef9230f136884df8bb546fc4022016d0399fc9b7fb47089c49f52fc25cf46137209f5904b4886e7242d337f655980147304402201096c2bc191a2b2aeb42d162b49fb484f86afe92bf1053f9faf6856140c04c8c022055b78635c7cbb1e5508adccd35bc3d86dbc012590cab25e7e3109aa692b5cab2014c6952210228e8835b438332d7a71f6bf47acd910b9ea4c3e8cc4d66c373193ec3cd2f11c721026ad921cbabef7f0f0cf423b714afe3d47ec3fe2f9c97408e2b69db7c1898ef4e2102dc25fd9b507968cab74b389c31d00f6e44810d2681f67591376d6eb145ea595e53ae"
            },
            "sequence": 4294967295
          }
        ],
        "vout": [
          {
            "value": 0.001,
            "n": 0,
            "scriptPubKey": {
              "asm": "OP_HASH160 3f33728930e89da323ecc3fed33deece67c5eef9 OP_EQUAL",
              "hex": "a9143f33728930e89da323ecc3fed33deece67c5eef987",
              "reqSigs": 1,
              "type": "scripthash",
              "addresses": [
                "2My1QBzpW7sPdRLeUab7ta1adeKpWferNbs"
              ]
            }
          },
          {
            "value": 0.00899065,
            "n": 1,
            "scriptPubKey": {
              "asm": "OP_HASH160 f913679ad119754a95641615ded5f6cc20543ed1 OP_EQUAL",
              "hex": "a914f913679ad119754a95641615ded5f6cc20543ed187",
              "reqSigs": 1,
              "type": "scripthash",
              "addresses": [
                "2NFxDVK4y8KjMRsurZHZuyjtcMtH6hLVhPi"
              ]
            }
          }
        ]
      }
    }
  },
  "context": {
    "code": 200,
    "source": "R",
    "results": 1,
    "state": 2137650,
    "market_price_usd": 37740,
    "cache": {
      "live": true,
      "duration": 20,
      "since": "2022-01-26 10:08:50",
      "until": "2022-01-26 10:09:10",
      "time": null
    },
    "api": {
      "version": "2.0.95-ie",
      "last_major_update": "2021-07-19 00:00:00",
      "next_major_update": null,
      "documentation": "https://blockchair.com/api/docs",
      "notice": ":)"
    },
    "servers": "API4,TBTC0,TBTC3",
    "time": 0.27243685722351074,
    "render_time": 0.00841832160949707,
    "full_time": 0.2808551788330078,
    "request_cost": 1
  }
}