{
  "data": {
    "fe38c68afcdd60dc0af11b692f81f512b886132b26165e404c0d0a30d7d6dc54": {
      "raw_transaction": "01000000000101d12a92e63ecd0086b4f90215b50c099e7df19321d084883a38e26704c2c8952b0100000000ffffffff02e7c57302000000001600147236f6d330953ce346b2830915758b19a8b77b37785500000000000016001419e47ad36ae674121d05616667b24058b536a4840247304402201adb5e4883c7ffddded5a0160bf146ec22d8c5228841c91a2b53b64055f2330802200bb1b838daecad9fe7831b7a73264dabd5025b4b8b5e82adef6f2569f642db70012102f327502088010e6760fa38011a091ff3b1d361b69042690b9f2ff75eb4a4475700000000",
      "decoded_raw_transaction": {
        "txid": "fe38c68afcdd60dc0af11b692f81f512b886132b26165e404c0d0a30d7d6dc54",
        "hash": "10a9294f190cbf519611bdf15efc39b34f0886268a8e5ee951acd3a9c6e7e3c9",
        "version": 1,
        "size": 222,
        "vsize": 141,
        "weight": 561,
        "locktime": 0,
        "vin": [
          {
            "txid": "2b95c8c20467e2383a8884d02193f17d9e090cb51502f9b48600cd3ee6922ad1",
            "vout": 1,
            "scriptSig": {
              "asm": "",
              "hex": ""
            },
            "txinwitness": [
              "304402201adb5e4883c7ffddded5a0160bf146ec22d8c5228841c91a2b53b64055f2330802200bb1b838daecad9fe7831b7a73264dabd5025b4b8b5e82adef6f2569f642db7001",
              "02f327502088010e6760fa38011a091ff3b1d361b69042690b9f2ff75eb4a44757"
            ],
            "sequence": 4294967295
          }
        ],
        "vout": [
          {
            "value": 0.41141735,
            "n": 0,
            "scriptPubKey": {
              "asm": "0 7236f6d330953ce346b2830915758b19a8b77b37",
              "hex": "00147236f6d330953ce346b2830915758b19a8b77b37",
              "address": "tb1qwgm0d5esj57wx34jsvy32avtrx5tw7ehs0xgr3",
              "type": "witness_v0_keyhash",
              "addresses": [
                "tb1qwgm0d5esj57wx34jsvy32avtrx5tw7ehs0xgr3"
              ],
              "reqSigs": 1
            }
          },
          {
            "value": 0.0002188,
            "n": 1,
            "scriptPubKey": {
              "asm": "0 19e47ad36ae674121d05616667b24058b536a484",
              "hex": "001419e47ad36ae674121d05616667b24058b536a484",
              "address": "tb1qr8j845m2ue6py8g9v9nx0vjqtz6ndfyy4yk3a2",
              "type": "witness_v0_keyhash",
              "addresses": [
                "tb1qr8j845m2ue6py8g9v9nx0vjqtz6ndfyy4yk3a2"
              ],
              "reqSigs": 1
            }
          }
        ]
      }
    }
  },
  "context": {
    "code": 200,
    "source": "R",
    "results": 1,
    "state": 2137766,
    "market_price_usd": 36675,
    "cache": {
      "live": true,
      "duration": 20,
      "since": "2022-01-27 10:00:35",
      "until": "2022-01-27 10:00:55",
      "time": null
    },
    "api": {
      "version": "2.0.95-ie",
      "last_major_update": "2021-07-19 00:00:00",
      "next_major_update": null,
      "documentation": "https://blockchair.com/api/docs",
      "notice": ":)"
    },
    "servers": "API4,TBTC3,TBTC0",
    "time": 0.2663760185241699,
    "render_time": 0.07482600212097168,
    "full_time": 0.3412020206451416,
    "request_cost": 1
  }
}