{
  "data": {
    "19c6cd6b7b8a91e1a63d759eedd2818877a624771d38e00c3ffcedfdd09afc50": {
      "raw_transaction": "010000000001012ade19bb678236c98147ca83a2fa73d94fb6035dbfb3cda000b66a1405e2396b0100000000ffffffff0200e1f5050000000017a914eb52d144dfc65451e5cb495100a9dc587e6bb1f58749711942020000002200205381b770e5dde825f653676123cc7154040d6d2e3098860084689873066c6858040047304402202145b72f5f03290fd55ef14d6351c7defda0985f0c537fadf1993fe493cdf74b02207f09a9a0352ee4f077f5041c431c03b99ad1c6f81f6e666ccec942d554a8aa880147304402200de2dcbeb496d3385a100bbaca13ae921f77f45050a9639dc7d8a10f6cd0c149022006681009a00e2499b30126382f50aa5aa8349a5e6df5a58663bd1b5fc2ca9af00169522103be0a27923ebd090f6479d5f67830d761fa90c84eb7ad31c78a6e7ce15b57a9932102d624394b5a5599748ba9222b8fd68768b4e753eab1b5cea47f49f9518c31cd7d21034af6b2db22e46eff768630495fab0f5b2d3241a202debb917aa9d8e1e23ee20853ae5d862000",
      "decoded_raw_transaction": {
        "txid": "19c6cd6b7b8a91e1a63d759eedd2818877a624771d38e00c3ffcedfdd09afc50",
        "hash": "6c503942ac1b0509d0d6b474ad7258eef36c4f0f1123a58c68ccfcb664ab0bf0",
        "version": 1,
        "size": 380,
        "vsize": 190,
        "weight": 758,
        "locktime": 2131549,
        "vin": [
          {
            "txid": "6b39e205146ab600a0cdb3bf5d03b64fd973faa283ca4781c9368267bb19de2a",
            "vout": 1,
            "scriptSig": {
              "asm": "",
              "hex": ""
            },
            "txinwitness": [
              "",
              "304402202145b72f5f03290fd55ef14d6351c7defda0985f0c537fadf1993fe493cdf74b02207f09a9a0352ee4f077f5041c431c03b99ad1c6f81f6e666ccec942d554a8aa8801",
              "304402200de2dcbeb496d3385a100bbaca13ae921f77f45050a9639dc7d8a10f6cd0c149022006681009a00e2499b30126382f50aa5aa8349a5e6df5a58663bd1b5fc2ca9af001",
              "522103be0a27923ebd090f6479d5f67830d761fa90c84eb7ad31c78a6e7ce15b57a9932102d624394b5a5599748ba9222b8fd68768b4e753eab1b5cea47f49f9518c31cd7d21034af6b2db22e46eff768630495fab0f5b2d3241a202debb917aa9d8e1e23ee20853ae"
            ],
            "sequence": 4294967295
          }
        ],
        "vout": [
          {
            "value": 1,
            "n": 0,
            "scriptPubKey": {
              "asm": "OP_HASH160 eb52d144dfc65451e5cb495100a9dc587e6bb1f5 OP_EQUAL",
              "hex": "a914eb52d144dfc65451e5cb495100a9dc587e6bb1f587",
              "address": "2NEhVzd2Lom5g7ZF5K1qYrgZLpXecniqHcE",
              "type": "scripthash",
              "addresses": [
                "2NEhVzd2Lom5g7ZF5K1qYrgZLpXecniqHcE"
              ],
              "reqSigs": 1
            }
          },
          {
            "value": 96.98898249,
            "n": 1,
            "scriptPubKey": {
              "asm": "0 5381b770e5dde825f653676123cc7154040d6d2e3098860084689873066c6858",
              "hex": "00205381b770e5dde825f653676123cc7154040d6d2e3098860084689873066c6858",
              "address": "tb1q2wqmwu89mh5ztajnvasj8nr32szq6mfwxzvgvqyydzv8xpnvdpvq34wgpv",
              "type": "witness_v0_scripthash",
              "addresses": [
                "tb1q2wqmwu89mh5ztajnvasj8nr32szq6mfwxzvgvqyydzv8xpnvdpvq34wgpv"
              ],
              "reqSigs": 1
            }
          }
        ]
      }
    }
  },
  "context": {
    "code": 200,
    "source": "R",
    "results": 1,
    "state": 2137437,
    "market_price_usd": 36654,
    "cache": {
      "live": true,
      "duration": 20,
      "since": "2022-01-25 10:26:20",
      "until": "2022-01-25 10:26:40",
      "time": null
    },
    "api": {
      "version": "2.0.95-ie",
      "last_major_update": "2021-07-19 00:00:00",
      "next_major_update": null,
      "documentation": "https://blockchair.com/api/docs",
      "notice": ":)"
    },
    "servers": "API4,TBTC3,TBTC0",
    "time": 0.26862001419067383,
    "render_time": 0.008685827255249023,
    "full_time": 0.27730584144592285,
    "request_cost": 1
  }
}