{
  "transaction": {
    "txid": "dda526056399f8c91636eb58c478f80ef292a994a45a72e6c9958c0b80074630",
    "hash": "918a32ecf2df29671d3dc46d14afd36c3311d6e4c7d09dc90880a79aa76a28c4",
    "version": 2,
    "size": 249,
    "vsize": 168,
    "weight": 669,
    "locktime": 300,
    "vin": [
      {
        "txid": "7bf5162685d1e0e4e9330bfea39187bf67015d5780303ebdf2b3d1e349c472d7",
        "vout": 0,
        "scriptSig": {
          "asm": "001435d679a7f7e4e740129e8fd25db6e1fe35d3f382",
          "hex": "16001435d679a7f7e4e740129e8fd25db6e1fe35d3f382"
        },
        "txinwitness": [
          "304402203372fa2eef081bae8817c59d40355bd17b5a23c18a9231ad77bdc4c6a8e7f653022035d59d9baca3d94ffd4598433425d50397e63d7d435c581e58b7878bbe76067901",
          "03363b03335f5d57d0838e1f1d3280d4d7bb60f5640c2c3652db06ef986f9bf627"
        ],
        "sequence": 4294967294
      }
    ],
    "vout": [
      {
        "value": 23.9999664,
        "n": 0,
        "scriptPubKey": {
          "asm": "OP_HASH160 0bb0efbac3a62bbb8c2c76eefca0c60a9a248900 OP_EQUAL",
          "hex": "a9140bb0efbac3a62bbb8c2c76eefca0c60a9a24890087",
          "reqSigs": 1,
          "type": "scripthash",
          "addresses": [
            "2MtK3P9sL44S8XtHph98NkVMTNT9FGbnH2d"
          ]
        }
      },
      {
        "value": 1,
        "n": 1,
        "scriptPubKey": {
          "asm": "OP_DUP OP_HASH160 d2eb140d8b7006e7b862827043f9cddd50da9811 OP_EQUALVERIFY OP_CHECKSIG",
          "hex": "76a914d2eb140d8b7006e7b862827043f9cddd50da981188ac",
          "reqSigs": 1,
          "type": "pubkeyhash",
          "addresses": [
            "mzkBosFeajZ5KxXp4rPNA8maqoKUFiR7nY"
          ]
        }
      }
    ],
    "hex": "02000000000101d772c449e3d1b3f2bd3e3080575d0167bf8791a3fe0b33e9e4e0d1852616f57b000000001716001435d679a7f7e4e740129e8fd25db6e1fe35d3f382feffffff02e00a0d8f0000000017a9140bb0efbac3a62bbb8c2c76eefca0c60a9a2489008700e1f505000000001976a914d2eb140d8b7006e7b862827043f9cddd50da981188ac0247304402203372fa2eef081bae8817c59d40355bd17b5a23c18a9231ad77bdc4c6a8e7f653022035d59d9baca3d94ffd4598433425d50397e63d7d435c581e58b7878bbe760679012103363b03335f5d57d0838e1f1d3280d4d7bb60f5640c2c3652db06ef986f9bf6272c010000"
  },
  "inputs": [
    {
      "txid": "7bf5162685d1e0e4e9330bfea39187bf67015d5780303ebdf2b3d1e349c472d7",
      "hash": "6ca13846d4d0a74b43961cf891bfed46ae5a0d413e221d98eb49c2199330aecc",
      "version": 2,
      "size": 171,
      "vsize": 144,
      "weight": 576,
      "locktime": 0,
      "vin": [
        {
          "coinbase": "02b8000101",
          "sequence": 4294967295
        }
      ],
      "vout": [
        {
          "value": 25,
          "n": 0,
          "scriptPubKey": {
            "asm": "OP_HASH160 af341f65820fa0ab7245ac0fbc7d61010fd2b485 OP_EQUAL",
            "hex": "a914af341f65820fa0ab7245ac0fbc7d61010fd2b48587",
            "reqSigs": 1,
            "type": "scripthash",
            "addresses": [
              "2N9DcgQ6Qj2QTAf1xnyZodYEhMpS6u13BNH"
            ]
          }
        },
        {
          "value": 0,
          "n": 1,
          "scriptPubKey": {
            "asm": "OP_RETURN aa21a9ede2f61c3f71d1defd3fa999dfa36953755c690689799962b48bebd836974e8cf9",
            "hex": "6a24aa21a9ede2f61c3f71d1defd3fa999dfa36953755c690689799962b48bebd836974e8cf9",
            "type": "nulldata"
          }
        }
      ],
      "hex": "020000000001010000000000000000000000000000000000000000000000000000000000000000ffffffff0502b8000101ffffffff0200f902950000000017a914af341f65820fa0ab7245ac0fbc7d61010fd2b485870000000000000000266a24aa21a9ede2f61c3f71d1defd3fa999dfa36953755c690689799962b48bebd836974e8cf90120000000000000000000000000000000000000000000000000000000000000000000000000",
      "blockhash": "26573df460bd241cf0db51f044d4c720a29dd6f3064dca1d1fa109307e101b79",
      "confirmations": 117,
      "time": 1628762042,
      "blocktime": 1628762042
    }
  ]
}