{
  "transaction": {
    "txid": "930c7e7cbb721a72f1094aaf8125982417d7a94c5bcc2aff773007fc3f3c4a50",
    "hash": "eaff29b70582f943d74321abb0225f0869749917e9f6bdd70d2b9334b4577516",
    "version": 2,
    "size": 762,
    "vsize": 440,
    "weight": 1758,
    "locktime": 2001,
    "vin": [
      {
        "txid": "18d4f6ea43727c2e827deeb111822dbb631113597f1ecb906284bf345fb17e0c",
        "vout": 0,
        "scriptSig": {
          "asm": "0014af8f39453d39484eb324378fdf67488741c25b6f",
          "hex": "160014af8f39453d39484eb324378fdf67488741c25b6f"
        },
        "txinwitness": [
          "304402207272ec5683fcae172ecd1284702aaa30fcefbf87ea66686455c6d26547ab1db202203ba4e09e2dca5dcd20a1f32822712a4cb771102f024f23d138a005087007c25941",
          "03934e6567f283e5c74875300761dfc2884df23bae2771cffcc1dda9805c0c7e8e"
        ],
        "sequence": 4294967294
      },
      {
        "txid": "7cf01b6a5f94f798b26187b879613b1712dc7e04f236f9e1a2a4f701e651517c",
        "vout": 0,
        "scriptSig": {
          "asm": "0014af8f39453d39484eb324378fdf67488741c25b6f",
          "hex": "160014af8f39453d39484eb324378fdf67488741c25b6f"
        },
        "txinwitness": [
          "304402200a44e983c9988fabef71abbaa920d8c46ae8d1ab50ce50bae03ae283294487e1022040dbdf7bdf5aabd6a14a61bff2abe662ed05f4bbb40446f883662d6a3824d08c41",
          "03934e6567f283e5c74875300761dfc2884df23bae2771cffcc1dda9805c0c7e8e"
        ],
        "sequence": 4294967294
      },
      {
        "txid": "4d29cf5954136ab0a23f4050d9e5620f3dca032bacbce45dc39ec6e2ff1e6cec",
        "vout": 0,
        "scriptSig": {
          "asm": "0014af8f39453d39484eb324378fdf67488741c25b6f",
          "hex": "160014af8f39453d39484eb324378fdf67488741c25b6f"
        },
        "txinwitness": [
          "304402201832461bd5963233507881ceddbe47be46593afd9f2e54fb2a2dd6beb6ed9ff00220390ec538ca0016f966f3dd3fc71bfc068d30d2e585b608a11038498cc73bc12641",
          "03934e6567f283e5c74875300761dfc2884df23bae2771cffcc1dda9805c0c7e8e"
        ],
        "sequence": 4294967294
      },
      {
        "txid": "0324efe35e74ba0f1dc09e6e47b7abe9069f6407ac88937bcae7094d511af1d9",
        "vout": 0,
        "scriptSig": {
          "asm": "0014af8f39453d39484eb324378fdf67488741c25b6f",
          "hex": "160014af8f39453d39484eb324378fdf67488741c25b6f"
        },
        "txinwitness": [
          "3044022002d25afceea64e2379d529c3a5256e99b63db13292611fb3b7f441e9c86681c902200ef804fcfff69ce79f7ed26d2f9137271190b45ce14d6472ab0b67dea546972c41",
          "03934e6567f283e5c74875300761dfc2884df23bae2771cffcc1dda9805c0c7e8e"
        ],
        "sequence": 4294967294
      }
    ],
    "vout": [
      {
        "value": 1,
        "n": 0,
        "scriptPubKey": {
          "asm": "OP_DUP OP_HASH160 d2eb140d8b7006e7b862827043f9cddd50da9811 OP_EQUALVERIFY OP_CHECKSIG",
          "hex": "76a914d2eb140d8b7006e7b862827043f9cddd50da981188ac",
          "reqSigs": 1,
          "type": "pubkeyhash",
          "addresses": [
            "mzkBosFeajZ5KxXp4rPNA8maqoKUFiR7nY"
          ]
        }
      },
      {
        "value": 0.01309559,
        "n": 1,
        "scriptPubKey": {
          "asm": "OP_HASH160 f472f9f9c161f06f9f47c3ceb07f2a0d6c88a01e OP_EQUAL",
          "hex": "a914f472f9f9c161f06f9f47c3ceb07f2a0d6c88a01e87",
          "reqSigs": 1,
          "type": "scripthash",
          "addresses": [
            "2NFXkbo6YZaTndJbTR3TYYTjz2FzJTEKPst"
          ]
        }
      }
    ],
    "hex": "020000000001040c7eb15f34bf846290cb1e7f59131163bb2d8211b1ee7d822e7c7243eaf6d4180000000017160014af8f39453d39484eb324378fdf67488741c25b6ffeffffff7c5151e601f7a4a2e1f936f2047edc12173b6179b88761b298f7945f6a1bf07c0000000017160014af8f39453d39484eb324378fdf67488741c25b6ffeffffffec6c1effe2c69ec35de4bcac2b03ca3d0f62e5d950403fa2b06a135459cf294d0000000017160014af8f39453d39484eb324378fdf67488741c25b6ffeffffffd9f11a514d09e7ca7b9388ac07649f06e9abb7476e9ec01d0fba745ee3ef24030000000017160014af8f39453d39484eb324378fdf67488741c25b6ffeffffff0200e1f505000000001976a914d2eb140d8b7006e7b862827043f9cddd50da981188ac77fb13000000000017a914f472f9f9c161f06f9f47c3ceb07f2a0d6c88a01e870247304402207272ec5683fcae172ecd1284702aaa30fcefbf87ea66686455c6d26547ab1db202203ba4e09e2dca5dcd20a1f32822712a4cb771102f024f23d138a005087007c259412103934e6567f283e5c74875300761dfc2884df23bae2771cffcc1dda9805c0c7e8e0247304402200a44e983c9988fabef71abbaa920d8c46ae8d1ab50ce50bae03ae283294487e1022040dbdf7bdf5aabd6a14a61bff2abe662ed05f4bbb40446f883662d6a3824d08c412103934e6567f283e5c74875300761dfc2884df23bae2771cffcc1dda9805c0c7e8e0247304402201832461bd5963233507881ceddbe47be46593afd9f2e54fb2a2dd6beb6ed9ff00220390ec538ca0016f966f3dd3fc71bfc068d30d2e585b608a11038498cc73bc126412103934e6567f283e5c74875300761dfc2884df23bae2771cffcc1dda9805c0c7e8e02473044022002d25afceea64e2379d529c3a5256e99b63db13292611fb3b7f441e9c86681c902200ef804fcfff69ce79f7ed26d2f9137271190b45ce14d6472ab0b67dea546972c412103934e6567f283e5c74875300761dfc2884df23bae2771cffcc1dda9805c0c7e8ed1070000"
  },
  "inputs": [
    {
      "txid": "18d4f6ea43727c2e827deeb111822dbb631113597f1ecb906284bf345fb17e0c",
      "hash": "2d0180387843e4ba3559f9092d4c2645294219f03ec41cbbf1bd4cdf45b1f4df",
      "version": 2,
      "size": 171,
      "vsize": 144,
      "weight": 576,
      "locktime": 0,
      "vin": [
        {
          "coinbase": "02c4030101",
          "sequence": 4294967295
        }
      ],
      "vout": [
        {
          "value": 0.78125,
          "n": 0,
          "scriptPubKey": {
            "asm": "OP_HASH160 246681535a0e57c5b5a7eddffaed5774c42dccad OP_EQUAL",
            "hex": "a914246681535a0e57c5b5a7eddffaed5774c42dccad87",
            "reqSigs": 1,
            "type": "scripthash",
            "addresses": [
              "2MvZh7Ng1a5U7EZX86TBeqi6aUEnfBRzfas"
            ]
          }
        },
        {
          "value": 0,
          "n": 1,
          "scriptPubKey": {
            "asm": "OP_RETURN aa21a9ede2f61c3f71d1defd3fa999dfa36953755c690689799962b48bebd836974e8cf9",
            "hex": "6a24aa21a9ede2f61c3f71d1defd3fa999dfa36953755c690689799962b48bebd836974e8cf9",
            "type": "nulldata"
          }
        }
      ],
      "hex": "020000000001010000000000000000000000000000000000000000000000000000000000000000ffffffff0502c4030101ffffffff02c817a8040000000017a914246681535a0e57c5b5a7eddffaed5774c42dccad870000000000000000266a24aa21a9ede2f61c3f71d1defd3fa999dfa36953755c690689799962b48bebd836974e8cf90120000000000000000000000000000000000000000000000000000000000000000000000000",
      "blockhash": "04b00d36a894115350f4179442c522a5ab4493619dc77cfd59dcc362fa292370",
      "confirmations": 1038,
      "time": 1628862593,
      "blocktime": 1628862593
    },
    {
      "txid": "7cf01b6a5f94f798b26187b879613b1712dc7e04f236f9e1a2a4f701e651517c",
      "hash": "1783e47eff10c8f41ade76d33f6a03de7d9f31b9fe8e741a0a68e6b2938eb46b",
      "version": 2,
      "size": 171,
      "vsize": 144,
      "weight": 576,
      "locktime": 0,
      "vin": [
        {
          "coinbase": "0274060101",
          "sequence": 4294967295
        }
      ],
      "vout": [
        {
          "value": 0.02441406,
          "n": 0,
          "scriptPubKey": {
            "asm": "OP_HASH160 246681535a0e57c5b5a7eddffaed5774c42dccad OP_EQUAL",
            "hex": "a914246681535a0e57c5b5a7eddffaed5774c42dccad87",
            "reqSigs": 1,
            "type": "scripthash",
            "addresses": [
              "2MvZh7Ng1a5U7EZX86TBeqi6aUEnfBRzfas"
            ]
          }
        },
        {
          "value": 0,
          "n": 1,
          "scriptPubKey": {
            "asm": "OP_RETURN aa21a9ede2f61c3f71d1defd3fa999dfa36953755c690689799962b48bebd836974e8cf9",
            "hex": "6a24aa21a9ede2f61c3f71d1defd3fa999dfa36953755c690689799962b48bebd836974e8cf9",
            "type": "nulldata"
          }
        }
      ],
      "hex": "020000000001010000000000000000000000000000000000000000000000000000000000000000ffffffff050274060101ffffffff02be4025000000000017a914246681535a0e57c5b5a7eddffaed5774c42dccad870000000000000000266a24aa21a9ede2f61c3f71d1defd3fa999dfa36953755c690689799962b48bebd836974e8cf90120000000000000000000000000000000000000000000000000000000000000000000000000",
      "blockhash": "14cd69cfdcbe5bda7a60f0b51f3a0685b48c4fa987eee5a2b39f880479e725d0",
      "confirmations": 350,
      "time": 1628862708,
      "blocktime": 1628862708
    },
    {
      "txid": "4d29cf5954136ab0a23f4050d9e5620f3dca032bacbce45dc39ec6e2ff1e6cec",
      "hash": "a3e53df89e8ba06c0371bc426f4eb703a779708e1e1486aa584fe595bd10de73",
      "version": 2,
      "size": 171,
      "vsize": 144,
      "weight": 576,
      "locktime": 0,
      "vin": [
        {
          "coinbase": "025a070101",
          "sequence": 4294967295
        }
      ],
      "vout": [
        {
          "value": 0.01220703,
          "n": 0,
          "scriptPubKey": {
            "asm": "OP_HASH160 246681535a0e57c5b5a7eddffaed5774c42dccad OP_EQUAL",
            "hex": "a914246681535a0e57c5b5a7eddffaed5774c42dccad87",
            "reqSigs": 1,
            "type": "scripthash",
            "addresses": [
              "2MvZh7Ng1a5U7EZX86TBeqi6aUEnfBRzfas"
            ]
          }
        },
        {
          "value": 0,
          "n": 1,
          "scriptPubKey": {
            "asm": "OP_RETURN aa21a9ede2f61c3f71d1defd3fa999dfa36953755c690689799962b48bebd836974e8cf9",
            "hex": "6a24aa21a9ede2f61c3f71d1defd3fa999dfa36953755c690689799962b48bebd836974e8cf9",
            "type": "nulldata"
          }
        }
      ],
      "hex": "020000000001010000000000000000000000000000000000000000000000000000000000000000ffffffff05025a070101ffffffff025fa012000000000017a914246681535a0e57c5b5a7eddffaed5774c42dccad870000000000000000266a24aa21a9ede2f61c3f71d1defd3fa999dfa36953755c690689799962b48bebd836974e8cf90120000000000000000000000000000000000000000000000000000000000000000000000000",
      "blockhash": "6a121d48f6bdadae5267eae6d6ce2a7e9cb6afc01fe9d31462d2cc916f9fa81b",
      "confirmations": 120,
      "time": 1628862746,
      "blocktime": 1628862746
    },
    {
      "txid": "0324efe35e74ba0f1dc09e6e47b7abe9069f6407ac88937bcae7094d511af1d9",
      "hash": "67766ec6a89bbbf057cc0a7445ab9e26b2fa7e31fe46cd466aa517323a2c87e2",
      "version": 2,
      "size": 171,
      "vsize": 144,
      "weight": 576,
      "locktime": 0,
      "vin": [
        {
          "coinbase": "02d3040101",
          "sequence": 4294967295
        }
      ],
      "vout": [
        {
          "value": 0.1953125,
          "n": 0,
          "scriptPubKey": {
            "asm": "OP_HASH160 246681535a0e57c5b5a7eddffaed5774c42dccad OP_EQUAL",
            "hex": "a914246681535a0e57c5b5a7eddffaed5774c42dccad87",
            "reqSigs": 1,
            "type": "scripthash",
            "addresses": [
              "2MvZh7Ng1a5U7EZX86TBeqi6aUEnfBRzfas"
            ]
          }
        },
        {
          "value": 0,
          "n": 1,
          "scriptPubKey": {
            "asm": "OP_RETURN aa21a9ede2f61c3f71d1defd3fa999dfa36953755c690689799962b48bebd836974e8cf9",
            "hex": "6a24aa21a9ede2f61c3f71d1defd3fa999dfa36953755c690689799962b48bebd836974e8cf9",
            "type": "nulldata"
          }
        }
      ],
      "hex": "020000000001010000000000000000000000000000000000000000000000000000000000000000ffffffff0502d3040101ffffffff02f2052a010000000017a914246681535a0e57c5b5a7eddffaed5774c42dccad870000000000000000266a24aa21a9ede2f61c3f71d1defd3fa999dfa36953755c690689799962b48bebd836974e8cf90120000000000000000000000000000000000000000000000000000000000000000000000000",
      "blockhash": "3fb0ce606e3a526fc5c0b359853d6839c22294eae92c792f40309b671b596af2",
      "confirmations": 767,
      "time": 1628862638,
      "blocktime": 1628862638
    }
  ]
}