{
  "transaction": {
    "txid": "11043ce829bc8802cb480076c6873edd505e7187aced62f868d1fdacae206c2e",
    "hash": "e8705ee9141b320a12933b42e5a840482258facb5f9d13e25fedf9243ce86b6b",
    "version": 2,
    "size": 760,
    "vsize": 438,
    "weight": 1750,
    "locktime": 2001,
    "vin": [
      {
        "txid": "10edeebabf82672fc46d89c2b90d231b7df25ab5d3e32368a141b9ec8fdc61ba",
        "vout": 0,
        "scriptSig": {
          "asm": "0014af8f39453d39484eb324378fdf67488741c25b6f",
          "hex": "160014af8f39453d39484eb324378fdf67488741c25b6f"
        },
        "txinwitness": [
          "304402206b43ffefd5dbbdd83f23e7a190a85d68688a4e86c54ffe68e7b3fb3e4e395626022009d38b233c6008ced58fa0be865994fbfdb17b5da8a5167606c2477318cd111941",
          "03934e6567f283e5c74875300761dfc2884df23bae2771cffcc1dda9805c0c7e8e"
        ],
        "sequence": 4294967294
      },
      {
        "txid": "dee72e20daf63f348cda007c7378f31647506c0fcf32adfbddde6675c43730f9",
        "vout": 0,
        "scriptSig": {
          "asm": "0014af8f39453d39484eb324378fdf67488741c25b6f",
          "hex": "160014af8f39453d39484eb324378fdf67488741c25b6f"
        },
        "txinwitness": [
          "3044022064986f450c53a4a60a555c66505e7832a27087ed386a2733c5116b7c601402c102207c7b10cb4f54c2008e6b632e7ed5ac2d3b6982b08cc005dea647ee7adeb7971041",
          "03934e6567f283e5c74875300761dfc2884df23bae2771cffcc1dda9805c0c7e8e"
        ],
        "sequence": 4294967294
      },
      {
        "txid": "03ff00b3d45b6cdbe8d3f17435ce2b6006fa9ac12b9cd8e42999015868af7523",
        "vout": 0,
        "scriptSig": {
          "asm": "0014af8f39453d39484eb324378fdf67488741c25b6f",
          "hex": "160014af8f39453d39484eb324378fdf67488741c25b6f"
        },
        "txinwitness": [
          "304402202163067b5e398d3427f1d3601f64c458ab4e1d89fc5af8912682bccf7ca6f4bf02203639be01cd9e57809ca67c913e76f957fad568476206d6096e6bb1b463056bf741",
          "03934e6567f283e5c74875300761dfc2884df23bae2771cffcc1dda9805c0c7e8e"
        ],
        "sequence": 4294967294
      },
      {
        "txid": "f82b3e007688e2f80cf3ae9bbd53cfe97cabdb4a0f9465bda71b82c22fc07f21",
        "vout": 0,
        "scriptSig": {
          "asm": "0014af8f39453d39484eb324378fdf67488741c25b6f",
          "hex": "160014af8f39453d39484eb324378fdf67488741c25b6f"
        },
        "txinwitness": [
          "30440220376722bdd119b777f3927b202da23820eee695f3f33db879c2bfc12618a7fffd02201b12c59b96edf476e0e1e3f32b3cc9796d4bd4bf3fff52be640442436351cd8341",
          "03934e6567f283e5c74875300761dfc2884df23bae2771cffcc1dda9805c0c7e8e"
        ],
        "sequence": 4294967294
      }
    ],
    "vout": [
      {
        "value": 0.01309599,
        "n": 0,
        "scriptPubKey": {
          "asm": "OP_HASH160 a73d4098270fa288b8abb5f7291290d801e9f8cd OP_EQUAL",
          "hex": "a914a73d4098270fa288b8abb5f7291290d801e9f8cd87",
          "reqSigs": 1,
          "type": "scripthash",
          "addresses": [
            "2N8VWDCsjP3EjNiJj5CCGnx7vN4RXWCYQaE"
          ]
        }
      },
      {
        "value": 1,
        "n": 1,
        "scriptPubKey": {
          "asm": "OP_HASH160 2280193aca8462021ec369d4e2ff1c95741fba7f OP_EQUAL",
          "hex": "a9142280193aca8462021ec369d4e2ff1c95741fba7f87",
          "reqSigs": 1,
          "type": "scripthash",
          "addresses": [
            "2MvPeRFSGYJq9BXoV2fxrMpJjsZMGx2m6Zk"
          ]
        }
      }
    ],
    "hex": "02000000000104ba61dc8fecb941a16823e3d3b55af27d1b230db9c2896dc42f6782bfbaeeed100000000017160014af8f39453d39484eb324378fdf67488741c25b6ffefffffff93037c47566deddfbad32cf0f6c504716f378737c00da8c343ff6da202ee7de0000000017160014af8f39453d39484eb324378fdf67488741c25b6ffeffffff2375af6858019929e4d89c2bc19afa06602bce3574f1d3e8db6c5bd4b300ff030000000017160014af8f39453d39484eb324378fdf67488741c25b6ffeffffff217fc02fc2821ba7bd65940f4adbab7ce9cf53bd9baef30cf8e28876003e2bf80000000017160014af8f39453d39484eb324378fdf67488741c25b6ffeffffff029ffb13000000000017a914a73d4098270fa288b8abb5f7291290d801e9f8cd8700e1f5050000000017a9142280193aca8462021ec369d4e2ff1c95741fba7f870247304402206b43ffefd5dbbdd83f23e7a190a85d68688a4e86c54ffe68e7b3fb3e4e395626022009d38b233c6008ced58fa0be865994fbfdb17b5da8a5167606c2477318cd1119412103934e6567f283e5c74875300761dfc2884df23bae2771cffcc1dda9805c0c7e8e02473044022064986f450c53a4a60a555c66505e7832a27087ed386a2733c5116b7c601402c102207c7b10cb4f54c2008e6b632e7ed5ac2d3b6982b08cc005dea647ee7adeb79710412103934e6567f283e5c74875300761dfc2884df23bae2771cffcc1dda9805c0c7e8e0247304402202163067b5e398d3427f1d3601f64c458ab4e1d89fc5af8912682bccf7ca6f4bf02203639be01cd9e57809ca67c913e76f957fad568476206d6096e6bb1b463056bf7412103934e6567f283e5c74875300761dfc2884df23bae2771cffcc1dda9805c0c7e8e024730440220376722bdd119b777f3927b202da23820eee695f3f33db879c2bfc12618a7fffd02201b12c59b96edf476e0e1e3f32b3cc9796d4bd4bf3fff52be640442436351cd83412103934e6567f283e5c74875300761dfc2884df23bae2771cffcc1dda9805c0c7e8ed1070000"
  },
  "inputs": [
    {
      "txid": "10edeebabf82672fc46d89c2b90d231b7df25ab5d3e32368a141b9ec8fdc61ba",
      "hash": "a6af4e31e70b31c98121bd13171fb85889257992ef46f735a7f18b9612c40e7d",
      "version": 2,
      "size": 171,
      "vsize": 144,
      "weight": 576,
      "locktime": 0,
      "vin": [
        {
          "coinbase": "0264070101",
          "sequence": 4294967295
        }
      ],
      "vout": [
        {
          "value": 0.01220703,
          "n": 0,
          "scriptPubKey": {
            "asm": "OP_HASH160 246681535a0e57c5b5a7eddffaed5774c42dccad OP_EQUAL",
            "hex": "a914246681535a0e57c5b5a7eddffaed5774c42dccad87",
            "reqSigs": 1,
            "type": "scripthash",
            "addresses": [
              "2MvZh7Ng1a5U7EZX86TBeqi6aUEnfBRzfas"
            ]
          }
        },
        {
          "value": 0,
          "n": 1,
          "scriptPubKey": {
            "asm": "OP_RETURN aa21a9ede2f61c3f71d1defd3fa999dfa36953755c690689799962b48bebd836974e8cf9",
            "hex": "6a24aa21a9ede2f61c3f71d1defd3fa999dfa36953755c690689799962b48bebd836974e8cf9",
            "type": "nulldata"
          }
        }
      ],
      "hex": "020000000001010000000000000000000000000000000000000000000000000000000000000000ffffffff050264070101ffffffff025fa012000000000017a914246681535a0e57c5b5a7eddffaed5774c42dccad870000000000000000266a24aa21a9ede2f61c3f71d1defd3fa999dfa36953755c690689799962b48bebd836974e8cf90120000000000000000000000000000000000000000000000000000000000000000000000000",
      "blockhash": "4b312e950343d573797948f561ffb3d71c8730f4cca690a09b8e9b0396a9496a",
      "confirmations": 110,
      "time": 1628862748,
      "blocktime": 1628862748
    },
    {
      "txid": "dee72e20daf63f348cda007c7378f31647506c0fcf32adfbddde6675c43730f9",
      "hash": "9cfbcb514e180a9044a65435630a48178669a4b804ccfc847358dfb365ac2960",
      "version": 2,
      "size": 171,
      "vsize": 144,
      "weight": 576,
      "locktime": 0,
      "vin": [
        {
          "coinbase": "02b0030101",
          "sequence": 4294967295
        }
      ],
      "vout": [
        {
          "value": 0.78125,
          "n": 0,
          "scriptPubKey": {
            "asm": "OP_HASH160 246681535a0e57c5b5a7eddffaed5774c42dccad OP_EQUAL",
            "hex": "a914246681535a0e57c5b5a7eddffaed5774c42dccad87",
            "reqSigs": 1,
            "type": "scripthash",
            "addresses": [
              "2MvZh7Ng1a5U7EZX86TBeqi6aUEnfBRzfas"
            ]
          }
        },
        {
          "value": 0,
          "n": 1,
          "scriptPubKey": {
            "asm": "OP_RETURN aa21a9ede2f61c3f71d1defd3fa999dfa36953755c690689799962b48bebd836974e8cf9",
            "hex": "6a24aa21a9ede2f61c3f71d1defd3fa999dfa36953755c690689799962b48bebd836974e8cf9",
            "type": "nulldata"
          }
        }
      ],
      "hex": "020000000001010000000000000000000000000000000000000000000000000000000000000000ffffffff0502b0030101ffffffff02c817a8040000000017a914246681535a0e57c5b5a7eddffaed5774c42dccad870000000000000000266a24aa21a9ede2f61c3f71d1defd3fa999dfa36953755c690689799962b48bebd836974e8cf90120000000000000000000000000000000000000000000000000000000000000000000000000",
      "blockhash": "3d2aa0ba42841c9ba9cbb9d1fd64337679dd455a55237d80cf7a957a14fed715",
      "confirmations": 1058,
      "time": 1628862590,
      "blocktime": 1628862590
    },
    {
      "txid": "03ff00b3d45b6cdbe8d3f17435ce2b6006fa9ac12b9cd8e42999015868af7523",
      "hash": "8df3d6677c73a89fafe8b0ef4043f302459f11268b8d5ebb27d864a4de40a071",
      "version": 2,
      "size": 171,
      "vsize": 144,
      "weight": 576,
      "locktime": 0,
      "vin": [
        {
          "coinbase": "02c9060101",
          "sequence": 4294967295
        }
      ],
      "vout": [
        {
          "value": 0.02441406,
          "n": 0,
          "scriptPubKey": {
            "asm": "OP_HASH160 246681535a0e57c5b5a7eddffaed5774c42dccad OP_EQUAL",
            "hex": "a914246681535a0e57c5b5a7eddffaed5774c42dccad87",
            "reqSigs": 1,
            "type": "scripthash",
            "addresses": [
              "2MvZh7Ng1a5U7EZX86TBeqi6aUEnfBRzfas"
            ]
          }
        },
        {
          "value": 0,
          "n": 1,
          "scriptPubKey": {
            "asm": "OP_RETURN aa21a9ede2f61c3f71d1defd3fa999dfa36953755c690689799962b48bebd836974e8cf9",
            "hex": "6a24aa21a9ede2f61c3f71d1defd3fa999dfa36953755c690689799962b48bebd836974e8cf9",
            "type": "nulldata"
          }
        }
      ],
      "hex": "020000000001010000000000000000000000000000000000000000000000000000000000000000ffffffff0502c9060101ffffffff02be4025000000000017a914246681535a0e57c5b5a7eddffaed5774c42dccad870000000000000000266a24aa21a9ede2f61c3f71d1defd3fa999dfa36953755c690689799962b48bebd836974e8cf90120000000000000000000000000000000000000000000000000000000000000000000000000",
      "blockhash": "048b626898bdd5184a48a30c13ff7abf8ea86799f15069bedabe7cb1757ede18",
      "confirmations": 265,
      "time": 1628862722,
      "blocktime": 1628862722
    },
    {
      "txid": "f82b3e007688e2f80cf3ae9bbd53cfe97cabdb4a0f9465bda71b82c22fc07f21",
      "hash": "1e33fb9b1c693a926159907a118325064df5583ef849488b439a6b013ddb6993",
      "version": 2,
      "size": 171,
      "vsize": 144,
      "weight": 576,
      "locktime": 0,
      "vin": [
        {
          "coinbase": "0211050101",
          "sequence": 4294967295
        }
      ],
      "vout": [
        {
          "value": 0.1953125,
          "n": 0,
          "scriptPubKey": {
            "asm": "OP_HASH160 246681535a0e57c5b5a7eddffaed5774c42dccad OP_EQUAL",
            "hex": "a914246681535a0e57c5b5a7eddffaed5774c42dccad87",
            "reqSigs": 1,
            "type": "scripthash",
            "addresses": [
              "2MvZh7Ng1a5U7EZX86TBeqi6aUEnfBRzfas"
            ]
          }
        },
        {
          "value": 0,
          "n": 1,
          "scriptPubKey": {
            "asm": "OP_RETURN aa21a9ede2f61c3f71d1defd3fa999dfa36953755c690689799962b48bebd836974e8cf9",
            "hex": "6a24aa21a9ede2f61c3f71d1defd3fa999dfa36953755c690689799962b48bebd836974e8cf9",
            "type": "nulldata"
          }
        }
      ],
      "hex": "020000000001010000000000000000000000000000000000000000000000000000000000000000ffffffff050211050101ffffffff02f2052a010000000017a914246681535a0e57c5b5a7eddffaed5774c42dccad870000000000000000266a24aa21a9ede2f61c3f71d1defd3fa999dfa36953755c690689799962b48bebd836974e8cf90120000000000000000000000000000000000000000000000000000000000000000000000000",
      "blockhash": "296e4dbd5c7dd467dcab2a30561ab6a0faad6da76bb56ef0fc77cb037837a367",
      "confirmations": 705,
      "time": 1628862648,
      "blocktime": 1628862648
    }
  ]
}