{
  "transaction": {
    "txid": "52e39c7508831d89113e7a1a3d828d3e98b66d31f7415d87c5338b5a6e34f74d",
    "hash": "02968a869c07d647722fa49b9ef6767713f851d51c218d2a5f37573964191119",
    "version": 2,
    "size": 245,
    "vsize": 164,
    "weight": 653,
    "locktime": 300,
    "vin": [
      {
        "txid": "122c5339d54abfeecde89057fc625027b2c2a101b2fff2ade0c6c8b17fc70417",
        "vout": 0,
        "scriptSig": {
          "asm": "001435d679a7f7e4e740129e8fd25db6e1fe35d3f382",
          "hex": "16001435d679a7f7e4e740129e8fd25db6e1fe35d3f382"
        },
        "txinwitness": [
          "304402200dbc5351643f1eaed364449ef87264d7f901afe23bbe0b24229fef6fe2fe80ae02200407d0362b99274fe21ecfd59c6de951c2703f8cc5092edfb39c1d86106f938b01",
          "03363b03335f5d57d0838e1f1d3280d4d7bb60f5640c2c3652db06ef986f9bf627"
        ],
        "sequence": 4294967294
      }
    ],
    "vout": [
      {
        "value": 23.9999672,
        "n": 0,
        "scriptPubKey": {
          "asm": "0 4f52b946f29b2153895fe4b375cfdb44958af762",
          "hex": "00144f52b946f29b2153895fe4b375cfdb44958af762",
          "reqSigs": 1,
          "type": "witness_v0_keyhash",
          "addresses": [
            "btgrt1qfaftj3hjnvs48z2lujehtn7mgj2c4amzar8zem"
          ]
        }
      },
      {
        "value": 1,
        "n": 1,
        "scriptPubKey": {
          "asm": "0 d2eb140d8b7006e7b862827043f9cddd50da9811",
          "hex": "0014d2eb140d8b7006e7b862827043f9cddd50da9811",
          "reqSigs": 1,
          "type": "witness_v0_keyhash",
          "addresses": [
            "btgrt1q6t43grvtwqrw0wrzsfcy87wdm4gd4xq33v30vf"
          ]
        }
      }
    ],
    "hex": "020000000001011704c77fb1c8c6e0adf2ffb201a1c2b2275062fc5790e8cdeebf4ad539532c12000000001716001435d679a7f7e4e740129e8fd25db6e1fe35d3f382feffffff02300b0d8f000000001600144f52b946f29b2153895fe4b375cfdb44958af76200e1f50500000000160014d2eb140d8b7006e7b862827043f9cddd50da98110247304402200dbc5351643f1eaed364449ef87264d7f901afe23bbe0b24229fef6fe2fe80ae02200407d0362b99274fe21ecfd59c6de951c2703f8cc5092edfb39c1d86106f938b012103363b03335f5d57d0838e1f1d3280d4d7bb60f5640c2c3652db06ef986f9bf6272c010000"
  },
  "inputs": [
    {
      "txid": "122c5339d54abfeecde89057fc625027b2c2a101b2fff2ade0c6c8b17fc70417",
      "hash": "54c582d6f5ec79d2c19537ac5e4504d0fd70f480d84ab743b8faedefff00a1a5",
      "version": 2,
      "size": 171,
      "vsize": 144,
      "weight": 576,
      "locktime": 0,
      "vin": [
        {
          "coinbase": "02aa000101",
          "sequence": 4294967295
        }
      ],
      "vout": [
        {
          "value": 25,
          "n": 0,
          "scriptPubKey": {
            "asm": "OP_HASH160 af341f65820fa0ab7245ac0fbc7d61010fd2b485 OP_EQUAL",
            "hex": "a914af341f65820fa0ab7245ac0fbc7d61010fd2b48587",
            "reqSigs": 1,
            "type": "scripthash",
            "addresses": [
              "2N9DcgQ6Qj2QTAf1xnyZodYEhMpS6u13BNH"
            ]
          }
        },
        {
          "value": 0,
          "n": 1,
          "scriptPubKey": {
            "asm": "OP_RETURN aa21a9ede2f61c3f71d1defd3fa999dfa36953755c690689799962b48bebd836974e8cf9",
            "hex": "6a24aa21a9ede2f61c3f71d1defd3fa999dfa36953755c690689799962b48bebd836974e8cf9",
            "type": "nulldata"
          }
        }
      ],
      "hex": "020000000001010000000000000000000000000000000000000000000000000000000000000000ffffffff0502aa000101ffffffff0200f902950000000017a914af341f65820fa0ab7245ac0fbc7d61010fd2b485870000000000000000266a24aa21a9ede2f61c3f71d1defd3fa999dfa36953755c690689799962b48bebd836974e8cf90120000000000000000000000000000000000000000000000000000000000000000000000000",
      "blockhash": "607a05172d64489ab970470d6a14941753f04e4ffe46670c158c063658c633fd",
      "confirmations": 131,
      "time": 1628762040,
      "blocktime": 1628762040
    }
  ]
}