{
  "transaction": {
    "txid": "761564c57fba5369ca808e13635a8ba43860b2a526f18ed826aced022cdbd58b",
    "hash": "28af5d929b88ac1da93c43d6a09ca8e2ab6d48cf11af9986ad542fb46cedc2c2",
    "version": 2,
    "size": 758,
    "vsize": 436,
    "weight": 1742,
    "locktime": 1951,
    "vin": [
      {
        "txid": "81e342e905ebee1ed6371c1f1efd87029e9fb981e7e9a356694cc47dd8594ae6",
        "vout": 0,
        "scriptSig": {
          "asm": "0014f942008ae86298d9c13052afa7f3ddb5a3a412f6",
          "hex": "160014f942008ae86298d9c13052afa7f3ddb5a3a412f6"
        },
        "txinwitness": [
          "30440220119b794883f8bad2517d397063f3b1d6443b927912140bf32e1568f8a92489420220657bf6a4e05be59f209e5d50d654f21d748d5946ecb6ff2d7950ab47cefabc0241",
          "0302b116dbd1f6cc738f744ba0aa241c50da6e16e2ef77bdc86aaaa04bbbb1b412"
        ],
        "sequence": 4294967294
      },
      {
        "txid": "d68ad3fbf3d462abd38c83f9a4e6dfd972a0860a88519a3f30a24d587bd283d7",
        "vout": 0,
        "scriptSig": {
          "asm": "0014f942008ae86298d9c13052afa7f3ddb5a3a412f6",
          "hex": "160014f942008ae86298d9c13052afa7f3ddb5a3a412f6"
        },
        "txinwitness": [
          "30440220173d028795cca7b5eff5e86c62d79a392cdabbf50f637010087c015b90cc23d8022053755d7dc17cfb8261910c757552eb1a90983d4441a49ac6ffe035547f0d515041",
          "0302b116dbd1f6cc738f744ba0aa241c50da6e16e2ef77bdc86aaaa04bbbb1b412"
        ],
        "sequence": 4294967294
      },
      {
        "txid": "e213eaca9eb7fafb93655007be5b1411718b4a809d10648037570a5b187ffbb0",
        "vout": 0,
        "scriptSig": {
          "asm": "0014f942008ae86298d9c13052afa7f3ddb5a3a412f6",
          "hex": "160014f942008ae86298d9c13052afa7f3ddb5a3a412f6"
        },
        "txinwitness": [
          "30440220777ae5b2ae0df40b30726290580119ef38849d5abb6d494a6074a470514d8f2b02200382f045f4d7c4f5d4398400f83203fcbef30e4b631cf11e281139f1fec156c041",
          "0302b116dbd1f6cc738f744ba0aa241c50da6e16e2ef77bdc86aaaa04bbbb1b412"
        ],
        "sequence": 4294967294
      },
      {
        "txid": "5158ac20e58aed3bcb95ae6f75d7b8e15a9cd30d7ef463abab10b4ec2dd20b32",
        "vout": 0,
        "scriptSig": {
          "asm": "0014f942008ae86298d9c13052afa7f3ddb5a3a412f6",
          "hex": "160014f942008ae86298d9c13052afa7f3ddb5a3a412f6"
        },
        "txinwitness": [
          "304402207ddb9964f7b2097b930ca80df89717b1d004f45c7801bd0a8ee129ba3e03bab502206228f09245d21a55f2e845083e31c718e913898e3238b9d659eaf295c77e5baf41",
          "0302b116dbd1f6cc738f744ba0aa241c50da6e16e2ef77bdc86aaaa04bbbb1b412"
        ],
        "sequence": 4294967294
      }
    ],
    "vout": [
      {
        "value": 1,
        "n": 0,
        "scriptPubKey": {
          "asm": "0 d2eb140d8b7006e7b862827043f9cddd50da9811",
          "hex": "0014d2eb140d8b7006e7b862827043f9cddd50da9811",
          "reqSigs": 1,
          "type": "witness_v0_keyhash",
          "addresses": [
            "btgrt1q6t43grvtwqrw0wrzsfcy87wdm4gd4xq33v30vf"
          ]
        }
      },
      {
        "value": 0.01309639,
        "n": 1,
        "scriptPubKey": {
          "asm": "0 6e86507b026fe814d9806bb225572c7827ccba28",
          "hex": "00146e86507b026fe814d9806bb225572c7827ccba28",
          "reqSigs": 1,
          "type": "witness_v0_keyhash",
          "addresses": [
            "btgrt1qd6r9q7czdl5pfkvqdwez24ev0qnuew3glnnv29"
          ]
        }
      }
    ],
    "hex": "02000000000104e64a59d87dc44c6956a3e9e781b99f9e0287fd1e1f1c37d61eeeeb05e942e3810000000017160014f942008ae86298d9c13052afa7f3ddb5a3a412f6feffffffd783d27b584da2303f9a51880a86a072d9dfe6a4f9838cd3ab62d4f3fbd38ad60000000017160014f942008ae86298d9c13052afa7f3ddb5a3a412f6feffffffb0fb7f185b0a57378064109d804a8b7111145bbe07506593fbfab79ecaea13e20000000017160014f942008ae86298d9c13052afa7f3ddb5a3a412f6feffffff320bd22decb410abab63f47e0dd39c5ae1b8d7756fae95cb3bed8ae520ac58510000000017160014f942008ae86298d9c13052afa7f3ddb5a3a412f6feffffff0200e1f50500000000160014d2eb140d8b7006e7b862827043f9cddd50da9811c7fb1300000000001600146e86507b026fe814d9806bb225572c7827ccba28024730440220119b794883f8bad2517d397063f3b1d6443b927912140bf32e1568f8a92489420220657bf6a4e05be59f209e5d50d654f21d748d5946ecb6ff2d7950ab47cefabc0241210302b116dbd1f6cc738f744ba0aa241c50da6e16e2ef77bdc86aaaa04bbbb1b412024730440220173d028795cca7b5eff5e86c62d79a392cdabbf50f637010087c015b90cc23d8022053755d7dc17cfb8261910c757552eb1a90983d4441a49ac6ffe035547f0d515041210302b116dbd1f6cc738f744ba0aa241c50da6e16e2ef77bdc86aaaa04bbbb1b412024730440220777ae5b2ae0df40b30726290580119ef38849d5abb6d494a6074a470514d8f2b02200382f045f4d7c4f5d4398400f83203fcbef30e4b631cf11e281139f1fec156c041210302b116dbd1f6cc738f744ba0aa241c50da6e16e2ef77bdc86aaaa04bbbb1b4120247304402207ddb9964f7b2097b930ca80df89717b1d004f45c7801bd0a8ee129ba3e03bab502206228f09245d21a55f2e845083e31c718e913898e3238b9d659eaf295c77e5baf41210302b116dbd1f6cc738f744ba0aa241c50da6e16e2ef77bdc86aaaa04bbbb1b4129f070000"
  },
  "inputs": [
    {
      "txid": "81e342e905ebee1ed6371c1f1efd87029e9fb981e7e9a356694cc47dd8594ae6",
      "hash": "b90c59c576a888cb9f317cfdce36ba3a5014736d97c0907494b7c012e34a38f1",
      "version": 2,
      "size": 171,
      "vsize": 144,
      "weight": 576,
      "locktime": 0,
      "vin": [
        {
          "coinbase": "0205040101",
          "sequence": 4294967295
        }
      ],
      "vout": [
        {
          "value": 0.78125,
          "n": 0,
          "scriptPubKey": {
            "asm": "OP_HASH160 3db240e7cf0b92857eb78d50cbe1004d31110128 OP_EQUAL",
            "hex": "a9143db240e7cf0b92857eb78d50cbe1004d3111012887",
            "reqSigs": 1,
            "type": "scripthash",
            "addresses": [
              "2MxsSkFwqEWCbdkv8S5zxRSG4fxmeCzpWPe"
            ]
          }
        },
        {
          "value": 0,
          "n": 1,
          "scriptPubKey": {
            "asm": "OP_RETURN aa21a9ede2f61c3f71d1defd3fa999dfa36953755c690689799962b48bebd836974e8cf9",
            "hex": "6a24aa21a9ede2f61c3f71d1defd3fa999dfa36953755c690689799962b48bebd836974e8cf9",
            "type": "nulldata"
          }
        }
      ],
      "hex": "020000000001010000000000000000000000000000000000000000000000000000000000000000ffffffff050205040101ffffffff02c817a8040000000017a9143db240e7cf0b92857eb78d50cbe1004d31110128870000000000000000266a24aa21a9ede2f61c3f71d1defd3fa999dfa36953755c690689799962b48bebd836974e8cf90120000000000000000000000000000000000000000000000000000000000000000000000000",
      "blockhash": "36b135bd902905b69e0d1d355171365e77c4941da5c728044f1f1140166cfb9a",
      "confirmations": 973,
      "time": 1630068192,
      "blocktime": 1630068192
    },
    {
      "txid": "d68ad3fbf3d462abd38c83f9a4e6dfd972a0860a88519a3f30a24d587bd283d7",
      "hash": "8f05ba6dd5be7a3100f587067e94a46ef3f86805e0942a1a6c27390609bff2e2",
      "version": 2,
      "size": 171,
      "vsize": 144,
      "weight": 576,
      "locktime": 0,
      "vin": [
        {
          "coinbase": "028a060101",
          "sequence": 4294967295
        }
      ],
      "vout": [
        {
          "value": 0.02441406,
          "n": 0,
          "scriptPubKey": {
            "asm": "OP_HASH160 3db240e7cf0b92857eb78d50cbe1004d31110128 OP_EQUAL",
            "hex": "a9143db240e7cf0b92857eb78d50cbe1004d3111012887",
            "reqSigs": 1,
            "type": "scripthash",
            "addresses": [
              "2MxsSkFwqEWCbdkv8S5zxRSG4fxmeCzpWPe"
            ]
          }
        },
        {
          "value": 0,
          "n": 1,
          "scriptPubKey": {
            "asm": "OP_RETURN aa21a9ede2f61c3f71d1defd3fa999dfa36953755c690689799962b48bebd836974e8cf9",
            "hex": "6a24aa21a9ede2f61c3f71d1defd3fa999dfa36953755c690689799962b48bebd836974e8cf9",
            "type": "nulldata"
          }
        }
      ],
      "hex": "020000000001010000000000000000000000000000000000000000000000000000000000000000ffffffff05028a060101ffffffff02be4025000000000017a9143db240e7cf0b92857eb78d50cbe1004d31110128870000000000000000266a24aa21a9ede2f61c3f71d1defd3fa999dfa36953755c690689799962b48bebd836974e8cf90120000000000000000000000000000000000000000000000000000000000000000000000000",
      "blockhash": "7b738c49e749bdc18f68142eeae3bcb86f1bcc61c89551bcd4a28dc173d32049",
      "confirmations": 328,
      "time": 1630068299,
      "blocktime": 1630068299
    },
    {
      "txid": "e213eaca9eb7fafb93655007be5b1411718b4a809d10648037570a5b187ffbb0",
      "hash": "b719eb709c796e128610dca3d031b77b79f40e0d2598fbe92ceb8db6807a2b79",
      "version": 2,
      "size": 171,
      "vsize": 144,
      "weight": 576,
      "locktime": 0,
      "vin": [
        {
          "coinbase": "02f7040101",
          "sequence": 4294967295
        }
      ],
      "vout": [
        {
          "value": 0.1953125,
          "n": 0,
          "scriptPubKey": {
            "asm": "OP_HASH160 3db240e7cf0b92857eb78d50cbe1004d31110128 OP_EQUAL",
            "hex": "a9143db240e7cf0b92857eb78d50cbe1004d3111012887",
            "reqSigs": 1,
            "type": "scripthash",
            "addresses": [
              "2MxsSkFwqEWCbdkv8S5zxRSG4fxmeCzpWPe"
            ]
          }
        },
        {
          "value": 0,
          "n": 1,
          "scriptPubKey": {
            "asm": "OP_RETURN aa21a9ede2f61c3f71d1defd3fa999dfa36953755c690689799962b48bebd836974e8cf9",
            "hex": "6a24aa21a9ede2f61c3f71d1defd3fa999dfa36953755c690689799962b48bebd836974e8cf9",
            "type": "nulldata"
          }
        }
      ],
      "hex": "020000000001010000000000000000000000000000000000000000000000000000000000000000ffffffff0502f7040101ffffffff02f2052a010000000017a9143db240e7cf0b92857eb78d50cbe1004d31110128870000000000000000266a24aa21a9ede2f61c3f71d1defd3fa999dfa36953755c690689799962b48bebd836974e8cf90120000000000000000000000000000000000000000000000000000000000000000000000000",
      "blockhash": "22a1e2c333da1ff4831d4bab09cf2fdc923388bac83166322f8c1f321a379e39",
      "confirmations": 731,
      "time": 1630068232,
      "blocktime": 1630068232
    },
    {
      "txid": "5158ac20e58aed3bcb95ae6f75d7b8e15a9cd30d7ef463abab10b4ec2dd20b32",
      "hash": "98ad7f6f0e63f08acd996b278bcfe26f4ef2cd14ed09ed03678ad467601483b2",
      "version": 2,
      "size": 171,
      "vsize": 144,
      "weight": 576,
      "locktime": 0,
      "vin": [
        {
          "coinbase": "0222070101",
          "sequence": 4294967295
        }
      ],
      "vout": [
        {
          "value": 0.01220703,
          "n": 0,
          "scriptPubKey": {
            "asm": "OP_HASH160 3db240e7cf0b92857eb78d50cbe1004d31110128 OP_EQUAL",
            "hex": "a9143db240e7cf0b92857eb78d50cbe1004d3111012887",
            "reqSigs": 1,
            "type": "scripthash",
            "addresses": [
              "2MxsSkFwqEWCbdkv8S5zxRSG4fxmeCzpWPe"
            ]
          }
        },
        {
          "value": 0,
          "n": 1,
          "scriptPubKey": {
            "asm": "OP_RETURN aa21a9ede2f61c3f71d1defd3fa999dfa36953755c690689799962b48bebd836974e8cf9",
            "hex": "6a24aa21a9ede2f61c3f71d1defd3fa999dfa36953755c690689799962b48bebd836974e8cf9",
            "type": "nulldata"
          }
        }
      ],
      "hex": "020000000001010000000000000000000000000000000000000000000000000000000000000000ffffffff050222070101ffffffff025fa012000000000017a9143db240e7cf0b92857eb78d50cbe1004d31110128870000000000000000266a24aa21a9ede2f61c3f71d1defd3fa999dfa36953755c690689799962b48bebd836974e8cf90120000000000000000000000000000000000000000000000000000000000000000000000000",
      "blockhash": "171e718f4d1900761b3cf0c8e275c1d0022d21cc850fbcd014ac1f68a3e01ccc",
      "confirmations": 176,
      "time": 1630068325,
      "blocktime": 1630068325
    }
  ]
}