{
  "transaction": {
    "txid": "f751d58ef135825d86d64ee7b317be0db2339775f5f0bfcefdb52bb23a5252c1",
    "hash": "93256c9517adb639b82fb03c10d445002aac754f35dabfa9d85b330be8ac61cf",
    "version": 2,
    "size": 769,
    "vsize": 448,
    "weight": 1789,
    "locktime": 2001,
    "vin": [
      {
        "txid": "d65e29ce0291a1ec1066963a89ce1283889f9f9a361faa1d6c6b8e7b21026073",
        "vout": 0,
        "scriptSig": {
          "asm": "0014f942008ae86298d9c13052afa7f3ddb5a3a412f6",
          "hex": "160014f942008ae86298d9c13052afa7f3ddb5a3a412f6"
        },
        "txinwitness": [
          "304402203c1894d188d30d4b0ab78c748a2b5f0e97f39b096aab3408f3fe6f8f7f0125de022014cf63ec8cf4b5be72d7ebe0328fb2be32e7b267bdb52794fc9179d3e34658c741",
          "0302b116dbd1f6cc738f744ba0aa241c50da6e16e2ef77bdc86aaaa04bbbb1b412"
        ],
        "sequence": 4294967294
      },
      {
        "txid": "c9955c8120b8fc62cb4f0cf833b59ffdecb4eae9f5b8c85c2772e9e668fba235",
        "vout": 0,
        "scriptSig": {
          "asm": "0014f942008ae86298d9c13052afa7f3ddb5a3a412f6",
          "hex": "160014f942008ae86298d9c13052afa7f3ddb5a3a412f6"
        },
        "txinwitness": [
          "3044022049e3a08c54e092c052ee9cae891f76dafce1ba1e4199a2802d302ef165219b7d022063322ad17201724857bb4042bc59dc4809a3db156ef4bf702639e3321721e9a941",
          "0302b116dbd1f6cc738f744ba0aa241c50da6e16e2ef77bdc86aaaa04bbbb1b412"
        ],
        "sequence": 4294967294
      },
      {
        "txid": "9ab060e7fad445d910df1e5d1b7e78db1b89327a91bb6fc8c06fa6c3c6653b05",
        "vout": 0,
        "scriptSig": {
          "asm": "0014f942008ae86298d9c13052afa7f3ddb5a3a412f6",
          "hex": "160014f942008ae86298d9c13052afa7f3ddb5a3a412f6"
        },
        "txinwitness": [
          "3044022034d037e8b6025790de0d71e35cd45d80a2ffca284775d9fc6d6be6370b19d45c02205cfa154c7ab9fb507b44f83b3a1bf6eec1d33a5ae1ba8372f0cf62ac580bb5dc41",
          "0302b116dbd1f6cc738f744ba0aa241c50da6e16e2ef77bdc86aaaa04bbbb1b412"
        ],
        "sequence": 4294967294
      },
      {
        "txid": "f1a52ec8ff24e2fcc8a7ad4f7748b52e49e04b9b08be18bf0944e214e2a8ce80",
        "vout": 0,
        "scriptSig": {
          "asm": "0014f942008ae86298d9c13052afa7f3ddb5a3a412f6",
          "hex": "160014f942008ae86298d9c13052afa7f3ddb5a3a412f6"
        },
        "txinwitness": [
          "3043021f60bf49dee84d1dfbe20eaad67b53ba775a825306f46f2ffb8db6ad1d36af1c022076cf28619cd5ab611c9dea5461eb6507c4293d1a5f0be0eb90b668c85629895f41",
          "0302b116dbd1f6cc738f744ba0aa241c50da6e16e2ef77bdc86aaaa04bbbb1b412"
        ],
        "sequence": 4294967294
      }
    ],
    "vout": [
      {
        "value": 0.01309399,
        "n": 0,
        "scriptPubKey": {
          "asm": "0 b06cbed26dda953dc7c7a8f59c94a150dcc9acbd",
          "hex": "0014b06cbed26dda953dc7c7a8f59c94a150dcc9acbd",
          "reqSigs": 1,
          "type": "witness_v0_keyhash",
          "addresses": [
            "btgrt1qkpkta5ndm22nm3784r6ee99p2rwvnt9avthaax"
          ]
        }
      },
      {
        "value": 1,
        "n": 1,
        "scriptPubKey": {
          "asm": "0 1553f31a3e25e770b7bc857b82909e83734dbfe4bcdb5a5e6fc419b6920c398a",
          "hex": "00201553f31a3e25e770b7bc857b82909e83734dbfe4bcdb5a5e6fc419b6920c398a",
          "reqSigs": 1,
          "type": "witness_v0_scripthash",
          "addresses": [
            "btgrt1qz4flxx37yhnhpdaus4ac9yy7sde5m0lyhnd45hn0csvmdysv8x9qmez7qc"
          ]
        }
      }
    ],
    "hex": "02000000000104736002217b8e6b6c1daa1f369a9f9f888312ce893a966610eca19102ce295ed60000000017160014f942008ae86298d9c13052afa7f3ddb5a3a412f6feffffff35a2fb68e6e972275cc8b8f5e9eab4ecfd9fb533f80c4fcb62fcb820815c95c90000000017160014f942008ae86298d9c13052afa7f3ddb5a3a412f6feffffff053b65c6c3a66fc0c86fbb917a32891bdb787e1b5d1edf10d945d4fae760b09a0000000017160014f942008ae86298d9c13052afa7f3ddb5a3a412f6feffffff80cea8e214e24409bf18be089b4be0492eb548774fada7c8fce224ffc82ea5f10000000017160014f942008ae86298d9c13052afa7f3ddb5a3a412f6feffffff02d7fa130000000000160014b06cbed26dda953dc7c7a8f59c94a150dcc9acbd00e1f505000000002200201553f31a3e25e770b7bc857b82909e83734dbfe4bcdb5a5e6fc419b6920c398a0247304402203c1894d188d30d4b0ab78c748a2b5f0e97f39b096aab3408f3fe6f8f7f0125de022014cf63ec8cf4b5be72d7ebe0328fb2be32e7b267bdb52794fc9179d3e34658c741210302b116dbd1f6cc738f744ba0aa241c50da6e16e2ef77bdc86aaaa04bbbb1b41202473044022049e3a08c54e092c052ee9cae891f76dafce1ba1e4199a2802d302ef165219b7d022063322ad17201724857bb4042bc59dc4809a3db156ef4bf702639e3321721e9a941210302b116dbd1f6cc738f744ba0aa241c50da6e16e2ef77bdc86aaaa04bbbb1b41202473044022034d037e8b6025790de0d71e35cd45d80a2ffca284775d9fc6d6be6370b19d45c02205cfa154c7ab9fb507b44f83b3a1bf6eec1d33a5ae1ba8372f0cf62ac580bb5dc41210302b116dbd1f6cc738f744ba0aa241c50da6e16e2ef77bdc86aaaa04bbbb1b41202463043021f60bf49dee84d1dfbe20eaad67b53ba775a825306f46f2ffb8db6ad1d36af1c022076cf28619cd5ab611c9dea5461eb6507c4293d1a5f0be0eb90b668c85629895f41210302b116dbd1f6cc738f744ba0aa241c50da6e16e2ef77bdc86aaaa04bbbb1b412d1070000"
  },
  "inputs": [
    {
      "txid": "d65e29ce0291a1ec1066963a89ce1283889f9f9a361faa1d6c6b8e7b21026073",
      "hash": "f55b7013a102dbbb83758934851aa60194bc339167be275acc804e7225f7221a",
      "version": 2,
      "size": 171,
      "vsize": 144,
      "weight": 576,
      "locktime": 0,
      "vin": [
        {
          "coinbase": "02db060101",
          "sequence": 4294967295
        }
      ],
      "vout": [
        {
          "value": 0.02441406,
          "n": 0,
          "scriptPubKey": {
            "asm": "OP_HASH160 3db240e7cf0b92857eb78d50cbe1004d31110128 OP_EQUAL",
            "hex": "a9143db240e7cf0b92857eb78d50cbe1004d3111012887",
            "reqSigs": 1,
            "type": "scripthash",
            "addresses": [
              "2MxsSkFwqEWCbdkv8S5zxRSG4fxmeCzpWPe"
            ]
          }
        },
        {
          "value": 0,
          "n": 1,
          "scriptPubKey": {
            "asm": "OP_RETURN aa21a9ede2f61c3f71d1defd3fa999dfa36953755c690689799962b48bebd836974e8cf9",
            "hex": "6a24aa21a9ede2f61c3f71d1defd3fa999dfa36953755c690689799962b48bebd836974e8cf9",
            "type": "nulldata"
          }
        }
      ],
      "hex": "020000000001010000000000000000000000000000000000000000000000000000000000000000ffffffff0502db060101ffffffff02be4025000000000017a9143db240e7cf0b92857eb78d50cbe1004d31110128870000000000000000266a24aa21a9ede2f61c3f71d1defd3fa999dfa36953755c690689799962b48bebd836974e8cf90120000000000000000000000000000000000000000000000000000000000000000000000000",
      "blockhash": "7965994663f26f9c58947beb656558669b6791b310ddfe40955eb30c8e7298d6",
      "confirmations": 247,
      "time": 1630068313,
      "blocktime": 1630068313
    },
    {
      "txid": "c9955c8120b8fc62cb4f0cf833b59ffdecb4eae9f5b8c85c2772e9e668fba235",
      "hash": "af9e1feeba8c1d610fdcba522bc8584b1d0d44a680bdc38120daa3517d82ed0d",
      "version": 2,
      "size": 171,
      "vsize": 144,
      "weight": 576,
      "locktime": 0,
      "vin": [
        {
          "coinbase": "0211050101",
          "sequence": 4294967295
        }
      ],
      "vout": [
        {
          "value": 0.1953125,
          "n": 0,
          "scriptPubKey": {
            "asm": "OP_HASH160 3db240e7cf0b92857eb78d50cbe1004d31110128 OP_EQUAL",
            "hex": "a9143db240e7cf0b92857eb78d50cbe1004d3111012887",
            "reqSigs": 1,
            "type": "scripthash",
            "addresses": [
              "2MxsSkFwqEWCbdkv8S5zxRSG4fxmeCzpWPe"
            ]
          }
        },
        {
          "value": 0,
          "n": 1,
          "scriptPubKey": {
            "asm": "OP_RETURN aa21a9ede2f61c3f71d1defd3fa999dfa36953755c690689799962b48bebd836974e8cf9",
            "hex": "6a24aa21a9ede2f61c3f71d1defd3fa999dfa36953755c690689799962b48bebd836974e8cf9",
            "type": "nulldata"
          }
        }
      ],
      "hex": "020000000001010000000000000000000000000000000000000000000000000000000000000000ffffffff050211050101ffffffff02f2052a010000000017a9143db240e7cf0b92857eb78d50cbe1004d31110128870000000000000000266a24aa21a9ede2f61c3f71d1defd3fa999dfa36953755c690689799962b48bebd836974e8cf90120000000000000000000000000000000000000000000000000000000000000000000000000",
      "blockhash": "62f33122a29c7baad138891c830686bc8c1b62869fe18d74131a1d0cc58f80c1",
      "confirmations": 705,
      "time": 1630068236,
      "blocktime": 1630068236
    },
    {
      "txid": "9ab060e7fad445d910df1e5d1b7e78db1b89327a91bb6fc8c06fa6c3c6653b05",
      "hash": "df08249de66995ce28e3e3958fb77852e926cfbb1aed711ccb7541523fc50073",
      "version": 2,
      "size": 171,
      "vsize": 144,
      "weight": 576,
      "locktime": 0,
      "vin": [
        {
          "coinbase": "02a1030101",
          "sequence": 4294967295
        }
      ],
      "vout": [
        {
          "value": 0.78125,
          "n": 0,
          "scriptPubKey": {
            "asm": "OP_HASH160 3db240e7cf0b92857eb78d50cbe1004d31110128 OP_EQUAL",
            "hex": "a9143db240e7cf0b92857eb78d50cbe1004d3111012887",
            "reqSigs": 1,
            "type": "scripthash",
            "addresses": [
              "2MxsSkFwqEWCbdkv8S5zxRSG4fxmeCzpWPe"
            ]
          }
        },
        {
          "value": 0,
          "n": 1,
          "scriptPubKey": {
            "asm": "OP_RETURN aa21a9ede2f61c3f71d1defd3fa999dfa36953755c690689799962b48bebd836974e8cf9",
            "hex": "6a24aa21a9ede2f61c3f71d1defd3fa999dfa36953755c690689799962b48bebd836974e8cf9",
            "type": "nulldata"
          }
        }
      ],
      "hex": "020000000001010000000000000000000000000000000000000000000000000000000000000000ffffffff0502a1030101ffffffff02c817a8040000000017a9143db240e7cf0b92857eb78d50cbe1004d31110128870000000000000000266a24aa21a9ede2f61c3f71d1defd3fa999dfa36953755c690689799962b48bebd836974e8cf90120000000000000000000000000000000000000000000000000000000000000000000000000",
      "blockhash": "6248f2c096b072b7728f19670fe7c4c4c6ccc79408b9e3eae5749445ff13970a",
      "confirmations": 1073,
      "time": 1630068175,
      "blocktime": 1630068175
    },
    {
      "txid": "f1a52ec8ff24e2fcc8a7ad4f7748b52e49e04b9b08be18bf0944e214e2a8ce80",
      "hash": "b9732a26a408b09b752e13d65778804d52db89260ca5b9c4efb3a537f2c4b940",
      "version": 2,
      "size": 171,
      "vsize": 144,
      "weight": 576,
      "locktime": 0,
      "vin": [
        {
          "coinbase": "022b070101",
          "sequence": 4294967295
        }
      ],
      "vout": [
        {
          "value": 0.01220703,
          "n": 0,
          "scriptPubKey": {
            "asm": "OP_HASH160 3db240e7cf0b92857eb78d50cbe1004d31110128 OP_EQUAL",
            "hex": "a9143db240e7cf0b92857eb78d50cbe1004d3111012887",
            "reqSigs": 1,
            "type": "scripthash",
            "addresses": [
              "2MxsSkFwqEWCbdkv8S5zxRSG4fxmeCzpWPe"
            ]
          }
        },
        {
          "value": 0,
          "n": 1,
          "scriptPubKey": {
            "asm": "OP_RETURN aa21a9ede2f61c3f71d1defd3fa999dfa36953755c690689799962b48bebd836974e8cf9",
            "hex": "6a24aa21a9ede2f61c3f71d1defd3fa999dfa36953755c690689799962b48bebd836974e8cf9",
            "type": "nulldata"
          }
        }
      ],
      "hex": "020000000001010000000000000000000000000000000000000000000000000000000000000000ffffffff05022b070101ffffffff025fa012000000000017a9143db240e7cf0b92857eb78d50cbe1004d31110128870000000000000000266a24aa21a9ede2f61c3f71d1defd3fa999dfa36953755c690689799962b48bebd836974e8cf90120000000000000000000000000000000000000000000000000000000000000000000000000",
      "blockhash": "4576245e60b4db076319e06c01e301b27af09f176e3acb712fd1bcde793c82ca",
      "confirmations": 167,
      "time": 1630068326,
      "blocktime": 1630068326
    }
  ]
}