{
  "transaction": {
    "txid": "7d3ab8350d8bc884a208f52d84e87cc747cb8b80a6f265165bcc2b4f43f51fb5",
    "hash": "852e17a178705eebc4f224c0371118a617c495f3b57fdfec16a7c1317bf98cbf",
    "version": 2,
    "size": 770,
    "vsize": 448,
    "weight": 1790,
    "locktime": 2001,
    "vin": [
      {
        "txid": "5c4b300740ffb50de5ee14a71b444227a55802317846292c99eb74f036bb2fa1",
        "vout": 0,
        "scriptSig": {
          "asm": "0014af8f39453d39484eb324378fdf67488741c25b6f",
          "hex": "160014af8f39453d39484eb324378fdf67488741c25b6f"
        },
        "txinwitness": [
          "3044022048becae49ee862a5196cb0e60e39a760e468a41f98b3fbdbe2d9f94994587820022046401b12cfebcb04f5a22d72ecec5edba041590f264fa14d5e5e314f0da6b73a41",
          "03934e6567f283e5c74875300761dfc2884df23bae2771cffcc1dda9805c0c7e8e"
        ],
        "sequence": 4294967294
      },
      {
        "txid": "32cbf45d19e838e032999fa9789fe6a8c9bcf4707ee2e412e74be7b571504baa",
        "vout": 0,
        "scriptSig": {
          "asm": "0014af8f39453d39484eb324378fdf67488741c25b6f",
          "hex": "160014af8f39453d39484eb324378fdf67488741c25b6f"
        },
        "txinwitness": [
          "304402202a1f83d21a88bca2f016017530cda421ae9b91d64f56db89cf1746eeb00893b402207a53f3dda3101d1908300825ea442d304151b9ffdb2af09fdfbaeeda6d26a95f41",
          "03934e6567f283e5c74875300761dfc2884df23bae2771cffcc1dda9805c0c7e8e"
        ],
        "sequence": 4294967294
      },
      {
        "txid": "372c0bb47fdfd197a8e50ab2802a7a3313742278e2ddea0fd9ac6118a86a48ec",
        "vout": 0,
        "scriptSig": {
          "asm": "0014af8f39453d39484eb324378fdf67488741c25b6f",
          "hex": "160014af8f39453d39484eb324378fdf67488741c25b6f"
        },
        "txinwitness": [
          "3044022016949321be33d0576ff5c26b88420346fa2b53efb8731e4f48f73bd38142d812022026d4ebaabe2e68f515194a1f135afc4eadfc536e988500a86c08070ac8787a6d41",
          "03934e6567f283e5c74875300761dfc2884df23bae2771cffcc1dda9805c0c7e8e"
        ],
        "sequence": 4294967294
      },
      {
        "txid": "9dadafb2aaef020873cd60fa2e4630bb8e5ddf9a7d305c01b58f7c32a1be5443",
        "vout": 0,
        "scriptSig": {
          "asm": "0014af8f39453d39484eb324378fdf67488741c25b6f",
          "hex": "160014af8f39453d39484eb324378fdf67488741c25b6f"
        },
        "txinwitness": [
          "304402206afc25662c5470197b747a994d91dda311731738bc948e1d0c790b87e13bcc770220750aaca828a345836c3e49fe057a20c91f9d8e2afe0faae10d7d5f749737ac8241",
          "03934e6567f283e5c74875300761dfc2884df23bae2771cffcc1dda9805c0c7e8e"
        ],
        "sequence": 4294967294
      }
    ],
    "vout": [
      {
        "value": 0.01309399,
        "n": 0,
        "scriptPubKey": {
          "asm": "0 ef356f6eb693a7052a44ea131a337a385cf33fd3",
          "hex": "0014ef356f6eb693a7052a44ea131a337a385cf33fd3",
          "reqSigs": 1,
          "type": "witness_v0_keyhash",
          "addresses": [
            "btgrt1qau6k7m4kjwns22jyagf35vm68pw0x07nslpwvd"
          ]
        }
      },
      {
        "value": 1,
        "n": 1,
        "scriptPubKey": {
          "asm": "0 1553f31a3e25e770b7bc857b82909e83734dbfe4bcdb5a5e6fc419b6920c398a",
          "hex": "00201553f31a3e25e770b7bc857b82909e83734dbfe4bcdb5a5e6fc419b6920c398a",
          "reqSigs": 1,
          "type": "witness_v0_scripthash",
          "addresses": [
            "btgrt1qz4flxx37yhnhpdaus4ac9yy7sde5m0lyhnd45hn0csvmdysv8x9qmez7qc"
          ]
        }
      }
    ],
    "hex": "02000000000104a12fbb36f074eb992c294678310258a52742441ba714eee50db5ff4007304b5c0000000017160014af8f39453d39484eb324378fdf67488741c25b6ffeffffffaa4b5071b5e74be712e4e27e70f4bcc9a8e69f78a99f9932e038e8195df4cb320000000017160014af8f39453d39484eb324378fdf67488741c25b6ffeffffffec486aa81861acd90feadde278227413337a2a80b20ae5a897d1df7fb40b2c370000000017160014af8f39453d39484eb324378fdf67488741c25b6ffeffffff4354bea1327c8fb5015c307d9adf5d8ebb30462efa60cd730802efaab2afad9d0000000017160014af8f39453d39484eb324378fdf67488741c25b6ffeffffff02d7fa130000000000160014ef356f6eb693a7052a44ea131a337a385cf33fd300e1f505000000002200201553f31a3e25e770b7bc857b82909e83734dbfe4bcdb5a5e6fc419b6920c398a02473044022048becae49ee862a5196cb0e60e39a760e468a41f98b3fbdbe2d9f94994587820022046401b12cfebcb04f5a22d72ecec5edba041590f264fa14d5e5e314f0da6b73a412103934e6567f283e5c74875300761dfc2884df23bae2771cffcc1dda9805c0c7e8e0247304402202a1f83d21a88bca2f016017530cda421ae9b91d64f56db89cf1746eeb00893b402207a53f3dda3101d1908300825ea442d304151b9ffdb2af09fdfbaeeda6d26a95f412103934e6567f283e5c74875300761dfc2884df23bae2771cffcc1dda9805c0c7e8e02473044022016949321be33d0576ff5c26b88420346fa2b53efb8731e4f48f73bd38142d812022026d4ebaabe2e68f515194a1f135afc4eadfc536e988500a86c08070ac8787a6d412103934e6567f283e5c74875300761dfc2884df23bae2771cffcc1dda9805c0c7e8e0247304402206afc25662c5470197b747a994d91dda311731738bc948e1d0c790b87e13bcc770220750aaca828a345836c3e49fe057a20c91f9d8e2afe0faae10d7d5f749737ac82412103934e6567f283e5c74875300761dfc2884df23bae2771cffcc1dda9805c0c7e8ed1070000"
  },
  "inputs": [
    {
      "txid": "5c4b300740ffb50de5ee14a71b444227a55802317846292c99eb74f036bb2fa1",
      "hash": "d4090e2f740dcc8bee44adb2db8ffc80a0126ea7ff5658ad45446ea23824dab4",
      "version": 2,
      "size": 171,
      "vsize": 144,
      "weight": 576,
      "locktime": 0,
      "vin": [
        {
          "coinbase": "02d8040101",
          "sequence": 4294967295
        }
      ],
      "vout": [
        {
          "value": 0.1953125,
          "n": 0,
          "scriptPubKey": {
            "asm": "OP_HASH160 246681535a0e57c5b5a7eddffaed5774c42dccad OP_EQUAL",
            "hex": "a914246681535a0e57c5b5a7eddffaed5774c42dccad87",
            "reqSigs": 1,
            "type": "scripthash",
            "addresses": [
              "2MvZh7Ng1a5U7EZX86TBeqi6aUEnfBRzfas"
            ]
          }
        },
        {
          "value": 0,
          "n": 1,
          "scriptPubKey": {
            "asm": "OP_RETURN aa21a9ede2f61c3f71d1defd3fa999dfa36953755c690689799962b48bebd836974e8cf9",
            "hex": "6a24aa21a9ede2f61c3f71d1defd3fa999dfa36953755c690689799962b48bebd836974e8cf9",
            "type": "nulldata"
          }
        }
      ],
      "hex": "020000000001010000000000000000000000000000000000000000000000000000000000000000ffffffff0502d8040101ffffffff02f2052a010000000017a914246681535a0e57c5b5a7eddffaed5774c42dccad870000000000000000266a24aa21a9ede2f61c3f71d1defd3fa999dfa36953755c690689799962b48bebd836974e8cf90120000000000000000000000000000000000000000000000000000000000000000000000000",
      "blockhash": "27c23486c47e2e384ca7fe6c098f3378aee2518e8888798361257ba73d1ed3ba",
      "confirmations": 762,
      "time": 1628862639,
      "blocktime": 1628862639
    },
    {
      "txid": "32cbf45d19e838e032999fa9789fe6a8c9bcf4707ee2e412e74be7b571504baa",
      "hash": "76dc43c67b6e34e41470597582a60d5e306938015461a04c2a7948cf0f5e7668",
      "version": 2,
      "size": 171,
      "vsize": 144,
      "weight": 576,
      "locktime": 0,
      "vin": [
        {
          "coinbase": "02ac060101",
          "sequence": 4294967295
        }
      ],
      "vout": [
        {
          "value": 0.02441406,
          "n": 0,
          "scriptPubKey": {
            "asm": "OP_HASH160 246681535a0e57c5b5a7eddffaed5774c42dccad OP_EQUAL",
            "hex": "a914246681535a0e57c5b5a7eddffaed5774c42dccad87",
            "reqSigs": 1,
            "type": "scripthash",
            "addresses": [
              "2MvZh7Ng1a5U7EZX86TBeqi6aUEnfBRzfas"
            ]
          }
        },
        {
          "value": 0,
          "n": 1,
          "scriptPubKey": {
            "asm": "OP_RETURN aa21a9ede2f61c3f71d1defd3fa999dfa36953755c690689799962b48bebd836974e8cf9",
            "hex": "6a24aa21a9ede2f61c3f71d1defd3fa999dfa36953755c690689799962b48bebd836974e8cf9",
            "type": "nulldata"
          }
        }
      ],
      "hex": "020000000001010000000000000000000000000000000000000000000000000000000000000000ffffffff0502ac060101ffffffff02be4025000000000017a914246681535a0e57c5b5a7eddffaed5774c42dccad870000000000000000266a24aa21a9ede2f61c3f71d1defd3fa999dfa36953755c690689799962b48bebd836974e8cf90120000000000000000000000000000000000000000000000000000000000000000000000000",
      "blockhash": "5cbc7b49a9f310ba4599d05599f2f6c0b625882c5b542eeffe54d6ebe5500c55",
      "confirmations": 294,
      "time": 1628862717,
      "blocktime": 1628862717
    },
    {
      "txid": "372c0bb47fdfd197a8e50ab2802a7a3313742278e2ddea0fd9ac6118a86a48ec",
      "hash": "01d89f86cf93ac1b190845e6b3a0f657523e21965a8705f10630fd68b1bf89ad",
      "version": 2,
      "size": 171,
      "vsize": 144,
      "weight": 576,
      "locktime": 0,
      "vin": [
        {
          "coinbase": "0209040101",
          "sequence": 4294967295
        }
      ],
      "vout": [
        {
          "value": 0.78125,
          "n": 0,
          "scriptPubKey": {
            "asm": "OP_HASH160 246681535a0e57c5b5a7eddffaed5774c42dccad OP_EQUAL",
            "hex": "a914246681535a0e57c5b5a7eddffaed5774c42dccad87",
            "reqSigs": 1,
            "type": "scripthash",
            "addresses": [
              "2MvZh7Ng1a5U7EZX86TBeqi6aUEnfBRzfas"
            ]
          }
        },
        {
          "value": 0,
          "n": 1,
          "scriptPubKey": {
            "asm": "OP_RETURN aa21a9ede2f61c3f71d1defd3fa999dfa36953755c690689799962b48bebd836974e8cf9",
            "hex": "6a24aa21a9ede2f61c3f71d1defd3fa999dfa36953755c690689799962b48bebd836974e8cf9",
            "type": "nulldata"
          }
        }
      ],
      "hex": "020000000001010000000000000000000000000000000000000000000000000000000000000000ffffffff050209040101ffffffff02c817a8040000000017a914246681535a0e57c5b5a7eddffaed5774c42dccad870000000000000000266a24aa21a9ede2f61c3f71d1defd3fa999dfa36953755c690689799962b48bebd836974e8cf90120000000000000000000000000000000000000000000000000000000000000000000000000",
      "blockhash": "5da98bf62098d1c26bd32baa2dbf56473321e0322fdc152ba510bb33f2b8fce4",
      "confirmations": 969,
      "time": 1628862604,
      "blocktime": 1628862604
    },
    {
      "txid": "9dadafb2aaef020873cd60fa2e4630bb8e5ddf9a7d305c01b58f7c32a1be5443",
      "hash": "6b2a553955c40aa8374f34452d50bb9e9b241f59f58c5db6be3e677960a43d33",
      "version": 2,
      "size": 171,
      "vsize": 144,
      "weight": 576,
      "locktime": 0,
      "vin": [
        {
          "coinbase": "0245070101",
          "sequence": 4294967295
        }
      ],
      "vout": [
        {
          "value": 0.01220703,
          "n": 0,
          "scriptPubKey": {
            "asm": "OP_HASH160 246681535a0e57c5b5a7eddffaed5774c42dccad OP_EQUAL",
            "hex": "a914246681535a0e57c5b5a7eddffaed5774c42dccad87",
            "reqSigs": 1,
            "type": "scripthash",
            "addresses": [
              "2MvZh7Ng1a5U7EZX86TBeqi6aUEnfBRzfas"
            ]
          }
        },
        {
          "value": 0,
          "n": 1,
          "scriptPubKey": {
            "asm": "OP_RETURN aa21a9ede2f61c3f71d1defd3fa999dfa36953755c690689799962b48bebd836974e8cf9",
            "hex": "6a24aa21a9ede2f61c3f71d1defd3fa999dfa36953755c690689799962b48bebd836974e8cf9",
            "type": "nulldata"
          }
        }
      ],
      "hex": "020000000001010000000000000000000000000000000000000000000000000000000000000000ffffffff050245070101ffffffff025fa012000000000017a914246681535a0e57c5b5a7eddffaed5774c42dccad870000000000000000266a24aa21a9ede2f61c3f71d1defd3fa999dfa36953755c690689799962b48bebd836974e8cf90120000000000000000000000000000000000000000000000000000000000000000000000000",
      "blockhash": "010ab59090f1dad591bec4a18e71847ad3ca35c5a7a356678c30436688b51730",
      "confirmations": 141,
      "time": 1628862742,
      "blocktime": 1628862742
    }
  ]
}