{
  "transaction": {
    "txid": "850de384fca39b6173046315fe6ef057b62d51ff819fc29a0fdede3e4d14dc44",
    "hash": "025a1ad3833404a97e68223056d6cbe87538fe049da7640d9eb521fc60b941b7",
    "version": 2,
    "size": 760,
    "vsize": 438,
    "weight": 1750,
    "locktime": 1947,
    "vin": [
      {
        "txid": "25268921401ce1605402ca47c9ecd4620892c22350994bfa90b0376ebc7545ca",
        "vout": 0,
        "scriptSig": {
          "asm": "0014f942008ae86298d9c13052afa7f3ddb5a3a412f6",
          "hex": "160014f942008ae86298d9c13052afa7f3ddb5a3a412f6"
        },
        "txinwitness": [
          "304402202f3254a504e5f484f85cbb4912a3e1e08d6dcb8bd1ad7a264f33b68b608cdad30220397271c71e000ea0689dfb5d05d09edca17c1224e1d83da50a70ce89c4a43a6d41",
          "0302b116dbd1f6cc738f744ba0aa241c50da6e16e2ef77bdc86aaaa04bbbb1b412"
        ],
        "sequence": 4294967294
      },
      {
        "txid": "92cf711b7683384cdb984767aaa94e32cc3b65e09c9dd1845e6c0a15c878eeaa",
        "vout": 0,
        "scriptSig": {
          "asm": "0014f942008ae86298d9c13052afa7f3ddb5a3a412f6",
          "hex": "160014f942008ae86298d9c13052afa7f3ddb5a3a412f6"
        },
        "txinwitness": [
          "30440220304d149f719d4498acc3fbbfacc419fb70a96bbcb18c54ac75244dd4c10e4e90022046ddd0bebd939c96c0c1567e965d2e8d6e905145f03e72beded84d3957d957f841",
          "0302b116dbd1f6cc738f744ba0aa241c50da6e16e2ef77bdc86aaaa04bbbb1b412"
        ],
        "sequence": 4294967294
      },
      {
        "txid": "b703e7cfffdad7d0b80189445490eb00392464f2a00b6dbcbbeb80026c88ef4c",
        "vout": 0,
        "scriptSig": {
          "asm": "0014f942008ae86298d9c13052afa7f3ddb5a3a412f6",
          "hex": "160014f942008ae86298d9c13052afa7f3ddb5a3a412f6"
        },
        "txinwitness": [
          "3044022037bc16ac3747267ec0a94001cad4730b40701cb8c2c558a44e917f6e1643263402202422e79973cff792721cc3addb9f210e5093b9b2b9a6aacc8977bc7d356bbc3741",
          "0302b116dbd1f6cc738f744ba0aa241c50da6e16e2ef77bdc86aaaa04bbbb1b412"
        ],
        "sequence": 4294967294
      },
      {
        "txid": "3eae226fb971f731e94900e4ded5796aef1c09a2a3b74484ddf8e877b3839b28",
        "vout": 0,
        "scriptSig": {
          "asm": "0014f942008ae86298d9c13052afa7f3ddb5a3a412f6",
          "hex": "160014f942008ae86298d9c13052afa7f3ddb5a3a412f6"
        },
        "txinwitness": [
          "3044022055484f767121837adee0b0b4fda3991937319a19bbec3f1338a1b260502d15db0220722d39c593beac611896a267f12481eab53b6bb8fb42c98a9ffa098c945a787c41",
          "0302b116dbd1f6cc738f744ba0aa241c50da6e16e2ef77bdc86aaaa04bbbb1b412"
        ],
        "sequence": 4294967294
      }
    ],
    "vout": [
      {
        "value": 0.01309599,
        "n": 0,
        "scriptPubKey": {
          "asm": "OP_HASH160 e6756a6564e6bdb574da96ddac30adddcf2af269 OP_EQUAL",
          "hex": "a914e6756a6564e6bdb574da96ddac30adddcf2af26987",
          "reqSigs": 1,
          "type": "scripthash",
          "addresses": [
            "2NEFn4arcTqySvuUKThLiNBTGB8RPgagMV6"
          ]
        }
      },
      {
        "value": 1,
        "n": 1,
        "scriptPubKey": {
          "asm": "OP_HASH160 fe5cc5d87e3348a5f3eaa316898a0f05d520876e OP_EQUAL",
          "hex": "a914fe5cc5d87e3348a5f3eaa316898a0f05d520876e87",
          "reqSigs": 1,
          "type": "scripthash",
          "addresses": [
            "2NGSAkyhiWMZPcrfiwmcRWf9HQgpsiRGKv4"
          ]
        }
      }
    ],
    "hex": "02000000000104ca4575bc6e37b090fa4b995023c2920862d4ecc947ca025460e11c40218926250000000017160014f942008ae86298d9c13052afa7f3ddb5a3a412f6feffffffaaee78c8150a6c5e84d19d9ce0653bcc324ea9aa674798db4c3883761b71cf920000000017160014f942008ae86298d9c13052afa7f3ddb5a3a412f6feffffff4cef886c0280ebbbbc6d0ba0f264243900eb9054448901b8d0d7daffcfe703b70000000017160014f942008ae86298d9c13052afa7f3ddb5a3a412f6feffffff289b83b377e8f8dd8444b7a3a2091cef6a79d5dee40049e931f771b96f22ae3e0000000017160014f942008ae86298d9c13052afa7f3ddb5a3a412f6feffffff029ffb13000000000017a914e6756a6564e6bdb574da96ddac30adddcf2af2698700e1f5050000000017a914fe5cc5d87e3348a5f3eaa316898a0f05d520876e870247304402202f3254a504e5f484f85cbb4912a3e1e08d6dcb8bd1ad7a264f33b68b608cdad30220397271c71e000ea0689dfb5d05d09edca17c1224e1d83da50a70ce89c4a43a6d41210302b116dbd1f6cc738f744ba0aa241c50da6e16e2ef77bdc86aaaa04bbbb1b412024730440220304d149f719d4498acc3fbbfacc419fb70a96bbcb18c54ac75244dd4c10e4e90022046ddd0bebd939c96c0c1567e965d2e8d6e905145f03e72beded84d3957d957f841210302b116dbd1f6cc738f744ba0aa241c50da6e16e2ef77bdc86aaaa04bbbb1b41202473044022037bc16ac3747267ec0a94001cad4730b40701cb8c2c558a44e917f6e1643263402202422e79973cff792721cc3addb9f210e5093b9b2b9a6aacc8977bc7d356bbc3741210302b116dbd1f6cc738f744ba0aa241c50da6e16e2ef77bdc86aaaa04bbbb1b41202473044022055484f767121837adee0b0b4fda3991937319a19bbec3f1338a1b260502d15db0220722d39c593beac611896a267f12481eab53b6bb8fb42c98a9ffa098c945a787c41210302b116dbd1f6cc738f744ba0aa241c50da6e16e2ef77bdc86aaaa04bbbb1b4129b070000"
  },
  "inputs": [
    {
      "txid": "25268921401ce1605402ca47c9ecd4620892c22350994bfa90b0376ebc7545ca",
      "hash": "aad56c58aaf86e3d62f13c73e564798d7ac27a14cc7e92df3b258fc41b8de1df",
      "version": 2,
      "size": 171,
      "vsize": 144,
      "weight": 576,
      "locktime": 0,
      "vin": [
        {
          "coinbase": "028b060101",
          "sequence": 4294967295
        }
      ],
      "vout": [
        {
          "value": 0.02441406,
          "n": 0,
          "scriptPubKey": {
            "asm": "OP_HASH160 3db240e7cf0b92857eb78d50cbe1004d31110128 OP_EQUAL",
            "hex": "a9143db240e7cf0b92857eb78d50cbe1004d3111012887",
            "reqSigs": 1,
            "type": "scripthash",
            "addresses": [
              "2MxsSkFwqEWCbdkv8S5zxRSG4fxmeCzpWPe"
            ]
          }
        },
        {
          "value": 0,
          "n": 1,
          "scriptPubKey": {
            "asm": "OP_RETURN aa21a9ede2f61c3f71d1defd3fa999dfa36953755c690689799962b48bebd836974e8cf9",
            "hex": "6a24aa21a9ede2f61c3f71d1defd3fa999dfa36953755c690689799962b48bebd836974e8cf9",
            "type": "nulldata"
          }
        }
      ],
      "hex": "020000000001010000000000000000000000000000000000000000000000000000000000000000ffffffff05028b060101ffffffff02be4025000000000017a9143db240e7cf0b92857eb78d50cbe1004d31110128870000000000000000266a24aa21a9ede2f61c3f71d1defd3fa999dfa36953755c690689799962b48bebd836974e8cf90120000000000000000000000000000000000000000000000000000000000000000000000000",
      "blockhash": "039cef504392db2ba7a9a46720f751c0da8416f17ec2e42f20d95788f06625f3",
      "confirmations": 327,
      "time": 1630068299,
      "blocktime": 1630068299
    },
    {
      "txid": "92cf711b7683384cdb984767aaa94e32cc3b65e09c9dd1845e6c0a15c878eeaa",
      "hash": "ae4c5e145e7a298ea068a4e0659e688f2b6c836f4419585829c535683e360ab5",
      "version": 2,
      "size": 171,
      "vsize": 144,
      "weight": 576,
      "locktime": 0,
      "vin": [
        {
          "coinbase": "025f070101",
          "sequence": 4294967295
        }
      ],
      "vout": [
        {
          "value": 0.01220703,
          "n": 0,
          "scriptPubKey": {
            "asm": "OP_HASH160 3db240e7cf0b92857eb78d50cbe1004d31110128 OP_EQUAL",
            "hex": "a9143db240e7cf0b92857eb78d50cbe1004d3111012887",
            "reqSigs": 1,
            "type": "scripthash",
            "addresses": [
              "2MxsSkFwqEWCbdkv8S5zxRSG4fxmeCzpWPe"
            ]
          }
        },
        {
          "value": 0,
          "n": 1,
          "scriptPubKey": {
            "asm": "OP_RETURN aa21a9ede2f61c3f71d1defd3fa999dfa36953755c690689799962b48bebd836974e8cf9",
            "hex": "6a24aa21a9ede2f61c3f71d1defd3fa999dfa36953755c690689799962b48bebd836974e8cf9",
            "type": "nulldata"
          }
        }
      ],
      "hex": "020000000001010000000000000000000000000000000000000000000000000000000000000000ffffffff05025f070101ffffffff025fa012000000000017a9143db240e7cf0b92857eb78d50cbe1004d31110128870000000000000000266a24aa21a9ede2f61c3f71d1defd3fa999dfa36953755c690689799962b48bebd836974e8cf90120000000000000000000000000000000000000000000000000000000000000000000000000",
      "blockhash": "62026929292be92ae7477950ccb6a3a9ad0700d21867022cc6c52551fb4baed3",
      "confirmations": 115,
      "time": 1630068335,
      "blocktime": 1630068335
    },
    {
      "txid": "b703e7cfffdad7d0b80189445490eb00392464f2a00b6dbcbbeb80026c88ef4c",
      "hash": "892430419919a9339c44330c3790cda74010b5270244f11899c984a4950ee57f",
      "version": 2,
      "size": 171,
      "vsize": 144,
      "weight": 576,
      "locktime": 0,
      "vin": [
        {
          "coinbase": "020c040101",
          "sequence": 4294967295
        }
      ],
      "vout": [
        {
          "value": 0.78125,
          "n": 0,
          "scriptPubKey": {
            "asm": "OP_HASH160 3db240e7cf0b92857eb78d50cbe1004d31110128 OP_EQUAL",
            "hex": "a9143db240e7cf0b92857eb78d50cbe1004d3111012887",
            "reqSigs": 1,
            "type": "scripthash",
            "addresses": [
              "2MxsSkFwqEWCbdkv8S5zxRSG4fxmeCzpWPe"
            ]
          }
        },
        {
          "value": 0,
          "n": 1,
          "scriptPubKey": {
            "asm": "OP_RETURN aa21a9ede2f61c3f71d1defd3fa999dfa36953755c690689799962b48bebd836974e8cf9",
            "hex": "6a24aa21a9ede2f61c3f71d1defd3fa999dfa36953755c690689799962b48bebd836974e8cf9",
            "type": "nulldata"
          }
        }
      ],
      "hex": "020000000001010000000000000000000000000000000000000000000000000000000000000000ffffffff05020c040101ffffffff02c817a8040000000017a9143db240e7cf0b92857eb78d50cbe1004d31110128870000000000000000266a24aa21a9ede2f61c3f71d1defd3fa999dfa36953755c690689799962b48bebd836974e8cf90120000000000000000000000000000000000000000000000000000000000000000000000000",
      "blockhash": "7559fb4aad6a8a0ea34e06ec7de2bf4b30e2982fa55a9a2827e136a796d870c7",
      "confirmations": 966,
      "time": 1630068193,
      "blocktime": 1630068193
    },
    {
      "txid": "3eae226fb971f731e94900e4ded5796aef1c09a2a3b74484ddf8e877b3839b28",
      "hash": "81f5d06bf2d506dcfd2221375cdd4a63dc303ea6943c4a79b0107541daae353d",
      "version": 2,
      "size": 171,
      "vsize": 144,
      "weight": 576,
      "locktime": 0,
      "vin": [
        {
          "coinbase": "0243050101",
          "sequence": 4294967295
        }
      ],
      "vout": [
        {
          "value": 0.1953125,
          "n": 0,
          "scriptPubKey": {
            "asm": "OP_HASH160 3db240e7cf0b92857eb78d50cbe1004d31110128 OP_EQUAL",
            "hex": "a9143db240e7cf0b92857eb78d50cbe1004d3111012887",
            "reqSigs": 1,
            "type": "scripthash",
            "addresses": [
              "2MxsSkFwqEWCbdkv8S5zxRSG4fxmeCzpWPe"
            ]
          }
        },
        {
          "value": 0,
          "n": 1,
          "scriptPubKey": {
            "asm": "OP_RETURN aa21a9ede2f61c3f71d1defd3fa999dfa36953755c690689799962b48bebd836974e8cf9",
            "hex": "6a24aa21a9ede2f61c3f71d1defd3fa999dfa36953755c690689799962b48bebd836974e8cf9",
            "type": "nulldata"
          }
        }
      ],
      "hex": "020000000001010000000000000000000000000000000000000000000000000000000000000000ffffffff050243050101ffffffff02f2052a010000000017a9143db240e7cf0b92857eb78d50cbe1004d31110128870000000000000000266a24aa21a9ede2f61c3f71d1defd3fa999dfa36953755c690689799962b48bebd836974e8cf90120000000000000000000000000000000000000000000000000000000000000000000000000",
      "blockhash": "2f0d276f99233e54b9b1f8d34b3981d1bebd7d1229185434731f7368a5536804",
      "confirmations": 655,
      "time": 1630068245,
      "blocktime": 1630068245
    }
  ]
}