{
  "transaction": {
    "txid": "ee1829d366aa623db40883696d8a160fc6ee01e53db6715988c98da4c4b09aa0",
    "hash": "b6ff6981e893d2305937660572370be7f4ad6bfed1cf102c76ecfac0e1224e27",
    "version": 2,
    "size": 760,
    "vsize": 438,
    "weight": 1750,
    "locktime": 2001,
    "vin": [
      {
        "txid": "2b2829a6e2b15088350854b18be892b40127d6d4aa2556c9cf4698fa3de0813e",
        "vout": 0,
        "scriptSig": {
          "asm": "0014af8f39453d39484eb324378fdf67488741c25b6f",
          "hex": "160014af8f39453d39484eb324378fdf67488741c25b6f"
        },
        "txinwitness": [
          "304402207b14744fad662bf8fa911a0cc0436c5907b8937df04ca0a751afa01fcd0deda90220702ea171ed4aa1e3cb5dc79be4c3916dab8aaf26a0f3cf388e3f80b0b99da3b641",
          "03934e6567f283e5c74875300761dfc2884df23bae2771cffcc1dda9805c0c7e8e"
        ],
        "sequence": 4294967294
      },
      {
        "txid": "5d53716ed2a20d42291c531a7fb33e95bbe40a5c322dcb1d84059bffd758daad",
        "vout": 0,
        "scriptSig": {
          "asm": "0014af8f39453d39484eb324378fdf67488741c25b6f",
          "hex": "160014af8f39453d39484eb324378fdf67488741c25b6f"
        },
        "txinwitness": [
          "304402202033524141ea4bae3eac1ff2c421c2f1116388ab25b4edb7a9f4d435cfc077c7022015c0cc40069ad7c327a94dc997bf798b3b683cfcc955ff1da99de6054c4c915941",
          "03934e6567f283e5c74875300761dfc2884df23bae2771cffcc1dda9805c0c7e8e"
        ],
        "sequence": 4294967294
      },
      {
        "txid": "03e9d52047f9ba9fd3261ee0c0668fe2a868c9bc832d44802c13508ef1fb65aa",
        "vout": 0,
        "scriptSig": {
          "asm": "0014af8f39453d39484eb324378fdf67488741c25b6f",
          "hex": "160014af8f39453d39484eb324378fdf67488741c25b6f"
        },
        "txinwitness": [
          "304402207e025b8cb76102ad8b4e0b68f87ca30d3b5244711bee508eea51da0c6c28978102206aff6f7e6d050bf5a66a7084d14080830e8279f3d3f033ae0ac46627f980e32b41",
          "03934e6567f283e5c74875300761dfc2884df23bae2771cffcc1dda9805c0c7e8e"
        ],
        "sequence": 4294967294
      },
      {
        "txid": "8f70d09312403302182f8d0e34e1a7473fdf3d55f07aa5a6680ee2d0411e10bd",
        "vout": 0,
        "scriptSig": {
          "asm": "0014af8f39453d39484eb324378fdf67488741c25b6f",
          "hex": "160014af8f39453d39484eb324378fdf67488741c25b6f"
        },
        "txinwitness": [
          "304402201d557f241c1164a94a1c6bdae3717be913d8048c0988138d847f6b6482ccbfb0022068f8ab6d44b5fb6a51a282c75365d47930c07391661cf52e8f99763bae6e8b0e41",
          "03934e6567f283e5c74875300761dfc2884df23bae2771cffcc1dda9805c0c7e8e"
        ],
        "sequence": 4294967294
      }
    ],
    "vout": [
      {
        "value": 0.01309599,
        "n": 0,
        "scriptPubKey": {
          "asm": "OP_HASH160 7590f6812f61e8f4b6d918797b600447f9696af7 OP_EQUAL",
          "hex": "a9147590f6812f61e8f4b6d918797b600447f9696af787",
          "reqSigs": 1,
          "type": "scripthash",
          "addresses": [
            "2N3xrhvkeoxacwbbn7q83g4ZwDYCtuUHb9r"
          ]
        }
      },
      {
        "value": 1,
        "n": 1,
        "scriptPubKey": {
          "asm": "OP_HASH160 fe5cc5d87e3348a5f3eaa316898a0f05d520876e OP_EQUAL",
          "hex": "a914fe5cc5d87e3348a5f3eaa316898a0f05d520876e87",
          "reqSigs": 1,
          "type": "scripthash",
          "addresses": [
            "2NGSAkyhiWMZPcrfiwmcRWf9HQgpsiRGKv4"
          ]
        }
      }
    ],
    "hex": "020000000001043e81e03dfa9846cfc95625aad4d62701b492e88bb15408358850b1e2a629282b0000000017160014af8f39453d39484eb324378fdf67488741c25b6ffeffffffadda58d7ff9b05841dcb2d325c0ae4bb953eb37f1a531c29420da2d26e71535d0000000017160014af8f39453d39484eb324378fdf67488741c25b6ffeffffffaa65fbf18e50132c80442d83bcc968a8e28f66c0e01e26d39fbaf94720d5e9030000000017160014af8f39453d39484eb324378fdf67488741c25b6ffeffffffbd101e41d0e20e68a6a57af0553ddf3f47a7e1340e8d2f180233401293d0708f0000000017160014af8f39453d39484eb324378fdf67488741c25b6ffeffffff029ffb13000000000017a9147590f6812f61e8f4b6d918797b600447f9696af78700e1f5050000000017a914fe5cc5d87e3348a5f3eaa316898a0f05d520876e870247304402207b14744fad662bf8fa911a0cc0436c5907b8937df04ca0a751afa01fcd0deda90220702ea171ed4aa1e3cb5dc79be4c3916dab8aaf26a0f3cf388e3f80b0b99da3b6412103934e6567f283e5c74875300761dfc2884df23bae2771cffcc1dda9805c0c7e8e0247304402202033524141ea4bae3eac1ff2c421c2f1116388ab25b4edb7a9f4d435cfc077c7022015c0cc40069ad7c327a94dc997bf798b3b683cfcc955ff1da99de6054c4c9159412103934e6567f283e5c74875300761dfc2884df23bae2771cffcc1dda9805c0c7e8e0247304402207e025b8cb76102ad8b4e0b68f87ca30d3b5244711bee508eea51da0c6c28978102206aff6f7e6d050bf5a66a7084d14080830e8279f3d3f033ae0ac46627f980e32b412103934e6567f283e5c74875300761dfc2884df23bae2771cffcc1dda9805c0c7e8e0247304402201d557f241c1164a94a1c6bdae3717be913d8048c0988138d847f6b6482ccbfb0022068f8ab6d44b5fb6a51a282c75365d47930c07391661cf52e8f99763bae6e8b0e412103934e6567f283e5c74875300761dfc2884df23bae2771cffcc1dda9805c0c7e8ed1070000"
  },
  "inputs": [
    {
      "txid": "2b2829a6e2b15088350854b18be892b40127d6d4aa2556c9cf4698fa3de0813e",
      "hash": "6d38d6361762e9267e37718b08d46d0813492ddf275ac54e2559b2add82acc3f",
      "version": 2,
      "size": 171,
      "vsize": 144,
      "weight": 576,
      "locktime": 0,
      "vin": [
        {
          "coinbase": "023d070101",
          "sequence": 4294967295
        }
      ],
      "vout": [
        {
          "value": 0.01220703,
          "n": 0,
          "scriptPubKey": {
            "asm": "OP_HASH160 246681535a0e57c5b5a7eddffaed5774c42dccad OP_EQUAL",
            "hex": "a914246681535a0e57c5b5a7eddffaed5774c42dccad87",
            "reqSigs": 1,
            "type": "scripthash",
            "addresses": [
              "2MvZh7Ng1a5U7EZX86TBeqi6aUEnfBRzfas"
            ]
          }
        },
        {
          "value": 0,
          "n": 1,
          "scriptPubKey": {
            "asm": "OP_RETURN aa21a9ede2f61c3f71d1defd3fa999dfa36953755c690689799962b48bebd836974e8cf9",
            "hex": "6a24aa21a9ede2f61c3f71d1defd3fa999dfa36953755c690689799962b48bebd836974e8cf9",
            "type": "nulldata"
          }
        }
      ],
      "hex": "020000000001010000000000000000000000000000000000000000000000000000000000000000ffffffff05023d070101ffffffff025fa012000000000017a914246681535a0e57c5b5a7eddffaed5774c42dccad870000000000000000266a24aa21a9ede2f61c3f71d1defd3fa999dfa36953755c690689799962b48bebd836974e8cf90120000000000000000000000000000000000000000000000000000000000000000000000000",
      "blockhash": "14baff602bb0c9a6595fe43bf9b966e3c5d56bd01ffb66ffb2cde456865740d1",
      "confirmations": 149,
      "time": 1628862741,
      "blocktime": 1628862741
    },
    {
      "txid": "5d53716ed2a20d42291c531a7fb33e95bbe40a5c322dcb1d84059bffd758daad",
      "hash": "6cdb7245e3a041d92b4158f171418c3fbaf86696a8bf88f318bfc37cab8f6a11",
      "version": 2,
      "size": 171,
      "vsize": 144,
      "weight": 576,
      "locktime": 0,
      "vin": [
        {
          "coinbase": "02e8060101",
          "sequence": 4294967295
        }
      ],
      "vout": [
        {
          "value": 0.02441406,
          "n": 0,
          "scriptPubKey": {
            "asm": "OP_HASH160 246681535a0e57c5b5a7eddffaed5774c42dccad OP_EQUAL",
            "hex": "a914246681535a0e57c5b5a7eddffaed5774c42dccad87",
            "reqSigs": 1,
            "type": "scripthash",
            "addresses": [
              "2MvZh7Ng1a5U7EZX86TBeqi6aUEnfBRzfas"
            ]
          }
        },
        {
          "value": 0,
          "n": 1,
          "scriptPubKey": {
            "asm": "OP_RETURN aa21a9ede2f61c3f71d1defd3fa999dfa36953755c690689799962b48bebd836974e8cf9",
            "hex": "6a24aa21a9ede2f61c3f71d1defd3fa999dfa36953755c690689799962b48bebd836974e8cf9",
            "type": "nulldata"
          }
        }
      ],
      "hex": "020000000001010000000000000000000000000000000000000000000000000000000000000000ffffffff0502e8060101ffffffff02be4025000000000017a914246681535a0e57c5b5a7eddffaed5774c42dccad870000000000000000266a24aa21a9ede2f61c3f71d1defd3fa999dfa36953755c690689799962b48bebd836974e8cf90120000000000000000000000000000000000000000000000000000000000000000000000000",
      "blockhash": "1f748cca8f80ff9b272106a49174bb09c8509357fc084c7cb5a94a7c675bde4f",
      "confirmations": 234,
      "time": 1628862727,
      "blocktime": 1628862727
    },
    {
      "txid": "03e9d52047f9ba9fd3261ee0c0668fe2a868c9bc832d44802c13508ef1fb65aa",
      "hash": "f0e9a046b461eeb6bcfb5922fbee405fe0c2bb34592a4b4047ff1ac257e4545a",
      "version": 2,
      "size": 171,
      "vsize": 144,
      "weight": 576,
      "locktime": 0,
      "vin": [
        {
          "coinbase": "02eb030101",
          "sequence": 4294967295
        }
      ],
      "vout": [
        {
          "value": 0.78125,
          "n": 0,
          "scriptPubKey": {
            "asm": "OP_HASH160 246681535a0e57c5b5a7eddffaed5774c42dccad OP_EQUAL",
            "hex": "a914246681535a0e57c5b5a7eddffaed5774c42dccad87",
            "reqSigs": 1,
            "type": "scripthash",
            "addresses": [
              "2MvZh7Ng1a5U7EZX86TBeqi6aUEnfBRzfas"
            ]
          }
        },
        {
          "value": 0,
          "n": 1,
          "scriptPubKey": {
            "asm": "OP_RETURN aa21a9ede2f61c3f71d1defd3fa999dfa36953755c690689799962b48bebd836974e8cf9",
            "hex": "6a24aa21a9ede2f61c3f71d1defd3fa999dfa36953755c690689799962b48bebd836974e8cf9",
            "type": "nulldata"
          }
        }
      ],
      "hex": "020000000001010000000000000000000000000000000000000000000000000000000000000000ffffffff0502eb030101ffffffff02c817a8040000000017a914246681535a0e57c5b5a7eddffaed5774c42dccad870000000000000000266a24aa21a9ede2f61c3f71d1defd3fa999dfa36953755c690689799962b48bebd836974e8cf90120000000000000000000000000000000000000000000000000000000000000000000000000",
      "blockhash": "369eb1700c3f9b58e4379c8e81976c9dcf232ed8b02a0c8326a86fdcb03e5032",
      "confirmations": 999,
      "time": 1628862599,
      "blocktime": 1628862599
    },
    {
      "txid": "8f70d09312403302182f8d0e34e1a7473fdf3d55f07aa5a6680ee2d0411e10bd",
      "hash": "2b9e2c233419543441efa878b6780a44b8554be2d4d34ec20691f03e38f5edba",
      "version": 2,
      "size": 171,
      "vsize": 144,
      "weight": 576,
      "locktime": 0,
      "vin": [
        {
          "coinbase": "0214050101",
          "sequence": 4294967295
        }
      ],
      "vout": [
        {
          "value": 0.1953125,
          "n": 0,
          "scriptPubKey": {
            "asm": "OP_HASH160 246681535a0e57c5b5a7eddffaed5774c42dccad OP_EQUAL",
            "hex": "a914246681535a0e57c5b5a7eddffaed5774c42dccad87",
            "reqSigs": 1,
            "type": "scripthash",
            "addresses": [
              "2MvZh7Ng1a5U7EZX86TBeqi6aUEnfBRzfas"
            ]
          }
        },
        {
          "value": 0,
          "n": 1,
          "scriptPubKey": {
            "asm": "OP_RETURN aa21a9ede2f61c3f71d1defd3fa999dfa36953755c690689799962b48bebd836974e8cf9",
            "hex": "6a24aa21a9ede2f61c3f71d1defd3fa999dfa36953755c690689799962b48bebd836974e8cf9",
            "type": "nulldata"
          }
        }
      ],
      "hex": "020000000001010000000000000000000000000000000000000000000000000000000000000000ffffffff050214050101ffffffff02f2052a010000000017a914246681535a0e57c5b5a7eddffaed5774c42dccad870000000000000000266a24aa21a9ede2f61c3f71d1defd3fa999dfa36953755c690689799962b48bebd836974e8cf90120000000000000000000000000000000000000000000000000000000000000000000000000",
      "blockhash": "18d7efdc53064d20aa9a0bd00549b588860e1d35075edab978ec6835965a8686",
      "confirmations": 702,
      "time": 1628862649,
      "blocktime": 1628862649
    }
  ]
}