{
  "transaction": {
    "txid": "f52a90202fa1f5b7dfe8cecfc50d7355412e872c9a02043be45106bbac1a2f39",
    "hash": "957da67a1416b9bf6ace85b01866a7ebe6e9f29dba245af2834415f4a1a52ca9",
    "version": 2,
    "size": 247,
    "vsize": 166,
    "weight": 661,
    "locktime": 300,
    "vin": [
      {
        "txid": "04dd387aaa69653f49d1ce51fdd09e6fbb4d25ded517e02a2a3a5a5c412c17b5",
        "vout": 0,
        "scriptSig": {
          "asm": "001435d679a7f7e4e740129e8fd25db6e1fe35d3f382",
          "hex": "16001435d679a7f7e4e740129e8fd25db6e1fe35d3f382"
        },
        "txinwitness": [
          "304402207305fef62187c4e2da71b92e2501e51d636c817ff105c22afacd7135be59da1202206894ed695cc8af44bd0db9faec0d8986c4fd25639dcb4dce8d2b3aac70bec31f01",
          "03363b03335f5d57d0838e1f1d3280d4d7bb60f5640c2c3652db06ef986f9bf627"
        ],
        "sequence": 4294967294
      }
    ],
    "vout": [
      {
        "value": 23.9999668,
        "n": 0,
        "scriptPubKey": {
          "asm": "OP_HASH160 079ed29a8c1bb1536582d8f1e49fba7d669b5388 OP_EQUAL",
          "hex": "a914079ed29a8c1bb1536582d8f1e49fba7d669b538887",
          "reqSigs": 1,
          "type": "scripthash",
          "addresses": [
            "2MswWypUfeUHX71PtcyHANtRWan7mFiKQKW"
          ]
        }
      },
      {
        "value": 1,
        "n": 1,
        "scriptPubKey": {
          "asm": "OP_HASH160 2280193aca8462021ec369d4e2ff1c95741fba7f OP_EQUAL",
          "hex": "a9142280193aca8462021ec369d4e2ff1c95741fba7f87",
          "reqSigs": 1,
          "type": "scripthash",
          "addresses": [
            "2MvPeRFSGYJq9BXoV2fxrMpJjsZMGx2m6Zk"
          ]
        }
      }
    ],
    "hex": "02000000000101b5172c415c5a3a2a2ae017d5de254dbb6f9ed0fd51ced1493f6569aa7a38dd04000000001716001435d679a7f7e4e740129e8fd25db6e1fe35d3f382feffffff02080b0d8f0000000017a914079ed29a8c1bb1536582d8f1e49fba7d669b53888700e1f5050000000017a9142280193aca8462021ec369d4e2ff1c95741fba7f870247304402207305fef62187c4e2da71b92e2501e51d636c817ff105c22afacd7135be59da1202206894ed695cc8af44bd0db9faec0d8986c4fd25639dcb4dce8d2b3aac70bec31f012103363b03335f5d57d0838e1f1d3280d4d7bb60f5640c2c3652db06ef986f9bf6272c010000"
  },
  "inputs": [
    {
      "txid": "04dd387aaa69653f49d1ce51fdd09e6fbb4d25ded517e02a2a3a5a5c412c17b5",
      "hash": "d7bac83f0afe52edf41a90080c0ccd6d69ed4ae3e49e784c51f10d042aad458f",
      "version": 2,
      "size": 171,
      "vsize": 144,
      "weight": 576,
      "locktime": 0,
      "vin": [
        {
          "coinbase": "02a5000101",
          "sequence": 4294967295
        }
      ],
      "vout": [
        {
          "value": 25,
          "n": 0,
          "scriptPubKey": {
            "asm": "OP_HASH160 af341f65820fa0ab7245ac0fbc7d61010fd2b485 OP_EQUAL",
            "hex": "a914af341f65820fa0ab7245ac0fbc7d61010fd2b48587",
            "reqSigs": 1,
            "type": "scripthash",
            "addresses": [
              "2N9DcgQ6Qj2QTAf1xnyZodYEhMpS6u13BNH"
            ]
          }
        },
        {
          "value": 0,
          "n": 1,
          "scriptPubKey": {
            "asm": "OP_RETURN aa21a9ede2f61c3f71d1defd3fa999dfa36953755c690689799962b48bebd836974e8cf9",
            "hex": "6a24aa21a9ede2f61c3f71d1defd3fa999dfa36953755c690689799962b48bebd836974e8cf9",
            "type": "nulldata"
          }
        }
      ],
      "hex": "020000000001010000000000000000000000000000000000000000000000000000000000000000ffffffff0502a5000101ffffffff0200f902950000000017a914af341f65820fa0ab7245ac0fbc7d61010fd2b485870000000000000000266a24aa21a9ede2f61c3f71d1defd3fa999dfa36953755c690689799962b48bebd836974e8cf90120000000000000000000000000000000000000000000000000000000000000000000000000",
      "blockhash": "6077c1c5040b8a1a76ddd83d82eeac6fe91279df1cc945e4fb2fee02dbccdc3d",
      "confirmations": 136,
      "time": 1628762039,
      "blocktime": 1628762039
    }
  ]
}