{
  "transaction": {
    "txid": "d62ea152a2cdc3ee2057590e3824637cef64eb3a51c4b21a74201faaac3a7d45",
    "hash": "1efb3e42fc768446262f0c90190fcc5cb2183731ec7cf42a841c82bac63ad1db",
    "version": 2,
    "size": 762,
    "vsize": 440,
    "weight": 1758,
    "locktime": 2001,
    "vin": [
      {
        "txid": "fee43f63c979f9993c55d1468427475f7bbf922107e7346d7a8cd0bbdbc90390",
        "vout": 0,
        "scriptSig": {
          "asm": "0014fb165e7875936b0b3d920676801a6b524b7f559d",
          "hex": "160014fb165e7875936b0b3d920676801a6b524b7f559d"
        },
        "txinwitness": [
          "304402203fe8100781bc250f05e5eba413e9dca19cc13a2c623883b9ad6832446fd81f070220754e5c3d79e255b8a0ecfa74ece6ad68501f16c62333aa5b50970886375365a741",
          "02fd6690992e8db4210c6c69f0c781622d26f3178d8533dfa33dd30ce199efeb6d"
        ],
        "sequence": 4294967294
      },
      {
        "txid": "1352e12b47f282c4436057db7fa3c922732bbb0485bb4a0d836bc988dce818c8",
        "vout": 0,
        "scriptSig": {
          "asm": "0014fb165e7875936b0b3d920676801a6b524b7f559d",
          "hex": "160014fb165e7875936b0b3d920676801a6b524b7f559d"
        },
        "txinwitness": [
          "3044022008c65043638541720571bb503b6c72ea27dbe4bb01ff4522d4f13eaeeaa46e1402201a32f076cbac7ae5eebcce2fbc3ae8dc4ee090dd9f533814d7ebbedfa77792fc41",
          "02fd6690992e8db4210c6c69f0c781622d26f3178d8533dfa33dd30ce199efeb6d"
        ],
        "sequence": 4294967294
      },
      {
        "txid": "da611d17ebb4e7ba4b5aa65cad4e2b9f259ce55f67e476a79557f11d446562b6",
        "vout": 0,
        "scriptSig": {
          "asm": "0014fb165e7875936b0b3d920676801a6b524b7f559d",
          "hex": "160014fb165e7875936b0b3d920676801a6b524b7f559d"
        },
        "txinwitness": [
          "304402207322f48ff5270894fa1c70ccffec8c8c2ed85a14c7cf42a810e61a6e5c89573b02206c38628d693de5d82cfeabf0b6450a4c75842839b7768a81ac38de8e62da163241",
          "02fd6690992e8db4210c6c69f0c781622d26f3178d8533dfa33dd30ce199efeb6d"
        ],
        "sequence": 4294967294
      },
      {
        "txid": "0c4d4d2e8c3a147033c7f60d895210d68d70186820847cb6745281ec56aa76cc",
        "vout": 0,
        "scriptSig": {
          "asm": "0014fb165e7875936b0b3d920676801a6b524b7f559d",
          "hex": "160014fb165e7875936b0b3d920676801a6b524b7f559d"
        },
        "txinwitness": [
          "304402207e070f56e97b25073e38a0af2181ae25145102ac3b61fa45b1a2af33719b8d88022026cefa79aa418d7c12241f21cd4dfc9c22af96a1daaf7e8bbc96de903fd1f37941",
          "02fd6690992e8db4210c6c69f0c781622d26f3178d8533dfa33dd30ce199efeb6d"
        ],
        "sequence": 4294967294
      }
    ],
    "vout": [
      {
        "value": 1,
        "n": 0,
        "scriptPubKey": {
          "asm": "OP_DUP OP_HASH160 d2eb140d8b7006e7b862827043f9cddd50da9811 OP_EQUALVERIFY OP_CHECKSIG",
          "hex": "76a914d2eb140d8b7006e7b862827043f9cddd50da981188ac",
          "reqSigs": 1,
          "type": "pubkeyhash",
          "addresses": [
            "mzkBosFeajZ5KxXp4rPNA8maqoKUFiR7nY"
          ]
        }
      },
      {
        "value": 0.01309559,
        "n": 1,
        "scriptPubKey": {
          "asm": "OP_HASH160 5bb9ac4255ebc43919a70f0d35f310f6d7c2468a OP_EQUAL",
          "hex": "a9145bb9ac4255ebc43919a70f0d35f310f6d7c2468a87",
          "reqSigs": 1,
          "type": "scripthash",
          "addresses": [
            "2N1cDuX3o9SAhi5SNRLv2kRzVvW5sivtx2N"
          ]
        }
      }
    ],
    "hex": "020000000001049003c9dbbbd08c7a6d34e7072192bf7b5f47278446d1553c99f979c9633fe4fe0000000017160014fb165e7875936b0b3d920676801a6b524b7f559dfeffffffc818e8dc88c96b830d4abb8504bb2b7322c9a37fdb576043c482f2472be152130000000017160014fb165e7875936b0b3d920676801a6b524b7f559dfeffffffb66265441df15795a776e4675fe59c259f2b4ead5ca65a4bbae7b4eb171d61da0000000017160014fb165e7875936b0b3d920676801a6b524b7f559dfeffffffcc76aa56ec815274b67c84206818708dd61052890df6c73370143a8c2e4d4d0c0000000017160014fb165e7875936b0b3d920676801a6b524b7f559dfeffffff0200e1f505000000001976a914d2eb140d8b7006e7b862827043f9cddd50da981188ac77fb13000000000017a9145bb9ac4255ebc43919a70f0d35f310f6d7c2468a870247304402203fe8100781bc250f05e5eba413e9dca19cc13a2c623883b9ad6832446fd81f070220754e5c3d79e255b8a0ecfa74ece6ad68501f16c62333aa5b50970886375365a7412102fd6690992e8db4210c6c69f0c781622d26f3178d8533dfa33dd30ce199efeb6d02473044022008c65043638541720571bb503b6c72ea27dbe4bb01ff4522d4f13eaeeaa46e1402201a32f076cbac7ae5eebcce2fbc3ae8dc4ee090dd9f533814d7ebbedfa77792fc412102fd6690992e8db4210c6c69f0c781622d26f3178d8533dfa33dd30ce199efeb6d0247304402207322f48ff5270894fa1c70ccffec8c8c2ed85a14c7cf42a810e61a6e5c89573b02206c38628d693de5d82cfeabf0b6450a4c75842839b7768a81ac38de8e62da1632412102fd6690992e8db4210c6c69f0c781622d26f3178d8533dfa33dd30ce199efeb6d0247304402207e070f56e97b25073e38a0af2181ae25145102ac3b61fa45b1a2af33719b8d88022026cefa79aa418d7c12241f21cd4dfc9c22af96a1daaf7e8bbc96de903fd1f379412102fd6690992e8db4210c6c69f0c781622d26f3178d8533dfa33dd30ce199efeb6dd1070000"
  },
  "inputs": [
    {
      "txid": "fee43f63c979f9993c55d1468427475f7bbf922107e7346d7a8cd0bbdbc90390",
      "hash": "1b0888f83671703c3eb1814eef3473abd69b24dd2823ad8c5cfb48440c056707",
      "version": 2,
      "size": 171,
      "vsize": 144,
      "weight": 576,
      "locktime": 0,
      "vin": [
        {
          "coinbase": "02d5030101",
          "sequence": 4294967295
        }
      ],
      "vout": [
        {
          "value": 0.78125,
          "n": 0,
          "scriptPubKey": {
            "asm": "OP_HASH160 137d76c5c1138d03f647cd256de72b1ab438b8eb OP_EQUAL",
            "hex": "a914137d76c5c1138d03f647cd256de72b1ab438b8eb87",
            "reqSigs": 1,
            "type": "scripthash",
            "addresses": [
              "2Mu2H8KM9FA3apaXkDcVHZsKTUcnKUPwsL4"
            ]
          }
        },
        {
          "value": 0,
          "n": 1,
          "scriptPubKey": {
            "asm": "OP_RETURN aa21a9ede2f61c3f71d1defd3fa999dfa36953755c690689799962b48bebd836974e8cf9",
            "hex": "6a24aa21a9ede2f61c3f71d1defd3fa999dfa36953755c690689799962b48bebd836974e8cf9",
            "type": "nulldata"
          }
        }
      ],
      "hex": "020000000001010000000000000000000000000000000000000000000000000000000000000000ffffffff0502d5030101ffffffff02c817a8040000000017a914137d76c5c1138d03f647cd256de72b1ab438b8eb870000000000000000266a24aa21a9ede2f61c3f71d1defd3fa999dfa36953755c690689799962b48bebd836974e8cf90120000000000000000000000000000000000000000000000000000000000000000000000000",
      "blockhash": "1d9f32fb4caf77f8359baf698fc974cbd9afcaf10df5b459e52e945cd8a9f2f8",
      "confirmations": 1021,
      "time": 1635930704,
      "blocktime": 1635930704
    },
    {
      "txid": "1352e12b47f282c4436057db7fa3c922732bbb0485bb4a0d836bc988dce818c8",
      "hash": "38662e17b8a629981e9244c4468b6c0f50bfa063b26a2b09790739528f70d00c",
      "version": 2,
      "size": 171,
      "vsize": 144,
      "weight": 576,
      "locktime": 0,
      "vin": [
        {
          "coinbase": "0242070101",
          "sequence": 4294967295
        }
      ],
      "vout": [
        {
          "value": 0.01220703,
          "n": 0,
          "scriptPubKey": {
            "asm": "OP_HASH160 137d76c5c1138d03f647cd256de72b1ab438b8eb OP_EQUAL",
            "hex": "a914137d76c5c1138d03f647cd256de72b1ab438b8eb87",
            "reqSigs": 1,
            "type": "scripthash",
            "addresses": [
              "2Mu2H8KM9FA3apaXkDcVHZsKTUcnKUPwsL4"
            ]
          }
        },
        {
          "value": 0,
          "n": 1,
          "scriptPubKey": {
            "asm": "OP_RETURN aa21a9ede2f61c3f71d1defd3fa999dfa36953755c690689799962b48bebd836974e8cf9",
            "hex": "6a24aa21a9ede2f61c3f71d1defd3fa999dfa36953755c690689799962b48bebd836974e8cf9",
            "type": "nulldata"
          }
        }
      ],
      "hex": "020000000001010000000000000000000000000000000000000000000000000000000000000000ffffffff050242070101ffffffff025fa012000000000017a914137d76c5c1138d03f647cd256de72b1ab438b8eb870000000000000000266a24aa21a9ede2f61c3f71d1defd3fa999dfa36953755c690689799962b48bebd836974e8cf90120000000000000000000000000000000000000000000000000000000000000000000000000",
      "blockhash": "752294524c25ab0ee83c0e9fd7ab3ab388a31fd489191a8a1b4a647c13a4bce5",
      "confirmations": 144,
      "time": 1635930850,
      "blocktime": 1635930850
    },
    {
      "txid": "da611d17ebb4e7ba4b5aa65cad4e2b9f259ce55f67e476a79557f11d446562b6",
      "hash": "e9e6eeb7ce71598ce09aa509003143b9df974d90627b3cb084af33c9d664476c",
      "version": 2,
      "size": 171,
      "vsize": 144,
      "weight": 576,
      "locktime": 0,
      "vin": [
        {
          "coinbase": "02d1060101",
          "sequence": 4294967295
        }
      ],
      "vout": [
        {
          "value": 0.02441406,
          "n": 0,
          "scriptPubKey": {
            "asm": "OP_HASH160 137d76c5c1138d03f647cd256de72b1ab438b8eb OP_EQUAL",
            "hex": "a914137d76c5c1138d03f647cd256de72b1ab438b8eb87",
            "reqSigs": 1,
            "type": "scripthash",
            "addresses": [
              "2Mu2H8KM9FA3apaXkDcVHZsKTUcnKUPwsL4"
            ]
          }
        },
        {
          "value": 0,
          "n": 1,
          "scriptPubKey": {
            "asm": "OP_RETURN aa21a9ede2f61c3f71d1defd3fa999dfa36953755c690689799962b48bebd836974e8cf9",
            "hex": "6a24aa21a9ede2f61c3f71d1defd3fa999dfa36953755c690689799962b48bebd836974e8cf9",
            "type": "nulldata"
          }
        }
      ],
      "hex": "020000000001010000000000000000000000000000000000000000000000000000000000000000ffffffff0502d1060101ffffffff02be4025000000000017a914137d76c5c1138d03f647cd256de72b1ab438b8eb870000000000000000266a24aa21a9ede2f61c3f71d1defd3fa999dfa36953755c690689799962b48bebd836974e8cf90120000000000000000000000000000000000000000000000000000000000000000000000000",
      "blockhash": "23d2601bfd10eef61314b5c998f519b303c70596374c5e20ed1366f57e4ad0d8",
      "confirmations": 257,
      "time": 1635930831,
      "blocktime": 1635930831
    },
    {
      "txid": "0c4d4d2e8c3a147033c7f60d895210d68d70186820847cb6745281ec56aa76cc",
      "hash": "12fdbfc17db5cc02d463c752c3f9490c3023087ec7758db5caf4be8a79a5d926",
      "version": 2,
      "size": 171,
      "vsize": 144,
      "weight": 576,
      "locktime": 0,
      "vin": [
        {
          "coinbase": "02ed040101",
          "sequence": 4294967295
        }
      ],
      "vout": [
        {
          "value": 0.1953125,
          "n": 0,
          "scriptPubKey": {
            "asm": "OP_HASH160 137d76c5c1138d03f647cd256de72b1ab438b8eb OP_EQUAL",
            "hex": "a914137d76c5c1138d03f647cd256de72b1ab438b8eb87",
            "reqSigs": 1,
            "type": "scripthash",
            "addresses": [
              "2Mu2H8KM9FA3apaXkDcVHZsKTUcnKUPwsL4"
            ]
          }
        },
        {
          "value": 0,
          "n": 1,
          "scriptPubKey": {
            "asm": "OP_RETURN aa21a9ede2f61c3f71d1defd3fa999dfa36953755c690689799962b48bebd836974e8cf9",
            "hex": "6a24aa21a9ede2f61c3f71d1defd3fa999dfa36953755c690689799962b48bebd836974e8cf9",
            "type": "nulldata"
          }
        }
      ],
      "hex": "020000000001010000000000000000000000000000000000000000000000000000000000000000ffffffff0502ed040101ffffffff02f2052a010000000017a914137d76c5c1138d03f647cd256de72b1ab438b8eb870000000000000000266a24aa21a9ede2f61c3f71d1defd3fa999dfa36953755c690689799962b48bebd836974e8cf90120000000000000000000000000000000000000000000000000000000000000000000000000",
      "blockhash": "4e456241642d0d22a36d3b9452fe04a03f30ad36f3fd1fe1d0b1cdfef1e864a3",
      "confirmations": 741,
      "time": 1635930750,
      "blocktime": 1635930750
    }
  ]
}