{
  "transaction": {
    "txid": "df35fc49489427735fa6368ec52bcbd99e4fbdb4502e2ee81889794bb493f6f8",
    "hash": "87f93b1280b24603b003c00d4bb8579cefd631c1ee98d2530aaa9dc5970950c8",
    "version": 2,
    "size": 758,
    "vsize": 436,
    "weight": 1742,
    "locktime": 2001,
    "vin": [
      {
        "txid": "f86bdf26dc7288a738dffa526c916903c78e7a7c33a8602f10bdb0f01a8bf6c1",
        "vout": 0,
        "scriptSig": {
          "asm": "0014af8f39453d39484eb324378fdf67488741c25b6f",
          "hex": "160014af8f39453d39484eb324378fdf67488741c25b6f"
        },
        "txinwitness": [
          "3044022069b67c749330eac7565139a6cef0aca976d0a2d7d7d2af9738dda70ccaa1c4020220244124ca64a267143487d506ce671dd81ac1028ea471a11eaf26c7a9b8964c5341",
          "03934e6567f283e5c74875300761dfc2884df23bae2771cffcc1dda9805c0c7e8e"
        ],
        "sequence": 4294967294
      },
      {
        "txid": "f47761c3712eb876704eb92a250d1b0441aee9546e2b695263a2df931e18db09",
        "vout": 0,
        "scriptSig": {
          "asm": "0014af8f39453d39484eb324378fdf67488741c25b6f",
          "hex": "160014af8f39453d39484eb324378fdf67488741c25b6f"
        },
        "txinwitness": [
          "304402204203a60d358af68a1f193f3c1a93669797c3581db63d78cdc81b06abb74813ce02201a64b8172c6a749c73beca49ebafbf9f2668752619bce3b308ede94020d7880f41",
          "03934e6567f283e5c74875300761dfc2884df23bae2771cffcc1dda9805c0c7e8e"
        ],
        "sequence": 4294967294
      },
      {
        "txid": "f35736744b64007c02498cd6307886711e0adc0fee0400194e127c3c42dc957c",
        "vout": 0,
        "scriptSig": {
          "asm": "0014af8f39453d39484eb324378fdf67488741c25b6f",
          "hex": "160014af8f39453d39484eb324378fdf67488741c25b6f"
        },
        "txinwitness": [
          "304402200fb0e129a574757a17a7cff9b70056de1eaf8fa3706085c5fb02a27905b3a9290220193873291953ee978ce5f3c81f6486761d7e36bf259b2f8cdbc01cfaadeb2d7e41",
          "03934e6567f283e5c74875300761dfc2884df23bae2771cffcc1dda9805c0c7e8e"
        ],
        "sequence": 4294967294
      },
      {
        "txid": "59a22a0778d01451f920c19dc10a758741a7d3595a74980d0aefa035372f53a2",
        "vout": 0,
        "scriptSig": {
          "asm": "0014af8f39453d39484eb324378fdf67488741c25b6f",
          "hex": "160014af8f39453d39484eb324378fdf67488741c25b6f"
        },
        "txinwitness": [
          "3044022031caff3223cbced4f09b25355034544b920377fd5592e3419c2eb2ce4fe03904022040b5602b47dd71f71565fe49432fa5befda2ba7d13724edf6936daaf83f8b2f941",
          "03934e6567f283e5c74875300761dfc2884df23bae2771cffcc1dda9805c0c7e8e"
        ],
        "sequence": 4294967294
      }
    ],
    "vout": [
      {
        "value": 0.01309639,
        "n": 0,
        "scriptPubKey": {
          "asm": "0 28eaea4285f920b8c76ae099ad8e9b10f20fdbf1",
          "hex": "001428eaea4285f920b8c76ae099ad8e9b10f20fdbf1",
          "reqSigs": 1,
          "type": "witness_v0_keyhash",
          "addresses": [
            "btgrt1q9r4w5s59lyst33m2uzv6mr5mzreqlkl3nv48us"
          ]
        }
      },
      {
        "value": 1,
        "n": 1,
        "scriptPubKey": {
          "asm": "0 d2eb140d8b7006e7b862827043f9cddd50da9811",
          "hex": "0014d2eb140d8b7006e7b862827043f9cddd50da9811",
          "reqSigs": 1,
          "type": "witness_v0_keyhash",
          "addresses": [
            "btgrt1q6t43grvtwqrw0wrzsfcy87wdm4gd4xq33v30vf"
          ]
        }
      }
    ],
    "hex": "02000000000104c1f68b1af0b0bd102f60a8337c7a8ec70369916c52fadf38a78872dc26df6bf80000000017160014af8f39453d39484eb324378fdf67488741c25b6ffeffffff09db181e93dfa26352692b6e54e9ae41041b0d252ab94e7076b82e71c36177f40000000017160014af8f39453d39484eb324378fdf67488741c25b6ffeffffff7c95dc423c7c124e190004ee0fdc0a1e71867830d68c49027c00644b743657f30000000017160014af8f39453d39484eb324378fdf67488741c25b6ffeffffffa2532f3735a0ef0a0d98745a59d3a74187750ac19dc120f95114d078072aa2590000000017160014af8f39453d39484eb324378fdf67488741c25b6ffeffffff02c7fb13000000000016001428eaea4285f920b8c76ae099ad8e9b10f20fdbf100e1f50500000000160014d2eb140d8b7006e7b862827043f9cddd50da981102473044022069b67c749330eac7565139a6cef0aca976d0a2d7d7d2af9738dda70ccaa1c4020220244124ca64a267143487d506ce671dd81ac1028ea471a11eaf26c7a9b8964c53412103934e6567f283e5c74875300761dfc2884df23bae2771cffcc1dda9805c0c7e8e0247304402204203a60d358af68a1f193f3c1a93669797c3581db63d78cdc81b06abb74813ce02201a64b8172c6a749c73beca49ebafbf9f2668752619bce3b308ede94020d7880f412103934e6567f283e5c74875300761dfc2884df23bae2771cffcc1dda9805c0c7e8e0247304402200fb0e129a574757a17a7cff9b70056de1eaf8fa3706085c5fb02a27905b3a9290220193873291953ee978ce5f3c81f6486761d7e36bf259b2f8cdbc01cfaadeb2d7e412103934e6567f283e5c74875300761dfc2884df23bae2771cffcc1dda9805c0c7e8e02473044022031caff3223cbced4f09b25355034544b920377fd5592e3419c2eb2ce4fe03904022040b5602b47dd71f71565fe49432fa5befda2ba7d13724edf6936daaf83f8b2f9412103934e6567f283e5c74875300761dfc2884df23bae2771cffcc1dda9805c0c7e8ed1070000"
  },
  "inputs": [
    {
      "txid": "f86bdf26dc7288a738dffa526c916903c78e7a7c33a8602f10bdb0f01a8bf6c1",
      "hash": "17d9974706ddf6eee681b7dee1cee97c8a22f51ed4a8cd8a2ddcd9ede8ceb965",
      "version": 2,
      "size": 171,
      "vsize": 144,
      "weight": 576,
      "locktime": 0,
      "vin": [
        {
          "coinbase": "0240070101",
          "sequence": 4294967295
        }
      ],
      "vout": [
        {
          "value": 0.01220703,
          "n": 0,
          "scriptPubKey": {
            "asm": "OP_HASH160 246681535a0e57c5b5a7eddffaed5774c42dccad OP_EQUAL",
            "hex": "a914246681535a0e57c5b5a7eddffaed5774c42dccad87",
            "reqSigs": 1,
            "type": "scripthash",
            "addresses": [
              "2MvZh7Ng1a5U7EZX86TBeqi6aUEnfBRzfas"
            ]
          }
        },
        {
          "value": 0,
          "n": 1,
          "scriptPubKey": {
            "asm": "OP_RETURN aa21a9ede2f61c3f71d1defd3fa999dfa36953755c690689799962b48bebd836974e8cf9",
            "hex": "6a24aa21a9ede2f61c3f71d1defd3fa999dfa36953755c690689799962b48bebd836974e8cf9",
            "type": "nulldata"
          }
        }
      ],
      "hex": "020000000001010000000000000000000000000000000000000000000000000000000000000000ffffffff050240070101ffffffff025fa012000000000017a914246681535a0e57c5b5a7eddffaed5774c42dccad870000000000000000266a24aa21a9ede2f61c3f71d1defd3fa999dfa36953755c690689799962b48bebd836974e8cf90120000000000000000000000000000000000000000000000000000000000000000000000000",
      "blockhash": "4c7cd9560de295a2959f62e301188dcabbe645c25d05697db2a70444d2c25638",
      "confirmations": 146,
      "time": 1628862742,
      "blocktime": 1628862742
    },
    {
      "txid": "f47761c3712eb876704eb92a250d1b0441aee9546e2b695263a2df931e18db09",
      "hash": "08b16c2858f34460bdef06b3d3774fbac212d5924bff6aab84418574b3504536",
      "version": 2,
      "size": 171,
      "vsize": 144,
      "weight": 576,
      "locktime": 0,
      "vin": [
        {
          "coinbase": "02ac030101",
          "sequence": 4294967295
        }
      ],
      "vout": [
        {
          "value": 0.78125,
          "n": 0,
          "scriptPubKey": {
            "asm": "OP_HASH160 246681535a0e57c5b5a7eddffaed5774c42dccad OP_EQUAL",
            "hex": "a914246681535a0e57c5b5a7eddffaed5774c42dccad87",
            "reqSigs": 1,
            "type": "scripthash",
            "addresses": [
              "2MvZh7Ng1a5U7EZX86TBeqi6aUEnfBRzfas"
            ]
          }
        },
        {
          "value": 0,
          "n": 1,
          "scriptPubKey": {
            "asm": "OP_RETURN aa21a9ede2f61c3f71d1defd3fa999dfa36953755c690689799962b48bebd836974e8cf9",
            "hex": "6a24aa21a9ede2f61c3f71d1defd3fa999dfa36953755c690689799962b48bebd836974e8cf9",
            "type": "nulldata"
          }
        }
      ],
      "hex": "020000000001010000000000000000000000000000000000000000000000000000000000000000ffffffff0502ac030101ffffffff02c817a8040000000017a914246681535a0e57c5b5a7eddffaed5774c42dccad870000000000000000266a24aa21a9ede2f61c3f71d1defd3fa999dfa36953755c690689799962b48bebd836974e8cf90120000000000000000000000000000000000000000000000000000000000000000000000000",
      "blockhash": "74af4644d714b3c3dce60cd97ba336ceb69e3fd488079634addf4ea7f630dcb6",
      "confirmations": 1062,
      "time": 1628862589,
      "blocktime": 1628862589
    },
    {
      "txid": "f35736744b64007c02498cd6307886711e0adc0fee0400194e127c3c42dc957c",
      "hash": "cc6bc70420a7c0ed1442c5efafcf832453fd7f8ebbe139f6384baf0a962b2539",
      "version": 2,
      "size": 171,
      "vsize": 144,
      "weight": 576,
      "locktime": 0,
      "vin": [
        {
          "coinbase": "029c060101",
          "sequence": 4294967295
        }
      ],
      "vout": [
        {
          "value": 0.02441406,
          "n": 0,
          "scriptPubKey": {
            "asm": "OP_HASH160 246681535a0e57c5b5a7eddffaed5774c42dccad OP_EQUAL",
            "hex": "a914246681535a0e57c5b5a7eddffaed5774c42dccad87",
            "reqSigs": 1,
            "type": "scripthash",
            "addresses": [
              "2MvZh7Ng1a5U7EZX86TBeqi6aUEnfBRzfas"
            ]
          }
        },
        {
          "value": 0,
          "n": 1,
          "scriptPubKey": {
            "asm": "OP_RETURN aa21a9ede2f61c3f71d1defd3fa999dfa36953755c690689799962b48bebd836974e8cf9",
            "hex": "6a24aa21a9ede2f61c3f71d1defd3fa999dfa36953755c690689799962b48bebd836974e8cf9",
            "type": "nulldata"
          }
        }
      ],
      "hex": "020000000001010000000000000000000000000000000000000000000000000000000000000000ffffffff05029c060101ffffffff02be4025000000000017a914246681535a0e57c5b5a7eddffaed5774c42dccad870000000000000000266a24aa21a9ede2f61c3f71d1defd3fa999dfa36953755c690689799962b48bebd836974e8cf90120000000000000000000000000000000000000000000000000000000000000000000000000",
      "blockhash": "3d464caddd1d1cad8eda4bf60ec48b82c4324db6d7c3e0911ff130d00cab3b47",
      "confirmations": 310,
      "time": 1628862714,
      "blocktime": 1628862714
    },
    {
      "txid": "59a22a0778d01451f920c19dc10a758741a7d3595a74980d0aefa035372f53a2",
      "hash": "38875a2faf9dcf5a69d61644a04b61ab6d32246e3f4b45e1c59f386cd4dd192f",
      "version": 2,
      "size": 171,
      "vsize": 144,
      "weight": 576,
      "locktime": 0,
      "vin": [
        {
          "coinbase": "02f5040101",
          "sequence": 4294967295
        }
      ],
      "vout": [
        {
          "value": 0.1953125,
          "n": 0,
          "scriptPubKey": {
            "asm": "OP_HASH160 246681535a0e57c5b5a7eddffaed5774c42dccad OP_EQUAL",
            "hex": "a914246681535a0e57c5b5a7eddffaed5774c42dccad87",
            "reqSigs": 1,
            "type": "scripthash",
            "addresses": [
              "2MvZh7Ng1a5U7EZX86TBeqi6aUEnfBRzfas"
            ]
          }
        },
        {
          "value": 0,
          "n": 1,
          "scriptPubKey": {
            "asm": "OP_RETURN aa21a9ede2f61c3f71d1defd3fa999dfa36953755c690689799962b48bebd836974e8cf9",
            "hex": "6a24aa21a9ede2f61c3f71d1defd3fa999dfa36953755c690689799962b48bebd836974e8cf9",
            "type": "nulldata"
          }
        }
      ],
      "hex": "020000000001010000000000000000000000000000000000000000000000000000000000000000ffffffff0502f5040101ffffffff02f2052a010000000017a914246681535a0e57c5b5a7eddffaed5774c42dccad870000000000000000266a24aa21a9ede2f61c3f71d1defd3fa999dfa36953755c690689799962b48bebd836974e8cf90120000000000000000000000000000000000000000000000000000000000000000000000000",
      "blockhash": "0a9629e71a4ef7674a387f522b575b7205801590b8f912fa99a35ed32b30c2fc",
      "confirmations": 733,
      "time": 1628862644,
      "blocktime": 1628862644
    }
  ]
}