{
  "transaction": {
    "txid": "b6ce1698b72bc7e70dbd0e9d5b29e45ff08dce76ad75e959c9718f2f3bdd7f58",
    "hash": "be767605ac563d8e404a9b7d4c1b93b71d3a4588a627381a43d1325c77d64c7c",
    "version": 2,
    "size": 762,
    "vsize": 440,
    "weight": 1758,
    "locktime": 2001,
    "vin": [
      {
        "txid": "1242198fa1be22d615c1cfdaea04465ef8f0e5f1fa7bd4ff1f9f80d25ec2bbb2",
        "vout": 0,
        "scriptSig": {
          "asm": "0014f942008ae86298d9c13052afa7f3ddb5a3a412f6",
          "hex": "160014f942008ae86298d9c13052afa7f3ddb5a3a412f6"
        },
        "txinwitness": [
          "3044022059b98d4a2dddf73ec7974a886638e5abb43bb418854765fee40273176b3a2a55022023da9308831a00f0e4bbb5df53dd2b2588ee8d9c2e919f46b1dedc594517a32541",
          "0302b116dbd1f6cc738f744ba0aa241c50da6e16e2ef77bdc86aaaa04bbbb1b412"
        ],
        "sequence": 4294967294
      },
      {
        "txid": "d2c91e34b720428fe3f2b09fbc5c1c4c483af017b1a2ff9d9d6cf8179ff8b508",
        "vout": 0,
        "scriptSig": {
          "asm": "0014f942008ae86298d9c13052afa7f3ddb5a3a412f6",
          "hex": "160014f942008ae86298d9c13052afa7f3ddb5a3a412f6"
        },
        "txinwitness": [
          "304402204cb7d6d77cb7a607fd7cbc99d85d76d6009d408798caf6d7f2d81e1e1b807cc4022001d5617cf7e3cc11167f91ad0346dd00e72e1a9d448ff2b0f7519228b31f559241",
          "0302b116dbd1f6cc738f744ba0aa241c50da6e16e2ef77bdc86aaaa04bbbb1b412"
        ],
        "sequence": 4294967294
      },
      {
        "txid": "97df4ac85e81fe10c7be21e06c00187d3d2868443c9749e02f6e5d099a85e0db",
        "vout": 0,
        "scriptSig": {
          "asm": "0014f942008ae86298d9c13052afa7f3ddb5a3a412f6",
          "hex": "160014f942008ae86298d9c13052afa7f3ddb5a3a412f6"
        },
        "txinwitness": [
          "30440220571235a4a43a84d9857563847e9fe18b7c97401deebde6fa793ec96308e69a8c0220086c87640b90005a5d6dbdfa9415977bc892e7673d171d8ea21edd83ccd8ee7f41",
          "0302b116dbd1f6cc738f744ba0aa241c50da6e16e2ef77bdc86aaaa04bbbb1b412"
        ],
        "sequence": 4294967294
      },
      {
        "txid": "7426cd5e3319fee48aec6810dfef3ef1ef07d74978ed8cd3c2d45938f22e273d",
        "vout": 0,
        "scriptSig": {
          "asm": "0014f942008ae86298d9c13052afa7f3ddb5a3a412f6",
          "hex": "160014f942008ae86298d9c13052afa7f3ddb5a3a412f6"
        },
        "txinwitness": [
          "30440220641b52188395b6f0cdeb6d09f398e1eb8d33c158d3a16cb0ed6be015a03af52b02207d8794d4f3c505cfebc16631e2e05c3641628401383f44739162e6a8950984f141",
          "0302b116dbd1f6cc738f744ba0aa241c50da6e16e2ef77bdc86aaaa04bbbb1b412"
        ],
        "sequence": 4294967294
      }
    ],
    "vout": [
      {
        "value": 1,
        "n": 0,
        "scriptPubKey": {
          "asm": "OP_DUP OP_HASH160 d2eb140d8b7006e7b862827043f9cddd50da9811 OP_EQUALVERIFY OP_CHECKSIG",
          "hex": "76a914d2eb140d8b7006e7b862827043f9cddd50da981188ac",
          "reqSigs": 1,
          "type": "pubkeyhash",
          "addresses": [
            "mzkBosFeajZ5KxXp4rPNA8maqoKUFiR7nY"
          ]
        }
      },
      {
        "value": 0.01309559,
        "n": 1,
        "scriptPubKey": {
          "asm": "OP_HASH160 b8c813475586a9a9b9ee917ec235fd1e6e5883c8 OP_EQUAL",
          "hex": "a914b8c813475586a9a9b9ee917ec235fd1e6e5883c887",
          "reqSigs": 1,
          "type": "scripthash",
          "addresses": [
            "2NA6G14FLuWDHMyHaBPRnmRy11wWKYRHhmw"
          ]
        }
      }
    ],
    "hex": "02000000000104b2bbc25ed2809f1fffd47bfaf1e5f0f85e4604eadacfc115d622bea18f1942120000000017160014f942008ae86298d9c13052afa7f3ddb5a3a412f6feffffff08b5f89f17f86c9d9dffa2b117f03a484c1c5cbc9fb0f2e38f4220b7341ec9d20000000017160014f942008ae86298d9c13052afa7f3ddb5a3a412f6feffffffdbe0859a095d6e2fe049973c4468283d7d18006ce021bec710fe815ec84adf970000000017160014f942008ae86298d9c13052afa7f3ddb5a3a412f6feffffff3d272ef23859d4c2d38ced7849d707eff13eefdf1068ec8ae4fe19335ecd26740000000017160014f942008ae86298d9c13052afa7f3ddb5a3a412f6feffffff0200e1f505000000001976a914d2eb140d8b7006e7b862827043f9cddd50da981188ac77fb13000000000017a914b8c813475586a9a9b9ee917ec235fd1e6e5883c88702473044022059b98d4a2dddf73ec7974a886638e5abb43bb418854765fee40273176b3a2a55022023da9308831a00f0e4bbb5df53dd2b2588ee8d9c2e919f46b1dedc594517a32541210302b116dbd1f6cc738f744ba0aa241c50da6e16e2ef77bdc86aaaa04bbbb1b4120247304402204cb7d6d77cb7a607fd7cbc99d85d76d6009d408798caf6d7f2d81e1e1b807cc4022001d5617cf7e3cc11167f91ad0346dd00e72e1a9d448ff2b0f7519228b31f559241210302b116dbd1f6cc738f744ba0aa241c50da6e16e2ef77bdc86aaaa04bbbb1b412024730440220571235a4a43a84d9857563847e9fe18b7c97401deebde6fa793ec96308e69a8c0220086c87640b90005a5d6dbdfa9415977bc892e7673d171d8ea21edd83ccd8ee7f41210302b116dbd1f6cc738f744ba0aa241c50da6e16e2ef77bdc86aaaa04bbbb1b412024730440220641b52188395b6f0cdeb6d09f398e1eb8d33c158d3a16cb0ed6be015a03af52b02207d8794d4f3c505cfebc16631e2e05c3641628401383f44739162e6a8950984f141210302b116dbd1f6cc738f744ba0aa241c50da6e16e2ef77bdc86aaaa04bbbb1b412d1070000"
  },
  "inputs": [
    {
      "txid": "1242198fa1be22d615c1cfdaea04465ef8f0e5f1fa7bd4ff1f9f80d25ec2bbb2",
      "hash": "d4edecd45571d44e2c35a439cf4eb3497c0a8ed7a4b42711d94fdb3681fad329",
      "version": 2,
      "size": 171,
      "vsize": 144,
      "weight": 576,
      "locktime": 0,
      "vin": [
        {
          "coinbase": "0234050101",
          "sequence": 4294967295
        }
      ],
      "vout": [
        {
          "value": 0.1953125,
          "n": 0,
          "scriptPubKey": {
            "asm": "OP_HASH160 3db240e7cf0b92857eb78d50cbe1004d31110128 OP_EQUAL",
            "hex": "a9143db240e7cf0b92857eb78d50cbe1004d3111012887",
            "reqSigs": 1,
            "type": "scripthash",
            "addresses": [
              "2MxsSkFwqEWCbdkv8S5zxRSG4fxmeCzpWPe"
            ]
          }
        },
        {
          "value": 0,
          "n": 1,
          "scriptPubKey": {
            "asm": "OP_RETURN aa21a9ede2f61c3f71d1defd3fa999dfa36953755c690689799962b48bebd836974e8cf9",
            "hex": "6a24aa21a9ede2f61c3f71d1defd3fa999dfa36953755c690689799962b48bebd836974e8cf9",
            "type": "nulldata"
          }
        }
      ],
      "hex": "020000000001010000000000000000000000000000000000000000000000000000000000000000ffffffff050234050101ffffffff02f2052a010000000017a9143db240e7cf0b92857eb78d50cbe1004d31110128870000000000000000266a24aa21a9ede2f61c3f71d1defd3fa999dfa36953755c690689799962b48bebd836974e8cf90120000000000000000000000000000000000000000000000000000000000000000000000000",
      "blockhash": "486d51b85c848508b14b3f5a861b949a5be61fb61d11c8e5848ea6c1c3728f6f",
      "confirmations": 670,
      "time": 1630068242,
      "blocktime": 1630068242
    },
    {
      "txid": "d2c91e34b720428fe3f2b09fbc5c1c4c483af017b1a2ff9d9d6cf8179ff8b508",
      "hash": "d5ff5d9e90095af542c12eb83f90230264593c4e3873954344a4b4a31289d348",
      "version": 2,
      "size": 171,
      "vsize": 144,
      "weight": 576,
      "locktime": 0,
      "vin": [
        {
          "coinbase": "0273060101",
          "sequence": 4294967295
        }
      ],
      "vout": [
        {
          "value": 0.02441406,
          "n": 0,
          "scriptPubKey": {
            "asm": "OP_HASH160 3db240e7cf0b92857eb78d50cbe1004d31110128 OP_EQUAL",
            "hex": "a9143db240e7cf0b92857eb78d50cbe1004d3111012887",
            "reqSigs": 1,
            "type": "scripthash",
            "addresses": [
              "2MxsSkFwqEWCbdkv8S5zxRSG4fxmeCzpWPe"
            ]
          }
        },
        {
          "value": 0,
          "n": 1,
          "scriptPubKey": {
            "asm": "OP_RETURN aa21a9ede2f61c3f71d1defd3fa999dfa36953755c690689799962b48bebd836974e8cf9",
            "hex": "6a24aa21a9ede2f61c3f71d1defd3fa999dfa36953755c690689799962b48bebd836974e8cf9",
            "type": "nulldata"
          }
        }
      ],
      "hex": "020000000001010000000000000000000000000000000000000000000000000000000000000000ffffffff050273060101ffffffff02be4025000000000017a9143db240e7cf0b92857eb78d50cbe1004d31110128870000000000000000266a24aa21a9ede2f61c3f71d1defd3fa999dfa36953755c690689799962b48bebd836974e8cf90120000000000000000000000000000000000000000000000000000000000000000000000000",
      "blockhash": "564158f65c4ae5452fd7ca9562f382aed5a58f8f07afc92a697b9b65ff7f6533",
      "confirmations": 351,
      "time": 1630068295,
      "blocktime": 1630068295
    },
    {
      "txid": "97df4ac85e81fe10c7be21e06c00187d3d2868443c9749e02f6e5d099a85e0db",
      "hash": "d948099d4a42d7f09ae2ea38f89a46a30296c6df915028bd11906a35eb109bfe",
      "version": 2,
      "size": 171,
      "vsize": 144,
      "weight": 576,
      "locktime": 0,
      "vin": [
        {
          "coinbase": "02a2030101",
          "sequence": 4294967295
        }
      ],
      "vout": [
        {
          "value": 0.78125,
          "n": 0,
          "scriptPubKey": {
            "asm": "OP_HASH160 3db240e7cf0b92857eb78d50cbe1004d31110128 OP_EQUAL",
            "hex": "a9143db240e7cf0b92857eb78d50cbe1004d3111012887",
            "reqSigs": 1,
            "type": "scripthash",
            "addresses": [
              "2MxsSkFwqEWCbdkv8S5zxRSG4fxmeCzpWPe"
            ]
          }
        },
        {
          "value": 0,
          "n": 1,
          "scriptPubKey": {
            "asm": "OP_RETURN aa21a9ede2f61c3f71d1defd3fa999dfa36953755c690689799962b48bebd836974e8cf9",
            "hex": "6a24aa21a9ede2f61c3f71d1defd3fa999dfa36953755c690689799962b48bebd836974e8cf9",
            "type": "nulldata"
          }
        }
      ],
      "hex": "020000000001010000000000000000000000000000000000000000000000000000000000000000ffffffff0502a2030101ffffffff02c817a8040000000017a9143db240e7cf0b92857eb78d50cbe1004d31110128870000000000000000266a24aa21a9ede2f61c3f71d1defd3fa999dfa36953755c690689799962b48bebd836974e8cf90120000000000000000000000000000000000000000000000000000000000000000000000000",
      "blockhash": "02e6adee50f81713902c5b403ba01fdc5c12ba99c70a8ba41ce200241604b785",
      "confirmations": 1072,
      "time": 1630068175,
      "blocktime": 1630068175
    },
    {
      "txid": "7426cd5e3319fee48aec6810dfef3ef1ef07d74978ed8cd3c2d45938f22e273d",
      "hash": "69bc13f7a7703f1ef6f7e75275690fb6ea2cf4fb5d6c2dc80a69b4e39539818c",
      "version": 2,
      "size": 171,
      "vsize": 144,
      "weight": 576,
      "locktime": 0,
      "vin": [
        {
          "coinbase": "025c070101",
          "sequence": 4294967295
        }
      ],
      "vout": [
        {
          "value": 0.01220703,
          "n": 0,
          "scriptPubKey": {
            "asm": "OP_HASH160 3db240e7cf0b92857eb78d50cbe1004d31110128 OP_EQUAL",
            "hex": "a9143db240e7cf0b92857eb78d50cbe1004d3111012887",
            "reqSigs": 1,
            "type": "scripthash",
            "addresses": [
              "2MxsSkFwqEWCbdkv8S5zxRSG4fxmeCzpWPe"
            ]
          }
        },
        {
          "value": 0,
          "n": 1,
          "scriptPubKey": {
            "asm": "OP_RETURN aa21a9ede2f61c3f71d1defd3fa999dfa36953755c690689799962b48bebd836974e8cf9",
            "hex": "6a24aa21a9ede2f61c3f71d1defd3fa999dfa36953755c690689799962b48bebd836974e8cf9",
            "type": "nulldata"
          }
        }
      ],
      "hex": "020000000001010000000000000000000000000000000000000000000000000000000000000000ffffffff05025c070101ffffffff025fa012000000000017a9143db240e7cf0b92857eb78d50cbe1004d31110128870000000000000000266a24aa21a9ede2f61c3f71d1defd3fa999dfa36953755c690689799962b48bebd836974e8cf90120000000000000000000000000000000000000000000000000000000000000000000000000",
      "blockhash": "6b2b8fe68a0cebe456b54fc5c7abd1b324bab679cd6cb0025e2269014ee54147",
      "confirmations": 118,
      "time": 1630068334,
      "blocktime": 1630068334
    }
  ]
}