{
  "transaction": {
    "txid": "caa577eadc644133a13da7a4c9f22631fa41034916d1501979ec8848192e376d",
    "hash": "26bd4bab59953bca78bc5399ef9d5a8d7d4d31ad9272306b9cd04d3579504539",
    "version": 2,
    "size": 770,
    "vsize": 448,
    "weight": 1790,
    "locktime": 2001,
    "vin": [
      {
        "txid": "29f6bc8fa3565965b0c0529e91b89a03987da1c4d10342cdbfa13f40a99d3e92",
        "vout": 0,
        "scriptSig": {
          "asm": "0014fb165e7875936b0b3d920676801a6b524b7f559d",
          "hex": "160014fb165e7875936b0b3d920676801a6b524b7f559d"
        },
        "txinwitness": [
          "3044022011f4b4102d3d5d77f152e2f0211743fe8cdcb95eb9fec40bbed14f1b9edda60e0220623c69d36496e987cf629e41e123e34823b2258db126d2054ad906ac920dea1d41",
          "02fd6690992e8db4210c6c69f0c781622d26f3178d8533dfa33dd30ce199efeb6d"
        ],
        "sequence": 4294967294
      },
      {
        "txid": "3ebf7e6a55ab6b48e568290919851d793b338a19c4c74dc1d3cbe8825bf5b254",
        "vout": 0,
        "scriptSig": {
          "asm": "0014fb165e7875936b0b3d920676801a6b524b7f559d",
          "hex": "160014fb165e7875936b0b3d920676801a6b524b7f559d"
        },
        "txinwitness": [
          "304402204c1140434aa89e965b84d60fafda69b24347ede450e2fd0273b94f8662cf7492022050f6599603e86b25fed13dc3b54e2d63b0269b97e4750b1663f40e39211a96d741",
          "02fd6690992e8db4210c6c69f0c781622d26f3178d8533dfa33dd30ce199efeb6d"
        ],
        "sequence": 4294967294
      },
      {
        "txid": "63ec073b5f3fd3df5efb8895ea729400f7b1b4b67bd3ec911414c96cfaac4466",
        "vout": 0,
        "scriptSig": {
          "asm": "0014fb165e7875936b0b3d920676801a6b524b7f559d",
          "hex": "160014fb165e7875936b0b3d920676801a6b524b7f559d"
        },
        "txinwitness": [
          "3044022003ebc1ba23ec90ed76b9ddc2a073f0bfe61ab3f69c80bf7492f9058b03ad846c022049d2f7e8f26663d11ae793182c9ca40945adf8c3b311fca5a9dffbb50877796841",
          "02fd6690992e8db4210c6c69f0c781622d26f3178d8533dfa33dd30ce199efeb6d"
        ],
        "sequence": 4294967294
      },
      {
        "txid": "335ba3c60421b3727669a5eea8450a40a6b9fde91ec7906255abcb23f3bd5059",
        "vout": 0,
        "scriptSig": {
          "asm": "0014fb165e7875936b0b3d920676801a6b524b7f559d",
          "hex": "160014fb165e7875936b0b3d920676801a6b524b7f559d"
        },
        "txinwitness": [
          "304402207c0c1e0662d171670044857230776a1fa89870a84c8398cf073407ebad854c5802200a076416939dc78f10da29fe690672542c031a134c603358526bbc4147b95e7841",
          "02fd6690992e8db4210c6c69f0c781622d26f3178d8533dfa33dd30ce199efeb6d"
        ],
        "sequence": 4294967294
      }
    ],
    "vout": [
      {
        "value": 1,
        "n": 0,
        "scriptPubKey": {
          "asm": "0 1553f31a3e25e770b7bc857b82909e83734dbfe4bcdb5a5e6fc419b6920c398a",
          "hex": "00201553f31a3e25e770b7bc857b82909e83734dbfe4bcdb5a5e6fc419b6920c398a",
          "reqSigs": 1,
          "type": "witness_v0_scripthash",
          "addresses": [
            "btgrt1qz4flxx37yhnhpdaus4ac9yy7sde5m0lyhnd45hn0csvmdysv8x9qmez7qc"
          ]
        }
      },
      {
        "value": 0.01309399,
        "n": 1,
        "scriptPubKey": {
          "asm": "0 01959f40e9efbcfe404d77372b6a0a88bdff1b0e",
          "hex": "001401959f40e9efbcfe404d77372b6a0a88bdff1b0e",
          "reqSigs": 1,
          "type": "witness_v0_keyhash",
          "addresses": [
            "btgrt1qqx2e7s8fa770uszdwumjk6s23z7l7xcw0hkxk8"
          ]
        }
      }
    ],
    "hex": "02000000000104923e9da9403fa1bfcd4203d1c4a17d98039ab8919e52c0b0655956a38fbcf6290000000017160014fb165e7875936b0b3d920676801a6b524b7f559dfeffffff54b2f55b82e8cbd3c14dc7c4198a333b791d8519092968e5486bab556a7ebf3e0000000017160014fb165e7875936b0b3d920676801a6b524b7f559dfeffffff6644acfa6cc9141491ecd37bb6b4b1f7009472ea9588fb5edfd33f5f3b07ec630000000017160014fb165e7875936b0b3d920676801a6b524b7f559dfeffffff5950bdf323cbab556290c71ee9fdb9a6400a45a8eea5697672b32104c6a35b330000000017160014fb165e7875936b0b3d920676801a6b524b7f559dfeffffff0200e1f505000000002200201553f31a3e25e770b7bc857b82909e83734dbfe4bcdb5a5e6fc419b6920c398ad7fa13000000000016001401959f40e9efbcfe404d77372b6a0a88bdff1b0e02473044022011f4b4102d3d5d77f152e2f0211743fe8cdcb95eb9fec40bbed14f1b9edda60e0220623c69d36496e987cf629e41e123e34823b2258db126d2054ad906ac920dea1d412102fd6690992e8db4210c6c69f0c781622d26f3178d8533dfa33dd30ce199efeb6d0247304402204c1140434aa89e965b84d60fafda69b24347ede450e2fd0273b94f8662cf7492022050f6599603e86b25fed13dc3b54e2d63b0269b97e4750b1663f40e39211a96d7412102fd6690992e8db4210c6c69f0c781622d26f3178d8533dfa33dd30ce199efeb6d02473044022003ebc1ba23ec90ed76b9ddc2a073f0bfe61ab3f69c80bf7492f9058b03ad846c022049d2f7e8f26663d11ae793182c9ca40945adf8c3b311fca5a9dffbb508777968412102fd6690992e8db4210c6c69f0c781622d26f3178d8533dfa33dd30ce199efeb6d0247304402207c0c1e0662d171670044857230776a1fa89870a84c8398cf073407ebad854c5802200a076416939dc78f10da29fe690672542c031a134c603358526bbc4147b95e78412102fd6690992e8db4210c6c69f0c781622d26f3178d8533dfa33dd30ce199efeb6dd1070000"
  },
  "inputs": [
    {
      "txid": "29f6bc8fa3565965b0c0529e91b89a03987da1c4d10342cdbfa13f40a99d3e92",
      "hash": "e8191a08377cb3256f06159043d7835abace9816aff37dfd02dad8ba4420096a",
      "version": 2,
      "size": 171,
      "vsize": 144,
      "weight": 576,
      "locktime": 0,
      "vin": [
        {
          "coinbase": "02cd040101",
          "sequence": 4294967295
        }
      ],
      "vout": [
        {
          "value": 0.1953125,
          "n": 0,
          "scriptPubKey": {
            "asm": "OP_HASH160 137d76c5c1138d03f647cd256de72b1ab438b8eb OP_EQUAL",
            "hex": "a914137d76c5c1138d03f647cd256de72b1ab438b8eb87",
            "reqSigs": 1,
            "type": "scripthash",
            "addresses": [
              "2Mu2H8KM9FA3apaXkDcVHZsKTUcnKUPwsL4"
            ]
          }
        },
        {
          "value": 0,
          "n": 1,
          "scriptPubKey": {
            "asm": "OP_RETURN aa21a9ede2f61c3f71d1defd3fa999dfa36953755c690689799962b48bebd836974e8cf9",
            "hex": "6a24aa21a9ede2f61c3f71d1defd3fa999dfa36953755c690689799962b48bebd836974e8cf9",
            "type": "nulldata"
          }
        }
      ],
      "hex": "020000000001010000000000000000000000000000000000000000000000000000000000000000ffffffff0502cd040101ffffffff02f2052a010000000017a914137d76c5c1138d03f647cd256de72b1ab438b8eb870000000000000000266a24aa21a9ede2f61c3f71d1defd3fa999dfa36953755c690689799962b48bebd836974e8cf90120000000000000000000000000000000000000000000000000000000000000000000000000",
      "blockhash": "11f42ff03b36442a50342bddccd35c0c5cbf1eb947a9528b2f5fd5b607c2f635",
      "confirmations": 773,
      "time": 1635930745,
      "blocktime": 1635930745
    },
    {
      "txid": "3ebf7e6a55ab6b48e568290919851d793b338a19c4c74dc1d3cbe8825bf5b254",
      "hash": "c4e8939300c604e36de4e3be746a9233ac01fc3f70bb49530b0d4050c00fff89",
      "version": 2,
      "size": 171,
      "vsize": 144,
      "weight": 576,
      "locktime": 0,
      "vin": [
        {
          "coinbase": "02f2060101",
          "sequence": 4294967295
        }
      ],
      "vout": [
        {
          "value": 0.02441406,
          "n": 0,
          "scriptPubKey": {
            "asm": "OP_HASH160 137d76c5c1138d03f647cd256de72b1ab438b8eb OP_EQUAL",
            "hex": "a914137d76c5c1138d03f647cd256de72b1ab438b8eb87",
            "reqSigs": 1,
            "type": "scripthash",
            "addresses": [
              "2Mu2H8KM9FA3apaXkDcVHZsKTUcnKUPwsL4"
            ]
          }
        },
        {
          "value": 0,
          "n": 1,
          "scriptPubKey": {
            "asm": "OP_RETURN aa21a9ede2f61c3f71d1defd3fa999dfa36953755c690689799962b48bebd836974e8cf9",
            "hex": "6a24aa21a9ede2f61c3f71d1defd3fa999dfa36953755c690689799962b48bebd836974e8cf9",
            "type": "nulldata"
          }
        }
      ],
      "hex": "020000000001010000000000000000000000000000000000000000000000000000000000000000ffffffff0502f2060101ffffffff02be4025000000000017a914137d76c5c1138d03f647cd256de72b1ab438b8eb870000000000000000266a24aa21a9ede2f61c3f71d1defd3fa999dfa36953755c690689799962b48bebd836974e8cf90120000000000000000000000000000000000000000000000000000000000000000000000000",
      "blockhash": "612f6f76ef75bd01f701be48e2ecf9cbc8aeee239ffc21f77b30e728c358085e",
      "confirmations": 224,
      "time": 1635930837,
      "blocktime": 1635930837
    },
    {
      "txid": "63ec073b5f3fd3df5efb8895ea729400f7b1b4b67bd3ec911414c96cfaac4466",
      "hash": "c33ef9aad571202837460c0c956447b6a02651dec8dc55593a9dd2a9cc6d50a4",
      "version": 2,
      "size": 171,
      "vsize": 144,
      "weight": 576,
      "locktime": 0,
      "vin": [
        {
          "coinbase": "0211040101",
          "sequence": 4294967295
        }
      ],
      "vout": [
        {
          "value": 0.78125,
          "n": 0,
          "scriptPubKey": {
            "asm": "OP_HASH160 137d76c5c1138d03f647cd256de72b1ab438b8eb OP_EQUAL",
            "hex": "a914137d76c5c1138d03f647cd256de72b1ab438b8eb87",
            "reqSigs": 1,
            "type": "scripthash",
            "addresses": [
              "2Mu2H8KM9FA3apaXkDcVHZsKTUcnKUPwsL4"
            ]
          }
        },
        {
          "value": 0,
          "n": 1,
          "scriptPubKey": {
            "asm": "OP_RETURN aa21a9ede2f61c3f71d1defd3fa999dfa36953755c690689799962b48bebd836974e8cf9",
            "hex": "6a24aa21a9ede2f61c3f71d1defd3fa999dfa36953755c690689799962b48bebd836974e8cf9",
            "type": "nulldata"
          }
        }
      ],
      "hex": "020000000001010000000000000000000000000000000000000000000000000000000000000000ffffffff050211040101ffffffff02c817a8040000000017a914137d76c5c1138d03f647cd256de72b1ab438b8eb870000000000000000266a24aa21a9ede2f61c3f71d1defd3fa999dfa36953755c690689799962b48bebd836974e8cf90120000000000000000000000000000000000000000000000000000000000000000000000000",
      "blockhash": "5e898c2c0466634c2cd3eaa1d366f1f88f35a9a8043c70a48f95dec7a723be65",
      "confirmations": 961,
      "time": 1635930714,
      "blocktime": 1635930714
    },
    {
      "txid": "335ba3c60421b3727669a5eea8450a40a6b9fde91ec7906255abcb23f3bd5059",
      "hash": "05caf06ff1170fff37083351508c4ae2a0b9a406f6d0aee071706e10bd8d5e11",
      "version": 2,
      "size": 171,
      "vsize": 144,
      "weight": 576,
      "locktime": 0,
      "vin": [
        {
          "coinbase": "022f070101",
          "sequence": 4294967295
        }
      ],
      "vout": [
        {
          "value": 0.01220703,
          "n": 0,
          "scriptPubKey": {
            "asm": "OP_HASH160 137d76c5c1138d03f647cd256de72b1ab438b8eb OP_EQUAL",
            "hex": "a914137d76c5c1138d03f647cd256de72b1ab438b8eb87",
            "reqSigs": 1,
            "type": "scripthash",
            "addresses": [
              "2Mu2H8KM9FA3apaXkDcVHZsKTUcnKUPwsL4"
            ]
          }
        },
        {
          "value": 0,
          "n": 1,
          "scriptPubKey": {
            "asm": "OP_RETURN aa21a9ede2f61c3f71d1defd3fa999dfa36953755c690689799962b48bebd836974e8cf9",
            "hex": "6a24aa21a9ede2f61c3f71d1defd3fa999dfa36953755c690689799962b48bebd836974e8cf9",
            "type": "nulldata"
          }
        }
      ],
      "hex": "020000000001010000000000000000000000000000000000000000000000000000000000000000ffffffff05022f070101ffffffff025fa012000000000017a914137d76c5c1138d03f647cd256de72b1ab438b8eb870000000000000000266a24aa21a9ede2f61c3f71d1defd3fa999dfa36953755c690689799962b48bebd836974e8cf90120000000000000000000000000000000000000000000000000000000000000000000000000",
      "blockhash": "57d990ae424bbbf1fb1efb42c0d12c0243c3592dfff571a115ab53807f5169b9",
      "confirmations": 163,
      "time": 1635930847,
      "blocktime": 1635930847
    }
  ]
}