{
  "transaction": {
    "txid": "7d0af58fb54b33187d2e2372d729ac4cbfc6d5aefa3d618a58ba690c202cb573",
    "hash": "edd2c175baabd201972765cf9142a4a200b52eab79999b535819e9ae197281a6",
    "version": 2,
    "size": 257,
    "vsize": 176,
    "weight": 701,
    "locktime": 300,
    "vin": [
      {
        "txid": "3c2aea036171082ffc7e94a1361e3fbfc8d37267489d451b48ef733f0a20f96a",
        "vout": 0,
        "scriptSig": {
          "asm": "001435d679a7f7e4e740129e8fd25db6e1fe35d3f382",
          "hex": "16001435d679a7f7e4e740129e8fd25db6e1fe35d3f382"
        },
        "txinwitness": [
          "3044022011f4d23d063647d198062829f3c455df3c5ec55373b225b3ded1d945730769fb022054708551f268e2e4307b6573fed624cb395b575bb4395c1e4f708f4351d9a2a101",
          "03363b03335f5d57d0838e1f1d3280d4d7bb60f5640c2c3652db06ef986f9bf627"
        ],
        "sequence": 4294967294
      }
    ],
    "vout": [
      {
        "value": 1,
        "n": 0,
        "scriptPubKey": {
          "asm": "0 1553f31a3e25e770b7bc857b82909e83734dbfe4bcdb5a5e6fc419b6920c398a",
          "hex": "00201553f31a3e25e770b7bc857b82909e83734dbfe4bcdb5a5e6fc419b6920c398a",
          "reqSigs": 1,
          "type": "witness_v0_scripthash",
          "addresses": [
            "btgrt1qz4flxx37yhnhpdaus4ac9yy7sde5m0lyhnd45hn0csvmdysv8x9qmez7qc"
          ]
        }
      },
      {
        "value": 23.9999648,
        "n": 1,
        "scriptPubKey": {
          "asm": "0 d734ef2cf51d58b9d7037f79ae1c2addef19d7c0",
          "hex": "0014d734ef2cf51d58b9d7037f79ae1c2addef19d7c0",
          "reqSigs": 1,
          "type": "witness_v0_keyhash",
          "addresses": [
            "btgrt1q6u6w7t84r4vtn4cr0au6u8p2mhh3n47qnqv33l"
          ]
        }
      }
    ],
    "hex": "020000000001016af9200a3f73ef481b459d486772d3c8bf3f1e36a1947efc2f08716103ea2a3c000000001716001435d679a7f7e4e740129e8fd25db6e1fe35d3f382feffffff0200e1f505000000002200201553f31a3e25e770b7bc857b82909e83734dbfe4bcdb5a5e6fc419b6920c398a400a0d8f00000000160014d734ef2cf51d58b9d7037f79ae1c2addef19d7c002473044022011f4d23d063647d198062829f3c455df3c5ec55373b225b3ded1d945730769fb022054708551f268e2e4307b6573fed624cb395b575bb4395c1e4f708f4351d9a2a1012103363b03335f5d57d0838e1f1d3280d4d7bb60f5640c2c3652db06ef986f9bf6272c010000"
  },
  "inputs": [
    {
      "txid": "3c2aea036171082ffc7e94a1361e3fbfc8d37267489d451b48ef733f0a20f96a",
      "hash": "71456e9069a19987be8b641b47f78ad667f4927cb15d05af43f1e8e4ecbe2ead",
      "version": 2,
      "size": 171,
      "vsize": 144,
      "weight": 576,
      "locktime": 0,
      "vin": [
        {
          "coinbase": "02c8000101",
          "sequence": 4294967295
        }
      ],
      "vout": [
        {
          "value": 25,
          "n": 0,
          "scriptPubKey": {
            "asm": "OP_HASH160 af341f65820fa0ab7245ac0fbc7d61010fd2b485 OP_EQUAL",
            "hex": "a914af341f65820fa0ab7245ac0fbc7d61010fd2b48587",
            "reqSigs": 1,
            "type": "scripthash",
            "addresses": [
              "2N9DcgQ6Qj2QTAf1xnyZodYEhMpS6u13BNH"
            ]
          }
        },
        {
          "value": 0,
          "n": 1,
          "scriptPubKey": {
            "asm": "OP_RETURN aa21a9ede2f61c3f71d1defd3fa999dfa36953755c690689799962b48bebd836974e8cf9",
            "hex": "6a24aa21a9ede2f61c3f71d1defd3fa999dfa36953755c690689799962b48bebd836974e8cf9",
            "type": "nulldata"
          }
        }
      ],
      "hex": "020000000001010000000000000000000000000000000000000000000000000000000000000000ffffffff0502c8000101ffffffff0200f902950000000017a914af341f65820fa0ab7245ac0fbc7d61010fd2b485870000000000000000266a24aa21a9ede2f61c3f71d1defd3fa999dfa36953755c690689799962b48bebd836974e8cf90120000000000000000000000000000000000000000000000000000000000000000000000000",
      "blockhash": "2c7a9b1f592b21c1ab962ecb9b3a79a748ec4404ffea9f467fefc68483ea2f5c",
      "confirmations": 101,
      "time": 1628762045,
      "blocktime": 1628762045
    }
  ]
}