{
  "txid": "669ec619b5f5700220a3d9686e1f9eca004f7f367f142966f5c3965b119fdddc",
  "hash": "8aa888205346ca3ed696d4282305c5b229e5dccf9fa88c788d68752d0350d45b",
  "version": 2,
  "size": 245,
  "vsize": 164,
  "weight": 653,
  "locktime": 252,
  "vin": [
    {
      "txid": "756210f202ff3a28312f13e1cd2f97027986941940d341ed9153153485e1a457",
      "vout": 0,
      "scriptSig": {
        "asm": "00148d16a89894ca60e65002ac2874fcceef433ddddf",
        "hex": "1600148d16a89894ca60e65002ac2874fcceef433ddddf"
      },
      "txinwitness": [
        "30440220126c85246243c2e6d522ed8d2874047066f4a9831f634f05591d05fe570ce62802207ead768f9d447e425ff627cadac0db74f3b433a4c61ad5db0148655cf8f6967001",
        "0353c7f0a0cf7d2713b4ac472814aaa20937d0591de979be343e0e0a611cefbd26"
      ],
      "sequence": 4294967294
    }
  ],
  "vout": [
    {
      "value": 1,
      "n": 0,
      "scriptPubKey": {
        "asm": "0 d2eb140d8b7006e7b862827043f9cddd50da9811",
        "hex": "0014d2eb140d8b7006e7b862827043f9cddd50da9811",
        "reqSigs": 1,
        "type": "witness_v0_keyhash",
        "addresses": [
          "btgrt1q6t43grvtwqrw0wrzsfcy87wdm4gd4xq33v30vf"
        ]
      }
    },
    {
      "value": 23.9999672,
      "n": 1,
      "scriptPubKey": {
        "asm": "0 3e7bf5dba7daeeb64288177708403d3d34d0c9f7",
        "hex": "00143e7bf5dba7daeeb64288177708403d3d34d0c9f7",
        "reqSigs": 1,
        "type": "witness_v0_keyhash",
        "addresses": [
          "btgrt1q8ealtka8mthtvs5gzamssspa856dpj0h24um7w"
        ]
      }
    }
  ],
  "hex": "0200000000010157a4e18534155391ed41d3401994867902972fcde1132f31283aff02f210627500000000171600148d16a89894ca60e65002ac2874fcceef433ddddffeffffff0200e1f50500000000160014d2eb140d8b7006e7b862827043f9cddd50da9811300b0d8f000000001600143e7bf5dba7daeeb64288177708403d3d34d0c9f7024730440220126c85246243c2e6d522ed8d2874047066f4a9831f634f05591d05fe570ce62802207ead768f9d447e425ff627cadac0db74f3b433a4c61ad5db0148655cf8f6967001210353c7f0a0cf7d2713b4ac472814aaa20937d0591de979be343e0e0a611cefbd26fc000000"
}