{
  "transaction": {
    "txid": "4ed0387b7823ad9129040a75ebe13c94a89a31180dc44ca2b6f77e724eee8b23",
    "hash": "948295b501640a4a20ebf6c099ba4f40da67a721f452239b082da27bb1164375",
    "version": 2,
    "size": 760,
    "vsize": 438,
    "weight": 1750,
    "locktime": 2001,
    "vin": [
      {
        "txid": "42d3ac3328ecbe8fc9dd7d823ff69799836e34efdf4aae53a1d69cd5346e9356",
        "vout": 0,
        "scriptSig": {
          "asm": "0014fb165e7875936b0b3d920676801a6b524b7f559d",
          "hex": "160014fb165e7875936b0b3d920676801a6b524b7f559d"
        },
        "txinwitness": [
          "3044022013aebf9d816220761c8452a7ad0c70d7929a032598b489928d82567e0cd90aba02202bf1e781086d5debc880d793c5fdf713a279e6ea4335bf8f2ddd3f051a1ca97541",
          "02fd6690992e8db4210c6c69f0c781622d26f3178d8533dfa33dd30ce199efeb6d"
        ],
        "sequence": 4294967294
      },
      {
        "txid": "b8978b69ee6a8907076455f16f1165a192ec8cebdf7701e0337056db54058908",
        "vout": 0,
        "scriptSig": {
          "asm": "0014fb165e7875936b0b3d920676801a6b524b7f559d",
          "hex": "160014fb165e7875936b0b3d920676801a6b524b7f559d"
        },
        "txinwitness": [
          "304402207799e6013c5256717e7c1a1e4df622f6e0cc72e443ed2ab0b6d6dd4d6f373f2402202c994a83c13efe58cca2c27494eb475f992e8066b749fd1f7a937ebbde4c21ef41",
          "02fd6690992e8db4210c6c69f0c781622d26f3178d8533dfa33dd30ce199efeb6d"
        ],
        "sequence": 4294967294
      },
      {
        "txid": "52701d7e6cca9ba4c2eb9d7bc3a0a1347a41c37b388522412c23ba429a0383d4",
        "vout": 0,
        "scriptSig": {
          "asm": "0014fb165e7875936b0b3d920676801a6b524b7f559d",
          "hex": "160014fb165e7875936b0b3d920676801a6b524b7f559d"
        },
        "txinwitness": [
          "304402204b864454433bb2ac451cfb8fb07d59fa2ff9d9783268261a3c9b8dfd301ec2a0022050cf68f994375fa31de9c003a964ca71877b5f437f82e8fed1f017ae4cf187dd41",
          "02fd6690992e8db4210c6c69f0c781622d26f3178d8533dfa33dd30ce199efeb6d"
        ],
        "sequence": 4294967294
      },
      {
        "txid": "0cbcafa4c34a11520fcf1043beabef17c50fc3c94dd03088068ffcb48dd4e6b9",
        "vout": 0,
        "scriptSig": {
          "asm": "0014fb165e7875936b0b3d920676801a6b524b7f559d",
          "hex": "160014fb165e7875936b0b3d920676801a6b524b7f559d"
        },
        "txinwitness": [
          "304402207d6d27baf0b9242f5d1129d320f295ac90178e12e9e09ca1486c8fae19de51da022021fcb82b928634194f4a922ea778c064ff053e01771a4e7c25f74ad4451e029e41",
          "02fd6690992e8db4210c6c69f0c781622d26f3178d8533dfa33dd30ce199efeb6d"
        ],
        "sequence": 4294967294
      }
    ],
    "vout": [
      {
        "value": 1,
        "n": 0,
        "scriptPubKey": {
          "asm": "OP_HASH160 fe5cc5d87e3348a5f3eaa316898a0f05d520876e OP_EQUAL",
          "hex": "a914fe5cc5d87e3348a5f3eaa316898a0f05d520876e87",
          "reqSigs": 1,
          "type": "scripthash",
          "addresses": [
            "2NGSAkyhiWMZPcrfiwmcRWf9HQgpsiRGKv4"
          ]
        }
      },
      {
        "value": 0.01309599,
        "n": 1,
        "scriptPubKey": {
          "asm": "OP_HASH160 06a06e7f13a21044c0b5fba3812a9ba7e8752d51 OP_EQUAL",
          "hex": "a91406a06e7f13a21044c0b5fba3812a9ba7e8752d5187",
          "reqSigs": 1,
          "type": "scripthash",
          "addresses": [
            "2MsrGERJM7QPfYkinuCn5LRe2gX8PqpofAX"
          ]
        }
      }
    ],
    "hex": "0200000000010456936e34d59cd6a153ae4adfef346e839997f63f827dddc98fbeec2833acd3420000000017160014fb165e7875936b0b3d920676801a6b524b7f559dfeffffff08890554db567033e00177dfeb8cec92a165116ff155640707896aee698b97b80000000017160014fb165e7875936b0b3d920676801a6b524b7f559dfeffffffd483039a42ba232c412285387bc3417a34a1a0c37b9debc2a49bca6c7e1d70520000000017160014fb165e7875936b0b3d920676801a6b524b7f559dfeffffffb9e6d48db4fc8f068830d04dc9c30fc517efabbe4310cf0f52114ac3a4afbc0c0000000017160014fb165e7875936b0b3d920676801a6b524b7f559dfeffffff0200e1f5050000000017a914fe5cc5d87e3348a5f3eaa316898a0f05d520876e879ffb13000000000017a91406a06e7f13a21044c0b5fba3812a9ba7e8752d518702473044022013aebf9d816220761c8452a7ad0c70d7929a032598b489928d82567e0cd90aba02202bf1e781086d5debc880d793c5fdf713a279e6ea4335bf8f2ddd3f051a1ca975412102fd6690992e8db4210c6c69f0c781622d26f3178d8533dfa33dd30ce199efeb6d0247304402207799e6013c5256717e7c1a1e4df622f6e0cc72e443ed2ab0b6d6dd4d6f373f2402202c994a83c13efe58cca2c27494eb475f992e8066b749fd1f7a937ebbde4c21ef412102fd6690992e8db4210c6c69f0c781622d26f3178d8533dfa33dd30ce199efeb6d0247304402204b864454433bb2ac451cfb8fb07d59fa2ff9d9783268261a3c9b8dfd301ec2a0022050cf68f994375fa31de9c003a964ca71877b5f437f82e8fed1f017ae4cf187dd412102fd6690992e8db4210c6c69f0c781622d26f3178d8533dfa33dd30ce199efeb6d0247304402207d6d27baf0b9242f5d1129d320f295ac90178e12e9e09ca1486c8fae19de51da022021fcb82b928634194f4a922ea778c064ff053e01771a4e7c25f74ad4451e029e412102fd6690992e8db4210c6c69f0c781622d26f3178d8533dfa33dd30ce199efeb6dd1070000"
  },
  "inputs": [
    {
      "txid": "42d3ac3328ecbe8fc9dd7d823ff69799836e34efdf4aae53a1d69cd5346e9356",
      "hash": "139ba58b475fbf63efe8a0c77f7ae2aece65e0745b88ecbc3f175cbacff8f71a",
      "version": 2,
      "size": 171,
      "vsize": 144,
      "weight": 576,
      "locktime": 0,
      "vin": [
        {
          "coinbase": "02e5040101",
          "sequence": 4294967295
        }
      ],
      "vout": [
        {
          "value": 0.1953125,
          "n": 0,
          "scriptPubKey": {
            "asm": "OP_HASH160 137d76c5c1138d03f647cd256de72b1ab438b8eb OP_EQUAL",
            "hex": "a914137d76c5c1138d03f647cd256de72b1ab438b8eb87",
            "reqSigs": 1,
            "type": "scripthash",
            "addresses": [
              "2Mu2H8KM9FA3apaXkDcVHZsKTUcnKUPwsL4"
            ]
          }
        },
        {
          "value": 0,
          "n": 1,
          "scriptPubKey": {
            "asm": "OP_RETURN aa21a9ede2f61c3f71d1defd3fa999dfa36953755c690689799962b48bebd836974e8cf9",
            "hex": "6a24aa21a9ede2f61c3f71d1defd3fa999dfa36953755c690689799962b48bebd836974e8cf9",
            "type": "nulldata"
          }
        }
      ],
      "hex": "020000000001010000000000000000000000000000000000000000000000000000000000000000ffffffff0502e5040101ffffffff02f2052a010000000017a914137d76c5c1138d03f647cd256de72b1ab438b8eb870000000000000000266a24aa21a9ede2f61c3f71d1defd3fa999dfa36953755c690689799962b48bebd836974e8cf90120000000000000000000000000000000000000000000000000000000000000000000000000",
      "blockhash": "1525dafb9564029267cf378540834dd6eb52ce2d8e1c83593fb7270b79f53fb0",
      "confirmations": 749,
      "time": 1635930749,
      "blocktime": 1635930749
    },
    {
      "txid": "b8978b69ee6a8907076455f16f1165a192ec8cebdf7701e0337056db54058908",
      "hash": "dc3e394bad3cb23996dc9098ebde97543977a1485dce1e221a56b09e8bf8b24a",
      "version": 2,
      "size": 171,
      "vsize": 144,
      "weight": 576,
      "locktime": 0,
      "vin": [
        {
          "coinbase": "02c2060101",
          "sequence": 4294967295
        }
      ],
      "vout": [
        {
          "value": 0.02441406,
          "n": 0,
          "scriptPubKey": {
            "asm": "OP_HASH160 137d76c5c1138d03f647cd256de72b1ab438b8eb OP_EQUAL",
            "hex": "a914137d76c5c1138d03f647cd256de72b1ab438b8eb87",
            "reqSigs": 1,
            "type": "scripthash",
            "addresses": [
              "2Mu2H8KM9FA3apaXkDcVHZsKTUcnKUPwsL4"
            ]
          }
        },
        {
          "value": 0,
          "n": 1,
          "scriptPubKey": {
            "asm": "OP_RETURN aa21a9ede2f61c3f71d1defd3fa999dfa36953755c690689799962b48bebd836974e8cf9",
            "hex": "6a24aa21a9ede2f61c3f71d1defd3fa999dfa36953755c690689799962b48bebd836974e8cf9",
            "type": "nulldata"
          }
        }
      ],
      "hex": "020000000001010000000000000000000000000000000000000000000000000000000000000000ffffffff0502c2060101ffffffff02be4025000000000017a914137d76c5c1138d03f647cd256de72b1ab438b8eb870000000000000000266a24aa21a9ede2f61c3f71d1defd3fa999dfa36953755c690689799962b48bebd836974e8cf90120000000000000000000000000000000000000000000000000000000000000000000000000",
      "blockhash": "2eb661435e9690c5ec4cbf8755fe93f3fc7c741ca12b26df824dc2c351e2096c",
      "confirmations": 272,
      "time": 1635930829,
      "blocktime": 1635930829
    },
    {
      "txid": "52701d7e6cca9ba4c2eb9d7bc3a0a1347a41c37b388522412c23ba429a0383d4",
      "hash": "8c3c0b070cf466f75b5fd0e167f68ee647841892bcc0f3751a45a11d17ad5ae0",
      "version": 2,
      "size": 171,
      "vsize": 144,
      "weight": 576,
      "locktime": 0,
      "vin": [
        {
          "coinbase": "02a0030101",
          "sequence": 4294967295
        }
      ],
      "vout": [
        {
          "value": 0.78125,
          "n": 0,
          "scriptPubKey": {
            "asm": "OP_HASH160 137d76c5c1138d03f647cd256de72b1ab438b8eb OP_EQUAL",
            "hex": "a914137d76c5c1138d03f647cd256de72b1ab438b8eb87",
            "reqSigs": 1,
            "type": "scripthash",
            "addresses": [
              "2Mu2H8KM9FA3apaXkDcVHZsKTUcnKUPwsL4"
            ]
          }
        },
        {
          "value": 0,
          "n": 1,
          "scriptPubKey": {
            "asm": "OP_RETURN aa21a9ede2f61c3f71d1defd3fa999dfa36953755c690689799962b48bebd836974e8cf9",
            "hex": "6a24aa21a9ede2f61c3f71d1defd3fa999dfa36953755c690689799962b48bebd836974e8cf9",
            "type": "nulldata"
          }
        }
      ],
      "hex": "020000000001010000000000000000000000000000000000000000000000000000000000000000ffffffff0502a0030101ffffffff02c817a8040000000017a914137d76c5c1138d03f647cd256de72b1ab438b8eb870000000000000000266a24aa21a9ede2f61c3f71d1defd3fa999dfa36953755c690689799962b48bebd836974e8cf90120000000000000000000000000000000000000000000000000000000000000000000000000",
      "blockhash": "5d0f80fea4f9160543853e2a890da51426bc5289e8f01296ef163e8bd3005e73",
      "confirmations": 1074,
      "time": 1635930695,
      "blocktime": 1635930695
    },
    {
      "txid": "0cbcafa4c34a11520fcf1043beabef17c50fc3c94dd03088068ffcb48dd4e6b9",
      "hash": "db05eaf5d5bf499de62fae7c2d8edd4e9858616465af56af02fc1622105ddac0",
      "version": 2,
      "size": 171,
      "vsize": 144,
      "weight": 576,
      "locktime": 0,
      "vin": [
        {
          "coinbase": "0261070101",
          "sequence": 4294967295
        }
      ],
      "vout": [
        {
          "value": 0.01220703,
          "n": 0,
          "scriptPubKey": {
            "asm": "OP_HASH160 137d76c5c1138d03f647cd256de72b1ab438b8eb OP_EQUAL",
            "hex": "a914137d76c5c1138d03f647cd256de72b1ab438b8eb87",
            "reqSigs": 1,
            "type": "scripthash",
            "addresses": [
              "2Mu2H8KM9FA3apaXkDcVHZsKTUcnKUPwsL4"
            ]
          }
        },
        {
          "value": 0,
          "n": 1,
          "scriptPubKey": {
            "asm": "OP_RETURN aa21a9ede2f61c3f71d1defd3fa999dfa36953755c690689799962b48bebd836974e8cf9",
            "hex": "6a24aa21a9ede2f61c3f71d1defd3fa999dfa36953755c690689799962b48bebd836974e8cf9",
            "type": "nulldata"
          }
        }
      ],
      "hex": "020000000001010000000000000000000000000000000000000000000000000000000000000000ffffffff050261070101ffffffff025fa012000000000017a914137d76c5c1138d03f647cd256de72b1ab438b8eb870000000000000000266a24aa21a9ede2f61c3f71d1defd3fa999dfa36953755c690689799962b48bebd836974e8cf90120000000000000000000000000000000000000000000000000000000000000000000000000",
      "blockhash": "39a68ac0eed0b78a7cadc80af93545d1518a0f04a29515c250f2c0c4576fb818",
      "confirmations": 113,
      "time": 1635930855,
      "blocktime": 1635930855
    }
  ]
}