{
  "transaction": {
    "txid": "1f4950da74a43eeff1a4d694457028c0bb8b19ccd95c41f40795578a2e7fede0",
    "hash": "52648c357ed4a3f0715dd8f32ce0cf04b376d54462f8241c311119b6584a52e0",
    "version": 2,
    "size": 247,
    "vsize": 166,
    "weight": 661,
    "locktime": 300,
    "vin": [
      {
        "txid": "bb2c2b029c66d3a5141f8b36492d1bb1944ac6c66635ce653884531f5a05e694",
        "vout": 0,
        "scriptSig": {
          "asm": "001435d679a7f7e4e740129e8fd25db6e1fe35d3f382",
          "hex": "16001435d679a7f7e4e740129e8fd25db6e1fe35d3f382"
        },
        "txinwitness": [
          "304402202ed5fd0dbf5034a472adfce31aa39bd9dea52b16f17bb40da39a15de772fa3fc02207ecd58588a01cd6d2bd2137d4e769ed5c72e6f1334bd94aadcc1a244ff0ceaf001",
          "03363b03335f5d57d0838e1f1d3280d4d7bb60f5640c2c3652db06ef986f9bf627"
        ],
        "sequence": 4294967294
      }
    ],
    "vout": [
      {
        "value": 23.9999668,
        "n": 0,
        "scriptPubKey": {
          "asm": "OP_HASH160 4a7ec440f55ebe6fad3ce2fa968d57c6aeb5dae5 OP_EQUAL",
          "hex": "a9144a7ec440f55ebe6fad3ce2fa968d57c6aeb5dae587",
          "reqSigs": 1,
          "type": "scripthash",
          "addresses": [
            "2Mz37rNttGcQBGCHStG6H18nG4EbM819rwQ"
          ]
        }
      },
      {
        "value": 1,
        "n": 1,
        "scriptPubKey": {
          "asm": "OP_HASH160 fe5cc5d87e3348a5f3eaa316898a0f05d520876e OP_EQUAL",
          "hex": "a914fe5cc5d87e3348a5f3eaa316898a0f05d520876e87",
          "reqSigs": 1,
          "type": "scripthash",
          "addresses": [
            "2NGSAkyhiWMZPcrfiwmcRWf9HQgpsiRGKv4"
          ]
        }
      }
    ],
    "hex": "0200000000010194e6055a1f53843865ce3566c6c64a94b11b2d49368b1f14a5d3669c022b2cbb000000001716001435d679a7f7e4e740129e8fd25db6e1fe35d3f382feffffff02080b0d8f0000000017a9144a7ec440f55ebe6fad3ce2fa968d57c6aeb5dae58700e1f5050000000017a914fe5cc5d87e3348a5f3eaa316898a0f05d520876e870247304402202ed5fd0dbf5034a472adfce31aa39bd9dea52b16f17bb40da39a15de772fa3fc02207ecd58588a01cd6d2bd2137d4e769ed5c72e6f1334bd94aadcc1a244ff0ceaf0012103363b03335f5d57d0838e1f1d3280d4d7bb60f5640c2c3652db06ef986f9bf6272c010000"
  },
  "inputs": [
    {
      "txid": "bb2c2b029c66d3a5141f8b36492d1bb1944ac6c66635ce653884531f5a05e694",
      "hash": "7d4c1071fc633aa90e0be2806b577ff6249f67dd1cdcfe182addb0aac0a1c9d1",
      "version": 2,
      "size": 171,
      "vsize": 144,
      "weight": 576,
      "locktime": 0,
      "vin": [
        {
          "coinbase": "02a2000101",
          "sequence": 4294967295
        }
      ],
      "vout": [
        {
          "value": 25,
          "n": 0,
          "scriptPubKey": {
            "asm": "OP_HASH160 af341f65820fa0ab7245ac0fbc7d61010fd2b485 OP_EQUAL",
            "hex": "a914af341f65820fa0ab7245ac0fbc7d61010fd2b48587",
            "reqSigs": 1,
            "type": "scripthash",
            "addresses": [
              "2N9DcgQ6Qj2QTAf1xnyZodYEhMpS6u13BNH"
            ]
          }
        },
        {
          "value": 0,
          "n": 1,
          "scriptPubKey": {
            "asm": "OP_RETURN aa21a9ede2f61c3f71d1defd3fa999dfa36953755c690689799962b48bebd836974e8cf9",
            "hex": "6a24aa21a9ede2f61c3f71d1defd3fa999dfa36953755c690689799962b48bebd836974e8cf9",
            "type": "nulldata"
          }
        }
      ],
      "hex": "020000000001010000000000000000000000000000000000000000000000000000000000000000ffffffff0502a2000101ffffffff0200f902950000000017a914af341f65820fa0ab7245ac0fbc7d61010fd2b485870000000000000000266a24aa21a9ede2f61c3f71d1defd3fa999dfa36953755c690689799962b48bebd836974e8cf90120000000000000000000000000000000000000000000000000000000000000000000000000",
      "blockhash": "42ed6fe2ce24aa7e4b46e3f2b5b5dbab4e5bb40dae81ffb2522b369e2e21afa4",
      "confirmations": 139,
      "time": 1628762038,
      "blocktime": 1628762038
    }
  ]
}