{
  "transaction": {
    "txid": "1abd35844bb45fd61dfd50339d021404f2d405ae165d35d5d11e99a67c597dce",
    "hash": "58a306665423994cb6fb9574eba7a5deb6f228a8a19df846c058321afa370e7e",
    "version": 2,
    "size": 760,
    "vsize": 438,
    "weight": 1750,
    "locktime": 2001,
    "vin": [
      {
        "txid": "bc9606a43a0dee92071504ac85cdeebb84b32830d95fe6b0c45c9e653294da9d",
        "vout": 0,
        "scriptSig": {
          "asm": "0014f942008ae86298d9c13052afa7f3ddb5a3a412f6",
          "hex": "160014f942008ae86298d9c13052afa7f3ddb5a3a412f6"
        },
        "txinwitness": [
          "3044022045e94f21e3320d7c2b42891eb1e501af0f86c91316747b2bab1ae4b70097c0370220112ff6adcf91deacaebbb2b8a5bb56e8f460e2247dc056eb2ae3db1e5ea2a41f41",
          "0302b116dbd1f6cc738f744ba0aa241c50da6e16e2ef77bdc86aaaa04bbbb1b412"
        ],
        "sequence": 4294967294
      },
      {
        "txid": "cc15d9ac69cc11e25272085ab81cfd7ef171f6de77cafbb4ee2f9901d3b4c3f9",
        "vout": 0,
        "scriptSig": {
          "asm": "0014f942008ae86298d9c13052afa7f3ddb5a3a412f6",
          "hex": "160014f942008ae86298d9c13052afa7f3ddb5a3a412f6"
        },
        "txinwitness": [
          "304402201094530d99820f992ab1a3ec905f276fb74e094f80fbf107d8769e2b40222d7c02207b8e5cf0e82153a2ac722fa08c6ff4177b1f1922e553a82cefa0bdb707c3c5aa41",
          "0302b116dbd1f6cc738f744ba0aa241c50da6e16e2ef77bdc86aaaa04bbbb1b412"
        ],
        "sequence": 4294967294
      },
      {
        "txid": "6a4d903e665560784bf0556e693beee943bdeac882b7c980d7267e849b44eb69",
        "vout": 0,
        "scriptSig": {
          "asm": "0014f942008ae86298d9c13052afa7f3ddb5a3a412f6",
          "hex": "160014f942008ae86298d9c13052afa7f3ddb5a3a412f6"
        },
        "txinwitness": [
          "304402201d00077dd8f96b5d85caedd06b16f1fc51151e8591414c28fe82563f6e94c75802201b7c032576053647036fa28ed052fa22c25abeb21e1b3bd1db6b0a402e9b99c141",
          "0302b116dbd1f6cc738f744ba0aa241c50da6e16e2ef77bdc86aaaa04bbbb1b412"
        ],
        "sequence": 4294967294
      },
      {
        "txid": "25d583200bd9870a6946ac3c32d98b5a751cc81d752a4c0e8a274325d390805b",
        "vout": 0,
        "scriptSig": {
          "asm": "0014f942008ae86298d9c13052afa7f3ddb5a3a412f6",
          "hex": "160014f942008ae86298d9c13052afa7f3ddb5a3a412f6"
        },
        "txinwitness": [
          "304402205f8e2600c71a9f3ae37138ff6f7c3e952022e3f834a8436d7880b33bbf65e3bd022049d2ab90e5cef229deda6080564fd7e8d21113d5bff4c5011a2761f46d1a866c41",
          "0302b116dbd1f6cc738f744ba0aa241c50da6e16e2ef77bdc86aaaa04bbbb1b412"
        ],
        "sequence": 4294967294
      }
    ],
    "vout": [
      {
        "value": 1,
        "n": 0,
        "scriptPubKey": {
          "asm": "OP_HASH160 2280193aca8462021ec369d4e2ff1c95741fba7f OP_EQUAL",
          "hex": "a9142280193aca8462021ec369d4e2ff1c95741fba7f87",
          "reqSigs": 1,
          "type": "scripthash",
          "addresses": [
            "2MvPeRFSGYJq9BXoV2fxrMpJjsZMGx2m6Zk"
          ]
        }
      },
      {
        "value": 0.01309599,
        "n": 1,
        "scriptPubKey": {
          "asm": "OP_HASH160 12e21e37738b91fb359da62d08af8b86f219848b OP_EQUAL",
          "hex": "a91412e21e37738b91fb359da62d08af8b86f219848b87",
          "reqSigs": 1,
          "type": "scripthash",
          "addresses": [
            "2Mty52hAYFMXCaze6UbS92RUtudCV6DzsC8"
          ]
        }
      }
    ],
    "hex": "020000000001049dda9432659e5cc4b0e65fd93028b384bbeecd85ac04150792ee0d3aa40696bc0000000017160014f942008ae86298d9c13052afa7f3ddb5a3a412f6fefffffff9c3b4d301992feeb4fbca77def671f17efd1cb85a087252e211cc69acd915cc0000000017160014f942008ae86298d9c13052afa7f3ddb5a3a412f6feffffff69eb449b847e26d780c9b782c8eabd43e9ee3b696e55f04b786055663e904d6a0000000017160014f942008ae86298d9c13052afa7f3ddb5a3a412f6feffffff5b8090d32543278a0e4c2a751dc81c755a8bd9323cac46690a87d90b2083d5250000000017160014f942008ae86298d9c13052afa7f3ddb5a3a412f6feffffff0200e1f5050000000017a9142280193aca8462021ec369d4e2ff1c95741fba7f879ffb13000000000017a91412e21e37738b91fb359da62d08af8b86f219848b8702473044022045e94f21e3320d7c2b42891eb1e501af0f86c91316747b2bab1ae4b70097c0370220112ff6adcf91deacaebbb2b8a5bb56e8f460e2247dc056eb2ae3db1e5ea2a41f41210302b116dbd1f6cc738f744ba0aa241c50da6e16e2ef77bdc86aaaa04bbbb1b4120247304402201094530d99820f992ab1a3ec905f276fb74e094f80fbf107d8769e2b40222d7c02207b8e5cf0e82153a2ac722fa08c6ff4177b1f1922e553a82cefa0bdb707c3c5aa41210302b116dbd1f6cc738f744ba0aa241c50da6e16e2ef77bdc86aaaa04bbbb1b4120247304402201d00077dd8f96b5d85caedd06b16f1fc51151e8591414c28fe82563f6e94c75802201b7c032576053647036fa28ed052fa22c25abeb21e1b3bd1db6b0a402e9b99c141210302b116dbd1f6cc738f744ba0aa241c50da6e16e2ef77bdc86aaaa04bbbb1b4120247304402205f8e2600c71a9f3ae37138ff6f7c3e952022e3f834a8436d7880b33bbf65e3bd022049d2ab90e5cef229deda6080564fd7e8d21113d5bff4c5011a2761f46d1a866c41210302b116dbd1f6cc738f744ba0aa241c50da6e16e2ef77bdc86aaaa04bbbb1b412d1070000"
  },
  "inputs": [
    {
      "txid": "bc9606a43a0dee92071504ac85cdeebb84b32830d95fe6b0c45c9e653294da9d",
      "hash": "2af6b630c76ce2f566f454dda611ca54ad144f94f3e51ec68f0cb9afe84db127",
      "version": 2,
      "size": 171,
      "vsize": 144,
      "weight": 576,
      "locktime": 0,
      "vin": [
        {
          "coinbase": "02cc060101",
          "sequence": 4294967295
        }
      ],
      "vout": [
        {
          "value": 0.02441406,
          "n": 0,
          "scriptPubKey": {
            "asm": "OP_HASH160 3db240e7cf0b92857eb78d50cbe1004d31110128 OP_EQUAL",
            "hex": "a9143db240e7cf0b92857eb78d50cbe1004d3111012887",
            "reqSigs": 1,
            "type": "scripthash",
            "addresses": [
              "2MxsSkFwqEWCbdkv8S5zxRSG4fxmeCzpWPe"
            ]
          }
        },
        {
          "value": 0,
          "n": 1,
          "scriptPubKey": {
            "asm": "OP_RETURN aa21a9ede2f61c3f71d1defd3fa999dfa36953755c690689799962b48bebd836974e8cf9",
            "hex": "6a24aa21a9ede2f61c3f71d1defd3fa999dfa36953755c690689799962b48bebd836974e8cf9",
            "type": "nulldata"
          }
        }
      ],
      "hex": "020000000001010000000000000000000000000000000000000000000000000000000000000000ffffffff0502cc060101ffffffff02be4025000000000017a9143db240e7cf0b92857eb78d50cbe1004d31110128870000000000000000266a24aa21a9ede2f61c3f71d1defd3fa999dfa36953755c690689799962b48bebd836974e8cf90120000000000000000000000000000000000000000000000000000000000000000000000000",
      "blockhash": "5b160b657f8bac6a92aaffc14ca8f6fabe304c5cca4137c1ea69b58ddd53dd26",
      "confirmations": 262,
      "time": 1630068310,
      "blocktime": 1630068310
    },
    {
      "txid": "cc15d9ac69cc11e25272085ab81cfd7ef171f6de77cafbb4ee2f9901d3b4c3f9",
      "hash": "a58802432281a824148b7379e018ca5e31d41fce0760683d99d0bcb2616ea983",
      "version": 2,
      "size": 171,
      "vsize": 144,
      "weight": 576,
      "locktime": 0,
      "vin": [
        {
          "coinbase": "02ec040101",
          "sequence": 4294967295
        }
      ],
      "vout": [
        {
          "value": 0.1953125,
          "n": 0,
          "scriptPubKey": {
            "asm": "OP_HASH160 3db240e7cf0b92857eb78d50cbe1004d31110128 OP_EQUAL",
            "hex": "a9143db240e7cf0b92857eb78d50cbe1004d3111012887",
            "reqSigs": 1,
            "type": "scripthash",
            "addresses": [
              "2MxsSkFwqEWCbdkv8S5zxRSG4fxmeCzpWPe"
            ]
          }
        },
        {
          "value": 0,
          "n": 1,
          "scriptPubKey": {
            "asm": "OP_RETURN aa21a9ede2f61c3f71d1defd3fa999dfa36953755c690689799962b48bebd836974e8cf9",
            "hex": "6a24aa21a9ede2f61c3f71d1defd3fa999dfa36953755c690689799962b48bebd836974e8cf9",
            "type": "nulldata"
          }
        }
      ],
      "hex": "020000000001010000000000000000000000000000000000000000000000000000000000000000ffffffff0502ec040101ffffffff02f2052a010000000017a9143db240e7cf0b92857eb78d50cbe1004d31110128870000000000000000266a24aa21a9ede2f61c3f71d1defd3fa999dfa36953755c690689799962b48bebd836974e8cf90120000000000000000000000000000000000000000000000000000000000000000000000000",
      "blockhash": "262f1a0e7d9b1eabd560f5ca0d6d42ba8123b0a7d7e6d4820658f5eeab397e53",
      "confirmations": 742,
      "time": 1630068230,
      "blocktime": 1630068230
    },
    {
      "txid": "6a4d903e665560784bf0556e693beee943bdeac882b7c980d7267e849b44eb69",
      "hash": "ba52d65b6cad02c27bdf8bf8c065df89378a7c59ed0376f748b8c2f006a2ef3d",
      "version": 2,
      "size": 171,
      "vsize": 144,
      "weight": 576,
      "locktime": 0,
      "vin": [
        {
          "coinbase": "0252070101",
          "sequence": 4294967295
        }
      ],
      "vout": [
        {
          "value": 0.01220703,
          "n": 0,
          "scriptPubKey": {
            "asm": "OP_HASH160 3db240e7cf0b92857eb78d50cbe1004d31110128 OP_EQUAL",
            "hex": "a9143db240e7cf0b92857eb78d50cbe1004d3111012887",
            "reqSigs": 1,
            "type": "scripthash",
            "addresses": [
              "2MxsSkFwqEWCbdkv8S5zxRSG4fxmeCzpWPe"
            ]
          }
        },
        {
          "value": 0,
          "n": 1,
          "scriptPubKey": {
            "asm": "OP_RETURN aa21a9ede2f61c3f71d1defd3fa999dfa36953755c690689799962b48bebd836974e8cf9",
            "hex": "6a24aa21a9ede2f61c3f71d1defd3fa999dfa36953755c690689799962b48bebd836974e8cf9",
            "type": "nulldata"
          }
        }
      ],
      "hex": "020000000001010000000000000000000000000000000000000000000000000000000000000000ffffffff050252070101ffffffff025fa012000000000017a9143db240e7cf0b92857eb78d50cbe1004d31110128870000000000000000266a24aa21a9ede2f61c3f71d1defd3fa999dfa36953755c690689799962b48bebd836974e8cf90120000000000000000000000000000000000000000000000000000000000000000000000000",
      "blockhash": "337da82b88d9792abedc4e45dd5a955cc7286a00652df02e3c7c31148178f0cd",
      "confirmations": 128,
      "time": 1630068333,
      "blocktime": 1630068333
    },
    {
      "txid": "25d583200bd9870a6946ac3c32d98b5a751cc81d752a4c0e8a274325d390805b",
      "hash": "2c1c4bfdbaedd50c038c30cfc0f937e26330fb9846c1fd7001e1bd0ff07d6ea9",
      "version": 2,
      "size": 171,
      "vsize": 144,
      "weight": 576,
      "locktime": 0,
      "vin": [
        {
          "coinbase": "02f0030101",
          "sequence": 4294967295
        }
      ],
      "vout": [
        {
          "value": 0.78125,
          "n": 0,
          "scriptPubKey": {
            "asm": "OP_HASH160 3db240e7cf0b92857eb78d50cbe1004d31110128 OP_EQUAL",
            "hex": "a9143db240e7cf0b92857eb78d50cbe1004d3111012887",
            "reqSigs": 1,
            "type": "scripthash",
            "addresses": [
              "2MxsSkFwqEWCbdkv8S5zxRSG4fxmeCzpWPe"
            ]
          }
        },
        {
          "value": 0,
          "n": 1,
          "scriptPubKey": {
            "asm": "OP_RETURN aa21a9ede2f61c3f71d1defd3fa999dfa36953755c690689799962b48bebd836974e8cf9",
            "hex": "6a24aa21a9ede2f61c3f71d1defd3fa999dfa36953755c690689799962b48bebd836974e8cf9",
            "type": "nulldata"
          }
        }
      ],
      "hex": "020000000001010000000000000000000000000000000000000000000000000000000000000000ffffffff0502f0030101ffffffff02c817a8040000000017a9143db240e7cf0b92857eb78d50cbe1004d31110128870000000000000000266a24aa21a9ede2f61c3f71d1defd3fa999dfa36953755c690689799962b48bebd836974e8cf90120000000000000000000000000000000000000000000000000000000000000000000000000",
      "blockhash": "4d2b377e9a6670b7c5979590aebf9c3d78fb97b8cc23100d021dc27c0dd17db3",
      "confirmations": 994,
      "time": 1630068188,
      "blocktime": 1630068188
    }
  ]
}