{
  "transaction": {
    "txid": "e66ecb4443c01f641fc5eb9c04bfdae4871aaff7f4184bf3dd60783f626a1ccc",
    "hash": "3eae844cebf13760b9585ad18d3b2c1c19b6423929a378f349253843258b9806",
    "version": 2,
    "size": 760,
    "vsize": 438,
    "weight": 1750,
    "locktime": 2001,
    "vin": [
      {
        "txid": "0aa2866bfb2322b5e603497b28e42f6743dd2a91c4a7da9e9906577bd4bc5c5c",
        "vout": 0,
        "scriptSig": {
          "asm": "0014fb165e7875936b0b3d920676801a6b524b7f559d",
          "hex": "160014fb165e7875936b0b3d920676801a6b524b7f559d"
        },
        "txinwitness": [
          "304402205f3e2f1b42d26b9554eab5fe4ab3af721c0be5c445db567027b6b8e11b3f6961022060023348c8de4cda0d4e628555d5f2826225d6e24cd63212253f17b9cd25221641",
          "02fd6690992e8db4210c6c69f0c781622d26f3178d8533dfa33dd30ce199efeb6d"
        ],
        "sequence": 4294967294
      },
      {
        "txid": "72ea210031bcb8a83d848b9deaee3b360a66d867e16d5661c3b6c5beada74c51",
        "vout": 0,
        "scriptSig": {
          "asm": "0014fb165e7875936b0b3d920676801a6b524b7f559d",
          "hex": "160014fb165e7875936b0b3d920676801a6b524b7f559d"
        },
        "txinwitness": [
          "304402207e1911895879d0c6568709ec7ea30843a2845819207c35bba03b07018e3f00380220023ea6f261db982b6e3a51be175c4e1f9669c22aa3d6ff6ebb50ec69966faee241",
          "02fd6690992e8db4210c6c69f0c781622d26f3178d8533dfa33dd30ce199efeb6d"
        ],
        "sequence": 4294967294
      },
      {
        "txid": "7cb512641dfcab721f96b92fd75f7fd25d6f19ab0a17ec1b9cc84db5d451d09d",
        "vout": 0,
        "scriptSig": {
          "asm": "0014fb165e7875936b0b3d920676801a6b524b7f559d",
          "hex": "160014fb165e7875936b0b3d920676801a6b524b7f559d"
        },
        "txinwitness": [
          "304402204ee478e562b1ce18a91bfcffe450864fc104034c7f705f9fe6a499d4fec5973702204b107e04ae0462cca77761d0ceef6d11f63186d9c6df5a9da5eecd46df81d44a41",
          "02fd6690992e8db4210c6c69f0c781622d26f3178d8533dfa33dd30ce199efeb6d"
        ],
        "sequence": 4294967294
      },
      {
        "txid": "82038c9d78bb37f4e2f78cb2ac79abee75cf6eb80ebbaad343ebc45c6d5cd1dc",
        "vout": 0,
        "scriptSig": {
          "asm": "0014fb165e7875936b0b3d920676801a6b524b7f559d",
          "hex": "160014fb165e7875936b0b3d920676801a6b524b7f559d"
        },
        "txinwitness": [
          "30440220371c91d44d38680e93408000bb64c4f4758b72e1ae6dafd70d295f17f4787349022061b7cd7b772d089e74670394979efeb608880919233770050dfce5e8b8b816b141",
          "02fd6690992e8db4210c6c69f0c781622d26f3178d8533dfa33dd30ce199efeb6d"
        ],
        "sequence": 4294967294
      }
    ],
    "vout": [
      {
        "value": 1,
        "n": 0,
        "scriptPubKey": {
          "asm": "OP_HASH160 2280193aca8462021ec369d4e2ff1c95741fba7f OP_EQUAL",
          "hex": "a9142280193aca8462021ec369d4e2ff1c95741fba7f87",
          "reqSigs": 1,
          "type": "scripthash",
          "addresses": [
            "2MvPeRFSGYJq9BXoV2fxrMpJjsZMGx2m6Zk"
          ]
        }
      },
      {
        "value": 0.01309599,
        "n": 1,
        "scriptPubKey": {
          "asm": "OP_HASH160 0b813ecd555a7e3f6cd1134db1a8165f281af25d OP_EQUAL",
          "hex": "a9140b813ecd555a7e3f6cd1134db1a8165f281af25d87",
          "reqSigs": 1,
          "type": "scripthash",
          "addresses": [
            "2MtJ4FWuQvRjTh7kgm9kbxDFLFngzZLCFu2"
          ]
        }
      }
    ],
    "hex": "020000000001045c5cbcd47b5706999edaa7c4912add43672fe4287b4903e6b52223fb6b86a20a0000000017160014fb165e7875936b0b3d920676801a6b524b7f559dfeffffff514ca7adbec5b6c361566de167d8660a363beeea9d8b843da8b8bc310021ea720000000017160014fb165e7875936b0b3d920676801a6b524b7f559dfeffffff9dd051d4b54dc89c1bec170aab196f5dd27f5fd72fb9961f72abfc1d6412b57c0000000017160014fb165e7875936b0b3d920676801a6b524b7f559dfeffffffdcd15c6d5cc4eb43d3aabb0eb86ecf75eeab79acb28cf7e2f437bb789d8c03820000000017160014fb165e7875936b0b3d920676801a6b524b7f559dfeffffff0200e1f5050000000017a9142280193aca8462021ec369d4e2ff1c95741fba7f879ffb13000000000017a9140b813ecd555a7e3f6cd1134db1a8165f281af25d870247304402205f3e2f1b42d26b9554eab5fe4ab3af721c0be5c445db567027b6b8e11b3f6961022060023348c8de4cda0d4e628555d5f2826225d6e24cd63212253f17b9cd252216412102fd6690992e8db4210c6c69f0c781622d26f3178d8533dfa33dd30ce199efeb6d0247304402207e1911895879d0c6568709ec7ea30843a2845819207c35bba03b07018e3f00380220023ea6f261db982b6e3a51be175c4e1f9669c22aa3d6ff6ebb50ec69966faee2412102fd6690992e8db4210c6c69f0c781622d26f3178d8533dfa33dd30ce199efeb6d0247304402204ee478e562b1ce18a91bfcffe450864fc104034c7f705f9fe6a499d4fec5973702204b107e04ae0462cca77761d0ceef6d11f63186d9c6df5a9da5eecd46df81d44a412102fd6690992e8db4210c6c69f0c781622d26f3178d8533dfa33dd30ce199efeb6d024730440220371c91d44d38680e93408000bb64c4f4758b72e1ae6dafd70d295f17f4787349022061b7cd7b772d089e74670394979efeb608880919233770050dfce5e8b8b816b1412102fd6690992e8db4210c6c69f0c781622d26f3178d8533dfa33dd30ce199efeb6dd1070000"
  },
  "inputs": [
    {
      "txid": "0aa2866bfb2322b5e603497b28e42f6743dd2a91c4a7da9e9906577bd4bc5c5c",
      "hash": "052b2c5d15a867661095bb40b4b9a7c2ee2d949c5716dd9529e80bbf31dee47c",
      "version": 2,
      "size": 171,
      "vsize": 144,
      "weight": 576,
      "locktime": 0,
      "vin": [
        {
          "coinbase": "02ba040101",
          "sequence": 4294967295
        }
      ],
      "vout": [
        {
          "value": 0.1953125,
          "n": 0,
          "scriptPubKey": {
            "asm": "OP_HASH160 137d76c5c1138d03f647cd256de72b1ab438b8eb OP_EQUAL",
            "hex": "a914137d76c5c1138d03f647cd256de72b1ab438b8eb87",
            "reqSigs": 1,
            "type": "scripthash",
            "addresses": [
              "2Mu2H8KM9FA3apaXkDcVHZsKTUcnKUPwsL4"
            ]
          }
        },
        {
          "value": 0,
          "n": 1,
          "scriptPubKey": {
            "asm": "OP_RETURN aa21a9ede2f61c3f71d1defd3fa999dfa36953755c690689799962b48bebd836974e8cf9",
            "hex": "6a24aa21a9ede2f61c3f71d1defd3fa999dfa36953755c690689799962b48bebd836974e8cf9",
            "type": "nulldata"
          }
        }
      ],
      "hex": "020000000001010000000000000000000000000000000000000000000000000000000000000000ffffffff0502ba040101ffffffff02f2052a010000000017a914137d76c5c1138d03f647cd256de72b1ab438b8eb870000000000000000266a24aa21a9ede2f61c3f71d1defd3fa999dfa36953755c690689799962b48bebd836974e8cf90120000000000000000000000000000000000000000000000000000000000000000000000000",
      "blockhash": "3780be6060bfc304ba0a7b80b341e649f43ea7d51299b390edcd8f89a5d0f06e",
      "confirmations": 792,
      "time": 1635930742,
      "blocktime": 1635930742
    },
    {
      "txid": "72ea210031bcb8a83d848b9deaee3b360a66d867e16d5661c3b6c5beada74c51",
      "hash": "79eb92140f6cb7513ce2acf828ad7514bf75548179da8a2d552d79a5d85451a2",
      "version": 2,
      "size": 171,
      "vsize": 144,
      "weight": 576,
      "locktime": 0,
      "vin": [
        {
          "coinbase": "021d070101",
          "sequence": 4294967295
        }
      ],
      "vout": [
        {
          "value": 0.01220703,
          "n": 0,
          "scriptPubKey": {
            "asm": "OP_HASH160 137d76c5c1138d03f647cd256de72b1ab438b8eb OP_EQUAL",
            "hex": "a914137d76c5c1138d03f647cd256de72b1ab438b8eb87",
            "reqSigs": 1,
            "type": "scripthash",
            "addresses": [
              "2Mu2H8KM9FA3apaXkDcVHZsKTUcnKUPwsL4"
            ]
          }
        },
        {
          "value": 0,
          "n": 1,
          "scriptPubKey": {
            "asm": "OP_RETURN aa21a9ede2f61c3f71d1defd3fa999dfa36953755c690689799962b48bebd836974e8cf9",
            "hex": "6a24aa21a9ede2f61c3f71d1defd3fa999dfa36953755c690689799962b48bebd836974e8cf9",
            "type": "nulldata"
          }
        }
      ],
      "hex": "020000000001010000000000000000000000000000000000000000000000000000000000000000ffffffff05021d070101ffffffff025fa012000000000017a914137d76c5c1138d03f647cd256de72b1ab438b8eb870000000000000000266a24aa21a9ede2f61c3f71d1defd3fa999dfa36953755c690689799962b48bebd836974e8cf90120000000000000000000000000000000000000000000000000000000000000000000000000",
      "blockhash": "540c6eb8b25f45795feb9170dedf90f5c8ab1b9f0a6a9bc4b02ee0fe05bd479e",
      "confirmations": 181,
      "time": 1635930844,
      "blocktime": 1635930844
    },
    {
      "txid": "7cb512641dfcab721f96b92fd75f7fd25d6f19ab0a17ec1b9cc84db5d451d09d",
      "hash": "bfaeac5b01cfc7d2919f9c8e86869074f463eba5c6a83bd000f4161a580031f9",
      "version": 2,
      "size": 171,
      "vsize": 144,
      "weight": 576,
      "locktime": 0,
      "vin": [
        {
          "coinbase": "029e030101",
          "sequence": 4294967295
        }
      ],
      "vout": [
        {
          "value": 0.78125,
          "n": 0,
          "scriptPubKey": {
            "asm": "OP_HASH160 137d76c5c1138d03f647cd256de72b1ab438b8eb OP_EQUAL",
            "hex": "a914137d76c5c1138d03f647cd256de72b1ab438b8eb87",
            "reqSigs": 1,
            "type": "scripthash",
            "addresses": [
              "2Mu2H8KM9FA3apaXkDcVHZsKTUcnKUPwsL4"
            ]
          }
        },
        {
          "value": 0,
          "n": 1,
          "scriptPubKey": {
            "asm": "OP_RETURN aa21a9ede2f61c3f71d1defd3fa999dfa36953755c690689799962b48bebd836974e8cf9",
            "hex": "6a24aa21a9ede2f61c3f71d1defd3fa999dfa36953755c690689799962b48bebd836974e8cf9",
            "type": "nulldata"
          }
        }
      ],
      "hex": "020000000001010000000000000000000000000000000000000000000000000000000000000000ffffffff05029e030101ffffffff02c817a8040000000017a914137d76c5c1138d03f647cd256de72b1ab438b8eb870000000000000000266a24aa21a9ede2f61c3f71d1defd3fa999dfa36953755c690689799962b48bebd836974e8cf90120000000000000000000000000000000000000000000000000000000000000000000000000",
      "blockhash": "00e159cc0e696848af3eee12676e277edf1dc911332709b4239e919c09cfd50b",
      "confirmations": 1076,
      "time": 1635930695,
      "blocktime": 1635930695
    },
    {
      "txid": "82038c9d78bb37f4e2f78cb2ac79abee75cf6eb80ebbaad343ebc45c6d5cd1dc",
      "hash": "b635cbe3bb6975404f04742da1fe674e35839e2812c16ac907cbaa6dfbc8f8e4",
      "version": 2,
      "size": 171,
      "vsize": 144,
      "weight": 576,
      "locktime": 0,
      "vin": [
        {
          "coinbase": "02f4060101",
          "sequence": 4294967295
        }
      ],
      "vout": [
        {
          "value": 0.02441406,
          "n": 0,
          "scriptPubKey": {
            "asm": "OP_HASH160 137d76c5c1138d03f647cd256de72b1ab438b8eb OP_EQUAL",
            "hex": "a914137d76c5c1138d03f647cd256de72b1ab438b8eb87",
            "reqSigs": 1,
            "type": "scripthash",
            "addresses": [
              "2Mu2H8KM9FA3apaXkDcVHZsKTUcnKUPwsL4"
            ]
          }
        },
        {
          "value": 0,
          "n": 1,
          "scriptPubKey": {
            "asm": "OP_RETURN aa21a9ede2f61c3f71d1defd3fa999dfa36953755c690689799962b48bebd836974e8cf9",
            "hex": "6a24aa21a9ede2f61c3f71d1defd3fa999dfa36953755c690689799962b48bebd836974e8cf9",
            "type": "nulldata"
          }
        }
      ],
      "hex": "020000000001010000000000000000000000000000000000000000000000000000000000000000ffffffff0502f4060101ffffffff02be4025000000000017a914137d76c5c1138d03f647cd256de72b1ab438b8eb870000000000000000266a24aa21a9ede2f61c3f71d1defd3fa999dfa36953755c690689799962b48bebd836974e8cf90120000000000000000000000000000000000000000000000000000000000000000000000000",
      "blockhash": "350b868831039acf3e3fe52121dda05d036dc879aa79373257163e71df0d8e27",
      "confirmations": 222,
      "time": 1635930837,
      "blocktime": 1635930837
    }
  ]
}