{
  "transaction": {
    "txid": "ac2bd1758bbc25e15dc6a7b206c89aea7f235cf2791327531c8a3b939e3cadfb",
    "hash": "b2a56b8f54b3bd80234d0d214a716a1aef7b0b92b3134cbe3766c97f69dc86d4",
    "version": 2,
    "size": 758,
    "vsize": 436,
    "weight": 1742,
    "locktime": 2001,
    "vin": [
      {
        "txid": "14880a4f09b6adf42451e71259618ead83e245acf8adb36b7fec9bec4c65081e",
        "vout": 0,
        "scriptSig": {
          "asm": "0014fb165e7875936b0b3d920676801a6b524b7f559d",
          "hex": "160014fb165e7875936b0b3d920676801a6b524b7f559d"
        },
        "txinwitness": [
          "304402200aaedf2be438149a0d6f60f9c4890906ec4afdc5fb8e20c5598f299629f019e8022062558767546df60ac98767b97cfe06c5527b73a251e4bb2fd3f5b84a14f7357a41",
          "02fd6690992e8db4210c6c69f0c781622d26f3178d8533dfa33dd30ce199efeb6d"
        ],
        "sequence": 4294967294
      },
      {
        "txid": "482e8ef1f2ab921179334a62b99341c0f59f0cdb52a67b2d7da435f563e80034",
        "vout": 0,
        "scriptSig": {
          "asm": "0014fb165e7875936b0b3d920676801a6b524b7f559d",
          "hex": "160014fb165e7875936b0b3d920676801a6b524b7f559d"
        },
        "txinwitness": [
          "3044022043a2d54c955eeb946fbb2e864d9563de569fa59004f07bea731072803a45b9b302205acf1c0e831c726ac2f9abca2ab31b68a4608c708e292400dc8d070b02711d4c41",
          "02fd6690992e8db4210c6c69f0c781622d26f3178d8533dfa33dd30ce199efeb6d"
        ],
        "sequence": 4294967294
      },
      {
        "txid": "c2d583cd37132c99b6acb97ac0990b7b1756a2f30fcf9859b54e25b33b075e13",
        "vout": 0,
        "scriptSig": {
          "asm": "0014fb165e7875936b0b3d920676801a6b524b7f559d",
          "hex": "160014fb165e7875936b0b3d920676801a6b524b7f559d"
        },
        "txinwitness": [
          "3044022034f9c1e96ee5c3902f955a3a718f296b92eb36b8a8d77f17fd2c35e32d7303b702201d44fc9e92c8b85a974a1827f5a9aae9efb192f1a08f925039a6497584b9f6f241",
          "02fd6690992e8db4210c6c69f0c781622d26f3178d8533dfa33dd30ce199efeb6d"
        ],
        "sequence": 4294967294
      },
      {
        "txid": "c9293b6f0561a472225bdbd661884beb58af98a80109b5f9b391a4ed7dd8946a",
        "vout": 0,
        "scriptSig": {
          "asm": "0014fb165e7875936b0b3d920676801a6b524b7f559d",
          "hex": "160014fb165e7875936b0b3d920676801a6b524b7f559d"
        },
        "txinwitness": [
          "304402207eb9d50294e7652472ccd9f351913cdf162b6e258b913f6a65814bb72eb1e6af02204cd423c0540c18c9fa083a3425b76407d67b8635ebf2afa7132e4f6e99231e8e41",
          "02fd6690992e8db4210c6c69f0c781622d26f3178d8533dfa33dd30ce199efeb6d"
        ],
        "sequence": 4294967294
      }
    ],
    "vout": [
      {
        "value": 0.01309639,
        "n": 0,
        "scriptPubKey": {
          "asm": "0 8f7b5154e381ba84366e575b0ad9c2e040f927b8",
          "hex": "00148f7b5154e381ba84366e575b0ad9c2e040f927b8",
          "reqSigs": 1,
          "type": "witness_v0_keyhash",
          "addresses": [
            "btgrt1q3aa4z48rsxaggdnw2ads4kwzupq0jfacknhprq"
          ]
        }
      },
      {
        "value": 1,
        "n": 1,
        "scriptPubKey": {
          "asm": "0 d2eb140d8b7006e7b862827043f9cddd50da9811",
          "hex": "0014d2eb140d8b7006e7b862827043f9cddd50da9811",
          "reqSigs": 1,
          "type": "witness_v0_keyhash",
          "addresses": [
            "btgrt1q6t43grvtwqrw0wrzsfcy87wdm4gd4xq33v30vf"
          ]
        }
      }
    ],
    "hex": "020000000001041e08654cec9bec7f6bb3adf8ac45e283ad8e615912e75124f4adb6094f0a88140000000017160014fb165e7875936b0b3d920676801a6b524b7f559dfeffffff3400e863f535a47d2d7ba652db0c9ff5c04193b9624a33791192abf2f18e2e480000000017160014fb165e7875936b0b3d920676801a6b524b7f559dfeffffff135e073bb3254eb55998cf0ff3a256177b0b99c07ab9acb6992c1337cd83d5c20000000017160014fb165e7875936b0b3d920676801a6b524b7f559dfeffffff6a94d87deda491b3f9b50901a898af58eb4b8861d6db5b2272a461056f3b29c90000000017160014fb165e7875936b0b3d920676801a6b524b7f559dfeffffff02c7fb1300000000001600148f7b5154e381ba84366e575b0ad9c2e040f927b800e1f50500000000160014d2eb140d8b7006e7b862827043f9cddd50da98110247304402200aaedf2be438149a0d6f60f9c4890906ec4afdc5fb8e20c5598f299629f019e8022062558767546df60ac98767b97cfe06c5527b73a251e4bb2fd3f5b84a14f7357a412102fd6690992e8db4210c6c69f0c781622d26f3178d8533dfa33dd30ce199efeb6d02473044022043a2d54c955eeb946fbb2e864d9563de569fa59004f07bea731072803a45b9b302205acf1c0e831c726ac2f9abca2ab31b68a4608c708e292400dc8d070b02711d4c412102fd6690992e8db4210c6c69f0c781622d26f3178d8533dfa33dd30ce199efeb6d02473044022034f9c1e96ee5c3902f955a3a718f296b92eb36b8a8d77f17fd2c35e32d7303b702201d44fc9e92c8b85a974a1827f5a9aae9efb192f1a08f925039a6497584b9f6f2412102fd6690992e8db4210c6c69f0c781622d26f3178d8533dfa33dd30ce199efeb6d0247304402207eb9d50294e7652472ccd9f351913cdf162b6e258b913f6a65814bb72eb1e6af02204cd423c0540c18c9fa083a3425b76407d67b8635ebf2afa7132e4f6e99231e8e412102fd6690992e8db4210c6c69f0c781622d26f3178d8533dfa33dd30ce199efeb6dd1070000"
  },
  "inputs": [
    {
      "txid": "14880a4f09b6adf42451e71259618ead83e245acf8adb36b7fec9bec4c65081e",
      "hash": "de6c0e30995832981bbf7c64eb326b6db232d4f0039142981b86e3eff0637fc6",
      "version": 2,
      "size": 171,
      "vsize": 144,
      "weight": 576,
      "locktime": 0,
      "vin": [
        {
          "coinbase": "0209070101",
          "sequence": 4294967295
        }
      ],
      "vout": [
        {
          "value": 0.01220703,
          "n": 0,
          "scriptPubKey": {
            "asm": "OP_HASH160 137d76c5c1138d03f647cd256de72b1ab438b8eb OP_EQUAL",
            "hex": "a914137d76c5c1138d03f647cd256de72b1ab438b8eb87",
            "reqSigs": 1,
            "type": "scripthash",
            "addresses": [
              "2Mu2H8KM9FA3apaXkDcVHZsKTUcnKUPwsL4"
            ]
          }
        },
        {
          "value": 0,
          "n": 1,
          "scriptPubKey": {
            "asm": "OP_RETURN aa21a9ede2f61c3f71d1defd3fa999dfa36953755c690689799962b48bebd836974e8cf9",
            "hex": "6a24aa21a9ede2f61c3f71d1defd3fa999dfa36953755c690689799962b48bebd836974e8cf9",
            "type": "nulldata"
          }
        }
      ],
      "hex": "020000000001010000000000000000000000000000000000000000000000000000000000000000ffffffff050209070101ffffffff025fa012000000000017a914137d76c5c1138d03f647cd256de72b1ab438b8eb870000000000000000266a24aa21a9ede2f61c3f71d1defd3fa999dfa36953755c690689799962b48bebd836974e8cf90120000000000000000000000000000000000000000000000000000000000000000000000000",
      "blockhash": "5604930aa3bcbef026eb8989fa18af9dc636dc9ea836a21470938bdcf61a2d15",
      "confirmations": 201,
      "time": 1635930840,
      "blocktime": 1635930840
    },
    {
      "txid": "482e8ef1f2ab921179334a62b99341c0f59f0cdb52a67b2d7da435f563e80034",
      "hash": "f00bdfc468e7141f731498096409220a61bce0b7af8e6785b41203bb5f9e25f3",
      "version": 2,
      "size": 171,
      "vsize": 144,
      "weight": 576,
      "locktime": 0,
      "vin": [
        {
          "coinbase": "02d6030101",
          "sequence": 4294967295
        }
      ],
      "vout": [
        {
          "value": 0.78125,
          "n": 0,
          "scriptPubKey": {
            "asm": "OP_HASH160 137d76c5c1138d03f647cd256de72b1ab438b8eb OP_EQUAL",
            "hex": "a914137d76c5c1138d03f647cd256de72b1ab438b8eb87",
            "reqSigs": 1,
            "type": "scripthash",
            "addresses": [
              "2Mu2H8KM9FA3apaXkDcVHZsKTUcnKUPwsL4"
            ]
          }
        },
        {
          "value": 0,
          "n": 1,
          "scriptPubKey": {
            "asm": "OP_RETURN aa21a9ede2f61c3f71d1defd3fa999dfa36953755c690689799962b48bebd836974e8cf9",
            "hex": "6a24aa21a9ede2f61c3f71d1defd3fa999dfa36953755c690689799962b48bebd836974e8cf9",
            "type": "nulldata"
          }
        }
      ],
      "hex": "020000000001010000000000000000000000000000000000000000000000000000000000000000ffffffff0502d6030101ffffffff02c817a8040000000017a914137d76c5c1138d03f647cd256de72b1ab438b8eb870000000000000000266a24aa21a9ede2f61c3f71d1defd3fa999dfa36953755c690689799962b48bebd836974e8cf90120000000000000000000000000000000000000000000000000000000000000000000000000",
      "blockhash": "6c13f32521262d8ecfdf1d7e08250595a7fb8939a3ed094e40b98c5f3fecb50e",
      "confirmations": 1020,
      "time": 1635930704,
      "blocktime": 1635930704
    },
    {
      "txid": "c2d583cd37132c99b6acb97ac0990b7b1756a2f30fcf9859b54e25b33b075e13",
      "hash": "87c156b170fa93b6a6c8939473775df3befcd0440b7432e9a8e79037f738a2de",
      "version": 2,
      "size": 171,
      "vsize": 144,
      "weight": 576,
      "locktime": 0,
      "vin": [
        {
          "coinbase": "0244050101",
          "sequence": 4294967295
        }
      ],
      "vout": [
        {
          "value": 0.1953125,
          "n": 0,
          "scriptPubKey": {
            "asm": "OP_HASH160 137d76c5c1138d03f647cd256de72b1ab438b8eb OP_EQUAL",
            "hex": "a914137d76c5c1138d03f647cd256de72b1ab438b8eb87",
            "reqSigs": 1,
            "type": "scripthash",
            "addresses": [
              "2Mu2H8KM9FA3apaXkDcVHZsKTUcnKUPwsL4"
            ]
          }
        },
        {
          "value": 0,
          "n": 1,
          "scriptPubKey": {
            "asm": "OP_RETURN aa21a9ede2f61c3f71d1defd3fa999dfa36953755c690689799962b48bebd836974e8cf9",
            "hex": "6a24aa21a9ede2f61c3f71d1defd3fa999dfa36953755c690689799962b48bebd836974e8cf9",
            "type": "nulldata"
          }
        }
      ],
      "hex": "020000000001010000000000000000000000000000000000000000000000000000000000000000ffffffff050244050101ffffffff02f2052a010000000017a914137d76c5c1138d03f647cd256de72b1ab438b8eb870000000000000000266a24aa21a9ede2f61c3f71d1defd3fa999dfa36953755c690689799962b48bebd836974e8cf90120000000000000000000000000000000000000000000000000000000000000000000000000",
      "blockhash": "6309f856ddd51790c8209dee464b2467260ca80dfe720f88ba0f237ac177cd7b",
      "confirmations": 654,
      "time": 1635930765,
      "blocktime": 1635930765
    },
    {
      "txid": "c9293b6f0561a472225bdbd661884beb58af98a80109b5f9b391a4ed7dd8946a",
      "hash": "6ecb5589fe8b8dcf8d469bc4b1476aa0caff6f4e27afecb33e8d732722e6ee4a",
      "version": 2,
      "size": 171,
      "vsize": 144,
      "weight": 576,
      "locktime": 0,
      "vin": [
        {
          "coinbase": "02f9060101",
          "sequence": 4294967295
        }
      ],
      "vout": [
        {
          "value": 0.02441406,
          "n": 0,
          "scriptPubKey": {
            "asm": "OP_HASH160 137d76c5c1138d03f647cd256de72b1ab438b8eb OP_EQUAL",
            "hex": "a914137d76c5c1138d03f647cd256de72b1ab438b8eb87",
            "reqSigs": 1,
            "type": "scripthash",
            "addresses": [
              "2Mu2H8KM9FA3apaXkDcVHZsKTUcnKUPwsL4"
            ]
          }
        },
        {
          "value": 0,
          "n": 1,
          "scriptPubKey": {
            "asm": "OP_RETURN aa21a9ede2f61c3f71d1defd3fa999dfa36953755c690689799962b48bebd836974e8cf9",
            "hex": "6a24aa21a9ede2f61c3f71d1defd3fa999dfa36953755c690689799962b48bebd836974e8cf9",
            "type": "nulldata"
          }
        }
      ],
      "hex": "020000000001010000000000000000000000000000000000000000000000000000000000000000ffffffff0502f9060101ffffffff02be4025000000000017a914137d76c5c1138d03f647cd256de72b1ab438b8eb870000000000000000266a24aa21a9ede2f61c3f71d1defd3fa999dfa36953755c690689799962b48bebd836974e8cf90120000000000000000000000000000000000000000000000000000000000000000000000000",
      "blockhash": "4431de5311c019318c9d3c68180b27c39c8bc9299e171ae05dcea866e9c95142",
      "confirmations": 217,
      "time": 1635930838,
      "blocktime": 1635930838
    }
  ]
}