{
  "transaction": {
    "txid": "8ea50236cd264cf8ffab4ad2782d86c0197a4ed186081713b4acba63cba588b4",
    "hash": "06692eea2926b5846abaf7b0cce07bafb7d50340f881c7c100147bd402a4a28b",
    "version": 1,
    "size": 348,
    "vsize": 158,
    "weight": 630,
    "locktime": 0,
    "vin": [
      {
        "txid": "7d3ab8350d8bc884a208f52d84e87cc747cb8b80a6f265165bcc2b4f43f51fb5",
        "vout": 1,
        "scriptSig": {
          "asm": "",
          "hex": ""
        },
        "txinwitness": [
          "",
          "30440220225f2b6e5358b15c87da5ee5663e44da4d003e2077f7bd1737f91e482342466e022055ce0128441e684037f7c18c777040af437833d02fe847890bbf4190a07d8e9f41",
          "304402205e0b0a15e593c807185c0ab4661a6e9c0016fc621929229ac12c32ca88be96d00220362838ff829cdeebee8769e269dd919ff7b45ebb27a7442b9457cd6c3ce2218841",
          "5221028fedaf75b5b08cddf3bf4631c658b68ee6766a8e999467a641d7cb7aaaecec972103316bc27d95b96418349afc6298c259bb999c6e8f39a7217787ad53602be7c1472102e21c29b4a7eeace9c7a8cefb568ca00c86ff9bf5e79e07e5442c29d4a0950d0453ae"
        ],
        "sequence": 4294967295
      }
    ],
    "vout": [
      {
        "value": 0.99999,
        "n": 0,
        "scriptPubKey": {
          "asm": "0 1553f31a3e25e770b7bc857b82909e83734dbfe4bcdb5a5e6fc419b6920c398a",
          "hex": "00201553f31a3e25e770b7bc857b82909e83734dbfe4bcdb5a5e6fc419b6920c398a",
          "reqSigs": 1,
          "type": "witness_v0_scripthash",
          "addresses": [
            "btgrt1qz4flxx37yhnhpdaus4ac9yy7sde5m0lyhnd45hn0csvmdysv8x9qmez7qc"
          ]
        }
      }
    ],
    "hex": "01000000000101b51ff5434f2bcc5b1665f2a6808bcb47c77ce8842df508a284c88b0d35b83a7d0100000000ffffffff0118ddf505000000002200201553f31a3e25e770b7bc857b82909e83734dbfe4bcdb5a5e6fc419b6920c398a04004730440220225f2b6e5358b15c87da5ee5663e44da4d003e2077f7bd1737f91e482342466e022055ce0128441e684037f7c18c777040af437833d02fe847890bbf4190a07d8e9f4147304402205e0b0a15e593c807185c0ab4661a6e9c0016fc621929229ac12c32ca88be96d00220362838ff829cdeebee8769e269dd919ff7b45ebb27a7442b9457cd6c3ce2218841695221028fedaf75b5b08cddf3bf4631c658b68ee6766a8e999467a641d7cb7aaaecec972103316bc27d95b96418349afc6298c259bb999c6e8f39a7217787ad53602be7c1472102e21c29b4a7eeace9c7a8cefb568ca00c86ff9bf5e79e07e5442c29d4a0950d0453ae00000000"
  },
  "inputs": [
    {
      "txid": "7d3ab8350d8bc884a208f52d84e87cc747cb8b80a6f265165bcc2b4f43f51fb5",
      "hash": "852e17a178705eebc4f224c0371118a617c495f3b57fdfec16a7c1317bf98cbf",
      "version": 2,
      "size": 770,
      "vsize": 448,
      "weight": 1790,
      "locktime": 2001,
      "vin": [
        {
          "txid": "5c4b300740ffb50de5ee14a71b444227a55802317846292c99eb74f036bb2fa1",
          "vout": 0,
          "scriptSig": {
            "asm": "0014af8f39453d39484eb324378fdf67488741c25b6f",
            "hex": "160014af8f39453d39484eb324378fdf67488741c25b6f"
          },
          "txinwitness": [
            "3044022048becae49ee862a5196cb0e60e39a760e468a41f98b3fbdbe2d9f94994587820022046401b12cfebcb04f5a22d72ecec5edba041590f264fa14d5e5e314f0da6b73a41",
            "03934e6567f283e5c74875300761dfc2884df23bae2771cffcc1dda9805c0c7e8e"
          ],
          "sequence": 4294967294
        },
        {
          "txid": "32cbf45d19e838e032999fa9789fe6a8c9bcf4707ee2e412e74be7b571504baa",
          "vout": 0,
          "scriptSig": {
            "asm": "0014af8f39453d39484eb324378fdf67488741c25b6f",
            "hex": "160014af8f39453d39484eb324378fdf67488741c25b6f"
          },
          "txinwitness": [
            "304402202a1f83d21a88bca2f016017530cda421ae9b91d64f56db89cf1746eeb00893b402207a53f3dda3101d1908300825ea442d304151b9ffdb2af09fdfbaeeda6d26a95f41",
            "03934e6567f283e5c74875300761dfc2884df23bae2771cffcc1dda9805c0c7e8e"
          ],
          "sequence": 4294967294
        },
        {
          "txid": "372c0bb47fdfd197a8e50ab2802a7a3313742278e2ddea0fd9ac6118a86a48ec",
          "vout": 0,
          "scriptSig": {
            "asm": "0014af8f39453d39484eb324378fdf67488741c25b6f",
            "hex": "160014af8f39453d39484eb324378fdf67488741c25b6f"
          },
          "txinwitness": [
            "3044022016949321be33d0576ff5c26b88420346fa2b53efb8731e4f48f73bd38142d812022026d4ebaabe2e68f515194a1f135afc4eadfc536e988500a86c08070ac8787a6d41",
            "03934e6567f283e5c74875300761dfc2884df23bae2771cffcc1dda9805c0c7e8e"
          ],
          "sequence": 4294967294
        },
        {
          "txid": "9dadafb2aaef020873cd60fa2e4630bb8e5ddf9a7d305c01b58f7c32a1be5443",
          "vout": 0,
          "scriptSig": {
            "asm": "0014af8f39453d39484eb324378fdf67488741c25b6f",
            "hex": "160014af8f39453d39484eb324378fdf67488741c25b6f"
          },
          "txinwitness": [
            "304402206afc25662c5470197b747a994d91dda311731738bc948e1d0c790b87e13bcc770220750aaca828a345836c3e49fe057a20c91f9d8e2afe0faae10d7d5f749737ac8241",
            "03934e6567f283e5c74875300761dfc2884df23bae2771cffcc1dda9805c0c7e8e"
          ],
          "sequence": 4294967294
        }
      ],
      "vout": [
        {
          "value": 0.01309399,
          "n": 0,
          "scriptPubKey": {
            "asm": "0 ef356f6eb693a7052a44ea131a337a385cf33fd3",
            "hex": "0014ef356f6eb693a7052a44ea131a337a385cf33fd3",
            "reqSigs": 1,
            "type": "witness_v0_keyhash",
            "addresses": [
              "btgrt1qau6k7m4kjwns22jyagf35vm68pw0x07nslpwvd"
            ]
          }
        },
        {
          "value": 1,
          "n": 1,
          "scriptPubKey": {
            "asm": "0 1553f31a3e25e770b7bc857b82909e83734dbfe4bcdb5a5e6fc419b6920c398a",
            "hex": "00201553f31a3e25e770b7bc857b82909e83734dbfe4bcdb5a5e6fc419b6920c398a",
            "reqSigs": 1,
            "type": "witness_v0_scripthash",
            "addresses": [
              "btgrt1qz4flxx37yhnhpdaus4ac9yy7sde5m0lyhnd45hn0csvmdysv8x9qmez7qc"
            ]
          }
        }
      ],
      "hex": "02000000000104a12fbb36f074eb992c294678310258a52742441ba714eee50db5ff4007304b5c0000000017160014af8f39453d39484eb324378fdf67488741c25b6ffeffffffaa4b5071b5e74be712e4e27e70f4bcc9a8e69f78a99f9932e038e8195df4cb320000000017160014af8f39453d39484eb324378fdf67488741c25b6ffeffffffec486aa81861acd90feadde278227413337a2a80b20ae5a897d1df7fb40b2c370000000017160014af8f39453d39484eb324378fdf67488741c25b6ffeffffff4354bea1327c8fb5015c307d9adf5d8ebb30462efa60cd730802efaab2afad9d0000000017160014af8f39453d39484eb324378fdf67488741c25b6ffeffffff02d7fa130000000000160014ef356f6eb693a7052a44ea131a337a385cf33fd300e1f505000000002200201553f31a3e25e770b7bc857b82909e83734dbfe4bcdb5a5e6fc419b6920c398a02473044022048becae49ee862a5196cb0e60e39a760e468a41f98b3fbdbe2d9f94994587820022046401b12cfebcb04f5a22d72ecec5edba041590f264fa14d5e5e314f0da6b73a412103934e6567f283e5c74875300761dfc2884df23bae2771cffcc1dda9805c0c7e8e0247304402202a1f83d21a88bca2f016017530cda421ae9b91d64f56db89cf1746eeb00893b402207a53f3dda3101d1908300825ea442d304151b9ffdb2af09fdfbaeeda6d26a95f412103934e6567f283e5c74875300761dfc2884df23bae2771cffcc1dda9805c0c7e8e02473044022016949321be33d0576ff5c26b88420346fa2b53efb8731e4f48f73bd38142d812022026d4ebaabe2e68f515194a1f135afc4eadfc536e988500a86c08070ac8787a6d412103934e6567f283e5c74875300761dfc2884df23bae2771cffcc1dda9805c0c7e8e0247304402206afc25662c5470197b747a994d91dda311731738bc948e1d0c790b87e13bcc770220750aaca828a345836c3e49fe057a20c91f9d8e2afe0faae10d7d5f749737ac82412103934e6567f283e5c74875300761dfc2884df23bae2771cffcc1dda9805c0c7e8ed1070000"
    }
  ]
}