{
  "txid": "7c063c0f675e27a1e448e2ec8176c05e77e7290bd0eade69038c47272473df96",
  "hash": "02133f13ec733c77a5a2fb019f393f716f01f7f6e67e5760fd227b530f430139",
  "version": 1,
  "size": 349,
  "vsize": 158,
  "weight": 631,
  "locktime": 0,
  "vin": [
    {
      "txid": "bbe6b559a889f2f0cc1d03875671b805b7e0adb3252449e7f411c112ae91a504",
      "vout": 1,
      "scriptSig": {
        "asm": "",
        "hex": ""
      },
      "txinwitness": [
        "",
        "3045022100f9546c9081543a3076d3e82967ccc1334ea5251e52c43515167778b7dbc3c911022040e91d958fa7f762f0330b74dd8281ea640b28a3c6aada7ad92f4518d92af4ef01",
        "304402201a2624a2d516b6dd0fb2f358443712eaaab29b0be425c3cd6b709450c428e1db02206b627d5d1e5d187e6cbf090c89f45449f2e7cb2d9271046db906bc1cf82bf89201",
        "5221028fedaf75b5b08cddf3bf4631c658b68ee6766a8e999467a641d7cb7aaaecec972103316bc27d95b96418349afc6298c259bb999c6e8f39a7217787ad53602be7c1472102e21c29b4a7eeace9c7a8cefb568ca00c86ff9bf5e79e07e5442c29d4a0950d0453ae"
      ],
      "sequence": 4294967295
    }
  ],
  "vout": [
    {
      "value": 0.99999,
      "n": 0,
      "scriptPubKey": {
        "asm": "0 1553f31a3e25e770b7bc857b82909e83734dbfe4bcdb5a5e6fc419b6920c398a",
        "hex": "00201553f31a3e25e770b7bc857b82909e83734dbfe4bcdb5a5e6fc419b6920c398a",
        "reqSigs": 1,
        "type": "witness_v0_scripthash",
        "addresses": [
          "btgrt1qz4flxx37yhnhpdaus4ac9yy7sde5m0lyhnd45hn0csvmdysv8x9qmez7qc"
        ]
      }
    }
  ],
  "hex": "0100000000010104a591ae12c111f4e7492425b3ade0b705b8715687031dccf0f289a859b5e6bb0100000000ffffffff0118ddf505000000002200201553f31a3e25e770b7bc857b82909e83734dbfe4bcdb5a5e6fc419b6920c398a0400483045022100f9546c9081543a3076d3e82967ccc1334ea5251e52c43515167778b7dbc3c911022040e91d958fa7f762f0330b74dd8281ea640b28a3c6aada7ad92f4518d92af4ef0147304402201a2624a2d516b6dd0fb2f358443712eaaab29b0be425c3cd6b709450c428e1db02206b627d5d1e5d187e6cbf090c89f45449f2e7cb2d9271046db906bc1cf82bf89201695221028fedaf75b5b08cddf3bf4631c658b68ee6766a8e999467a641d7cb7aaaecec972103316bc27d95b96418349afc6298c259bb999c6e8f39a7217787ad53602be7c1472102e21c29b4a7eeace9c7a8cefb568ca00c86ff9bf5e79e07e5442c29d4a0950d0453ae00000000"
}