{
  "transaction": {
    "txid": "c5e08d5ea5147bfd8085996407cecf65ad6f4dcf3954e061c3c1a87d6a9dd7e2",
    "hash": "ef92a0ec50e88b30102836dc54d22f1f9f3917b04be849d6cff29f1ac6d7778a",
    "version": 2,
    "size": 348,
    "vsize": 158,
    "weight": 630,
    "locktime": 0,
    "vin": [
      {
        "txid": "f751d58ef135825d86d64ee7b317be0db2339775f5f0bfcefdb52bb23a5252c1",
        "vout": 1,
        "scriptSig": {
          "asm": "",
          "hex": ""
        },
        "txinwitness": [
          "",
          "30440220649b45245cbd58bdb72c4d1412793754cdf3dd89a43097b2bd33bcaae337f7220220719fb5dd516898353603affe32d8e455a54435ab22310cbb3d5f51c0e639796641",
          "3044022035761cfc6e7f215df6d4e2029f74bfa1ae308fd254137d59230d73eb7c2200980220584e0cf6bb1cb657d16548b9d2a63d1fb265cef2587f36634b75be18efeb5e3041",
          "5221028fedaf75b5b08cddf3bf4631c658b68ee6766a8e999467a641d7cb7aaaecec972103316bc27d95b96418349afc6298c259bb999c6e8f39a7217787ad53602be7c1472102e21c29b4a7eeace9c7a8cefb568ca00c86ff9bf5e79e07e5442c29d4a0950d0453ae"
        ],
        "sequence": 4294967295
      }
    ],
    "vout": [
      {
        "value": 0.99999,
        "n": 0,
        "scriptPubKey": {
          "asm": "0 1553f31a3e25e770b7bc857b82909e83734dbfe4bcdb5a5e6fc419b6920c398a",
          "hex": "00201553f31a3e25e770b7bc857b82909e83734dbfe4bcdb5a5e6fc419b6920c398a",
          "reqSigs": 1,
          "type": "witness_v0_scripthash",
          "addresses": [
            "btgrt1qz4flxx37yhnhpdaus4ac9yy7sde5m0lyhnd45hn0csvmdysv8x9qmez7qc"
          ]
        }
      }
    ],
    "hex": "02000000000101c152523ab22bb5fdcebff0f5759733b20dbe17b3e74ed6865d8235f18ed551f70100000000ffffffff0118ddf505000000002200201553f31a3e25e770b7bc857b82909e83734dbfe4bcdb5a5e6fc419b6920c398a04004730440220649b45245cbd58bdb72c4d1412793754cdf3dd89a43097b2bd33bcaae337f7220220719fb5dd516898353603affe32d8e455a54435ab22310cbb3d5f51c0e639796641473044022035761cfc6e7f215df6d4e2029f74bfa1ae308fd254137d59230d73eb7c2200980220584e0cf6bb1cb657d16548b9d2a63d1fb265cef2587f36634b75be18efeb5e3041695221028fedaf75b5b08cddf3bf4631c658b68ee6766a8e999467a641d7cb7aaaecec972103316bc27d95b96418349afc6298c259bb999c6e8f39a7217787ad53602be7c1472102e21c29b4a7eeace9c7a8cefb568ca00c86ff9bf5e79e07e5442c29d4a0950d0453ae00000000"
  },
  "inputs": [
    {
      "txid": "f751d58ef135825d86d64ee7b317be0db2339775f5f0bfcefdb52bb23a5252c1",
      "hash": "93256c9517adb639b82fb03c10d445002aac754f35dabfa9d85b330be8ac61cf",
      "version": 2,
      "size": 769,
      "vsize": 448,
      "weight": 1789,
      "locktime": 2001,
      "vin": [
        {
          "txid": "d65e29ce0291a1ec1066963a89ce1283889f9f9a361faa1d6c6b8e7b21026073",
          "vout": 0,
          "scriptSig": {
            "asm": "0014f942008ae86298d9c13052afa7f3ddb5a3a412f6",
            "hex": "160014f942008ae86298d9c13052afa7f3ddb5a3a412f6"
          },
          "txinwitness": [
            "304402203c1894d188d30d4b0ab78c748a2b5f0e97f39b096aab3408f3fe6f8f7f0125de022014cf63ec8cf4b5be72d7ebe0328fb2be32e7b267bdb52794fc9179d3e34658c741",
            "0302b116dbd1f6cc738f744ba0aa241c50da6e16e2ef77bdc86aaaa04bbbb1b412"
          ],
          "sequence": 4294967294
        },
        {
          "txid": "c9955c8120b8fc62cb4f0cf833b59ffdecb4eae9f5b8c85c2772e9e668fba235",
          "vout": 0,
          "scriptSig": {
            "asm": "0014f942008ae86298d9c13052afa7f3ddb5a3a412f6",
            "hex": "160014f942008ae86298d9c13052afa7f3ddb5a3a412f6"
          },
          "txinwitness": [
            "3044022049e3a08c54e092c052ee9cae891f76dafce1ba1e4199a2802d302ef165219b7d022063322ad17201724857bb4042bc59dc4809a3db156ef4bf702639e3321721e9a941",
            "0302b116dbd1f6cc738f744ba0aa241c50da6e16e2ef77bdc86aaaa04bbbb1b412"
          ],
          "sequence": 4294967294
        },
        {
          "txid": "9ab060e7fad445d910df1e5d1b7e78db1b89327a91bb6fc8c06fa6c3c6653b05",
          "vout": 0,
          "scriptSig": {
            "asm": "0014f942008ae86298d9c13052afa7f3ddb5a3a412f6",
            "hex": "160014f942008ae86298d9c13052afa7f3ddb5a3a412f6"
          },
          "txinwitness": [
            "3044022034d037e8b6025790de0d71e35cd45d80a2ffca284775d9fc6d6be6370b19d45c02205cfa154c7ab9fb507b44f83b3a1bf6eec1d33a5ae1ba8372f0cf62ac580bb5dc41",
            "0302b116dbd1f6cc738f744ba0aa241c50da6e16e2ef77bdc86aaaa04bbbb1b412"
          ],
          "sequence": 4294967294
        },
        {
          "txid": "f1a52ec8ff24e2fcc8a7ad4f7748b52e49e04b9b08be18bf0944e214e2a8ce80",
          "vout": 0,
          "scriptSig": {
            "asm": "0014f942008ae86298d9c13052afa7f3ddb5a3a412f6",
            "hex": "160014f942008ae86298d9c13052afa7f3ddb5a3a412f6"
          },
          "txinwitness": [
            "3043021f60bf49dee84d1dfbe20eaad67b53ba775a825306f46f2ffb8db6ad1d36af1c022076cf28619cd5ab611c9dea5461eb6507c4293d1a5f0be0eb90b668c85629895f41",
            "0302b116dbd1f6cc738f744ba0aa241c50da6e16e2ef77bdc86aaaa04bbbb1b412"
          ],
          "sequence": 4294967294
        }
      ],
      "vout": [
        {
          "value": 0.01309399,
          "n": 0,
          "scriptPubKey": {
            "asm": "0 b06cbed26dda953dc7c7a8f59c94a150dcc9acbd",
            "hex": "0014b06cbed26dda953dc7c7a8f59c94a150dcc9acbd",
            "reqSigs": 1,
            "type": "witness_v0_keyhash",
            "addresses": [
              "btgrt1qkpkta5ndm22nm3784r6ee99p2rwvnt9avthaax"
            ]
          }
        },
        {
          "value": 1,
          "n": 1,
          "scriptPubKey": {
            "asm": "0 1553f31a3e25e770b7bc857b82909e83734dbfe4bcdb5a5e6fc419b6920c398a",
            "hex": "00201553f31a3e25e770b7bc857b82909e83734dbfe4bcdb5a5e6fc419b6920c398a",
            "reqSigs": 1,
            "type": "witness_v0_scripthash",
            "addresses": [
              "btgrt1qz4flxx37yhnhpdaus4ac9yy7sde5m0lyhnd45hn0csvmdysv8x9qmez7qc"
            ]
          }
        }
      ],
      "hex": "02000000000104736002217b8e6b6c1daa1f369a9f9f888312ce893a966610eca19102ce295ed60000000017160014f942008ae86298d9c13052afa7f3ddb5a3a412f6feffffff35a2fb68e6e972275cc8b8f5e9eab4ecfd9fb533f80c4fcb62fcb820815c95c90000000017160014f942008ae86298d9c13052afa7f3ddb5a3a412f6feffffff053b65c6c3a66fc0c86fbb917a32891bdb787e1b5d1edf10d945d4fae760b09a0000000017160014f942008ae86298d9c13052afa7f3ddb5a3a412f6feffffff80cea8e214e24409bf18be089b4be0492eb548774fada7c8fce224ffc82ea5f10000000017160014f942008ae86298d9c13052afa7f3ddb5a3a412f6feffffff02d7fa130000000000160014b06cbed26dda953dc7c7a8f59c94a150dcc9acbd00e1f505000000002200201553f31a3e25e770b7bc857b82909e83734dbfe4bcdb5a5e6fc419b6920c398a0247304402203c1894d188d30d4b0ab78c748a2b5f0e97f39b096aab3408f3fe6f8f7f0125de022014cf63ec8cf4b5be72d7ebe0328fb2be32e7b267bdb52794fc9179d3e34658c741210302b116dbd1f6cc738f744ba0aa241c50da6e16e2ef77bdc86aaaa04bbbb1b41202473044022049e3a08c54e092c052ee9cae891f76dafce1ba1e4199a2802d302ef165219b7d022063322ad17201724857bb4042bc59dc4809a3db156ef4bf702639e3321721e9a941210302b116dbd1f6cc738f744ba0aa241c50da6e16e2ef77bdc86aaaa04bbbb1b41202473044022034d037e8b6025790de0d71e35cd45d80a2ffca284775d9fc6d6be6370b19d45c02205cfa154c7ab9fb507b44f83b3a1bf6eec1d33a5ae1ba8372f0cf62ac580bb5dc41210302b116dbd1f6cc738f744ba0aa241c50da6e16e2ef77bdc86aaaa04bbbb1b41202463043021f60bf49dee84d1dfbe20eaad67b53ba775a825306f46f2ffb8db6ad1d36af1c022076cf28619cd5ab611c9dea5461eb6507c4293d1a5f0be0eb90b668c85629895f41210302b116dbd1f6cc738f744ba0aa241c50da6e16e2ef77bdc86aaaa04bbbb1b412d1070000"
    }
  ]
}