{
  "txid": "5d200bfb72c5d68ff5945af30c2ce8215ca4284a962ca5466fe2830cb503212b",
  "hash": "5d200bfb72c5d68ff5945af30c2ce8215ca4284a962ca5466fe2830cb503212b",
  "version": 1,
  "size": 338,
  "vsize": 338,
  "weight": 1352,
  "locktime": 0,
  "vin": [
    {
      "txid": "da2fbc1fe0d5faefd5a59cf02b7fa3deaec06cc02da2c2a512203e830cbb2a63",
      "vout": 0,
      "scriptSig": {
        "asm": "0 3045022100e966ce157db7a259a1f6eadb74535c59c4c3bd2360047dd79fea82b1700d726502204d3c5f38e6d259e96f00a77d08db12d338b2f5b2838fff8cdc436222f3bcddac[ALL] 30440220119bdba65880f34258ca68af73ddf921ddcd771e25f263faf2ffd358eea1a106022016661ee5dbe48801f088f4a0efc243256ce4a268fc0f6a4b4b43b35d477593c2[ALL] 5221028fedaf75b5b08cddf3bf4631c658b68ee6766a8e999467a641d7cb7aaaecec972103316bc27d95b96418349afc6298c259bb999c6e8f39a7217787ad53602be7c1472102e21c29b4a7eeace9c7a8cefb568ca00c86ff9bf5e79e07e5442c29d4a0950d0453ae",
        "hex": "00483045022100e966ce157db7a259a1f6eadb74535c59c4c3bd2360047dd79fea82b1700d726502204d3c5f38e6d259e96f00a77d08db12d338b2f5b2838fff8cdc436222f3bcddac014730440220119bdba65880f34258ca68af73ddf921ddcd771e25f263faf2ffd358eea1a106022016661ee5dbe48801f088f4a0efc243256ce4a268fc0f6a4b4b43b35d477593c2014c695221028fedaf75b5b08cddf3bf4631c658b68ee6766a8e999467a641d7cb7aaaecec972103316bc27d95b96418349afc6298c259bb999c6e8f39a7217787ad53602be7c1472102e21c29b4a7eeace9c7a8cefb568ca00c86ff9bf5e79e07e5442c29d4a0950d0453ae"
      },
      "sequence": 4294967295
    }
  ],
  "vout": [
    {
      "value": 0.99999,
      "n": 0,
      "scriptPubKey": {
        "asm": "OP_HASH160 fe5cc5d87e3348a5f3eaa316898a0f05d520876e OP_EQUAL",
        "hex": "a914fe5cc5d87e3348a5f3eaa316898a0f05d520876e87",
        "reqSigs": 1,
        "type": "scripthash",
        "addresses": [
          "2NGSAkyhiWMZPcrfiwmcRWf9HQgpsiRGKv4"
        ]
      }
    }
  ],
  "hex": "0100000001632abb0c833e2012a5c2a22dc06cc0aedea37f2bf09ca5d5effad5e01fbc2fda00000000fdfd0000483045022100e966ce157db7a259a1f6eadb74535c59c4c3bd2360047dd79fea82b1700d726502204d3c5f38e6d259e96f00a77d08db12d338b2f5b2838fff8cdc436222f3bcddac014730440220119bdba65880f34258ca68af73ddf921ddcd771e25f263faf2ffd358eea1a106022016661ee5dbe48801f088f4a0efc243256ce4a268fc0f6a4b4b43b35d477593c2014c695221028fedaf75b5b08cddf3bf4631c658b68ee6766a8e999467a641d7cb7aaaecec972103316bc27d95b96418349afc6298c259bb999c6e8f39a7217787ad53602be7c1472102e21c29b4a7eeace9c7a8cefb568ca00c86ff9bf5e79e07e5442c29d4a0950d0453aeffffffff0118ddf5050000000017a914fe5cc5d87e3348a5f3eaa316898a0f05d520876e8700000000"
}