{
  "transaction": {
    "txid": "d4fb1c90867ed16a32936eede952c91085c892f99f761f186d6705d46bacbee9",
    "hash": "3639e45ef089ebeab11ee469e74308c96d67380e344cd89ab0b3931a50363d5b",
    "version": 2,
    "size": 372,
    "vsize": 182,
    "weight": 726,
    "locktime": 0,
    "vin": [
      {
        "txid": "e66ecb4443c01f641fc5eb9c04bfdae4871aaff7f4184bf3dd60783f626a1ccc",
        "vout": 0,
        "scriptSig": {
          "asm": "00201553f31a3e25e770b7bc857b82909e83734dbfe4bcdb5a5e6fc419b6920c398a",
          "hex": "2200201553f31a3e25e770b7bc857b82909e83734dbfe4bcdb5a5e6fc419b6920c398a"
        },
        "txinwitness": [
          "",
          "304402202a32c6124d6006c6b2a2023dc959c09d8a6b1d1a954908a4322905a52b7fa698022031571b060300b98370ccb84a097ef580e228585359e953926e1dc09a2b508ea041",
          "304402207cc3f1f0d40be80a73b1114281bb3bd1195a353b1d17049ec54af0689740c9ef02206e2058544d1bd9db69fbbbe36152d62004c429b1474bd96455270ff86c27567941",
          "5221028fedaf75b5b08cddf3bf4631c658b68ee6766a8e999467a641d7cb7aaaecec972103316bc27d95b96418349afc6298c259bb999c6e8f39a7217787ad53602be7c1472102e21c29b4a7eeace9c7a8cefb568ca00c86ff9bf5e79e07e5442c29d4a0950d0453ae"
        ],
        "sequence": 4294967295
      }
    ],
    "vout": [
      {
        "value": 0.99999,
        "n": 0,
        "scriptPubKey": {
          "asm": "OP_HASH160 2280193aca8462021ec369d4e2ff1c95741fba7f OP_EQUAL",
          "hex": "a9142280193aca8462021ec369d4e2ff1c95741fba7f87",
          "reqSigs": 1,
          "type": "scripthash",
          "addresses": [
            "2MvPeRFSGYJq9BXoV2fxrMpJjsZMGx2m6Zk"
          ]
        }
      }
    ],
    "hex": "02000000000101cc1c6a623f7860ddf34b18f4f7af1a87e4dabf049cebc51f641fc04344cb6ee600000000232200201553f31a3e25e770b7bc857b82909e83734dbfe4bcdb5a5e6fc419b6920c398affffffff0118ddf5050000000017a9142280193aca8462021ec369d4e2ff1c95741fba7f87040047304402202a32c6124d6006c6b2a2023dc959c09d8a6b1d1a954908a4322905a52b7fa698022031571b060300b98370ccb84a097ef580e228585359e953926e1dc09a2b508ea04147304402207cc3f1f0d40be80a73b1114281bb3bd1195a353b1d17049ec54af0689740c9ef02206e2058544d1bd9db69fbbbe36152d62004c429b1474bd96455270ff86c27567941695221028fedaf75b5b08cddf3bf4631c658b68ee6766a8e999467a641d7cb7aaaecec972103316bc27d95b96418349afc6298c259bb999c6e8f39a7217787ad53602be7c1472102e21c29b4a7eeace9c7a8cefb568ca00c86ff9bf5e79e07e5442c29d4a0950d0453ae00000000"
  },
  "inputs": [
    {
      "txid": "e66ecb4443c01f641fc5eb9c04bfdae4871aaff7f4184bf3dd60783f626a1ccc",
      "hash": "3eae844cebf13760b9585ad18d3b2c1c19b6423929a378f349253843258b9806",
      "version": 2,
      "size": 760,
      "vsize": 438,
      "weight": 1750,
      "locktime": 2001,
      "vin": [
        {
          "txid": "0aa2866bfb2322b5e603497b28e42f6743dd2a91c4a7da9e9906577bd4bc5c5c",
          "vout": 0,
          "scriptSig": {
            "asm": "0014fb165e7875936b0b3d920676801a6b524b7f559d",
            "hex": "160014fb165e7875936b0b3d920676801a6b524b7f559d"
          },
          "txinwitness": [
            "304402205f3e2f1b42d26b9554eab5fe4ab3af721c0be5c445db567027b6b8e11b3f6961022060023348c8de4cda0d4e628555d5f2826225d6e24cd63212253f17b9cd25221641",
            "02fd6690992e8db4210c6c69f0c781622d26f3178d8533dfa33dd30ce199efeb6d"
          ],
          "sequence": 4294967294
        },
        {
          "txid": "72ea210031bcb8a83d848b9deaee3b360a66d867e16d5661c3b6c5beada74c51",
          "vout": 0,
          "scriptSig": {
            "asm": "0014fb165e7875936b0b3d920676801a6b524b7f559d",
            "hex": "160014fb165e7875936b0b3d920676801a6b524b7f559d"
          },
          "txinwitness": [
            "304402207e1911895879d0c6568709ec7ea30843a2845819207c35bba03b07018e3f00380220023ea6f261db982b6e3a51be175c4e1f9669c22aa3d6ff6ebb50ec69966faee241",
            "02fd6690992e8db4210c6c69f0c781622d26f3178d8533dfa33dd30ce199efeb6d"
          ],
          "sequence": 4294967294
        },
        {
          "txid": "7cb512641dfcab721f96b92fd75f7fd25d6f19ab0a17ec1b9cc84db5d451d09d",
          "vout": 0,
          "scriptSig": {
            "asm": "0014fb165e7875936b0b3d920676801a6b524b7f559d",
            "hex": "160014fb165e7875936b0b3d920676801a6b524b7f559d"
          },
          "txinwitness": [
            "304402204ee478e562b1ce18a91bfcffe450864fc104034c7f705f9fe6a499d4fec5973702204b107e04ae0462cca77761d0ceef6d11f63186d9c6df5a9da5eecd46df81d44a41",
            "02fd6690992e8db4210c6c69f0c781622d26f3178d8533dfa33dd30ce199efeb6d"
          ],
          "sequence": 4294967294
        },
        {
          "txid": "82038c9d78bb37f4e2f78cb2ac79abee75cf6eb80ebbaad343ebc45c6d5cd1dc",
          "vout": 0,
          "scriptSig": {
            "asm": "0014fb165e7875936b0b3d920676801a6b524b7f559d",
            "hex": "160014fb165e7875936b0b3d920676801a6b524b7f559d"
          },
          "txinwitness": [
            "30440220371c91d44d38680e93408000bb64c4f4758b72e1ae6dafd70d295f17f4787349022061b7cd7b772d089e74670394979efeb608880919233770050dfce5e8b8b816b141",
            "02fd6690992e8db4210c6c69f0c781622d26f3178d8533dfa33dd30ce199efeb6d"
          ],
          "sequence": 4294967294
        }
      ],
      "vout": [
        {
          "value": 1,
          "n": 0,
          "scriptPubKey": {
            "asm": "OP_HASH160 2280193aca8462021ec369d4e2ff1c95741fba7f OP_EQUAL",
            "hex": "a9142280193aca8462021ec369d4e2ff1c95741fba7f87",
            "reqSigs": 1,
            "type": "scripthash",
            "addresses": [
              "2MvPeRFSGYJq9BXoV2fxrMpJjsZMGx2m6Zk"
            ]
          }
        },
        {
          "value": 0.01309599,
          "n": 1,
          "scriptPubKey": {
            "asm": "OP_HASH160 0b813ecd555a7e3f6cd1134db1a8165f281af25d OP_EQUAL",
            "hex": "a9140b813ecd555a7e3f6cd1134db1a8165f281af25d87",
            "reqSigs": 1,
            "type": "scripthash",
            "addresses": [
              "2MtJ4FWuQvRjTh7kgm9kbxDFLFngzZLCFu2"
            ]
          }
        }
      ],
      "hex": "020000000001045c5cbcd47b5706999edaa7c4912add43672fe4287b4903e6b52223fb6b86a20a0000000017160014fb165e7875936b0b3d920676801a6b524b7f559dfeffffff514ca7adbec5b6c361566de167d8660a363beeea9d8b843da8b8bc310021ea720000000017160014fb165e7875936b0b3d920676801a6b524b7f559dfeffffff9dd051d4b54dc89c1bec170aab196f5dd27f5fd72fb9961f72abfc1d6412b57c0000000017160014fb165e7875936b0b3d920676801a6b524b7f559dfeffffffdcd15c6d5cc4eb43d3aabb0eb86ecf75eeab79acb28cf7e2f437bb789d8c03820000000017160014fb165e7875936b0b3d920676801a6b524b7f559dfeffffff0200e1f5050000000017a9142280193aca8462021ec369d4e2ff1c95741fba7f879ffb13000000000017a9140b813ecd555a7e3f6cd1134db1a8165f281af25d870247304402205f3e2f1b42d26b9554eab5fe4ab3af721c0be5c445db567027b6b8e11b3f6961022060023348c8de4cda0d4e628555d5f2826225d6e24cd63212253f17b9cd252216412102fd6690992e8db4210c6c69f0c781622d26f3178d8533dfa33dd30ce199efeb6d0247304402207e1911895879d0c6568709ec7ea30843a2845819207c35bba03b07018e3f00380220023ea6f261db982b6e3a51be175c4e1f9669c22aa3d6ff6ebb50ec69966faee2412102fd6690992e8db4210c6c69f0c781622d26f3178d8533dfa33dd30ce199efeb6d0247304402204ee478e562b1ce18a91bfcffe450864fc104034c7f705f9fe6a499d4fec5973702204b107e04ae0462cca77761d0ceef6d11f63186d9c6df5a9da5eecd46df81d44a412102fd6690992e8db4210c6c69f0c781622d26f3178d8533dfa33dd30ce199efeb6d024730440220371c91d44d38680e93408000bb64c4f4758b72e1ae6dafd70d295f17f4787349022061b7cd7b772d089e74670394979efeb608880919233770050dfce5e8b8b816b1412102fd6690992e8db4210c6c69f0c781622d26f3178d8533dfa33dd30ce199efeb6dd1070000"
    }
  ]
}