{
  "transaction": {
    "txid": "d0f6d3bf3c601ad1a0531dba2b80ab65fdfa6bd3cc3285b0a6e3ee862eea45e1",
    "hash": "d0f6d3bf3c601ad1a0531dba2b80ab65fdfa6bd3cc3285b0a6e3ee862eea45e1",
    "version": 1,
    "size": 339,
    "vsize": 339,
    "weight": 1356,
    "locktime": 0,
    "vin": [
      {
        "txid": "ee1829d366aa623db40883696d8a160fc6ee01e53db6715988c98da4c4b09aa0",
        "vout": 1,
        "scriptSig": {
          "asm": "0 3045022100d1b5d05364ea1759f5856157c6e55da15ba7bea0b5063e8305d46dec20997e2802203a9a0ef28d3bc898a78d327da8611e7c2028d8f8557b17fbb0a3e62258030507[ALL|FORKID] 304502210086e63682c1980960049b70c080137a7ec2ff8649805fb4b008c5e526c4df7f5f02201086d71b71aca1a9d10b9248e347aba4f9aa8adadc937df896f38d1a1652bd61[ALL|FORKID] 5221028fedaf75b5b08cddf3bf4631c658b68ee6766a8e999467a641d7cb7aaaecec972103316bc27d95b96418349afc6298c259bb999c6e8f39a7217787ad53602be7c1472102e21c29b4a7eeace9c7a8cefb568ca00c86ff9bf5e79e07e5442c29d4a0950d0453ae",
          "hex": "00483045022100d1b5d05364ea1759f5856157c6e55da15ba7bea0b5063e8305d46dec20997e2802203a9a0ef28d3bc898a78d327da8611e7c2028d8f8557b17fbb0a3e622580305074148304502210086e63682c1980960049b70c080137a7ec2ff8649805fb4b008c5e526c4df7f5f02201086d71b71aca1a9d10b9248e347aba4f9aa8adadc937df896f38d1a1652bd61414c695221028fedaf75b5b08cddf3bf4631c658b68ee6766a8e999467a641d7cb7aaaecec972103316bc27d95b96418349afc6298c259bb999c6e8f39a7217787ad53602be7c1472102e21c29b4a7eeace9c7a8cefb568ca00c86ff9bf5e79e07e5442c29d4a0950d0453ae"
        },
        "sequence": 4294967295
      }
    ],
    "vout": [
      {
        "value": 0.99999,
        "n": 0,
        "scriptPubKey": {
          "asm": "OP_HASH160 fe5cc5d87e3348a5f3eaa316898a0f05d520876e OP_EQUAL",
          "hex": "a914fe5cc5d87e3348a5f3eaa316898a0f05d520876e87",
          "reqSigs": 1,
          "type": "scripthash",
          "addresses": [
            "2NGSAkyhiWMZPcrfiwmcRWf9HQgpsiRGKv4"
          ]
        }
      }
    ],
    "hex": "0100000001a09ab0c4a48dc9885971b63de501eec60f168a6d698308b43d62aa66d32918ee01000000fdfe0000483045022100d1b5d05364ea1759f5856157c6e55da15ba7bea0b5063e8305d46dec20997e2802203a9a0ef28d3bc898a78d327da8611e7c2028d8f8557b17fbb0a3e622580305074148304502210086e63682c1980960049b70c080137a7ec2ff8649805fb4b008c5e526c4df7f5f02201086d71b71aca1a9d10b9248e347aba4f9aa8adadc937df896f38d1a1652bd61414c695221028fedaf75b5b08cddf3bf4631c658b68ee6766a8e999467a641d7cb7aaaecec972103316bc27d95b96418349afc6298c259bb999c6e8f39a7217787ad53602be7c1472102e21c29b4a7eeace9c7a8cefb568ca00c86ff9bf5e79e07e5442c29d4a0950d0453aeffffffff0118ddf5050000000017a914fe5cc5d87e3348a5f3eaa316898a0f05d520876e8700000000"
  },
  "inputs": [
    {
      "txid": "ee1829d366aa623db40883696d8a160fc6ee01e53db6715988c98da4c4b09aa0",
      "hash": "b6ff6981e893d2305937660572370be7f4ad6bfed1cf102c76ecfac0e1224e27",
      "version": 2,
      "size": 760,
      "vsize": 438,
      "weight": 1750,
      "locktime": 2001,
      "vin": [
        {
          "txid": "2b2829a6e2b15088350854b18be892b40127d6d4aa2556c9cf4698fa3de0813e",
          "vout": 0,
          "scriptSig": {
            "asm": "0014af8f39453d39484eb324378fdf67488741c25b6f",
            "hex": "160014af8f39453d39484eb324378fdf67488741c25b6f"
          },
          "txinwitness": [
            "304402207b14744fad662bf8fa911a0cc0436c5907b8937df04ca0a751afa01fcd0deda90220702ea171ed4aa1e3cb5dc79be4c3916dab8aaf26a0f3cf388e3f80b0b99da3b641",
            "03934e6567f283e5c74875300761dfc2884df23bae2771cffcc1dda9805c0c7e8e"
          ],
          "sequence": 4294967294
        },
        {
          "txid": "5d53716ed2a20d42291c531a7fb33e95bbe40a5c322dcb1d84059bffd758daad",
          "vout": 0,
          "scriptSig": {
            "asm": "0014af8f39453d39484eb324378fdf67488741c25b6f",
            "hex": "160014af8f39453d39484eb324378fdf67488741c25b6f"
          },
          "txinwitness": [
            "304402202033524141ea4bae3eac1ff2c421c2f1116388ab25b4edb7a9f4d435cfc077c7022015c0cc40069ad7c327a94dc997bf798b3b683cfcc955ff1da99de6054c4c915941",
            "03934e6567f283e5c74875300761dfc2884df23bae2771cffcc1dda9805c0c7e8e"
          ],
          "sequence": 4294967294
        },
        {
          "txid": "03e9d52047f9ba9fd3261ee0c0668fe2a868c9bc832d44802c13508ef1fb65aa",
          "vout": 0,
          "scriptSig": {
            "asm": "0014af8f39453d39484eb324378fdf67488741c25b6f",
            "hex": "160014af8f39453d39484eb324378fdf67488741c25b6f"
          },
          "txinwitness": [
            "304402207e025b8cb76102ad8b4e0b68f87ca30d3b5244711bee508eea51da0c6c28978102206aff6f7e6d050bf5a66a7084d14080830e8279f3d3f033ae0ac46627f980e32b41",
            "03934e6567f283e5c74875300761dfc2884df23bae2771cffcc1dda9805c0c7e8e"
          ],
          "sequence": 4294967294
        },
        {
          "txid": "8f70d09312403302182f8d0e34e1a7473fdf3d55f07aa5a6680ee2d0411e10bd",
          "vout": 0,
          "scriptSig": {
            "asm": "0014af8f39453d39484eb324378fdf67488741c25b6f",
            "hex": "160014af8f39453d39484eb324378fdf67488741c25b6f"
          },
          "txinwitness": [
            "304402201d557f241c1164a94a1c6bdae3717be913d8048c0988138d847f6b6482ccbfb0022068f8ab6d44b5fb6a51a282c75365d47930c07391661cf52e8f99763bae6e8b0e41",
            "03934e6567f283e5c74875300761dfc2884df23bae2771cffcc1dda9805c0c7e8e"
          ],
          "sequence": 4294967294
        }
      ],
      "vout": [
        {
          "value": 0.01309599,
          "n": 0,
          "scriptPubKey": {
            "asm": "OP_HASH160 7590f6812f61e8f4b6d918797b600447f9696af7 OP_EQUAL",
            "hex": "a9147590f6812f61e8f4b6d918797b600447f9696af787",
            "reqSigs": 1,
            "type": "scripthash",
            "addresses": [
              "2N3xrhvkeoxacwbbn7q83g4ZwDYCtuUHb9r"
            ]
          }
        },
        {
          "value": 1,
          "n": 1,
          "scriptPubKey": {
            "asm": "OP_HASH160 fe5cc5d87e3348a5f3eaa316898a0f05d520876e OP_EQUAL",
            "hex": "a914fe5cc5d87e3348a5f3eaa316898a0f05d520876e87",
            "reqSigs": 1,
            "type": "scripthash",
            "addresses": [
              "2NGSAkyhiWMZPcrfiwmcRWf9HQgpsiRGKv4"
            ]
          }
        }
      ],
      "hex": "020000000001043e81e03dfa9846cfc95625aad4d62701b492e88bb15408358850b1e2a629282b0000000017160014af8f39453d39484eb324378fdf67488741c25b6ffeffffffadda58d7ff9b05841dcb2d325c0ae4bb953eb37f1a531c29420da2d26e71535d0000000017160014af8f39453d39484eb324378fdf67488741c25b6ffeffffffaa65fbf18e50132c80442d83bcc968a8e28f66c0e01e26d39fbaf94720d5e9030000000017160014af8f39453d39484eb324378fdf67488741c25b6ffeffffffbd101e41d0e20e68a6a57af0553ddf3f47a7e1340e8d2f180233401293d0708f0000000017160014af8f39453d39484eb324378fdf67488741c25b6ffeffffff029ffb13000000000017a9147590f6812f61e8f4b6d918797b600447f9696af78700e1f5050000000017a914fe5cc5d87e3348a5f3eaa316898a0f05d520876e870247304402207b14744fad662bf8fa911a0cc0436c5907b8937df04ca0a751afa01fcd0deda90220702ea171ed4aa1e3cb5dc79be4c3916dab8aaf26a0f3cf388e3f80b0b99da3b6412103934e6567f283e5c74875300761dfc2884df23bae2771cffcc1dda9805c0c7e8e0247304402202033524141ea4bae3eac1ff2c421c2f1116388ab25b4edb7a9f4d435cfc077c7022015c0cc40069ad7c327a94dc997bf798b3b683cfcc955ff1da99de6054c4c9159412103934e6567f283e5c74875300761dfc2884df23bae2771cffcc1dda9805c0c7e8e0247304402207e025b8cb76102ad8b4e0b68f87ca30d3b5244711bee508eea51da0c6c28978102206aff6f7e6d050bf5a66a7084d14080830e8279f3d3f033ae0ac46627f980e32b412103934e6567f283e5c74875300761dfc2884df23bae2771cffcc1dda9805c0c7e8e0247304402201d557f241c1164a94a1c6bdae3717be913d8048c0988138d847f6b6482ccbfb0022068f8ab6d44b5fb6a51a282c75365d47930c07391661cf52e8f99763bae6e8b0e412103934e6567f283e5c74875300761dfc2884df23bae2771cffcc1dda9805c0c7e8ed1070000"
    }
  ]
}