{
  "txid": "037027a882539c3fb2e83a6d60a6a8e89c775726dd69d78e06dae74dc53b2416",
  "hash": "4fe8351a559ae37c766f507cc0ce2b1d21fc5549c10224f48f1ee00bbe194143",
  "version": 1,
  "size": 372,
  "vsize": 182,
  "weight": 726,
  "locktime": 0,
  "vin": [
    {
      "txid": "3dc68bcd825e6242bba33b262d6e7867c92b043cef135624a841fd1b27088753",
      "vout": 0,
      "scriptSig": {
        "asm": "00201553f31a3e25e770b7bc857b82909e83734dbfe4bcdb5a5e6fc419b6920c398a",
        "hex": "2200201553f31a3e25e770b7bc857b82909e83734dbfe4bcdb5a5e6fc419b6920c398a"
      },
      "txinwitness": [
        "",
        "3044022043b6873a355ce4e1eaf4637cd7dffc5b8bc97eb50d0602eb0c2a52e6bc53f93902203a875e79da00189e24a9819728081bca3da4904fd560434a46df91610964f5f601",
        "3044022049215d2274a08d76130eb4770fd1a8cfd615d3ab2bf5efbb52e3562609291bf5022002d01eb84af815aaaabe6be6f8e0cdd359a24d988b88c4113a078b53a23ac9df01",
        "5221028fedaf75b5b08cddf3bf4631c658b68ee6766a8e999467a641d7cb7aaaecec972103316bc27d95b96418349afc6298c259bb999c6e8f39a7217787ad53602be7c1472102e21c29b4a7eeace9c7a8cefb568ca00c86ff9bf5e79e07e5442c29d4a0950d0453ae"
      ],
      "sequence": 4294967295
    }
  ],
  "vout": [
    {
      "value": 0.99999,
      "n": 0,
      "scriptPubKey": {
        "asm": "OP_HASH160 2280193aca8462021ec369d4e2ff1c95741fba7f OP_EQUAL",
        "hex": "a9142280193aca8462021ec369d4e2ff1c95741fba7f87",
        "reqSigs": 1,
        "type": "scripthash",
        "addresses": [
          "2MvPeRFSGYJq9BXoV2fxrMpJjsZMGx2m6Zk"
        ]
      }
    }
  ],
  "hex": "01000000000101538708271bfd41a8245613ef3c042bc967786e2d263ba3bb42625e82cd8bc63d00000000232200201553f31a3e25e770b7bc857b82909e83734dbfe4bcdb5a5e6fc419b6920c398affffffff0118ddf5050000000017a9142280193aca8462021ec369d4e2ff1c95741fba7f870400473044022043b6873a355ce4e1eaf4637cd7dffc5b8bc97eb50d0602eb0c2a52e6bc53f93902203a875e79da00189e24a9819728081bca3da4904fd560434a46df91610964f5f601473044022049215d2274a08d76130eb4770fd1a8cfd615d3ab2bf5efbb52e3562609291bf5022002d01eb84af815aaaabe6be6f8e0cdd359a24d988b88c4113a078b53a23ac9df01695221028fedaf75b5b08cddf3bf4631c658b68ee6766a8e999467a641d7cb7aaaecec972103316bc27d95b96418349afc6298c259bb999c6e8f39a7217787ad53602be7c1472102e21c29b4a7eeace9c7a8cefb568ca00c86ff9bf5e79e07e5442c29d4a0950d0453ae00000000"
}