{
  "transaction": {
    "txid": "01f34a28e9db9feeee5429c9572bcc8ecc229ab67eb549260ae99f8f61dda58d",
    "hash": "5d31bee346c7922873bcf310471b09cefa4119b032de7860a47b75dd90fd9d71",
    "version": 1,
    "size": 373,
    "vsize": 182,
    "weight": 727,
    "locktime": 0,
    "vin": [
      {
        "txid": "11043ce829bc8802cb480076c6873edd505e7187aced62f868d1fdacae206c2e",
        "vout": 1,
        "scriptSig": {
          "asm": "00201553f31a3e25e770b7bc857b82909e83734dbfe4bcdb5a5e6fc419b6920c398a",
          "hex": "2200201553f31a3e25e770b7bc857b82909e83734dbfe4bcdb5a5e6fc419b6920c398a"
        },
        "txinwitness": [
          "",
          "304402207098a921b877d36571c0221ba5ec6aa04fc743e3fd9a9b730408926e8d2857fc022041c63ee817469072541d470844f9fab845614611f2a90318825e86565c8f769441",
          "304502210088ece48edf89af1c9488e6953f2a5de72c4c60694cbf85c86c4fb1a74d226f52022024762e76836dcad0580b1ac5f0ad530a9b72f7c0eeb3321dc38af3504a2e0a3b41",
          "5221028fedaf75b5b08cddf3bf4631c658b68ee6766a8e999467a641d7cb7aaaecec972103316bc27d95b96418349afc6298c259bb999c6e8f39a7217787ad53602be7c1472102e21c29b4a7eeace9c7a8cefb568ca00c86ff9bf5e79e07e5442c29d4a0950d0453ae"
        ],
        "sequence": 4294967295
      }
    ],
    "vout": [
      {
        "value": 0.99999,
        "n": 0,
        "scriptPubKey": {
          "asm": "OP_HASH160 2280193aca8462021ec369d4e2ff1c95741fba7f OP_EQUAL",
          "hex": "a9142280193aca8462021ec369d4e2ff1c95741fba7f87",
          "reqSigs": 1,
          "type": "scripthash",
          "addresses": [
            "2MvPeRFSGYJq9BXoV2fxrMpJjsZMGx2m6Zk"
          ]
        }
      }
    ],
    "hex": "010000000001012e6c20aeacfdd168f862edac87715e50dd3e87c6760048cb0288bc29e83c041101000000232200201553f31a3e25e770b7bc857b82909e83734dbfe4bcdb5a5e6fc419b6920c398affffffff0118ddf5050000000017a9142280193aca8462021ec369d4e2ff1c95741fba7f87040047304402207098a921b877d36571c0221ba5ec6aa04fc743e3fd9a9b730408926e8d2857fc022041c63ee817469072541d470844f9fab845614611f2a90318825e86565c8f76944148304502210088ece48edf89af1c9488e6953f2a5de72c4c60694cbf85c86c4fb1a74d226f52022024762e76836dcad0580b1ac5f0ad530a9b72f7c0eeb3321dc38af3504a2e0a3b41695221028fedaf75b5b08cddf3bf4631c658b68ee6766a8e999467a641d7cb7aaaecec972103316bc27d95b96418349afc6298c259bb999c6e8f39a7217787ad53602be7c1472102e21c29b4a7eeace9c7a8cefb568ca00c86ff9bf5e79e07e5442c29d4a0950d0453ae00000000"
  },
  "inputs": [
    {
      "txid": "11043ce829bc8802cb480076c6873edd505e7187aced62f868d1fdacae206c2e",
      "hash": "e8705ee9141b320a12933b42e5a840482258facb5f9d13e25fedf9243ce86b6b",
      "version": 2,
      "size": 760,
      "vsize": 438,
      "weight": 1750,
      "locktime": 2001,
      "vin": [
        {
          "txid": "10edeebabf82672fc46d89c2b90d231b7df25ab5d3e32368a141b9ec8fdc61ba",
          "vout": 0,
          "scriptSig": {
            "asm": "0014af8f39453d39484eb324378fdf67488741c25b6f",
            "hex": "160014af8f39453d39484eb324378fdf67488741c25b6f"
          },
          "txinwitness": [
            "304402206b43ffefd5dbbdd83f23e7a190a85d68688a4e86c54ffe68e7b3fb3e4e395626022009d38b233c6008ced58fa0be865994fbfdb17b5da8a5167606c2477318cd111941",
            "03934e6567f283e5c74875300761dfc2884df23bae2771cffcc1dda9805c0c7e8e"
          ],
          "sequence": 4294967294
        },
        {
          "txid": "dee72e20daf63f348cda007c7378f31647506c0fcf32adfbddde6675c43730f9",
          "vout": 0,
          "scriptSig": {
            "asm": "0014af8f39453d39484eb324378fdf67488741c25b6f",
            "hex": "160014af8f39453d39484eb324378fdf67488741c25b6f"
          },
          "txinwitness": [
            "3044022064986f450c53a4a60a555c66505e7832a27087ed386a2733c5116b7c601402c102207c7b10cb4f54c2008e6b632e7ed5ac2d3b6982b08cc005dea647ee7adeb7971041",
            "03934e6567f283e5c74875300761dfc2884df23bae2771cffcc1dda9805c0c7e8e"
          ],
          "sequence": 4294967294
        },
        {
          "txid": "03ff00b3d45b6cdbe8d3f17435ce2b6006fa9ac12b9cd8e42999015868af7523",
          "vout": 0,
          "scriptSig": {
            "asm": "0014af8f39453d39484eb324378fdf67488741c25b6f",
            "hex": "160014af8f39453d39484eb324378fdf67488741c25b6f"
          },
          "txinwitness": [
            "304402202163067b5e398d3427f1d3601f64c458ab4e1d89fc5af8912682bccf7ca6f4bf02203639be01cd9e57809ca67c913e76f957fad568476206d6096e6bb1b463056bf741",
            "03934e6567f283e5c74875300761dfc2884df23bae2771cffcc1dda9805c0c7e8e"
          ],
          "sequence": 4294967294
        },
        {
          "txid": "f82b3e007688e2f80cf3ae9bbd53cfe97cabdb4a0f9465bda71b82c22fc07f21",
          "vout": 0,
          "scriptSig": {
            "asm": "0014af8f39453d39484eb324378fdf67488741c25b6f",
            "hex": "160014af8f39453d39484eb324378fdf67488741c25b6f"
          },
          "txinwitness": [
            "30440220376722bdd119b777f3927b202da23820eee695f3f33db879c2bfc12618a7fffd02201b12c59b96edf476e0e1e3f32b3cc9796d4bd4bf3fff52be640442436351cd8341",
            "03934e6567f283e5c74875300761dfc2884df23bae2771cffcc1dda9805c0c7e8e"
          ],
          "sequence": 4294967294
        }
      ],
      "vout": [
        {
          "value": 0.01309599,
          "n": 0,
          "scriptPubKey": {
            "asm": "OP_HASH160 a73d4098270fa288b8abb5f7291290d801e9f8cd OP_EQUAL",
            "hex": "a914a73d4098270fa288b8abb5f7291290d801e9f8cd87",
            "reqSigs": 1,
            "type": "scripthash",
            "addresses": [
              "2N8VWDCsjP3EjNiJj5CCGnx7vN4RXWCYQaE"
            ]
          }
        },
        {
          "value": 1,
          "n": 1,
          "scriptPubKey": {
            "asm": "OP_HASH160 2280193aca8462021ec369d4e2ff1c95741fba7f OP_EQUAL",
            "hex": "a9142280193aca8462021ec369d4e2ff1c95741fba7f87",
            "reqSigs": 1,
            "type": "scripthash",
            "addresses": [
              "2MvPeRFSGYJq9BXoV2fxrMpJjsZMGx2m6Zk"
            ]
          }
        }
      ],
      "hex": "02000000000104ba61dc8fecb941a16823e3d3b55af27d1b230db9c2896dc42f6782bfbaeeed100000000017160014af8f39453d39484eb324378fdf67488741c25b6ffefffffff93037c47566deddfbad32cf0f6c504716f378737c00da8c343ff6da202ee7de0000000017160014af8f39453d39484eb324378fdf67488741c25b6ffeffffff2375af6858019929e4d89c2bc19afa06602bce3574f1d3e8db6c5bd4b300ff030000000017160014af8f39453d39484eb324378fdf67488741c25b6ffeffffff217fc02fc2821ba7bd65940f4adbab7ce9cf53bd9baef30cf8e28876003e2bf80000000017160014af8f39453d39484eb324378fdf67488741c25b6ffeffffff029ffb13000000000017a914a73d4098270fa288b8abb5f7291290d801e9f8cd8700e1f5050000000017a9142280193aca8462021ec369d4e2ff1c95741fba7f870247304402206b43ffefd5dbbdd83f23e7a190a85d68688a4e86c54ffe68e7b3fb3e4e395626022009d38b233c6008ced58fa0be865994fbfdb17b5da8a5167606c2477318cd1119412103934e6567f283e5c74875300761dfc2884df23bae2771cffcc1dda9805c0c7e8e02473044022064986f450c53a4a60a555c66505e7832a27087ed386a2733c5116b7c601402c102207c7b10cb4f54c2008e6b632e7ed5ac2d3b6982b08cc005dea647ee7adeb79710412103934e6567f283e5c74875300761dfc2884df23bae2771cffcc1dda9805c0c7e8e0247304402202163067b5e398d3427f1d3601f64c458ab4e1d89fc5af8912682bccf7ca6f4bf02203639be01cd9e57809ca67c913e76f957fad568476206d6096e6bb1b463056bf7412103934e6567f283e5c74875300761dfc2884df23bae2771cffcc1dda9805c0c7e8e024730440220376722bdd119b777f3927b202da23820eee695f3f33db879c2bfc12618a7fffd02201b12c59b96edf476e0e1e3f32b3cc9796d4bd4bf3fff52be640442436351cd83412103934e6567f283e5c74875300761dfc2884df23bae2771cffcc1dda9805c0c7e8ed1070000"
    }
  ]
}