{
  "transaction": {
    "txid": "d16d129599449d63ca62bb6e2a7f170816b104855f0b7323f53ce74db04b03e0",
    "hash": "6f4ee7349a9e888fdffd7aeaea42b89a37d49add6d123a74b661d4a965794ce7",
    "version": 1,
    "size": 372,
    "vsize": 182,
    "weight": 726,
    "locktime": 0,
    "vin": [
      {
        "txid": "f52a90202fa1f5b7dfe8cecfc50d7355412e872c9a02043be45106bbac1a2f39",
        "vout": 1,
        "scriptSig": {
          "asm": "00201553f31a3e25e770b7bc857b82909e83734dbfe4bcdb5a5e6fc419b6920c398a",
          "hex": "2200201553f31a3e25e770b7bc857b82909e83734dbfe4bcdb5a5e6fc419b6920c398a"
        },
        "txinwitness": [
          "",
          "304402205e27d447099ca5807d79b5dc5775fee28ed0a332302d01368e3a3d1f7eecf03b02205b80ee37aa5758cf7f7fb6d30de54bfdcfe81bc44b8c97b5cd4df7b68be768c201",
          "3044022018debbac3da08df31fdf47d4ac134591c46d3232aad6de3ae5bdba6e529cf04b022052bc23f270f1f75c9a308a3e3a338e92018ed8b83b6aea4eb7455c569946cd5401",
          "5221028fedaf75b5b08cddf3bf4631c658b68ee6766a8e999467a641d7cb7aaaecec972103316bc27d95b96418349afc6298c259bb999c6e8f39a7217787ad53602be7c1472102e21c29b4a7eeace9c7a8cefb568ca00c86ff9bf5e79e07e5442c29d4a0950d0453ae"
        ],
        "sequence": 4294967295
      }
    ],
    "vout": [
      {
        "value": 0.99999,
        "n": 0,
        "scriptPubKey": {
          "asm": "OP_HASH160 2280193aca8462021ec369d4e2ff1c95741fba7f OP_EQUAL",
          "hex": "a9142280193aca8462021ec369d4e2ff1c95741fba7f87",
          "reqSigs": 1,
          "type": "scripthash",
          "addresses": [
            "2MvPeRFSGYJq9BXoV2fxrMpJjsZMGx2m6Zk"
          ]
        }
      }
    ],
    "hex": "01000000000101392f1aacbb0651e43b04029a2c872e4155730dc5cfcee8dfb7f5a12f20902af501000000232200201553f31a3e25e770b7bc857b82909e83734dbfe4bcdb5a5e6fc419b6920c398affffffff0118ddf5050000000017a9142280193aca8462021ec369d4e2ff1c95741fba7f87040047304402205e27d447099ca5807d79b5dc5775fee28ed0a332302d01368e3a3d1f7eecf03b02205b80ee37aa5758cf7f7fb6d30de54bfdcfe81bc44b8c97b5cd4df7b68be768c201473044022018debbac3da08df31fdf47d4ac134591c46d3232aad6de3ae5bdba6e529cf04b022052bc23f270f1f75c9a308a3e3a338e92018ed8b83b6aea4eb7455c569946cd5401695221028fedaf75b5b08cddf3bf4631c658b68ee6766a8e999467a641d7cb7aaaecec972103316bc27d95b96418349afc6298c259bb999c6e8f39a7217787ad53602be7c1472102e21c29b4a7eeace9c7a8cefb568ca00c86ff9bf5e79e07e5442c29d4a0950d0453ae00000000"
  },
  "inputs": [
    {
      "txid": "f52a90202fa1f5b7dfe8cecfc50d7355412e872c9a02043be45106bbac1a2f39",
      "hash": "957da67a1416b9bf6ace85b01866a7ebe6e9f29dba245af2834415f4a1a52ca9",
      "version": 2,
      "size": 247,
      "vsize": 166,
      "weight": 661,
      "locktime": 300,
      "vin": [
        {
          "txid": "04dd387aaa69653f49d1ce51fdd09e6fbb4d25ded517e02a2a3a5a5c412c17b5",
          "vout": 0,
          "scriptSig": {
            "asm": "001435d679a7f7e4e740129e8fd25db6e1fe35d3f382",
            "hex": "16001435d679a7f7e4e740129e8fd25db6e1fe35d3f382"
          },
          "txinwitness": [
            "304402207305fef62187c4e2da71b92e2501e51d636c817ff105c22afacd7135be59da1202206894ed695cc8af44bd0db9faec0d8986c4fd25639dcb4dce8d2b3aac70bec31f01",
            "03363b03335f5d57d0838e1f1d3280d4d7bb60f5640c2c3652db06ef986f9bf627"
          ],
          "sequence": 4294967294
        }
      ],
      "vout": [
        {
          "value": 23.9999668,
          "n": 0,
          "scriptPubKey": {
            "asm": "OP_HASH160 079ed29a8c1bb1536582d8f1e49fba7d669b5388 OP_EQUAL",
            "hex": "a914079ed29a8c1bb1536582d8f1e49fba7d669b538887",
            "reqSigs": 1,
            "type": "scripthash",
            "addresses": [
              "2MswWypUfeUHX71PtcyHANtRWan7mFiKQKW"
            ]
          }
        },
        {
          "value": 1,
          "n": 1,
          "scriptPubKey": {
            "asm": "OP_HASH160 2280193aca8462021ec369d4e2ff1c95741fba7f OP_EQUAL",
            "hex": "a9142280193aca8462021ec369d4e2ff1c95741fba7f87",
            "reqSigs": 1,
            "type": "scripthash",
            "addresses": [
              "2MvPeRFSGYJq9BXoV2fxrMpJjsZMGx2m6Zk"
            ]
          }
        }
      ],
      "hex": "02000000000101b5172c415c5a3a2a2ae017d5de254dbb6f9ed0fd51ced1493f6569aa7a38dd04000000001716001435d679a7f7e4e740129e8fd25db6e1fe35d3f382feffffff02080b0d8f0000000017a914079ed29a8c1bb1536582d8f1e49fba7d669b53888700e1f5050000000017a9142280193aca8462021ec369d4e2ff1c95741fba7f870247304402207305fef62187c4e2da71b92e2501e51d636c817ff105c22afacd7135be59da1202206894ed695cc8af44bd0db9faec0d8986c4fd25639dcb4dce8d2b3aac70bec31f012103363b03335f5d57d0838e1f1d3280d4d7bb60f5640c2c3652db06ef986f9bf6272c010000"
    }
  ]
}