{
  "transaction": {
    "txid": "2192edf5a6d6f628a0da17e2de30f3f3f9bae5c8f9959629dd4626aabd0957f8",
    "hash": "2192edf5a6d6f628a0da17e2de30f3f3f9bae5c8f9959629dd4626aabd0957f8",
    "version": 2,
    "size": 339,
    "vsize": 339,
    "weight": 1356,
    "locktime": 0,
    "vin": [
      {
        "txid": "4ed0387b7823ad9129040a75ebe13c94a89a31180dc44ca2b6f77e724eee8b23",
        "vout": 0,
        "scriptSig": {
          "asm": "0 3045022100c745a44b9b0e0259ebcbf4fb54697ede57fc7dc82720dcc413d154fb0277b088022057624dc30ef5aef7078c7a76e473c871cb27fbb58622734055b772d11f0a4266[ALL|FORKID] 30450221009c296f17a52a347038baec52932fbe8e6b7d9b421d5027498b23111d9d0d3136022010da72fa8a81b94d2afadec471a3941448d3569ab2605f6ce2a1483f7bcd4698[ALL|FORKID] 5221028fedaf75b5b08cddf3bf4631c658b68ee6766a8e999467a641d7cb7aaaecec972103316bc27d95b96418349afc6298c259bb999c6e8f39a7217787ad53602be7c1472102e21c29b4a7eeace9c7a8cefb568ca00c86ff9bf5e79e07e5442c29d4a0950d0453ae",
          "hex": "00483045022100c745a44b9b0e0259ebcbf4fb54697ede57fc7dc82720dcc413d154fb0277b088022057624dc30ef5aef7078c7a76e473c871cb27fbb58622734055b772d11f0a4266414830450221009c296f17a52a347038baec52932fbe8e6b7d9b421d5027498b23111d9d0d3136022010da72fa8a81b94d2afadec471a3941448d3569ab2605f6ce2a1483f7bcd4698414c695221028fedaf75b5b08cddf3bf4631c658b68ee6766a8e999467a641d7cb7aaaecec972103316bc27d95b96418349afc6298c259bb999c6e8f39a7217787ad53602be7c1472102e21c29b4a7eeace9c7a8cefb568ca00c86ff9bf5e79e07e5442c29d4a0950d0453ae"
        },
        "sequence": 4294967295
      }
    ],
    "vout": [
      {
        "value": 0.99999,
        "n": 0,
        "scriptPubKey": {
          "asm": "OP_HASH160 fe5cc5d87e3348a5f3eaa316898a0f05d520876e OP_EQUAL",
          "hex": "a914fe5cc5d87e3348a5f3eaa316898a0f05d520876e87",
          "reqSigs": 1,
          "type": "scripthash",
          "addresses": [
            "2NGSAkyhiWMZPcrfiwmcRWf9HQgpsiRGKv4"
          ]
        }
      }
    ],
    "hex": "0200000001238bee4e727ef7b6a24cc40d18319aa8943ce1eb750a042991ad23787b38d04e00000000fdfe0000483045022100c745a44b9b0e0259ebcbf4fb54697ede57fc7dc82720dcc413d154fb0277b088022057624dc30ef5aef7078c7a76e473c871cb27fbb58622734055b772d11f0a4266414830450221009c296f17a52a347038baec52932fbe8e6b7d9b421d5027498b23111d9d0d3136022010da72fa8a81b94d2afadec471a3941448d3569ab2605f6ce2a1483f7bcd4698414c695221028fedaf75b5b08cddf3bf4631c658b68ee6766a8e999467a641d7cb7aaaecec972103316bc27d95b96418349afc6298c259bb999c6e8f39a7217787ad53602be7c1472102e21c29b4a7eeace9c7a8cefb568ca00c86ff9bf5e79e07e5442c29d4a0950d0453aeffffffff0118ddf5050000000017a914fe5cc5d87e3348a5f3eaa316898a0f05d520876e8700000000"
  },
  "inputs": [
    {
      "txid": "4ed0387b7823ad9129040a75ebe13c94a89a31180dc44ca2b6f77e724eee8b23",
      "hash": "948295b501640a4a20ebf6c099ba4f40da67a721f452239b082da27bb1164375",
      "version": 2,
      "size": 760,
      "vsize": 438,
      "weight": 1750,
      "locktime": 2001,
      "vin": [
        {
          "txid": "42d3ac3328ecbe8fc9dd7d823ff69799836e34efdf4aae53a1d69cd5346e9356",
          "vout": 0,
          "scriptSig": {
            "asm": "0014fb165e7875936b0b3d920676801a6b524b7f559d",
            "hex": "160014fb165e7875936b0b3d920676801a6b524b7f559d"
          },
          "txinwitness": [
            "3044022013aebf9d816220761c8452a7ad0c70d7929a032598b489928d82567e0cd90aba02202bf1e781086d5debc880d793c5fdf713a279e6ea4335bf8f2ddd3f051a1ca97541",
            "02fd6690992e8db4210c6c69f0c781622d26f3178d8533dfa33dd30ce199efeb6d"
          ],
          "sequence": 4294967294
        },
        {
          "txid": "b8978b69ee6a8907076455f16f1165a192ec8cebdf7701e0337056db54058908",
          "vout": 0,
          "scriptSig": {
            "asm": "0014fb165e7875936b0b3d920676801a6b524b7f559d",
            "hex": "160014fb165e7875936b0b3d920676801a6b524b7f559d"
          },
          "txinwitness": [
            "304402207799e6013c5256717e7c1a1e4df622f6e0cc72e443ed2ab0b6d6dd4d6f373f2402202c994a83c13efe58cca2c27494eb475f992e8066b749fd1f7a937ebbde4c21ef41",
            "02fd6690992e8db4210c6c69f0c781622d26f3178d8533dfa33dd30ce199efeb6d"
          ],
          "sequence": 4294967294
        },
        {
          "txid": "52701d7e6cca9ba4c2eb9d7bc3a0a1347a41c37b388522412c23ba429a0383d4",
          "vout": 0,
          "scriptSig": {
            "asm": "0014fb165e7875936b0b3d920676801a6b524b7f559d",
            "hex": "160014fb165e7875936b0b3d920676801a6b524b7f559d"
          },
          "txinwitness": [
            "304402204b864454433bb2ac451cfb8fb07d59fa2ff9d9783268261a3c9b8dfd301ec2a0022050cf68f994375fa31de9c003a964ca71877b5f437f82e8fed1f017ae4cf187dd41",
            "02fd6690992e8db4210c6c69f0c781622d26f3178d8533dfa33dd30ce199efeb6d"
          ],
          "sequence": 4294967294
        },
        {
          "txid": "0cbcafa4c34a11520fcf1043beabef17c50fc3c94dd03088068ffcb48dd4e6b9",
          "vout": 0,
          "scriptSig": {
            "asm": "0014fb165e7875936b0b3d920676801a6b524b7f559d",
            "hex": "160014fb165e7875936b0b3d920676801a6b524b7f559d"
          },
          "txinwitness": [
            "304402207d6d27baf0b9242f5d1129d320f295ac90178e12e9e09ca1486c8fae19de51da022021fcb82b928634194f4a922ea778c064ff053e01771a4e7c25f74ad4451e029e41",
            "02fd6690992e8db4210c6c69f0c781622d26f3178d8533dfa33dd30ce199efeb6d"
          ],
          "sequence": 4294967294
        }
      ],
      "vout": [
        {
          "value": 1,
          "n": 0,
          "scriptPubKey": {
            "asm": "OP_HASH160 fe5cc5d87e3348a5f3eaa316898a0f05d520876e OP_EQUAL",
            "hex": "a914fe5cc5d87e3348a5f3eaa316898a0f05d520876e87",
            "reqSigs": 1,
            "type": "scripthash",
            "addresses": [
              "2NGSAkyhiWMZPcrfiwmcRWf9HQgpsiRGKv4"
            ]
          }
        },
        {
          "value": 0.01309599,
          "n": 1,
          "scriptPubKey": {
            "asm": "OP_HASH160 06a06e7f13a21044c0b5fba3812a9ba7e8752d51 OP_EQUAL",
            "hex": "a91406a06e7f13a21044c0b5fba3812a9ba7e8752d5187",
            "reqSigs": 1,
            "type": "scripthash",
            "addresses": [
              "2MsrGERJM7QPfYkinuCn5LRe2gX8PqpofAX"
            ]
          }
        }
      ],
      "hex": "0200000000010456936e34d59cd6a153ae4adfef346e839997f63f827dddc98fbeec2833acd3420000000017160014fb165e7875936b0b3d920676801a6b524b7f559dfeffffff08890554db567033e00177dfeb8cec92a165116ff155640707896aee698b97b80000000017160014fb165e7875936b0b3d920676801a6b524b7f559dfeffffffd483039a42ba232c412285387bc3417a34a1a0c37b9debc2a49bca6c7e1d70520000000017160014fb165e7875936b0b3d920676801a6b524b7f559dfeffffffb9e6d48db4fc8f068830d04dc9c30fc517efabbe4310cf0f52114ac3a4afbc0c0000000017160014fb165e7875936b0b3d920676801a6b524b7f559dfeffffff0200e1f5050000000017a914fe5cc5d87e3348a5f3eaa316898a0f05d520876e879ffb13000000000017a91406a06e7f13a21044c0b5fba3812a9ba7e8752d518702473044022013aebf9d816220761c8452a7ad0c70d7929a032598b489928d82567e0cd90aba02202bf1e781086d5debc880d793c5fdf713a279e6ea4335bf8f2ddd3f051a1ca975412102fd6690992e8db4210c6c69f0c781622d26f3178d8533dfa33dd30ce199efeb6d0247304402207799e6013c5256717e7c1a1e4df622f6e0cc72e443ed2ab0b6d6dd4d6f373f2402202c994a83c13efe58cca2c27494eb475f992e8066b749fd1f7a937ebbde4c21ef412102fd6690992e8db4210c6c69f0c781622d26f3178d8533dfa33dd30ce199efeb6d0247304402204b864454433bb2ac451cfb8fb07d59fa2ff9d9783268261a3c9b8dfd301ec2a0022050cf68f994375fa31de9c003a964ca71877b5f437f82e8fed1f017ae4cf187dd412102fd6690992e8db4210c6c69f0c781622d26f3178d8533dfa33dd30ce199efeb6d0247304402207d6d27baf0b9242f5d1129d320f295ac90178e12e9e09ca1486c8fae19de51da022021fcb82b928634194f4a922ea778c064ff053e01771a4e7c25f74ad4451e029e412102fd6690992e8db4210c6c69f0c781622d26f3178d8533dfa33dd30ce199efeb6dd1070000"
    }
  ]
}