{
  "transaction": {
    "txid": "6c37cf762dc974c30e7658da4a44f6b0e71f11576b4a76a9d0887179739f15bb",
    "hash": "6c37cf762dc974c30e7658da4a44f6b0e71f11576b4a76a9d0887179739f15bb",
    "version": 2,
    "size": 335,
    "vsize": 335,
    "weight": 1340,
    "locktime": 0,
    "vin": [
      {
        "txid": "850de384fca39b6173046315fe6ef057b62d51ff819fc29a0fdede3e4d14dc44",
        "vout": 1,
        "scriptSig": {
          "asm": "0 30440220070cf7aeef657b7fc7770dd6c9edb676d296b46314fcba621d61385119ca6dd802207f32c4de7b1ebecc401952b01caead943a6a54759a4403a7fe24d65db9a113b5[ALL|FORKID] 304402206a311b24da8b979c3e64e2056fb4e97e78999d2bd709571a9dcd818600c08c8902205fcbd38315da006645751ce36b2b2a9ea55b30e4c07335498dab816a26a2fbc5[ALL|FORKID] 5221028fedaf75b5b08cddf3bf4631c658b68ee6766a8e999467a641d7cb7aaaecec972103316bc27d95b96418349afc6298c259bb999c6e8f39a7217787ad53602be7c1472102e21c29b4a7eeace9c7a8cefb568ca00c86ff9bf5e79e07e5442c29d4a0950d0453ae",
          "hex": "004730440220070cf7aeef657b7fc7770dd6c9edb676d296b46314fcba621d61385119ca6dd802207f32c4de7b1ebecc401952b01caead943a6a54759a4403a7fe24d65db9a113b54147304402206a311b24da8b979c3e64e2056fb4e97e78999d2bd709571a9dcd818600c08c8902205fcbd38315da006645751ce36b2b2a9ea55b30e4c07335498dab816a26a2fbc5414c695221028fedaf75b5b08cddf3bf4631c658b68ee6766a8e999467a641d7cb7aaaecec972103316bc27d95b96418349afc6298c259bb999c6e8f39a7217787ad53602be7c1472102e21c29b4a7eeace9c7a8cefb568ca00c86ff9bf5e79e07e5442c29d4a0950d0453ae"
        },
        "sequence": 4294967295
      }
    ],
    "vout": [
      {
        "value": 0.99999,
        "n": 0,
        "scriptPubKey": {
          "asm": "OP_HASH160 fe5cc5d87e3348a5f3eaa316898a0f05d520876e OP_EQUAL",
          "hex": "a914fe5cc5d87e3348a5f3eaa316898a0f05d520876e87",
          "reqSigs": 1,
          "type": "scripthash",
          "addresses": [
            "2NGSAkyhiWMZPcrfiwmcRWf9HQgpsiRGKv4"
          ]
        }
      }
    ],
    "hex": "020000000144dc144d3edede0f9ac29f81ff512db657f06efe15630473619ba3fc84e30d8501000000fc004730440220070cf7aeef657b7fc7770dd6c9edb676d296b46314fcba621d61385119ca6dd802207f32c4de7b1ebecc401952b01caead943a6a54759a4403a7fe24d65db9a113b54147304402206a311b24da8b979c3e64e2056fb4e97e78999d2bd709571a9dcd818600c08c8902205fcbd38315da006645751ce36b2b2a9ea55b30e4c07335498dab816a26a2fbc5414c695221028fedaf75b5b08cddf3bf4631c658b68ee6766a8e999467a641d7cb7aaaecec972103316bc27d95b96418349afc6298c259bb999c6e8f39a7217787ad53602be7c1472102e21c29b4a7eeace9c7a8cefb568ca00c86ff9bf5e79e07e5442c29d4a0950d0453aeffffffff0118ddf5050000000017a914fe5cc5d87e3348a5f3eaa316898a0f05d520876e8700000000"
  },
  "inputs": [
    {
      "txid": "850de384fca39b6173046315fe6ef057b62d51ff819fc29a0fdede3e4d14dc44",
      "hash": "025a1ad3833404a97e68223056d6cbe87538fe049da7640d9eb521fc60b941b7",
      "version": 2,
      "size": 760,
      "vsize": 438,
      "weight": 1750,
      "locktime": 1947,
      "vin": [
        {
          "txid": "25268921401ce1605402ca47c9ecd4620892c22350994bfa90b0376ebc7545ca",
          "vout": 0,
          "scriptSig": {
            "asm": "0014f942008ae86298d9c13052afa7f3ddb5a3a412f6",
            "hex": "160014f942008ae86298d9c13052afa7f3ddb5a3a412f6"
          },
          "txinwitness": [
            "304402202f3254a504e5f484f85cbb4912a3e1e08d6dcb8bd1ad7a264f33b68b608cdad30220397271c71e000ea0689dfb5d05d09edca17c1224e1d83da50a70ce89c4a43a6d41",
            "0302b116dbd1f6cc738f744ba0aa241c50da6e16e2ef77bdc86aaaa04bbbb1b412"
          ],
          "sequence": 4294967294
        },
        {
          "txid": "92cf711b7683384cdb984767aaa94e32cc3b65e09c9dd1845e6c0a15c878eeaa",
          "vout": 0,
          "scriptSig": {
            "asm": "0014f942008ae86298d9c13052afa7f3ddb5a3a412f6",
            "hex": "160014f942008ae86298d9c13052afa7f3ddb5a3a412f6"
          },
          "txinwitness": [
            "30440220304d149f719d4498acc3fbbfacc419fb70a96bbcb18c54ac75244dd4c10e4e90022046ddd0bebd939c96c0c1567e965d2e8d6e905145f03e72beded84d3957d957f841",
            "0302b116dbd1f6cc738f744ba0aa241c50da6e16e2ef77bdc86aaaa04bbbb1b412"
          ],
          "sequence": 4294967294
        },
        {
          "txid": "b703e7cfffdad7d0b80189445490eb00392464f2a00b6dbcbbeb80026c88ef4c",
          "vout": 0,
          "scriptSig": {
            "asm": "0014f942008ae86298d9c13052afa7f3ddb5a3a412f6",
            "hex": "160014f942008ae86298d9c13052afa7f3ddb5a3a412f6"
          },
          "txinwitness": [
            "3044022037bc16ac3747267ec0a94001cad4730b40701cb8c2c558a44e917f6e1643263402202422e79973cff792721cc3addb9f210e5093b9b2b9a6aacc8977bc7d356bbc3741",
            "0302b116dbd1f6cc738f744ba0aa241c50da6e16e2ef77bdc86aaaa04bbbb1b412"
          ],
          "sequence": 4294967294
        },
        {
          "txid": "3eae226fb971f731e94900e4ded5796aef1c09a2a3b74484ddf8e877b3839b28",
          "vout": 0,
          "scriptSig": {
            "asm": "0014f942008ae86298d9c13052afa7f3ddb5a3a412f6",
            "hex": "160014f942008ae86298d9c13052afa7f3ddb5a3a412f6"
          },
          "txinwitness": [
            "3044022055484f767121837adee0b0b4fda3991937319a19bbec3f1338a1b260502d15db0220722d39c593beac611896a267f12481eab53b6bb8fb42c98a9ffa098c945a787c41",
            "0302b116dbd1f6cc738f744ba0aa241c50da6e16e2ef77bdc86aaaa04bbbb1b412"
          ],
          "sequence": 4294967294
        }
      ],
      "vout": [
        {
          "value": 0.01309599,
          "n": 0,
          "scriptPubKey": {
            "asm": "OP_HASH160 e6756a6564e6bdb574da96ddac30adddcf2af269 OP_EQUAL",
            "hex": "a914e6756a6564e6bdb574da96ddac30adddcf2af26987",
            "reqSigs": 1,
            "type": "scripthash",
            "addresses": [
              "2NEFn4arcTqySvuUKThLiNBTGB8RPgagMV6"
            ]
          }
        },
        {
          "value": 1,
          "n": 1,
          "scriptPubKey": {
            "asm": "OP_HASH160 fe5cc5d87e3348a5f3eaa316898a0f05d520876e OP_EQUAL",
            "hex": "a914fe5cc5d87e3348a5f3eaa316898a0f05d520876e87",
            "reqSigs": 1,
            "type": "scripthash",
            "addresses": [
              "2NGSAkyhiWMZPcrfiwmcRWf9HQgpsiRGKv4"
            ]
          }
        }
      ],
      "hex": "02000000000104ca4575bc6e37b090fa4b995023c2920862d4ecc947ca025460e11c40218926250000000017160014f942008ae86298d9c13052afa7f3ddb5a3a412f6feffffffaaee78c8150a6c5e84d19d9ce0653bcc324ea9aa674798db4c3883761b71cf920000000017160014f942008ae86298d9c13052afa7f3ddb5a3a412f6feffffff4cef886c0280ebbbbc6d0ba0f264243900eb9054448901b8d0d7daffcfe703b70000000017160014f942008ae86298d9c13052afa7f3ddb5a3a412f6feffffff289b83b377e8f8dd8444b7a3a2091cef6a79d5dee40049e931f771b96f22ae3e0000000017160014f942008ae86298d9c13052afa7f3ddb5a3a412f6feffffff029ffb13000000000017a914e6756a6564e6bdb574da96ddac30adddcf2af2698700e1f5050000000017a914fe5cc5d87e3348a5f3eaa316898a0f05d520876e870247304402202f3254a504e5f484f85cbb4912a3e1e08d6dcb8bd1ad7a264f33b68b608cdad30220397271c71e000ea0689dfb5d05d09edca17c1224e1d83da50a70ce89c4a43a6d41210302b116dbd1f6cc738f744ba0aa241c50da6e16e2ef77bdc86aaaa04bbbb1b412024730440220304d149f719d4498acc3fbbfacc419fb70a96bbcb18c54ac75244dd4c10e4e90022046ddd0bebd939c96c0c1567e965d2e8d6e905145f03e72beded84d3957d957f841210302b116dbd1f6cc738f744ba0aa241c50da6e16e2ef77bdc86aaaa04bbbb1b41202473044022037bc16ac3747267ec0a94001cad4730b40701cb8c2c558a44e917f6e1643263402202422e79973cff792721cc3addb9f210e5093b9b2b9a6aacc8977bc7d356bbc3741210302b116dbd1f6cc738f744ba0aa241c50da6e16e2ef77bdc86aaaa04bbbb1b41202473044022055484f767121837adee0b0b4fda3991937319a19bbec3f1338a1b260502d15db0220722d39c593beac611896a267f12481eab53b6bb8fb42c98a9ffa098c945a787c41210302b116dbd1f6cc738f744ba0aa241c50da6e16e2ef77bdc86aaaa04bbbb1b4129b070000"
    }
  ]
}