{
  "transaction": {
    "txid": "609c1e25461e95972e0444148f4926882a9b08824023e4dd03d425d4e2acd6be",
    "hash": "42cecc8f947896c2cf8085bade325da81b1f25713065089ba0c463646826e765",
    "version": 2,
    "size": 373,
    "vsize": 182,
    "weight": 727,
    "locktime": 0,
    "vin": [
      {
        "txid": "1abd35844bb45fd61dfd50339d021404f2d405ae165d35d5d11e99a67c597dce",
        "vout": 0,
        "scriptSig": {
          "asm": "00201553f31a3e25e770b7bc857b82909e83734dbfe4bcdb5a5e6fc419b6920c398a",
          "hex": "2200201553f31a3e25e770b7bc857b82909e83734dbfe4bcdb5a5e6fc419b6920c398a"
        },
        "txinwitness": [
          "",
          "304402203de3a4336d61f2c2bbacc1b2f1da926069ebfd3fa5465d3f7830876ff8f97f1e02203d79bf3fd61b524ebe7a9dfca93d481002115609d554061f5f27ee82f35d3f0541",
          "3045022100ae06ee389aa37a5a4b38196154a8282c147d1783a5523600ea1b0559a1f9f5d802205e91b46d8d092382f610a1a35fd7817b61043180e7ddb1e33f01b7edf18a42ce41",
          "5221028fedaf75b5b08cddf3bf4631c658b68ee6766a8e999467a641d7cb7aaaecec972103316bc27d95b96418349afc6298c259bb999c6e8f39a7217787ad53602be7c1472102e21c29b4a7eeace9c7a8cefb568ca00c86ff9bf5e79e07e5442c29d4a0950d0453ae"
        ],
        "sequence": 4294967295
      }
    ],
    "vout": [
      {
        "value": 0.99999,
        "n": 0,
        "scriptPubKey": {
          "asm": "OP_HASH160 2280193aca8462021ec369d4e2ff1c95741fba7f OP_EQUAL",
          "hex": "a9142280193aca8462021ec369d4e2ff1c95741fba7f87",
          "reqSigs": 1,
          "type": "scripthash",
          "addresses": [
            "2MvPeRFSGYJq9BXoV2fxrMpJjsZMGx2m6Zk"
          ]
        }
      }
    ],
    "hex": "02000000000101ce7d597ca6991ed1d5355d16ae05d4f20414029d3350fd1dd65fb44b8435bd1a00000000232200201553f31a3e25e770b7bc857b82909e83734dbfe4bcdb5a5e6fc419b6920c398affffffff0118ddf5050000000017a9142280193aca8462021ec369d4e2ff1c95741fba7f87040047304402203de3a4336d61f2c2bbacc1b2f1da926069ebfd3fa5465d3f7830876ff8f97f1e02203d79bf3fd61b524ebe7a9dfca93d481002115609d554061f5f27ee82f35d3f0541483045022100ae06ee389aa37a5a4b38196154a8282c147d1783a5523600ea1b0559a1f9f5d802205e91b46d8d092382f610a1a35fd7817b61043180e7ddb1e33f01b7edf18a42ce41695221028fedaf75b5b08cddf3bf4631c658b68ee6766a8e999467a641d7cb7aaaecec972103316bc27d95b96418349afc6298c259bb999c6e8f39a7217787ad53602be7c1472102e21c29b4a7eeace9c7a8cefb568ca00c86ff9bf5e79e07e5442c29d4a0950d0453ae00000000"
  },
  "inputs": [
    {
      "txid": "1abd35844bb45fd61dfd50339d021404f2d405ae165d35d5d11e99a67c597dce",
      "hash": "58a306665423994cb6fb9574eba7a5deb6f228a8a19df846c058321afa370e7e",
      "version": 2,
      "size": 760,
      "vsize": 438,
      "weight": 1750,
      "locktime": 2001,
      "vin": [
        {
          "txid": "bc9606a43a0dee92071504ac85cdeebb84b32830d95fe6b0c45c9e653294da9d",
          "vout": 0,
          "scriptSig": {
            "asm": "0014f942008ae86298d9c13052afa7f3ddb5a3a412f6",
            "hex": "160014f942008ae86298d9c13052afa7f3ddb5a3a412f6"
          },
          "txinwitness": [
            "3044022045e94f21e3320d7c2b42891eb1e501af0f86c91316747b2bab1ae4b70097c0370220112ff6adcf91deacaebbb2b8a5bb56e8f460e2247dc056eb2ae3db1e5ea2a41f41",
            "0302b116dbd1f6cc738f744ba0aa241c50da6e16e2ef77bdc86aaaa04bbbb1b412"
          ],
          "sequence": 4294967294
        },
        {
          "txid": "cc15d9ac69cc11e25272085ab81cfd7ef171f6de77cafbb4ee2f9901d3b4c3f9",
          "vout": 0,
          "scriptSig": {
            "asm": "0014f942008ae86298d9c13052afa7f3ddb5a3a412f6",
            "hex": "160014f942008ae86298d9c13052afa7f3ddb5a3a412f6"
          },
          "txinwitness": [
            "304402201094530d99820f992ab1a3ec905f276fb74e094f80fbf107d8769e2b40222d7c02207b8e5cf0e82153a2ac722fa08c6ff4177b1f1922e553a82cefa0bdb707c3c5aa41",
            "0302b116dbd1f6cc738f744ba0aa241c50da6e16e2ef77bdc86aaaa04bbbb1b412"
          ],
          "sequence": 4294967294
        },
        {
          "txid": "6a4d903e665560784bf0556e693beee943bdeac882b7c980d7267e849b44eb69",
          "vout": 0,
          "scriptSig": {
            "asm": "0014f942008ae86298d9c13052afa7f3ddb5a3a412f6",
            "hex": "160014f942008ae86298d9c13052afa7f3ddb5a3a412f6"
          },
          "txinwitness": [
            "304402201d00077dd8f96b5d85caedd06b16f1fc51151e8591414c28fe82563f6e94c75802201b7c032576053647036fa28ed052fa22c25abeb21e1b3bd1db6b0a402e9b99c141",
            "0302b116dbd1f6cc738f744ba0aa241c50da6e16e2ef77bdc86aaaa04bbbb1b412"
          ],
          "sequence": 4294967294
        },
        {
          "txid": "25d583200bd9870a6946ac3c32d98b5a751cc81d752a4c0e8a274325d390805b",
          "vout": 0,
          "scriptSig": {
            "asm": "0014f942008ae86298d9c13052afa7f3ddb5a3a412f6",
            "hex": "160014f942008ae86298d9c13052afa7f3ddb5a3a412f6"
          },
          "txinwitness": [
            "304402205f8e2600c71a9f3ae37138ff6f7c3e952022e3f834a8436d7880b33bbf65e3bd022049d2ab90e5cef229deda6080564fd7e8d21113d5bff4c5011a2761f46d1a866c41",
            "0302b116dbd1f6cc738f744ba0aa241c50da6e16e2ef77bdc86aaaa04bbbb1b412"
          ],
          "sequence": 4294967294
        }
      ],
      "vout": [
        {
          "value": 1,
          "n": 0,
          "scriptPubKey": {
            "asm": "OP_HASH160 2280193aca8462021ec369d4e2ff1c95741fba7f OP_EQUAL",
            "hex": "a9142280193aca8462021ec369d4e2ff1c95741fba7f87",
            "reqSigs": 1,
            "type": "scripthash",
            "addresses": [
              "2MvPeRFSGYJq9BXoV2fxrMpJjsZMGx2m6Zk"
            ]
          }
        },
        {
          "value": 0.01309599,
          "n": 1,
          "scriptPubKey": {
            "asm": "OP_HASH160 12e21e37738b91fb359da62d08af8b86f219848b OP_EQUAL",
            "hex": "a91412e21e37738b91fb359da62d08af8b86f219848b87",
            "reqSigs": 1,
            "type": "scripthash",
            "addresses": [
              "2Mty52hAYFMXCaze6UbS92RUtudCV6DzsC8"
            ]
          }
        }
      ],
      "hex": "020000000001049dda9432659e5cc4b0e65fd93028b384bbeecd85ac04150792ee0d3aa40696bc0000000017160014f942008ae86298d9c13052afa7f3ddb5a3a412f6fefffffff9c3b4d301992feeb4fbca77def671f17efd1cb85a087252e211cc69acd915cc0000000017160014f942008ae86298d9c13052afa7f3ddb5a3a412f6feffffff69eb449b847e26d780c9b782c8eabd43e9ee3b696e55f04b786055663e904d6a0000000017160014f942008ae86298d9c13052afa7f3ddb5a3a412f6feffffff5b8090d32543278a0e4c2a751dc81c755a8bd9323cac46690a87d90b2083d5250000000017160014f942008ae86298d9c13052afa7f3ddb5a3a412f6feffffff0200e1f5050000000017a9142280193aca8462021ec369d4e2ff1c95741fba7f879ffb13000000000017a91412e21e37738b91fb359da62d08af8b86f219848b8702473044022045e94f21e3320d7c2b42891eb1e501af0f86c91316747b2bab1ae4b70097c0370220112ff6adcf91deacaebbb2b8a5bb56e8f460e2247dc056eb2ae3db1e5ea2a41f41210302b116dbd1f6cc738f744ba0aa241c50da6e16e2ef77bdc86aaaa04bbbb1b4120247304402201094530d99820f992ab1a3ec905f276fb74e094f80fbf107d8769e2b40222d7c02207b8e5cf0e82153a2ac722fa08c6ff4177b1f1922e553a82cefa0bdb707c3c5aa41210302b116dbd1f6cc738f744ba0aa241c50da6e16e2ef77bdc86aaaa04bbbb1b4120247304402201d00077dd8f96b5d85caedd06b16f1fc51151e8591414c28fe82563f6e94c75802201b7c032576053647036fa28ed052fa22c25abeb21e1b3bd1db6b0a402e9b99c141210302b116dbd1f6cc738f744ba0aa241c50da6e16e2ef77bdc86aaaa04bbbb1b4120247304402205f8e2600c71a9f3ae37138ff6f7c3e952022e3f834a8436d7880b33bbf65e3bd022049d2ab90e5cef229deda6080564fd7e8d21113d5bff4c5011a2761f46d1a866c41210302b116dbd1f6cc738f744ba0aa241c50da6e16e2ef77bdc86aaaa04bbbb1b412d1070000"
    }
  ]
}