{
  "transaction": {
    "txid": "7b7ac6689d1a253294cfc21f3a00397fb73dae4caac4811bd3d06a210a1a1ece",
    "hash": "add18e2575c84cb2b91f64d9f1d3e79ce31661025d56bab7722ffb86ae53372d",
    "version": 2,
    "size": 349,
    "vsize": 158,
    "weight": 631,
    "locktime": 0,
    "vin": [
      {
        "txid": "caa577eadc644133a13da7a4c9f22631fa41034916d1501979ec8848192e376d",
        "vout": 0,
        "scriptSig": {
          "asm": "",
          "hex": ""
        },
        "txinwitness": [
          "",
          "3045022100b3effb162ffdb10a9c391167f7b5249fcc9b3c67790ed235fe5c2895744f49df02204f3c8f5226598f2cb38d940e09168f7bbcd53abf0d3b5584b2529647a9e3fdf641",
          "304402207b1421967db436cd86a4a8c7b2870ec71427c40aa0b904f724f4eb976fcdfa780220194906bfaa4662e03a9b0d27996d8eb33683b763ca0f36a22f7365689771150f41",
          "5221028fedaf75b5b08cddf3bf4631c658b68ee6766a8e999467a641d7cb7aaaecec972103316bc27d95b96418349afc6298c259bb999c6e8f39a7217787ad53602be7c1472102e21c29b4a7eeace9c7a8cefb568ca00c86ff9bf5e79e07e5442c29d4a0950d0453ae"
        ],
        "sequence": 4294967295
      }
    ],
    "vout": [
      {
        "value": 0.99999,
        "n": 0,
        "scriptPubKey": {
          "asm": "0 1553f31a3e25e770b7bc857b82909e83734dbfe4bcdb5a5e6fc419b6920c398a",
          "hex": "00201553f31a3e25e770b7bc857b82909e83734dbfe4bcdb5a5e6fc419b6920c398a",
          "reqSigs": 1,
          "type": "witness_v0_scripthash",
          "addresses": [
            "btgrt1qz4flxx37yhnhpdaus4ac9yy7sde5m0lyhnd45hn0csvmdysv8x9qmez7qc"
          ]
        }
      }
    ],
    "hex": "020000000001016d372e194888ec791950d116490341fa3126f2c9a4a73da1334164dcea77a5ca0000000000ffffffff0118ddf505000000002200201553f31a3e25e770b7bc857b82909e83734dbfe4bcdb5a5e6fc419b6920c398a0400483045022100b3effb162ffdb10a9c391167f7b5249fcc9b3c67790ed235fe5c2895744f49df02204f3c8f5226598f2cb38d940e09168f7bbcd53abf0d3b5584b2529647a9e3fdf64147304402207b1421967db436cd86a4a8c7b2870ec71427c40aa0b904f724f4eb976fcdfa780220194906bfaa4662e03a9b0d27996d8eb33683b763ca0f36a22f7365689771150f41695221028fedaf75b5b08cddf3bf4631c658b68ee6766a8e999467a641d7cb7aaaecec972103316bc27d95b96418349afc6298c259bb999c6e8f39a7217787ad53602be7c1472102e21c29b4a7eeace9c7a8cefb568ca00c86ff9bf5e79e07e5442c29d4a0950d0453ae00000000"
  },
  "inputs": [
    {
      "txid": "caa577eadc644133a13da7a4c9f22631fa41034916d1501979ec8848192e376d",
      "hash": "26bd4bab59953bca78bc5399ef9d5a8d7d4d31ad9272306b9cd04d3579504539",
      "version": 2,
      "size": 770,
      "vsize": 448,
      "weight": 1790,
      "locktime": 2001,
      "vin": [
        {
          "txid": "29f6bc8fa3565965b0c0529e91b89a03987da1c4d10342cdbfa13f40a99d3e92",
          "vout": 0,
          "scriptSig": {
            "asm": "0014fb165e7875936b0b3d920676801a6b524b7f559d",
            "hex": "160014fb165e7875936b0b3d920676801a6b524b7f559d"
          },
          "txinwitness": [
            "3044022011f4b4102d3d5d77f152e2f0211743fe8cdcb95eb9fec40bbed14f1b9edda60e0220623c69d36496e987cf629e41e123e34823b2258db126d2054ad906ac920dea1d41",
            "02fd6690992e8db4210c6c69f0c781622d26f3178d8533dfa33dd30ce199efeb6d"
          ],
          "sequence": 4294967294
        },
        {
          "txid": "3ebf7e6a55ab6b48e568290919851d793b338a19c4c74dc1d3cbe8825bf5b254",
          "vout": 0,
          "scriptSig": {
            "asm": "0014fb165e7875936b0b3d920676801a6b524b7f559d",
            "hex": "160014fb165e7875936b0b3d920676801a6b524b7f559d"
          },
          "txinwitness": [
            "304402204c1140434aa89e965b84d60fafda69b24347ede450e2fd0273b94f8662cf7492022050f6599603e86b25fed13dc3b54e2d63b0269b97e4750b1663f40e39211a96d741",
            "02fd6690992e8db4210c6c69f0c781622d26f3178d8533dfa33dd30ce199efeb6d"
          ],
          "sequence": 4294967294
        },
        {
          "txid": "63ec073b5f3fd3df5efb8895ea729400f7b1b4b67bd3ec911414c96cfaac4466",
          "vout": 0,
          "scriptSig": {
            "asm": "0014fb165e7875936b0b3d920676801a6b524b7f559d",
            "hex": "160014fb165e7875936b0b3d920676801a6b524b7f559d"
          },
          "txinwitness": [
            "3044022003ebc1ba23ec90ed76b9ddc2a073f0bfe61ab3f69c80bf7492f9058b03ad846c022049d2f7e8f26663d11ae793182c9ca40945adf8c3b311fca5a9dffbb50877796841",
            "02fd6690992e8db4210c6c69f0c781622d26f3178d8533dfa33dd30ce199efeb6d"
          ],
          "sequence": 4294967294
        },
        {
          "txid": "335ba3c60421b3727669a5eea8450a40a6b9fde91ec7906255abcb23f3bd5059",
          "vout": 0,
          "scriptSig": {
            "asm": "0014fb165e7875936b0b3d920676801a6b524b7f559d",
            "hex": "160014fb165e7875936b0b3d920676801a6b524b7f559d"
          },
          "txinwitness": [
            "304402207c0c1e0662d171670044857230776a1fa89870a84c8398cf073407ebad854c5802200a076416939dc78f10da29fe690672542c031a134c603358526bbc4147b95e7841",
            "02fd6690992e8db4210c6c69f0c781622d26f3178d8533dfa33dd30ce199efeb6d"
          ],
          "sequence": 4294967294
        }
      ],
      "vout": [
        {
          "value": 1,
          "n": 0,
          "scriptPubKey": {
            "asm": "0 1553f31a3e25e770b7bc857b82909e83734dbfe4bcdb5a5e6fc419b6920c398a",
            "hex": "00201553f31a3e25e770b7bc857b82909e83734dbfe4bcdb5a5e6fc419b6920c398a",
            "reqSigs": 1,
            "type": "witness_v0_scripthash",
            "addresses": [
              "btgrt1qz4flxx37yhnhpdaus4ac9yy7sde5m0lyhnd45hn0csvmdysv8x9qmez7qc"
            ]
          }
        },
        {
          "value": 0.01309399,
          "n": 1,
          "scriptPubKey": {
            "asm": "0 01959f40e9efbcfe404d77372b6a0a88bdff1b0e",
            "hex": "001401959f40e9efbcfe404d77372b6a0a88bdff1b0e",
            "reqSigs": 1,
            "type": "witness_v0_keyhash",
            "addresses": [
              "btgrt1qqx2e7s8fa770uszdwumjk6s23z7l7xcw0hkxk8"
            ]
          }
        }
      ],
      "hex": "02000000000104923e9da9403fa1bfcd4203d1c4a17d98039ab8919e52c0b0655956a38fbcf6290000000017160014fb165e7875936b0b3d920676801a6b524b7f559dfeffffff54b2f55b82e8cbd3c14dc7c4198a333b791d8519092968e5486bab556a7ebf3e0000000017160014fb165e7875936b0b3d920676801a6b524b7f559dfeffffff6644acfa6cc9141491ecd37bb6b4b1f7009472ea9588fb5edfd33f5f3b07ec630000000017160014fb165e7875936b0b3d920676801a6b524b7f559dfeffffff5950bdf323cbab556290c71ee9fdb9a6400a45a8eea5697672b32104c6a35b330000000017160014fb165e7875936b0b3d920676801a6b524b7f559dfeffffff0200e1f505000000002200201553f31a3e25e770b7bc857b82909e83734dbfe4bcdb5a5e6fc419b6920c398ad7fa13000000000016001401959f40e9efbcfe404d77372b6a0a88bdff1b0e02473044022011f4b4102d3d5d77f152e2f0211743fe8cdcb95eb9fec40bbed14f1b9edda60e0220623c69d36496e987cf629e41e123e34823b2258db126d2054ad906ac920dea1d412102fd6690992e8db4210c6c69f0c781622d26f3178d8533dfa33dd30ce199efeb6d0247304402204c1140434aa89e965b84d60fafda69b24347ede450e2fd0273b94f8662cf7492022050f6599603e86b25fed13dc3b54e2d63b0269b97e4750b1663f40e39211a96d7412102fd6690992e8db4210c6c69f0c781622d26f3178d8533dfa33dd30ce199efeb6d02473044022003ebc1ba23ec90ed76b9ddc2a073f0bfe61ab3f69c80bf7492f9058b03ad846c022049d2f7e8f26663d11ae793182c9ca40945adf8c3b311fca5a9dffbb508777968412102fd6690992e8db4210c6c69f0c781622d26f3178d8533dfa33dd30ce199efeb6d0247304402207c0c1e0662d171670044857230776a1fa89870a84c8398cf073407ebad854c5802200a076416939dc78f10da29fe690672542c031a134c603358526bbc4147b95e78412102fd6690992e8db4210c6c69f0c781622d26f3178d8533dfa33dd30ce199efeb6dd1070000"
    }
  ]
}