{
  "transaction": {
    "txid": "9e9a27690acb441b0139e01feae408582726c09a12e2843041a31fe8488bee93",
    "hash": "9e9a27690acb441b0139e01feae408582726c09a12e2843041a31fe8488bee93",
    "version": 1,
    "size": 338,
    "vsize": 338,
    "weight": 1352,
    "locktime": 0,
    "vin": [
      {
        "txid": "1f4950da74a43eeff1a4d694457028c0bb8b19ccd95c41f40795578a2e7fede0",
        "vout": 1,
        "scriptSig": {
          "asm": "0 30450221008398af2cb1571415f09fef7be3875c107b12ce41affcffa91ab5a124a77661f9022052d922e8c59a7dccb2bdb3fd3ae4918239ae9d5eb315f269f02a56a5cb03288a[ALL] 30440220539aa30471d65c1be34a09b68978f65c5857d84ecbc6f730c89c03bf3b2e7c51022002657c491415a24f313b47f9591a5d8f2bcf6a5e4cd130d38bcb80329f8211a4[ALL] 5221028fedaf75b5b08cddf3bf4631c658b68ee6766a8e999467a641d7cb7aaaecec972103316bc27d95b96418349afc6298c259bb999c6e8f39a7217787ad53602be7c1472102e21c29b4a7eeace9c7a8cefb568ca00c86ff9bf5e79e07e5442c29d4a0950d0453ae",
          "hex": "004830450221008398af2cb1571415f09fef7be3875c107b12ce41affcffa91ab5a124a77661f9022052d922e8c59a7dccb2bdb3fd3ae4918239ae9d5eb315f269f02a56a5cb03288a014730440220539aa30471d65c1be34a09b68978f65c5857d84ecbc6f730c89c03bf3b2e7c51022002657c491415a24f313b47f9591a5d8f2bcf6a5e4cd130d38bcb80329f8211a4014c695221028fedaf75b5b08cddf3bf4631c658b68ee6766a8e999467a641d7cb7aaaecec972103316bc27d95b96418349afc6298c259bb999c6e8f39a7217787ad53602be7c1472102e21c29b4a7eeace9c7a8cefb568ca00c86ff9bf5e79e07e5442c29d4a0950d0453ae"
        },
        "sequence": 4294967295
      }
    ],
    "vout": [
      {
        "value": 0.99999,
        "n": 0,
        "scriptPubKey": {
          "asm": "OP_HASH160 fe5cc5d87e3348a5f3eaa316898a0f05d520876e OP_EQUAL",
          "hex": "a914fe5cc5d87e3348a5f3eaa316898a0f05d520876e87",
          "reqSigs": 1,
          "type": "scripthash",
          "addresses": [
            "2NGSAkyhiWMZPcrfiwmcRWf9HQgpsiRGKv4"
          ]
        }
      }
    ],
    "hex": "0100000001e0ed7f2e8a579507f4415cd9cc198bbbc028704594d6a4f1ef3ea474da50491f01000000fdfd00004830450221008398af2cb1571415f09fef7be3875c107b12ce41affcffa91ab5a124a77661f9022052d922e8c59a7dccb2bdb3fd3ae4918239ae9d5eb315f269f02a56a5cb03288a014730440220539aa30471d65c1be34a09b68978f65c5857d84ecbc6f730c89c03bf3b2e7c51022002657c491415a24f313b47f9591a5d8f2bcf6a5e4cd130d38bcb80329f8211a4014c695221028fedaf75b5b08cddf3bf4631c658b68ee6766a8e999467a641d7cb7aaaecec972103316bc27d95b96418349afc6298c259bb999c6e8f39a7217787ad53602be7c1472102e21c29b4a7eeace9c7a8cefb568ca00c86ff9bf5e79e07e5442c29d4a0950d0453aeffffffff0118ddf5050000000017a914fe5cc5d87e3348a5f3eaa316898a0f05d520876e8700000000"
  },
  "inputs": [
    {
      "txid": "1f4950da74a43eeff1a4d694457028c0bb8b19ccd95c41f40795578a2e7fede0",
      "hash": "52648c357ed4a3f0715dd8f32ce0cf04b376d54462f8241c311119b6584a52e0",
      "version": 2,
      "size": 247,
      "vsize": 166,
      "weight": 661,
      "locktime": 300,
      "vin": [
        {
          "txid": "bb2c2b029c66d3a5141f8b36492d1bb1944ac6c66635ce653884531f5a05e694",
          "vout": 0,
          "scriptSig": {
            "asm": "001435d679a7f7e4e740129e8fd25db6e1fe35d3f382",
            "hex": "16001435d679a7f7e4e740129e8fd25db6e1fe35d3f382"
          },
          "txinwitness": [
            "304402202ed5fd0dbf5034a472adfce31aa39bd9dea52b16f17bb40da39a15de772fa3fc02207ecd58588a01cd6d2bd2137d4e769ed5c72e6f1334bd94aadcc1a244ff0ceaf001",
            "03363b03335f5d57d0838e1f1d3280d4d7bb60f5640c2c3652db06ef986f9bf627"
          ],
          "sequence": 4294967294
        }
      ],
      "vout": [
        {
          "value": 23.9999668,
          "n": 0,
          "scriptPubKey": {
            "asm": "OP_HASH160 4a7ec440f55ebe6fad3ce2fa968d57c6aeb5dae5 OP_EQUAL",
            "hex": "a9144a7ec440f55ebe6fad3ce2fa968d57c6aeb5dae587",
            "reqSigs": 1,
            "type": "scripthash",
            "addresses": [
              "2Mz37rNttGcQBGCHStG6H18nG4EbM819rwQ"
            ]
          }
        },
        {
          "value": 1,
          "n": 1,
          "scriptPubKey": {
            "asm": "OP_HASH160 fe5cc5d87e3348a5f3eaa316898a0f05d520876e OP_EQUAL",
            "hex": "a914fe5cc5d87e3348a5f3eaa316898a0f05d520876e87",
            "reqSigs": 1,
            "type": "scripthash",
            "addresses": [
              "2NGSAkyhiWMZPcrfiwmcRWf9HQgpsiRGKv4"
            ]
          }
        }
      ],
      "hex": "0200000000010194e6055a1f53843865ce3566c6c64a94b11b2d49368b1f14a5d3669c022b2cbb000000001716001435d679a7f7e4e740129e8fd25db6e1fe35d3f382feffffff02080b0d8f0000000017a9144a7ec440f55ebe6fad3ce2fa968d57c6aeb5dae58700e1f5050000000017a914fe5cc5d87e3348a5f3eaa316898a0f05d520876e870247304402202ed5fd0dbf5034a472adfce31aa39bd9dea52b16f17bb40da39a15de772fa3fc02207ecd58588a01cd6d2bd2137d4e769ed5c72e6f1334bd94aadcc1a244ff0ceaf0012103363b03335f5d57d0838e1f1d3280d4d7bb60f5640c2c3652db06ef986f9bf6272c010000"
    }
  ]
}