export const updatedStakingRequest = {
  id: '52676686-0d86-4ae6-8216-3465cb228615',
  stakingRequestId: '75de4133-6bea-4507-841a-b19f7672e1f7',
  delegationId: '27d726f9-3061-4f73-b40c-703962449b24',
  createdDate: '2025-03-25T13:43:07.942063Z',
  transactionType: 'authorize',
  status: 'READY',
  statusModifiedDate: '2025-03-25T13:43:07.942063Z',
  amount: '1000000000000000000',
  buildParams: {
    recipients: [
      {
        amount: '0',
        address: '0x75bb6dcA2cD6F9a0189c478bBb8F7EE2fEF07C78',
        data: '0x095ea7b3000000000000000000000000140d63efb5b24314f6f62dbadb383dba2e49d7ee0000000000000000000000000000000000000000000000000de0b6b3a7640000',
      },
    ],
    stakingParams: {
      requestId: '75de4133-6bea-4507-841a-b19f7672e1f7',
      amount: '1000000000000000000',
      coin: 'topeth:wct',
      validator: '0x1d1a245741bd7d603747a23d30f4c91682a29926',
      actionType: 'wct_authorize',
    },
  },
};

export const unsignedStakingTransaction = {
  txHex:
    '0x02f9019083aa37dc718206a882089e83030d40941d1a245741bd7d603747a23d30f4c91682a2992680b901643912521500000000000000000000000075bb6dca2cd6f9a0189c478bbb8f7ee2fef07c78000000000000000000000000000000000000000000000000000000000000000000000000000000000000000000000000000000000000000000000000000000c00000000000000000000000000000000000000000000000000000000067ebedc3000000000000000000000000000000000000000000000000000000000000000600000000000000000000000000000000000000000000000000000000000001400000000000000000000000000000000000000000000000000000000000000044095ea7b3000000000000000000000000140d63efb5b24314f6f62dbadb383dba2e49d7ee0000000000000000000000000000000000000000000000000de0b6b3a7640000000000000000000000000000000000000000000000000000000000000000000000000000000000000000000000000000000000000000000000000000c0808080',
  txInfo: {
    nonce: 113,
    gasLimit: '200000',
    value: '0',
    data: '0x3912521500000000000000000000000075bb6dca2cd6f9a0189c478bbb8f7ee2fef07c78000000000000000000000000000000000000000000000000000000000000000000000000000000000000000000000000000000000000000000000000000000c00000000000000000000000000000000000000000000000000000000067ebedc3000000000000000000000000000000000000000000000000000000000000000600000000000000000000000000000000000000000000000000000000000001400000000000000000000000000000000000000000000000000000000000000044095ea7b3000000000000000000000000140d63efb5b24314f6f62dbadb383dba2e49d7ee0000000000000000000000000000000000000000000000000de0b6b3a7640000000000000000000000000000000000000000000000000000000000000000000000000000000000000000000000000000000000000000000000000000',
    id: '0xdddb88e48548a0c326c19b876886c694c3d88e64f7eafa11bbd274257728ce12',
    to: '0x1d1a245741bd7d603747a23d30f4c91682a29926',
    chainId: '0xaa37dc',
    _type: 'EIP1559',
    maxFeePerGas: '2206',
    maxPriorityFeePerGas: '1704',
  },
  feeInfo: {
    date: '2025-03-25T13:44:35.058Z',
    gasPrice: '1000251',
    baseFee: '251',
    gasUsedRatio: '0.00073025',
    safeLowMinerTip: '1136',
    normalMinerTip: '1136',
    standardMinerTip: '1136',
    fastestMinerTip: '1136',
    ludicrousMinerTip: '1010002',
  },
  eip1559: {
    maxPriorityFeePerGas: '1704',
    maxFeePerGas: '2206',
  },
  recipients: [
    {
      amount: '0',
      address: '0x75bb6dcA2cD6F9a0189c478bBb8F7EE2fEF07C78',
      data: '0x095ea7b3000000000000000000000000140d63efb5b24314f6f62dbadb383dba2e49d7ee0000000000000000000000000000000000000000000000000de0b6b3a7640000',
    },
  ],
  nextContractSequenceId: 6,
  gasLimit: 200000,
  isBatch: false,
  stakingParams: {
    requestId: '75de4133-6bea-4507-841a-b19f7672e1f7',
    amount: '1000000000000000000',
    coin: 'topeth:wct',
    validator: '0x1d1a245741bd7d603747a23d30f4c91682a29926',
    actionType: 'wct_authorize',
  },
  coin: 'topeth',
};
