import { KeyPair } from '../src';
import { ETHTransactionType, LegacyTxData } from '@bitgo/sdk-coin-eth';

export const ENCODED_TRANSACTION =
  '0xf9165f010a822ee09419645032c7f1533395d44a629462e751084d3e4c8301e240b915fb60606040526000600160006101000a81548160ff021916908315150217905550341561002a57600080fd5b60405161155b38038061155b833981016040528080518201919050506003815114151561005657600080fd5b806000908051906020019061006c929190610073565b5050610140565b8280548282559060005260206000209081019282156100ec579160200282015b828111156100eb5782518260006101000a81548173ffffffffffffffffffffffffffffffffffffffff021916908373ffffffffffffffffffffffffffffffffffffffff16021790555091602001919060010190610093565b5b5090506100f991906100fd565b5090565b61013d91905b8082111561013957600081816101000a81549073ffffffffffffffffffffffffffffffffffffffff021916905550600101610103565b5090565b90565b61140c8061014f6000396000f300606060405260043610610099576000357c0100000000000000000000000000000000000000000000000000000000900463ffffffff1680630dcd7a6c146101335780632079fb9a146101e95780632da034091461024c57806339125215146102a45780637df73e271461037e578063a0b7967b146103cf578063a68a76cc146103f8578063abe3219c1461044d578063fc0f392d1461047a575b6000341115610131577f6e89d517057028190560dd200cf6bf792842861353d1173761dfa362e1c133f03334600036604051808573ffffffffffffffffffffffffffffffffffffffff1673ffffffffffffffffffffffffffffffffffffffff16815260200184815260200180602001828103825284848281815260200192508082843782019150509550505050505060405180910390a15b005b341561013e57600080fd5b6101e7600480803573ffffffffffffffffffffffffffffffffffffffff1690602001909190803590602001909190803573ffffffffffffffffffffffffffffffffffffffff1690602001909190803590602001909190803590602001909190803590602001908201803590602001908080601f0160208091040260200160405190810160405280939291908181526020018383808284378201915050505050509190505061048f565b005b34156101f457600080fd5b61020a6004808035906020019091905050610668565b604051808273ffffffffffffffffffffffffffffffffffffffff1673ffffffffffffffffffffffffffffffffffffffff16815260200191505060405180910390f35b341561025757600080fd5b6102a2600480803573ffffffffffffffffffffffffffffffffffffffff1690602001909190803573ffffffffffffffffffffffffffffffffffffffff169060200190919050506106a7565b005b34156102af57600080fd5b61037c600480803573ffffffffffffffffffffffffffffffffffffffff1690602001909190803590602001909190803590602001908201803590602001908080601f0160208091040260200160405190810160405280939291908181526020018383808284378201915050505050509190803590602001909190803590602001909190803590602001908201803590602001908080601f01602080910402602001604051908101604052809392919081815260200183838082843782019150505050505091905050610773565b005b341561038957600080fd5b6103b5600480803573ffffffffffffffffffffffffffffffffffffffff16906020019091905050610a72565b604051808215151515815260200191505060405180910390f35b34156103da57600080fd5b6103e2610b16565b6040518082815260200191505060405180910390f35b341561040357600080fd5b61040b610b70565b604051808273ffffffffffffffffffffffffffffffffffffffff1673ffffffffffffffffffffffffffffffffffffffff16815260200191505060405180910390f35b341561045857600080fd5b610460610b95565b604051808215151515815260200191505060405180910390f35b341561048557600080fd5b61048d610ba8565b005b60008061049b33610a72565b15156104a657600080fd5b878787878760405180807f45524332300000000000000000000000000000000000000000000000000000008152506005018673ffffffffffffffffffffffffffffffffffffffff1673ffffffffffffffffffffffffffffffffffffffff166c010000000000000000000000000281526014018581526020018473ffffffffffffffffffffffffffffffffffffffff1673ffffffffffffffffffffffffffffffffffffffff166c0100000000000000000000000002815260140183815260200182815260200195505050505050604051809103902091506105898883858888610c3b565b508590508073ffffffffffffffffffffffffffffffffffffffff1663a9059cbb89896000604051602001526040518363ffffffff167c0100000000000000000000000000000000000000000000000000000000028152600401808373ffffffffffffffffffffffffffffffffffffffff1673ffffffffffffffffffffffffffffffffffffffff16815260200182815260200192505050602060405180830381600087803b151561063857600080fd5b6102c65a03f1151561064957600080fd5b50505060405180519050151561065e57600080fd5b5050505050505050565b60008181548110151561067757fe5b90600052602060002090016000915054906101000a900473ffffffffffffffffffffffffffffffffffffffff1681565b60006106b233610a72565b15156106bd57600080fd5b8290508073ffffffffffffffffffffffffffffffffffffffff16633ef13367836040518263ffffffff167c0100000000000000000000000000000000000000000000000000000000028152600401808273ffffffffffffffffffffffffffffffffffffffff1673ffffffffffffffffffffffffffffffffffffffff168152602001915050600060405180830381600087803b151561075a57600080fd5b6102c65a03f1151561076b57600080fd5b505050505050565b60008061077f33610a72565b151561078a57600080fd5b878787878760405180807f45544845520000000000000000000000000000000000000000000000000000008152506005018673ffffffffffffffffffffffffffffffffffffffff1673ffffffffffffffffffffffffffffffffffffffff166c0100000000000000000000000002815260140185815260200184805190602001908083835b602083101515610833578051825260208201915060208101905060208303925061080e565b6001836020036101000a038019825116818451168082178552505050505050905001838152602001828152602001955050505050506040518091039020915061087f8883858888610c3b565b90508773ffffffffffffffffffffffffffffffffffffffff16878760405180828051906020019080838360005b838110156108c75780820151818401526020810190506108ac565b50505050905090810190601f1680156108f45780820380516001836020036101000a031916815260200191505b5091505060006040518083038185876187965a03f192505050151561091857600080fd5b7f59bed9ab5d78073465dd642a9e3e76dfdb7d53bcae9d09df7d0b8f5234d5a8063382848b8b8b604051808773ffffffffffffffffffffffffffffffffffffffff1673ffffffffffffffffffffffffffffffffffffffff1681526020018673ffffffffffffffffffffffffffffffffffffffff1673ffffffffffffffffffffffffffffffffffffffff16815260200185600019166000191681526020018473ffffffffffffffffffffffffffffffffffffffff1673ffffffffffffffffffffffffffffffffffffffff16815260200183815260200180602001828103825283818151815260200191508051906020019080838360005b83811015610a29578082015181840152602081019050610a0e565b50505050905090810190601f168015610a565780820380516001836020036101000a031916815260200191505b5097505050505050505060405180910390a15050505050505050565b600080600090505b600080549050811015610b0b578273ffffffffffffffffffffffffffffffffffffffff16600082815481101515610aad57fe5b906000526020600020900160009054906101000a900473ffffffffffffffffffffffffffffffffffffffff1673ffffffffffffffffffffffffffffffffffffffff161415610afe5760019150610b10565b8080600101915050610a7a565b600091505b50919050565b6000806000809150600090505b600a811015610b655781600282600a81101515610b3c57fe5b01541115610b5857600281600a81101515610b5357fe5b015491505b8080600101915050610b23565b600182019250505090565b6000610b7a610e90565b604051809103906000f0801515610b9057600080fd5b905090565b600160009054906101000a900460ff1681565b610bb133610a72565b1515610bbc57600080fd5b60018060006101000a81548160ff0219169083151502179055507f0909e8f76a4fd3e970f2eaef56c0ee6dfaf8b87c5b8d3f56ffce78e825a9115733604051808273ffffffffffffffffffffffffffffffffffffffff1673ffffffffffffffffffffffffffffffffffffffff16815260200191505060405180910390a1565b600080610c488686610ce6565b9050600160009054906101000a900460ff168015610c6c5750610c6a87610a72565b155b15610c7657600080fd5b42841015610c8357600080fd5b610c8c83610db9565b610c9581610a72565b1515610ca057600080fd5b3373ffffffffffffffffffffffffffffffffffffffff168173ffffffffffffffffffffffffffffffffffffffff161415610cd957600080fd5b8091505095945050505050565b60008060008060418551141515610cfc57600080fd5b602085015192506040850151915060ff6041860151169050601b8160ff161015610d2757601b810190505b600186828585604051600081526020016040526000604051602001526040518085600019166000191681526020018460ff1660ff16815260200183600019166000191681526020018260001916600019168152602001945050505050602060405160208103908084039060008661646e5a03f11515610da557600080fd5b505060206040510351935050505092915050565b600080610dc533610a72565b1515610dd057600080fd5b60009150600090505b600a811015610e385782600282600a81101515610df257fe5b01541415610dff57600080fd5b600282600a81101515610e0e57fe5b0154600282600a81101515610e1f57fe5b01541015610e2b578091505b8080600101915050610dd9565b600282600a81101515610e4757fe5b0154831015610e5557600080fd5b612710600283600a81101515610e6757fe5b015401831115610e7657600080fd5b82600283600a81101515610e8657fe5b0181905550505050565b60405161054080610ea18339019056006060604052341561000f57600080fd5b336000806101000a81548173ffffffffffffffffffffffffffffffffffffffff021916908373ffffffffffffffffffffffffffffffffffffffff1602179055506104e28061005e6000396000f300606060405260043610610056576000357c0100000000000000000000000000000000000000000000000000000000900463ffffffff168062821de3146101475780633ef133671461019c5780636b9f96ea146101d5575b6000809054906101000a900473ffffffffffffffffffffffffffffffffffffffff1673ffffffffffffffffffffffffffffffffffffffff166108fc349081150290604051600060405180830381858888f1935050505015156100b757600080fd5b7f69b31548dea9b3b707b4dff357d326e3e9348b24e7a6080a218a6edeeec48f9b3334600036604051808573ffffffffffffffffffffffffffffffffffffffff1673ffffffffffffffffffffffffffffffffffffffff16815260200184815260200180602001828103825284848281815260200192508082843782019150509550505050505060405180910390a1005b341561015257600080fd5b61015a6101ea565b604051808273ffffffffffffffffffffffffffffffffffffffff1673ffffffffffffffffffffffffffffffffffffffff16815260200191505060405180910390f35b34156101a757600080fd5b6101d3600480803573ffffffffffffffffffffffffffffffffffffffff1690602001909190505061020f565b005b34156101e057600080fd5b6101e861043c565b005b6000809054906101000a900473ffffffffffffffffffffffffffffffffffffffff1681565b60008060008060009054906101000a900473ffffffffffffffffffffffffffffffffffffffff1673ffffffffffffffffffffffffffffffffffffffff163373ffffffffffffffffffffffffffffffffffffffff1614151561026f57600080fd5b8392503091508273ffffffffffffffffffffffffffffffffffffffff166370a08231836000604051602001526040518263ffffffff167c0100000000000000000000000000000000000000000000000000000000028152600401808273ffffffffffffffffffffffffffffffffffffffff1673ffffffffffffffffffffffffffffffffffffffff168152602001915050602060405180830381600087803b151561031857600080fd5b6102c65a03f1151561032957600080fd5b505050604051805190509050600081141561034357610436565b8273ffffffffffffffffffffffffffffffffffffffff1663a9059cbb6000809054906101000a900473ffffffffffffffffffffffffffffffffffffffff16836000604051602001526040518363ffffffff167c0100000000000000000000000000000000000000000000000000000000028152600401808373ffffffffffffffffffffffffffffffffffffffff1673ffffffffffffffffffffffffffffffffffffffff16815260200182815260200192505050602060405180830381600087803b151561040f57600080fd5b6102c65a03f1151561042057600080fd5b50505060405180519050151561043557600080fd5b5b50505050565b6000809054906101000a900473ffffffffffffffffffffffffffffffffffffffff1673ffffffffffffffffffffffffffffffffffffffff166108fc3073ffffffffffffffffffffffffffffffffffffffff16319081150290604051600060405180830381858888f1935050505015156104b457600080fd5b5600a165627a7a72305820088cce905e424bfe474510efe41761893e9e34b54b885b8fee546d8be88aee3c0029a165627a7a72305820827adc3ef3a179757bc33003e41070fbbfcdfc5db31275af3cb0395155cd3bbb0029000000000000000000000000000000000000000000000000000000000000002000000000000000000000000000000000000000000000000000000000000000030000000000000000000000008775ed5a9f67f90a017afb46980bfdae423dd41c00000000000000000000000042ff8ce0f79b69993893cef89412a4c48b7d29af0000000000000000000000007ae2ccba98e20daa6f6271cdf97a79c0274856f761a0a5d4e4fd9c12b58b62d529ac9cbe0635c6b0db389788d7e0a502f6819175b26aa04e6b17bcae11bf74e59e22e7c7aa6270526ddd3384effdcd640e711b2b14973d';

export const TXDATA: LegacyTxData = {
  _type: ETHTransactionType.LEGACY,
  nonce: 1,
  data: '0x60606040526000600160006101000a81548160ff021916908315150217905550341561002a57600080fd5b60405161155b38038061155b833981016040528080518201919050506003815114151561005657600080fd5b806000908051906020019061006c929190610073565b5050610140565b8280548282559060005260206000209081019282156100ec579160200282015b828111156100eb5782518260006101000a81548173ffffffffffffffffffffffffffffffffffffffff021916908373ffffffffffffffffffffffffffffffffffffffff16021790555091602001919060010190610093565b5b5090506100f991906100fd565b5090565b61013d91905b8082111561013957600081816101000a81549073ffffffffffffffffffffffffffffffffffffffff021916905550600101610103565b5090565b90565b61140c8061014f6000396000f300606060405260043610610099576000357c0100000000000000000000000000000000000000000000000000000000900463ffffffff1680630dcd7a6c146101335780632079fb9a146101e95780632da034091461024c57806339125215146102a45780637df73e271461037e578063a0b7967b146103cf578063a68a76cc146103f8578063abe3219c1461044d578063fc0f392d1461047a575b6000341115610131577f6e89d517057028190560dd200cf6bf792842861353d1173761dfa362e1c133f03334600036604051808573ffffffffffffffffffffffffffffffffffffffff1673ffffffffffffffffffffffffffffffffffffffff16815260200184815260200180602001828103825284848281815260200192508082843782019150509550505050505060405180910390a15b005b341561013e57600080fd5b6101e7600480803573ffffffffffffffffffffffffffffffffffffffff1690602001909190803590602001909190803573ffffffffffffffffffffffffffffffffffffffff1690602001909190803590602001909190803590602001909190803590602001908201803590602001908080601f0160208091040260200160405190810160405280939291908181526020018383808284378201915050505050509190505061048f565b005b34156101f457600080fd5b61020a6004808035906020019091905050610668565b604051808273ffffffffffffffffffffffffffffffffffffffff1673ffffffffffffffffffffffffffffffffffffffff16815260200191505060405180910390f35b341561025757600080fd5b6102a2600480803573ffffffffffffffffffffffffffffffffffffffff1690602001909190803573ffffffffffffffffffffffffffffffffffffffff169060200190919050506106a7565b005b34156102af57600080fd5b61037c600480803573ffffffffffffffffffffffffffffffffffffffff1690602001909190803590602001909190803590602001908201803590602001908080601f0160208091040260200160405190810160405280939291908181526020018383808284378201915050505050509190803590602001909190803590602001909190803590602001908201803590602001908080601f01602080910402602001604051908101604052809392919081815260200183838082843782019150505050505091905050610773565b005b341561038957600080fd5b6103b5600480803573ffffffffffffffffffffffffffffffffffffffff16906020019091905050610a72565b604051808215151515815260200191505060405180910390f35b34156103da57600080fd5b6103e2610b16565b6040518082815260200191505060405180910390f35b341561040357600080fd5b61040b610b70565b604051808273ffffffffffffffffffffffffffffffffffffffff1673ffffffffffffffffffffffffffffffffffffffff16815260200191505060405180910390f35b341561045857600080fd5b610460610b95565b604051808215151515815260200191505060405180910390f35b341561048557600080fd5b61048d610ba8565b005b60008061049b33610a72565b15156104a657600080fd5b878787878760405180807f45524332300000000000000000000000000000000000000000000000000000008152506005018673ffffffffffffffffffffffffffffffffffffffff1673ffffffffffffffffffffffffffffffffffffffff166c010000000000000000000000000281526014018581526020018473ffffffffffffffffffffffffffffffffffffffff1673ffffffffffffffffffffffffffffffffffffffff166c0100000000000000000000000002815260140183815260200182815260200195505050505050604051809103902091506105898883858888610c3b565b508590508073ffffffffffffffffffffffffffffffffffffffff1663a9059cbb89896000604051602001526040518363ffffffff167c0100000000000000000000000000000000000000000000000000000000028152600401808373ffffffffffffffffffffffffffffffffffffffff1673ffffffffffffffffffffffffffffffffffffffff16815260200182815260200192505050602060405180830381600087803b151561063857600080fd5b6102c65a03f1151561064957600080fd5b50505060405180519050151561065e57600080fd5b5050505050505050565b60008181548110151561067757fe5b90600052602060002090016000915054906101000a900473ffffffffffffffffffffffffffffffffffffffff1681565b60006106b233610a72565b15156106bd57600080fd5b8290508073ffffffffffffffffffffffffffffffffffffffff16633ef13367836040518263ffffffff167c0100000000000000000000000000000000000000000000000000000000028152600401808273ffffffffffffffffffffffffffffffffffffffff1673ffffffffffffffffffffffffffffffffffffffff168152602001915050600060405180830381600087803b151561075a57600080fd5b6102c65a03f1151561076b57600080fd5b505050505050565b60008061077f33610a72565b151561078a57600080fd5b878787878760405180807f45544845520000000000000000000000000000000000000000000000000000008152506005018673ffffffffffffffffffffffffffffffffffffffff1673ffffffffffffffffffffffffffffffffffffffff166c0100000000000000000000000002815260140185815260200184805190602001908083835b602083101515610833578051825260208201915060208101905060208303925061080e565b6001836020036101000a038019825116818451168082178552505050505050905001838152602001828152602001955050505050506040518091039020915061087f8883858888610c3b565b90508773ffffffffffffffffffffffffffffffffffffffff16878760405180828051906020019080838360005b838110156108c75780820151818401526020810190506108ac565b50505050905090810190601f1680156108f45780820380516001836020036101000a031916815260200191505b5091505060006040518083038185876187965a03f192505050151561091857600080fd5b7f59bed9ab5d78073465dd642a9e3e76dfdb7d53bcae9d09df7d0b8f5234d5a8063382848b8b8b604051808773ffffffffffffffffffffffffffffffffffffffff1673ffffffffffffffffffffffffffffffffffffffff1681526020018673ffffffffffffffffffffffffffffffffffffffff1673ffffffffffffffffffffffffffffffffffffffff16815260200185600019166000191681526020018473ffffffffffffffffffffffffffffffffffffffff1673ffffffffffffffffffffffffffffffffffffffff16815260200183815260200180602001828103825283818151815260200191508051906020019080838360005b83811015610a29578082015181840152602081019050610a0e565b50505050905090810190601f168015610a565780820380516001836020036101000a031916815260200191505b5097505050505050505060405180910390a15050505050505050565b600080600090505b600080549050811015610b0b578273ffffffffffffffffffffffffffffffffffffffff16600082815481101515610aad57fe5b906000526020600020900160009054906101000a900473ffffffffffffffffffffffffffffffffffffffff1673ffffffffffffffffffffffffffffffffffffffff161415610afe5760019150610b10565b8080600101915050610a7a565b600091505b50919050565b6000806000809150600090505b600a811015610b655781600282600a81101515610b3c57fe5b01541115610b5857600281600a81101515610b5357fe5b015491505b8080600101915050610b23565b600182019250505090565b6000610b7a610e90565b604051809103906000f0801515610b9057600080fd5b905090565b600160009054906101000a900460ff1681565b610bb133610a72565b1515610bbc57600080fd5b60018060006101000a81548160ff0219169083151502179055507f0909e8f76a4fd3e970f2eaef56c0ee6dfaf8b87c5b8d3f56ffce78e825a9115733604051808273ffffffffffffffffffffffffffffffffffffffff1673ffffffffffffffffffffffffffffffffffffffff16815260200191505060405180910390a1565b600080610c488686610ce6565b9050600160009054906101000a900460ff168015610c6c5750610c6a87610a72565b155b15610c7657600080fd5b42841015610c8357600080fd5b610c8c83610db9565b610c9581610a72565b1515610ca057600080fd5b3373ffffffffffffffffffffffffffffffffffffffff168173ffffffffffffffffffffffffffffffffffffffff161415610cd957600080fd5b8091505095945050505050565b60008060008060418551141515610cfc57600080fd5b602085015192506040850151915060ff6041860151169050601b8160ff161015610d2757601b810190505b600186828585604051600081526020016040526000604051602001526040518085600019166000191681526020018460ff1660ff16815260200183600019166000191681526020018260001916600019168152602001945050505050602060405160208103908084039060008661646e5a03f11515610da557600080fd5b505060206040510351935050505092915050565b600080610dc533610a72565b1515610dd057600080fd5b60009150600090505b600a811015610e385782600282600a81101515610df257fe5b01541415610dff57600080fd5b600282600a81101515610e0e57fe5b0154600282600a81101515610e1f57fe5b01541015610e2b578091505b8080600101915050610dd9565b600282600a81101515610e4757fe5b0154831015610e5557600080fd5b612710600283600a81101515610e6757fe5b015401831115610e7657600080fd5b82600283600a81101515610e8657fe5b0181905550505050565b60405161054080610ea18339019056006060604052341561000f57600080fd5b336000806101000a81548173ffffffffffffffffffffffffffffffffffffffff021916908373ffffffffffffffffffffffffffffffffffffffff1602179055506104e28061005e6000396000f300606060405260043610610056576000357c0100000000000000000000000000000000000000000000000000000000900463ffffffff168062821de3146101475780633ef133671461019c5780636b9f96ea146101d5575b6000809054906101000a900473ffffffffffffffffffffffffffffffffffffffff1673ffffffffffffffffffffffffffffffffffffffff166108fc349081150290604051600060405180830381858888f1935050505015156100b757600080fd5b7f69b31548dea9b3b707b4dff357d326e3e9348b24e7a6080a218a6edeeec48f9b3334600036604051808573ffffffffffffffffffffffffffffffffffffffff1673ffffffffffffffffffffffffffffffffffffffff16815260200184815260200180602001828103825284848281815260200192508082843782019150509550505050505060405180910390a1005b341561015257600080fd5b61015a6101ea565b604051808273ffffffffffffffffffffffffffffffffffffffff1673ffffffffffffffffffffffffffffffffffffffff16815260200191505060405180910390f35b34156101a757600080fd5b6101d3600480803573ffffffffffffffffffffffffffffffffffffffff1690602001909190505061020f565b005b34156101e057600080fd5b6101e861043c565b005b6000809054906101000a900473ffffffffffffffffffffffffffffffffffffffff1681565b60008060008060009054906101000a900473ffffffffffffffffffffffffffffffffffffffff1673ffffffffffffffffffffffffffffffffffffffff163373ffffffffffffffffffffffffffffffffffffffff1614151561026f57600080fd5b8392503091508273ffffffffffffffffffffffffffffffffffffffff166370a08231836000604051602001526040518263ffffffff167c0100000000000000000000000000000000000000000000000000000000028152600401808273ffffffffffffffffffffffffffffffffffffffff1673ffffffffffffffffffffffffffffffffffffffff168152602001915050602060405180830381600087803b151561031857600080fd5b6102c65a03f1151561032957600080fd5b505050604051805190509050600081141561034357610436565b8273ffffffffffffffffffffffffffffffffffffffff1663a9059cbb6000809054906101000a900473ffffffffffffffffffffffffffffffffffffffff16836000604051602001526040518363ffffffff167c0100000000000000000000000000000000000000000000000000000000028152600401808373ffffffffffffffffffffffffffffffffffffffff1673ffffffffffffffffffffffffffffffffffffffff16815260200182815260200192505050602060405180830381600087803b151561040f57600080fd5b6102c65a03f1151561042057600080fd5b50505060405180519050151561043557600080fd5b5b50505050565b6000809054906101000a900473ffffffffffffffffffffffffffffffffffffffff1673ffffffffffffffffffffffffffffffffffffffff166108fc3073ffffffffffffffffffffffffffffffffffffffff16319081150290604051600060405180830381858888f1935050505015156104b457600080fd5b5600a165627a7a72305820088cce905e424bfe474510efe41761893e9e34b54b885b8fee546d8be88aee3c0029a165627a7a72305820827adc3ef3a179757bc33003e41070fbbfcdfc5db31275af3cb0395155cd3bbb0029000000000000000000000000000000000000000000000000000000000000002000000000000000000000000000000000000000000000000000000000000000030000000000000000000000008775ed5a9f67f90a017afb46980bfdae423dd41c00000000000000000000000042ff8ce0f79b69993893cef89412a4c48b7d29af0000000000000000000000007ae2ccba98e20daa6f6271cdf97a79c0274856f7',
  gasLimit: '12000',
  gasPrice: '10',
  chainId: '0x1f',
  value: '123456',
  to: '0x19645032c7f1533395d44a629462e751084d3e4c',
  id: '0x1f79ab9d8e112a291dbf700beeae5bd6d61b50137c485045abecea16521efaba',
};

export const TX_BROADCAST =
  '0xf9164d018405f5e1008367c2808080b915fb60606040526000600160006101000a81548160ff021916908315150217905550341561002a57600080fd5b60405161155b38038061155b833981016040528080518201919050506003815114151561005657600080fd5b806000908051906020019061006c929190610073565b5050610140565b8280548282559060005260206000209081019282156100ec579160200282015b828111156100eb5782518260006101000a81548173ffffffffffffffffffffffffffffffffffffffff021916908373ffffffffffffffffffffffffffffffffffffffff16021790555091602001919060010190610093565b5b5090506100f991906100fd565b5090565b61013d91905b8082111561013957600081816101000a81549073ffffffffffffffffffffffffffffffffffffffff021916905550600101610103565b5090565b90565b61140c8061014f6000396000f300606060405260043610610099576000357c0100000000000000000000000000000000000000000000000000000000900463ffffffff1680630dcd7a6c146101335780632079fb9a146101e95780632da034091461024c57806339125215146102a45780637df73e271461037e578063a0b7967b146103cf578063a68a76cc146103f8578063abe3219c1461044d578063fc0f392d1461047a575b6000341115610131577f6e89d517057028190560dd200cf6bf792842861353d1173761dfa362e1c133f03334600036604051808573ffffffffffffffffffffffffffffffffffffffff1673ffffffffffffffffffffffffffffffffffffffff16815260200184815260200180602001828103825284848281815260200192508082843782019150509550505050505060405180910390a15b005b341561013e57600080fd5b6101e7600480803573ffffffffffffffffffffffffffffffffffffffff1690602001909190803590602001909190803573ffffffffffffffffffffffffffffffffffffffff1690602001909190803590602001909190803590602001909190803590602001908201803590602001908080601f0160208091040260200160405190810160405280939291908181526020018383808284378201915050505050509190505061048f565b005b34156101f457600080fd5b61020a6004808035906020019091905050610668565b604051808273ffffffffffffffffffffffffffffffffffffffff1673ffffffffffffffffffffffffffffffffffffffff16815260200191505060405180910390f35b341561025757600080fd5b6102a2600480803573ffffffffffffffffffffffffffffffffffffffff1690602001909190803573ffffffffffffffffffffffffffffffffffffffff169060200190919050506106a7565b005b34156102af57600080fd5b61037c600480803573ffffffffffffffffffffffffffffffffffffffff1690602001909190803590602001909190803590602001908201803590602001908080601f0160208091040260200160405190810160405280939291908181526020018383808284378201915050505050509190803590602001909190803590602001909190803590602001908201803590602001908080601f01602080910402602001604051908101604052809392919081815260200183838082843782019150505050505091905050610773565b005b341561038957600080fd5b6103b5600480803573ffffffffffffffffffffffffffffffffffffffff16906020019091905050610a72565b604051808215151515815260200191505060405180910390f35b34156103da57600080fd5b6103e2610b16565b6040518082815260200191505060405180910390f35b341561040357600080fd5b61040b610b70565b604051808273ffffffffffffffffffffffffffffffffffffffff1673ffffffffffffffffffffffffffffffffffffffff16815260200191505060405180910390f35b341561045857600080fd5b610460610b95565b604051808215151515815260200191505060405180910390f35b341561048557600080fd5b61048d610ba8565b005b60008061049b33610a72565b15156104a657600080fd5b878787878760405180807f52534b2d455243323000000000000000000000000000000000000000000000008152506009018673ffffffffffffffffffffffffffffffffffffffff1673ffffffffffffffffffffffffffffffffffffffff166c010000000000000000000000000281526014018581526020018473ffffffffffffffffffffffffffffffffffffffff1673ffffffffffffffffffffffffffffffffffffffff166c0100000000000000000000000002815260140183815260200182815260200195505050505050604051809103902091506105898883858888610c3b565b508590508073ffffffffffffffffffffffffffffffffffffffff1663a9059cbb89896000604051602001526040518363ffffffff167c0100000000000000000000000000000000000000000000000000000000028152600401808373ffffffffffffffffffffffffffffffffffffffff1673ffffffffffffffffffffffffffffffffffffffff16815260200182815260200192505050602060405180830381600087803b151561063857600080fd5b6102c65a03f1151561064957600080fd5b50505060405180519050151561065e57600080fd5b5050505050505050565b60008181548110151561067757fe5b90600052602060002090016000915054906101000a900473ffffffffffffffffffffffffffffffffffffffff1681565b60006106b233610a72565b15156106bd57600080fd5b8290508073ffffffffffffffffffffffffffffffffffffffff16633ef13367836040518263ffffffff167c0100000000000000000000000000000000000000000000000000000000028152600401808273ffffffffffffffffffffffffffffffffffffffff1673ffffffffffffffffffffffffffffffffffffffff168152602001915050600060405180830381600087803b151561075a57600080fd5b6102c65a03f1151561076b57600080fd5b505050505050565b60008061077f33610a72565b151561078a57600080fd5b878787878760405180807f52534b00000000000000000000000000000000000000000000000000000000008152506003018673ffffffffffffffffffffffffffffffffffffffff1673ffffffffffffffffffffffffffffffffffffffff166c0100000000000000000000000002815260140185815260200184805190602001908083835b602083101515610833578051825260208201915060208101905060208303925061080e565b6001836020036101000a038019825116818451168082178552505050505050905001838152602001828152602001955050505050506040518091039020915061087f8883858888610c3b565b90508773ffffffffffffffffffffffffffffffffffffffff16878760405180828051906020019080838360005b838110156108c75780820151818401526020810190506108ac565b50505050905090810190601f1680156108f45780820380516001836020036101000a031916815260200191505b5091505060006040518083038185876187965a03f192505050151561091857600080fd5b7f59bed9ab5d78073465dd642a9e3e76dfdb7d53bcae9d09df7d0b8f5234d5a8063382848b8b8b604051808773ffffffffffffffffffffffffffffffffffffffff1673ffffffffffffffffffffffffffffffffffffffff1681526020018673ffffffffffffffffffffffffffffffffffffffff1673ffffffffffffffffffffffffffffffffffffffff16815260200185600019166000191681526020018473ffffffffffffffffffffffffffffffffffffffff1673ffffffffffffffffffffffffffffffffffffffff16815260200183815260200180602001828103825283818151815260200191508051906020019080838360005b83811015610a29578082015181840152602081019050610a0e565b50505050905090810190601f168015610a565780820380516001836020036101000a031916815260200191505b5097505050505050505060405180910390a15050505050505050565b600080600090505b600080549050811015610b0b578273ffffffffffffffffffffffffffffffffffffffff16600082815481101515610aad57fe5b906000526020600020900160009054906101000a900473ffffffffffffffffffffffffffffffffffffffff1673ffffffffffffffffffffffffffffffffffffffff161415610afe5760019150610b10565b8080600101915050610a7a565b600091505b50919050565b6000806000809150600090505b600a811015610b655781600282600a81101515610b3c57fe5b01541115610b5857600281600a81101515610b5357fe5b015491505b8080600101915050610b23565b600182019250505090565b6000610b7a610e90565b604051809103906000f0801515610b9057600080fd5b905090565b600160009054906101000a900460ff1681565b610bb133610a72565b1515610bbc57600080fd5b60018060006101000a81548160ff0219169083151502179055507f0909e8f76a4fd3e970f2eaef56c0ee6dfaf8b87c5b8d3f56ffce78e825a9115733604051808273ffffffffffffffffffffffffffffffffffffffff1673ffffffffffffffffffffffffffffffffffffffff16815260200191505060405180910390a1565b600080610c488686610ce6565b9050600160009054906101000a900460ff168015610c6c5750610c6a87610a72565b155b15610c7657600080fd5b42841015610c8357600080fd5b610c8c83610db9565b610c9581610a72565b1515610ca057600080fd5b3373ffffffffffffffffffffffffffffffffffffffff168173ffffffffffffffffffffffffffffffffffffffff161415610cd957600080fd5b8091505095945050505050565b60008060008060418551141515610cfc57600080fd5b602085015192506040850151915060ff6041860151169050601b8160ff161015610d2757601b810190505b600186828585604051600081526020016040526000604051602001526040518085600019166000191681526020018460ff1660ff16815260200183600019166000191681526020018260001916600019168152602001945050505050602060405160208103908084039060008661646e5a03f11515610da557600080fd5b505060206040510351935050505092915050565b600080610dc533610a72565b1515610dd057600080fd5b60009150600090505b600a811015610e385782600282600a81101515610df257fe5b01541415610dff57600080fd5b600282600a81101515610e0e57fe5b0154600282600a81101515610e1f57fe5b01541015610e2b578091505b8080600101915050610dd9565b600282600a81101515610e4757fe5b0154831015610e5557600080fd5b612710600283600a81101515610e6757fe5b015401831115610e7657600080fd5b82600283600a81101515610e8657fe5b0181905550505050565b60405161054080610ea18339019056006060604052341561000f57600080fd5b336000806101000a81548173ffffffffffffffffffffffffffffffffffffffff021916908373ffffffffffffffffffffffffffffffffffffffff1602179055506104e28061005e6000396000f300606060405260043610610056576000357c0100000000000000000000000000000000000000000000000000000000900463ffffffff168062821de3146101475780633ef133671461019c5780636b9f96ea146101d5575b6000809054906101000a900473ffffffffffffffffffffffffffffffffffffffff1673ffffffffffffffffffffffffffffffffffffffff166108fc349081150290604051600060405180830381858888f1935050505015156100b757600080fd5b7f69b31548dea9b3b707b4dff357d326e3e9348b24e7a6080a218a6edeeec48f9b3334600036604051808573ffffffffffffffffffffffffffffffffffffffff1673ffffffffffffffffffffffffffffffffffffffff16815260200184815260200180602001828103825284848281815260200192508082843782019150509550505050505060405180910390a1005b341561015257600080fd5b61015a6101ea565b604051808273ffffffffffffffffffffffffffffffffffffffff1673ffffffffffffffffffffffffffffffffffffffff16815260200191505060405180910390f35b34156101a757600080fd5b6101d3600480803573ffffffffffffffffffffffffffffffffffffffff1690602001909190505061020f565b005b34156101e057600080fd5b6101e861043c565b005b6000809054906101000a900473ffffffffffffffffffffffffffffffffffffffff1681565b60008060008060009054906101000a900473ffffffffffffffffffffffffffffffffffffffff1673ffffffffffffffffffffffffffffffffffffffff163373ffffffffffffffffffffffffffffffffffffffff1614151561026f57600080fd5b8392503091508273ffffffffffffffffffffffffffffffffffffffff166370a08231836000604051602001526040518263ffffffff167c0100000000000000000000000000000000000000000000000000000000028152600401808273ffffffffffffffffffffffffffffffffffffffff1673ffffffffffffffffffffffffffffffffffffffff168152602001915050602060405180830381600087803b151561031857600080fd5b6102c65a03f1151561032957600080fd5b505050604051805190509050600081141561034357610436565b8273ffffffffffffffffffffffffffffffffffffffff1663a9059cbb6000809054906101000a900473ffffffffffffffffffffffffffffffffffffffff16836000604051602001526040518363ffffffff167c0100000000000000000000000000000000000000000000000000000000028152600401808373ffffffffffffffffffffffffffffffffffffffff1673ffffffffffffffffffffffffffffffffffffffff16815260200182815260200192505050602060405180830381600087803b151561040f57600080fd5b6102c65a03f1151561042057600080fd5b50505060405180519050151561043557600080fd5b5b50505050565b6000809054906101000a900473ffffffffffffffffffffffffffffffffffffffff1673ffffffffffffffffffffffffffffffffffffffff166108fc3073ffffffffffffffffffffffffffffffffffffffff16319081150290604051600060405180830381858888f1935050505015156104b457600080fd5b5600a165627a7a7230582042193b8fa36bb211143819a525fe07f597a57ac51bda735499ecebe2eda648870029a165627a7a72305820f719320ed9d764459da8e0faa65c5bfcec0108e03d9311e6bff31d3df07cccdd002900000000000000000000000000000000000000000000000000000000000000200000000000000000000000000000000000000000000000000000000000000003000000000000000000000000a43f0bdd451e39c7af20426f43589defad4335e60000000000000000000000002fa96fca36dd9d646ac8a4e0c19b4d3a0dc7e456000000000000000000000000c37825d368ec3f50a1505542d8ffb25f7b6288f262a0c72047da67a4a04e8d0fd36d7bed4e7b31696bd569b00bed39877e6c906b9298a0677d25ba90cc78b63a3442b0cf6d65d92f0008f965d2b93d2458f33f0d576bfa';

export const UNSIGNED_TX =
  '0xf9161f010a822ee09419645032c7f1533395d44a629462e751084d3e4c8301e240b915fb60606040526000600160006101000a81548160ff021916908315150217905550341561002a57600080fd5b60405161155b38038061155b833981016040528080518201919050506003815114151561005657600080fd5b806000908051906020019061006c929190610073565b5050610140565b8280548282559060005260206000209081019282156100ec579160200282015b828111156100eb5782518260006101000a81548173ffffffffffffffffffffffffffffffffffffffff021916908373ffffffffffffffffffffffffffffffffffffffff16021790555091602001919060010190610093565b5b5090506100f991906100fd565b5090565b61013d91905b8082111561013957600081816101000a81549073ffffffffffffffffffffffffffffffffffffffff021916905550600101610103565b5090565b90565b61140c8061014f6000396000f300606060405260043610610099576000357c0100000000000000000000000000000000000000000000000000000000900463ffffffff1680630dcd7a6c146101335780632079fb9a146101e95780632da034091461024c57806339125215146102a45780637df73e271461037e578063a0b7967b146103cf578063a68a76cc146103f8578063abe3219c1461044d578063fc0f392d1461047a575b6000341115610131577f6e89d517057028190560dd200cf6bf792842861353d1173761dfa362e1c133f03334600036604051808573ffffffffffffffffffffffffffffffffffffffff1673ffffffffffffffffffffffffffffffffffffffff16815260200184815260200180602001828103825284848281815260200192508082843782019150509550505050505060405180910390a15b005b341561013e57600080fd5b6101e7600480803573ffffffffffffffffffffffffffffffffffffffff1690602001909190803590602001909190803573ffffffffffffffffffffffffffffffffffffffff1690602001909190803590602001909190803590602001909190803590602001908201803590602001908080601f0160208091040260200160405190810160405280939291908181526020018383808284378201915050505050509190505061048f565b005b34156101f457600080fd5b61020a6004808035906020019091905050610668565b604051808273ffffffffffffffffffffffffffffffffffffffff1673ffffffffffffffffffffffffffffffffffffffff16815260200191505060405180910390f35b341561025757600080fd5b6102a2600480803573ffffffffffffffffffffffffffffffffffffffff1690602001909190803573ffffffffffffffffffffffffffffffffffffffff169060200190919050506106a7565b005b34156102af57600080fd5b61037c600480803573ffffffffffffffffffffffffffffffffffffffff1690602001909190803590602001909190803590602001908201803590602001908080601f0160208091040260200160405190810160405280939291908181526020018383808284378201915050505050509190803590602001909190803590602001909190803590602001908201803590602001908080601f01602080910402602001604051908101604052809392919081815260200183838082843782019150505050505091905050610773565b005b341561038957600080fd5b6103b5600480803573ffffffffffffffffffffffffffffffffffffffff16906020019091905050610a72565b604051808215151515815260200191505060405180910390f35b34156103da57600080fd5b6103e2610b16565b6040518082815260200191505060405180910390f35b341561040357600080fd5b61040b610b70565b604051808273ffffffffffffffffffffffffffffffffffffffff1673ffffffffffffffffffffffffffffffffffffffff16815260200191505060405180910390f35b341561045857600080fd5b610460610b95565b604051808215151515815260200191505060405180910390f35b341561048557600080fd5b61048d610ba8565b005b60008061049b33610a72565b15156104a657600080fd5b878787878760405180807f45524332300000000000000000000000000000000000000000000000000000008152506005018673ffffffffffffffffffffffffffffffffffffffff1673ffffffffffffffffffffffffffffffffffffffff166c010000000000000000000000000281526014018581526020018473ffffffffffffffffffffffffffffffffffffffff1673ffffffffffffffffffffffffffffffffffffffff166c0100000000000000000000000002815260140183815260200182815260200195505050505050604051809103902091506105898883858888610c3b565b508590508073ffffffffffffffffffffffffffffffffffffffff1663a9059cbb89896000604051602001526040518363ffffffff167c0100000000000000000000000000000000000000000000000000000000028152600401808373ffffffffffffffffffffffffffffffffffffffff1673ffffffffffffffffffffffffffffffffffffffff16815260200182815260200192505050602060405180830381600087803b151561063857600080fd5b6102c65a03f1151561064957600080fd5b50505060405180519050151561065e57600080fd5b5050505050505050565b60008181548110151561067757fe5b90600052602060002090016000915054906101000a900473ffffffffffffffffffffffffffffffffffffffff1681565b60006106b233610a72565b15156106bd57600080fd5b8290508073ffffffffffffffffffffffffffffffffffffffff16633ef13367836040518263ffffffff167c0100000000000000000000000000000000000000000000000000000000028152600401808273ffffffffffffffffffffffffffffffffffffffff1673ffffffffffffffffffffffffffffffffffffffff168152602001915050600060405180830381600087803b151561075a57600080fd5b6102c65a03f1151561076b57600080fd5b505050505050565b60008061077f33610a72565b151561078a57600080fd5b878787878760405180807f45544845520000000000000000000000000000000000000000000000000000008152506005018673ffffffffffffffffffffffffffffffffffffffff1673ffffffffffffffffffffffffffffffffffffffff166c0100000000000000000000000002815260140185815260200184805190602001908083835b602083101515610833578051825260208201915060208101905060208303925061080e565b6001836020036101000a038019825116818451168082178552505050505050905001838152602001828152602001955050505050506040518091039020915061087f8883858888610c3b565b90508773ffffffffffffffffffffffffffffffffffffffff16878760405180828051906020019080838360005b838110156108c75780820151818401526020810190506108ac565b50505050905090810190601f1680156108f45780820380516001836020036101000a031916815260200191505b5091505060006040518083038185876187965a03f192505050151561091857600080fd5b7f59bed9ab5d78073465dd642a9e3e76dfdb7d53bcae9d09df7d0b8f5234d5a8063382848b8b8b604051808773ffffffffffffffffffffffffffffffffffffffff1673ffffffffffffffffffffffffffffffffffffffff1681526020018673ffffffffffffffffffffffffffffffffffffffff1673ffffffffffffffffffffffffffffffffffffffff16815260200185600019166000191681526020018473ffffffffffffffffffffffffffffffffffffffff1673ffffffffffffffffffffffffffffffffffffffff16815260200183815260200180602001828103825283818151815260200191508051906020019080838360005b83811015610a29578082015181840152602081019050610a0e565b50505050905090810190601f168015610a565780820380516001836020036101000a031916815260200191505b5097505050505050505060405180910390a15050505050505050565b600080600090505b600080549050811015610b0b578273ffffffffffffffffffffffffffffffffffffffff16600082815481101515610aad57fe5b906000526020600020900160009054906101000a900473ffffffffffffffffffffffffffffffffffffffff1673ffffffffffffffffffffffffffffffffffffffff161415610afe5760019150610b10565b8080600101915050610a7a565b600091505b50919050565b6000806000809150600090505b600a811015610b655781600282600a81101515610b3c57fe5b01541115610b5857600281600a81101515610b5357fe5b015491505b8080600101915050610b23565b600182019250505090565b6000610b7a610e90565b604051809103906000f0801515610b9057600080fd5b905090565b600160009054906101000a900460ff1681565b610bb133610a72565b1515610bbc57600080fd5b60018060006101000a81548160ff0219169083151502179055507f0909e8f76a4fd3e970f2eaef56c0ee6dfaf8b87c5b8d3f56ffce78e825a9115733604051808273ffffffffffffffffffffffffffffffffffffffff1673ffffffffffffffffffffffffffffffffffffffff16815260200191505060405180910390a1565b600080610c488686610ce6565b9050600160009054906101000a900460ff168015610c6c5750610c6a87610a72565b155b15610c7657600080fd5b42841015610c8357600080fd5b610c8c83610db9565b610c9581610a72565b1515610ca057600080fd5b3373ffffffffffffffffffffffffffffffffffffffff168173ffffffffffffffffffffffffffffffffffffffff161415610cd957600080fd5b8091505095945050505050565b60008060008060418551141515610cfc57600080fd5b602085015192506040850151915060ff6041860151169050601b8160ff161015610d2757601b810190505b600186828585604051600081526020016040526000604051602001526040518085600019166000191681526020018460ff1660ff16815260200183600019166000191681526020018260001916600019168152602001945050505050602060405160208103908084039060008661646e5a03f11515610da557600080fd5b505060206040510351935050505092915050565b600080610dc533610a72565b1515610dd057600080fd5b60009150600090505b600a811015610e385782600282600a81101515610df257fe5b01541415610dff57600080fd5b600282600a81101515610e0e57fe5b0154600282600a81101515610e1f57fe5b01541015610e2b578091505b8080600101915050610dd9565b600282600a81101515610e4757fe5b0154831015610e5557600080fd5b612710600283600a81101515610e6757fe5b015401831115610e7657600080fd5b82600283600a81101515610e8657fe5b0181905550505050565b60405161054080610ea18339019056006060604052341561000f57600080fd5b336000806101000a81548173ffffffffffffffffffffffffffffffffffffffff021916908373ffffffffffffffffffffffffffffffffffffffff1602179055506104e28061005e6000396000f300606060405260043610610056576000357c0100000000000000000000000000000000000000000000000000000000900463ffffffff168062821de3146101475780633ef133671461019c5780636b9f96ea146101d5575b6000809054906101000a900473ffffffffffffffffffffffffffffffffffffffff1673ffffffffffffffffffffffffffffffffffffffff166108fc349081150290604051600060405180830381858888f1935050505015156100b757600080fd5b7f69b31548dea9b3b707b4dff357d326e3e9348b24e7a6080a218a6edeeec48f9b3334600036604051808573ffffffffffffffffffffffffffffffffffffffff1673ffffffffffffffffffffffffffffffffffffffff16815260200184815260200180602001828103825284848281815260200192508082843782019150509550505050505060405180910390a1005b341561015257600080fd5b61015a6101ea565b604051808273ffffffffffffffffffffffffffffffffffffffff1673ffffffffffffffffffffffffffffffffffffffff16815260200191505060405180910390f35b34156101a757600080fd5b6101d3600480803573ffffffffffffffffffffffffffffffffffffffff1690602001909190505061020f565b005b34156101e057600080fd5b6101e861043c565b005b6000809054906101000a900473ffffffffffffffffffffffffffffffffffffffff1681565b60008060008060009054906101000a900473ffffffffffffffffffffffffffffffffffffffff1673ffffffffffffffffffffffffffffffffffffffff163373ffffffffffffffffffffffffffffffffffffffff1614151561026f57600080fd5b8392503091508273ffffffffffffffffffffffffffffffffffffffff166370a08231836000604051602001526040518263ffffffff167c0100000000000000000000000000000000000000000000000000000000028152600401808273ffffffffffffffffffffffffffffffffffffffff1673ffffffffffffffffffffffffffffffffffffffff168152602001915050602060405180830381600087803b151561031857600080fd5b6102c65a03f1151561032957600080fd5b505050604051805190509050600081141561034357610436565b8273ffffffffffffffffffffffffffffffffffffffff1663a9059cbb6000809054906101000a900473ffffffffffffffffffffffffffffffffffffffff16836000604051602001526040518363ffffffff167c0100000000000000000000000000000000000000000000000000000000028152600401808373ffffffffffffffffffffffffffffffffffffffff1673ffffffffffffffffffffffffffffffffffffffff16815260200182815260200192505050602060405180830381600087803b151561040f57600080fd5b6102c65a03f1151561042057600080fd5b50505060405180519050151561043557600080fd5b5b50505050565b6000809054906101000a900473ffffffffffffffffffffffffffffffffffffffff1673ffffffffffffffffffffffffffffffffffffffff166108fc3073ffffffffffffffffffffffffffffffffffffffff16319081150290604051600060405180830381858888f1935050505015156104b457600080fd5b5600a165627a7a72305820088cce905e424bfe474510efe41761893e9e34b54b885b8fee546d8be88aee3c0029a165627a7a72305820827adc3ef3a179757bc33003e41070fbbfcdfc5db31275af3cb0395155cd3bbb0029000000000000000000000000000000000000000000000000000000000000002000000000000000000000000000000000000000000000000000000000000000030000000000000000000000008775ed5a9f67f90a017afb46980bfdae423dd41c00000000000000000000000042ff8ce0f79b69993893cef89412a4c48b7d29af0000000000000000000000007ae2ccba98e20daa6f6271cdf97a79c0274856f7808080';

export const ACCOUNT_1 = '0xa43f0bdd451e39c7af20426f43589defad4335e6';

export const PRIVATE_KEY_1 =
  'xprv9s21ZrQH143K24Mfq5zL5MhWK9hUhhGbd45hLXo2Pq2oqzMMo63oStZzF9oPnYCovfSC9uxHjQXxMVFD7k3r22gq7cbqjaL1NPEu17xLbwB';

export const PUBLIC_KEY_1 =
  'xpub661MyMwAqRbcEYS8w7XLSVeEsBXy79zSzH1J8vCdxAZningWLdN3zgtU6R2MeuPkH6TA5Zq4fxJZaVCEAfUQUHzkYegVhTtWvnhaUC8GVFk';

export const KEYPAIR_PRV = new KeyPair({ prv: PRIVATE_KEY_1 });

export const SEND_TX_BROADCAST =
  '0xf901ca02843b9aca0083b8a1a094ab52bc0aff1b4851a60c1e5e628b1da99544565180b90164391252150000000000000000000000001a88ee4bc80be080fc91ac472af2f59260695060000000000000000000000000000000000000000000000000000000003b9aca0000000000000000000000000000000000000000000000000000000000000000c0000000000000000000000000000000000000000000000000000000005ec67e28000000000000000000000000000000000000000000000000000000000000000500000000000000000000000000000000000000000000000000000000000000e000000000000000000000000000000000000000000000000000000000000000000000000000000000000000000000000000000000000000000000000000000041b15edcfc75725bd68ead56bad3eb3b001e9885608b413fdc085992bada05594558c81d3643936c8d29aad5e86cf268fa72e06b99aefc7a4eaee9f32cdf1411ce1c0000000000000000000000000000000000000000000000000000000000000062a04011f551738a5b5df0a9f36e39d8c165409834f546f96d0f01a46944e4f42bf5a0644c80bf433e96c104394b9c118bb4e0fa73bc443018f6365d6a489ad89a50ec';

export const SEND_TX_AMOUNT_ZERO_BROADCAST =
  '0xf901ca02843b9aca0083b8a1a094ab52bc0aff1b4851a60c1e5e628b1da99544565180b90164391252150000000000000000000000001a88ee4bc80be080fc91ac472af2f59260695060000000000000000000000000000000000000000000000000000000000000000000000000000000000000000000000000000000000000000000000000000000c0000000000000000000000000000000000000000000000000000000005ec67e28000000000000000000000000000000000000000000000000000000000000000500000000000000000000000000000000000000000000000000000000000000e0000000000000000000000000000000000000000000000000000000000000000000000000000000000000000000000000000000000000000000000000000000412b02b274b1c0896da45880a0c6f5d51ce6289afaaca46e3514ee649991103630708d5a5fb6e28a0a8c36e5c0b32b9fe57959e457b5077b8e961a6d64c8d036bc1b0000000000000000000000000000000000000000000000000000000000000061a0faeefde31532c7b4eba10682470d8ff4ea385ff135f812eaf052864b31f668f4a0475b81fc3520bc8cf4fcf52c9e93c19dcc6884d8438eeb000b68adec7f57143c';

export const ACCOUNT_2 = '0x1a88ee4bc80be080fc91ac472af2f59260695060';

export const PRIVATE_KEY_2 =
  'xprv9s21ZrQH143K24Mfq5zL5MhWK9hUhhGbd45hLXo2Pq2oqzMMo63oStZzFApJU4YUsucrGCKgLy83vA5JMUrtC4tEdQ8JPjZpQqJzTZCN4L8';

export const PUBLIC_KEY_2 =
  'xpub661MyMwAqRbcEYS8w7XLSVeEsBXy79zSzH1J8vCdxAZningWLdN3zgtU6Sku2Ri3CqKaAbF1QWk9QYxvtZBDPfP8QJs1nWeUazQPufne1CR';

export const SEND_TOKEN_TX_BROADCAST =
  '0xf901aa02843b9aca0083b8a1a094df7decb1baa8f529f0c8982cbb4be5035719529980b901440dcd7a6c00000000000000000000000072c2c8e08bf91d755cd7d26b49a2ee3dc99de1b9000000000000000000000000000000000000000000000000000000000000006400000000000000000000000019f64674d8a5b4e652319f5e239efd3bc969a1fe000000000000000000000000000000000000000000000000000000005ec67e28000000000000000000000000000000000000000000000000000000000000000500000000000000000000000000000000000000000000000000000000000000c000000000000000000000000000000000000000000000000000000000000000414ed261089a792f5359b4e87c2d5210051e28ef4891fae4a58381bea6563fd816000e0a7df529b26b0fa2925e60e2bec7cf20293a2aa1ca3f8589840c7e2f29241c0000000000000000000000000000000000000000000000000000000000000062a0af74784e75aaa0a92e9ad643872a0830d6efb2e4394b060b12c19ffc72855a6ca04bc76ff71e0af7fcc7afab2284c3983e965c03cd2b9d01b7c1f2a8b60bbf0118';
