{
  "transaction": {
    "txid": "985a58a453f6fec1e81080ad88ddf3fb59425c0fa0fa76d58e65305659f7fcd3",
    "hash": "985a58a453f6fec1e81080ad88ddf3fb59425c0fa0fa76d58e65305659f7fcd3",
    "version": 2,
    "size": 225,
    "locktime": 300,
    "vin": [
      {
        "txid": "6e17dd94e4fef002a7980b14d283b3be0eb342d5f0b3f0b3a36da485ed4b5b56",
        "vout": 0,
        "scriptSig": {
          "asm": "304402205082211c426e2902beab588adc451343af254a3b6b446c328824c71dc5b50aeb02201b4d9c36614e1311fa7427f3d54858424c01478032da4a5d0eac781c0b1b665c[ALL|FORKID] 030be35f28af3b4f6ef4d6a69d7f233bc6d858c6223cd7befeef2cfebaa2e790cc",
          "hex": "47304402205082211c426e2902beab588adc451343af254a3b6b446c328824c71dc5b50aeb02201b4d9c36614e1311fa7427f3d54858424c01478032da4a5d0eac781c0b1b665c4121030be35f28af3b4f6ef4d6a69d7f233bc6d858c6223cd7befeef2cfebaa2e790cc"
        },
        "sequence": 4294967294
      }
    ],
    "vout": [
      {
        "value": 1,
        "n": 0,
        "scriptPubKey": {
          "asm": "OP_DUP OP_HASH160 d2eb140d8b7006e7b862827043f9cddd50da9811 OP_EQUALVERIFY OP_CHECKSIG",
          "hex": "76a914d2eb140d8b7006e7b862827043f9cddd50da981188ac",
          "reqSigs": 1,
          "type": "pubkeyhash",
          "addresses": [
            "bchreg:qrfwk9qd3dcqdeacv2p8qsleehw4pk5czyn9vn6dyx"
          ]
        }
      },
      {
        "value": 23.99999775,
        "n": 1,
        "scriptPubKey": {
          "asm": "OP_DUP OP_HASH160 6f575924b5ff5c4604111ab5d7c43a5d9a5d69e6 OP_EQUALVERIFY OP_CHECKSIG",
          "hex": "76a9146f575924b5ff5c4604111ab5d7c43a5d9a5d69e688ac",
          "reqSigs": 1,
          "type": "pubkeyhash",
          "addresses": [
            "bchreg:qph4wkfykhl4c3syzydtt47y8fwe5htfucn2f9eedk"
          ]
        }
      }
    ],
    "hex": "0200000001565b4bed85a46da3b3f0b3f0d542b30ebeb383d2140b98a702f0fee494dd176e000000006a47304402205082211c426e2902beab588adc451343af254a3b6b446c328824c71dc5b50aeb02201b4d9c36614e1311fa7427f3d54858424c01478032da4a5d0eac781c0b1b665c4121030be35f28af3b4f6ef4d6a69d7f233bc6d858c6223cd7befeef2cfebaa2e790ccfeffffff0200e1f505000000001976a914d2eb140d8b7006e7b862827043f9cddd50da981188ac1f170d8f000000001976a9146f575924b5ff5c4604111ab5d7c43a5d9a5d69e688ac2c010000"
  },
  "inputs": [
    {
      "txid": "6e17dd94e4fef002a7980b14d283b3be0eb342d5f0b3f0b3a36da485ed4b5b56",
      "hash": "6e17dd94e4fef002a7980b14d283b3be0eb342d5f0b3f0b3a36da485ed4b5b56",
      "version": 2,
      "size": 100,
      "locktime": 0,
      "vin": [
        {
          "coinbase": "029a000101082f454233322e302f00",
          "sequence": 4294967295
        }
      ],
      "vout": [
        {
          "value": 25,
          "n": 0,
          "scriptPubKey": {
            "asm": "OP_DUP OP_HASH160 8de3831be5f7abe00b9b71e127cdfd7e6befa36e OP_EQUALVERIFY OP_CHECKSIG",
            "hex": "76a9148de3831be5f7abe00b9b71e127cdfd7e6befa36e88ac",
            "reqSigs": 1,
            "type": "pubkeyhash",
            "addresses": [
              "bchreg:qzx78qcmuhm6hcqtndc7zf7dl4lxhmardclqpwru6u"
            ]
          }
        }
      ],
      "hex": "02000000010000000000000000000000000000000000000000000000000000000000000000ffffffff0f029a000101082f454233322e302f00ffffffff0100f90295000000001976a9148de3831be5f7abe00b9b71e127cdfd7e6befa36e88ac00000000",
      "blockhash": "196dff066b8b85516c5c0586d4a92bd3fd515efd4c76fc7fa97e46f23a7162da",
      "confirmations": 147,
      "time": 1628762035,
      "blocktime": 1628762035
    }
  ]
}