{
  "transaction": {
    "txid": "25605eea821aa5981f359928963b7e95f7a077ab5c4fad1c0820365a8ec35fb6",
    "hash": "25605eea821aa5981f359928963b7e95f7a077ab5c4fad1c0820365a8ec35fb6",
    "version": 2,
    "size": 223,
    "locktime": 300,
    "vin": [
      {
        "txid": "e205e517f2edb735e7205bcc1584ad7481961964f28f1c65ccec6054bc1fd447",
        "vout": 0,
        "scriptSig": {
          "asm": "304402202d084985ea9bd8906d6b0d3f0bc0e00739491de487c1a904ee40a7151758a9fb022055889d7e6f5a4c12bca3529953aae2bd696bc33374befb6ddc75f28abfc1c41f[ALL|FORKID] 030be35f28af3b4f6ef4d6a69d7f233bc6d858c6223cd7befeef2cfebaa2e790cc",
          "hex": "47304402202d084985ea9bd8906d6b0d3f0bc0e00739491de487c1a904ee40a7151758a9fb022055889d7e6f5a4c12bca3529953aae2bd696bc33374befb6ddc75f28abfc1c41f4121030be35f28af3b4f6ef4d6a69d7f233bc6d858c6223cd7befeef2cfebaa2e790cc"
        },
        "sequence": 4294967294
      }
    ],
    "vout": [
      {
        "value": 23.99999777,
        "n": 0,
        "scriptPubKey": {
          "asm": "OP_DUP OP_HASH160 4fb7b3a869d7b93afe868a2536b3a1d52b81c009 OP_EQUALVERIFY OP_CHECKSIG",
          "hex": "76a9144fb7b3a869d7b93afe868a2536b3a1d52b81c00988ac",
          "reqSigs": 1,
          "type": "pubkeyhash",
          "addresses": [
            "bchreg:qp8m0vagd8tmjwh7s69z2d4n582jhqwqpy4nyw2cqz"
          ]
        }
      },
      {
        "value": 1,
        "n": 1,
        "scriptPubKey": {
          "asm": "OP_HASH160 fe5cc5d87e3348a5f3eaa316898a0f05d520876e OP_EQUAL",
          "hex": "a914fe5cc5d87e3348a5f3eaa316898a0f05d520876e87",
          "reqSigs": 1,
          "type": "scripthash",
          "addresses": [
            "bchreg:prl9e3wc0ce53f0na233dzv2puza2gy8dchjsxc0xg"
          ]
        }
      }
    ],
    "hex": "020000000147d41fbc5460eccc651c8ff26419968174ad8415cc5b20e735b7edf217e505e2000000006a47304402202d084985ea9bd8906d6b0d3f0bc0e00739491de487c1a904ee40a7151758a9fb022055889d7e6f5a4c12bca3529953aae2bd696bc33374befb6ddc75f28abfc1c41f4121030be35f28af3b4f6ef4d6a69d7f233bc6d858c6223cd7befeef2cfebaa2e790ccfeffffff0221170d8f000000001976a9144fb7b3a869d7b93afe868a2536b3a1d52b81c00988ac00e1f5050000000017a914fe5cc5d87e3348a5f3eaa316898a0f05d520876e872c010000"
  },
  "inputs": [
    {
      "txid": "e205e517f2edb735e7205bcc1584ad7481961964f28f1c65ccec6054bc1fd447",
      "hash": "e205e517f2edb735e7205bcc1584ad7481961964f28f1c65ccec6054bc1fd447",
      "version": 2,
      "size": 100,
      "locktime": 0,
      "vin": [
        {
          "coinbase": "02c3000101082f454233322e302f00",
          "sequence": 4294967295
        }
      ],
      "vout": [
        {
          "value": 25,
          "n": 0,
          "scriptPubKey": {
            "asm": "OP_DUP OP_HASH160 8de3831be5f7abe00b9b71e127cdfd7e6befa36e OP_EQUALVERIFY OP_CHECKSIG",
            "hex": "76a9148de3831be5f7abe00b9b71e127cdfd7e6befa36e88ac",
            "reqSigs": 1,
            "type": "pubkeyhash",
            "addresses": [
              "bchreg:qzx78qcmuhm6hcqtndc7zf7dl4lxhmardclqpwru6u"
            ]
          }
        }
      ],
      "hex": "02000000010000000000000000000000000000000000000000000000000000000000000000ffffffff0f02c3000101082f454233322e302f00ffffffff0100f90295000000001976a9148de3831be5f7abe00b9b71e127cdfd7e6befa36e88ac00000000",
      "blockhash": "5df523f3965cb09c8931d9f41b60f51d1e98a5344207c81e7ec836ccddfb7157",
      "confirmations": 106,
      "time": 1628762042,
      "blocktime": 1628762042
    }
  ]
}