{
  "transaction": {
    "txid": "0fc7ccf8016cf4391ce97e7ee85f6c54dcfe6bad3d980be5eabcc839b06b1363",
    "hash": "0fc7ccf8016cf4391ce97e7ee85f6c54dcfe6bad3d980be5eabcc839b06b1363",
    "version": 2,
    "size": 223,
    "locktime": 300,
    "vin": [
      {
        "txid": "cbd8483f1fcd95e4e2ad2a537918dfd71da08afe6b39094962655ba26bbba2a8",
        "vout": 0,
        "scriptSig": {
          "asm": "304402200744da577229c692ff204ce1bf9b22ee1e5bb37e19f1eea2942f7822c62496dd02204403fc835d3ae4e9209a7fd581dceaf63b3f537d35eaaa7e7f7feb08a415a844[ALL|FORKID] 03cd3fb8e2ad0a5d48465d5c49a4c0e8c8f5171e3bf0503f14ef314b5c50e5b0e0",
          "hex": "47304402200744da577229c692ff204ce1bf9b22ee1e5bb37e19f1eea2942f7822c62496dd02204403fc835d3ae4e9209a7fd581dceaf63b3f537d35eaaa7e7f7feb08a415a844412103cd3fb8e2ad0a5d48465d5c49a4c0e8c8f5171e3bf0503f14ef314b5c50e5b0e0"
        },
        "sequence": 4294967294
      }
    ],
    "vout": [
      {
        "value": 23.99999777,
        "n": 0,
        "scriptPubKey": {
          "asm": "OP_DUP OP_HASH160 49e3a40adafd7b9127fcc628d949e7c8f61356a1 OP_EQUALVERIFY OP_CHECKSIG",
          "hex": "76a91449e3a40adafd7b9127fcc628d949e7c8f61356a188ac",
          "reqSigs": 1,
          "type": "pubkeyhash",
          "addresses": [
            "bchreg:qpy78fq2mt7hhyf8lnrz3k2fuly0vy6k5y8hvup6df"
          ]
        }
      },
      {
        "value": 1,
        "n": 1,
        "scriptPubKey": {
          "asm": "OP_HASH160 fe5cc5d87e3348a5f3eaa316898a0f05d520876e OP_EQUAL",
          "hex": "a914fe5cc5d87e3348a5f3eaa316898a0f05d520876e87",
          "reqSigs": 1,
          "type": "scripthash",
          "addresses": [
            "bchreg:prl9e3wc0ce53f0na233dzv2puza2gy8dchjsxc0xg"
          ]
        }
      }
    ],
    "hex": "0200000001a8a2bb6ba25b65624909396bfe8aa01dd7df1879532aade2e495cd1f3f48d8cb000000006a47304402200744da577229c692ff204ce1bf9b22ee1e5bb37e19f1eea2942f7822c62496dd02204403fc835d3ae4e9209a7fd581dceaf63b3f537d35eaaa7e7f7feb08a415a844412103cd3fb8e2ad0a5d48465d5c49a4c0e8c8f5171e3bf0503f14ef314b5c50e5b0e0feffffff0221170d8f000000001976a91449e3a40adafd7b9127fcc628d949e7c8f61356a188ac00e1f5050000000017a914fe5cc5d87e3348a5f3eaa316898a0f05d520876e872c010000"
  },
  "inputs": [
    {
      "txid": "cbd8483f1fcd95e4e2ad2a537918dfd71da08afe6b39094962655ba26bbba2a8",
      "hash": "cbd8483f1fcd95e4e2ad2a537918dfd71da08afe6b39094962655ba26bbba2a8",
      "version": 2,
      "size": 100,
      "locktime": 0,
      "vin": [
        {
          "coinbase": "0298000101082f454233322e302f00",
          "sequence": 4294967295
        }
      ],
      "vout": [
        {
          "value": 25,
          "n": 0,
          "scriptPubKey": {
            "asm": "OP_DUP OP_HASH160 149cefd151f5175dac91b7b72c7c7bc0d6e66b0b OP_EQUALVERIFY OP_CHECKSIG",
            "hex": "76a914149cefd151f5175dac91b7b72c7c7bc0d6e66b0b88ac",
            "reqSigs": 1,
            "type": "pubkeyhash",
            "addresses": [
              "bchreg:qq2fem732863whdvjxmmwtru00qddentpv0cgdyg4y"
            ]
          }
        }
      ],
      "hex": "02000000010000000000000000000000000000000000000000000000000000000000000000ffffffff0f0298000101082f454233322e302f00ffffffff0100f90295000000001976a914149cefd151f5175dac91b7b72c7c7bc0d6e66b0b88ac00000000",
      "blockhash": "6d02e333a26f4e952846415db4096b57115cc0fde1aa06dca5377ed5361af05d",
      "confirmations": 149,
      "time": 1635930563,
      "blocktime": 1635930563
    }
  ]
}