{
  "transaction": {
    "txid": "1b836869d20f28c02c20a78d1cd906d842d8ba0101f5bc89f9c97bf5030f9665",
    "hash": "1b836869d20f28c02c20a78d1cd906d842d8ba0101f5bc89f9c97bf5030f9665",
    "version": 2,
    "size": 223,
    "locktime": 300,
    "vin": [
      {
        "txid": "c25bf6297740da1d3311c5d13228d3e670b7e998657a5c11157d176c69e5b881",
        "vout": 0,
        "scriptSig": {
          "asm": "3044022062d03c6e32bb4a22a16629495908e180db785a7c4b49b8d1e05941271744b8720220687948411a7a70ddc35a1fd908750f082c61ccac832e473ac0e2897720561d66[ALL|FORKID] 028fee0679ed79b7b50e534812ae4dc69faea4ff0ae52174901606af1e0c073b50",
          "hex": "473044022062d03c6e32bb4a22a16629495908e180db785a7c4b49b8d1e05941271744b8720220687948411a7a70ddc35a1fd908750f082c61ccac832e473ac0e2897720561d664121028fee0679ed79b7b50e534812ae4dc69faea4ff0ae52174901606af1e0c073b50"
        },
        "sequence": 4294967294
      }
    ],
    "vout": [
      {
        "value": 23.99999777,
        "n": 0,
        "scriptPubKey": {
          "asm": "OP_DUP OP_HASH160 b523fde62ef5b923ebe9e5a1805c6905b2095635 OP_EQUALVERIFY OP_CHECKSIG",
          "hex": "76a914b523fde62ef5b923ebe9e5a1805c6905b209563588ac",
          "reqSigs": 1,
          "type": "pubkeyhash",
          "addresses": [
            "mx2jiXdm4eBLn73iMasTczkdiqAjY7CMmt"
          ]
        }
      },
      {
        "value": 1,
        "n": 1,
        "scriptPubKey": {
          "asm": "OP_HASH160 fe5cc5d87e3348a5f3eaa316898a0f05d520876e OP_EQUAL",
          "hex": "a914fe5cc5d87e3348a5f3eaa316898a0f05d520876e87",
          "reqSigs": 1,
          "type": "scripthash",
          "addresses": [
            "2NGSAkyhiWMZPcrfiwmcRWf9HQgpsiRGKv4"
          ]
        }
      }
    ],
    "hex": "020000000181b8e5696c177d15115c7a6598e9b770e6d32832d1c511331dda407729f65bc2000000006a473044022062d03c6e32bb4a22a16629495908e180db785a7c4b49b8d1e05941271744b8720220687948411a7a70ddc35a1fd908750f082c61ccac832e473ac0e2897720561d664121028fee0679ed79b7b50e534812ae4dc69faea4ff0ae52174901606af1e0c073b50feffffff0221170d8f000000001976a914b523fde62ef5b923ebe9e5a1805c6905b209563588ac00e1f5050000000017a914fe5cc5d87e3348a5f3eaa316898a0f05d520876e872c010000"
  },
  "inputs": [
    {
      "txid": "c25bf6297740da1d3311c5d13228d3e670b7e998657a5c11157d176c69e5b881",
      "hash": "c25bf6297740da1d3311c5d13228d3e670b7e998657a5c11157d176c69e5b881",
      "version": 2,
      "size": 100,
      "locktime": 0,
      "vin": [
        {
          "coinbase": "02ab000101082f454233322e302f00",
          "sequence": 4294967295
        }
      ],
      "vout": [
        {
          "value": 25,
          "n": 0,
          "scriptPubKey": {
            "asm": "OP_DUP OP_HASH160 c3d2bd3f2e8ac0d8bed82f7ce3283e09272c0c88 OP_EQUALVERIFY OP_CHECKSIG",
            "hex": "76a914c3d2bd3f2e8ac0d8bed82f7ce3283e09272c0c8888ac",
            "reqSigs": 1,
            "type": "pubkeyhash",
            "addresses": [
              "myNNWt1ybmdNnapuXbszwTrPa2Dq37WgRt"
            ]
          }
        }
      ],
      "hex": "02000000010000000000000000000000000000000000000000000000000000000000000000ffffffff0f02ab000101082f454233322e302f00ffffffff0100f90295000000001976a914c3d2bd3f2e8ac0d8bed82f7ce3283e09272c0c8888ac00000000",
      "blockhash": "1547051a76db152936ca6f9f68908225e6418f89e900fce006240b19105e8a12",
      "confirmations": 130,
      "time": 1635931954,
      "blocktime": 1635931954
    }
  ]
}