{
  "transaction": {
    "txid": "4fda6ba8bcdab15c005ce5045acdfc714c01d87f0dd5c1f64b562033bbc873b1",
    "hash": "4fda6ba8bcdab15c005ce5045acdfc714c01d87f0dd5c1f64b562033bbc873b1",
    "version": 2,
    "size": 225,
    "locktime": 300,
    "vin": [
      {
        "txid": "ed7e2f8d2d3acb00407db67fc676ee8b29abb45c2fef83dfb65bbfd9387fbb81",
        "vout": 0,
        "scriptSig": {
          "asm": "3044022076d9575e6125301da226df5f959109030c667b50a24d4329c54da55d9f439e5902207e5d6d17ac9d4aded63467ae7facef643d6b35eb6d7123fa00ca5c4d790feb1f[ALL|FORKID] 03cd3fb8e2ad0a5d48465d5c49a4c0e8c8f5171e3bf0503f14ef314b5c50e5b0e0",
          "hex": "473044022076d9575e6125301da226df5f959109030c667b50a24d4329c54da55d9f439e5902207e5d6d17ac9d4aded63467ae7facef643d6b35eb6d7123fa00ca5c4d790feb1f412103cd3fb8e2ad0a5d48465d5c49a4c0e8c8f5171e3bf0503f14ef314b5c50e5b0e0"
        },
        "sequence": 4294967294
      }
    ],
    "vout": [
      {
        "value": 1,
        "n": 0,
        "scriptPubKey": {
          "asm": "OP_DUP OP_HASH160 d2eb140d8b7006e7b862827043f9cddd50da9811 OP_EQUALVERIFY OP_CHECKSIG",
          "hex": "76a914d2eb140d8b7006e7b862827043f9cddd50da981188ac",
          "reqSigs": 1,
          "type": "pubkeyhash",
          "addresses": [
            "bchreg:qrfwk9qd3dcqdeacv2p8qsleehw4pk5czyn9vn6dyx"
          ]
        }
      },
      {
        "value": 23.99999775,
        "n": 1,
        "scriptPubKey": {
          "asm": "OP_DUP OP_HASH160 82856da901ab807565cab8ab2e7a4753c4ce3ffc OP_EQUALVERIFY OP_CHECKSIG",
          "hex": "76a91482856da901ab807565cab8ab2e7a4753c4ce3ffc88ac",
          "reqSigs": 1,
          "type": "pubkeyhash",
          "addresses": [
            "bchreg:qzpg2mdfqx4cqat9e2u2ktn6gafufn3lls2hc864y3"
          ]
        }
      }
    ],
    "hex": "020000000181bb7f38d9bf5bb6df83ef2f5cb4ab298bee76c67fb67d4000cb3a2d8d2f7eed000000006a473044022076d9575e6125301da226df5f959109030c667b50a24d4329c54da55d9f439e5902207e5d6d17ac9d4aded63467ae7facef643d6b35eb6d7123fa00ca5c4d790feb1f412103cd3fb8e2ad0a5d48465d5c49a4c0e8c8f5171e3bf0503f14ef314b5c50e5b0e0feffffff0200e1f505000000001976a914d2eb140d8b7006e7b862827043f9cddd50da981188ac1f170d8f000000001976a91482856da901ab807565cab8ab2e7a4753c4ce3ffc88ac2c010000"
  },
  "inputs": [
    {
      "txid": "ed7e2f8d2d3acb00407db67fc676ee8b29abb45c2fef83dfb65bbfd9387fbb81",
      "hash": "ed7e2f8d2d3acb00407db67fc676ee8b29abb45c2fef83dfb65bbfd9387fbb81",
      "version": 2,
      "size": 100,
      "locktime": 0,
      "vin": [
        {
          "coinbase": "02a4000101082f454233322e302f00",
          "sequence": 4294967295
        }
      ],
      "vout": [
        {
          "value": 25,
          "n": 0,
          "scriptPubKey": {
            "asm": "OP_DUP OP_HASH160 149cefd151f5175dac91b7b72c7c7bc0d6e66b0b OP_EQUALVERIFY OP_CHECKSIG",
            "hex": "76a914149cefd151f5175dac91b7b72c7c7bc0d6e66b0b88ac",
            "reqSigs": 1,
            "type": "pubkeyhash",
            "addresses": [
              "bchreg:qq2fem732863whdvjxmmwtru00qddentpv0cgdyg4y"
            ]
          }
        }
      ],
      "hex": "02000000010000000000000000000000000000000000000000000000000000000000000000ffffffff0f02a4000101082f454233322e302f00ffffffff0100f90295000000001976a914149cefd151f5175dac91b7b72c7c7bc0d6e66b0b88ac00000000",
      "blockhash": "5046682613fb8f2b614eb07c8a3a6d3edd840dd21f165766b4655e8111ff3b5b",
      "confirmations": 137,
      "time": 1635930565,
      "blocktime": 1635930565
    }
  ]
}