{
  "transaction": {
    "txid": "bfba0c78400fae1f44fb5d60bd3a7e9baff0178ad965d6124f07a4de944dc221",
    "hash": "bfba0c78400fae1f44fb5d60bd3a7e9baff0178ad965d6124f07a4de944dc221",
    "version": 2,
    "size": 225,
    "locktime": 300,
    "vin": [
      {
        "txid": "adf22453b90c9d06b9d5f6b2501f2041fcb6bfe3238d6a0959e36417bfac0282",
        "vout": 0,
        "scriptSig": {
          "asm": "3044022028e627ced6f1ed169cf84f3e54dc7c008b8a6437dad2074dbef905485412ecf802205611e2f341ed8015cf2613f80658b9df992d2f8a86c69695f64a695c978c7edd[ALL|FORKID] 028fee0679ed79b7b50e534812ae4dc69faea4ff0ae52174901606af1e0c073b50",
          "hex": "473044022028e627ced6f1ed169cf84f3e54dc7c008b8a6437dad2074dbef905485412ecf802205611e2f341ed8015cf2613f80658b9df992d2f8a86c69695f64a695c978c7edd4121028fee0679ed79b7b50e534812ae4dc69faea4ff0ae52174901606af1e0c073b50"
        },
        "sequence": 4294967294
      }
    ],
    "vout": [
      {
        "value": 1,
        "n": 0,
        "scriptPubKey": {
          "asm": "OP_DUP OP_HASH160 d2eb140d8b7006e7b862827043f9cddd50da9811 OP_EQUALVERIFY OP_CHECKSIG",
          "hex": "76a914d2eb140d8b7006e7b862827043f9cddd50da981188ac",
          "reqSigs": 1,
          "type": "pubkeyhash",
          "addresses": [
            "mzkBosFeajZ5KxXp4rPNA8maqoKUFiR7nY"
          ]
        }
      },
      {
        "value": 23.99999775,
        "n": 1,
        "scriptPubKey": {
          "asm": "OP_DUP OP_HASH160 0f2a9c32fbe32527c2af8123f5676b0d114a0ded OP_EQUALVERIFY OP_CHECKSIG",
          "hex": "76a9140f2a9c32fbe32527c2af8123f5676b0d114a0ded88ac",
          "reqSigs": 1,
          "type": "pubkeyhash",
          "addresses": [
            "mgu9UY65E6fsnHfpvEgJ2ExLpM4dLsgW4e"
          ]
        }
      }
    ],
    "hex": "02000000018202acbf1764e359096a8d23e3bfb6fc41201f50b2f6d5b9069d0cb95324f2ad000000006a473044022028e627ced6f1ed169cf84f3e54dc7c008b8a6437dad2074dbef905485412ecf802205611e2f341ed8015cf2613f80658b9df992d2f8a86c69695f64a695c978c7edd4121028fee0679ed79b7b50e534812ae4dc69faea4ff0ae52174901606af1e0c073b50feffffff0200e1f505000000001976a914d2eb140d8b7006e7b862827043f9cddd50da981188ac1f170d8f000000001976a9140f2a9c32fbe32527c2af8123f5676b0d114a0ded88ac2c010000"
  },
  "inputs": [
    {
      "txid": "adf22453b90c9d06b9d5f6b2501f2041fcb6bfe3238d6a0959e36417bfac0282",
      "hash": "adf22453b90c9d06b9d5f6b2501f2041fcb6bfe3238d6a0959e36417bfac0282",
      "version": 2,
      "size": 100,
      "locktime": 0,
      "vin": [
        {
          "coinbase": "02b7000101082f454233322e302f00",
          "sequence": 4294967295
        }
      ],
      "vout": [
        {
          "value": 25,
          "n": 0,
          "scriptPubKey": {
            "asm": "OP_DUP OP_HASH160 c3d2bd3f2e8ac0d8bed82f7ce3283e09272c0c88 OP_EQUALVERIFY OP_CHECKSIG",
            "hex": "76a914c3d2bd3f2e8ac0d8bed82f7ce3283e09272c0c8888ac",
            "reqSigs": 1,
            "type": "pubkeyhash",
            "addresses": [
              "myNNWt1ybmdNnapuXbszwTrPa2Dq37WgRt"
            ]
          }
        }
      ],
      "hex": "02000000010000000000000000000000000000000000000000000000000000000000000000ffffffff0f02b7000101082f454233322e302f00ffffffff0100f90295000000001976a914c3d2bd3f2e8ac0d8bed82f7ce3283e09272c0c8888ac00000000",
      "blockhash": "0105ca833d377cd866d55f39930db31687e4b5245af62fa2001b58461ad01636",
      "confirmations": 118,
      "time": 1635931956,
      "blocktime": 1635931956
    }
  ]
}