{
  "txid": "1e6fa907b204dc61853a8fd49550fa96e9d561edcca80e7f0fb9a157978cdb8a",
  "hash": "1e6fa907b204dc61853a8fd49550fa96e9d561edcca80e7f0fb9a157978cdb8a",
  "version": 2,
  "size": 225,
  "locktime": 300,
  "vin": [
    {
      "txid": "2ee06de8a837e7edee16409d4aeec9556a17cc64cb627a99168632b4bb11af7e",
      "vout": 0,
      "scriptSig": {
        "asm": "3044022051bfef62924fa30dd26e10d73cb9f385a2a5be2cd3b45ef153bf5aae214858ea02202a7141c26dc56ae9a9f718ad73f62661314369a01aa9d140f89e892281f3ed76[ALL|FORKID] 037009d1f5a72e3e828d9f67e5d463a41b9caa5d311fc804bb35f2fe2bbf93d089",
        "hex": "473044022051bfef62924fa30dd26e10d73cb9f385a2a5be2cd3b45ef153bf5aae214858ea02202a7141c26dc56ae9a9f718ad73f62661314369a01aa9d140f89e892281f3ed764121037009d1f5a72e3e828d9f67e5d463a41b9caa5d311fc804bb35f2fe2bbf93d089"
      },
      "sequence": 4294967294
    }
  ],
  "vout": [
    {
      "value": 1,
      "n": 0,
      "scriptPubKey": {
        "asm": "OP_DUP OP_HASH160 d2eb140d8b7006e7b862827043f9cddd50da9811 OP_EQUALVERIFY OP_CHECKSIG",
        "hex": "76a914d2eb140d8b7006e7b862827043f9cddd50da981188ac",
        "reqSigs": 1,
        "type": "pubkeyhash",
        "addresses": [
          "bchreg:qrfwk9qd3dcqdeacv2p8qsleehw4pk5czyn9vn6dyx"
        ]
      }
    },
    {
      "value": 23.99999775,
      "n": 1,
      "scriptPubKey": {
        "asm": "OP_DUP OP_HASH160 15224ccb40886508bd642b578d0c7a44b153b43d OP_EQUALVERIFY OP_CHECKSIG",
        "hex": "76a91415224ccb40886508bd642b578d0c7a44b153b43d88ac",
        "reqSigs": 1,
        "type": "pubkeyhash",
        "addresses": [
          "bchreg:qq2jynxtgzyx2z9avs440rgv0fztz5a5850nn9vdn4"
        ]
      }
    }
  ],
  "hex": "02000000017eaf11bbb4328616997a62cb64cc176a55c9ee4a9d4016eeede737a8e86de02e000000006a473044022051bfef62924fa30dd26e10d73cb9f385a2a5be2cd3b45ef153bf5aae214858ea02202a7141c26dc56ae9a9f718ad73f62661314369a01aa9d140f89e892281f3ed764121037009d1f5a72e3e828d9f67e5d463a41b9caa5d311fc804bb35f2fe2bbf93d089feffffff0200e1f505000000001976a914d2eb140d8b7006e7b862827043f9cddd50da981188ac1f170d8f000000001976a91415224ccb40886508bd642b578d0c7a44b153b43d88ac2c010000"
}