{
  "txid": "ba0766d6bd3ff61cca21881fb48be56590c8b551e85fe7045ef263751853a25e",
  "hash": "ba0766d6bd3ff61cca21881fb48be56590c8b551e85fe7045ef263751853a25e",
  "version": 2,
  "size": 335,
  "locktime": 0,
  "vin": [
    {
      "txid": "f18912f3d1fa768e55f21007bb2e99b1ff6397d11ecfac8a2130fc2916f2c090",
      "vout": 1,
      "scriptSig": {
        "asm": "0 304402205a0f001d8f041e795cab6163eafac94bdcb3a90ed2a9a417f54ccb8c15a3950a02203c6b58cd6242a601540ee7ce35ae55035d0fd5490a5aed8951310ba74fab7b94[ALL|FORKID] 304402205ce1bd1a93e8e3e7de61e46009244bb7b96375041df5d4e191eac12015a36a0d02203155d8ebcecf64fe333f1e26d2876efa7b59b3d1e83a065415f76dbc369fa69c[ALL|FORKID] 5221028fedaf75b5b08cddf3bf4631c658b68ee6766a8e999467a641d7cb7aaaecec972103316bc27d95b96418349afc6298c259bb999c6e8f39a7217787ad53602be7c1472102e21c29b4a7eeace9c7a8cefb568ca00c86ff9bf5e79e07e5442c29d4a0950d0453ae",
        "hex": "0047304402205a0f001d8f041e795cab6163eafac94bdcb3a90ed2a9a417f54ccb8c15a3950a02203c6b58cd6242a601540ee7ce35ae55035d0fd5490a5aed8951310ba74fab7b944147304402205ce1bd1a93e8e3e7de61e46009244bb7b96375041df5d4e191eac12015a36a0d02203155d8ebcecf64fe333f1e26d2876efa7b59b3d1e83a065415f76dbc369fa69c414c695221028fedaf75b5b08cddf3bf4631c658b68ee6766a8e999467a641d7cb7aaaecec972103316bc27d95b96418349afc6298c259bb999c6e8f39a7217787ad53602be7c1472102e21c29b4a7eeace9c7a8cefb568ca00c86ff9bf5e79e07e5442c29d4a0950d0453ae"
      },
      "sequence": 4294967295
    }
  ],
  "vout": [
    {
      "value": 0.99999,
      "n": 0,
      "scriptPubKey": {
        "asm": "OP_HASH160 fe5cc5d87e3348a5f3eaa316898a0f05d520876e OP_EQUAL",
        "hex": "a914fe5cc5d87e3348a5f3eaa316898a0f05d520876e87",
        "reqSigs": 1,
        "type": "scripthash",
        "addresses": [
          "bchreg:prl9e3wc0ce53f0na233dzv2puza2gy8dchjsxc0xg"
        ]
      }
    }
  ],
  "hex": "020000000190c0f21629fc30218aaccf1ed19763ffb1992ebb0710f2558e76fad1f31289f101000000fc0047304402205a0f001d8f041e795cab6163eafac94bdcb3a90ed2a9a417f54ccb8c15a3950a02203c6b58cd6242a601540ee7ce35ae55035d0fd5490a5aed8951310ba74fab7b944147304402205ce1bd1a93e8e3e7de61e46009244bb7b96375041df5d4e191eac12015a36a0d02203155d8ebcecf64fe333f1e26d2876efa7b59b3d1e83a065415f76dbc369fa69c414c695221028fedaf75b5b08cddf3bf4631c658b68ee6766a8e999467a641d7cb7aaaecec972103316bc27d95b96418349afc6298c259bb999c6e8f39a7217787ad53602be7c1472102e21c29b4a7eeace9c7a8cefb568ca00c86ff9bf5e79e07e5442c29d4a0950d0453aeffffffff0118ddf5050000000017a914fe5cc5d87e3348a5f3eaa316898a0f05d520876e8700000000"
}