{
  "transaction": {
    "txid": "82105f92a796ef2a3ced82e7cab0bcd9ad62628a68f4a6243b1a9cb6bd631246",
    "hash": "82105f92a796ef2a3ced82e7cab0bcd9ad62628a68f4a6243b1a9cb6bd631246",
    "version": 2,
    "size": 339,
    "locktime": 0,
    "vin": [
      {
        "txid": "0fc7ccf8016cf4391ce97e7ee85f6c54dcfe6bad3d980be5eabcc839b06b1363",
        "vout": 1,
        "scriptSig": {
          "asm": "0 3045022100f764c0ec13aab59ee7ad78dc049d5455519866afa552959ee737ae7271f2a69602207e5632ad4e950bb2790b1d6807b36939caf41ebb3bee579ff796cfa0a5a87eec[ALL|FORKID] 3045022100c2e790ede74afadd6ef94f5eee64023ede59ddf65ff68d08c00a374b27db0bbc022066d6f44e05a82c0a37be6e3fda9f9086ba28b56c75a803d4ac9c73ee6fdbb769[ALL|FORKID] 5221028fedaf75b5b08cddf3bf4631c658b68ee6766a8e999467a641d7cb7aaaecec972103316bc27d95b96418349afc6298c259bb999c6e8f39a7217787ad53602be7c1472102e21c29b4a7eeace9c7a8cefb568ca00c86ff9bf5e79e07e5442c29d4a0950d0453ae",
          "hex": "00483045022100f764c0ec13aab59ee7ad78dc049d5455519866afa552959ee737ae7271f2a69602207e5632ad4e950bb2790b1d6807b36939caf41ebb3bee579ff796cfa0a5a87eec41483045022100c2e790ede74afadd6ef94f5eee64023ede59ddf65ff68d08c00a374b27db0bbc022066d6f44e05a82c0a37be6e3fda9f9086ba28b56c75a803d4ac9c73ee6fdbb769414c695221028fedaf75b5b08cddf3bf4631c658b68ee6766a8e999467a641d7cb7aaaecec972103316bc27d95b96418349afc6298c259bb999c6e8f39a7217787ad53602be7c1472102e21c29b4a7eeace9c7a8cefb568ca00c86ff9bf5e79e07e5442c29d4a0950d0453ae"
        },
        "sequence": 4294967295
      }
    ],
    "vout": [
      {
        "value": 0.99999,
        "n": 0,
        "scriptPubKey": {
          "asm": "OP_HASH160 fe5cc5d87e3348a5f3eaa316898a0f05d520876e OP_EQUAL",
          "hex": "a914fe5cc5d87e3348a5f3eaa316898a0f05d520876e87",
          "reqSigs": 1,
          "type": "scripthash",
          "addresses": [
            "bchreg:prl9e3wc0ce53f0na233dzv2puza2gy8dchjsxc0xg"
          ]
        }
      }
    ],
    "hex": "020000000163136bb039c8bceae50b983dad6bfedc546c5fe87e7ee91c39f46c01f8ccc70f01000000fdfe0000483045022100f764c0ec13aab59ee7ad78dc049d5455519866afa552959ee737ae7271f2a69602207e5632ad4e950bb2790b1d6807b36939caf41ebb3bee579ff796cfa0a5a87eec41483045022100c2e790ede74afadd6ef94f5eee64023ede59ddf65ff68d08c00a374b27db0bbc022066d6f44e05a82c0a37be6e3fda9f9086ba28b56c75a803d4ac9c73ee6fdbb769414c695221028fedaf75b5b08cddf3bf4631c658b68ee6766a8e999467a641d7cb7aaaecec972103316bc27d95b96418349afc6298c259bb999c6e8f39a7217787ad53602be7c1472102e21c29b4a7eeace9c7a8cefb568ca00c86ff9bf5e79e07e5442c29d4a0950d0453aeffffffff0118ddf5050000000017a914fe5cc5d87e3348a5f3eaa316898a0f05d520876e8700000000"
  },
  "inputs": [
    {
      "txid": "0fc7ccf8016cf4391ce97e7ee85f6c54dcfe6bad3d980be5eabcc839b06b1363",
      "hash": "0fc7ccf8016cf4391ce97e7ee85f6c54dcfe6bad3d980be5eabcc839b06b1363",
      "version": 2,
      "size": 223,
      "locktime": 300,
      "vin": [
        {
          "txid": "cbd8483f1fcd95e4e2ad2a537918dfd71da08afe6b39094962655ba26bbba2a8",
          "vout": 0,
          "scriptSig": {
            "asm": "304402200744da577229c692ff204ce1bf9b22ee1e5bb37e19f1eea2942f7822c62496dd02204403fc835d3ae4e9209a7fd581dceaf63b3f537d35eaaa7e7f7feb08a415a844[ALL|FORKID] 03cd3fb8e2ad0a5d48465d5c49a4c0e8c8f5171e3bf0503f14ef314b5c50e5b0e0",
            "hex": "47304402200744da577229c692ff204ce1bf9b22ee1e5bb37e19f1eea2942f7822c62496dd02204403fc835d3ae4e9209a7fd581dceaf63b3f537d35eaaa7e7f7feb08a415a844412103cd3fb8e2ad0a5d48465d5c49a4c0e8c8f5171e3bf0503f14ef314b5c50e5b0e0"
          },
          "sequence": 4294967294
        }
      ],
      "vout": [
        {
          "value": 23.99999777,
          "n": 0,
          "scriptPubKey": {
            "asm": "OP_DUP OP_HASH160 49e3a40adafd7b9127fcc628d949e7c8f61356a1 OP_EQUALVERIFY OP_CHECKSIG",
            "hex": "76a91449e3a40adafd7b9127fcc628d949e7c8f61356a188ac",
            "reqSigs": 1,
            "type": "pubkeyhash",
            "addresses": [
              "bchreg:qpy78fq2mt7hhyf8lnrz3k2fuly0vy6k5y8hvup6df"
            ]
          }
        },
        {
          "value": 1,
          "n": 1,
          "scriptPubKey": {
            "asm": "OP_HASH160 fe5cc5d87e3348a5f3eaa316898a0f05d520876e OP_EQUAL",
            "hex": "a914fe5cc5d87e3348a5f3eaa316898a0f05d520876e87",
            "reqSigs": 1,
            "type": "scripthash",
            "addresses": [
              "bchreg:prl9e3wc0ce53f0na233dzv2puza2gy8dchjsxc0xg"
            ]
          }
        }
      ],
      "hex": "0200000001a8a2bb6ba25b65624909396bfe8aa01dd7df1879532aade2e495cd1f3f48d8cb000000006a47304402200744da577229c692ff204ce1bf9b22ee1e5bb37e19f1eea2942f7822c62496dd02204403fc835d3ae4e9209a7fd581dceaf63b3f537d35eaaa7e7f7feb08a415a844412103cd3fb8e2ad0a5d48465d5c49a4c0e8c8f5171e3bf0503f14ef314b5c50e5b0e0feffffff0221170d8f000000001976a91449e3a40adafd7b9127fcc628d949e7c8f61356a188ac00e1f5050000000017a914fe5cc5d87e3348a5f3eaa316898a0f05d520876e872c010000"
    }
  ]
}