{
  "transaction": {
    "txid": "5a6df0e2fd3180b328a9e64529fdf3a02723b46c79e305f3ebe319c8af94719f",
    "hash": "5a6df0e2fd3180b328a9e64529fdf3a02723b46c79e305f3ebe319c8af94719f",
    "version": 2,
    "size": 338,
    "locktime": 0,
    "vin": [
      {
        "txid": "1b836869d20f28c02c20a78d1cd906d842d8ba0101f5bc89f9c97bf5030f9665",
        "vout": 1,
        "scriptSig": {
          "asm": "0 304402203cce7fe1497927e1983b521c79db5514b442b1a307d5d8c5b626f935d6deccda02203416b2d776a7b92925bb610ad29109707deb5b67910e3423afa186bed94effa7[ALL|FORKID] 3045022100ca3671a880ed5e3612f43cdffc9d0130394717d85b2ee12072f30097608a3f9a02200fd0b8e9ae8a2faab7b3afae543497bac0cec08d6eee97ab7368e816a66b092a[ALL|FORKID] 5221028fedaf75b5b08cddf3bf4631c658b68ee6766a8e999467a641d7cb7aaaecec972103316bc27d95b96418349afc6298c259bb999c6e8f39a7217787ad53602be7c1472102e21c29b4a7eeace9c7a8cefb568ca00c86ff9bf5e79e07e5442c29d4a0950d0453ae",
          "hex": "0047304402203cce7fe1497927e1983b521c79db5514b442b1a307d5d8c5b626f935d6deccda02203416b2d776a7b92925bb610ad29109707deb5b67910e3423afa186bed94effa741483045022100ca3671a880ed5e3612f43cdffc9d0130394717d85b2ee12072f30097608a3f9a02200fd0b8e9ae8a2faab7b3afae543497bac0cec08d6eee97ab7368e816a66b092a414c695221028fedaf75b5b08cddf3bf4631c658b68ee6766a8e999467a641d7cb7aaaecec972103316bc27d95b96418349afc6298c259bb999c6e8f39a7217787ad53602be7c1472102e21c29b4a7eeace9c7a8cefb568ca00c86ff9bf5e79e07e5442c29d4a0950d0453ae"
        },
        "sequence": 4294967295
      }
    ],
    "vout": [
      {
        "value": 0.99999,
        "n": 0,
        "scriptPubKey": {
          "asm": "OP_HASH160 fe5cc5d87e3348a5f3eaa316898a0f05d520876e OP_EQUAL",
          "hex": "a914fe5cc5d87e3348a5f3eaa316898a0f05d520876e87",
          "reqSigs": 1,
          "type": "scripthash",
          "addresses": [
            "2NGSAkyhiWMZPcrfiwmcRWf9HQgpsiRGKv4"
          ]
        }
      }
    ],
    "hex": "020000000165960f03f57bc9f989bcf50101bad842d806d91c8da7202cc0280fd26968831b01000000fdfd000047304402203cce7fe1497927e1983b521c79db5514b442b1a307d5d8c5b626f935d6deccda02203416b2d776a7b92925bb610ad29109707deb5b67910e3423afa186bed94effa741483045022100ca3671a880ed5e3612f43cdffc9d0130394717d85b2ee12072f30097608a3f9a02200fd0b8e9ae8a2faab7b3afae543497bac0cec08d6eee97ab7368e816a66b092a414c695221028fedaf75b5b08cddf3bf4631c658b68ee6766a8e999467a641d7cb7aaaecec972103316bc27d95b96418349afc6298c259bb999c6e8f39a7217787ad53602be7c1472102e21c29b4a7eeace9c7a8cefb568ca00c86ff9bf5e79e07e5442c29d4a0950d0453aeffffffff0118ddf5050000000017a914fe5cc5d87e3348a5f3eaa316898a0f05d520876e8700000000"
  },
  "inputs": [
    {
      "txid": "1b836869d20f28c02c20a78d1cd906d842d8ba0101f5bc89f9c97bf5030f9665",
      "hash": "1b836869d20f28c02c20a78d1cd906d842d8ba0101f5bc89f9c97bf5030f9665",
      "version": 2,
      "size": 223,
      "locktime": 300,
      "vin": [
        {
          "txid": "c25bf6297740da1d3311c5d13228d3e670b7e998657a5c11157d176c69e5b881",
          "vout": 0,
          "scriptSig": {
            "asm": "3044022062d03c6e32bb4a22a16629495908e180db785a7c4b49b8d1e05941271744b8720220687948411a7a70ddc35a1fd908750f082c61ccac832e473ac0e2897720561d66[ALL|FORKID] 028fee0679ed79b7b50e534812ae4dc69faea4ff0ae52174901606af1e0c073b50",
            "hex": "473044022062d03c6e32bb4a22a16629495908e180db785a7c4b49b8d1e05941271744b8720220687948411a7a70ddc35a1fd908750f082c61ccac832e473ac0e2897720561d664121028fee0679ed79b7b50e534812ae4dc69faea4ff0ae52174901606af1e0c073b50"
          },
          "sequence": 4294967294
        }
      ],
      "vout": [
        {
          "value": 23.99999777,
          "n": 0,
          "scriptPubKey": {
            "asm": "OP_DUP OP_HASH160 b523fde62ef5b923ebe9e5a1805c6905b2095635 OP_EQUALVERIFY OP_CHECKSIG",
            "hex": "76a914b523fde62ef5b923ebe9e5a1805c6905b209563588ac",
            "reqSigs": 1,
            "type": "pubkeyhash",
            "addresses": [
              "mx2jiXdm4eBLn73iMasTczkdiqAjY7CMmt"
            ]
          }
        },
        {
          "value": 1,
          "n": 1,
          "scriptPubKey": {
            "asm": "OP_HASH160 fe5cc5d87e3348a5f3eaa316898a0f05d520876e OP_EQUAL",
            "hex": "a914fe5cc5d87e3348a5f3eaa316898a0f05d520876e87",
            "reqSigs": 1,
            "type": "scripthash",
            "addresses": [
              "2NGSAkyhiWMZPcrfiwmcRWf9HQgpsiRGKv4"
            ]
          }
        }
      ],
      "hex": "020000000181b8e5696c177d15115c7a6598e9b770e6d32832d1c511331dda407729f65bc2000000006a473044022062d03c6e32bb4a22a16629495908e180db785a7c4b49b8d1e05941271744b8720220687948411a7a70ddc35a1fd908750f082c61ccac832e473ac0e2897720561d664121028fee0679ed79b7b50e534812ae4dc69faea4ff0ae52174901606af1e0c073b50feffffff0221170d8f000000001976a914b523fde62ef5b923ebe9e5a1805c6905b209563588ac00e1f5050000000017a914fe5cc5d87e3348a5f3eaa316898a0f05d520876e872c010000"
    }
  ]
}