{
  "transaction": {
    "txid": "9dd90e960e882eb8ad78193cd539de1fedf1e9c8a9036b7aac6846fb4e2a8b14",
    "hash": "9dd90e960e882eb8ad78193cd539de1fedf1e9c8a9036b7aac6846fb4e2a8b14",
    "version": 2,
    "size": 226,
    "locktime": 300,
    "vin": [
      {
        "txid": "3c84d8fdd861584d4c53016712b149089d9967583383b8c988802791557bc851",
        "vout": 0,
        "scriptSig": {
          "asm": "30450221008aca36e68304ad922b3dbb5f7c1114ac771257fc85a2df54eaf78a1fff1b82220220775097e4ebfb3b851588f073ab831e1cfb24a058a7d5dfe156edd1ef80adb575[ALL|FORKID] 03ce9aabb5c80574a9c7decf84cf2df074442f796ebf67d6a889d46e8c2135aa5d",
          "hex": "4830450221008aca36e68304ad922b3dbb5f7c1114ac771257fc85a2df54eaf78a1fff1b82220220775097e4ebfb3b851588f073ab831e1cfb24a058a7d5dfe156edd1ef80adb575412103ce9aabb5c80574a9c7decf84cf2df074442f796ebf67d6a889d46e8c2135aa5d"
        },
        "sequence": 4294967294
      }
    ],
    "vout": [
      {
        "value": 23.99999774,
        "n": 0,
        "scriptPubKey": {
          "asm": "OP_DUP OP_HASH160 5b97fad08556a0076a4840662ea45bc14b80d642 OP_EQUALVERIFY OP_CHECKSIG",
          "hex": "76a9145b97fad08556a0076a4840662ea45bc14b80d64288ac",
          "reqSigs": 1,
          "type": "pubkeyhash",
          "addresses": [
            "mosFrFMgyG91T1sVe2G9hiD8CW2BMbY8mV"
          ]
        }
      },
      {
        "value": 1,
        "n": 1,
        "scriptPubKey": {
          "asm": "OP_DUP OP_HASH160 d2eb140d8b7006e7b862827043f9cddd50da9811 OP_EQUALVERIFY OP_CHECKSIG",
          "hex": "76a914d2eb140d8b7006e7b862827043f9cddd50da981188ac",
          "reqSigs": 1,
          "type": "pubkeyhash",
          "addresses": [
            "mzkBosFeajZ5KxXp4rPNA8maqoKUFiR7nY"
          ]
        }
      }
    ],
    "hex": "020000000151c87b5591278088c9b883335867999d0849b1126701534c4d5861d8fdd8843c000000006b4830450221008aca36e68304ad922b3dbb5f7c1114ac771257fc85a2df54eaf78a1fff1b82220220775097e4ebfb3b851588f073ab831e1cfb24a058a7d5dfe156edd1ef80adb575412103ce9aabb5c80574a9c7decf84cf2df074442f796ebf67d6a889d46e8c2135aa5dfeffffff021e170d8f000000001976a9145b97fad08556a0076a4840662ea45bc14b80d64288ac00e1f505000000001976a914d2eb140d8b7006e7b862827043f9cddd50da981188ac2c010000"
  },
  "inputs": [
    {
      "txid": "3c84d8fdd861584d4c53016712b149089d9967583383b8c988802791557bc851",
      "hash": "3c84d8fdd861584d4c53016712b149089d9967583383b8c988802791557bc851",
      "version": 2,
      "size": 90,
      "locktime": 0,
      "vin": [
        {
          "coinbase": "02a9000101",
          "sequence": 4294967295
        }
      ],
      "vout": [
        {
          "value": 25,
          "n": 0,
          "scriptPubKey": {
            "asm": "OP_DUP OP_HASH160 9b2959fb42b408584d4c26f0a475688e6ee38219 OP_EQUALVERIFY OP_CHECKSIG",
            "hex": "76a9149b2959fb42b408584d4c26f0a475688e6ee3821988ac",
            "reqSigs": 1,
            "type": "pubkeyhash",
            "addresses": [
              "mufNZwTDQpwXWYAjtMJN7giWUFviU4ZH7S"
            ]
          }
        }
      ],
      "blockhash": "735aab3fc47f660e1c73c28b0fbf89a223dae186c202dcb3dfab0815eb35c0c8",
      "confirmations": 132,
      "time": 1635930574,
      "blocktime": 1635930574,
      "blockheight": 169,
      "hex": "02000000010000000000000000000000000000000000000000000000000000000000000000ffffffff0502a9000101ffffffff0100f90295000000001976a9149b2959fb42b408584d4c26f0a475688e6ee3821988ac00000000"
    }
  ]
}