{
  "txid": "7ac222a86247cd6783dcaab986f670c038fc11db26bd81397777a067f5fb7600",
  "hash": "7ac222a86247cd6783dcaab986f670c038fc11db26bd81397777a067f5fb7600",
  "version": 2,
  "size": 223,
  "locktime": 300,
  "vin": [
    {
      "txid": "9b16cb0c4d30da708515b218bd780eb76908f729d7b18ceaeceb9d5569a7dd71",
      "vout": 0,
      "scriptSig": {
        "asm": "30440220641fc2b9b4c6e74e3b3692c31d1ce3e4a2f4bd9add1e626a532162d3af6b592c022007fe8507f81c82d1ddc92547f8576674f237d4ed277ae08502611140c607dc57[ALL|FORKID] 03c947e67221d39f7e140281f42c6f4c4025e897d031f414733bd4525f3a41ee2b",
        "hex": "4730440220641fc2b9b4c6e74e3b3692c31d1ce3e4a2f4bd9add1e626a532162d3af6b592c022007fe8507f81c82d1ddc92547f8576674f237d4ed277ae08502611140c607dc57412103c947e67221d39f7e140281f42c6f4c4025e897d031f414733bd4525f3a41ee2b"
      },
      "sequence": 4294967294
    }
  ],
  "vout": [
    {
      "value": 1,
      "n": 0,
      "scriptPubKey": {
        "asm": "OP_HASH160 fe5cc5d87e3348a5f3eaa316898a0f05d520876e OP_EQUAL",
        "hex": "a914fe5cc5d87e3348a5f3eaa316898a0f05d520876e87",
        "reqSigs": 1,
        "type": "scripthash",
        "addresses": [
          "2NGSAkyhiWMZPcrfiwmcRWf9HQgpsiRGKv4"
        ]
      }
    },
    {
      "value": 23.99999776,
      "n": 1,
      "scriptPubKey": {
        "asm": "OP_DUP OP_HASH160 5f01c5a3e96a41a50e767c252e87c1cec7bd81c7 OP_EQUALVERIFY OP_CHECKSIG",
        "hex": "76a9145f01c5a3e96a41a50e767c252e87c1cec7bd81c788ac",
        "reqSigs": 1,
        "type": "pubkeyhash",
        "addresses": [
          "mpBJcQCoXCkNR71Nw93ZnEwEVVCV59EKA5"
        ]
      }
    }
  ],
  "hex": "020000000171dda769559debecea8cb1d729f70869b70e78bd18b2158570da304d0ccb169b000000006a4730440220641fc2b9b4c6e74e3b3692c31d1ce3e4a2f4bd9add1e626a532162d3af6b592c022007fe8507f81c82d1ddc92547f8576674f237d4ed277ae08502611140c607dc57412103c947e67221d39f7e140281f42c6f4c4025e897d031f414733bd4525f3a41ee2bfeffffff0200e1f5050000000017a914fe5cc5d87e3348a5f3eaa316898a0f05d520876e8720170d8f000000001976a9145f01c5a3e96a41a50e767c252e87c1cec7bd81c788ac2c010000"
}