{
  "txid": "540bfd7cdfdbe5c8f8a4b30fa24b196e50edaad37cc93d876261ddbefdab8ea3",
  "hash": "540bfd7cdfdbe5c8f8a4b30fa24b196e50edaad37cc93d876261ddbefdab8ea3",
  "version": 2,
  "size": 226,
  "locktime": 300,
  "vin": [
    {
      "txid": "531f8f7dc1fc3700e1870b92d16776774413724af64ba665c437300824d8154d",
      "vout": 0,
      "scriptSig": {
        "asm": "3045022100a70c6a1e06eafb1037bcd868a9cf9c4a4ac2574ac035298dd1996564aeedc9f502203230116f33792d1686fc6518c1f02c146cde985214f3c418b1a6a75d939ffe60[ALL|FORKID] 03c947e67221d39f7e140281f42c6f4c4025e897d031f414733bd4525f3a41ee2b",
        "hex": "483045022100a70c6a1e06eafb1037bcd868a9cf9c4a4ac2574ac035298dd1996564aeedc9f502203230116f33792d1686fc6518c1f02c146cde985214f3c418b1a6a75d939ffe60412103c947e67221d39f7e140281f42c6f4c4025e897d031f414733bd4525f3a41ee2b"
      },
      "sequence": 4294967294
    }
  ],
  "vout": [
    {
      "value": 23.99999774,
      "n": 0,
      "scriptPubKey": {
        "asm": "OP_DUP OP_HASH160 e1e5ca3550c13c9a7c1593b93c3ee2e595409069 OP_EQUALVERIFY OP_CHECKSIG",
        "hex": "76a914e1e5ca3550c13c9a7c1593b93c3ee2e59540906988ac",
        "reqSigs": 1,
        "type": "pubkeyhash",
        "addresses": [
          "n27PcJ9CJRsi285Y77wqFRxjD6Bgamcpqe"
        ]
      }
    },
    {
      "value": 1,
      "n": 1,
      "scriptPubKey": {
        "asm": "OP_DUP OP_HASH160 d2eb140d8b7006e7b862827043f9cddd50da9811 OP_EQUALVERIFY OP_CHECKSIG",
        "hex": "76a914d2eb140d8b7006e7b862827043f9cddd50da981188ac",
        "reqSigs": 1,
        "type": "pubkeyhash",
        "addresses": [
          "mzkBosFeajZ5KxXp4rPNA8maqoKUFiR7nY"
        ]
      }
    }
  ],
  "hex": "02000000014d15d824083037c465a64bf64a721344777667d1920b87e10037fcc17d8f1f53000000006b483045022100a70c6a1e06eafb1037bcd868a9cf9c4a4ac2574ac035298dd1996564aeedc9f502203230116f33792d1686fc6518c1f02c146cde985214f3c418b1a6a75d939ffe60412103c947e67221d39f7e140281f42c6f4c4025e897d031f414733bd4525f3a41ee2bfeffffff021e170d8f000000001976a914e1e5ca3550c13c9a7c1593b93c3ee2e59540906988ac00e1f505000000001976a914d2eb140d8b7006e7b862827043f9cddd50da981188ac2c010000"
}