{
  "transaction": {
    "txid": "a829c2730986aad6387dd55b35ba5e2a8a3ed32d68c17be6ec5918154643552a",
    "hash": "a829c2730986aad6387dd55b35ba5e2a8a3ed32d68c17be6ec5918154643552a",
    "version": 2,
    "size": 226,
    "locktime": 300,
    "vin": [
      {
        "txid": "07aecce255f583fa153db8ce8e0b31ca63b722c320ab3394b1b1d48321584b5c",
        "vout": 0,
        "scriptSig": {
          "asm": "30450221008f12824d19124145ab4b8ee3e9bb2a5753fa9cb7e35beb985c9313477cded63002203ab5ac05fe7a2be325a9617b09f90b0c9580d6f59d65c09b06ae28ba2d05d8e1[ALL|FORKID] 03147d5040794aea1be7440b29009e6ba30d2e32cfcdb220f3312803a91496ac1d",
          "hex": "4830450221008f12824d19124145ab4b8ee3e9bb2a5753fa9cb7e35beb985c9313477cded63002203ab5ac05fe7a2be325a9617b09f90b0c9580d6f59d65c09b06ae28ba2d05d8e1412103147d5040794aea1be7440b29009e6ba30d2e32cfcdb220f3312803a91496ac1d"
        },
        "sequence": 4294967294
      }
    ],
    "vout": [
      {
        "value": 1,
        "n": 0,
        "scriptPubKey": {
          "asm": "OP_DUP OP_HASH160 d2eb140d8b7006e7b862827043f9cddd50da9811 OP_EQUALVERIFY OP_CHECKSIG",
          "hex": "76a914d2eb140d8b7006e7b862827043f9cddd50da981188ac",
          "reqSigs": 1,
          "type": "pubkeyhash",
          "addresses": [
            "mzkBosFeajZ5KxXp4rPNA8maqoKUFiR7nY"
          ]
        }
      },
      {
        "value": 23.99999774,
        "n": 1,
        "scriptPubKey": {
          "asm": "OP_DUP OP_HASH160 c1e1d5fe371c72cbfbdd1adfa7f0b54f17532d78 OP_EQUALVERIFY OP_CHECKSIG",
          "hex": "76a914c1e1d5fe371c72cbfbdd1adfa7f0b54f17532d7888ac",
          "reqSigs": 1,
          "type": "pubkeyhash",
          "addresses": [
            "myC7FRyZv2rt7VLoHdGGDdwYZc91Siug1H"
          ]
        }
      }
    ],
    "hex": "02000000015c4b582183d4b1b19433ab20c322b763ca310b8eceb83d15fa83f555e2ccae07000000006b4830450221008f12824d19124145ab4b8ee3e9bb2a5753fa9cb7e35beb985c9313477cded63002203ab5ac05fe7a2be325a9617b09f90b0c9580d6f59d65c09b06ae28ba2d05d8e1412103147d5040794aea1be7440b29009e6ba30d2e32cfcdb220f3312803a91496ac1dfeffffff0200e1f505000000001976a914d2eb140d8b7006e7b862827043f9cddd50da981188ac1e170d8f000000001976a914c1e1d5fe371c72cbfbdd1adfa7f0b54f17532d7888ac2c010000"
  },
  "inputs": [
    {
      "txid": "07aecce255f583fa153db8ce8e0b31ca63b722c320ab3394b1b1d48321584b5c",
      "hash": "07aecce255f583fa153db8ce8e0b31ca63b722c320ab3394b1b1d48321584b5c",
      "version": 2,
      "size": 90,
      "locktime": 0,
      "vin": [
        {
          "coinbase": "02c2000101",
          "sequence": 4294967295
        }
      ],
      "vout": [
        {
          "value": 25,
          "n": 0,
          "scriptPubKey": {
            "asm": "OP_DUP OP_HASH160 0d31c5b706e1c03aca934cbb31eecdebdb455709 OP_EQUALVERIFY OP_CHECKSIG",
            "hex": "76a9140d31c5b706e1c03aca934cbb31eecdebdb45570988ac",
            "reqSigs": 1,
            "type": "pubkeyhash",
            "addresses": [
              "mgiihnkBmq8UFbx2fvQ23ao44Hbrp6ZY7c"
            ]
          }
        }
      ],
      "blockhash": "04bf09cda99b4f44ac2143ab3dc583d27e4d90a4762dfeafacebcdaef7c5049b",
      "confirmations": 107,
      "time": 1628762047,
      "blocktime": 1628762047,
      "blockheight": 194,
      "hex": "02000000010000000000000000000000000000000000000000000000000000000000000000ffffffff0502c2000101ffffffff0100f90295000000001976a9140d31c5b706e1c03aca934cbb31eecdebdb45570988ac00000000"
    }
  ]
}