{
  "transaction": {
    "txid": "909dfa8430e6aac9a8f47298bfe99df8998cc7ab801ae697129be999c33a3726",
    "hash": "909dfa8430e6aac9a8f47298bfe99df8998cc7ab801ae697129be999c33a3726",
    "version": 2,
    "size": 223,
    "locktime": 300,
    "vin": [
      {
        "txid": "6b8f5dc5620529fa298bbef37b646f8a45d5c31388eebeac80afb653f5fa43f2",
        "vout": 0,
        "scriptSig": {
          "asm": "304402204a80d866951a9ef135d98135e16bd057bed023949cb0950b73e85fc3f884578b02202e1b7e8c4f4fbca71389ac3f2def130371daa7566ddd393b46174682484eae32[ALL|FORKID] 03147d5040794aea1be7440b29009e6ba30d2e32cfcdb220f3312803a91496ac1d",
          "hex": "47304402204a80d866951a9ef135d98135e16bd057bed023949cb0950b73e85fc3f884578b02202e1b7e8c4f4fbca71389ac3f2def130371daa7566ddd393b46174682484eae32412103147d5040794aea1be7440b29009e6ba30d2e32cfcdb220f3312803a91496ac1d"
        },
        "sequence": 4294967294
      }
    ],
    "vout": [
      {
        "value": 1,
        "n": 0,
        "scriptPubKey": {
          "asm": "OP_HASH160 fe5cc5d87e3348a5f3eaa316898a0f05d520876e OP_EQUAL",
          "hex": "a914fe5cc5d87e3348a5f3eaa316898a0f05d520876e87",
          "reqSigs": 1,
          "type": "scripthash",
          "addresses": [
            "2NGSAkyhiWMZPcrfiwmcRWf9HQgpsiRGKv4"
          ]
        }
      },
      {
        "value": 23.99999776,
        "n": 1,
        "scriptPubKey": {
          "asm": "OP_DUP OP_HASH160 9a1fc60b9cc0fcdea19b1d382454af35c2ece76d OP_EQUALVERIFY OP_CHECKSIG",
          "hex": "76a9149a1fc60b9cc0fcdea19b1d382454af35c2ece76d88ac",
          "reqSigs": 1,
          "type": "pubkeyhash",
          "addresses": [
            "muZtRGLv4iPmuzwKyVJCRNKiHMadfUv13b"
          ]
        }
      }
    ],
    "hex": "0200000001f243faf553b6af80acbeee8813c3d5458a6f647bf3be8b29fa290562c55d8f6b000000006a47304402204a80d866951a9ef135d98135e16bd057bed023949cb0950b73e85fc3f884578b02202e1b7e8c4f4fbca71389ac3f2def130371daa7566ddd393b46174682484eae32412103147d5040794aea1be7440b29009e6ba30d2e32cfcdb220f3312803a91496ac1dfeffffff0200e1f5050000000017a914fe5cc5d87e3348a5f3eaa316898a0f05d520876e8720170d8f000000001976a9149a1fc60b9cc0fcdea19b1d382454af35c2ece76d88ac2c010000"
  },
  "inputs": [
    {
      "txid": "6b8f5dc5620529fa298bbef37b646f8a45d5c31388eebeac80afb653f5fa43f2",
      "hash": "6b8f5dc5620529fa298bbef37b646f8a45d5c31388eebeac80afb653f5fa43f2",
      "version": 2,
      "size": 90,
      "locktime": 0,
      "vin": [
        {
          "coinbase": "02a0000101",
          "sequence": 4294967295
        }
      ],
      "vout": [
        {
          "value": 25,
          "n": 0,
          "scriptPubKey": {
            "asm": "OP_DUP OP_HASH160 0d31c5b706e1c03aca934cbb31eecdebdb455709 OP_EQUALVERIFY OP_CHECKSIG",
            "hex": "76a9140d31c5b706e1c03aca934cbb31eecdebdb45570988ac",
            "reqSigs": 1,
            "type": "pubkeyhash",
            "addresses": [
              "mgiihnkBmq8UFbx2fvQ23ao44Hbrp6ZY7c"
            ]
          }
        }
      ],
      "blockhash": "72ee1282627d3c09d784f3da755fbc607743d41d386259a03cedc358e19aebcd",
      "confirmations": 141,
      "time": 1628762041,
      "blocktime": 1628762041,
      "blockheight": 160,
      "hex": "02000000010000000000000000000000000000000000000000000000000000000000000000ffffffff0502a0000101ffffffff0100f90295000000001976a9140d31c5b706e1c03aca934cbb31eecdebdb45570988ac00000000"
    }
  ]
}