{
  "transaction": {
    "txid": "18655d6144fc11b5541a266eb2be34a47f04d7635fe5b27fffff7c8af7dcb710",
    "hash": "18655d6144fc11b5541a266eb2be34a47f04d7635fe5b27fffff7c8af7dcb710",
    "version": 2,
    "size": 224,
    "locktime": 300,
    "vin": [
      {
        "txid": "eab1d1101396abb6f52cd27bf2274582e5d07eb71c57ee7beb9218300e53c38b",
        "vout": 0,
        "scriptSig": {
          "asm": "3045022100b1d5414ce63673c13778d43ec702baa70f09fd004f3c0842df10a1f2d5487a2c02201c226b508cdb84f5033bcb7033651a41ebe20b2a42a3f32d28fa854c89414081[ALL|FORKID] 03ce9aabb5c80574a9c7decf84cf2df074442f796ebf67d6a889d46e8c2135aa5d",
          "hex": "483045022100b1d5414ce63673c13778d43ec702baa70f09fd004f3c0842df10a1f2d5487a2c02201c226b508cdb84f5033bcb7033651a41ebe20b2a42a3f32d28fa854c89414081412103ce9aabb5c80574a9c7decf84cf2df074442f796ebf67d6a889d46e8c2135aa5d"
        },
        "sequence": 4294967294
      }
    ],
    "vout": [
      {
        "value": 1,
        "n": 0,
        "scriptPubKey": {
          "asm": "OP_HASH160 fe5cc5d87e3348a5f3eaa316898a0f05d520876e OP_EQUAL",
          "hex": "a914fe5cc5d87e3348a5f3eaa316898a0f05d520876e87",
          "reqSigs": 1,
          "type": "scripthash",
          "addresses": [
            "2NGSAkyhiWMZPcrfiwmcRWf9HQgpsiRGKv4"
          ]
        }
      },
      {
        "value": 23.99999776,
        "n": 1,
        "scriptPubKey": {
          "asm": "OP_DUP OP_HASH160 94276ab47923b6d32c8d7efeeab2f41c9ccb423c OP_EQUALVERIFY OP_CHECKSIG",
          "hex": "76a91494276ab47923b6d32c8d7efeeab2f41c9ccb423c88ac",
          "reqSigs": 1,
          "type": "pubkeyhash",
          "addresses": [
            "mu2KXB1M16s3SeWreBJNfrvkxKt2FnpTfr"
          ]
        }
      }
    ],
    "hex": "02000000018bc3530e301892eb7bee571cb77ed0e5824527f27bd22cf5b6ab961310d1b1ea000000006b483045022100b1d5414ce63673c13778d43ec702baa70f09fd004f3c0842df10a1f2d5487a2c02201c226b508cdb84f5033bcb7033651a41ebe20b2a42a3f32d28fa854c89414081412103ce9aabb5c80574a9c7decf84cf2df074442f796ebf67d6a889d46e8c2135aa5dfeffffff0200e1f5050000000017a914fe5cc5d87e3348a5f3eaa316898a0f05d520876e8720170d8f000000001976a91494276ab47923b6d32c8d7efeeab2f41c9ccb423c88ac2c010000"
  },
  "inputs": [
    {
      "txid": "eab1d1101396abb6f52cd27bf2274582e5d07eb71c57ee7beb9218300e53c38b",
      "hash": "eab1d1101396abb6f52cd27bf2274582e5d07eb71c57ee7beb9218300e53c38b",
      "version": 2,
      "size": 90,
      "locktime": 0,
      "vin": [
        {
          "coinbase": "02bb000101",
          "sequence": 4294967295
        }
      ],
      "vout": [
        {
          "value": 25,
          "n": 0,
          "scriptPubKey": {
            "asm": "OP_DUP OP_HASH160 9b2959fb42b408584d4c26f0a475688e6ee38219 OP_EQUALVERIFY OP_CHECKSIG",
            "hex": "76a9149b2959fb42b408584d4c26f0a475688e6ee3821988ac",
            "reqSigs": 1,
            "type": "pubkeyhash",
            "addresses": [
              "mufNZwTDQpwXWYAjtMJN7giWUFviU4ZH7S"
            ]
          }
        }
      ],
      "blockhash": "6a13432d2c93e15df0f01880d7f41d7141a1430dbf6498833510340cdd952386",
      "confirmations": 114,
      "time": 1635930577,
      "blocktime": 1635930577,
      "blockheight": 187,
      "hex": "02000000010000000000000000000000000000000000000000000000000000000000000000ffffffff0502bb000101ffffffff0100f90295000000001976a9149b2959fb42b408584d4c26f0a475688e6ee3821988ac00000000"
    }
  ]
}