{
  "txid": "9778e2ca0c25fc3cd9eb7374f88056d2c6f10f47223d58b138d4d10cedc0d8fc",
  "hash": "9778e2ca0c25fc3cd9eb7374f88056d2c6f10f47223d58b138d4d10cedc0d8fc",
  "version": 2,
  "size": 339,
  "locktime": 0,
  "vin": [
    {
      "txid": "7ac222a86247cd6783dcaab986f670c038fc11db26bd81397777a067f5fb7600",
      "vout": 0,
      "scriptSig": {
        "asm": "0 3045022100af94c24b0b184f04c2f2b552572b845758a90d910dc49aefd450508091b3566b022016147895db61ecfb65baca4126adc49475b1306c322ec038514905e6f2f8513b[ALL|FORKID] 3045022100a7faa67cd2cabb37b7b2d7ac57d15e2bb3dc9641931066fa6e3e0ba04959f682022038f82258eb5a3438305984d5caaa605f650c6124755eb537d6051da030c47da8[ALL|FORKID] 5221028fedaf75b5b08cddf3bf4631c658b68ee6766a8e999467a641d7cb7aaaecec972103316bc27d95b96418349afc6298c259bb999c6e8f39a7217787ad53602be7c1472102e21c29b4a7eeace9c7a8cefb568ca00c86ff9bf5e79e07e5442c29d4a0950d0453ae",
        "hex": "00483045022100af94c24b0b184f04c2f2b552572b845758a90d910dc49aefd450508091b3566b022016147895db61ecfb65baca4126adc49475b1306c322ec038514905e6f2f8513b41483045022100a7faa67cd2cabb37b7b2d7ac57d15e2bb3dc9641931066fa6e3e0ba04959f682022038f82258eb5a3438305984d5caaa605f650c6124755eb537d6051da030c47da8414c695221028fedaf75b5b08cddf3bf4631c658b68ee6766a8e999467a641d7cb7aaaecec972103316bc27d95b96418349afc6298c259bb999c6e8f39a7217787ad53602be7c1472102e21c29b4a7eeace9c7a8cefb568ca00c86ff9bf5e79e07e5442c29d4a0950d0453ae"
      },
      "sequence": 4294967295
    }
  ],
  "vout": [
    {
      "value": 0.99999,
      "n": 0,
      "scriptPubKey": {
        "asm": "OP_HASH160 fe5cc5d87e3348a5f3eaa316898a0f05d520876e OP_EQUAL",
        "hex": "a914fe5cc5d87e3348a5f3eaa316898a0f05d520876e87",
        "reqSigs": 1,
        "type": "scripthash",
        "addresses": [
          "2NGSAkyhiWMZPcrfiwmcRWf9HQgpsiRGKv4"
        ]
      }
    }
  ],
  "hex": "02000000010076fbf567a077773981bd26db11fc38c070f686b9aadc8367cd4762a822c27a00000000fdfe0000483045022100af94c24b0b184f04c2f2b552572b845758a90d910dc49aefd450508091b3566b022016147895db61ecfb65baca4126adc49475b1306c322ec038514905e6f2f8513b41483045022100a7faa67cd2cabb37b7b2d7ac57d15e2bb3dc9641931066fa6e3e0ba04959f682022038f82258eb5a3438305984d5caaa605f650c6124755eb537d6051da030c47da8414c695221028fedaf75b5b08cddf3bf4631c658b68ee6766a8e999467a641d7cb7aaaecec972103316bc27d95b96418349afc6298c259bb999c6e8f39a7217787ad53602be7c1472102e21c29b4a7eeace9c7a8cefb568ca00c86ff9bf5e79e07e5442c29d4a0950d0453aeffffffff0118ddf5050000000017a914fe5cc5d87e3348a5f3eaa316898a0f05d520876e8700000000"
}