{
  "transaction": {
    "txid": "6d6cd2bc7f5cd56cc9cff8e7b9c8344a87e50f267134aaf52af077eab6ed1dd1",
    "hash": "6d6cd2bc7f5cd56cc9cff8e7b9c8344a87e50f267134aaf52af077eab6ed1dd1",
    "version": 2,
    "size": 339,
    "locktime": 0,
    "vin": [
      {
        "txid": "909dfa8430e6aac9a8f47298bfe99df8998cc7ab801ae697129be999c33a3726",
        "vout": 0,
        "scriptSig": {
          "asm": "0 304502210084bd4c8bfab78f1f092ab419d9e9ce020901fe6df8244fb8b318a7ac942c95db02201ab8a451524f76e73dd84098b613d8388a289610022712fde3fea005d3d8b9e2[ALL|FORKID] 3045022100a3d56360fd5f2377cf585dbec3b0cf48accb14c1dba7e2a1828a607e87e8d47a02202029cbcb5ae4120c094de2f13937a27a544741df121f37ecd0e7d80ee9364530[ALL|FORKID] 5221028fedaf75b5b08cddf3bf4631c658b68ee6766a8e999467a641d7cb7aaaecec972103316bc27d95b96418349afc6298c259bb999c6e8f39a7217787ad53602be7c1472102e21c29b4a7eeace9c7a8cefb568ca00c86ff9bf5e79e07e5442c29d4a0950d0453ae",
          "hex": "0048304502210084bd4c8bfab78f1f092ab419d9e9ce020901fe6df8244fb8b318a7ac942c95db02201ab8a451524f76e73dd84098b613d8388a289610022712fde3fea005d3d8b9e241483045022100a3d56360fd5f2377cf585dbec3b0cf48accb14c1dba7e2a1828a607e87e8d47a02202029cbcb5ae4120c094de2f13937a27a544741df121f37ecd0e7d80ee9364530414c695221028fedaf75b5b08cddf3bf4631c658b68ee6766a8e999467a641d7cb7aaaecec972103316bc27d95b96418349afc6298c259bb999c6e8f39a7217787ad53602be7c1472102e21c29b4a7eeace9c7a8cefb568ca00c86ff9bf5e79e07e5442c29d4a0950d0453ae"
        },
        "sequence": 4294967295
      }
    ],
    "vout": [
      {
        "value": 0.99999,
        "n": 0,
        "scriptPubKey": {
          "asm": "OP_HASH160 fe5cc5d87e3348a5f3eaa316898a0f05d520876e OP_EQUAL",
          "hex": "a914fe5cc5d87e3348a5f3eaa316898a0f05d520876e87",
          "reqSigs": 1,
          "type": "scripthash",
          "addresses": [
            "2NGSAkyhiWMZPcrfiwmcRWf9HQgpsiRGKv4"
          ]
        }
      }
    ],
    "hex": "020000000126373ac399e99b1297e61a80abc78c99f89de9bf9872f4a8c9aae63084fa9d9000000000fdfe000048304502210084bd4c8bfab78f1f092ab419d9e9ce020901fe6df8244fb8b318a7ac942c95db02201ab8a451524f76e73dd84098b613d8388a289610022712fde3fea005d3d8b9e241483045022100a3d56360fd5f2377cf585dbec3b0cf48accb14c1dba7e2a1828a607e87e8d47a02202029cbcb5ae4120c094de2f13937a27a544741df121f37ecd0e7d80ee9364530414c695221028fedaf75b5b08cddf3bf4631c658b68ee6766a8e999467a641d7cb7aaaecec972103316bc27d95b96418349afc6298c259bb999c6e8f39a7217787ad53602be7c1472102e21c29b4a7eeace9c7a8cefb568ca00c86ff9bf5e79e07e5442c29d4a0950d0453aeffffffff0118ddf5050000000017a914fe5cc5d87e3348a5f3eaa316898a0f05d520876e8700000000"
  },
  "inputs": [
    {
      "txid": "909dfa8430e6aac9a8f47298bfe99df8998cc7ab801ae697129be999c33a3726",
      "hash": "909dfa8430e6aac9a8f47298bfe99df8998cc7ab801ae697129be999c33a3726",
      "version": 2,
      "size": 223,
      "locktime": 300,
      "vin": [
        {
          "txid": "6b8f5dc5620529fa298bbef37b646f8a45d5c31388eebeac80afb653f5fa43f2",
          "vout": 0,
          "scriptSig": {
            "asm": "304402204a80d866951a9ef135d98135e16bd057bed023949cb0950b73e85fc3f884578b02202e1b7e8c4f4fbca71389ac3f2def130371daa7566ddd393b46174682484eae32[ALL|FORKID] 03147d5040794aea1be7440b29009e6ba30d2e32cfcdb220f3312803a91496ac1d",
            "hex": "47304402204a80d866951a9ef135d98135e16bd057bed023949cb0950b73e85fc3f884578b02202e1b7e8c4f4fbca71389ac3f2def130371daa7566ddd393b46174682484eae32412103147d5040794aea1be7440b29009e6ba30d2e32cfcdb220f3312803a91496ac1d"
          },
          "sequence": 4294967294
        }
      ],
      "vout": [
        {
          "value": 1,
          "n": 0,
          "scriptPubKey": {
            "asm": "OP_HASH160 fe5cc5d87e3348a5f3eaa316898a0f05d520876e OP_EQUAL",
            "hex": "a914fe5cc5d87e3348a5f3eaa316898a0f05d520876e87",
            "reqSigs": 1,
            "type": "scripthash",
            "addresses": [
              "2NGSAkyhiWMZPcrfiwmcRWf9HQgpsiRGKv4"
            ]
          }
        },
        {
          "value": 23.99999776,
          "n": 1,
          "scriptPubKey": {
            "asm": "OP_DUP OP_HASH160 9a1fc60b9cc0fcdea19b1d382454af35c2ece76d OP_EQUALVERIFY OP_CHECKSIG",
            "hex": "76a9149a1fc60b9cc0fcdea19b1d382454af35c2ece76d88ac",
            "reqSigs": 1,
            "type": "pubkeyhash",
            "addresses": [
              "muZtRGLv4iPmuzwKyVJCRNKiHMadfUv13b"
            ]
          }
        }
      ],
      "hex": "0200000001f243faf553b6af80acbeee8813c3d5458a6f647bf3be8b29fa290562c55d8f6b000000006a47304402204a80d866951a9ef135d98135e16bd057bed023949cb0950b73e85fc3f884578b02202e1b7e8c4f4fbca71389ac3f2def130371daa7566ddd393b46174682484eae32412103147d5040794aea1be7440b29009e6ba30d2e32cfcdb220f3312803a91496ac1dfeffffff0200e1f5050000000017a914fe5cc5d87e3348a5f3eaa316898a0f05d520876e8720170d8f000000001976a9149a1fc60b9cc0fcdea19b1d382454af35c2ece76d88ac2c010000"
    }
  ]
}