{
  "transaction": {
    "txid": "16d28f69fb2928c22d71d7d81d8261b1d401badc8894c887ce47e65f51ca50e8",
    "hash": "16d28f69fb2928c22d71d7d81d8261b1d401badc8894c887ce47e65f51ca50e8",
    "version": 2,
    "size": 338,
    "locktime": 0,
    "vin": [
      {
        "txid": "18655d6144fc11b5541a266eb2be34a47f04d7635fe5b27fffff7c8af7dcb710",
        "vout": 0,
        "scriptSig": {
          "asm": "0 3045022100d0862a3f372b7d4cd9e08188c600e219bcccd7d87ab7527aca5e3aca22a400280220071f27ba0c6f6995b4ea33c7682e831ea0be11a19f96a344bcc8152b50a07235[ALL|FORKID] 304402207ef7696c5f9d0094199b3b5a88150c0ca64380fb1e2a99ebce3a9fca45d47cfe022045e172253e9cfa9417900cfc144a1fe7de48a3db2aa3dd4a9fc5b4e609b39d30[ALL|FORKID] 5221028fedaf75b5b08cddf3bf4631c658b68ee6766a8e999467a641d7cb7aaaecec972103316bc27d95b96418349afc6298c259bb999c6e8f39a7217787ad53602be7c1472102e21c29b4a7eeace9c7a8cefb568ca00c86ff9bf5e79e07e5442c29d4a0950d0453ae",
          "hex": "00483045022100d0862a3f372b7d4cd9e08188c600e219bcccd7d87ab7527aca5e3aca22a400280220071f27ba0c6f6995b4ea33c7682e831ea0be11a19f96a344bcc8152b50a072354147304402207ef7696c5f9d0094199b3b5a88150c0ca64380fb1e2a99ebce3a9fca45d47cfe022045e172253e9cfa9417900cfc144a1fe7de48a3db2aa3dd4a9fc5b4e609b39d30414c695221028fedaf75b5b08cddf3bf4631c658b68ee6766a8e999467a641d7cb7aaaecec972103316bc27d95b96418349afc6298c259bb999c6e8f39a7217787ad53602be7c1472102e21c29b4a7eeace9c7a8cefb568ca00c86ff9bf5e79e07e5442c29d4a0950d0453ae"
        },
        "sequence": 4294967295
      }
    ],
    "vout": [
      {
        "value": 0.99999,
        "n": 0,
        "scriptPubKey": {
          "asm": "OP_HASH160 fe5cc5d87e3348a5f3eaa316898a0f05d520876e OP_EQUAL",
          "hex": "a914fe5cc5d87e3348a5f3eaa316898a0f05d520876e87",
          "reqSigs": 1,
          "type": "scripthash",
          "addresses": [
            "2NGSAkyhiWMZPcrfiwmcRWf9HQgpsiRGKv4"
          ]
        }
      }
    ],
    "hex": "020000000110b7dcf78a7cffff7fb2e55f63d7047fa434beb26e261a54b511fc44615d651800000000fdfd0000483045022100d0862a3f372b7d4cd9e08188c600e219bcccd7d87ab7527aca5e3aca22a400280220071f27ba0c6f6995b4ea33c7682e831ea0be11a19f96a344bcc8152b50a072354147304402207ef7696c5f9d0094199b3b5a88150c0ca64380fb1e2a99ebce3a9fca45d47cfe022045e172253e9cfa9417900cfc144a1fe7de48a3db2aa3dd4a9fc5b4e609b39d30414c695221028fedaf75b5b08cddf3bf4631c658b68ee6766a8e999467a641d7cb7aaaecec972103316bc27d95b96418349afc6298c259bb999c6e8f39a7217787ad53602be7c1472102e21c29b4a7eeace9c7a8cefb568ca00c86ff9bf5e79e07e5442c29d4a0950d0453aeffffffff0118ddf5050000000017a914fe5cc5d87e3348a5f3eaa316898a0f05d520876e8700000000"
  },
  "inputs": [
    {
      "txid": "18655d6144fc11b5541a266eb2be34a47f04d7635fe5b27fffff7c8af7dcb710",
      "hash": "18655d6144fc11b5541a266eb2be34a47f04d7635fe5b27fffff7c8af7dcb710",
      "version": 2,
      "size": 224,
      "locktime": 300,
      "vin": [
        {
          "txid": "eab1d1101396abb6f52cd27bf2274582e5d07eb71c57ee7beb9218300e53c38b",
          "vout": 0,
          "scriptSig": {
            "asm": "3045022100b1d5414ce63673c13778d43ec702baa70f09fd004f3c0842df10a1f2d5487a2c02201c226b508cdb84f5033bcb7033651a41ebe20b2a42a3f32d28fa854c89414081[ALL|FORKID] 03ce9aabb5c80574a9c7decf84cf2df074442f796ebf67d6a889d46e8c2135aa5d",
            "hex": "483045022100b1d5414ce63673c13778d43ec702baa70f09fd004f3c0842df10a1f2d5487a2c02201c226b508cdb84f5033bcb7033651a41ebe20b2a42a3f32d28fa854c89414081412103ce9aabb5c80574a9c7decf84cf2df074442f796ebf67d6a889d46e8c2135aa5d"
          },
          "sequence": 4294967294
        }
      ],
      "vout": [
        {
          "value": 1,
          "n": 0,
          "scriptPubKey": {
            "asm": "OP_HASH160 fe5cc5d87e3348a5f3eaa316898a0f05d520876e OP_EQUAL",
            "hex": "a914fe5cc5d87e3348a5f3eaa316898a0f05d520876e87",
            "reqSigs": 1,
            "type": "scripthash",
            "addresses": [
              "2NGSAkyhiWMZPcrfiwmcRWf9HQgpsiRGKv4"
            ]
          }
        },
        {
          "value": 23.99999776,
          "n": 1,
          "scriptPubKey": {
            "asm": "OP_DUP OP_HASH160 94276ab47923b6d32c8d7efeeab2f41c9ccb423c OP_EQUALVERIFY OP_CHECKSIG",
            "hex": "76a91494276ab47923b6d32c8d7efeeab2f41c9ccb423c88ac",
            "reqSigs": 1,
            "type": "pubkeyhash",
            "addresses": [
              "mu2KXB1M16s3SeWreBJNfrvkxKt2FnpTfr"
            ]
          }
        }
      ],
      "hex": "02000000018bc3530e301892eb7bee571cb77ed0e5824527f27bd22cf5b6ab961310d1b1ea000000006b483045022100b1d5414ce63673c13778d43ec702baa70f09fd004f3c0842df10a1f2d5487a2c02201c226b508cdb84f5033bcb7033651a41ebe20b2a42a3f32d28fa854c89414081412103ce9aabb5c80574a9c7decf84cf2df074442f796ebf67d6a889d46e8c2135aa5dfeffffff0200e1f5050000000017a914fe5cc5d87e3348a5f3eaa316898a0f05d520876e8720170d8f000000001976a91494276ab47923b6d32c8d7efeeab2f41c9ccb423c88ac2c010000"
    }
  ]
}