{
  "transaction": {
    "txid": "61268e441d4078474679c063d1c268b5098163410553329dac0c8069f51bba97",
    "hash": "ada92818b73141897cd4d47e593fbb27346ecea5502bdcd34a1576cc4b1b3108",
    "version": 2,
    "size": 223,
    "vsize": 142,
    "weight": 565,
    "locktime": 282,
    "vin": [
      {
        "txid": "df8186f48e020e1211bc9525f12a1f0e267009afa1e4d1e8a589ab6d61a5fe92",
        "vout": 0,
        "scriptSig": {
          "asm": "",
          "hex": ""
        },
        "txinwitness": [
          "30440220780d09ef50384c17ae3b67e485c452ea9286f31262186a20e29b254ab37e5ef202203062964975b7fee0c53f2a1df4eec7359767f5ca3d480ff13366d09acbcb5b0e01",
          "028d0a4ecd6821f3028e924b972bd608c993bd4ebe48d000245a8aa48f091680f7"
        ],
        "sequence": 4294967294
      }
    ],
    "vout": [
      {
        "value": 1,
        "n": 0,
        "scriptPubKey": {
          "asm": "OP_HASH160 2280193aca8462021ec369d4e2ff1c95741fba7f OP_EQUAL",
          "hex": "a9142280193aca8462021ec369d4e2ff1c95741fba7f87",
          "reqSigs": 1,
          "type": "scripthash",
          "addresses": [
            "2MvPeRFSGYJq9BXoV2fxrMpJjsZMGx2m6Zk"
          ]
        }
      },
      {
        "value": 23.9999858,
        "n": 1,
        "scriptPubKey": {
          "asm": "0 851d728b227ec65c30dad2079adfa3fbe0db456c",
          "hex": "0014851d728b227ec65c30dad2079adfa3fbe0db456c",
          "reqSigs": 1,
          "type": "witness_v0_keyhash",
          "addresses": [
            "bcrt1qs5wh9zez0mr9cvx66gre4harl0sdk3tvp882rw"
          ]
        }
      }
    ],
    "hex": "0200000000010192fea5616dab89a5e8d1e4a1af0970260e1f2af12595bc11120e028ef48681df0000000000feffffff0200e1f5050000000017a9142280193aca8462021ec369d4e2ff1c95741fba7f8774120d8f00000000160014851d728b227ec65c30dad2079adfa3fbe0db456c024730440220780d09ef50384c17ae3b67e485c452ea9286f31262186a20e29b254ab37e5ef202203062964975b7fee0c53f2a1df4eec7359767f5ca3d480ff13366d09acbcb5b0e0121028d0a4ecd6821f3028e924b972bd608c993bd4ebe48d000245a8aa48f091680f71a010000"
  },
  "inputs": [
    {
      "txid": "df8186f48e020e1211bc9525f12a1f0e267009afa1e4d1e8a589ab6d61a5fe92",
      "hash": "29d441a209097e77fc2788cc57abc5df0b07f54f2ac4e7d4f685837fd998ed7e",
      "version": 2,
      "size": 170,
      "vsize": 143,
      "weight": 572,
      "locktime": 0,
      "vin": [
        {
          "coinbase": "02a0000101",
          "txinwitness": [
            "0000000000000000000000000000000000000000000000000000000000000000"
          ],
          "sequence": 4294967295
        }
      ],
      "vout": [
        {
          "value": 25,
          "n": 0,
          "scriptPubKey": {
            "asm": "0 1c0cda994faf888ab47e7716642d813fe271aded",
            "hex": "00141c0cda994faf888ab47e7716642d813fe271aded",
            "reqSigs": 1,
            "type": "witness_v0_keyhash",
            "addresses": [
              "bcrt1qrsxd4x2047yg4dr7wutxgtvp8l38rt0ds8mgx7"
            ]
          }
        },
        {
          "value": 0,
          "n": 1,
          "scriptPubKey": {
            "asm": "OP_RETURN aa21a9ede2f61c3f71d1defd3fa999dfa36953755c690689799962b48bebd836974e8cf9",
            "hex": "6a24aa21a9ede2f61c3f71d1defd3fa999dfa36953755c690689799962b48bebd836974e8cf9",
            "type": "nulldata"
          }
        }
      ],
      "hex": "020000000001010000000000000000000000000000000000000000000000000000000000000000ffffffff0502a0000101ffffffff0200f90295000000001600141c0cda994faf888ab47e7716642d813fe271aded0000000000000000266a24aa21a9ede2f61c3f71d1defd3fa999dfa36953755c690689799962b48bebd836974e8cf90120000000000000000000000000000000000000000000000000000000000000000000000000",
      "blockhash": "16bc1a043a6b82e7202d7c638f790dbf7bad05f9b1c34f6966b0831fbd6593e3",
      "confirmations": 142,
      "time": 1640270124,
      "blocktime": 1640270124
    }
  ]
}