{
  "transaction": {
    "txid": "e8d89f671be6efd2cd8b1423d40ac95e7ccdc70fd3554d3c72b93632c2a07837",
    "hash": "9654b21c3d264979984d93548f6c7996ce5c66949944c041ee5941d7e75c48b5",
    "version": 2,
    "size": 225,
    "vsize": 144,
    "weight": 573,
    "locktime": 301,
    "vin": [
      {
        "txid": "cb53e79477085c25a5040a947729d265d004f8852b1bb8ed440354b19581d553",
        "vout": 0,
        "scriptSig": {
          "asm": "",
          "hex": ""
        },
        "txinwitness": [
          "30440220503c68231f49695eed80b774c3cf7d73dd11bb870e6d0c70517b7ece3874a93502205e905c67d0ccabd1e291396ab1ee8a7d18bca1c4bd98deb1fdd99f87b95ba02101",
          "028d0a4ecd6821f3028e924b972bd608c993bd4ebe48d000245a8aa48f091680f7"
        ],
        "sequence": 4294967294
      }
    ],
    "vout": [
      {
        "value": 23.9999856,
        "n": 0,
        "scriptPubKey": {
          "asm": "0 f4466e2a2716152350d1e30e8c5ba160bcbf0400",
          "hex": "0014f4466e2a2716152350d1e30e8c5ba160bcbf0400",
          "reqSigs": 1,
          "type": "witness_v0_keyhash",
          "addresses": [
            "bcrt1q73rxu238zc2jx5x3uv8gckapvz7t7pqqtwn37k"
          ]
        }
      },
      {
        "value": 1,
        "n": 1,
        "scriptPubKey": {
          "asm": "OP_DUP OP_HASH160 d2eb140d8b7006e7b862827043f9cddd50da9811 OP_EQUALVERIFY OP_CHECKSIG",
          "hex": "76a914d2eb140d8b7006e7b862827043f9cddd50da981188ac",
          "reqSigs": 1,
          "type": "pubkeyhash",
          "addresses": [
            "mzkBosFeajZ5KxXp4rPNA8maqoKUFiR7nY"
          ]
        }
      }
    ],
    "hex": "0200000000010153d58195b1540344edb81b2b85f804d065d22977940a04a5255c087794e753cb0000000000feffffff0260120d8f00000000160014f4466e2a2716152350d1e30e8c5ba160bcbf040000e1f505000000001976a914d2eb140d8b7006e7b862827043f9cddd50da981188ac024730440220503c68231f49695eed80b774c3cf7d73dd11bb870e6d0c70517b7ece3874a93502205e905c67d0ccabd1e291396ab1ee8a7d18bca1c4bd98deb1fdd99f87b95ba0210121028d0a4ecd6821f3028e924b972bd608c993bd4ebe48d000245a8aa48f091680f72d010000"
  },
  "inputs": [
    {
      "txid": "cb53e79477085c25a5040a947729d265d004f8852b1bb8ed440354b19581d553",
      "hash": "70415cbc128fdd753eceebfdfbdc4d9eee452538bd468e2d62f6fc08aa3bf882",
      "version": 2,
      "size": 170,
      "vsize": 143,
      "weight": 572,
      "locktime": 0,
      "vin": [
        {
          "coinbase": "02b0000101",
          "txinwitness": [
            "0000000000000000000000000000000000000000000000000000000000000000"
          ],
          "sequence": 4294967295
        }
      ],
      "vout": [
        {
          "value": 25,
          "n": 0,
          "scriptPubKey": {
            "asm": "0 1c0cda994faf888ab47e7716642d813fe271aded",
            "hex": "00141c0cda994faf888ab47e7716642d813fe271aded",
            "reqSigs": 1,
            "type": "witness_v0_keyhash",
            "addresses": [
              "bcrt1qrsxd4x2047yg4dr7wutxgtvp8l38rt0ds8mgx7"
            ]
          }
        },
        {
          "value": 0,
          "n": 1,
          "scriptPubKey": {
            "asm": "OP_RETURN aa21a9ede2f61c3f71d1defd3fa999dfa36953755c690689799962b48bebd836974e8cf9",
            "hex": "6a24aa21a9ede2f61c3f71d1defd3fa999dfa36953755c690689799962b48bebd836974e8cf9",
            "type": "nulldata"
          }
        }
      ],
      "hex": "020000000001010000000000000000000000000000000000000000000000000000000000000000ffffffff0502b0000101ffffffff0200f90295000000001600141c0cda994faf888ab47e7716642d813fe271aded0000000000000000266a24aa21a9ede2f61c3f71d1defd3fa999dfa36953755c690689799962b48bebd836974e8cf90120000000000000000000000000000000000000000000000000000000000000000000000000",
      "blockhash": "621f83b997a0e90aedf34c6fb1612855db8c6444175c8250be827da184d9401f",
      "confirmations": 126,
      "time": 1640270127,
      "blocktime": 1640270127
    }
  ]
}