{
  "transaction": {
    "txid": "1e49466e484541c3cd45d8f2810c602380c068fe90f828f8499077e025042508",
    "hash": "cc5aeb0220e6b340bc5f70a32c99b8b12035a1bdd8965de7698318d4cf5fdcd8",
    "version": 2,
    "size": 234,
    "vsize": 153,
    "weight": 609,
    "locktime": 301,
    "vin": [
      {
        "txid": "fdda09fc5b013f7c069591dfaf43f833335619a64d31fa5da345013c206cb96b",
        "vout": 0,
        "scriptSig": {
          "asm": "",
          "hex": ""
        },
        "txinwitness": [
          "304402206cf8ee4a3457de7e395fa98ebcbc34e26ca30b5b9bdbd64211c363dbaeba8adb02203fa3f3b262d7d5233d1a0b2b69bd10ec1839b48efea60bf700bcb785c7ad39d601",
          "028d0a4ecd6821f3028e924b972bd608c993bd4ebe48d000245a8aa48f091680f7"
        ],
        "sequence": 4294967294
      }
    ],
    "vout": [
      {
        "value": 23.9999847,
        "n": 0,
        "scriptPubKey": {
          "asm": "0 1b1e77aa5448dbf339ba93289e497d4ef5d5bc2e",
          "hex": "00141b1e77aa5448dbf339ba93289e497d4ef5d5bc2e",
          "reqSigs": 1,
          "type": "witness_v0_keyhash",
          "addresses": [
            "bcrt1qrv0802j5frdlxwd6jv5fujtafm6at0pw4caee9"
          ]
        }
      },
      {
        "value": 1,
        "n": 1,
        "scriptPubKey": {
          "asm": "1 c4e6bd0d13869e5810c2833896e96a37ad005f48fe7f3bed6d6ddb68e3bacbf8",
          "hex": "5120c4e6bd0d13869e5810c2833896e96a37ad005f48fe7f3bed6d6ddb68e3bacbf8",
          "reqSigs": 1,
          "type": "witness_v1_taproot",
          "addresses": [
            "bcrt1pcnnt6rgns609syxzsvufd6t2x7ksqh6glelnhmtddhdk3ca6e0uqnpgrud"
          ]
        }
      }
    ],
    "hex": "020000000001016bb96c203c0145a35dfa314da619563333f843afdf9195067c3f015bfc09dafd0000000000feffffff0206120d8f000000001600141b1e77aa5448dbf339ba93289e497d4ef5d5bc2e00e1f50500000000225120c4e6bd0d13869e5810c2833896e96a37ad005f48fe7f3bed6d6ddb68e3bacbf80247304402206cf8ee4a3457de7e395fa98ebcbc34e26ca30b5b9bdbd64211c363dbaeba8adb02203fa3f3b262d7d5233d1a0b2b69bd10ec1839b48efea60bf700bcb785c7ad39d60121028d0a4ecd6821f3028e924b972bd608c993bd4ebe48d000245a8aa48f091680f72d010000"
  },
  "inputs": [
    {
      "txid": "fdda09fc5b013f7c069591dfaf43f833335619a64d31fa5da345013c206cb96b",
      "hash": "203a8bfb1c3eccace431ed4ae317108d3ffc194d417a48f5b09727f52af94a9a",
      "version": 2,
      "size": 170,
      "vsize": 143,
      "weight": 572,
      "locktime": 0,
      "vin": [
        {
          "coinbase": "0298000101",
          "txinwitness": [
            "0000000000000000000000000000000000000000000000000000000000000000"
          ],
          "sequence": 4294967295
        }
      ],
      "vout": [
        {
          "value": 25,
          "n": 0,
          "scriptPubKey": {
            "asm": "0 1c0cda994faf888ab47e7716642d813fe271aded",
            "hex": "00141c0cda994faf888ab47e7716642d813fe271aded",
            "reqSigs": 1,
            "type": "witness_v0_keyhash",
            "addresses": [
              "bcrt1qrsxd4x2047yg4dr7wutxgtvp8l38rt0ds8mgx7"
            ]
          }
        },
        {
          "value": 0,
          "n": 1,
          "scriptPubKey": {
            "asm": "OP_RETURN aa21a9ede2f61c3f71d1defd3fa999dfa36953755c690689799962b48bebd836974e8cf9",
            "hex": "6a24aa21a9ede2f61c3f71d1defd3fa999dfa36953755c690689799962b48bebd836974e8cf9",
            "type": "nulldata"
          }
        }
      ],
      "hex": "020000000001010000000000000000000000000000000000000000000000000000000000000000ffffffff050298000101ffffffff0200f90295000000001600141c0cda994faf888ab47e7716642d813fe271aded0000000000000000266a24aa21a9ede2f61c3f71d1defd3fa999dfa36953755c690689799962b48bebd836974e8cf90120000000000000000000000000000000000000000000000000000000000000000000000000",
      "blockhash": "450e1b2abf6aba09694facabd9b8e749601edb954b2b1341d0bc8208f5048285",
      "confirmations": 150,
      "time": 1640270123,
      "blocktime": 1640270123
    }
  ]
}