{
  "transaction": {
    "txid": "a31ccf46aa5c5fdd5c27c26a9f10d00b93ec9f762060c45ab63c31f2cd8b08e7",
    "hash": "76daedd7e6fd8fb9251cba6f9b2d22a3d025ee1aee7c39e23af7f68d4c4a6e10",
    "version": 2,
    "size": 222,
    "vsize": 141,
    "weight": 561,
    "locktime": 301,
    "vin": [
      {
        "txid": "b8f98ea83269a01649baf0f8bd87e269ae1efa9fa945fb6e5afd902c18c789e9",
        "vout": 0,
        "scriptSig": {
          "asm": "",
          "hex": ""
        },
        "txinwitness": [
          "304402205d79d1c3103d201c448f5e513d60fe133c47c72c6114826781744cfa92bb87e102200373061da22bb30cea7b9f34516389a5bb454aa5935856a38cd45c8f2927b61c01",
          "028d0a4ecd6821f3028e924b972bd608c993bd4ebe48d000245a8aa48f091680f7"
        ],
        "sequence": 4294967294
      }
    ],
    "vout": [
      {
        "value": 1,
        "n": 0,
        "scriptPubKey": {
          "asm": "0 d2eb140d8b7006e7b862827043f9cddd50da9811",
          "hex": "0014d2eb140d8b7006e7b862827043f9cddd50da9811",
          "reqSigs": 1,
          "type": "witness_v0_keyhash",
          "addresses": [
            "bcrt1q6t43grvtwqrw0wrzsfcy87wdm4gd4xq3580nk2"
          ]
        }
      },
      {
        "value": 23.9999859,
        "n": 1,
        "scriptPubKey": {
          "asm": "0 0b763313793a39497feb443592c08ba33e81ebe9",
          "hex": "00140b763313793a39497feb443592c08ba33e81ebe9",
          "reqSigs": 1,
          "type": "witness_v0_keyhash",
          "addresses": [
            "bcrt1qpdmrxyme8gu5jlltgs6e9syt5vlgr6lf30ffzc"
          ]
        }
      }
    ],
    "hex": "02000000000101e989c7182c90fd5a6efb45a99ffa1eae69e287bdf8f0ba4916a06932a88ef9b80000000000feffffff0200e1f50500000000160014d2eb140d8b7006e7b862827043f9cddd50da98117e120d8f000000001600140b763313793a39497feb443592c08ba33e81ebe90247304402205d79d1c3103d201c448f5e513d60fe133c47c72c6114826781744cfa92bb87e102200373061da22bb30cea7b9f34516389a5bb454aa5935856a38cd45c8f2927b61c0121028d0a4ecd6821f3028e924b972bd608c993bd4ebe48d000245a8aa48f091680f72d010000"
  },
  "inputs": [
    {
      "txid": "b8f98ea83269a01649baf0f8bd87e269ae1efa9fa945fb6e5afd902c18c789e9",
      "hash": "9cfe055d7275ab39da85d8985b046f7bfaf15c9ffbb5410c5175fa3e5ca33315",
      "version": 2,
      "size": 170,
      "vsize": 143,
      "weight": 572,
      "locktime": 0,
      "vin": [
        {
          "coinbase": "02ba000101",
          "txinwitness": [
            "0000000000000000000000000000000000000000000000000000000000000000"
          ],
          "sequence": 4294967295
        }
      ],
      "vout": [
        {
          "value": 25,
          "n": 0,
          "scriptPubKey": {
            "asm": "0 1c0cda994faf888ab47e7716642d813fe271aded",
            "hex": "00141c0cda994faf888ab47e7716642d813fe271aded",
            "reqSigs": 1,
            "type": "witness_v0_keyhash",
            "addresses": [
              "bcrt1qrsxd4x2047yg4dr7wutxgtvp8l38rt0ds8mgx7"
            ]
          }
        },
        {
          "value": 0,
          "n": 1,
          "scriptPubKey": {
            "asm": "OP_RETURN aa21a9ede2f61c3f71d1defd3fa999dfa36953755c690689799962b48bebd836974e8cf9",
            "hex": "6a24aa21a9ede2f61c3f71d1defd3fa999dfa36953755c690689799962b48bebd836974e8cf9",
            "type": "nulldata"
          }
        }
      ],
      "hex": "020000000001010000000000000000000000000000000000000000000000000000000000000000ffffffff0502ba000101ffffffff0200f90295000000001600141c0cda994faf888ab47e7716642d813fe271aded0000000000000000266a24aa21a9ede2f61c3f71d1defd3fa999dfa36953755c690689799962b48bebd836974e8cf90120000000000000000000000000000000000000000000000000000000000000000000000000",
      "blockhash": "2e7056ef0a4279e57962f58349540d71eb571e010f634eb0e0f29114f0dd9eb6",
      "confirmations": 116,
      "time": 1640270128,
      "blocktime": 1640270128
    }
  ]
}