{
  "transaction": {
    "txid": "68673fd8fa7838d3268fb18ccbd8d066266bd840065d30dbe2088d13ef526891",
    "hash": "4732b39f055c59310288ba85e58d8b3d1ad1fdf3afdb45281a46ff52e17899b8",
    "version": 2,
    "size": 234,
    "vsize": 153,
    "weight": 609,
    "locktime": 917,
    "vin": [
      {
        "txid": "d4f50c410d3ff3c681ebad2b2cd394aca797ae961c4d4798c0ef350c8deba76e",
        "vout": 0,
        "scriptSig": {
          "asm": "",
          "hex": ""
        },
        "txinwitness": [
          "3044022054033c5bef3fb2df8990ff1cc2c515b8c96c737309912e26137067b94066e6c802207668d48ed1ecc14f6ec22c3d6feff30ec84fcf4245f61ee93d3965000193694c01",
          "035f6b953c63e87aed93ae2bcbb98a3ef4edb879437774f08b6990bcf6d466a51f"
        ],
        "sequence": 4294967294
      }
    ],
    "vout": [
      {
        "value": 1,
        "n": 0,
        "scriptPubKey": {
          "asm": "1 c4e6bd0d13869e5810c2833896e96a37ad005f48fe7f3bed6d6ddb68e3bacbf8",
          "hex": "5120c4e6bd0d13869e5810c2833896e96a37ad005f48fe7f3bed6d6ddb68e3bacbf8",
          "address": "bcrt1pcnnt6rgns609syxzsvufd6t2x7ksqh6glelnhmtddhdk3ca6e0uqnpgrud",
          "type": "witness_v1_taproot"
        }
      },
      {
        "value": 0.5624847,
        "n": 1,
        "scriptPubKey": {
          "asm": "0 2deaeff34370a17e755320f4153c635b1c737d08",
          "hex": "00142deaeff34370a17e755320f4153c635b1c737d08",
          "address": "bcrt1q9h4wlu6rwzshua2nyr6p20rrtvw8xlgge2qlck",
          "type": "witness_v0_keyhash"
        }
      }
    ],
    "hex": "020000000001016ea7eb8d0c35efc098474d1c96ae97a7ac94d32c2badeb81c6f33f0d410cf5d40000000000feffffff0200e1f50500000000225120c4e6bd0d13869e5810c2833896e96a37ad005f48fe7f3bed6d6ddb68e3bacbf896485a03000000001600142deaeff34370a17e755320f4153c635b1c737d0802473044022054033c5bef3fb2df8990ff1cc2c515b8c96c737309912e26137067b94066e6c802207668d48ed1ecc14f6ec22c3d6feff30ec84fcf4245f61ee93d3965000193694c0121035f6b953c63e87aed93ae2bcbb98a3ef4edb879437774f08b6990bcf6d466a51f95030000"
  },
  "inputs": [
    {
      "txid": "d4f50c410d3ff3c681ebad2b2cd394aca797ae961c4d4798c0ef350c8deba76e",
      "hash": "9504d78fab026d118b05626389ab81a5e108ce290684173237c7968d449d2dca",
      "version": 2,
      "size": 170,
      "vsize": 143,
      "weight": 572,
      "locktime": 0,
      "vin": [
        {
          "coinbase": "0228030101",
          "txinwitness": [
            "0000000000000000000000000000000000000000000000000000000000000000"
          ],
          "sequence": 4294967295
        }
      ],
      "vout": [
        {
          "value": 1.5625,
          "n": 0,
          "scriptPubKey": {
            "asm": "0 8b08906e2a301d3db1fc0d7d328def0e2ea06c47",
            "hex": "00148b08906e2a301d3db1fc0d7d328def0e2ea06c47",
            "address": "bcrt1q3vyfqm32xqwnmv0up47n9r00pch2qmz8se0ngw",
            "type": "witness_v0_keyhash"
          }
        },
        {
          "value": 0,
          "n": 1,
          "scriptPubKey": {
            "asm": "OP_RETURN aa21a9ede2f61c3f71d1defd3fa999dfa36953755c690689799962b48bebd836974e8cf9",
            "hex": "6a24aa21a9ede2f61c3f71d1defd3fa999dfa36953755c690689799962b48bebd836974e8cf9",
            "type": "nulldata"
          }
        }
      ],
      "hex": "020000000001010000000000000000000000000000000000000000000000000000000000000000ffffffff050228030101ffffffff02902f5009000000001600148b08906e2a301d3db1fc0d7d328def0e2ea06c470000000000000000266a24aa21a9ede2f61c3f71d1defd3fa999dfa36953755c690689799962b48bebd836974e8cf90120000000000000000000000000000000000000000000000000000000000000000000000000",
      "blockhash": "08fc063be0a964c26f427a243910f37d4e9044f758555f635b6becdb4a782a2e",
      "confirmations": 110,
      "time": 1645833707,
      "blocktime": 1645833707
    }
  ]
}