{
  "transaction": {
    "txid": "58603ea06d55bd9dd6fec9b0d1ea5662d622f923e0f10045507723a893388e7f",
    "hash": "58603ea06d55bd9dd6fec9b0d1ea5662d622f923e0f10045507723a893388e7f",
    "version": 1,
    "size": 631,
    "vsize": 631,
    "weight": 2524,
    "locktime": 0,
    "vin": [
      {
        "txid": "aa7f0eedadef9ce02b0d8df579d5204d4329c01acb30e25e6889859186b8aee2",
        "vout": 1,
        "scriptSig": {
          "asm": "0 3044022048a059c22437630fdd5bc3c46bd1e30438a3623a59050d5e5f2fb1a36686fd9e02202ed8206b2f2472efd3ea145bc3c52703a7874fc747bdccc97cd5b862c8d62b74[ALL] 30440220138087371ab51032457bdca8ef134eb566a61b16631cf6bc296c8b243f938bf70220720ab74bfa5e39f2c764d1879dd6fea9b1f287611b1ea714fe5b0928bd13d469[ALL] 5221028fedaf75b5b08cddf3bf4631c658b68ee6766a8e999467a641d7cb7aaaecec972103316bc27d95b96418349afc6298c259bb999c6e8f39a7217787ad53602be7c1472102e21c29b4a7eeace9c7a8cefb568ca00c86ff9bf5e79e07e5442c29d4a0950d0453ae",
          "hex": "00473044022048a059c22437630fdd5bc3c46bd1e30438a3623a59050d5e5f2fb1a36686fd9e02202ed8206b2f2472efd3ea145bc3c52703a7874fc747bdccc97cd5b862c8d62b74014730440220138087371ab51032457bdca8ef134eb566a61b16631cf6bc296c8b243f938bf70220720ab74bfa5e39f2c764d1879dd6fea9b1f287611b1ea714fe5b0928bd13d469014c695221028fedaf75b5b08cddf3bf4631c658b68ee6766a8e999467a641d7cb7aaaecec972103316bc27d95b96418349afc6298c259bb999c6e8f39a7217787ad53602be7c1472102e21c29b4a7eeace9c7a8cefb568ca00c86ff9bf5e79e07e5442c29d4a0950d0453ae"
        },
        "sequence": 4294967295
      },
      {
        "txid": "5e037c992642d1e55270fb90a4aab1a5b2fafac44779bfe0f573c5fd3ad9fb44",
        "vout": 0,
        "scriptSig": {
          "asm": "0 3045022100afde55c0cfa9dc3a20fb8706c5a7f86c754efcbbaf866e09e84a18668c53148402203a7e0bb62cd5a951def97181f6a26d78b70c7ac22af79029f22b5b130785939f[ALL] 3044022033ae8e7c8ef2109b804bc338e884109e5ed9e534307761aa5695a0eea3ce0615022045b4af31359339b6c696ca0f956e844baa8dd642b0e74ad2475e8fe5b4c055e8[ALL] 5221028fedaf75b5b08cddf3bf4631c658b68ee6766a8e999467a641d7cb7aaaecec972103316bc27d95b96418349afc6298c259bb999c6e8f39a7217787ad53602be7c1472102e21c29b4a7eeace9c7a8cefb568ca00c86ff9bf5e79e07e5442c29d4a0950d0453ae",
          "hex": "00483045022100afde55c0cfa9dc3a20fb8706c5a7f86c754efcbbaf866e09e84a18668c53148402203a7e0bb62cd5a951def97181f6a26d78b70c7ac22af79029f22b5b130785939f01473044022033ae8e7c8ef2109b804bc338e884109e5ed9e534307761aa5695a0eea3ce0615022045b4af31359339b6c696ca0f956e844baa8dd642b0e74ad2475e8fe5b4c055e8014c695221028fedaf75b5b08cddf3bf4631c658b68ee6766a8e999467a641d7cb7aaaecec972103316bc27d95b96418349afc6298c259bb999c6e8f39a7217787ad53602be7c1472102e21c29b4a7eeace9c7a8cefb568ca00c86ff9bf5e79e07e5442c29d4a0950d0453ae"
        },
        "sequence": 4294967295
      }
    ],
    "vout": [
      {
        "value": 1.99999,
        "n": 0,
        "scriptPubKey": {
          "asm": "OP_HASH160 fe5cc5d87e3348a5f3eaa316898a0f05d520876e OP_EQUAL",
          "hex": "a914fe5cc5d87e3348a5f3eaa316898a0f05d520876e87",
          "reqSigs": 1,
          "type": "scripthash",
          "addresses": [
            "2NGSAkyhiWMZPcrfiwmcRWf9HQgpsiRGKv4"
          ]
        }
      }
    ],
    "hex": "0100000002e2aeb886918589685ee230cb1ac029434d20d579f58d0d2be09cefaded0e7faa01000000fc00473044022048a059c22437630fdd5bc3c46bd1e30438a3623a59050d5e5f2fb1a36686fd9e02202ed8206b2f2472efd3ea145bc3c52703a7874fc747bdccc97cd5b862c8d62b74014730440220138087371ab51032457bdca8ef134eb566a61b16631cf6bc296c8b243f938bf70220720ab74bfa5e39f2c764d1879dd6fea9b1f287611b1ea714fe5b0928bd13d469014c695221028fedaf75b5b08cddf3bf4631c658b68ee6766a8e999467a641d7cb7aaaecec972103316bc27d95b96418349afc6298c259bb999c6e8f39a7217787ad53602be7c1472102e21c29b4a7eeace9c7a8cefb568ca00c86ff9bf5e79e07e5442c29d4a0950d0453aeffffffff44fbd93afdc573f5e0bf7947c4fafab2a5b1aaa490fb7052e5d14226997c035e00000000fdfd0000483045022100afde55c0cfa9dc3a20fb8706c5a7f86c754efcbbaf866e09e84a18668c53148402203a7e0bb62cd5a951def97181f6a26d78b70c7ac22af79029f22b5b130785939f01473044022033ae8e7c8ef2109b804bc338e884109e5ed9e534307761aa5695a0eea3ce0615022045b4af31359339b6c696ca0f956e844baa8dd642b0e74ad2475e8fe5b4c055e8014c695221028fedaf75b5b08cddf3bf4631c658b68ee6766a8e999467a641d7cb7aaaecec972103316bc27d95b96418349afc6298c259bb999c6e8f39a7217787ad53602be7c1472102e21c29b4a7eeace9c7a8cefb568ca00c86ff9bf5e79e07e5442c29d4a0950d0453aeffffffff0118beeb0b0000000017a914fe5cc5d87e3348a5f3eaa316898a0f05d520876e8700000000"
  },
  "inputs": [
    {
      "txid": "aa7f0eedadef9ce02b0d8df579d5204d4329c01acb30e25e6889859186b8aee2",
      "hash": "a8a37caef86d211c295b9c8c085b3a321b2ad45dcf4fb83c4d3fa12a5482f8d9",
      "version": 2,
      "size": 223,
      "vsize": 142,
      "weight": 565,
      "locktime": 301,
      "vin": [
        {
          "txid": "02dc3820cb53ce789b4441141d7d4220a398c645a407bd2bdcec3882dfadd2ab",
          "vout": 0,
          "scriptSig": {
            "asm": "",
            "hex": ""
          },
          "txinwitness": [
            "3044022002d213c2ca9801141f0d56262953a67ca95afd519e23eba0c768ac1d57f64ca502201f887e90d3161e3a5a25deb9c0d83c478d94d926ded7aa82b5cb52e4111ccd9201",
            "028d0a4ecd6821f3028e924b972bd608c993bd4ebe48d000245a8aa48f091680f7"
          ],
          "sequence": 4294967294
        }
      ],
      "vout": [
        {
          "value": 23.9999858,
          "n": 0,
          "scriptPubKey": {
            "asm": "0 4c578cdff76ab6ca35f7cfe1479204d1aa5c0732",
            "hex": "00144c578cdff76ab6ca35f7cfe1479204d1aa5c0732",
            "reqSigs": 1,
            "type": "witness_v0_keyhash",
            "addresses": [
              "bcrt1qf3tcehlhd2mv5d0hels50ysy6x49cpejxneu0w"
            ]
          }
        },
        {
          "value": 1,
          "n": 1,
          "scriptPubKey": {
            "asm": "OP_HASH160 fe5cc5d87e3348a5f3eaa316898a0f05d520876e OP_EQUAL",
            "hex": "a914fe5cc5d87e3348a5f3eaa316898a0f05d520876e87",
            "reqSigs": 1,
            "type": "scripthash",
            "addresses": [
              "2NGSAkyhiWMZPcrfiwmcRWf9HQgpsiRGKv4"
            ]
          }
        }
      ],
      "hex": "02000000000101abd2addf8238ecdc2bbd07a445c698a320427d1d1441449b78ce53cb2038dc020000000000feffffff0274120d8f000000001600144c578cdff76ab6ca35f7cfe1479204d1aa5c073200e1f5050000000017a914fe5cc5d87e3348a5f3eaa316898a0f05d520876e8702473044022002d213c2ca9801141f0d56262953a67ca95afd519e23eba0c768ac1d57f64ca502201f887e90d3161e3a5a25deb9c0d83c478d94d926ded7aa82b5cb52e4111ccd920121028d0a4ecd6821f3028e924b972bd608c993bd4ebe48d000245a8aa48f091680f72d010000"
    },
    {
      "txid": "5e037c992642d1e55270fb90a4aab1a5b2fafac44779bfe0f573c5fd3ad9fb44",
      "hash": "09f708854e078485d97cc5d868863511627df9128a67ef3d3bd29347517d2b17",
      "version": 2,
      "size": 223,
      "vsize": 142,
      "weight": 565,
      "locktime": 301,
      "vin": [
        {
          "txid": "1ecb7875dabba7445238d943746283eb8846c41e93e8f4da4274bca3947a1d39",
          "vout": 0,
          "scriptSig": {
            "asm": "",
            "hex": ""
          },
          "txinwitness": [
            "304402205ca06fb6fbd1a426eaf97f7835b9376b950f18101767d9719805fc3462c6ff61022064de297c6f563dbf19ca710a8db52dc02ed6c7e2160ba86e24d845d80d40ea1001",
            "028d0a4ecd6821f3028e924b972bd608c993bd4ebe48d000245a8aa48f091680f7"
          ],
          "sequence": 4294967294
        }
      ],
      "vout": [
        {
          "value": 1,
          "n": 0,
          "scriptPubKey": {
            "asm": "OP_HASH160 fe5cc5d87e3348a5f3eaa316898a0f05d520876e OP_EQUAL",
            "hex": "a914fe5cc5d87e3348a5f3eaa316898a0f05d520876e87",
            "reqSigs": 1,
            "type": "scripthash",
            "addresses": [
              "2NGSAkyhiWMZPcrfiwmcRWf9HQgpsiRGKv4"
            ]
          }
        },
        {
          "value": 23.9999858,
          "n": 1,
          "scriptPubKey": {
            "asm": "0 28e3ede206d5f63110de0f2464f7fe35f962f221",
            "hex": "001428e3ede206d5f63110de0f2464f7fe35f962f221",
            "reqSigs": 1,
            "type": "witness_v0_keyhash",
            "addresses": [
              "bcrt1q9r37mcsx6hmrzyx7pujxfal7xhuk9u3p7mld25"
            ]
          }
        }
      ],
      "hex": "02000000000101391d7a94a3bc7442daf4e8931ec44688eb83627443d9385244a7bbda7578cb1e0000000000feffffff0200e1f5050000000017a914fe5cc5d87e3348a5f3eaa316898a0f05d520876e8774120d8f0000000016001428e3ede206d5f63110de0f2464f7fe35f962f2210247304402205ca06fb6fbd1a426eaf97f7835b9376b950f18101767d9719805fc3462c6ff61022064de297c6f563dbf19ca710a8db52dc02ed6c7e2160ba86e24d845d80d40ea100121028d0a4ecd6821f3028e924b972bd608c993bd4ebe48d000245a8aa48f091680f72d010000"
    }
  ]
}