{
  "transaction": {
    "txid": "2fedaa3661f6251d1a4ca23e5d4bb03fab5b75e8e471281f554755c439cd9924",
    "hash": "b14c406ee09c9f202e518d7fac4f3b21cf5ca1876cc6f05a88b1e9842ee7cd81",
    "version": 1,
    "size": 642,
    "vsize": 262,
    "weight": 1047,
    "locktime": 0,
    "vin": [
      {
        "txid": "ba5c40fb1f9c00aee45cfc14f9049e6bf4773bae16c6f36e555dfcfa62fb3856",
        "vout": 1,
        "scriptSig": {
          "asm": "",
          "hex": ""
        },
        "txinwitness": [
          "",
          "3045022100e665acb4a9237b32d00052b4419ed699db1cd01522cec80d4714d66452efb982022029a3272a95f61e6a7d85b4605f735ffc4062c155d78c0b4bb3e35191997a676201",
          "3044022011f825047fcf6a13c7da282d27be5d5d4d82759b8c7f987f1dcaef88b4b104b102205c333b6ac321bf7150823833452e5d3073c77dbab053430a4de5c3398e9cb37001",
          "5221028fedaf75b5b08cddf3bf4631c658b68ee6766a8e999467a641d7cb7aaaecec972103316bc27d95b96418349afc6298c259bb999c6e8f39a7217787ad53602be7c1472102e21c29b4a7eeace9c7a8cefb568ca00c86ff9bf5e79e07e5442c29d4a0950d0453ae"
        ],
        "sequence": 4294967295
      },
      {
        "txid": "85ed52eddf9ee786cee123208a6135a8c781741df66d2ab025e22a32ae97ace3",
        "vout": 0,
        "scriptSig": {
          "asm": "",
          "hex": ""
        },
        "txinwitness": [
          "",
          "30440220021aff10c307d538600552a18b7a4187bffd43390d7944164c8054d15645673f022026a05412302b0c2c98b8805effc4e99e716e4f6f485dbce1a8c92a8440c498dc01",
          "304402203436df8e3ce0c6e16d12a5f50f8c89a206e11cfd515c9e39f6f361f8f22a8b7a02202c180bd360669abab214687aa520cb6a0ca4973cc65e58f40f0b7a982489e2a101",
          "5221028fedaf75b5b08cddf3bf4631c658b68ee6766a8e999467a641d7cb7aaaecec972103316bc27d95b96418349afc6298c259bb999c6e8f39a7217787ad53602be7c1472102e21c29b4a7eeace9c7a8cefb568ca00c86ff9bf5e79e07e5442c29d4a0950d0453ae"
        ],
        "sequence": 4294967295
      }
    ],
    "vout": [
      {
        "value": 1.99999,
        "n": 0,
        "scriptPubKey": {
          "asm": "0 1553f31a3e25e770b7bc857b82909e83734dbfe4bcdb5a5e6fc419b6920c398a",
          "hex": "00201553f31a3e25e770b7bc857b82909e83734dbfe4bcdb5a5e6fc419b6920c398a",
          "reqSigs": 1,
          "type": "witness_v0_scripthash",
          "addresses": [
            "bcrt1qz4flxx37yhnhpdaus4ac9yy7sde5m0lyhnd45hn0csvmdysv8x9qr7gzry"
          ]
        }
      }
    ],
    "hex": "010000000001025638fb62fafc5d556ef3c616ae3b77f46b9e04f914fc5ce4ae009c1ffb405cba0100000000ffffffffe3ac97ae322ae225b02a6df61d7481c7a835618a2023e1ce86e79edfed52ed850000000000ffffffff0118beeb0b000000002200201553f31a3e25e770b7bc857b82909e83734dbfe4bcdb5a5e6fc419b6920c398a0400483045022100e665acb4a9237b32d00052b4419ed699db1cd01522cec80d4714d66452efb982022029a3272a95f61e6a7d85b4605f735ffc4062c155d78c0b4bb3e35191997a676201473044022011f825047fcf6a13c7da282d27be5d5d4d82759b8c7f987f1dcaef88b4b104b102205c333b6ac321bf7150823833452e5d3073c77dbab053430a4de5c3398e9cb37001695221028fedaf75b5b08cddf3bf4631c658b68ee6766a8e999467a641d7cb7aaaecec972103316bc27d95b96418349afc6298c259bb999c6e8f39a7217787ad53602be7c1472102e21c29b4a7eeace9c7a8cefb568ca00c86ff9bf5e79e07e5442c29d4a0950d0453ae04004730440220021aff10c307d538600552a18b7a4187bffd43390d7944164c8054d15645673f022026a05412302b0c2c98b8805effc4e99e716e4f6f485dbce1a8c92a8440c498dc0147304402203436df8e3ce0c6e16d12a5f50f8c89a206e11cfd515c9e39f6f361f8f22a8b7a02202c180bd360669abab214687aa520cb6a0ca4973cc65e58f40f0b7a982489e2a101695221028fedaf75b5b08cddf3bf4631c658b68ee6766a8e999467a641d7cb7aaaecec972103316bc27d95b96418349afc6298c259bb999c6e8f39a7217787ad53602be7c1472102e21c29b4a7eeace9c7a8cefb568ca00c86ff9bf5e79e07e5442c29d4a0950d0453ae00000000"
  },
  "inputs": [
    {
      "txid": "ba5c40fb1f9c00aee45cfc14f9049e6bf4773bae16c6f36e555dfcfa62fb3856",
      "hash": "1399fcc387c5c3697bff79f5102f4be0edab1cd851d4f8066e07c75beaec675c",
      "version": 2,
      "size": 234,
      "vsize": 153,
      "weight": 609,
      "locktime": 301,
      "vin": [
        {
          "txid": "3e34ac165aca43d2ab17a051d99e717e23a2847adb3ece2db9c2beed208f755f",
          "vout": 0,
          "scriptSig": {
            "asm": "",
            "hex": ""
          },
          "txinwitness": [
            "3044022037a3f3846571c3f674c5ad936834f5befbeb4c04c3fbac3d20bad84d1db47d4d02203d4f96fb4a08a2154a1a14c957bf98ad641d972d22418dcf280008ffa07462fb01",
            "028d0a4ecd6821f3028e924b972bd608c993bd4ebe48d000245a8aa48f091680f7"
          ],
          "sequence": 4294967294
        }
      ],
      "vout": [
        {
          "value": 23.9999847,
          "n": 0,
          "scriptPubKey": {
            "asm": "0 ebe3f2c29cb76580e45627864c5e2cf79b738279",
            "hex": "0014ebe3f2c29cb76580e45627864c5e2cf79b738279",
            "reqSigs": 1,
            "type": "witness_v0_keyhash",
            "addresses": [
              "bcrt1qa03l9s5ukajcpezky7rych3v77dh8qneurmtcg"
            ]
          }
        },
        {
          "value": 1,
          "n": 1,
          "scriptPubKey": {
            "asm": "0 1553f31a3e25e770b7bc857b82909e83734dbfe4bcdb5a5e6fc419b6920c398a",
            "hex": "00201553f31a3e25e770b7bc857b82909e83734dbfe4bcdb5a5e6fc419b6920c398a",
            "reqSigs": 1,
            "type": "witness_v0_scripthash",
            "addresses": [
              "bcrt1qz4flxx37yhnhpdaus4ac9yy7sde5m0lyhnd45hn0csvmdysv8x9qr7gzry"
            ]
          }
        }
      ],
      "hex": "020000000001015f758f20edbec2b92dce3edb7a84a2237e719ed951a017abd243ca5a16ac343e0000000000feffffff0206120d8f00000000160014ebe3f2c29cb76580e45627864c5e2cf79b73827900e1f505000000002200201553f31a3e25e770b7bc857b82909e83734dbfe4bcdb5a5e6fc419b6920c398a02473044022037a3f3846571c3f674c5ad936834f5befbeb4c04c3fbac3d20bad84d1db47d4d02203d4f96fb4a08a2154a1a14c957bf98ad641d972d22418dcf280008ffa07462fb0121028d0a4ecd6821f3028e924b972bd608c993bd4ebe48d000245a8aa48f091680f72d010000"
    },
    {
      "txid": "85ed52eddf9ee786cee123208a6135a8c781741df66d2ab025e22a32ae97ace3",
      "hash": "aad29a291456e4c2d20e4a41a4b8a8c7ffc814a500b3e9efb00189c381bccaff",
      "version": 2,
      "size": 233,
      "vsize": 152,
      "weight": 608,
      "locktime": 301,
      "vin": [
        {
          "txid": "18b0a68e44a250346731fb6185789107d11b9ed21e4869005f36009d836fbc47",
          "vout": 0,
          "scriptSig": {
            "asm": "",
            "hex": ""
          },
          "txinwitness": [
            "304302202089f2b803ee0214d3e691cae87692259d582df575d8d242d327ccfa0f54e1bb021f109bd1aa09af18e58e58e98919b2ebeedf4a8bb1284a45ea0717e11a599de001",
            "028d0a4ecd6821f3028e924b972bd608c993bd4ebe48d000245a8aa48f091680f7"
          ],
          "sequence": 4294967294
        }
      ],
      "vout": [
        {
          "value": 1,
          "n": 0,
          "scriptPubKey": {
            "asm": "0 1553f31a3e25e770b7bc857b82909e83734dbfe4bcdb5a5e6fc419b6920c398a",
            "hex": "00201553f31a3e25e770b7bc857b82909e83734dbfe4bcdb5a5e6fc419b6920c398a",
            "reqSigs": 1,
            "type": "witness_v0_scripthash",
            "addresses": [
              "bcrt1qz4flxx37yhnhpdaus4ac9yy7sde5m0lyhnd45hn0csvmdysv8x9qr7gzry"
            ]
          }
        },
        {
          "value": 23.9999847,
          "n": 1,
          "scriptPubKey": {
            "asm": "0 3a6bfe10bd5a4e4800a40961063d8f2239fdb586",
            "hex": "00143a6bfe10bd5a4e4800a40961063d8f2239fdb586",
            "reqSigs": 1,
            "type": "witness_v0_keyhash",
            "addresses": [
              "bcrt1q8f4luy9atf8ysq9yp9ssv0v0ygulmdvxx6e9fx"
            ]
          }
        }
      ],
      "hex": "0200000000010147bc6f839d00365f0069481ed29e1bd10791788561fb31673450a2448ea6b0180000000000feffffff0200e1f505000000002200201553f31a3e25e770b7bc857b82909e83734dbfe4bcdb5a5e6fc419b6920c398a06120d8f000000001600143a6bfe10bd5a4e4800a40961063d8f2239fdb5860246304302202089f2b803ee0214d3e691cae87692259d582df575d8d242d327ccfa0f54e1bb021f109bd1aa09af18e58e58e98919b2ebeedf4a8bb1284a45ea0717e11a599de00121028d0a4ecd6821f3028e924b972bd608c993bd4ebe48d000245a8aa48f091680f72d010000"
    }
  ]
}