{
  "transaction": {
    "txid": "a7b64a92c6fb7e0c6ea0b95c0db8a3253347d22f76562df4dc187ed5d442767b",
    "hash": "0de8b6f5bbfe71f5cf9b44c281e5e460ea5059885686330643a9e6ae32337cc7",
    "version": 1,
    "size": 703,
    "vsize": 322,
    "weight": 1285,
    "locktime": 0,
    "vin": [
      {
        "txid": "61268e441d4078474679c063d1c268b5098163410553329dac0c8069f51bba97",
        "vout": 0,
        "scriptSig": {
          "asm": "00201553f31a3e25e770b7bc857b82909e83734dbfe4bcdb5a5e6fc419b6920c398a",
          "hex": "2200201553f31a3e25e770b7bc857b82909e83734dbfe4bcdb5a5e6fc419b6920c398a"
        },
        "txinwitness": [
          "",
          "3045022100cb6125485a4e9e2d98dafde8074a29d43ef28ffdd34f0d7f8048423f1fd54c01022065798d67d21f18383db7c4e9532e497b1b54d7e9c3676a079d9502cd0663963c01",
          "3045022100c3a36135223671fac881d4a48f16b2698500887ac91530b4145000ba4950967902200737c216d2cc705b3d6d88d8443870be168c9bfad2525795ac14ec4ea3598ca801",
          "5221028fedaf75b5b08cddf3bf4631c658b68ee6766a8e999467a641d7cb7aaaecec972103316bc27d95b96418349afc6298c259bb999c6e8f39a7217787ad53602be7c1472102e21c29b4a7eeace9c7a8cefb568ca00c86ff9bf5e79e07e5442c29d4a0950d0453ae"
        ],
        "sequence": 4294967295
      },
      {
        "txid": "1761eea952ede40e9f363134f8ee4fb72658f02c4fbb13c882bb2f020a9e512e",
        "vout": 1,
        "scriptSig": {
          "asm": "00201553f31a3e25e770b7bc857b82909e83734dbfe4bcdb5a5e6fc419b6920c398a",
          "hex": "2200201553f31a3e25e770b7bc857b82909e83734dbfe4bcdb5a5e6fc419b6920c398a"
        },
        "txinwitness": [
          "",
          "3045022100f0279fa27d0f85c4c3ee7ea3104963bd88ec02f62f23ae0b73d122293e58c7b8022024b8c9dca8d9d77bda69da70282a45422c2baf0d4a05ecbe57a48b65f92d950d01",
          "304402203bb213db0b4842ea5f8c1b9290c8b42dbe65f72bee29e4ad7e8d57e5f16390010220347df34c34a4df5fabe8571c7168c8111df7275a56672126f434bdc44fea6c5901",
          "5221028fedaf75b5b08cddf3bf4631c658b68ee6766a8e999467a641d7cb7aaaecec972103316bc27d95b96418349afc6298c259bb999c6e8f39a7217787ad53602be7c1472102e21c29b4a7eeace9c7a8cefb568ca00c86ff9bf5e79e07e5442c29d4a0950d0453ae"
        ],
        "sequence": 4294967295
      }
    ],
    "vout": [
      {
        "value": 1.99999,
        "n": 0,
        "scriptPubKey": {
          "asm": "OP_HASH160 2280193aca8462021ec369d4e2ff1c95741fba7f OP_EQUAL",
          "hex": "a9142280193aca8462021ec369d4e2ff1c95741fba7f87",
          "reqSigs": 1,
          "type": "scripthash",
          "addresses": [
            "2MvPeRFSGYJq9BXoV2fxrMpJjsZMGx2m6Zk"
          ]
        }
      }
    ],
    "hex": "0100000000010297ba1bf569800cac9d32530541638109b568c2d163c079464778401d448e266100000000232200201553f31a3e25e770b7bc857b82909e83734dbfe4bcdb5a5e6fc419b6920c398affffffff2e519e0a022fbb82c813bb4f2cf05826b74feef83431369f0ee4ed52a9ee611701000000232200201553f31a3e25e770b7bc857b82909e83734dbfe4bcdb5a5e6fc419b6920c398affffffff0118beeb0b0000000017a9142280193aca8462021ec369d4e2ff1c95741fba7f870400483045022100cb6125485a4e9e2d98dafde8074a29d43ef28ffdd34f0d7f8048423f1fd54c01022065798d67d21f18383db7c4e9532e497b1b54d7e9c3676a079d9502cd0663963c01483045022100c3a36135223671fac881d4a48f16b2698500887ac91530b4145000ba4950967902200737c216d2cc705b3d6d88d8443870be168c9bfad2525795ac14ec4ea3598ca801695221028fedaf75b5b08cddf3bf4631c658b68ee6766a8e999467a641d7cb7aaaecec972103316bc27d95b96418349afc6298c259bb999c6e8f39a7217787ad53602be7c1472102e21c29b4a7eeace9c7a8cefb568ca00c86ff9bf5e79e07e5442c29d4a0950d0453ae0400483045022100f0279fa27d0f85c4c3ee7ea3104963bd88ec02f62f23ae0b73d122293e58c7b8022024b8c9dca8d9d77bda69da70282a45422c2baf0d4a05ecbe57a48b65f92d950d0147304402203bb213db0b4842ea5f8c1b9290c8b42dbe65f72bee29e4ad7e8d57e5f16390010220347df34c34a4df5fabe8571c7168c8111df7275a56672126f434bdc44fea6c5901695221028fedaf75b5b08cddf3bf4631c658b68ee6766a8e999467a641d7cb7aaaecec972103316bc27d95b96418349afc6298c259bb999c6e8f39a7217787ad53602be7c1472102e21c29b4a7eeace9c7a8cefb568ca00c86ff9bf5e79e07e5442c29d4a0950d0453ae00000000"
  },
  "inputs": [
    {
      "txid": "61268e441d4078474679c063d1c268b5098163410553329dac0c8069f51bba97",
      "hash": "ada92818b73141897cd4d47e593fbb27346ecea5502bdcd34a1576cc4b1b3108",
      "version": 2,
      "size": 223,
      "vsize": 142,
      "weight": 565,
      "locktime": 282,
      "vin": [
        {
          "txid": "df8186f48e020e1211bc9525f12a1f0e267009afa1e4d1e8a589ab6d61a5fe92",
          "vout": 0,
          "scriptSig": {
            "asm": "",
            "hex": ""
          },
          "txinwitness": [
            "30440220780d09ef50384c17ae3b67e485c452ea9286f31262186a20e29b254ab37e5ef202203062964975b7fee0c53f2a1df4eec7359767f5ca3d480ff13366d09acbcb5b0e01",
            "028d0a4ecd6821f3028e924b972bd608c993bd4ebe48d000245a8aa48f091680f7"
          ],
          "sequence": 4294967294
        }
      ],
      "vout": [
        {
          "value": 1,
          "n": 0,
          "scriptPubKey": {
            "asm": "OP_HASH160 2280193aca8462021ec369d4e2ff1c95741fba7f OP_EQUAL",
            "hex": "a9142280193aca8462021ec369d4e2ff1c95741fba7f87",
            "reqSigs": 1,
            "type": "scripthash",
            "addresses": [
              "2MvPeRFSGYJq9BXoV2fxrMpJjsZMGx2m6Zk"
            ]
          }
        },
        {
          "value": 23.9999858,
          "n": 1,
          "scriptPubKey": {
            "asm": "0 851d728b227ec65c30dad2079adfa3fbe0db456c",
            "hex": "0014851d728b227ec65c30dad2079adfa3fbe0db456c",
            "reqSigs": 1,
            "type": "witness_v0_keyhash",
            "addresses": [
              "bcrt1qs5wh9zez0mr9cvx66gre4harl0sdk3tvp882rw"
            ]
          }
        }
      ],
      "hex": "0200000000010192fea5616dab89a5e8d1e4a1af0970260e1f2af12595bc11120e028ef48681df0000000000feffffff0200e1f5050000000017a9142280193aca8462021ec369d4e2ff1c95741fba7f8774120d8f00000000160014851d728b227ec65c30dad2079adfa3fbe0db456c024730440220780d09ef50384c17ae3b67e485c452ea9286f31262186a20e29b254ab37e5ef202203062964975b7fee0c53f2a1df4eec7359767f5ca3d480ff13366d09acbcb5b0e0121028d0a4ecd6821f3028e924b972bd608c993bd4ebe48d000245a8aa48f091680f71a010000"
    },
    {
      "txid": "1761eea952ede40e9f363134f8ee4fb72658f02c4fbb13c882bb2f020a9e512e",
      "hash": "c938dff37f0af1c713bb765a3f5a49844b13f90a0dd89a40a94c3f0d6d7e177a",
      "version": 2,
      "size": 223,
      "vsize": 142,
      "weight": 565,
      "locktime": 301,
      "vin": [
        {
          "txid": "9ce6b716188a7bdb1d31fbceec5b3cbfec7df900196b1b595a4c97947f60338c",
          "vout": 0,
          "scriptSig": {
            "asm": "",
            "hex": ""
          },
          "txinwitness": [
            "30440220452fed5dce5f0c2ed077bd115635d404024d4b204307c3dbd8658e103d798aad02207e82261b8f6d3620437534e1bbdf9bef825dc7a3557f1d2377c7c3e71aba7ab201",
            "028d0a4ecd6821f3028e924b972bd608c993bd4ebe48d000245a8aa48f091680f7"
          ],
          "sequence": 4294967294
        }
      ],
      "vout": [
        {
          "value": 23.9999858,
          "n": 0,
          "scriptPubKey": {
            "asm": "0 a2cd657d212d7ebdb83b6c117f99342de3c6e593",
            "hex": "0014a2cd657d212d7ebdb83b6c117f99342de3c6e593",
            "reqSigs": 1,
            "type": "witness_v0_keyhash",
            "addresses": [
              "bcrt1q5txk2lfp94ltmwpmdsghlxf59h3udevnjdkw9m"
            ]
          }
        },
        {
          "value": 1,
          "n": 1,
          "scriptPubKey": {
            "asm": "OP_HASH160 2280193aca8462021ec369d4e2ff1c95741fba7f OP_EQUAL",
            "hex": "a9142280193aca8462021ec369d4e2ff1c95741fba7f87",
            "reqSigs": 1,
            "type": "scripthash",
            "addresses": [
              "2MvPeRFSGYJq9BXoV2fxrMpJjsZMGx2m6Zk"
            ]
          }
        }
      ],
      "hex": "020000000001018c33607f94974c5a591b6b1900f97decbf3c5beccefb311ddb7b8a1816b7e69c0000000000feffffff0274120d8f00000000160014a2cd657d212d7ebdb83b6c117f99342de3c6e59300e1f5050000000017a9142280193aca8462021ec369d4e2ff1c95741fba7f87024730440220452fed5dce5f0c2ed077bd115635d404024d4b204307c3dbd8658e103d798aad02207e82261b8f6d3620437534e1bbdf9bef825dc7a3557f1d2377c7c3e71aba7ab20121028d0a4ecd6821f3028e924b972bd608c993bd4ebe48d000245a8aa48f091680f72d010000"
    }
  ]
}