{
  "transaction": {
    "txid": "a120393f25bb5cc4ae00e29fd0ea2c781e22078a2030d33ba1a0010fd45f452e",
    "version": 2,
    "type": 0,
    "size": 225,
    "locktime": 223,
    "vin": [
      {
        "txid": "71d7abc52c784e3e3db3390ec14dc8b297f6cc6474dbc858eabd9ce6ddcc53ab",
        "vout": 0,
        "scriptSig": {
          "asm": "304402204280f9df8abf14650697053c7f91e7f0e2ad2cb63401645c6021b2c8609286930220381f6f26b0b1548b7aa58588e8268ffb4e744586c5e146daf3b9ca8549faef5c[ALL] 032dfcbfbadf6e06d8ff25ad1e78997dcc9c16f7ee6cf9eb07cf7bab892dbcafc8",
          "hex": "47304402204280f9df8abf14650697053c7f91e7f0e2ad2cb63401645c6021b2c8609286930220381f6f26b0b1548b7aa58588e8268ffb4e744586c5e146daf3b9ca8549faef5c0121032dfcbfbadf6e06d8ff25ad1e78997dcc9c16f7ee6cf9eb07cf7bab892dbcafc8"
        },
        "sequence": 4294967294
      }
    ],
    "vout": [
      {
        "value": 1,
        "valueSat": 100000000,
        "n": 0,
        "scriptPubKey": {
          "asm": "OP_DUP OP_HASH160 d2eb140d8b7006e7b862827043f9cddd50da9811 OP_EQUALVERIFY OP_CHECKSIG",
          "hex": "76a914d2eb140d8b7006e7b862827043f9cddd50da981188ac",
          "reqSigs": 1,
          "type": "pubkeyhash",
          "addresses": [
            "yfYgN1u1AxzV3XaKn23cDmfQ6RnpuuHQHk"
          ]
        }
      },
      {
        "value": 463.28571203,
        "valueSat": 46328571203,
        "n": 1,
        "scriptPubKey": {
          "asm": "OP_DUP OP_HASH160 5a36697b7c6d58dc24eff7bc19ec7c772c8ef0ab OP_EQUALVERIFY OP_CHECKSIG",
          "hex": "76a9145a36697b7c6d58dc24eff7bc19ec7c772c8ef0ab88ac",
          "reqSigs": 1,
          "type": "pubkeyhash",
          "addresses": [
            "yUYSr5kGzpfqDai6j1F4NENGnEkSgoS7Gi"
          ]
        }
      }
    ],
    "hex": "0200000001ab53ccdde69cbdea58c8db7464ccf697b2c84dc10e39b33d3e4e782cc5abd771000000006a47304402204280f9df8abf14650697053c7f91e7f0e2ad2cb63401645c6021b2c8609286930220381f6f26b0b1548b7aa58588e8268ffb4e744586c5e146daf3b9ca8549faef5c0121032dfcbfbadf6e06d8ff25ad1e78997dcc9c16f7ee6cf9eb07cf7bab892dbcafc8feffffff0200e1f505000000001976a914d2eb140d8b7006e7b862827043f9cddd50da981188ac43e565c90a0000001976a9145a36697b7c6d58dc24eff7bc19ec7c772c8ef0ab88acdf000000",
    "instantlock": false,
    "instantlock_internal": false,
    "chainlock": false
  },
  "inputs": [
    {
      "txid": "71d7abc52c784e3e3db3390ec14dc8b297f6cc6474dbc858eabd9ce6ddcc53ab",
      "version": 2,
      "type": 0,
      "size": 90,
      "locktime": 0,
      "vin": [
        {
          "coinbase": "02aa000101",
          "sequence": 4294967295
        }
      ],
      "vout": [
        {
          "value": 464.28571429,
          "valueSat": 46428571429,
          "n": 0,
          "scriptPubKey": {
            "asm": "OP_DUP OP_HASH160 9f79b2d4d468a8e45b760a018b92958b9a77264d OP_EQUALVERIFY OP_CHECKSIG",
            "hex": "76a9149f79b2d4d468a8e45b760a018b92958b9a77264d88ac",
            "reqSigs": 1,
            "type": "pubkeyhash",
            "addresses": [
              "yarg5U7ZJwk6Xb3zXUyj6Z5TUSW6N8Qw39"
            ]
          }
        }
      ],
      "hex": "02000000010000000000000000000000000000000000000000000000000000000000000000ffffffff0502aa000101ffffffff0125c75bcf0a0000001976a9149f79b2d4d468a8e45b760a018b92958b9a77264d88ac00000000",
      "blockhash": "5029ef37d1e96dbbe50b954a870315e64038dfd439bcdb6dc217662c08c521d1",
      "height": 170,
      "confirmations": 132,
      "time": 1640270141,
      "blocktime": 1640270141,
      "instantlock": false,
      "instantlock_internal": false,
      "chainlock": false
    }
  ]
}