{
  "transaction": {
    "txid": "50a3bd4d078eb1955b65a0acb1488b4f6845e75b165d9e347f329e6e1beb3a50",
    "version": 2,
    "type": 0,
    "size": 224,
    "locktime": 301,
    "vin": [
      {
        "txid": "0463d96b79dd56b3cf9be466b80cd0f2db90ede4b95a14b0736edfdb9507390a",
        "vout": 0,
        "scriptSig": {
          "asm": "3045022100acc7e5a0a678cac1a13a2dc86d566b4c4dbe8d301aefc06109640a8d4182400502203298980c7e3de8a74964d29f6d9655eb008b961da87d4dd431b0f6bb63e38148[ALL] 032dfcbfbadf6e06d8ff25ad1e78997dcc9c16f7ee6cf9eb07cf7bab892dbcafc8",
          "hex": "483045022100acc7e5a0a678cac1a13a2dc86d566b4c4dbe8d301aefc06109640a8d4182400502203298980c7e3de8a74964d29f6d9655eb008b961da87d4dd431b0f6bb63e381480121032dfcbfbadf6e06d8ff25ad1e78997dcc9c16f7ee6cf9eb07cf7bab892dbcafc8"
        },
        "sequence": 4294967294
      }
    ],
    "vout": [
      {
        "value": 1,
        "valueSat": 100000000,
        "n": 0,
        "scriptPubKey": {
          "asm": "OP_HASH160 fe5cc5d87e3348a5f3eaa316898a0f05d520876e OP_EQUAL",
          "hex": "a914fe5cc5d87e3348a5f3eaa316898a0f05d520876e87",
          "reqSigs": 1,
          "type": "scripthash",
          "addresses": [
            "93cQUkwiqRYJs8zPcWf1gTy31QDutzTfz8"
          ]
        }
      },
      {
        "value": 463.28571205,
        "valueSat": 46328571205,
        "n": 1,
        "scriptPubKey": {
          "asm": "OP_DUP OP_HASH160 8ccf1d15d4a88073a949320763551558dfe6287e OP_EQUALVERIFY OP_CHECKSIG",
          "hex": "76a9148ccf1d15d4a88073a949320763551558dfe6287e88ac",
          "reqSigs": 1,
          "type": "pubkeyhash",
          "addresses": [
            "yZ9yZZkg4dWhd1MVhMar1joVYJ4CAn92oA"
          ]
        }
      }
    ],
    "hex": "02000000010a390795dbdf6e73b0145ab9e4ed90dbf2d00cb866e49bcfb356dd796bd96304000000006b483045022100acc7e5a0a678cac1a13a2dc86d566b4c4dbe8d301aefc06109640a8d4182400502203298980c7e3de8a74964d29f6d9655eb008b961da87d4dd431b0f6bb63e381480121032dfcbfbadf6e06d8ff25ad1e78997dcc9c16f7ee6cf9eb07cf7bab892dbcafc8feffffff0200e1f5050000000017a914fe5cc5d87e3348a5f3eaa316898a0f05d520876e8745e565c90a0000001976a9148ccf1d15d4a88073a949320763551558dfe6287e88ac2d010000",
    "instantlock": false,
    "instantlock_internal": false,
    "chainlock": false
  },
  "inputs": [
    {
      "txid": "0463d96b79dd56b3cf9be466b80cd0f2db90ede4b95a14b0736edfdb9507390a",
      "version": 2,
      "type": 0,
      "size": 90,
      "locktime": 0,
      "vin": [
        {
          "coinbase": "02c3000101",
          "sequence": 4294967295
        }
      ],
      "vout": [
        {
          "value": 464.28571429,
          "valueSat": 46428571429,
          "n": 0,
          "scriptPubKey": {
            "asm": "OP_DUP OP_HASH160 9f79b2d4d468a8e45b760a018b92958b9a77264d OP_EQUALVERIFY OP_CHECKSIG",
            "hex": "76a9149f79b2d4d468a8e45b760a018b92958b9a77264d88ac",
            "reqSigs": 1,
            "type": "pubkeyhash",
            "addresses": [
              "yarg5U7ZJwk6Xb3zXUyj6Z5TUSW6N8Qw39"
            ]
          }
        }
      ],
      "hex": "02000000010000000000000000000000000000000000000000000000000000000000000000ffffffff0502c3000101ffffffff0125c75bcf0a0000001976a9149f79b2d4d468a8e45b760a018b92958b9a77264d88ac00000000",
      "blockhash": "616ffd485170212f78caf7342df9ac6982b79d7e8e90444240057df0fd3432db",
      "height": 195,
      "confirmations": 107,
      "time": 1640270145,
      "blocktime": 1640270145,
      "instantlock": false,
      "instantlock_internal": false,
      "chainlock": false
    }
  ]
}