{
  "transaction": {
    "txid": "af119149c62e9b30f829f116491d0eaecc76116b989a72d19a45336304f1222a",
    "version": 1,
    "type": 0,
    "size": 628,
    "locktime": 0,
    "vin": [
      {
        "txid": "50a3bd4d078eb1955b65a0acb1488b4f6845e75b165d9e347f329e6e1beb3a50",
        "vout": 0,
        "scriptSig": {
          "asm": "0 304402204ef424e06c5e5cde84d61c40723d13143f486bed30f550e02d43bfc5a1149ced022058c097a3f04b77b527650382824ab830e888724bd85c9e7050f15a3e62263363[ALL] 304402207c65c07db693c110afeed21b84386ac89b07687d44369b4af00b73a9339ace0f022043b830f8980d3bbefdce3c9a4aa51508d4000a9626e0cd9eb5b8c22946a9103b[ALL] 5221028fedaf75b5b08cddf3bf4631c658b68ee6766a8e999467a641d7cb7aaaecec972103316bc27d95b96418349afc6298c259bb999c6e8f39a7217787ad53602be7c1472102e21c29b4a7eeace9c7a8cefb568ca00c86ff9bf5e79e07e5442c29d4a0950d0453ae",
          "hex": "0047304402204ef424e06c5e5cde84d61c40723d13143f486bed30f550e02d43bfc5a1149ced022058c097a3f04b77b527650382824ab830e888724bd85c9e7050f15a3e622633630147304402207c65c07db693c110afeed21b84386ac89b07687d44369b4af00b73a9339ace0f022043b830f8980d3bbefdce3c9a4aa51508d4000a9626e0cd9eb5b8c22946a9103b014c695221028fedaf75b5b08cddf3bf4631c658b68ee6766a8e999467a641d7cb7aaaecec972103316bc27d95b96418349afc6298c259bb999c6e8f39a7217787ad53602be7c1472102e21c29b4a7eeace9c7a8cefb568ca00c86ff9bf5e79e07e5442c29d4a0950d0453ae"
        },
        "sequence": 4294967295
      },
      {
        "txid": "cab802676005a88cc338df6ca7cd3f0be9065c06e70f0e0d9031720e6486b2d1",
        "vout": 0,
        "scriptSig": {
          "asm": "0 304402204b96e5e705b01f11a8534bb52a91e0aced930c4b57bab4c481a17f3dd0c724c702206192252fdf5e6564a0b84d1477a4b472d909c4a7328a6bb8638743ff5264b6f5[ALL] 304402205d6d23b7de38dc69a4b552ef3ddc3bf3b09999e3ba2c9b6c324f64ef1ac0306002204e679f4e3ef17b443750b9a6b477e75feb712f93fc754f6f33198d730b4eb7a2[ALL] 5221028fedaf75b5b08cddf3bf4631c658b68ee6766a8e999467a641d7cb7aaaecec972103316bc27d95b96418349afc6298c259bb999c6e8f39a7217787ad53602be7c1472102e21c29b4a7eeace9c7a8cefb568ca00c86ff9bf5e79e07e5442c29d4a0950d0453ae",
          "hex": "0047304402204b96e5e705b01f11a8534bb52a91e0aced930c4b57bab4c481a17f3dd0c724c702206192252fdf5e6564a0b84d1477a4b472d909c4a7328a6bb8638743ff5264b6f50147304402205d6d23b7de38dc69a4b552ef3ddc3bf3b09999e3ba2c9b6c324f64ef1ac0306002204e679f4e3ef17b443750b9a6b477e75feb712f93fc754f6f33198d730b4eb7a2014c695221028fedaf75b5b08cddf3bf4631c658b68ee6766a8e999467a641d7cb7aaaecec972103316bc27d95b96418349afc6298c259bb999c6e8f39a7217787ad53602be7c1472102e21c29b4a7eeace9c7a8cefb568ca00c86ff9bf5e79e07e5442c29d4a0950d0453ae"
        },
        "sequence": 4294967295
      }
    ],
    "vout": [
      {
        "value": 1.99999,
        "valueSat": 199999000,
        "n": 0,
        "scriptPubKey": {
          "asm": "OP_HASH160 fe5cc5d87e3348a5f3eaa316898a0f05d520876e OP_EQUAL",
          "hex": "a914fe5cc5d87e3348a5f3eaa316898a0f05d520876e87",
          "reqSigs": 1,
          "type": "scripthash",
          "addresses": [
            "93cQUkwiqRYJs8zPcWf1gTy31QDutzTfz8"
          ]
        }
      }
    ],
    "hex": "0100000002503aeb1b6e9e327f349e5d165be745684f8b48b1aca0655b95b18e074dbda35000000000fc0047304402204ef424e06c5e5cde84d61c40723d13143f486bed30f550e02d43bfc5a1149ced022058c097a3f04b77b527650382824ab830e888724bd85c9e7050f15a3e622633630147304402207c65c07db693c110afeed21b84386ac89b07687d44369b4af00b73a9339ace0f022043b830f8980d3bbefdce3c9a4aa51508d4000a9626e0cd9eb5b8c22946a9103b014c695221028fedaf75b5b08cddf3bf4631c658b68ee6766a8e999467a641d7cb7aaaecec972103316bc27d95b96418349afc6298c259bb999c6e8f39a7217787ad53602be7c1472102e21c29b4a7eeace9c7a8cefb568ca00c86ff9bf5e79e07e5442c29d4a0950d0453aeffffffffd1b286640e7231900d0e0fe7065c06e90b3fcda76cdf38c38ca805606702b8ca00000000fc0047304402204b96e5e705b01f11a8534bb52a91e0aced930c4b57bab4c481a17f3dd0c724c702206192252fdf5e6564a0b84d1477a4b472d909c4a7328a6bb8638743ff5264b6f50147304402205d6d23b7de38dc69a4b552ef3ddc3bf3b09999e3ba2c9b6c324f64ef1ac0306002204e679f4e3ef17b443750b9a6b477e75feb712f93fc754f6f33198d730b4eb7a2014c695221028fedaf75b5b08cddf3bf4631c658b68ee6766a8e999467a641d7cb7aaaecec972103316bc27d95b96418349afc6298c259bb999c6e8f39a7217787ad53602be7c1472102e21c29b4a7eeace9c7a8cefb568ca00c86ff9bf5e79e07e5442c29d4a0950d0453aeffffffff0118beeb0b0000000017a914fe5cc5d87e3348a5f3eaa316898a0f05d520876e8700000000",
    "instantlock": false,
    "instantlock_internal": false,
    "chainlock": false
  },
  "inputs": [
    {
      "txid": "50a3bd4d078eb1955b65a0acb1488b4f6845e75b165d9e347f329e6e1beb3a50",
      "version": 2,
      "type": 0,
      "size": 224,
      "locktime": 301,
      "vin": [
        {
          "txid": "0463d96b79dd56b3cf9be466b80cd0f2db90ede4b95a14b0736edfdb9507390a",
          "vout": 0,
          "scriptSig": {
            "asm": "3045022100acc7e5a0a678cac1a13a2dc86d566b4c4dbe8d301aefc06109640a8d4182400502203298980c7e3de8a74964d29f6d9655eb008b961da87d4dd431b0f6bb63e38148[ALL] 032dfcbfbadf6e06d8ff25ad1e78997dcc9c16f7ee6cf9eb07cf7bab892dbcafc8",
            "hex": "483045022100acc7e5a0a678cac1a13a2dc86d566b4c4dbe8d301aefc06109640a8d4182400502203298980c7e3de8a74964d29f6d9655eb008b961da87d4dd431b0f6bb63e381480121032dfcbfbadf6e06d8ff25ad1e78997dcc9c16f7ee6cf9eb07cf7bab892dbcafc8"
          },
          "sequence": 4294967294
        }
      ],
      "vout": [
        {
          "value": 1,
          "valueSat": 100000000,
          "n": 0,
          "scriptPubKey": {
            "asm": "OP_HASH160 fe5cc5d87e3348a5f3eaa316898a0f05d520876e OP_EQUAL",
            "hex": "a914fe5cc5d87e3348a5f3eaa316898a0f05d520876e87",
            "reqSigs": 1,
            "type": "scripthash",
            "addresses": [
              "93cQUkwiqRYJs8zPcWf1gTy31QDutzTfz8"
            ]
          }
        },
        {
          "value": 463.28571205,
          "valueSat": 46328571205,
          "n": 1,
          "scriptPubKey": {
            "asm": "OP_DUP OP_HASH160 8ccf1d15d4a88073a949320763551558dfe6287e OP_EQUALVERIFY OP_CHECKSIG",
            "hex": "76a9148ccf1d15d4a88073a949320763551558dfe6287e88ac",
            "reqSigs": 1,
            "type": "pubkeyhash",
            "addresses": [
              "yZ9yZZkg4dWhd1MVhMar1joVYJ4CAn92oA"
            ]
          }
        }
      ],
      "hex": "02000000010a390795dbdf6e73b0145ab9e4ed90dbf2d00cb866e49bcfb356dd796bd96304000000006b483045022100acc7e5a0a678cac1a13a2dc86d566b4c4dbe8d301aefc06109640a8d4182400502203298980c7e3de8a74964d29f6d9655eb008b961da87d4dd431b0f6bb63e381480121032dfcbfbadf6e06d8ff25ad1e78997dcc9c16f7ee6cf9eb07cf7bab892dbcafc8feffffff0200e1f5050000000017a914fe5cc5d87e3348a5f3eaa316898a0f05d520876e8745e565c90a0000001976a9148ccf1d15d4a88073a949320763551558dfe6287e88ac2d010000",
      "instantlock": false,
      "instantlock_internal": false,
      "chainlock": false
    },
    {
      "txid": "cab802676005a88cc338df6ca7cd3f0be9065c06e70f0e0d9031720e6486b2d1",
      "version": 2,
      "type": 0,
      "size": 223,
      "locktime": 301,
      "vin": [
        {
          "txid": "f7e2d8c9b845984dd9927490784c18df92ce64b7b5f1a489a3ddf0b97103b36c",
          "vout": 0,
          "scriptSig": {
            "asm": "3044022017d3675066c582f2c74afeb21dd64a118308c3ca32c7bf8d68d7f424192c5e4e022021d5d04160aa0a23faf83718576bff84a3e07856449ad81518a86d1d1f4828fb[ALL] 032dfcbfbadf6e06d8ff25ad1e78997dcc9c16f7ee6cf9eb07cf7bab892dbcafc8",
            "hex": "473044022017d3675066c582f2c74afeb21dd64a118308c3ca32c7bf8d68d7f424192c5e4e022021d5d04160aa0a23faf83718576bff84a3e07856449ad81518a86d1d1f4828fb0121032dfcbfbadf6e06d8ff25ad1e78997dcc9c16f7ee6cf9eb07cf7bab892dbcafc8"
          },
          "sequence": 4294967294
        }
      ],
      "vout": [
        {
          "value": 1,
          "valueSat": 100000000,
          "n": 0,
          "scriptPubKey": {
            "asm": "OP_HASH160 fe5cc5d87e3348a5f3eaa316898a0f05d520876e OP_EQUAL",
            "hex": "a914fe5cc5d87e3348a5f3eaa316898a0f05d520876e87",
            "reqSigs": 1,
            "type": "scripthash",
            "addresses": [
              "93cQUkwiqRYJs8zPcWf1gTy31QDutzTfz8"
            ]
          }
        },
        {
          "value": 463.28571205,
          "valueSat": 46328571205,
          "n": 1,
          "scriptPubKey": {
            "asm": "OP_DUP OP_HASH160 e6daf471d4a5de31c9bd921b6c59ccf964dd9fa7 OP_EQUALVERIFY OP_CHECKSIG",
            "hex": "76a914e6daf471d4a5de31c9bd921b6c59ccf964dd9fa788ac",
            "reqSigs": 1,
            "type": "pubkeyhash",
            "addresses": [
              "yhN6ZaH6DovKJG18v6Ti1XM1tEoBX3vKhh"
            ]
          }
        }
      ],
      "hex": "02000000016cb30371b9f0dda389a4f1b5b764ce92df184c78907492d94d9845b8c9d8e2f7000000006a473044022017d3675066c582f2c74afeb21dd64a118308c3ca32c7bf8d68d7f424192c5e4e022021d5d04160aa0a23faf83718576bff84a3e07856449ad81518a86d1d1f4828fb0121032dfcbfbadf6e06d8ff25ad1e78997dcc9c16f7ee6cf9eb07cf7bab892dbcafc8feffffff0200e1f5050000000017a914fe5cc5d87e3348a5f3eaa316898a0f05d520876e8745e565c90a0000001976a914e6daf471d4a5de31c9bd921b6c59ccf964dd9fa788ac2d010000",
      "instantlock": false,
      "instantlock_internal": false,
      "chainlock": false
    }
  ]
}