{
  "transaction": {
    "txid": "b85521cd903a5b8d1c5d92bd08f1fb6db0ea0a94f4740ff20402ffe79474cd17",
    "hash": "84ac3a59b0ca90dede36ecb690614428f9a0c382fb19c750ccaa33f862e79130",
    "version": 2,
    "size": 249,
    "vsize": 168,
    "weight": 669,
    "locktime": 301,
    "vin": [
      {
        "txid": "d95fdf725afa2b097f087d883052f749512dedbac6b2f4d6efb39f52d74a723e",
        "vout": 0,
        "scriptSig": {
          "asm": "0014a0058104a01eb9f0714727162ff61c5f66ae562f",
          "hex": "160014a0058104a01eb9f0714727162ff61c5f66ae562f"
        },
        "txinwitness": [
          "30440220525665e2a1bb0d11cec32343041b55b1c95a8bf26a0185f084cb3fd80011da98022044c707a3274ca1932c6e2b97923473504d4374d4e316fa64f3a6f662fa65d02301",
          "034b64d3c37dfc1b0fcfa0db3fe88e44e2893f19eaa2746908aa67a3c347d0d2ad"
        ],
        "sequence": 4294967294
      }
    ],
    "vout": [
      {
        "value": 23.999664,
        "n": 0,
        "scriptPubKey": {
          "asm": "OP_HASH160 d7eac43634da8065eb4f451e086eca3fcd6093be OP_EQUAL",
          "hex": "a914d7eac43634da8065eb4f451e086eca3fcd6093be87",
          "reqSigs": 1,
          "type": "scripthash",
          "addresses": [
            "QgHedQErfWAA5PJEmgYf2ZL6oLqqpnxBk4"
          ]
        }
      },
      {
        "value": 1,
        "n": 1,
        "scriptPubKey": {
          "asm": "OP_DUP OP_HASH160 d2eb140d8b7006e7b862827043f9cddd50da9811 OP_EQUALVERIFY OP_CHECKSIG",
          "hex": "76a914d2eb140d8b7006e7b862827043f9cddd50da981188ac",
          "reqSigs": 1,
          "type": "pubkeyhash",
          "addresses": [
            "mzkBosFeajZ5KxXp4rPNA8maqoKUFiR7nY"
          ]
        }
      }
    ],
    "hex": "020000000001013e724ad7529fb3efd6f4b2c6baed2d5149f75230887d087f092bfa5a72df5fd90000000017160014a0058104a01eb9f0714727162ff61c5f66ae562ffeffffff02c0940c8f0000000017a914d7eac43634da8065eb4f451e086eca3fcd6093be8700e1f505000000001976a914d2eb140d8b7006e7b862827043f9cddd50da981188ac024730440220525665e2a1bb0d11cec32343041b55b1c95a8bf26a0185f084cb3fd80011da98022044c707a3274ca1932c6e2b97923473504d4374d4e316fa64f3a6f662fa65d0230121034b64d3c37dfc1b0fcfa0db3fe88e44e2893f19eaa2746908aa67a3c347d0d2ad2d010000"
  },
  "inputs": [
    {
      "txid": "d95fdf725afa2b097f087d883052f749512dedbac6b2f4d6efb39f52d74a723e",
      "hash": "48b9bd8c373d28ade1460592cc160d7f2871e175b700e21392b0a483875260d6",
      "version": 2,
      "size": 171,
      "vsize": 144,
      "weight": 576,
      "locktime": 0,
      "vin": [
        {
          "coinbase": "02c7000101",
          "sequence": 4294967295
        }
      ],
      "vout": [
        {
          "value": 25,
          "n": 0,
          "scriptPubKey": {
            "asm": "OP_HASH160 f7d6a7ef3a8f1aabcdcac37aca34e57ad9fb6829 OP_EQUAL",
            "hex": "a914f7d6a7ef3a8f1aabcdcac37aca34e57ad9fb682987",
            "reqSigs": 1,
            "type": "scripthash",
            "addresses": [
              "QjCSAEvn1ERr4F5uEHES9dGTYYQWqZxbkc"
            ]
          }
        },
        {
          "value": 0,
          "n": 1,
          "scriptPubKey": {
            "asm": "OP_RETURN aa21a9ede2f61c3f71d1defd3fa999dfa36953755c690689799962b48bebd836974e8cf9",
            "hex": "6a24aa21a9ede2f61c3f71d1defd3fa999dfa36953755c690689799962b48bebd836974e8cf9",
            "type": "nulldata"
          }
        }
      ],
      "hex": "020000000001010000000000000000000000000000000000000000000000000000000000000000ffffffff0502c7000101ffffffff0200f902950000000017a914f7d6a7ef3a8f1aabcdcac37aca34e57ad9fb6829870000000000000000266a24aa21a9ede2f61c3f71d1defd3fa999dfa36953755c690689799962b48bebd836974e8cf90120000000000000000000000000000000000000000000000000000000000000000000000000",
      "blockhash": "8221d296a27e2a86d20618932f7463da65dd67d02471589cdb9a98293bf89efc",
      "confirmations": 103,
      "time": 1640270148,
      "blocktime": 1640270148
    }
  ]
}