{
  "transaction": {
    "txid": "26a33974228ef3d8c999341192045767f373fef97a9d40ac23c4bbbf4780f1db",
    "hash": "da4bb10542889ed6bee7e81634ca39ec814167d9edeb59fec040f29ae9f9f6d8",
    "version": 2,
    "size": 245,
    "vsize": 164,
    "weight": 653,
    "locktime": 301,
    "vin": [
      {
        "txid": "f727cdb785764c93b4459c96e80092368a96007006306cc33d7a17dbb92deed0",
        "vout": 0,
        "scriptSig": {
          "asm": "0014a0058104a01eb9f0714727162ff61c5f66ae562f",
          "hex": "160014a0058104a01eb9f0714727162ff61c5f66ae562f"
        },
        "txinwitness": [
          "3044022019f7b176e410e8903920ad7ed81bb4f9e70876fec6388263588b916cda5fb4320220242b17bbba0a7df60c5813efd910065bf8867d14d3c24dee89b89f831a89961301",
          "034b64d3c37dfc1b0fcfa0db3fe88e44e2893f19eaa2746908aa67a3c347d0d2ad"
        ],
        "sequence": 4294967294
      }
    ],
    "vout": [
      {
        "value": 23.999672,
        "n": 0,
        "scriptPubKey": {
          "asm": "0 608504ddb995f22f7c7ace294fa083f2ac5b0625",
          "hex": "0014608504ddb995f22f7c7ace294fa083f2ac5b0625",
          "reqSigs": 1,
          "type": "witness_v0_keyhash",
          "addresses": [
            "rltc1qvzzsfhdejhez7lr6ec55lgyr72k9kp390sn38n"
          ]
        }
      },
      {
        "value": 1,
        "n": 1,
        "scriptPubKey": {
          "asm": "0 d2eb140d8b7006e7b862827043f9cddd50da9811",
          "hex": "0014d2eb140d8b7006e7b862827043f9cddd50da9811",
          "reqSigs": 1,
          "type": "witness_v0_keyhash",
          "addresses": [
            "rltc1q6t43grvtwqrw0wrzsfcy87wdm4gd4xq32246p5"
          ]
        }
      }
    ],
    "hex": "02000000000101d0ee2db9db177a3dc36c30067000968a369200e8969c45b4934c7685b7cd27f70000000017160014a0058104a01eb9f0714727162ff61c5f66ae562ffeffffff02e0970c8f00000000160014608504ddb995f22f7c7ace294fa083f2ac5b062500e1f50500000000160014d2eb140d8b7006e7b862827043f9cddd50da981102473044022019f7b176e410e8903920ad7ed81bb4f9e70876fec6388263588b916cda5fb4320220242b17bbba0a7df60c5813efd910065bf8867d14d3c24dee89b89f831a8996130121034b64d3c37dfc1b0fcfa0db3fe88e44e2893f19eaa2746908aa67a3c347d0d2ad2d010000"
  },
  "inputs": [
    {
      "txid": "f727cdb785764c93b4459c96e80092368a96007006306cc33d7a17dbb92deed0",
      "hash": "4fdc605eb5e7416b111a9ab8dd022590a234475f78269d1448a0ff86d0e388f0",
      "version": 2,
      "size": 171,
      "vsize": 144,
      "weight": 576,
      "locktime": 0,
      "vin": [
        {
          "coinbase": "02b6000101",
          "sequence": 4294967295
        }
      ],
      "vout": [
        {
          "value": 25,
          "n": 0,
          "scriptPubKey": {
            "asm": "OP_HASH160 f7d6a7ef3a8f1aabcdcac37aca34e57ad9fb6829 OP_EQUAL",
            "hex": "a914f7d6a7ef3a8f1aabcdcac37aca34e57ad9fb682987",
            "reqSigs": 1,
            "type": "scripthash",
            "addresses": [
              "QjCSAEvn1ERr4F5uEHES9dGTYYQWqZxbkc"
            ]
          }
        },
        {
          "value": 0,
          "n": 1,
          "scriptPubKey": {
            "asm": "OP_RETURN aa21a9ede2f61c3f71d1defd3fa999dfa36953755c690689799962b48bebd836974e8cf9",
            "hex": "6a24aa21a9ede2f61c3f71d1defd3fa999dfa36953755c690689799962b48bebd836974e8cf9",
            "type": "nulldata"
          }
        }
      ],
      "hex": "020000000001010000000000000000000000000000000000000000000000000000000000000000ffffffff0502b6000101ffffffff0200f902950000000017a914f7d6a7ef3a8f1aabcdcac37aca34e57ad9fb6829870000000000000000266a24aa21a9ede2f61c3f71d1defd3fa999dfa36953755c690689799962b48bebd836974e8cf90120000000000000000000000000000000000000000000000000000000000000000000000000",
      "blockhash": "5edc8eaf3e9ba17c7ff4f222680cb129f28acd328e303b43604614e07e1d8e58",
      "confirmations": 120,
      "time": 1640270146,
      "blocktime": 1640270146
    }
  ]
}