{
  "transaction": {
    "txid": "003dc6255d06a2120f459a68b797f5b1e4083f550c9f58898f855d075541b245",
    "hash": "ceebadb97916fa7975f9c2446dbe99337a2ac150482859ef711f11748c5dc1e8",
    "version": 2,
    "size": 247,
    "vsize": 166,
    "weight": 661,
    "locktime": 301,
    "vin": [
      {
        "txid": "122403b752abdedbedf0416be7601bb5ee4f5a9c38880a2098b50302d8315c1c",
        "vout": 0,
        "scriptSig": {
          "asm": "0014a0058104a01eb9f0714727162ff61c5f66ae562f",
          "hex": "160014a0058104a01eb9f0714727162ff61c5f66ae562f"
        },
        "txinwitness": [
          "304402203731feca43f1c895c3d77cb66ca93b84650aa5d4b1c108a424c15df11d29d09802202bcc107ca749a7e7ec9a6ae968244d2f415b1d0dd054ce029f98a692ef9c757b01",
          "034b64d3c37dfc1b0fcfa0db3fe88e44e2893f19eaa2746908aa67a3c347d0d2ad"
        ],
        "sequence": 4294967294
      }
    ],
    "vout": [
      {
        "value": 1,
        "n": 0,
        "scriptPubKey": {
          "asm": "OP_HASH160 fe5cc5d87e3348a5f3eaa316898a0f05d520876e OP_EQUAL",
          "hex": "a914fe5cc5d87e3348a5f3eaa316898a0f05d520876e87",
          "reqSigs": 1,
          "type": "scripthash",
          "addresses": [
            "QjnvszZxXTcUm3RmZseSbMaiZ5GhayV8j4"
          ]
        }
      },
      {
        "value": 23.999668,
        "n": 1,
        "scriptPubKey": {
          "asm": "OP_HASH160 79f5666d3920f7d30b79613abcebd23555b519a4 OP_EQUAL",
          "hex": "a91479f5666d3920f7d30b79613abcebd23555b519a487",
          "reqSigs": 1,
          "type": "scripthash",
          "addresses": [
            "QXiqrD3iZvNDrpquT5y3cACiD7miaGTgVG"
          ]
        }
      }
    ],
    "hex": "020000000001011c5c31d80203b598200a88389c5a4feeb51b60e76b41f0eddbdeab52b70324120000000017160014a0058104a01eb9f0714727162ff61c5f66ae562ffeffffff0200e1f5050000000017a914fe5cc5d87e3348a5f3eaa316898a0f05d520876e8750960c8f0000000017a91479f5666d3920f7d30b79613abcebd23555b519a4870247304402203731feca43f1c895c3d77cb66ca93b84650aa5d4b1c108a424c15df11d29d09802202bcc107ca749a7e7ec9a6ae968244d2f415b1d0dd054ce029f98a692ef9c757b0121034b64d3c37dfc1b0fcfa0db3fe88e44e2893f19eaa2746908aa67a3c347d0d2ad2d010000"
  },
  "inputs": [
    {
      "txid": "122403b752abdedbedf0416be7601bb5ee4f5a9c38880a2098b50302d8315c1c",
      "hash": "fce97c52aa95cfafed2e15dbaff8326877328573c4216552d6d8cf12f0a77838",
      "version": 2,
      "size": 171,
      "vsize": 144,
      "weight": 576,
      "locktime": 0,
      "vin": [
        {
          "coinbase": "0297000101",
          "sequence": 4294967295
        }
      ],
      "vout": [
        {
          "value": 25,
          "n": 0,
          "scriptPubKey": {
            "asm": "OP_HASH160 f7d6a7ef3a8f1aabcdcac37aca34e57ad9fb6829 OP_EQUAL",
            "hex": "a914f7d6a7ef3a8f1aabcdcac37aca34e57ad9fb682987",
            "reqSigs": 1,
            "type": "scripthash",
            "addresses": [
              "QjCSAEvn1ERr4F5uEHES9dGTYYQWqZxbkc"
            ]
          }
        },
        {
          "value": 0,
          "n": 1,
          "scriptPubKey": {
            "asm": "OP_RETURN aa21a9ede2f61c3f71d1defd3fa999dfa36953755c690689799962b48bebd836974e8cf9",
            "hex": "6a24aa21a9ede2f61c3f71d1defd3fa999dfa36953755c690689799962b48bebd836974e8cf9",
            "type": "nulldata"
          }
        }
      ],
      "hex": "020000000001010000000000000000000000000000000000000000000000000000000000000000ffffffff050297000101ffffffff0200f902950000000017a914f7d6a7ef3a8f1aabcdcac37aca34e57ad9fb6829870000000000000000266a24aa21a9ede2f61c3f71d1defd3fa999dfa36953755c690689799962b48bebd836974e8cf90120000000000000000000000000000000000000000000000000000000000000000000000000",
      "blockhash": "f68f1fda97cc6a8d794cbd908cf8c3b9ee3c0174b7f61b87b3a9619cbb258bb8",
      "confirmations": 151,
      "time": 1640270140,
      "blocktime": 1640270140
    }
  ]
}