{
  "transaction": {
    "txid": "2e8e80f09ce8b8a4885a481c136ba7b75aaeee45bbaeb5ed2d288b6bde557f28",
    "hash": "4ac2ac7a2d7814920a4402b2ea7a5d543abb9142681a78a01eb48d3ae8066482",
    "version": 2,
    "size": 247,
    "vsize": 166,
    "weight": 661,
    "locktime": 301,
    "vin": [
      {
        "txid": "355f9e577bcc0d23fd163e9510ae0913f675176c3ee396168c9a79f82608597c",
        "vout": 0,
        "scriptSig": {
          "asm": "0014a0058104a01eb9f0714727162ff61c5f66ae562f",
          "hex": "160014a0058104a01eb9f0714727162ff61c5f66ae562f"
        },
        "txinwitness": [
          "304402200934c020c2a3177c53c9a0b0a271e706658c530bc8389bab20763e753b015630022063da52be80059194a6811724feed8a928ef5ba91a58d5cf0c1569399a610abe701",
          "034b64d3c37dfc1b0fcfa0db3fe88e44e2893f19eaa2746908aa67a3c347d0d2ad"
        ],
        "sequence": 4294967294
      }
    ],
    "vout": [
      {
        "value": 1,
        "n": 0,
        "scriptPubKey": {
          "asm": "OP_HASH160 2280193aca8462021ec369d4e2ff1c95741fba7f OP_EQUAL",
          "hex": "a9142280193aca8462021ec369d4e2ff1c95741fba7f87",
          "reqSigs": 1,
          "type": "scripthash",
          "addresses": [
            "QPkQYGJWZQtEKiZXemzsSWkB1wo6o6yGyu"
          ]
        }
      },
      {
        "value": 23.999668,
        "n": 1,
        "scriptPubKey": {
          "asm": "OP_HASH160 c7064c914acffb178c7b2b8f281d26d9a7734fc2 OP_EQUAL",
          "hex": "a914c7064c914acffb178c7b2b8f281d26d9a7734fc287",
          "reqSigs": 1,
          "type": "scripthash",
          "addresses": [
            "QekL89B1sDdQRTHeUrkoWPDwuh4NtiW2YH"
          ]
        }
      }
    ],
    "hex": "020000000001017c590826f8799a8c1696e33e6c1775f61309ae10953e16fd230dcc7b579e5f350000000017160014a0058104a01eb9f0714727162ff61c5f66ae562ffeffffff0200e1f5050000000017a9142280193aca8462021ec369d4e2ff1c95741fba7f8750960c8f0000000017a914c7064c914acffb178c7b2b8f281d26d9a7734fc2870247304402200934c020c2a3177c53c9a0b0a271e706658c530bc8389bab20763e753b015630022063da52be80059194a6811724feed8a928ef5ba91a58d5cf0c1569399a610abe70121034b64d3c37dfc1b0fcfa0db3fe88e44e2893f19eaa2746908aa67a3c347d0d2ad2d010000"
  },
  "inputs": [
    {
      "txid": "355f9e577bcc0d23fd163e9510ae0913f675176c3ee396168c9a79f82608597c",
      "hash": "f981a5211c2a5fa4e14039835ad15519116488f301ea97569340260792b40892",
      "version": 2,
      "size": 171,
      "vsize": 144,
      "weight": 576,
      "locktime": 0,
      "vin": [
        {
          "coinbase": "029a000101",
          "sequence": 4294967295
        }
      ],
      "vout": [
        {
          "value": 25,
          "n": 0,
          "scriptPubKey": {
            "asm": "OP_HASH160 f7d6a7ef3a8f1aabcdcac37aca34e57ad9fb6829 OP_EQUAL",
            "hex": "a914f7d6a7ef3a8f1aabcdcac37aca34e57ad9fb682987",
            "reqSigs": 1,
            "type": "scripthash",
            "addresses": [
              "QjCSAEvn1ERr4F5uEHES9dGTYYQWqZxbkc"
            ]
          }
        },
        {
          "value": 0,
          "n": 1,
          "scriptPubKey": {
            "asm": "OP_RETURN aa21a9ede2f61c3f71d1defd3fa999dfa36953755c690689799962b48bebd836974e8cf9",
            "hex": "6a24aa21a9ede2f61c3f71d1defd3fa999dfa36953755c690689799962b48bebd836974e8cf9",
            "type": "nulldata"
          }
        }
      ],
      "hex": "020000000001010000000000000000000000000000000000000000000000000000000000000000ffffffff05029a000101ffffffff0200f902950000000017a914f7d6a7ef3a8f1aabcdcac37aca34e57ad9fb6829870000000000000000266a24aa21a9ede2f61c3f71d1defd3fa999dfa36953755c690689799962b48bebd836974e8cf90120000000000000000000000000000000000000000000000000000000000000000000000000",
      "blockhash": "02c82bd6473915acff53baa213969369d16198ba925554fb0b9b9d951fc6d58f",
      "confirmations": 148,
      "time": 1640270141,
      "blocktime": 1640270141
    }
  ]
}