{
  "transaction": {
    "txid": "7d33500ccd7411414e271cc5b8f072596ac2deae37eb16fa0f30d0bc0a09b7a2",
    "hash": "84d76e25279a1eede7b9fa84acbd7326c30fcd2ad42c6e301ecadf302cb3396b",
    "version": 2,
    "size": 257,
    "vsize": 176,
    "weight": 701,
    "locktime": 298,
    "vin": [
      {
        "txid": "107372d5af0a96f4242de976779c35853930a8f39cb5d342426b1ff7818d915e",
        "vout": 0,
        "scriptSig": {
          "asm": "0014a0058104a01eb9f0714727162ff61c5f66ae562f",
          "hex": "160014a0058104a01eb9f0714727162ff61c5f66ae562f"
        },
        "txinwitness": [
          "3044022060a364a36e630dc55348eaa4d227da389960a04de12ef04b5d417c921f3eeb0802204d0a748dadcf6820b323d5cf7861dbd0257fe347e12bbcbfa7c96902465e72ee01",
          "034b64d3c37dfc1b0fcfa0db3fe88e44e2893f19eaa2746908aa67a3c347d0d2ad"
        ],
        "sequence": 4294967294
      }
    ],
    "vout": [
      {
        "value": 1,
        "n": 0,
        "scriptPubKey": {
          "asm": "0 1553f31a3e25e770b7bc857b82909e83734dbfe4bcdb5a5e6fc419b6920c398a",
          "hex": "00201553f31a3e25e770b7bc857b82909e83734dbfe4bcdb5a5e6fc419b6920c398a",
          "reqSigs": 1,
          "type": "witness_v0_scripthash",
          "addresses": [
            "rltc1qz4flxx37yhnhpdaus4ac9yy7sde5m0lyhnd45hn0csvmdysv8x9qtazavf"
          ]
        }
      },
      {
        "value": 23.999648,
        "n": 1,
        "scriptPubKey": {
          "asm": "0 03447eae1a09b8fcbfff4863a303257151e43be5",
          "hex": "001403447eae1a09b8fcbfff4863a303257151e43be5",
          "reqSigs": 1,
          "type": "witness_v0_keyhash",
          "addresses": [
            "rltc1qqdz8ats6pxu0e0llfp36xqe9w9g7gwl93mecaw"
          ]
        }
      }
    ],
    "hex": "020000000001015e918d81f71f6b4242d3b59cf3a8303985359c7776e92d24f4960aafd57273100000000017160014a0058104a01eb9f0714727162ff61c5f66ae562ffeffffff0200e1f505000000002200201553f31a3e25e770b7bc857b82909e83734dbfe4bcdb5a5e6fc419b6920c398a808e0c8f0000000016001403447eae1a09b8fcbfff4863a303257151e43be502473044022060a364a36e630dc55348eaa4d227da389960a04de12ef04b5d417c921f3eeb0802204d0a748dadcf6820b323d5cf7861dbd0257fe347e12bbcbfa7c96902465e72ee0121034b64d3c37dfc1b0fcfa0db3fe88e44e2893f19eaa2746908aa67a3c347d0d2ad2a010000"
  },
  "inputs": [
    {
      "txid": "107372d5af0a96f4242de976779c35853930a8f39cb5d342426b1ff7818d915e",
      "hash": "404a872bb0580cd9ec958a317a274bac8091863242b700efe8fe04a316dd06b6",
      "version": 2,
      "size": 171,
      "vsize": 144,
      "weight": 576,
      "locktime": 0,
      "vin": [
        {
          "coinbase": "029b000101",
          "sequence": 4294967295
        }
      ],
      "vout": [
        {
          "value": 25,
          "n": 0,
          "scriptPubKey": {
            "asm": "OP_HASH160 f7d6a7ef3a8f1aabcdcac37aca34e57ad9fb6829 OP_EQUAL",
            "hex": "a914f7d6a7ef3a8f1aabcdcac37aca34e57ad9fb682987",
            "reqSigs": 1,
            "type": "scripthash",
            "addresses": [
              "QjCSAEvn1ERr4F5uEHES9dGTYYQWqZxbkc"
            ]
          }
        },
        {
          "value": 0,
          "n": 1,
          "scriptPubKey": {
            "asm": "OP_RETURN aa21a9ede2f61c3f71d1defd3fa999dfa36953755c690689799962b48bebd836974e8cf9",
            "hex": "6a24aa21a9ede2f61c3f71d1defd3fa999dfa36953755c690689799962b48bebd836974e8cf9",
            "type": "nulldata"
          }
        }
      ],
      "hex": "020000000001010000000000000000000000000000000000000000000000000000000000000000ffffffff05029b000101ffffffff0200f902950000000017a914f7d6a7ef3a8f1aabcdcac37aca34e57ad9fb6829870000000000000000266a24aa21a9ede2f61c3f71d1defd3fa999dfa36953755c690689799962b48bebd836974e8cf90120000000000000000000000000000000000000000000000000000000000000000000000000",
      "blockhash": "bce85a7f3bef4e5c9fa0b612eb8a84ef54e9ae36ba710d1b110dea9373bbadde",
      "confirmations": 147,
      "time": 1640270141,
      "blocktime": 1640270141
    }
  ]
}