{
  "transaction": {
    "txid": "e564a2c063730f4748328ca9955629fc73a3329fb287b712b10235451cac8275",
    "hash": "e564a2c063730f4748328ca9955629fc73a3329fb287b712b10235451cac8275",
    "version": 1,
    "size": 635,
    "vsize": 635,
    "weight": 2540,
    "locktime": 0,
    "vin": [
      {
        "txid": "003dc6255d06a2120f459a68b797f5b1e4083f550c9f58898f855d075541b245",
        "vout": 0,
        "scriptSig": {
          "asm": "0 3045022100da865ad9ae8cf1b7c57c663321f220a3a49e7b46f79010a396e5b88d71671c2802206b867c65f3d8a7420f2a711cbe8373a8b62054422b2134acee7b860e6101cb94[ALL] 30440220203ee7438c265ec61103ac4e7467196b4e6ac79c39204de158bce00eb74ba2f2022027d82e6b6ad433ce62ca2a8c893ccb752b58b0ad5b6a9e7cc24b3fd152b2ba15[ALL] 5221028fedaf75b5b08cddf3bf4631c658b68ee6766a8e999467a641d7cb7aaaecec972103316bc27d95b96418349afc6298c259bb999c6e8f39a7217787ad53602be7c1472102e21c29b4a7eeace9c7a8cefb568ca00c86ff9bf5e79e07e5442c29d4a0950d0453ae",
          "hex": "00483045022100da865ad9ae8cf1b7c57c663321f220a3a49e7b46f79010a396e5b88d71671c2802206b867c65f3d8a7420f2a711cbe8373a8b62054422b2134acee7b860e6101cb94014730440220203ee7438c265ec61103ac4e7467196b4e6ac79c39204de158bce00eb74ba2f2022027d82e6b6ad433ce62ca2a8c893ccb752b58b0ad5b6a9e7cc24b3fd152b2ba15014c695221028fedaf75b5b08cddf3bf4631c658b68ee6766a8e999467a641d7cb7aaaecec972103316bc27d95b96418349afc6298c259bb999c6e8f39a7217787ad53602be7c1472102e21c29b4a7eeace9c7a8cefb568ca00c86ff9bf5e79e07e5442c29d4a0950d0453ae"
        },
        "sequence": 4294967295
      },
      {
        "txid": "b9c34fb6e8c23f7cd849d59e91dfe8becdac1bdeab9a8298256aa8f98c806674",
        "vout": 1,
        "scriptSig": {
          "asm": "0 304502210091136e6553999977e95fe9b9881af37322257158d43326b8e1c2a5614eebc3f902201e42ac9dba7c22ccd3cfa27429394702776ecf49cd4f1333d813ba4780c64587[ALL] 30450221008a0430b6d6509ed065aaf465def14a89ba06697cf40da623f384ad20d096928a0220317dd8879a1884f6f9f25bfa5e99f6a27df4c3d920901c6a489f0da476af9abc[ALL] 5221028fedaf75b5b08cddf3bf4631c658b68ee6766a8e999467a641d7cb7aaaecec972103316bc27d95b96418349afc6298c259bb999c6e8f39a7217787ad53602be7c1472102e21c29b4a7eeace9c7a8cefb568ca00c86ff9bf5e79e07e5442c29d4a0950d0453ae",
          "hex": "0048304502210091136e6553999977e95fe9b9881af37322257158d43326b8e1c2a5614eebc3f902201e42ac9dba7c22ccd3cfa27429394702776ecf49cd4f1333d813ba4780c64587014830450221008a0430b6d6509ed065aaf465def14a89ba06697cf40da623f384ad20d096928a0220317dd8879a1884f6f9f25bfa5e99f6a27df4c3d920901c6a489f0da476af9abc014c695221028fedaf75b5b08cddf3bf4631c658b68ee6766a8e999467a641d7cb7aaaecec972103316bc27d95b96418349afc6298c259bb999c6e8f39a7217787ad53602be7c1472102e21c29b4a7eeace9c7a8cefb568ca00c86ff9bf5e79e07e5442c29d4a0950d0453ae"
        },
        "sequence": 4294967295
      }
    ],
    "vout": [
      {
        "value": 1.99999,
        "n": 0,
        "scriptPubKey": {
          "asm": "OP_HASH160 fe5cc5d87e3348a5f3eaa316898a0f05d520876e OP_EQUAL",
          "hex": "a914fe5cc5d87e3348a5f3eaa316898a0f05d520876e87",
          "reqSigs": 1,
          "type": "scripthash",
          "addresses": [
            "QjnvszZxXTcUm3RmZseSbMaiZ5GhayV8j4"
          ]
        }
      }
    ],
    "hex": "010000000245b24155075d858f89589f0c553f08e4b1f597b7689a450f12a2065d25c63d0000000000fdfd0000483045022100da865ad9ae8cf1b7c57c663321f220a3a49e7b46f79010a396e5b88d71671c2802206b867c65f3d8a7420f2a711cbe8373a8b62054422b2134acee7b860e6101cb94014730440220203ee7438c265ec61103ac4e7467196b4e6ac79c39204de158bce00eb74ba2f2022027d82e6b6ad433ce62ca2a8c893ccb752b58b0ad5b6a9e7cc24b3fd152b2ba15014c695221028fedaf75b5b08cddf3bf4631c658b68ee6766a8e999467a641d7cb7aaaecec972103316bc27d95b96418349afc6298c259bb999c6e8f39a7217787ad53602be7c1472102e21c29b4a7eeace9c7a8cefb568ca00c86ff9bf5e79e07e5442c29d4a0950d0453aeffffffff7466808cf9a86a2598829aabde1baccdbee8df919ed549d87c3fc2e8b64fc3b901000000fdfe000048304502210091136e6553999977e95fe9b9881af37322257158d43326b8e1c2a5614eebc3f902201e42ac9dba7c22ccd3cfa27429394702776ecf49cd4f1333d813ba4780c64587014830450221008a0430b6d6509ed065aaf465def14a89ba06697cf40da623f384ad20d096928a0220317dd8879a1884f6f9f25bfa5e99f6a27df4c3d920901c6a489f0da476af9abc014c695221028fedaf75b5b08cddf3bf4631c658b68ee6766a8e999467a641d7cb7aaaecec972103316bc27d95b96418349afc6298c259bb999c6e8f39a7217787ad53602be7c1472102e21c29b4a7eeace9c7a8cefb568ca00c86ff9bf5e79e07e5442c29d4a0950d0453aeffffffff0118beeb0b0000000017a914fe5cc5d87e3348a5f3eaa316898a0f05d520876e8700000000"
  },
  "inputs": [
    {
      "txid": "003dc6255d06a2120f459a68b797f5b1e4083f550c9f58898f855d075541b245",
      "hash": "ceebadb97916fa7975f9c2446dbe99337a2ac150482859ef711f11748c5dc1e8",
      "version": 2,
      "size": 247,
      "vsize": 166,
      "weight": 661,
      "locktime": 301,
      "vin": [
        {
          "txid": "122403b752abdedbedf0416be7601bb5ee4f5a9c38880a2098b50302d8315c1c",
          "vout": 0,
          "scriptSig": {
            "asm": "0014a0058104a01eb9f0714727162ff61c5f66ae562f",
            "hex": "160014a0058104a01eb9f0714727162ff61c5f66ae562f"
          },
          "txinwitness": [
            "304402203731feca43f1c895c3d77cb66ca93b84650aa5d4b1c108a424c15df11d29d09802202bcc107ca749a7e7ec9a6ae968244d2f415b1d0dd054ce029f98a692ef9c757b01",
            "034b64d3c37dfc1b0fcfa0db3fe88e44e2893f19eaa2746908aa67a3c347d0d2ad"
          ],
          "sequence": 4294967294
        }
      ],
      "vout": [
        {
          "value": 1,
          "n": 0,
          "scriptPubKey": {
            "asm": "OP_HASH160 fe5cc5d87e3348a5f3eaa316898a0f05d520876e OP_EQUAL",
            "hex": "a914fe5cc5d87e3348a5f3eaa316898a0f05d520876e87",
            "reqSigs": 1,
            "type": "scripthash",
            "addresses": [
              "QjnvszZxXTcUm3RmZseSbMaiZ5GhayV8j4"
            ]
          }
        },
        {
          "value": 23.999668,
          "n": 1,
          "scriptPubKey": {
            "asm": "OP_HASH160 79f5666d3920f7d30b79613abcebd23555b519a4 OP_EQUAL",
            "hex": "a91479f5666d3920f7d30b79613abcebd23555b519a487",
            "reqSigs": 1,
            "type": "scripthash",
            "addresses": [
              "QXiqrD3iZvNDrpquT5y3cACiD7miaGTgVG"
            ]
          }
        }
      ],
      "hex": "020000000001011c5c31d80203b598200a88389c5a4feeb51b60e76b41f0eddbdeab52b70324120000000017160014a0058104a01eb9f0714727162ff61c5f66ae562ffeffffff0200e1f5050000000017a914fe5cc5d87e3348a5f3eaa316898a0f05d520876e8750960c8f0000000017a91479f5666d3920f7d30b79613abcebd23555b519a4870247304402203731feca43f1c895c3d77cb66ca93b84650aa5d4b1c108a424c15df11d29d09802202bcc107ca749a7e7ec9a6ae968244d2f415b1d0dd054ce029f98a692ef9c757b0121034b64d3c37dfc1b0fcfa0db3fe88e44e2893f19eaa2746908aa67a3c347d0d2ad2d010000"
    },
    {
      "txid": "b9c34fb6e8c23f7cd849d59e91dfe8becdac1bdeab9a8298256aa8f98c806674",
      "hash": "83f8bec675c82f1715fe3ba518aae2f49be0bb13350b2668d0f2bf755799a78e",
      "version": 2,
      "size": 247,
      "vsize": 166,
      "weight": 661,
      "locktime": 301,
      "vin": [
        {
          "txid": "b6ced686ac90ced90fe4b5d293d6ed62ef57486e7db2caa8f848416a74a2602a",
          "vout": 0,
          "scriptSig": {
            "asm": "0014a0058104a01eb9f0714727162ff61c5f66ae562f",
            "hex": "160014a0058104a01eb9f0714727162ff61c5f66ae562f"
          },
          "txinwitness": [
            "304402203b43c5ecbc2b40ce71fb25c29d4067afccd43ff9135095ccf2ae10cbd8d47c09022051f0570ab671445394919601c7ac5b0148521d6d1a7c90370f9abd415cdd916401",
            "034b64d3c37dfc1b0fcfa0db3fe88e44e2893f19eaa2746908aa67a3c347d0d2ad"
          ],
          "sequence": 4294967294
        }
      ],
      "vout": [
        {
          "value": 23.999668,
          "n": 0,
          "scriptPubKey": {
            "asm": "OP_HASH160 968e9dc3e539ab2b9368bd039c17b913749b8e26 OP_EQUAL",
            "hex": "a914968e9dc3e539ab2b9368bd039c17b913749b8e2687",
            "reqSigs": 1,
            "type": "scripthash",
            "addresses": [
              "QaL4KE3Hoa7aQmvBKXz1fSwmbhD1gG7aqN"
            ]
          }
        },
        {
          "value": 1,
          "n": 1,
          "scriptPubKey": {
            "asm": "OP_HASH160 fe5cc5d87e3348a5f3eaa316898a0f05d520876e OP_EQUAL",
            "hex": "a914fe5cc5d87e3348a5f3eaa316898a0f05d520876e87",
            "reqSigs": 1,
            "type": "scripthash",
            "addresses": [
              "QjnvszZxXTcUm3RmZseSbMaiZ5GhayV8j4"
            ]
          }
        }
      ],
      "hex": "020000000001012a60a2746a4148f8a8cab27d6e4857ef62edd693d2b5e40fd9ce90ac86d6ceb60000000017160014a0058104a01eb9f0714727162ff61c5f66ae562ffeffffff0250960c8f0000000017a914968e9dc3e539ab2b9368bd039c17b913749b8e268700e1f5050000000017a914fe5cc5d87e3348a5f3eaa316898a0f05d520876e870247304402203b43c5ecbc2b40ce71fb25c29d4067afccd43ff9135095ccf2ae10cbd8d47c09022051f0570ab671445394919601c7ac5b0148521d6d1a7c90370f9abd415cdd91640121034b64d3c37dfc1b0fcfa0db3fe88e44e2893f19eaa2746908aa67a3c347d0d2ad2d010000"
    }
  ]
}