{
  "transaction": {
    "txid": "40d3999b1165afd699d2e84963b2d9105942fd8a70c6d4f33d3a581c52afec2d",
    "hash": "93f795f6a19c94fd870c18f60908ffd2f841ff084aa29e7a45fe82a77b34aecd",
    "version": 1,
    "size": 702,
    "vsize": 321,
    "weight": 1284,
    "locktime": 0,
    "vin": [
      {
        "txid": "2e8e80f09ce8b8a4885a481c136ba7b75aaeee45bbaeb5ed2d288b6bde557f28",
        "vout": 0,
        "scriptSig": {
          "asm": "00201553f31a3e25e770b7bc857b82909e83734dbfe4bcdb5a5e6fc419b6920c398a",
          "hex": "2200201553f31a3e25e770b7bc857b82909e83734dbfe4bcdb5a5e6fc419b6920c398a"
        },
        "txinwitness": [
          "",
          "304402204b2fabebf4cbddd628259fee6b4221a0d565608ae98805e8c491870a5536edf8022057b2399ab0e0a7ab697400d2fd6c61d455eb16c9970c8b86b280801499f2628901",
          "3045022100c41b7983ad5a7a616df988e3f8ae02a4cfdc772040310ce2a6719c924ce61f570220629be6ea6a66687c638fcf2e78b3fce606adf99decd2194f0fb354ed45e2605801",
          "5221028fedaf75b5b08cddf3bf4631c658b68ee6766a8e999467a641d7cb7aaaecec972103316bc27d95b96418349afc6298c259bb999c6e8f39a7217787ad53602be7c1472102e21c29b4a7eeace9c7a8cefb568ca00c86ff9bf5e79e07e5442c29d4a0950d0453ae"
        ],
        "sequence": 4294967295
      },
      {
        "txid": "59a7f4f56b9accf8132d1e77f95968b264d002141d8873c26042449c7933e9e1",
        "vout": 0,
        "scriptSig": {
          "asm": "00201553f31a3e25e770b7bc857b82909e83734dbfe4bcdb5a5e6fc419b6920c398a",
          "hex": "2200201553f31a3e25e770b7bc857b82909e83734dbfe4bcdb5a5e6fc419b6920c398a"
        },
        "txinwitness": [
          "",
          "304402200ae7a592c116f33f72b2a47b2fadc32a480d224678a986a97db1377a4fee745402203319b940983e4da944b38023c95018931fc91722eaa82273616fbb281bbcfa6901",
          "304502210092b63da21b5ca56712ffb371858773e8f73a770a4d964e412588ecd11072326602206c6807c7834b7628d67a409692d1e2812dd7f65547fbf40260c1b2f3f3da9ae401",
          "5221028fedaf75b5b08cddf3bf4631c658b68ee6766a8e999467a641d7cb7aaaecec972103316bc27d95b96418349afc6298c259bb999c6e8f39a7217787ad53602be7c1472102e21c29b4a7eeace9c7a8cefb568ca00c86ff9bf5e79e07e5442c29d4a0950d0453ae"
        ],
        "sequence": 4294967295
      }
    ],
    "vout": [
      {
        "value": 1.99999,
        "n": 0,
        "scriptPubKey": {
          "asm": "OP_HASH160 2280193aca8462021ec369d4e2ff1c95741fba7f OP_EQUAL",
          "hex": "a9142280193aca8462021ec369d4e2ff1c95741fba7f87",
          "reqSigs": 1,
          "type": "scripthash",
          "addresses": [
            "QPkQYGJWZQtEKiZXemzsSWkB1wo6o6yGyu"
          ]
        }
      }
    ],
    "hex": "01000000000102287f55de6b8b282dedb5aebb45eeae5ab7a76b131c485a88a4b8e89cf0808e2e00000000232200201553f31a3e25e770b7bc857b82909e83734dbfe4bcdb5a5e6fc419b6920c398affffffffe1e933799c444260c273881d1402d064b26859f9771e2d13f8cc9a6bf5f4a75900000000232200201553f31a3e25e770b7bc857b82909e83734dbfe4bcdb5a5e6fc419b6920c398affffffff0118beeb0b0000000017a9142280193aca8462021ec369d4e2ff1c95741fba7f87040047304402204b2fabebf4cbddd628259fee6b4221a0d565608ae98805e8c491870a5536edf8022057b2399ab0e0a7ab697400d2fd6c61d455eb16c9970c8b86b280801499f2628901483045022100c41b7983ad5a7a616df988e3f8ae02a4cfdc772040310ce2a6719c924ce61f570220629be6ea6a66687c638fcf2e78b3fce606adf99decd2194f0fb354ed45e2605801695221028fedaf75b5b08cddf3bf4631c658b68ee6766a8e999467a641d7cb7aaaecec972103316bc27d95b96418349afc6298c259bb999c6e8f39a7217787ad53602be7c1472102e21c29b4a7eeace9c7a8cefb568ca00c86ff9bf5e79e07e5442c29d4a0950d0453ae040047304402200ae7a592c116f33f72b2a47b2fadc32a480d224678a986a97db1377a4fee745402203319b940983e4da944b38023c95018931fc91722eaa82273616fbb281bbcfa690148304502210092b63da21b5ca56712ffb371858773e8f73a770a4d964e412588ecd11072326602206c6807c7834b7628d67a409692d1e2812dd7f65547fbf40260c1b2f3f3da9ae401695221028fedaf75b5b08cddf3bf4631c658b68ee6766a8e999467a641d7cb7aaaecec972103316bc27d95b96418349afc6298c259bb999c6e8f39a7217787ad53602be7c1472102e21c29b4a7eeace9c7a8cefb568ca00c86ff9bf5e79e07e5442c29d4a0950d0453ae00000000"
  },
  "inputs": [
    {
      "txid": "2e8e80f09ce8b8a4885a481c136ba7b75aaeee45bbaeb5ed2d288b6bde557f28",
      "hash": "4ac2ac7a2d7814920a4402b2ea7a5d543abb9142681a78a01eb48d3ae8066482",
      "version": 2,
      "size": 247,
      "vsize": 166,
      "weight": 661,
      "locktime": 301,
      "vin": [
        {
          "txid": "355f9e577bcc0d23fd163e9510ae0913f675176c3ee396168c9a79f82608597c",
          "vout": 0,
          "scriptSig": {
            "asm": "0014a0058104a01eb9f0714727162ff61c5f66ae562f",
            "hex": "160014a0058104a01eb9f0714727162ff61c5f66ae562f"
          },
          "txinwitness": [
            "304402200934c020c2a3177c53c9a0b0a271e706658c530bc8389bab20763e753b015630022063da52be80059194a6811724feed8a928ef5ba91a58d5cf0c1569399a610abe701",
            "034b64d3c37dfc1b0fcfa0db3fe88e44e2893f19eaa2746908aa67a3c347d0d2ad"
          ],
          "sequence": 4294967294
        }
      ],
      "vout": [
        {
          "value": 1,
          "n": 0,
          "scriptPubKey": {
            "asm": "OP_HASH160 2280193aca8462021ec369d4e2ff1c95741fba7f OP_EQUAL",
            "hex": "a9142280193aca8462021ec369d4e2ff1c95741fba7f87",
            "reqSigs": 1,
            "type": "scripthash",
            "addresses": [
              "QPkQYGJWZQtEKiZXemzsSWkB1wo6o6yGyu"
            ]
          }
        },
        {
          "value": 23.999668,
          "n": 1,
          "scriptPubKey": {
            "asm": "OP_HASH160 c7064c914acffb178c7b2b8f281d26d9a7734fc2 OP_EQUAL",
            "hex": "a914c7064c914acffb178c7b2b8f281d26d9a7734fc287",
            "reqSigs": 1,
            "type": "scripthash",
            "addresses": [
              "QekL89B1sDdQRTHeUrkoWPDwuh4NtiW2YH"
            ]
          }
        }
      ],
      "hex": "020000000001017c590826f8799a8c1696e33e6c1775f61309ae10953e16fd230dcc7b579e5f350000000017160014a0058104a01eb9f0714727162ff61c5f66ae562ffeffffff0200e1f5050000000017a9142280193aca8462021ec369d4e2ff1c95741fba7f8750960c8f0000000017a914c7064c914acffb178c7b2b8f281d26d9a7734fc2870247304402200934c020c2a3177c53c9a0b0a271e706658c530bc8389bab20763e753b015630022063da52be80059194a6811724feed8a928ef5ba91a58d5cf0c1569399a610abe70121034b64d3c37dfc1b0fcfa0db3fe88e44e2893f19eaa2746908aa67a3c347d0d2ad2d010000"
    },
    {
      "txid": "59a7f4f56b9accf8132d1e77f95968b264d002141d8873c26042449c7933e9e1",
      "hash": "6189e4d6ba9f117b8cd33a0d70bc09b8d8043b14e102b11e1d726b13172f8cf1",
      "version": 2,
      "size": 247,
      "vsize": 166,
      "weight": 661,
      "locktime": 301,
      "vin": [
        {
          "txid": "43138abcaab8253da44a624939a9595a44c3bbe00908638043f03ae59e8ef32c",
          "vout": 0,
          "scriptSig": {
            "asm": "0014a0058104a01eb9f0714727162ff61c5f66ae562f",
            "hex": "160014a0058104a01eb9f0714727162ff61c5f66ae562f"
          },
          "txinwitness": [
            "3044022062b1c0a28dcbd2ed5a8370f8679ea968191b4a4e94d0685f5460839e76b0e555022033f4859edca8433d2f467d12d959ceef191fab488eb23506eb4077e7ae4f71b301",
            "034b64d3c37dfc1b0fcfa0db3fe88e44e2893f19eaa2746908aa67a3c347d0d2ad"
          ],
          "sequence": 4294967294
        }
      ],
      "vout": [
        {
          "value": 1,
          "n": 0,
          "scriptPubKey": {
            "asm": "OP_HASH160 2280193aca8462021ec369d4e2ff1c95741fba7f OP_EQUAL",
            "hex": "a9142280193aca8462021ec369d4e2ff1c95741fba7f87",
            "reqSigs": 1,
            "type": "scripthash",
            "addresses": [
              "QPkQYGJWZQtEKiZXemzsSWkB1wo6o6yGyu"
            ]
          }
        },
        {
          "value": 23.999668,
          "n": 1,
          "scriptPubKey": {
            "asm": "OP_HASH160 2f5a36a0aad41df013599ea7a79b41efa628ad15 OP_EQUAL",
            "hex": "a9142f5a36a0aad41df013599ea7a79b41efa628ad1587",
            "reqSigs": 1,
            "type": "scripthash",
            "addresses": [
              "QQvMwT7gYnChPkhi6hFSf3WpbLTR8S1Ta5"
            ]
          }
        }
      ],
      "hex": "020000000001012cf38e9ee53af04380630809e0bbc3445a59a93949624aa43d25b8aabc8a13430000000017160014a0058104a01eb9f0714727162ff61c5f66ae562ffeffffff0200e1f5050000000017a9142280193aca8462021ec369d4e2ff1c95741fba7f8750960c8f0000000017a9142f5a36a0aad41df013599ea7a79b41efa628ad158702473044022062b1c0a28dcbd2ed5a8370f8679ea968191b4a4e94d0685f5460839e76b0e555022033f4859edca8433d2f467d12d959ceef191fab488eb23506eb4077e7ae4f71b30121034b64d3c37dfc1b0fcfa0db3fe88e44e2893f19eaa2746908aa67a3c347d0d2ad2d010000"
    }
  ]
}