{
  "transaction": {
    "txid": "be993722a7ed1a08d0c86d8e5b095e70747c635e4e8c7ec7d7894b86448b68de",
    "hash": "cad6ede8f3cebfc32fa94407d890dde9b643e06ae8400721a1b2551eba394212",
    "version": 1,
    "size": 642,
    "vsize": 262,
    "weight": 1047,
    "locktime": 0,
    "vin": [
      {
        "txid": "7d33500ccd7411414e271cc5b8f072596ac2deae37eb16fa0f30d0bc0a09b7a2",
        "vout": 0,
        "scriptSig": {
          "asm": "",
          "hex": ""
        },
        "txinwitness": [
          "",
          "30450221008697fe88ddc35bcf332ba4e808a1a45bec40f7979ea94b968e0b0d801d95431902207b682de2bd59e2e12ad0c2516851042246f37b0d57cebbaf4af4c457b27a32b901",
          "304402207b5866793c7f0f16cdb9c01c05b09700e225b73c3ed73e579a9e6c25e3ee6bb1022030412359e5ceaa0b5f2d60e9e76af9b43120e7b462239a28e6a3f481dd54a34901",
          "5221028fedaf75b5b08cddf3bf4631c658b68ee6766a8e999467a641d7cb7aaaecec972103316bc27d95b96418349afc6298c259bb999c6e8f39a7217787ad53602be7c1472102e21c29b4a7eeace9c7a8cefb568ca00c86ff9bf5e79e07e5442c29d4a0950d0453ae"
        ],
        "sequence": 4294967295
      },
      {
        "txid": "541f9994c14d98cdd552ef3825d791d934bd31728f74f74e7b5c71d1bfc7077e",
        "vout": 0,
        "scriptSig": {
          "asm": "",
          "hex": ""
        },
        "txinwitness": [
          "",
          "304402206e0bc7c7f7bbe90a465e373b29ac2f897656fdb5c3db0825065cc917583ef6e002205a67b3e252f4f462d98935d77dd7b78991b9b333e69a291cbdaa4fc0986373ba01",
          "3044022010e84fea350dfe133848d15f15455fb4f749ad324d1d2cada641b4581419575b02202ae65562bdc81a3aac8619c1148099523bf8708211720801813496b83bf26d8001",
          "5221028fedaf75b5b08cddf3bf4631c658b68ee6766a8e999467a641d7cb7aaaecec972103316bc27d95b96418349afc6298c259bb999c6e8f39a7217787ad53602be7c1472102e21c29b4a7eeace9c7a8cefb568ca00c86ff9bf5e79e07e5442c29d4a0950d0453ae"
        ],
        "sequence": 4294967295
      }
    ],
    "vout": [
      {
        "value": 1.99999,
        "n": 0,
        "scriptPubKey": {
          "asm": "0 1553f31a3e25e770b7bc857b82909e83734dbfe4bcdb5a5e6fc419b6920c398a",
          "hex": "00201553f31a3e25e770b7bc857b82909e83734dbfe4bcdb5a5e6fc419b6920c398a",
          "reqSigs": 1,
          "type": "witness_v0_scripthash",
          "addresses": [
            "rltc1qz4flxx37yhnhpdaus4ac9yy7sde5m0lyhnd45hn0csvmdysv8x9qtazavf"
          ]
        }
      }
    ],
    "hex": "01000000000102a2b7090abcd0300ffa16eb37aedec26a5972f0b8c51c274e411174cd0c50337d0000000000ffffffff7e07c7bfd1715c7b4ef7748f7231bd34d991d72538ef52d5cd984dc194991f540000000000ffffffff0118beeb0b000000002200201553f31a3e25e770b7bc857b82909e83734dbfe4bcdb5a5e6fc419b6920c398a04004830450221008697fe88ddc35bcf332ba4e808a1a45bec40f7979ea94b968e0b0d801d95431902207b682de2bd59e2e12ad0c2516851042246f37b0d57cebbaf4af4c457b27a32b90147304402207b5866793c7f0f16cdb9c01c05b09700e225b73c3ed73e579a9e6c25e3ee6bb1022030412359e5ceaa0b5f2d60e9e76af9b43120e7b462239a28e6a3f481dd54a34901695221028fedaf75b5b08cddf3bf4631c658b68ee6766a8e999467a641d7cb7aaaecec972103316bc27d95b96418349afc6298c259bb999c6e8f39a7217787ad53602be7c1472102e21c29b4a7eeace9c7a8cefb568ca00c86ff9bf5e79e07e5442c29d4a0950d0453ae040047304402206e0bc7c7f7bbe90a465e373b29ac2f897656fdb5c3db0825065cc917583ef6e002205a67b3e252f4f462d98935d77dd7b78991b9b333e69a291cbdaa4fc0986373ba01473044022010e84fea350dfe133848d15f15455fb4f749ad324d1d2cada641b4581419575b02202ae65562bdc81a3aac8619c1148099523bf8708211720801813496b83bf26d8001695221028fedaf75b5b08cddf3bf4631c658b68ee6766a8e999467a641d7cb7aaaecec972103316bc27d95b96418349afc6298c259bb999c6e8f39a7217787ad53602be7c1472102e21c29b4a7eeace9c7a8cefb568ca00c86ff9bf5e79e07e5442c29d4a0950d0453ae00000000"
  },
  "inputs": [
    {
      "txid": "7d33500ccd7411414e271cc5b8f072596ac2deae37eb16fa0f30d0bc0a09b7a2",
      "hash": "84d76e25279a1eede7b9fa84acbd7326c30fcd2ad42c6e301ecadf302cb3396b",
      "version": 2,
      "size": 257,
      "vsize": 176,
      "weight": 701,
      "locktime": 298,
      "vin": [
        {
          "txid": "107372d5af0a96f4242de976779c35853930a8f39cb5d342426b1ff7818d915e",
          "vout": 0,
          "scriptSig": {
            "asm": "0014a0058104a01eb9f0714727162ff61c5f66ae562f",
            "hex": "160014a0058104a01eb9f0714727162ff61c5f66ae562f"
          },
          "txinwitness": [
            "3044022060a364a36e630dc55348eaa4d227da389960a04de12ef04b5d417c921f3eeb0802204d0a748dadcf6820b323d5cf7861dbd0257fe347e12bbcbfa7c96902465e72ee01",
            "034b64d3c37dfc1b0fcfa0db3fe88e44e2893f19eaa2746908aa67a3c347d0d2ad"
          ],
          "sequence": 4294967294
        }
      ],
      "vout": [
        {
          "value": 1,
          "n": 0,
          "scriptPubKey": {
            "asm": "0 1553f31a3e25e770b7bc857b82909e83734dbfe4bcdb5a5e6fc419b6920c398a",
            "hex": "00201553f31a3e25e770b7bc857b82909e83734dbfe4bcdb5a5e6fc419b6920c398a",
            "reqSigs": 1,
            "type": "witness_v0_scripthash",
            "addresses": [
              "rltc1qz4flxx37yhnhpdaus4ac9yy7sde5m0lyhnd45hn0csvmdysv8x9qtazavf"
            ]
          }
        },
        {
          "value": 23.999648,
          "n": 1,
          "scriptPubKey": {
            "asm": "0 03447eae1a09b8fcbfff4863a303257151e43be5",
            "hex": "001403447eae1a09b8fcbfff4863a303257151e43be5",
            "reqSigs": 1,
            "type": "witness_v0_keyhash",
            "addresses": [
              "rltc1qqdz8ats6pxu0e0llfp36xqe9w9g7gwl93mecaw"
            ]
          }
        }
      ],
      "hex": "020000000001015e918d81f71f6b4242d3b59cf3a8303985359c7776e92d24f4960aafd57273100000000017160014a0058104a01eb9f0714727162ff61c5f66ae562ffeffffff0200e1f505000000002200201553f31a3e25e770b7bc857b82909e83734dbfe4bcdb5a5e6fc419b6920c398a808e0c8f0000000016001403447eae1a09b8fcbfff4863a303257151e43be502473044022060a364a36e630dc55348eaa4d227da389960a04de12ef04b5d417c921f3eeb0802204d0a748dadcf6820b323d5cf7861dbd0257fe347e12bbcbfa7c96902465e72ee0121034b64d3c37dfc1b0fcfa0db3fe88e44e2893f19eaa2746908aa67a3c347d0d2ad2a010000"
    },
    {
      "txid": "541f9994c14d98cdd552ef3825d791d934bd31728f74f74e7b5c71d1bfc7077e",
      "hash": "34490589e516d39c08ed8866b9ec7a686f5dc1bab2afd00ca1b928b4b04a1cff",
      "version": 2,
      "size": 257,
      "vsize": 176,
      "weight": 701,
      "locktime": 301,
      "vin": [
        {
          "txid": "d9e7e7abaf1a18044b806a1801f18c327060cc33efe0818e1738b7dfa2c77873",
          "vout": 0,
          "scriptSig": {
            "asm": "0014a0058104a01eb9f0714727162ff61c5f66ae562f",
            "hex": "160014a0058104a01eb9f0714727162ff61c5f66ae562f"
          },
          "txinwitness": [
            "304402202acc2069fa1818e80a44e89ebec349887e78fb5ac20b4c7851f80787ec7e9aab022007630d6b27712124638120ad646215daa6ca8dae10c5286a9a6eb4f450eafeec01",
            "034b64d3c37dfc1b0fcfa0db3fe88e44e2893f19eaa2746908aa67a3c347d0d2ad"
          ],
          "sequence": 4294967294
        }
      ],
      "vout": [
        {
          "value": 1,
          "n": 0,
          "scriptPubKey": {
            "asm": "0 1553f31a3e25e770b7bc857b82909e83734dbfe4bcdb5a5e6fc419b6920c398a",
            "hex": "00201553f31a3e25e770b7bc857b82909e83734dbfe4bcdb5a5e6fc419b6920c398a",
            "reqSigs": 1,
            "type": "witness_v0_scripthash",
            "addresses": [
              "rltc1qz4flxx37yhnhpdaus4ac9yy7sde5m0lyhnd45hn0csvmdysv8x9qtazavf"
            ]
          }
        },
        {
          "value": 23.999648,
          "n": 1,
          "scriptPubKey": {
            "asm": "0 4a9580841805b1dae10e6336a10193d4d45df763",
            "hex": "00144a9580841805b1dae10e6336a10193d4d45df763",
            "reqSigs": 1,
            "type": "witness_v0_keyhash",
            "addresses": [
              "rltc1qf22cppqcqkca4cgwvvm2zqvn6n29mamryjlxec"
            ]
          }
        }
      ],
      "hex": "020000000001017378c7a2dfb738178e81e0ef33cc6070328cf101186a804b04181aafabe7e7d90000000017160014a0058104a01eb9f0714727162ff61c5f66ae562ffeffffff0200e1f505000000002200201553f31a3e25e770b7bc857b82909e83734dbfe4bcdb5a5e6fc419b6920c398a808e0c8f000000001600144a9580841805b1dae10e6336a10193d4d45df7630247304402202acc2069fa1818e80a44e89ebec349887e78fb5ac20b4c7851f80787ec7e9aab022007630d6b27712124638120ad646215daa6ca8dae10c5286a9a6eb4f450eafeec0121034b64d3c37dfc1b0fcfa0db3fe88e44e2893f19eaa2746908aa67a3c347d0d2ad2d010000"
    }
  ]
}